:100000000C94F3070C9405080C9405080C9405084F
:100010000C9405080C94E0250C9405080C94FF0D35
:100020000C9405080C9405080C94EC1D0C94D22536
:100030000C94C4250C94C61D0C9405080C9405085A
:100040000C949E250C9405080C9405080C94050846
:100050000C9405080C94000E0C9405080C940508EB
:100060000C9405080C9405082D092F0934093D0945
:100070003B093909390980E020202020E080000375
:1000800002020202030080F8F0E0C080F880000F56
:10009000070301000F0080F880C0E0F0F880000F37
:1000A000000103070F008080F80000F88080000046
:1000B0000F00000F0000E01008080810E0001912FF
:1000C0001E001E12190000F8000000E02000403F52
:1000D0000810081F1000101010101010F0800404F9
:1000E00004040404070080F0101010101010000722
:1000F00004040404040400000000000000000000E8
:1001000000000000000000000000000000000000EF
:1001100000000000000000000000000000000000DF
:1001200000000000000000000000000000000000CF
:1001300000000000000000000000000000000000BF
:1001400000000000000000000000000000000000AF
:10015000000000000000000000000000000000009F
:10016000000000000000000000000000000000008F
:100170000000000000000000F80402FE02007018F9
:100180001710101F700002FE020002FE0200101F76
:100190001010105F300002FE02F002FE0200101F7D
:1001A000101F105F30000000E01008F80800701801
:1001B0001710101F7000804028F8284080000708A2
:1001C000507F5008070008F8080008F80800101FC2
:1001D0001010105F300008F808C008F80800101F61
:1001E000101F105F30000000000000000000000041
:1001F00000000000000000000000000000000000FF
:1002000000000000000000000000000000000000EE
:1002100000000000000000000000000000000000DE
:1002200000000000000000000000000000000000CE
:1002300000000000000000000000000000000000BE
:1002400000000000000000000000000000000000AE
:10025000000000000000000000000000000000009E
:10026000000000000000000000000000000000008E
:10027000000000000000000000000000000000007E
:10028000000000000000000000FEFE000000000072
:1002900000373700000000160E0000160E000000A8
:1002A0000000000000000020F82020F820000002DC
:1002B0000F02020F0200102844FE840810000304FD
:1002C000081F08050200182424984020100004028A
:1002D000010C12120C0018A4E2A2128C8000070874
:1002E000101011120508000000160E00000000009A
:1002F0000000000000000000F00804020000000000
:100300000304081000000000020408F000000000D0
:1003100010080403000090A0C0F8C0A090000402E0
:10032000010F01020400808080F0808080000000C6
:1003300000070000000000000000000000000000B6
:10034000005838000000808080808080808000001D
:10035000000000000000000000000000000000009D
:100360000018180000000000008040201000040267
:10037000010000000000F80402020204F80007086F
:10038000101010080700000804FE02000000001012
:10039000101F1010000018040202824438001814C4
:1003A000121110101C000E024262528A060006084A
:1003B00010101008070080403E0000FC00000302FF
:1003C0000202121F12007E2212121222C60004081C
:1003D000101010080700F84422121224C000070869
:1003E0001010100807000E0282C262321E000000C8
:1003F0001F000000000018A4424242A41800070891
:10040000101010080700F80402020284F800000926
:100410001212110807000000003030000000000038
:10042000000C0C0000000000003030000000000054
:10043000002C1C0000000080402010080400000078
:10044000010204081000004040404040400000020B
:100450000202020202000004081020408000001086
:10046000080402010000180402020284780000005F
:10047000003601000000F008A4A4C408F00007083A
:100480001312110A090000F0080402FE0200101FF6
:100490001202121F100002FE424242A41800101F56
:1004A000101010080700F804020202041E000708DA
:1004B00010101008060002FE02020204F800101FCD
:1004C00010101008070002FE4242F2020E00101F38
:1004D000101011101C0002FE4242F2020E00101F0A
:1004E000101001000000F804028282849E000708B8
:1004F000101108041F0002FE424042FE0200101FBD
:100500001000101F1000000202FE02020000001086
:10051000101F1010000000000202FE0202000C106A
:1005200010100F00000002FEC23008060200101F6B
:1005300010030418100002FE020000000000101F4B
:10054000101010101E0002FE32C032FE0200101FFA
:100550001001101F100002FE1AE002FE0200101F20
:100560001000131F1000F80402020204F80007082C
:1005700010101008070002FE020202847800101F0B
:10058000110101000000F80402020204F80007084B
:10059000101012140B1002FE828282443800101FC9
:1005A0001001021C10001824424242841E0006085A
:1005B0001010100807000E0202FE02020E000010CA
:1005C000101F1010000002FE020002FE0200000FC9
:1005D0001010100F000002FE020002FE02000003D5
:1005E0000E180E03000002FE02F002FE02000007D9
:1005F0001C0F1C070000021EF240F21E0200101F1A
:100600001100111F100002FE820082FE0200000095
:10061000111F110000000E02824222120E001E1154
:10062000101010101E0000FE020202020000003F27
:100630002020202000000810204080000000000042
:100640000000000102000002020202FE0000002081
:100650002020203F000010080402040810000000C1
:10066000000000000000000000000000000020204A
:100670002020202020000000000E160000000000B6
:10068000000000000000009048484890E000070883
:10069000101008041F0002FE12080810E000101FCE
:1006A000081010080700E0100808081038000708B4
:1006B000101010080600E010080812FE02000708DB
:1006C0001010081F1000E09088888890E00007084C
:1006D00010101008040040F8444202040800101FE3
:1006E000101000000000E010080810F808000324B3
:1006F0004848443F000002FE201008F00000101F90
:100700001000101F100000080BFB0000000000107C
:10071000101F10100000000008080BFB0000003044
:100720004040403F000002FE804030081800101F8B
:1007300011020408180000000202FE000000000080
:1007400010101F10100008F808F008F00000101F2B
:10075000001F001F100008F8100808F00000101F0C
:100760001000101F1000E01008080810E000070833
:1007700010101008070008F810080810E000407F6B
:10078000481010080700E010080810F808000708D3
:100790001010487F400008F8201008087000101F53
:1007A00010000000000020508888881038000608DB
:1007B0001010100906002020FE202000000000007C
:1007C0000F1010100C0008F8080008F80800000FBF
:1007D0001010081F100008F8080008F808000003AF
:1007E0000E180E03000008F808C008F80800000FF3
:1007F000180F180F00000838E080E0380800101FBC
:100800000100011F100008F8080008F80800002780
:100810004848443F000038080888482818001C123F
:10082000111010101E008040380402020000000168
:100830000E1020200000000000FE0000000000005C
:10084000003F000000000002020438408000002049
:1008500020100E0100000080F0E0C08000000000C9
:100860000703010000000080C0E0F08000000000ED
:100870000103070000003F0B190B0F0BE90A870A61
:10088000790A6B0A5D0A7E09770970091008407EB3
:1008900001013E01013E01013E01017E4040082070
:1008A00002020202FE000000002060E0FFE0602083
:1008B00000020202FF020202404040407F000000AE
:1008C00018200000000000000000000000FF003CB5
:1008D0000A090A3C002231292926000082868E9EC0
:1008E000BEFEFEBEDEEFF6FAFEFEFAF2E2C28200C5
:1008F000000008080804027984A4A46800FF00002E
:1009000000000000000000000000000000000000E7
:100910000000000000FF0000F0282428F00010086C
:10092000FC0013200000000000003C0A090A3C0003
:10093000FF00000000000000000000000000040CA8
:100940001C3C7CFF7C3C1C0C04009EA1A9A99A8045
:100950004323130B0703FF030303030303000000F8
:10096000000000788484844800FF0000000000003C
:10097000050824424A4A340508446252524C05088C
:100980000008047E000608FE7C3C7CECC4182000B5
:100990000000000000000000000000001E212121D6
:1009A000120080C0E07F3F808080808080808080D7
:1009B00080FEFEC0E070381C0E070301000000FD41
:1009C0009595956901010101017F7F03078EDCF890
:1009D000F0F8FC80000000000000000000000000B3
:1009E00000000000FC9494948400010307FEFC05C1
:1009F00010F0F8FC60600001030000182000000007
:100A00000000000000000000808000003F21212144
:100A10001E00FFFF008040404080000000000000FA
:100A2000FFFF060606060606060607070067686A51
:100A30006A666060FCF8F060FFFF606060606060A4
:100A40006060E0E000000000000000000301000022
:100A500001010000489494946400FFFF000610FF19
:100A6000FF06E6C686FFFF839F8F870610FFFF06FF
:100A700086C6E6FFFF83878F9F0610DFDF06E6C688
:100A800086EFEF839F8F8718200000000000000092
:100A90000000808000000000003F2121211E00FF97
:100AA000FFE6169696A606FEFE00DFDF0686C6E681
:100AB000060606060606060707010202020100FFF7
:100AC000FF00EFEF83878F9F83838383838383FF7D
:100AD000FF00000000000001010007070101010103
:100AE00001499595956501FFFF0920A1920010B07D
:100AF000F0F0F0F8FFFF8E070301000103FFFF7124
:100B0000E3C6CCC0C0409585000F0703070E1C024A
:100B100020A192FFFFFFFF85010920A1920010B0E4
:100B2000F0F0F0F8DFDF8E070301000103FBFB713B
:100B3000E3C6CCC0C0408501000F0703070E1C1898
:100B4000200000000000000000001E2121A19200F2
:100B5000F0E0C0E070381C0F0700808080000000CB
:100B60000000FFFF00DFDF8E070303030302000026
:100B700000CFD0D4D4CDC0C0C0C0FFFF00FBFB71FC
:100B8000E3C68CC0E0000000000000000000000090
:100B900000FC949494850104060707070F1C38F0A5
:100BA000E05245465F523D005245465F433D0020BE
:100BB0003E3130306E460000111111131D1010002F
:100BC000000E11110A1B00706E056D006B4D090AB5
:100BD0000C020820010410041F111111111F040040
:100BE0001E0203021E0000000F0818080F00001B61
:100BF0001B1B1B1B1B1B001113171F1713110011AD
:100C0000191D1F1D191100432B45535240545031DB
:100C10003A3300664054503200203530487A004361
:100C200030200052695F4C6F3D0052695F48693D5A
:100C30000052303D0052482F524C002B52482D207C
:100C40003132203133203233002B524C2D203132BF
:100C50002031332032330052482B0052482D0052AD
:100C600048663D005265663D00494345733D004975
:100C70004345303D0056657273696F6E20312E31E9
:100C8000326B002D07062D002A012020002D022D99
:100C9000002D012D004E6F742063616C69627261DA
:100CA0007465642120466F72FF63616C69627261D2
:100CB00074696F6E20636C616D7020746865203399
:100CC000FF70696E7320746F676574686572206168
:100CD0006E6420737461727420776974682074681C
:100CE00065FF6B65792E2041636B6E6F776C656471
:100CF0006765207468652073656C662D7465737410
:100D0000207769746820746865206B65792077693D
:100D10007468696EFF32732E20446973636F6E6E60
:100D20006563742070696E732061667465722074E7
:100D30006865FF6D657373616765202269736F6C09
:100D4000617465FF50726F626521222069732073A0
:100D5000686F776E2E20536F6674776172652061BD
:100D60006E6420646F63756D656E746174696F6E17
:100D70002069732061742073766E3A2F2F206D697D
:100D80006B726F636F6E74726F6C6C65722E206E17
:100D900065742F7472616E736973746F72207465F9
:100DA000737465722000202049723D004C3D002084
:100DB000566C6F73733D00204553523D00564343BC
:100DC0003D0043656C6C21002D032D004056673DAE
:100DD000002056743D0055663D00203132333D0001
:100DE000504E50004E504E00423D00433D002D49B4
:100DF000474254004A464554002D4D4F53004F4B37
:100E0000004261742E2000436F6E7472617374002F
:100E100073686F72742050726F626573210053653E
:100E20006C6674657374007475726E2100726F74F1
:100E300061727920656E636F6465720031302D6276
:100E400069742050574D00662D47656E6572617458
:100E50006F7200537769746368206F666600536829
:100E60006F77206461746100566F6C746167650010
:100E70004672657175656E6379005472616E73694F
:100E800073746F720053656C656374696F6E3A00BA
:100E90005465737420456E640069736F6C6174658A
:100EA0002050726F626573210053656C66746573C0
:100EB00074206D6F64652E2E0054696D656F7574B6
:100EC00021006F722064616D6167656420004E6F60
:100ED0002C20756E6B6E6F776E2C206F72002075F4
:100EE0006E6B6E6F776E00546879726973742E0042
:100EF000547269616300706172740064616D61674E
:100F000065642000656D70747921007765616B0000
:100F100054657374696E672E2E2E00BA03870358CA
:100F2000032E030703E402C302A402880200001494
:100F30000029003E005300690080009700AE00C603
:100F400000DF00F80012012D01490165018201A0B6
:100F500001BE01DE01FF012102440268028E02B5DA
:100F600002DE020903350364039403C803FE03375A
:100F7000047304B404F90443059305EA054906B370
:100F8000062907AE074808FF08DE09AF57B950C267
:100F90004A97451141133D87395A367E33E8308EE2
:100FA0002E692C712AA128F5266925F923A222622F
:100FB0002137201E1F161E1E1D341C571B851ABFED
:100FC0001903195018A61704176A16D6154915C221
:100FD000144114C5134E13DC126E1205129F113DFD
:100FE00011DF1084100011241FBECFEFD8E0DEBF48
:100FF000CDBF11E0A0E0B1E001C01D92AC3BB10754
:10100000E1F70E943B2E0C9495360C9400006F93F0
:101010008F93559822D4529A20D488E70ED06F919E
:1010200080E860FD80E409D08F9107D0529A15D4F2
:10103000559813D4529811D408950894881F559A3E
:1010400010F4529801C0529A08D4559806D4880FCB
:10105000B1F7559A529801D455984D9BFECF4A99B5
:1010600081E0FBD3559AF9D30895529855985A9830
:101070005D9808951092010110920C01089510924C
:101080000C0182E080930101089510920C0184E02C
:1010900080930101089510920C0186E08093010174
:1010A0000895660F660F660F60930C01880F80939A
:1010B000010108958DE00E94F80B8AE00E94F80B70
:1010C0000895CF93C82F682F80E00E940708CF7B38
:1010D000C03811F40E945A08CF9108958EEA0E94F8
:1010E000610885EA0E9461080895CF93DF93C0E00C
:1010F00080E10E94610880E00E9461088C2F806B73
:101100000E946108D4E860E081E00E940708D150A5
:10111000D1F7CF5FC83061F70E945A080E943A08A1
:10112000DF91CF9108950E94350886E00E94300C2F
:101130008EEA0E94610882EE0E94610882EA0E94A3
:10114000610880EA0E94610880EC0E94610885EDD8
:101150000E94610880E80E9461088DE80E94610891
:1011600084E10E94610881E80E94610880E090E0CB
:101170000E9454360E94610880E40E94610884EA5B
:101180000E94610886EA0E9461080E9475088FEA41
:101190000E9461081092010110920C0108950895B7
:1011A000582F28E030E090E841E080E0642F65238C
:1011B00009F0892B440F96952150310921153105ED
:1011C000A9F70895A0E0B0E0E8EEF8E00C94C5358A
:1011D000F82E98E780910C01981B80E1F89EE001C1
:1011E0001124CB57DF4F092F02950F70006110E0DB
:1011F00087E0E82E9F70D92E112329F0183089F44A
:101200009091010103C0909101019F5F8E2D891B78
:10121000806B0E946108802F0E9461088D2D0E94C2
:101220006108FE0184910E94D008682F81E00E942D
:10123000070821971F5F1031F9F680910C01885F34
:1012400080930C014F2D50E0FA013197E730F10502
:10125000E0F4EC5CFF4F0C94F1358EE306C08CE7B4
:101260000E94F80B8CE312C08CE70E94F80B8CE70D
:101270000DC082E50BC085E709C08FE40E94F80B22
:1012800088E60E94F80B8DE601C08F2D0E94F80BB6
:10129000CDB7DEB7E7E00C94E1358F5C0E94E20841
:1012A000089580E20E94E2080895CF93C4E10E946D
:1012B0005109C150E1F7CF910895CF93DF93EC012D
:1012C0008991882319F00E94E208FACFDF91CF912B
:1012D0000895CF93DF93EC01FE018491982F9F77BF
:1012E00021F00E94E2082196F7CFDF91CF91089577
:1012F000A0E0B0E0EEE7F9E00C94BA3567FD7CC001
:10130000403408F079C0EC012296FC018490942EC0
:101310009694969496943196E491F0E0E40FF11D42
:10132000319753E0F595E7955A95E1F7822F827052
:10133000682E21FF0BC0CF01992789199109889E3A
:10134000A001899E500D1124C40FD51F7E2E97E059
:101350009E1710F447E0742E80E8861B8819582EDB
:1013600052949FE05922E52DE0615E2E37E0232E56
:1013700029188F70482E2170322EE82CF12C67012D
:10138000F1E0CF1AD108791480F1822D806B0E9490
:101390006108852D0E946108842D0E94610800E08B
:1013A00010E05E01AC0CBD1C0815A8F4311004C09F
:1013B000F501E01BF10B03C0FE01E00FF11F84916A
:1013C000611002C00E94D008682F81E00E940708C7
:1013D0000F5F1F4FE9CF662019F0CE19DF0902C059
:1013E000CE0DDF1D93942A94CECF87E0909101011A
:1013F000891B806B0E946108CDB7DEB7E2E10C94D7
:10140000D63597FF09C08F939F938DE2DBDE9F91C6
:101410008F91909581959F4F66E271E04AE050E090
:101420000E943E364ADF0895EF92FF920F931F937A
:10143000182F062FF42E8AED9DE04BDFEE24E0916D
:101440006101F09162018485E81611F4812F09C0D1
:101450008285E81611F4802F04C08385E81611F404
:101460008F2DB0DEE3948E2D833049F71F910F91BD
:10147000FF90EF9008950F93E0E3F1E0880F880F5D
:10148000880FE80FF11D608171818281938164363C
:1014900071058105910570F420910001222351F41A
:1014A000848165810E944121BC0180E090E04EEF83
:1014B00003E002C04FEF04E024E05BD0F2DE0F91C6
:1014C00008950F93833078F4E0EBF1E0E80FF11D1D
:1014D000E80FF11D60817181812D912D4DEF26E581
:1014E00003E047D0DEDE0F9108951F93182F8091FF
:1014F0008901882319F0D5DE80E064DEC0DD86ED49
:101500009DE0E7DE812F82958F70DBDF812F8F706A
:10151000D8DF1F910895DF92EF92FF920F931F93F0
:10152000CF93DF93D0900D018D2D82958F70C4EAFB
:10153000D1E07E01E80EF11CF7018081AEDE01E909
:101540001CE0C801C6DEF7018681A7DEC801C1DE46
:101550008D2D8370C80FD11D8E819FDE80910D016E
:10156000C4DFDF91CF911F910F91FF90EF90DF903B
:101570000895A0E0B0E0EFEBFAE00C94C035142F32
:10158000C22F033009F4A7C0043009F4ABC0053002
:1015900051F0063081F00730B1F0B4E6CB2ED12CFB
:1015A000E12CF12C17C0A0EACA2EA6E8DA2EEE2410
:1015B000E394F12C0FC0F0E4CF2EF2E4DF2EFFE035
:1015C000EF2EF12C07C0E0E8CE2EE6E9DE2EE8E9AA
:1015D000EE2EF12C5AE0852E912CA12CB12C6C15FD
:1015E0007D058E059F0560F06B5F7F4F8F4F9F4F8E
:1015F000A50194010E941A35CA01B9011F5FEFCFFE
:101600000CE0010F07FD04C0033118F002E101C036
:1016100000E01BEA019F112D11241695212F220FA6
:10162000210F021B21F01F5F23E0201B022F2AE065
:1016300030E042E551E00E941936A2E5B1E00D909C
:101640000020E9F71197A255B140BA2E9D0133272A
:10165000802F90E004968217930714F41F5F0D5FAC
:10166000E12FF0E0E953F44FA490DA2FD01B1D16C0
:1016700044F08EE20E94E208DD2319F080E30E942C
:10168000E208011101C0DFEF42E5E42E41E0F42E53
:101690008701CD2EDD24C7FCD094802F8E198B15A9
:1016A00078F4F80181918F010E94E2089801225597
:1016B00031402C153D0589F78EE20E94E208EDCFFE
:1016C000AA2019F08A2D0E94E208CC2391F08C2FD9
:1016D0000E94E2080EC038EEC32E33E0D32EE12C78
:1016E000F12C78CF20E1C22E27E2D22EE12CF12C72
:1016F00071CFCDB7DEB7ECE00C94DC35E82FF0E02D
:10170000EE0FFF1FEA57F74F8591949120E00E945A
:1017100078090895CF93DF93C82FD62FE091610108
:10172000F0916201E485F0E0EE0FFF1FEA57F74FFA
:101730008591949120E048E368E70E947809E09160
:101740006101F0916201E285F0E0EE0FFF1FEA57C0
:10175000F74F8591949120E04D2F6C2F0E947809CE
:10176000E0916101F0916201E385F0E0EE0FFF1F6F
:10177000EA57F74F8591949120E040E268E70E9494
:101780007809DF91CF910895CF93C82F20E040E2F0
:1017900068E587E89AE00E947809CC2369F0EC2F8D
:1017A000F0E0EE0FFF1FE258F74F8591949120E093
:1017B00048E261E60E947809CF910895CF93C82F3F
:1017C00020E040E268E58FE39BE00E947809CC23AB
:1017D00069F0EC2FF0E0EE0FFF1FEA58F74F85910C
:1017E000949120E040E264E60E947809CF91089548
:1017F0008F932F932AE080953B9A089410F4439896
:1018000002C0439A000020D027D086952A95B1F7D0
:101810002F918F91089503D002D001D000D000D035
:1018200003D002D001D000D0A89500D003D002D0C0
:1018300001D000D000D003D002D001D000D000D021
:1018400003D002D001D000D000D003D002D001D00C
:1018500000D000D003D002D001D000D00000089505
:1018600090E0893C28F0885C48EC849FC0011124FA
:10187000009709F4089520918100277019F0DBDFAB
:10188000019716C08130910519F002973EE303C01D
:1018900037E180E090E02091B200230F2093B30065
:1018A00042E04093700027E023BF889526E023BFE5
:1018B000A895DECF8F9384E0D3DF07C08F9382E0BB
:1018C000CFDF03C08F9381E0CBDF8F911F93182F61
:1018D000106410937C00E12FE07880914901E817B3
:1018E00059F0E0934901B0DF8EE980937A0083E0FC
:1018F00083BF889582E083BF20E030E0A901E0E06B
:101900001FC08EE980937A0083E083BF889582E0D0
:1019100083BF6091780070917900260F371F411DB9
:10192000511DE43061F480914B01803041F084E03E
:101930002030380720F417FD02C01068CACFEF5FCF
:1019400080914801E817E8F260914C0170914D01D7
:1019500017FF04C060914A0170914B0180E090E054
:101960000E94E2342FEF33E040E050E00E941A354D
:10197000B901CA012091480130E040E050E00E94E6
:101980001A35C9011F91089589B183FB882780F911
:101990004999826090911801943050F09EE09093A4
:1019A0001401809315011092190191E09093180190
:1019B000E0911801AE2FB0E0AC5EBE4F9C9198173D
:1019C00021F181111AC0A3E0AE0FA370209119017B
:1019D000923041F4B0E0AC5EBE4F9C91933069F41C
:1019E0002F5F09C0913049F4B0E0AC5EBE4F9C91CE
:1019F000933019F4215020931901EF5FE370E093C5
:101A00001801F0E0EC5EFE4F80838091190187FDA4
:101A1000819580931A010895A0E0B0E0E2E1FDE035
:101A20000C94C335D82EC92E539851980E941F0C80
:101A300010921901E0911801F0E03196E370FF2750
:101A4000EC5EFE4F80EF8083C5E6D9E10E94C40CB6
:101A50004F9906C00E94230CD150C1F7C150A9F77D
:101A6000CD2DDC2DF12C05E510E0BB24B394D7FD82
:101A700038C082E3E82E0E94C40C0E94230CEA9432
:101A8000D1F7000F4F9B0F5F0F730F3349F4111104
:101A900003C0CD2DDC2D14E01F5F163928F021C0C6
:101AA000011102C011111DC0A8951C161D062CF4B1
:101AB0002A97209711F4CFEFDFEF80911A01882346
:101AC00039F0F39480918A01811102C0B0928A01A9
:101AD00084E18F1560F680911901811102C0F12C0B
:101AE000C6CF812FCDB7DEB7E9E00C94DF3588E8AB
:101AF00093E10E940C0D811104C080911A018111A3
:101B0000F6CF0E943F080E9455090E943F080895A1
:101B10008CE090E00E945436382F8DE090E00E94D7
:101B2000543620915001230F30915101381F2093DA
:101B30001D0130931E0183E0283E380720F0C901C3
:101B4000885E934002C080E090E062E370E00E9413
:101B5000F234683008F067E0EBE1FFE0E60FF11DDA
:101B6000E60FF11D459155912591359162E3681B72
:101B7000421B530B649FC001659F900D1124499631
:101B800062E370E00E94F234620F731F70938D0164
:101B900060938C018EE090E00E945436992787FD77
:101BA00090956091500170915101860F971F90930D
:101BB0004B0180934A019093880180938701089597
:101BC000CF93DF9324E130E0B9010E94F234DC01CD
:101BD000EDE2FFE0E60FF71FE60FF71FC591D59185
:101BE000459155914C1B4A9FC0011124B9010E9497
:101BF000F2346C0F7D1FCB01DF91CF9108951895C2
:101C00001895A1E0B0E0E7E0FEE00C94C83598E05C
:101C100097B998B9E82FF0E0EC52F44F249125B928
:101C2000E62FF0E0EC52F44F9491922B94B9698333
:101C30000E94660C8C016981862F0E94660C20919F
:101C40004C0130914D0136952795A901415251091A
:101C50004017510760F4255E3F4F0217130738F411
:101C60004817590720F441E08217930708F040E035
:101C700014B8842F2196E4E00C94E435CF9361E00E
:101C800080E00E94010EC82F62E080E00E94010EF9
:101C9000C80F62E081E00E94010E8C0FCF91089581
:101CA000A3E1B0E0E6E5FEE00C94BA35182F1092FF
:101CB0002101807FE9F40E943E0E833009F0F9C3D0
:101CC0000E94750889EA9EE00E9469090E943F0807
:101CD0008FE30E94E20880ED97E00E940C0D8B30AC
:101CE000F8F40E94750885E79CE00E946909E1C349
:101CF00036E9F32E00E00E94750880E19EE00E9424
:101D000069090E943E0E833021F40F5F043010F009
:101D100007C000E088E20E94300CFA9461F76FC0BF
:101D20000E943F0881E39CE00E94690960E083E033
:101D300090E00E94623660E084E090E00E946236AB
:101D400060E082E090E00E94623660E082E00E9403
:101D500041215C019A83898361E082E00E944121F4
:101D60006C019C838B8360E081E00E9441217C01B7
:101D70009E838D83B501882777FD8095982F03E09A
:101D800020E24EEF0E94B90AB601882777FD8095C0
:101D9000982F20E24EEF0E94B90AB701882777FDFD
:101DA0008095982F24E04EEF0E94B90A2AE5A216EA
:101DB000B10424F084E190E09A838983698183E00F
:101DC00090E00E9462368AE5C816D10424F084E1CE
:101DD00090E09C838B836B8184E090E00E9462366C
:101DE0009AE5E916F10424F084E190E09E838D8366
:101DF0006D8182E090E00E9462360E94770D1F7034
:101E00001F87113009F067C0AA24A394B12C08EBF6
:101E1000202E02ED302E07E4402E512C82E0882E39
:101E200098E0992E24ECC22E26E3D22EE12CF12C40
:101E300054C0739423E0271508F443C00E943F0860
:101E40000E9455090E943A080E9455090E943A08CA
:101E500084E50E94E208C5010E940C0A0E94510913
:101E6000113009F03FC00E943D1E84E69CE00E94B4
:101E70006909609150017091510180E090E004E0A7
:101E800026E54DEF0E94B90A0E943F088FE59CE0CD
:101E90000E94690980918C0190918D010E940C0A29
:101EA0008EEB8093480197B898B814B815B888EEAF
:101EB00093E00E940C0D143009F4BBCF8B3008F472
:101EC000B8CF88EC0E94300C8FEFA81AB80A98E0BF
:101ED000A916B10411F418E736C1712C1A2DA0E22D
:101EE0006A2EACCF123009F044C020914C013091E1
:101EF0004D01A8E5BBE10E94C134A70196010E94F3
:101F00003C3581E085B9E5E0E4B980E0288B398B88
:101F10004A8B5B8B0E945A0C288939894A895B89D4
:101F2000821B930B9A83898381E184B980E0288B9B
:101F3000398B4A8B5B8B0E945A0C288939894A89D4
:101F40005B89821B930B9C838B8384E085B984E13E
:101F500084B981E0288B398B4A8B5B8B0E945A0CA9
:101F600028893989821B930B9E838D8389E49CE0A9
:101F7000C2C0133061F585B8FAE0F4B980E00E9480
:101F80005A0C20914C0130914D0136952795388798
:101F90002F83821B930B9A83898322E224B980E0EA
:101FA0000E945A0C2F813885821B930B9C838B8354
:101FB00095B888E284B981E00E945A0C2F81388557
:101FC000821B930B9E838D838BE39CE094C0143023
:101FD00049F489E99EE00E9469090E943E0E811140
:101FE00065C28FC01530B1F415B884B880E00E9486
:101FF0005A0C9A83898394B881E00E945A0C9C837E
:102000008B8364B882E00E945A0C9E838D838BE59B
:102010009CE071C0163051F584B885B880E00E940C
:102020005A0C20914C0130914D01821B930B9A83E5
:10203000898394B895B881E00E945A0C20914C0194
:1020400030914D01821B930B9C838B8364B865B8E0
:1020500082E00E945A0C20914C0130914D01821B6C
:10206000930B9E838D8387E59CE045C0173009F074
:1020700045C020914C0130914D01A8E5BBE10E9483
:10208000C134A20191010E941A3585B893E094B938
:1020900080E0288B398B4A8B5B8B0E945A0C2889F5
:1020A00039894A895B89821B930B9A83898395B806
:1020B000ECE0E4B981E0288B398B4A8B5B8B0E9482
:1020C0005A0C288939894A895B89821B930B9C8326
:1020D0008B8365B8F0E3F4B982E0288B398B4A8BA7
:1020E0005B8B0E945A0C28893989821B930B9E8333
:1020F0008D8385E39CE00E94690903C0113009F4D7
:10210000D2CE0E943F0889819A810E94010A0E94D2
:1021100051098B819C810E94010A0E9451098D8185
:102120009E810E94010ABFCE0E943F080E9455096D
:102130000E943F0889E99EE00E94690984E60E94A6
:10214000300C115021F00E943E0E8111EDCF0E9403
:1021500075088AE29CE00E94690960914E017091C5
:102160004F0180E090E003E024E04FEF0E94B90AC5
:102170000E943F0883E29CE00E94690960915E0131
:1021800070915F0180E090E024E04FEF0E94B90A77
:102190000E94770D109221010E9475088FE19CE04A
:1021A0000E94690960E082E00E940B1B0091960189
:1021B000109197011C870B8761E082E00E940B1B46
:1021C000C0909601D0909701DE86CD8660E081E0D8
:1021D0000E940B1BE0909601F0909701FE82ED8229
:1021E00062E080E00E940B1B809196019091970124
:1021F0009C838B8362E081E00E940B1B809196019F
:10220000909197019A87898761E080E00E940B1B7B
:1022100080919601909197019A83898398878F8303
:10222000B801882777FD8095982F03E020E240E0F1
:102230000E94B90AB601882777FD8095982F20E281
:1022400040E00E94B90AB701882777FD8095982F52
:1022500026E444EF0E94B90A6E01EFE0CE0ED11CD5
:10226000FE013196819191910A97853B9105E0F4A9
:10227000EC15FD05B9F705E010E0CE0101967C01F3
:10228000F7016081F2E0EF0EF11C6E5EC8010E9462
:1022900062360F5F1F4FEC14FD0491F70E943F0858
:1022A0008EEF9DE00E9469090E94770D2F852130F5
:1022B00029F080915D01823009F0E2C0E0E4BE2E99
:1022C00010E0FAE0CF2ED12CE12CF12C0E94750801
:1022D00080E00E944D0988EC9DE00E94690982E03F
:1022E0000E944D098FEA9BE00E946909109221012A
:1022F00060E082E00E940B1B0091A00160918E01C2
:1023000070918F018091900190919101073F44F469
:10231000A70196010E941A350F5FB901CA01F6CFD5
:102320000093A00160938E0170938F0180939001C0
:1023300090939101073F09F08CC0DC01CB018056DE
:102340009109A109B10980399545A105B10508F0A8
:1023500080C06091A2017091A301CB018B569F4F69
:102360008B32914008F075C01F5F153008F472C0C1
:102370008CE090E00E9470360E94750888EA9BE02D
:102380000E9469098091A2019091A3010E94010A13
:102390000E94880D88E088B989E087B980E284B915
:1023A00082E00E94660C853D9340D4F714B81092E9
:1023B0004B0110924A0182E00E94660C7C018091E0
:1023C00087019091880190934B0180934A0182E0AC
:1023D0000E94660C8C01000F111F10924B0110928D
:1023E0004A0182E00E94660CC0908701D09088016B
:1023F000D0924B01C0924A01E80EF91EE01AF10A90
:102400000E943F0881EA9BE00E9469098EE090E00B
:102410000E94543673E0B72EB80E9601D7010E9481
:10242000D0349801442737FD4095542F0E943C3505
:10243000B20E6B2D8EE090E00E9462368B2D9927B4
:1024400087FD90950E94010A0E94880D0E94770DD9
:1024500017C010E00E943F0860918E0170918F01BB
:10246000809190019091910104E026E44091A001B7
:102470000E94B90A88E20E94300CBA9409F026CF73
:1024800010925D0189E1809348010E94750885E7FB
:102490009CE00E9469090E943F0880E99EE00E943A
:1024A0006909109221010E94770D03C052E0752E38
:1024B00028CE6396E2E10C94D63580915D018111BE
:1024C0000DC085E090E00E94543661E0680F88E01E
:1024D00090E00E94623681E080935D0108950F9341
:1024E000CF93DF93E82FF0E0E253F44FE491E8B9A3
:1024F000E860E7B915B8E62FF0E0EF52F44FE49149
:10250000E4B9862F0E94620CEC010097F1F086EA94
:102510009DE00E946909DE0120EA36E841E050E0D2
:102520000E94D73428E937EB40E050E00E941A358A
:10253000CA01B9018827992702E021E447EF0E94E8
:10254000B90A88E087B988B914B8DF91CF910F91A3
:102550000895A9E1B0E0EFEAF2E10C94BA35982EC3
:10256000862E342EA895862F90E0FC01EC52F44F75
:102570002490FC01EF52F44F2491288B242F30E05B
:10258000F901EC52F44F6490F901EF52F44F44908A
:10259000292D30E0F901EC52F44F7490F901EF521B
:1025A000F44F44914B87F901E253F44F54915B830C
:1025B000FC01E253F44F64916C875860588768605F
:1025C000562E65B8762D72297C8374B957B98B81E4
:1025D00088B9882D0E94620C9A83898324B8882D3B
:1025E0000E94620C5C0114B80E941B0C15B89C81FF
:1025F00094B9882D0E94620CA981BA818A179B0721
:1026000038F5805E9E4FA817B90708F44EC457B836
:1026100088E088B975B8872D862984B9E0914C0186
:10262000F0914D01FA83E983892D0E94620C298182
:102630003A81281B390B3A83298374B8A0904C0146
:10264000B0904D01892D0E94620CA81AB90A08C0E9
:1026500029813A81205E3E4F8217930708F425C4F2
:10266000209170018091820190E0820F911D02976C
:102670004CF0213009F019C490916D0180917F01D7
:10268000981313C449815A814437510508F4AEC0E8
:10269000CA01880F991F4496A816B90608F0A6C06B
:1026A000588557B96B8168B9842D822984B9882DE2
:1026B0000E945E0C8C01832D0E94660C7C0145B843
:1026C000882D0E945E0C9801295A3D4F47282817F3
:1026D0003907D8F588E088B957B844B845B8832D8C
:1026E0000E945E0C88349F4028F084E08093210192
:1026F00082E204C084E08093210184E2809320017F
:102700001093680100936701E016F10640F4C801D8
:102710008E199F0990936C0180936B0104C01092F5
:102720006C0110926B019801A8EEB3E00E94C134D5
:1027300020911B0130911C0140E050E00E941A35AD
:1027400030936A0120936901A7C388E088B957B81C
:1027500044B845B8892D0E945E0C8C01832D0E94DF
:10276000660C7C0175B8892D0E945E0C895A9D4FBC
:102770008017910708F099C38B8188B9988597B91C
:10278000832D0E945E0C813D934028F484E0809369
:10279000210182E304C084E08093210184E38093DB
:1027A00020010E151F0538F4E01AF10AF0927E019F
:1027B000E0927D0104C010927E0110927D01209173
:1027C0004C0130914D01201B310BA8EEB3E00E946B
:1027D000C134209122013091230140E050E00E9459
:1027E0001A3530937C0120937B0169C188E088B958
:1027F00057B875B8B72DB629B987B4B9892D0E94D5
:10280000620C9F838E83E0904C01F0904D01832DEC
:102810000E94660C8C018A30910570F514B881E035
:102820000E94300C872D842984B9892D0E94620C66
:102830009F838E83E0904C01F0904D01E81AF90AD5
:10284000832D0E94660C8C018091220190912301BE
:102850009C0140E050E060E677EB87E490E00E9466
:102860001A35D7010E94D734980140E050E00E9409
:102870001A3569017A010DC0C701EE81FF818E1BF7
:102880009F0B801B910BB8010E94F2346B01E12C6D
:10289000F12C14B815B8FB81F8B9288527B981E067
:1028A0000E94300C39EBA31637E0B30608F0FDC2E6
:1028B0004C8144B9882D0E94620C8F359D4008F4EC
:1028C00004C114B881E00E94300C742D7229798BF8
:1028D00074B9882D0E94620C998F888F832D0E9475
:1028E000660C9F878E87892D0E94660C9B8B8A8B36
:1028F0008E859F85813D974008F48CC083E080934E
:1029000021018DE080932001E88DF98DAE16BF0680
:1029100020F4EA19FB09F98FE88F40901B015090D1
:102920001C01612C712C60E677EB87E490E0A30139
:1029300092010E941A35A88DB98D0E94D734AE85B8
:10294000BF859D0140E050E00E941A3580918201D0
:10295000882369F08091750190917601A0917701AB
:10296000B091780182179307A407B507A0F42093CC
:1029700075013093760140937701509378018A89ED
:102980009B89EE85FF858E1B9F0B90937A01809328
:10299000790121E001C020E08091750190917601DC
:1029A000A0917701B09178018C159D05AE05BF050A
:1029B00088F4C0927501D0927601E0927701F0928E
:1029C00078018E819F81801B910B90937A01809377
:1029D000790103C0222309F4CFC39501A8EEB3E027
:1029E0000E94C134A30192010E941A3530937C01E8
:1029F00020937B0129813A81A8EEB3E00E94C13483
:102A0000A30192010E941A3530937E0120937D012B
:102A100021E0B2C3F1E6AF16B10408F056C0288D2C
:102A2000398D213D47E0340708F44FC084E080939E
:102A3000210126503F4F6A897B892617370710F0FE
:102A400082E101C083E1809320017C857770E72ECD
:102A5000832D806480937C00ABE0FA2ECC24C39459
:102A6000D12C0FEF13E0A89561E0862D0E94261A65
:102A7000298924B986B18E21E9F324B880917A009E
:102A8000806480937A0080917A0086FDFCCF8091EB
:102A9000780090917900A801481B590BC40ED51EEF
:102AA000FA9409F7C601880F991F880F991F69E0EA
:102AB00070E00E94F23470937E0160937D018091FA
:102AC00082018F5F80938201A3CF5C8154B965B886
:102AD000882D0E94620C9D838C83832D0E94660C3E
:102AE0009F838E8360914C0170914D01681B790B1F
:102AF0006A30710590F514B881E00E94300C842D85
:102B0000822984B945B8882D0E94620C9D838C83EC
:102B1000832D0E94660C9F838E8380911B01909170
:102B20001C019C0140E050E060E677EB87E490E018
:102B30000E941A35AC81BD810E94D73420914C018E
:102B400030914D01AE81BF812A1B3B0B40E050E02C
:102B50000E941A3569017A0109C08C819D81861B0A
:102B6000970B0E94F2346B01E12CF12C57B888E0EE
:102B700088B9B985B4B9B5B9892D0E94620C8C01A8
:102B8000832D0E94660C9F878E87882D0E94660C7D
:102B90009C010034E6E01E0708F084C175B8892D59
:102BA0002E8B3F8B0E94620CAC0174B8892D4C8B2C
:102BB0005D8B0E94620C9B8B8A8B15B881E00E9412
:102BC000300C75B8892D0E94620C2E893F894C8982
:102BD0005D896A897B896034764008F058C081330A
:102BE000914108F454C0C8018A569F4F48175907AD
:102BF00008F04DC085E080932101809170018F5FC6
:102C0000809370018E859F85821B930B9093680142
:102C100080936701021B130B10936C0100936B01EF
:102C200014B815B8EC85E8B981E00E94300C74B88E
:102C3000892D0E94620C853F910508F0ABC2F98591
:102C4000F4B9832D0E94620C813D934008F4A2C226
:102C5000892D0E94660C8D3D924008F49BC274B889
:102C6000892D0E94620C8D3D924008F493C275B884
:102C700081E00E94300C15B8892D0E94620C853FBE
:102C8000910508F087C286E08093210183C247281E
:102C900044B845B8892D0E945A0C9C0160914C01A2
:102CA00070914D01681B790B7F876E87832D2E8B6A
:102CB0003F8B0E94660C9A87898700914C01109186
:102CC0004D01081B190B882D0E94660C9D878C876F
:102CD0002E893F890E3F79E0170708F48FC083E003
:102CE000809321018CE0809320018E859F85A8161A
:102CF000B90620F48A199B099F878E87409022018C
:102D000050902301612C712C60E677EB87E490E012
:102D1000A30192010E941A35AE85BF850E94D73467
:102D2000980140E050E00E941A358091700188239C
:102D300069F08091630190916401A0916501B09167
:102D4000660182179307A407B507A0F420936301D7
:102D500030936401409365015093660189859A859B
:102D6000AC85BD858A1B9B0B90936801809367019E
:102D700021E001C020E08091630190916401A09165
:102D80006501B09166018C159D05AE05BF0598F4EF
:102D9000C0926301D0926401E0926501F0926601F5
:102DA0008E819F81EC81FD818E1B9F0B909368012A
:102DB0008093670103C0222309F4EDC19501A8EEB9
:102DC000B3E00E94C13420911B0130911C0140E00E
:102DD00050E00E941A3530936A01209369012981DD
:102DE0003A81A8EEB3E00E94C134A30192010E948F
:102DF0001A3530936C0120936B01CCC1F1E6AF160C
:102E0000B10408F04FC04E855F8549345D4008F439
:102E100049C084E08093210182E0809320018C8569
:102E20009D8586509F4F8217930718F483E0809307
:102E300020010B810770832D806480937C001BE050
:102E4000EE24E394F12CA89560E0862D0E94261ACA
:102E500044B845B886B18023E9F774B880917A0008
:102E6000806480937A0080917A0086FDFCCF809107
:102E7000780090917900E80EF91E115021F7C701F2
:102E8000880F991F880F991F69E070E00E94F23443
:102E900070936C0160936B01809170018F5F8093E0
:102EA000700178C188E087B988B914B815B888E08E
:102EB00087B977ECA71671E0B70608F4B9C088B9EE
:102EC00018EC0885052907B981E00E94300C57B835
:102ED000892D0E94660C429710F01150A1F78B8546
:102EE00084B985B961E0862D0E94261A892D0E9439
:102EF000620C8C01988994B915B8A885A7B9BB81D3
:102F0000B8B960E0862D0E94261AA0904C01B090BE
:102F10004D01882D0E94620C6C0124B8892D0E94FD
:102F2000620C9A838983882D0E94660C29813A81DC
:102F3000281B390B3A83298388E088B957B874B8BD
:102F400075B861E0862D0E94261A892D0E94620CB8
:102F50007C01882D0E94660CE81AF90A49815A8181
:102F60004E155F0548F45B8554B955B9892D0E940B
:102F7000620CFA82E98219C085010C191D09688961
:102F800064B915B8788577B98B8188B960E0862DEA
:102F90000E94261AE0904C01F0904D01882D0E946D
:102FA000620CD701A81BB90BCD0129813A812759A1
:102FB000310929383141E0F529813A818217930797
:102FC000B8F5C80163E0969587956A95E1F7893C65
:102FD000910510F088EC90E0800F911F49815A8193
:102FE0008417950728F5CA0154E0969587955A9558
:102FF000E1F780179107E0F480912101823018F405
:1030000082E08093210180911F01E82FF0E0DF0131
:10301000AC55BE4F9C9216968C92EE0FFF1FE0555A
:10302000FE4F29813A81318320838F5F80931F0176
:10303000209182018091700190E0820F911D892B77
:1030400009F091C0A89580914C0190914D01880F95
:10305000991F880F991F90934D0180934C01809187
:103060004A0190914B01880F991F880F991F9093E7
:103070004B0180934A018EEB8093480188E088B928
:1030800057B874B875B818E1C12CD12C882D0E949E
:10309000620C582E492E892D0E94660C7C018C19D9
:1030A0009D0997FF03C0919581959109039734F08D
:1030B000A895115009F440C06701E8CF15B83B85C9
:1030C00034B9892D0E94620C81359105A8F53B85A4
:1030D00035B9892D0E94620C8C01488547B95B8106
:1030E00058B915B824B888E1B82EC12CD12C892D37
:1030F0000E94620C782E692E882D0E94660C9A839D
:1031000089838C199D0997FF03C091958195910939
:1031100003970CF04EC0488944B9882D0E94620C78
:103120005C0150ECE51654E4F50608F049C005389A
:1031300061E0160708F449C080914C0190914D015F
:10314000969587959695879590934D0180934C0120
:10315000809187019091880190934B0180934A015F
:1031600089E18093480188E087B988B914B815B817
:103170006996E2E10C94D635809182018F5F80934D
:103180008201222381F330927F018092800190920C
:103190008101E9CF21E0809170018F5F8093700100
:1031A000222309F330926D0190926E0180926F019B
:1031B000DACFA895BA9409F4BFCFC980DA8097CF47
:1031C000003B7DE4170708F0B7CFC0904C01D090CA
:1031D0004D0189819A81843A924008F061C0B8E932
:1031E000AB16B10408F4A8CF9801A8E9B7EB0E9488
:1031F000C1349601201B310B40E050E00E941A358B
:1032000029013A0196012A193B09A8E9B7EB0E9466
:10321000C1346501E12CF12CA70196010E941A35F9
:103220000837EFE01E0770F4C301B201B2E0660F89
:10323000771F881F991FBA95D1F7620F731F841FDC
:10324000951F12C0F8E7AF16FFE0BF06A0F4CA0151
:10325000B901A2E0660F771F881F991FAA95D1F7C1
:10326000640D751D861D971D25E030E040E050E09F
:103270000E941A3508C0240D351D461D571D569550
:10328000479537952795A4E6B0E00E94D7346B01A7
:103290007C012CEAC20E2DE0D21EE11CF11C75C08F
:1032A000252D342DE216F30608F49701072D162D6F
:1032B00049815A810417150708F48A0159012E150E
:1032C0003F0508F45701A0912201B0912301B501F7
:1032D000621B730B9B010E94C13496012A193B09A2
:1032E00040E050E00E941A3529013A0178018981B5
:1032F0009A818017910708F47C01A0911B01B0917D
:103300001C0198012E193F090E94C134870120E059
:1033100030E0A90198010E941A3598E7A9169FE0AC
:10332000B90670F4C301B201E2E0660F771F881F8F
:10333000991FEA95D1F7620F731F841F951F12C062
:10334000A8E7EA16AFE0FA06B0F4CA01B90142E014
:10335000660F771F881F991F4A95D1F7640D751D59
:10336000861D971D25E030E040E050E00E941A35B0
:1033700069017A010AC069017A01C40CD51CE61CF6
:10338000F71CF694E794D794C79410912101133059
:1033900008F0D2CE80918901882309F443C0B8E0B7
:1033A0008B9F30011124F301E85DFE4F3F019681B0
:1033B000931132C080809180A280B380A7019601D2
:1033C000281939094A095B0957FF07C050954095EC
:1033D000309521953F4F4F4F5F4FAAE0B0E00E94DC
:1033E000D734A50194012C593F4F4F4F5F4F2C0DFF
:1033F0003D1D4E1D5F1D0E941A35232B242B252BAE
:1034000009F09ACE123019F081E08093210181E019
:10341000D30117968C9390CE9781911103C0815060
:10342000809389018091890128E0829FF001112415
:10343000E05DFE4FC082D182E282F3828482958277
:10344000368217828F5F8093890176CECF93C82F03
:10345000C09595B160FF02C0982B01C09C2395B91F
:1034600094B1982B94B982E00E94300C84B18C23E3
:1034700084B985B18C2385B9CF910895A0E0B0E0DF
:10348000E4E4FAE10C94C3358AE0C82E98E0D92E22
:103490002FE3B22ED7B8D8B815B8B4B880E00E94E0
:1034A000620C8C0181E00E94660CEC0182E00E94BB
:1034B000660C20912101283081F428E027B914B846
:1034C0001093030100930201D0930501C0930401FE
:1034D000909307018093060159C031E0C430D105B3
:1034E00008F030E021E00430110508F020E023234B
:1034F00019F08430910508F3083E134010F028E0DD
:1035000001C029E0C83ED34008F42260883E9340C1
:1035100008F4246027B9C0E0D0E0A89580E00E94BC
:103520005A0C7C0181E00E94660C8C0182E00E94B2
:10353000660C24E1E21625E0F20608F4389A04311C
:1035400035E0130708F4399A843125E0920708F42E
:103550003A9A36E0E316F10428F40630110510F427
:10356000069738F02196C43F81E0D807B1F6D09293
:10357000210100E010E00C171D0729F00E941F0C2C
:103580000F5F1F4FF8CFCA9409F084CFCDB7DEB7D5
:10359000E9E00C94DF35CF92DF92EF92FF92CF9368
:1035A00020918E0130918F014091900150919101B5
:1035B000C091A0018AE0C82ED12CE12CF12C8C2FD7
:1035C000CF5F213A96E8390791E04907510538F075
:1035D000CA01B901A70196010E941A35F0CF809364
:1035E000A001A0914C01B0914D010E94D73428E870
:1035F00033E140E050E00E941A3520938E01309371
:103600008F014093900150939101CF91FF90EF90E3
:10361000DF90CF900895A0E0B0E0E1E1FBE10C94F1
:10362000C035C82FD62F8FEF860F9C2F990F9C0F78
:10363000890F80937201E62FF0E0E253F44F04917A
:10364000EC2FF0E0EC52F44F149180912101813085
:1036500009F497C240911F018AEA91E060EB71E0A2
:10366000DC012A2F281B2417A0F42D912D130EC046
:103670009D0127503109F90120812C1307C0FB015E
:10368000208131812C3D354008F47BC26E5F7F4F35
:10369000E8CF086010929B0110929A0110928E015F
:1036A00010928F01109290011092910184EF8093FB
:1036B000A0010E943E1A88E088B915B807B914B86D
:1036C0008C2F0E94660C6C01109274011092730191
:1036D0007C018091730190917401843F914080F549
:1036E00015B914B90E941A0C14B815B80E94200C10
:1036F000A8958C2F0E94660CC816D90620F47C0170
:10370000EC18FD0802C0E12CF12C8091730190911E
:1037100074018E37910528F02BE4E216F10408F4C9
:103720002BC25DE2E51651E0F50680F4809173014D
:103730009091740101969093740180937301C9CFA5
:10374000FDE2EF16F1E0FF0608F416C28091730166
:1037500090917401892B21F0C70100E010E006C0B0
:1037600025E1E21625E0F206B8F380C0209173014E
:10377000309174012017310748F00E941B0C8C2FE8
:103780000E94660CA8950F5F1F4FF0CFC816D90690
:1037900030F48C199D098E159F05C8F402C080E095
:1037A00090E08701081B190BA1F0093C110508F0F6
:1037B000E3C19801A8EEB3E00E94C1344701A12CF7
:1037C000B12CA50194010E941A35690104C000E0E2
:1037D00010E0C12CD12CA0907301B09074015FEF68
:1037E000A51AB50AC501A0E0B0E0809396019093B8
:1037F0009701A0939801B0939901C8018E0D9F1D68
:103800000E940E1E9C01D5010E94C1346093960156
:1038100070939701809398019093990160938E0122
:1038200070938F01809390019093910187EF809323
:10383000A0010E94CB1A20918E0130918F014091FE
:10384000900150919101A8EEB3E00E94D73424E694
:1038500030E040E050E00E941A3520938E01309312
:103860008F01409390015093910144C10E943E1AF0
:1038700015B88FE087B988E088B9F12EFF0CF4B84D
:1038800080E480937B0084E580BF8C2F80648093EC
:103890007C0086E180937A000E94230C10927401D0
:1038A0001092730110928000109285001092840093
:1038B00087E286BB81E280936F0081E080938B0179
:1038C000F5B89091210180938100943059F481E002
:1038D00090E00C2E01C0880F0A94EAF780958F7053
:1038E00087B901C007B9F89483B7817F83BF8091FE
:1038F0008B01882389F083B7816083BF7894889592
:1039000083B78E7F83BFF894A895809173019091BF
:1039100074018034964059F7789410928100E090B9
:103920008600F090870010926F0086E980937A00FD
:1039300014B815B88C2F0E94660C2091500130915C
:103940005101821B930B0C969093A3018093A201CB
:1039500080917301909174018032934008F00CC102
:1039600080917301909174019093990180939801D3
:10397000F0929701E092960184EF8093A0018091EC
:1039800073019091740182349105C8F060919601A1
:1039900070919701809198019091990124E630E00F
:1039A00040E050E00E941A35209396013093970131
:1039B000409398015093990186EF8093A001A091C4
:1039C0008C01B0918D012091960130919701409129
:1039D0009801509199010E94D73420E233E040E0F1
:1039E00050E00E941A35209396013093970140933E
:1039F00098015093990120938E0130938F01409349
:103A00009001509391010E94CB1A8091A001843FB4
:103A100009F060C0C0908E01D0908F01E0909001BD
:103A2000F090910120EAC2162FE0D206E104F104E1
:103A3000C0F4A70196012C543F4F4F4F5F4F60EAEF
:103A40007FE080E090E00E941A352C0D3D1D4E1D58
:103A50005F1D20938E0130938F014093900150930E
:103A600091018091720190E08B5F9F4F0E945436CC
:103A7000C0908E01D0908F01E0909001F090910164
:103A8000482F50E060E070E04C155D056E057F0545
:103A900068F4C41AD50AE60AF70AC0928E01D092D9
:103AA0008F01E0929001F092910114C084E1C80E60
:103AB000D11CE11CF11CC416D506E606F70610F46D
:103AC0000E945D1210928E0110928F01109290014F
:103AD0001092910114B980918E0190918F01A09163
:103AE0009001B09191014997A105B10508F444C036
:103AF000C12CD12C80911F01882321F080912101BC
:103B00008430D1F587E0809321012091A00180913C
:103B1000A1018217BCF028132FC040918E01509153
:103B20008F0160919001709191018091920190912B
:103B30009301A0919401B091950184179507A60770
:103B4000B707D0F480918E0190918F01A0919001E0
:103B5000B09191018093920190939301A09394016D
:103B6000B09395012093A101D0929D01C0929C0138
:103B7000D0939E01C0939F0188E087B988B914B89B
:103B800015B8CDB7DEB7ECE00C94DC351F920F9280
:103B90000FB60F9211248F939F93B59904C0809113
:103BA0008B01811109C0B59B10C080918600909156
:103BB00087008A3F910548F48091730190917401C8
:103BC000019690937401809373019F918F910F9050
:103BD0000FBE0F901F9018951F920F920FB60F9265
:103BE00011248F939F9310928B01B09B10C08091F2
:103BF0008600909187008A3F910548F48091730177
:103C000090917401019690937401809373019F9138
:103C10008F910F900FBE0F901F9018950F9221E07B
:103C20008C32920710F48CE291E08C52914069E161
:103C300070E00E94F23499E16B3210F0982F6BE241
:103C4000981BEBE8FFE0E60FF11DE60FF11D459133
:103C5000559125913591692F421B530B649FC001EB
:103C6000659F900D11240C9669E170E00E94F2347A
:103C7000620F731FCB010F900895A0E0B0E0E3E462
:103C8000FEE10C94C03588E893E190934D01809358
:103C90004C018EEB80934801C8E0C8B988E187B930
:103CA0000E94280CC7B984E00E94620CAC018B5CB6
:103CB0009840833F9140A0F481E08093600120917F
:103CC0004C0130914D01AFEBB9E00E94C1349A0133
:103CD00040E050E00E941A3530934D0120934C0192
:103CE0008EE00E94660C8EE00E94620C909351015F
:103CF000809350010E94880DD9E0D7B9C1E0C5B9C1
:103D0000C4B980E00E94620C7C010AE007B914E0AB
:103D100015B914B981E00E94620CE80EF91E8CE01E
:103D2000882E87B890E1992E95B894B882E00E94C9
:103D3000620CE80EF91E15B8D8B9D7B9C4B9C0914C
:103D40004C01D0914D0180E00E94620C5C0108B9E9
:103D500007B914B900914C0110914D0181E00E9406
:103D6000620C6C0188B887B894B880904C01909030
:103D70004D0182E00E94620CC00FD11FC80DD91DF9
:103D8000CA19DB09CC19DD09C81BD90B80914C017C
:103D900090914D014C01880C991C880E991E8E182B
:103DA0009F088C1A9D0AA12CB12C9701A0E9BAE1B9
:103DB0000E94C134A50194010E941A3569017A015B
:103DC00030935F0120935E019E01A0E9BAE10E9459
:103DD000C134A50194010E941A3530934F012093FC
:103DE0004E012057354E309323012093220180E766
:103DF000C81A85EED80AD0921C01C0921B0189E135
:103E000080934801CDB7DEB7ECE00C94DC35A0E13F
:103E1000B0E0EDE0FFE10C94BA3510920001809122
:103E20002101813009F029C280918901813009F096
:103E300024C28091300190913101A0913201B09162
:103E4000330189309245A105B10508F016C2312C25
:103E500080913401A090350141E0431510F0B82E57
:103E600002C0BA2CA82EEA2DF0E0E253F44F749071
:103E70008B2D90E0FC01EC52F44FE49115B858E022
:103E800058B94091300150913101609132017091E7
:103E90003301272D2860403F510561057105A0F4CD
:103EA00030FC12C000911B0110911C0100591A41F5
:103EB00041E050E00B2C02C0440F551F0A94E2F77A
:103EC000CA01822B87B906C0E4B927B900911B014A
:103ED00010911C0144E1642E8B2D0E945E0C4C015C
:103EE0008A2D0E94660C52E08516910410F4029708
:103EF00010F06A9489F760E460937B0084E580BFEA
:103F00008B2D806480937C0086E180937A00E12C85
:103F1000F12C10928000109285001092840087E2AC
:103F200086BB0E94230C932D9170292E30FC05C076
:103F300081E88093810078B808C078B80E942C0C82
:103F400080E286BB81E88093810046B345FF11C0C3
:103F50001092810080E286BB80918600909187005C
:103F60006C0120918400309185008217930768F0DE
:103F700013C040FFEACF21E026BBA895C7010196F8
:103F80007C018035910509F7E3CF40FF05C041E092
:103F900046BB5FEFE51AF50A68E068B986E98093E9
:103FA0007A0034E1732E8B2D0E945E0C4C018A2D19
:103FB0000E94660C22E08216910410F4029710F021
:103FC0007A9489F7809030019090310180915E0160
:103FD00090915F01880E991E800E911E20911D0107
:103FE00030911E0100394AE11407B0F451EEC516B4
:103FF000D104E104F10438F4C60165E070E00E94E8
:10400000F234645101C069E128523109261B31099B
:1040100067FD339586E009C0C40160EB76E30E943A
:10402000F23487E0860F285D3F4F90E0A0E0B0E0DB
:104030008C159D05AE05BF0528F4C81AD90AEA0AF1
:10404000FB0A03C0C12CD12C7601222029F062E2A8
:10405000C60ED11CE11CF11C80E5E816F10418F035
:10406000C12CD12C76019BE0C916D104E104F104E6
:1040700028F041E0C41AD108E108F10840914C0150
:1040800050914D01A12CB12CA8EEB3E00E94C13497
:104090002B013C019801DA010E94C134A501940171
:1040A0000E941A3544275527C301B2010E941A35D0
:1040B000C9010E94E00DFC01A5019401C701B601F0
:1040C0000E94E2344B015C01BF0180E090E023E0FC
:1040D000660F771F881F991F2A95D1F76B5F7F4F57
:1040E0008F4F9F4F2AE030E040E050E00E941A35A9
:1040F000C501B4010E941A35832D90E0E1E0F0E0A3
:10410000EC0FFD1F64E0369EE00DF11D11242083AD
:10411000318342835383211017C06CE0C616D1044B
:10412000E104F10488F0FC013196EE0FFF1FEE0F61
:10413000FF1F81E090E08C0F9D1FE80FF91F208387
:104140003183428353833394A895339493E093153A
:1041500008F07ECE88E088B984E00E94300C21E02F
:104160004D815E816F81788589819A81AB81BC8127
:1041700084179507A607B70708F020E04D855E85F0
:104180006F85788989859A85AB85BC858417950765
:10419000A607B70710F032E001C033E0E22FF0E0ED
:1041A000EE0FFF1FEE0FFF1F41E050E04C0F5D1FB1
:1041B000E40FF51FDA0154E0359FA00DB11D112465
:1041C0004D915D916D917C9180819181A281B381AE
:1041D000481759076A077B0708F0322FE1E0F0E043
:1041E000EC0FFD1F64E0369FE00DF11D112480816E
:1041F0009181A281B3818093080190930901A093DA
:104200000A01B0930B012BEF2093000130FD0DC08C
:104210004091300150913101609132017091330130
:10422000403F510561057105B8F02CEF2093000166
:10423000BC01CD016B5F7F4F8F4F9F4F2AE030E075
:1042400040E050E00E941A352093080130930901A4
:1042500040930A0150930B0180910801909109014C
:10426000A0910A01B0910B01892B8A2B8B2B11F4A1
:104270001092000188E087B914B86096E2E10C94CE
:10428000D6352F923F924F925F926F927F928F928C
:104290009F92AF92BF92CF92DF92EF92FF920F93D5
:1042A0001F93DF93CF93CDB7DEB76E970FB6F89419
:1042B000DEBF0FBECDBF662EB82E860F898320913C
:1042C0002101273041F520919201309193014091D5
:1042D0009401509195011091A10109C0CA01B90141
:1042E0002AE0312D412D512D0E941A351F5F173FB5
:1042F000ACF32A3560E036074105510518F48FEF1D
:104300009FEF82C1173F39F480E028178DE7380707
:104310004105410510F020E03DE72C8B3D8B26ED5B
:10432000A22E02C094EDA92EEEECFBE0E60DF11DED
:10433000859188608E87EEECFBE0EB0DF11D859199
:1043400088608F87E4EDFBE0E60DF11D7590E4EDEC
:10435000FBE0EB0DF11DC59090EC692AB92A81E0D4
:10436000E82EF12C012D112D8E831F8218861986BF
:104370001A861B861C861D86188E198E1B8E1A8E19
:104380000E943E1A88E088B960927C000E94240C4A
:104390003F8537B975B874B80E942B0C14B815B89E
:1043A000DD24B4ED9B2EA6ED8A2E3E8537B975B877
:1043B00074B860927C00A895A0927A0080917A00EF
:1043C00086FDFCCFA0927A0080917A0086FDFCCF1A
:1043D0002090780030907900B0927C00A0927A0012
:1043E00080917A0086FDFCCF80927A000E94290C91
:1043F0000E942B0CC5B8C4B80E942A0C0E942C0C39
:10440000A895A895A895A89514B815B880917A0094
:1044100086FDFCCF2091780030917900288B398B74
:104420003F8537B9C5B8C4B8A895B0927C00A092B2
:104430007A0080917A0086FDFCCFA0927A0080916C
:104440007A0086FDFCCF60917800709179006092CF
:104450007C00A0927A0080917A0086FDFCCF809249
:104460007A000E94290C0E942B0C75B874B80E9427
:104470002A0C0E942C0CA895A895A895A89514B86C
:1044800015B880917A0086FDFCCF4091780050915C
:10449000790014B8CB01820D931DE80EF91E011DA1
:1044A000111DEA82FB820C831D8388899989840F00
:1044B000951F2E813F8168857985280F391F611DE1
:1044C000711D2E833F836887798722E324171506A1
:1044D00050F075B874B80E942E0C14B815B8888DB9
:1044E0008395888F07C0483E73E0570718F08A8D80
:1044F00083958A8F888999892817190660F03E85E7
:1045000037B9C5B8C4B80E942E0C14B815B8898D37
:104510008395898F07C0883E73E0970718F08B8DCD
:1045200083958B8FD3945D2D5F3F09F03ECF4090F4
:104530005E0150905F01440C551C9201E4E0240D93
:10454000351DEA95E1F72901570168016E807F80EA
:1045500088849984209121012730C1F46C897D8958
:10456000812D912D6C537040804090409B01AC0197
:104570000E94E2349B01AC016FEF71EC8EE390E09E
:104580000E941A35621A730A840A950AA614B7049F
:10459000C804D90428F46A187B088C089D0803C055
:1045A000662477244301B20180E090E09301A401E6
:1045B0000E94E2349501A6010E941A3581E090E044
:1045C0007981870F911D0E94543690E0682EC901B1
:1045D00060E170E00E94F234260F371FC9016816AF
:1045E000190618F4861991090FC08C5E9F4F861525
:1045F000910540F48C899D89843981E1980710F0F8
:104600000E945D12812D912D6E960FB6F894DEBF3B
:104610000FBECDBFCF91DF911F910F91FF90EF9013
:10462000DF90CF90BF90AF909F908F907F906F90D2
:104630005F904F903F902F900895A0E0B0E0E3E2AC
:10464000F3E20C94C03580919C0190919D01892BDF
:1046500009F09DC0E0919E01F0E0E253F44FC49157
:10466000C860E0919F01F0E0EC52F44F14910E9479
:104670003E1A88E088B915B8C7B914B980919F016E
:104680000E94660CEC010091A101083F0CF07FC074
:10469000045FC0909201D0909301E0909401F0905B
:1046A00095018AE0882E912CA12CB12C043070F455
:1046B000C701B6016B5F7F4F8F4F9F4FA5019401DC
:1046C0000E941A350F5F69017A01F0CFD701C60148
:1046D0000197A109B10988389341A105B10508F0F6
:1046E00056C015B914B9A12CB12CAC14BD0430F4CA
:1046F0000E942A0C82E0A80EB11CF7CF14B815B89E
:10470000A89585E08093480180919F010E94660CE6
:10471000C817D90720F45C01AC1ABD0A02C0A12C4D
:10472000B12C812C912C8C149D0430F40E942A0C05
:104730002FEF821A920AF7CF80919F010E94660C98
:1047400029E120934801A895C817D90718F48C1BB4
:104750009D0B02C080E090E08A159B0588F49501CE
:10476000281B390B69F0A4EFB1E00E94C134950118
:1047700040E050E00E941A3530939D0120939C0147
:104780000E943E1A88E087B988B914B815B8CDB729
:10479000DEB7ECE00C94DC35A5E0B0E0E2EDF3E24E
:1047A0000C94BA3580E79EE00E94442A20EF2A83C9
:1047B00054980E941F0C14BC16BC10920E0110924B
:1047C0000F01109210011092110131E035BB3093AE
:1047D0006E001092800083E19AE7909389008093A5
:1047E0008800E1E0F0E0F0938B00E0938A00109203
:1047F00085001092840083B5816083BDF6E0F6BB2E
:10480000F0936F00789424E02093810012E31982E2
:104810000E94190CA8954F9902C031E0398385B5E3
:10482000811131C015BC86B580930E010E943F08EE
:104830000E9455090E9445080E9455090E944B0894
:104840000E9455090E943F0886E60E94E2088DE317
:104850000E94E20860910E0170910F018091100199
:104860009091110107E028E440E00E94B90A8AE72C
:104870000E94E208549880918100882339F08FE3E8
:104880000E94E20803C0115019F6CCCF10928100AB
:1048900010926F0020910E0130910F014091100194
:1048A00050911101DA01C9010197A109B109893DAE
:1048B0009146A105B10508F02BC1AAE0B0E00E9425
:1048C000D734685F7F4F8F4F9F4F23E09695879532
:1048D000779567952A95D1F7660F771F70938401B6
:1048E0006093830154980E941F0C16BC10920E0115
:1048F00010920F01109210011092110181E085BBFE
:1049000080936E00109286011092850194E09BBB0B
:1049100080916800846080936800789480916D0035
:10492000806180936D001D820E94190CA8954F999B
:1049300002C0E1E0E98380916D0084FF05C0FD8144
:10494000FF5FFD83FA3F81F715BC80916D008F7E7C
:1049500080936D00809168008B7F8093680086B59E
:1049600080930E010E94450884E50E94E2088DE3D1
:104970000E94E20880910E0190910F01A091100118
:10498000B091110120918301309184013C832B83EC
:104990001C012D019C01A20160E070E080E090E02C
:1049A00003E00E94F73551016201E12CF12C00E097
:1049B00010E00E94103659016A017B01E82F192F7F
:1049C00003E00E94F7350E2F0E94103603E00E948C
:1049D000F73551016201E12CF12C00E010E00E945A
:1049E000103602E00E94F73500E00E94103601E028
:1049F0000E94F73500E00E94103603E00E94F73570
:104A0000EB81FC815F01C12CD12C00E00E94553567
:104A100039014A011B012C012B813C8120383105D1
:104A200030F007E023E745EFB301C40116C084E688
:104A3000A82EB12CC12CD12CE12CF12C00E010E0DF
:104A40009301C2010E945535E22FF42F07E023E7BE
:104A500047EF6E2F732F8F2F952F0E94B90A3D813C
:104A60003A3F21F48FE30E94E20852C09301A4016F
:104A7000B101C2012C393E4C43405105610571051D
:104A80008105910509F008F443C00E944B0886E6B1
:104A90000E94E2088DE30E94E2089301A401B101A3
:104AA000C201530164017101820121153A4C4A4946
:104AB0005B43610571058105910589F080F020E077
:104AC00030E04AE85DE568E775E483E691E00E943E
:104AD0005535E22FF42F07E028E44AEF0FC020E01D
:104AE00030E846EC54EA6EE77DE883E090E00E940F
:104AF0005535E22FF42F07E028E44CEF6E2F732F8B
:104B00008F2F952F0E94B90A8AE70E94E2085498D5
:104B100010926E0080ED97E00E940C0D2981820FAB
:104B200049F480911A01833028F43A8131503A8354
:104B300031113ECE2596E2E10C94D6351F920F92AC
:104B40000FB60F9211248F939F93AF93BF937894D6
:104B500080910E0190910F01A0911001B09111016F
:104B60009F5FAF4FBF4F80930E0190930F01A093B3
:104B70001001B0931101BF91AF919F918F910F9050
:104B80000FBE0F901F9018951F920F920FB60F92A5
:104B900011248F9386E085BD8F910F900FBE0F90EB
:104BA0001F9018951F920F920FB60F921124A8957F
:104BB0001092810015BC0F900FBE0F901F9018959A
:104BC0001F920F920FB60F9211242F933F938F9342
:104BD0009F938091850190918601892B11F481E04A
:104BE00085BD20918501309186018091830190914E
:104BF00084012817390730F015BC80916D008F7E35
:104C000080936D008091850190918601019690932B
:104C10008601809385019F918F913F912F910F90F5
:104C20000FBE0F901F9018958A3008F08A5081119E
:104C300003C08AE79EE02CC0813019F480E79EE033
:104C400027C0823019F487E49EE022C0833019F433
:104C50008CE39EE01DC0843019F487E09CE018C00E
:104C6000853019F48DE29EE013C0863019F48EE190
:104C70009EE00EC0873019F487E09EE009C08830BE
:104C800019F48EE59EE004C0893021F483E59EE0AE
:104C90000E94690908950F93CF9387E09CE00E94DA
:104CA000442ACAEF1092210160E082E00E94602A4B
:104CB00080912101873009F042C00E943A080E9489
:104CC00055090E943A0883E40E94E2088DE30E949D
:104CD000E20860919201709193018091940190910A
:104CE000950103E026E44091A1010E94B90A609178
:104CF0009E0180919F010E94412190939B0180938E
:104D00009A010E943F080E9455090E943F0888EBC3
:104D10009DE00E94690960919A0170919B016A3F30
:104D20008FEF780740F480E090E002E024E04EEF5F
:104D30000E94B90A0AC08FE30E94E20806C00E94DE
:104D4000750887E09CE00E94690988EE93E00E9464
:104D50000C0D811107C080911A01843018F4C150E4
:104D600009F0A0CFCF910F91089508950F9384314A
:104D700008F08451833189F489E08093810081E0D7
:104D800090E0909389008093880007E028E44DEF3D
:104D900060E074E985E397E748C1823189F489E0EE
:104DA0008093810083E090E0909389008093880055
:104DB00007E028E44DEF60E07AEC8AE99BE335C137
:104DC000813169F489E08093810087E090E09093DD
:104DD00089008093880007E028E44DEF6CC08031A3
:104DE00069F489E0809381008FE090E090938900DE
:104DF0008093880007E028E44DEF6FC08F3089F47E
:104E000089E08093810089E190E09093890080930C
:104E1000880007E028E44DEF6AE871E88BE299E04A
:104E200004C18E3069F489E08093810087E290E0CC
:104E3000909389008093880007E028E44DEF60C0DC
:104E40008D3069F489E0809381008FE490E0909345
:104E500089008093880007E028E44CEF2CC08C3058
:104E600069F489E0809381008FE990E09093890054
:104E70008093880007E028E44CEF2FC08B3069F462
:104E800089E0809381008FE891E09093890080937E
:104E9000880007E028E44CEF33C08A3089F489E0C9
:104EA000809381008FE193E0909389008093880044
:104EB00007E028E44BEF60E075E68DEC9DE1B5C0BE
:104EC000893081F4809381008FE396E0909389008C
:104ED0008093880007E028E44BEF60E872EB86EEF1
:104EE0009EE0A3C0883089F489E0809381008FE937
:104EF0009FE0909389008093880007E028E44BEFBF
:104F000060E071EE85EF95E090C0873089F489E02C
:104F10008093810084E493E29093890080938800D9
:104F200007E028E44BEF6FE77DEF83EA92E07DC076
:104F3000863089F489E08093810089E593E290933B
:104F400089008093880007E028E44BEF6FEE7BE652
:104F500082EA92E06AC0853089F489E0809381001A
:104F600082E893E2909389008093880007E028E428
:104F70004BEF68E471E68FE992E057C0843089F422
:104F800089E0809381008FE79EE39093890080936E
:104F9000880007E028E44BEF60E478E78DE791E0D4
:104FA00044C0833069F48BE08093810080E792E015
:104FB000909389008093880007E028E44AEFA0CF0F
:104FC000823071F481EE94E09093890080938800A0
:104FD00007E028E44AEF60E870EF8AEF92E025C02E
:104FE000813089F48BE08093810089E698E1909389
:104FF00089008093880007E028E44AEF60E876E9BA
:1050000088E990E012C0811112C08CE08093810089
:1050100088E09DE3909389008093880007E028E46E
:105020004AEF60E472E48FE090E00E94B90A8AE7F8
:105030000E94E2080F910895A0E0B0E0E2E2F8E2F9
:105040000C94C53587E49EE00E94442A80E1809359
:10505000800010926F0081E090E09093890080932F
:10506000880010928B0010928A0083E086BB109219
:10507000820088E08093810015B891E194B988B9E5
:1050800089E087B9229A8093810000E020E0D12C4A
:1050900012E1CEE1D0E0802F90E00A96BE010E949E
:1050A0000635F62E621791F00E943A080E945509C3
:1050B0000E943A0887E49EE00E946909E12CEF14FF
:1050C00030F48EE20E94E208E394F9CFF22ED1167A
:1050D00041F1143108F014510E943F080E94550913
:1050E0000E943F080E94510983E1810F0E94B62669
:1050F0000E944B080E9455090E944B080E945109CA
:1051000081E0810F0E94B6260E9445080E94550941
:105110000E9445088EE30E94E208812F0E94B62675
:10512000D12E88EE93E00E940C0D90911A0181110E
:1051300002C0992319F000E09B3078F49091190196
:1051400097FD9C5E190F853118F01F5F803528F49C
:105150000F5F003F10F42F2D9ECF10928100109210
:10516000800088E087B914B82298CDB7DEB7E7E0B1
:105170000C94E135A4E0B0E0E0ECF8E20C94BE352C
:105180008CE39EE00E94442A83E280938000109288
:105190006F0081E090E090938900809388008FEF0A
:1051A00090E090938B0080938A0083E086BB1092FE
:1051B000820015B881E184B988E088B989E087B9AF
:1051C000229A8093810010E000E08AE0782E612C22
:1051D00094E6C92ED12CE12CF12C88248A9423E06A
:1051E000922EA12CB12C701609F43FC083E68715CE
:1051F00010F4ECE97E0E272D30E0AFEFB3E00E9413
:10520000C1346E5C7F4F8F4F9F4FA70196010E9464
:105210001A3530938B0020938A0029833A834B837D
:105220005C830E943F080E9455090E943F08A8EE37
:10523000B3E029813A814B815C810E94D73461506F
:105240007E4F8F4F9F4FA50194010E941A35CA01CE
:10525000B90105E025E24FEF0E94B90AF8E2F61520
:1052600018F48CE30E94300C072D80E496E00E9435
:105270000C0D682E82E88615B8F090911A019B30CB
:1052800098F48091190187FD8C59780EE2E3E615B8
:1052900018F4FAE07F0E03C0662091F0739410E0DA
:1052A0001F5F103F08F49FCF88E087B910928100FC
:1052B0001092800014B822982496EEE00C94DA350F
:1052C0009111EDCFEDCF0F93CF93DF9387E09EE069
:1052D0000E94442A80E090E00E945436C82FD0E01B
:1052E00081E80E9461088C2F0E9461080E943F089B
:1052F0000E9455090E943F088C2F90E0A0E0B0E08A
:1053000004E020E240E0BC01CD010E94B90A80E443
:1053100096E00E940C0D811105C090911A01911127
:1053200003C003C08238B0F4D0E090911A019B30E2
:1053300088F49091190197FD90589C0F882329F0CB
:10534000893210F09F5F01C09158C92FCF77DF5F7E
:10535000D03F30F26C2F80E090E00E946236DF9107
:10536000CF910F910895CF93DF93D0E0C0E085E80F
:105370009EE00E94442A0E943F080E9455090E9414
:105380003F080E94510989E08C0F0E9414260E9458
:1053900045080E9455090E9445088EE30E94E208D4
:1053A0008C2F0E9414260E944B080E9455090E94CF
:1053B0004B080E94510981E08C0F0E94142688E856
:1053C00093E10E940C0D882319F0D0E0823330F471
:1053D00090918A019923D9F18823C9F1CC2309F44A
:1053E00050C0C13021F480E00E94CC232BC0C230D9
:1053F00019F40E941C2826C0C33019F40E94BA2850
:1054000021C0C43019F40E944B261CC0C53019F4C9
:105410000E948A2B17C0C63021F481E10E94500EF1
:1054200011C0C73019F40E9463290CC0C83019F4A8
:105430000E94E22C07C0C93029F45E9880E090E019
:105440000E940C0D10921A011092190180E09091A7
:105450001A019A30B0F490911901992319F097FD2F
:1054600003C0D0E0C90F03C0965FC90FD0E081111F
:10547000CF5FDF5FD43628F4CA3008F478CFCA5043
:1054800076CFDF91CF910895A2E0B0E0EAE4FAE2AE
:105490000C94C93589839A830E94750889819A8101
:1054A0000E94690914E682E00E94300C4F9902C004
:1054B0001150C9F70E943F082296E3E00C94E535AD
:1054C000A0E0B0E0E6E6FAE20C94C135C82FD62F92
:1054D0008FEF860F9C2F990F9C0F890F809372017D
:1054E000E62FF0E0E253F44F14911860EC2FF0E057
:1054F000EC52F44FB49010929B0110929A011092CA
:105500008E0110928F01109290011092910187EFFD
:105510008093A0010E943E1A88E088B915B817B997
:1055200014B88C2F0E94660C8C011092740110929A
:1055300073019C019CE2E92EFF24F3944AE0A42E1F
:1055400054E6952E8091730190917401843D9043AF
:1055500008F06FC0B5B88091730190917401892BE8
:1055600089F06701C21AD30A6091730170917401C6
:10557000A29EC001A39E900D11240E94F234C61673
:10558000D70650F4B4B80E94230C14B8809173016C
:1055900090917401019628C08091730190917401DB
:1055A0000B97C8F06091730170917401929EC001D5
:1055B000939E900D11240E94F2346C157D0558F4D1
:1055C000B4B80E94190C14B88091730190917401C1
:1055D0008C599F4F09C0B4B80E941E0C14B880911A
:1055E0007301909174010A969093740180937301F2
:1055F00015B80E94250CA8958C2F0E94660C0817E0
:10560000190720F49C01201B310B02C020E030E080
:1056100080917301909174018B31964020F0253276
:10562000310508F46DC02D3281E0380708F48ACFC7
:1056300005C02D3281E0380708F462C08091730103
:1056400090917401019729F4253145E0340708F061
:1056500057C00091730110917401000F111FA80130
:1056600060E070E040939601509397016093980139
:1056700070939901C9010E940E1E9C01D8010E94DD
:10568000C134609396017093970180939801909331
:10569000990160938E0170938F0180939001909394
:1056A00091010E94CB1A60918E0170918F018091BF
:1056B0009001909191012AE030E040E050E00E949A
:1056C0001A3520938E0130938F01409390015093AF
:1056D000910187E0809321012093920130939301FF
:1056E00040939401509395018091A0018093A10172
:1056F00010929D0110929C01D0939E01C0939F0136
:1057000088E087B988B914B815B8CDB7DEB7EBE033
:105710000C94DD35A8E1B0E0E0E9FBE20C94C03583
:105720008DE29EE00E94442A0E943F0887E29EE0AC
:105730000E946909DE015196CE010996AE014F5FC4
:105740005F4F9E01275E3F4FF42EE52E1D921D9266
:10575000FC0111921192CF01FA0111921192AF0145
:10576000A217B30799F785E185B984B900E010E085
:10577000812C48E0D42E59E0C52E6AE0B62E7CE09C
:10578000A72ED8B8C7B80E942D0C86B181FB9924EA
:1057900090F882FF02C0939493940115110589F04B
:1057A000981469F0EF2DFE2DE90DF11DE90DF11DA5
:1057B00080859185019691878087982C02C034E07E
:1057C000932EB7B80E942D0C96B1892F817092FD4F
:1057D0008E5FF4E09F120BC0EF2DFE2DE80FF11D40
:1057E000E80FF11D808991890196918B808BA7B874
:1057F0000E942D0C96B1892F817091FD8E5F94E0EF
:1058000099120BC0EF2DFE2DE80FF11DE80FF11DD1
:1058100080819181019691838083A8950E941F0CBD
:105820004F9905C015B814B888E087B9C7C0498931
:105830005A894531510508F16B897C8965317105BB
:10584000E0F02D893E8925313105B8F08F89988D9A
:105850008531910590F0260F371F11E02417350789
:1058600008F010E0FF24F3942817390708F0F12C12
:10587000CC24C39422E0E22E4CC049855A854531A0
:10588000510510F16B857C8565317105E8F02D853A
:105890003E8525313105C0F08F8598898531910588
:1058A00098F0260F371F11E02417350708F010E095
:1058B000FF24F3942817390708F0F12CC12C92E04B
:1058C000E92EDD24D39430C049815A8145315105F8
:1058D00010F16B817C8165317105E8F02D813E818D
:1058E00025313105C0F08F8198858531910598F07B
:1058F000260F371F11E02417350708F010E0FF24AA
:10590000F3942817390708F0F12C82E0C82EEE2412
:10591000E394D12C09C00F5F1F4F0931E6EF1E073A
:1059200009F44CC0892C2DCF0E943F080E945509D4
:1059300000E00E943F088D2D0E944D098DE20E94DB
:10594000E20800FD02C08DE201C08FE20E94E20881
:105950008DE20E94E2088C2D0E944D098DE20E948A
:10596000E20801FD02C08DE201C08FE20E94E20860
:105970008DE20E94E2088E2D0E944D090E9451097D
:10598000802F837021F4112361F083E405C08330FC
:1059900041F4FF2031F08FE60E94E20880ED97E0AD
:1059A00004C00E94510980E991E00E940C0D811110
:1059B00039CF0F5F083709F0BCCF34CF6896ECE0E1
:1059C0000C94DC350F930E94750885E79CE00E94DB
:1059D00069090E943F0881E39CE00E94690983E015
:1059E00090E00E945436682F70E080E090E003E081
:1059F00020E24EEF0E94B90A84E090E00E94543603
:105A0000682F70E080E090E020E24EEF0E94B90A3B
:105A100082E090E00E945436682F70E080E090E0D1
:105A200024E04EEF0E94B90A0E9445088AE29CE0F9
:105A30000E94690960914E0170914F0180E090E0F1
:105A400024E04FEF0E94B90A0E944B0883E29CE0D9
:105A50000E94690960915E0170915F0180E090E0B1
:105A600024E04FEF0E94B90A88E99AE30E940C0DE6
:105A700080911A018B3008F086C08091190187FD52
:105A8000A2CF0E9475088FE19CE00E9469098AE01C
:105A900090E00E945436682F70E080E090E003E0D0
:105AA00020E240E00E94B90A8BE090E00E94543668
:105AB000682F70E080E090E020E240E00E94B90AA8
:105AC00087E090E00E945436682F70E080E090E01C
:105AD00026E444EF0E94B90A0E943F080E9451093F
