:100000000C9413090C9425090C9425090C942509CA
:100010000C9425090C9484280C9425090C94A310A5
:100020000C9425090C9425090C9490200C947628A6
:100030000C9468280C946A200C9425090C942509CA
:100040000C9442280C9425090C9425090C9425093C
:100050000C9425090C94A4100C9425090C942509E2
:100060000C9425090C942509FE0A000B050B0E0BB8
:100070000C0B0A0B0A0B000000000000000000003F
:100080000000000000001E2121211200807F0000DE
:10009000007E4A4A4A34000000000000FC40201064
:1000A0000804020100000001010101010101010138
:1000B000010101017F0488D0E0F0F8000000000099
:1000C00000000000000000000000000000FC94940C
:1000D0008400000102FC000000000000000000009D
:1000E00000001E21212112E0C0804020100F0000DE
:1000F00000C020202040000000FC00009E9E040361
:1001000003030302000000202023242525232020B0
:10011000203F00007B7B2142840480C0000000005F
:1001200000000000000000000000FC949484000423
:100130000607070708F000000000000000000000AC
:10014000000000803F2121120C00000000FF000091
:1001500000F0084848C80000FE0000E7818181C126
:10016000E1F1818181010020202021212120202016
:100170003F0000F340404041434740407FC0000003
:10018000000000000000000000000000489494946B
:100190006400000000FF00000000000000000000FC
:1001A0000000000000003F2121120C0000FF0000B1
:1001B00000F0084848D0000000000000FEFE0404E3
:1001C0000404040404070008080809090908087F52
:1001D0003E1C08087F7F20202020202020E00000F7
:1001E0000000000000000000000000000000489433
:1001F0009494640000FF0000000000000000000074
:1002000000FF003C0A090A3C00223129292600008F
:1002100082868E9EBEFEFEBEDEEFF6FAFEFEFAF28D
:10022000E2C28200000008080804027984A4A468DD
:1002300000FF0000000000000000000000000000BF
:10024000000000000000000000FF0000F02824284B
:10025000F0001008FC00000000000000000000009A
:10026000003C0A090A3C00FF0000000000000000FA
:1002700000000000000000000000040C1C3C7CFF9B
:100280007C3C1C0C040000000000009EA1A9A99A5F
:10029000804323130B0703FF03030303030300003F
:1002A000000000000000000000788484844800FF03
:1002B000000000000000000000F00804E21109093D
:1002C000090909090909091121C2040810E00000FF
:1002D0000001020404070000000000804020108894
:1002E0004423100804030000000000000000000088
:1002F00000FE0100FC020100000000000000000000
:100300000000000000000000007949497900000069
:1003100000000000000000000000000000000000DD
:10032000000000000000F0F000F0F89C0E0E00004D
:100330000000000000000000000000000000FFFFBF
:100340000078FDCF870200000000000000000000E0
:10035000000000000000FFFF003C7EE7C3810000BA
:1003600000000000000000000000000000001F1F4F
:10037000001E3F73E1E000000000000000000000EC
:10038000000000000000808080FCFC808080000075
:100390000000000000000000000000000000FFFF5F
:1003A00001010101FFFF000000000000000000004B
:1003B000000000000000FFFF80808080FFFF000041
:1003C000000000000000000000000000000001012B
:1003D000013F3F010101000000000000000000009B
:1003E000000000000000000000C0C000000000008D
:1003F000000000000000000000000000000038388D
:10040000383F3F383838000000000000000000008E
:10041000000000000000070707FFFF0707070000B4
:1004200000000000000000000000000000000000CC
:1004300000030300000000000000000000000000B6
:10044000000000000000000000C0C000000000002C
:10045000000000000000000000000000000030303C
:10046000B0FFFFB0303000000000000000000000CE
:10047000000000000000060707FFFF070706000056
:10048000000000000000000000000000000000006C
:100490000003030000000000000000000000000056
:1004A0000000000000003030B0FFFFB030300080AE
:1004B000808080808080808080808080808086872F
:1004C000C7FFFFC70706000101010101010101018A
:1004D000010101010101616163FFFF6360600000D0
:1004E00000000000000000000000000000000C0EF2
:1004F0000FFFFF0F0E0C00000000000000000000C6
:100500000000000000003070F0FFFFF0703000804D
:1005100080808080808080808080808080808686CF
:10052000C6FFFFC60606000101010101010101012C
:10053000010101010101616163FFFF63606000006F
:1005400000000000000000000000000000000C0E91
:100550000FFFFF0F0E0C0000000000000000000065
:100560000000000000003030B0FFFFB030300080ED
:10057000808080808080808080808080808086876E
:10058000C7FFFFC7070600010101010101010101C9
:1005900001010101010161E1E3FFFFE3E06000000F
:1005A00000000000000000000000000000000C0C33
:1005B0000DFFFF0D0C0C000000000000000000000B
:1005C000000000000000FCFC0C0F0F0CFCFC008085
:1005D00080808080808080808080808080808F8FFD
:1005E000CCFCFCCC0F0F0001010101010101010154
:1005F000010101010101F1F1333F3F33F0F000004F
:1006000000000000000000000000000000003F3F6C
:1006100030F0F0303F3FFC848784FC000000000392
:1006200000000000FFFEFCF870FF2007030100003F
:100630000700FF70F8FCFEFF200700000103070021
:10064000FFFF0000FFFF2007070000070700788476
:1006500002028478000203000003020000F00000A0
:1006600000E0000807040402070004040404040472
:10067000FC01010101010101FC0404040404040162
:100680000101010101012020202020202000000084
:1006900000000000E00000C00000C00001010001F7
:1006A00001000000C00000E0200101000101000085
:1006B000000000000000000000000000000000003A
:1006C000000000000000000000000000000000002A
:1006D000000000000000000000000000000000001A
:1006E000000000000000000000000000000000000A
:1006F00000000000000000FE0101FF0000030101F6
:1007000001010300FF000000FF00000101010103DF
:100710000300FF00FF00FF000001010101030300CF
:1007200000F00808F80000030101010103007088CF
:10073000FC8870000000000300000000F8000000CA
:10074000F8000001010101030300F800F800F800BF
:100750000001010101030300888CFEFE8C8800006B
:10076000000000000000080CFE0C08000000000063
:10077000000000008080FE8080000000000000007B
:100780000000202020A870200000000000000000D1
:100790001038541010100000000000000000F0801D
:1007A000808080800000000000000000103854109D
:1007B0005438100000000000000060787E7860006F
:1007C00000000000000000000E1E3E3E1E0E000055
:1007D0000000000000000000000000000000000019
:1007E0000000000000067F0600000000000300007B
:1007F0000000070F00000F070000000000000000CD
:1008000088FE8888FE88000003000003000018248A
:1008100024FF24C4000101010701000018804020CA
:10082000108C0003000000000100CC3222528C40EA
:1008300000010202010001000008070000000000A2
:1008400000000000000070880402000000000001A9
:100850000200000002048870000000020100000095
:100860000000A870A870A8000000000000000000B0
:100870002020F82020000000000000000000000000
:1008800000000000000004030300000020202020DE
:100890002020000000000000000000000000000018
:1008A0000000000303000000804020100804000046
:1008B000000000000000FE41211109FE00010202BB
:1008C00002020100000402FF000000000202030215
:1008D000020006814121110E000302020202030000
:1008E0000201111111EE0001020202020100704822
:1008F0004442FF4000000000020302009F1111115A
:1009000011E10001020202020100FC22111111E1B9
:1009100000010202020201000701C121110F0000C3
:10092000000300000000C629111129C600010202BF
:10093000020201000E11111111FE0000020202015B
:1009400000000000CCCC000000000000000000000F
:1009500000009898000000000005030000002050EF
:1009600088040200000000000102000050505050B6
:1009700050500000000000000000020488502000D9
:1009800000020100000000000402C222120C00005C
:10099000000600000000FE011129293E00010202AC
:1009A00002020000FC22212122FC000300000000C2
:1009B0000300FF11111111EE0003020202020100F7
:1009C000FC02010101860000010202020100FF0198
:1009D000010102FC0003020202010000FF111111DB
:1009E00039030003020202020300FF111111110377
:1009F0000003000000000000FC02012121E60000CD
:100A0000010202020300FF10101010FF000300009B
:100A1000000003000001FF010000000002030200CB
:100A2000000080000001FF0100010202020100003D
:100A3000FF10102844830003000000000300FF00A3
:100A4000000000800003020202020300FF020C0CFF
:100A500002FF0003000000000300FF04186080FF95
:100A60000003000000010300FC02010102FC000081
:100A7000010202010000FF111111110E000300001C
:100A800000000000FC02018102FC000001020201E2
:100A90000200FF11111131CE00030000000003001D
:100AA00086091121418600010202020201000301B0
:100AB000FF0103000000020302000000FF0000002D
:100AC00000FF00010202020201007F8000807F001F
:100AD0000000010201000000FF00C0C000FF000391
:100AE000010000010300C728101028C70003000000
:100AF000000003000F10E0100F00000002030200CE
:100B00000000C321110905030003020202020300D1
:100B100000FF0101010000000302020200000E10AC
:100B20002040800000000000000003000101FF00E1
:100B3000000000020203000000000C0201020C0091
:100B400000000000000000000000000000000004A1
:100B5000040404040400000003040000000000007A
:100B6000000000008050505050E0000102020202DC
:100B70000300FE12101010E0000302020202010046
:100B8000E010101010200001020202020100E0102B
:100B9000101012FE0001020202020300E050505049
:100BA0005060000102020202010020FC2222220405
:100BB00000020302000000006090909090F000029C
:100BC00004040404030002FE101010E000000300FF
:100BD000000003000008FB08000000000203020000
:100BE00000008008080BF80000010202020100006A
:100BF000FE4040A0100800030000000102000202B5
:100C0000FE000000000202030202000010E010E0FB
:100C100010E00000030001000300F020101010E0BD
:100C20000003000000000300E010101010E00001BD
:100C3000020202020100F020101010E00007010182
:100C400001010000E010101020F00000010101017E
:100C50000700F0201010102000030000000000002A
:100C6000205050509000000102020201000008FED6
:100C7000080000000000010202020100F000000074
:100C800000F00001020202010300F0000000F00089
:100C9000000001020100000010F000E000F0000080
:100CA0000301000103001020C0C020100002010059
:100CB0000001020070808080807000040404020142
:100CC00000003010905030100002030202020300B6
:100CD00020508E0101010000000304040400000004
:100CE00000FF000000000000070000000101018E6D
:100CF0005020000404040300000006010204040361
:100D00000000000000000000E090888890E00000F3
:100D10000000000000005C0D550D4E0D1008407ED7
:100D200001013E01013E01013E01017E40401800EB
:100D30000720080808F80000002060A03FA06020FD
:100D4000020202FF0202021010101F00000005083C
:100D500042818989760508C2A19189860508000427
:100D600002FF0010100508F87838588809100308A9
:100D70001C3E7F0D080710FF818181F1E1C1FF401A
:100D800040404743410D080110FFFF11080310F1D7
:100D9000E1C14743410E0008202121122060E0E01C
:100DA000E0FEFE0402010001037F7F21C2C4C4C033
:100DB0004094840007030102040E080210FEFE7F27
:100DC0007F00000000110005202060E0E0E002014B
:100DD000000103C2C4C4C0400703010204524546D7
:100DE0005F523D005245465F433D00203E3130306A
:100DF0006E4600706E056D006B4D090A0C020820EE
:100E000001041000111111131D101000000E11111A
:100E10000A1B00041F111111111F04001E020302FE
:100E20001E0000000F0818080F00001113171F17ED
:100E300013110011191D1F1D1911001B1B1B1B1B5A
:100E40001B1B00432B455352405450313A3300662C
:100E50004054503200203530487A00433020005250
:100E6000695F4C6F3D0052695F48693D0052303DFB
:100E70000052482F524C002B52482D203132203145
:100E800033203233002B524C2D203132203133208D
:100E900032330052482B0052482D005248663D0024
:100EA0005265663D00494345733D00494345303D29
:100EB0000056657273696F6E20312E31326B0008F7
:100EC000090A080008070608002A01202000080275
:100ED0000800080108004E6F742063616C6962723B
:100EE000617465642120466F72FF63616C69627290
:100EF0006174696F6E20636C616D70207468652029
:100F000033FF70696E7320746F6765746865722053
:100F1000616E6420737461727420776974682074E0
:100F20006865FF6B65792E2041636B6E6F776C652A
:100F3000646765207468652073656C662D746573DD
:100F400074207769746820746865206B65792077F0
:100F5000697468696EFF32732E20446973636F6E23
:100F60006E6563742070696E7320616674657220AB
:100F7000746865FF6D657373616765202269736FBF
:100F80006C617465FF50726F626521222069732065
:100F900073686F776E2E20536F6674776172652069
:100FA000616E6420646F63756D656E746174696FE2
:100FB0006E2069732061742073766E3A2F2F206D36
:100FC000696B726F636F6E74726F6C6C65722E20DA
:100FD0006E65742F7472616E736973746F722074AE
:100FE00065737465722000202049723D004C3D00FD
:100FF00020566C6F73733D00204553523D0056439D
:10100000433D0043656C6C210008030800405667AF
:101010003D002056743D0055663D00203132333D81
:1010200000504E50004E504E00423D00433D002DBA
:1010300049474254004A464554002D4D4F53004FF6
:101040004B004261742E2000436F6E7472617374A2
:101050000073686F72742050726F62657321005361
:10106000656C6674657374007475726E2100726FBE
:101070007461727920656E636F6465720031302D22
:101080006269742050574D00662D47656E65726128
:10109000746F7200537769746368206F66660053DB
:1010A000686F77206461746100566F6C7461676566
:1010B000004672657175656E6379005472616E7376
:1010C0006973746F720053656C656374696F6E3A0F
:1010D000005465737420456E640069736F6C6174AD
:1010E000652050726F626573210053656C6674658C
:1010F0007374206D6F64652E2E0054696D656F7575
:101100007421006F722064616D6167656420004E18
:101110006F2C20756E6B6E6F776E2C206F720020B7
:10112000756E6B6E6F776E00546879726973742E8A
:1011300000547269616300706172740064616D6172
:101140006765642000656D70747921007765616B57
:101150000054657374696E672E2E2E00BA038703E0
:1011600058032E030703E402C302A402880200000E
:10117000140029003E005300690080009700AE0073
:10118000C600DF00F80012012D014901650182014E
:10119000A001BE01DE01FF012102440268028E02AD
:1011A000B502DE020903350364039403C803FE039A
:1011B00037047304B404F90443059305EA054906AA
:1011C000B3062907AE074808FF08DE09AF57B95034
:1011D000C24A97451141133D87395A367E33E8306C
:1011E0008E2E692C712AA128F5266925F923A222C1
:1011F000622137201E1F161E1E1D341C571B851A08
:10120000BF1903195018A61704176A16D6154915E1
:10121000C2144114C5134E13DC126E1205129F1135
:101220003D11DF10841011241FBECFEFD8E0DEBFC8
:10123000CDBF11E0A0E0B1E001C01D92AE3BB1070F
:10124000E1F70E94E1300C943C390C94000080FDE1
:10125000599A80FF5998519A539A5A9867FD5B9A08
:1012600067FF5B985A9A5A9866FD5B9A66FF5B988F
:101270005A9A5A9865FD5B9A65FF5B985A9A5A98F4
:1012800064FD5B9A64FF5B985A9A5A9863FD5B9A77
:1012900063FF5B985A9A5A9862FD5B9A62FF5B986B
:1012A0005A9A5A9861FD5B9A61FF5B985A9A5A98CC
:1012B00060FD5B9A60FF5B985A9A08951092020154
:1012C00010920D01089582E08093020110920D01A9
:1012D000089584E08093020110920D01089586E044
:1012E0008093020110920D0108958093020187E01E
:1012F000689F602D112460930D0108958DE00E9478
:101300009C0E8AE00E949C0E0895CF93C82F682FF0
:1013100080E00E942709CF7BC03811F40E947E092B
:10132000CF9108958EEA0E94850985EA0E94850979
:101330000895CF93DF93C0E080E10E94850980E0AB
:101340000E9485098C2F806B0E948509D4E860E09B
:1013500081E00E942709D150D1F7CF5FC83061F7F3
:101360000E947E090E945E09DF91CF9108955898EE
:101370005A9859985B98509A529A519A539A84E184
:101380000E94D40E589A86E00E94D40E8EEA0E94E3
:10139000850982EE0E94850982EA0E94850980EA19
:1013A0000E94850980EC0E9485098FE20E948509D0
:1013B00084E20E94850981E80E94850980E090E02E
:1013C0000E94FB388F730E94850980E40E94850982
:1013D00084EA0E94850986EA0E9485090E9499098B
:1013E0008FEA0E9485091092020110920D01089562
:1013F0000895582F28E030E090E841E080E0642F25
:10140000652309F0892B440F969521503109211548
:101410003105A9F70895A0E0B0E0E1E1FAE00C940D
:101420006238EC0167FD71C0403408F06EC0342EA4
:10143000369436943694F12CE40EF11C81E0E81ACF
:10144000F10843E0F594E7944A95E1F7122F127002
:1014500021FF0BC0C701992783199109089FA0019B
:10146000099F500D1124C40FD51F97E09E1510F44D
:1014700037E0E32E80E8801B861BF82EF2949FE075
:10148000F9229F2D9061F92E8F70582E2170422ED7
:10149000A02EB12C450181E0881A9108E31478F15F
:1014A000832D806B0E9485098F2D0E948509852DD3
:1014B0000E948509C12CD12C3E01680C791CC016F4
:1014C000A8F4411004C0F301EC19FD0903C0FE01AA
:1014D000EC0DFD1D849111110E94F909682F81E026
:1014E0000E9427099FEFC91AD90AE9CF112319F0E1
:1014F000CA19DB0902C0CA0DDB1D3394CFCF80911E
:1015000002018F70806B0E948509CDB7DEB7E1E1E3
:101510000C947E38EF920F93E82FEF7090E6E99FDE
:10152000F0011124EA58FF4F82958F70982F937025
:1015300080FD02C088E401C088E080930E019230F3
:1015400018F01092000108C080E2809300018091A1
:101550000E01805F80930E0150E2E52E08E120E04D
:101560004091000160910E01CF010E940B0A0F9182
:10157000EF900895EF920F93262FFC01649131961E
:101580004491FC0132960491FC013396E490509111
:101590000001450F50910E01650F04960E940B0A41
:1015A0000F91EF90089560E00E94BA0A0895EF92BB
:1015B0000F93CF93C82F40910201440F440F440F63
:1015C0002EE0829FC001112460E1E62E07E020E0BA
:1015D00060910D018A5E994F0E940B0A80910D0166
:1015E000895F80930D014C2F50E0FA013197E7306D
:1015F000F105E0F4EC5CFF4F0C9498388EE306C0E4
:101600008CE70E949C0E8CE312C08CE70E949C0E1B
:101610008CE70DC082E50BC085E709C08FE40E940E
:101620009C0E88E60E949C0E8DE601C08C2F0E94C5
:101630009C0ECF910F91EF9008958F5C0E94D70A76
:10164000089580E20E94D70A0895CF93C4E10E94D2
:10165000210BC150E1F7CF910895CF93DF93EC01B7
:101660008991882319F00E94D70AFACFDF91CF9190
:101670000895CF93DF93EC01FE018491982F9F771B
:1016800021F00E94D70A2196F7CFDF91CF910895DC
:10169000EF920F93FC013196E490FC0104910296C5
:1016A0000E940B0A0F91EF90089597FF09C08F9346
:1016B0009F938DE27CDF9F918F91909581959F4FB5
:1016C00068E271E04AE050E00E94E538C6DF089524
:1016D000EF92FF920F931F93182F062FF42E8BE19A
:1016E00090E1C7DFEE24E0916301F091640184850D
:1016F000E81611F4812F09C08285E81611F4802FB5
:1017000004C08385E81611F48F2D51DFE3948E2DEC
:10171000833049F71F910F91FF90EF9008950F9339
:10172000E2E3F1E0880F880F880FE80FF11D608178
:10173000718182819381643671058105910570F410
:1017400020910101222351F4848165810E94E523C7
:10175000BC0180E090E04EEF03E002C04FEF04E0F8
:1017600024E05BD06EDF0F9108950F93833078F4FF
:10177000E2EBF1E0E80FF11DE80FF11D60817181EE
:10178000812D912D4DEF26E503E047D05ADF0F91D3
:1017900008951F93182F80918B01882319F051DF32
:1017A00080E005DF90DD87E190E163DF812F8295A6
:1017B0008F70DBDF812F8F70D8DF1F910895DF924C
:1017C000EF92FF920F931F93CF93DF93D0900F016F
:1017D0008D2D82958F70C6EAD1E07E01E80EF11C56
:1017E000F70180812ADF02ED1EE0C80142DFF70128
:1017F000868123DFC8013DDF8D2D8370C80FD11D89
:101800008E811BDF80910F01C4DFDF91CF911F918B
:101810000F91FF90EF90DF900895A0E0B0E0E3E13A
:10182000FCE00C946738142FC22F033009F4A7C0D2
:10183000043009F4ABC0053051F0063081F00730B8
:10184000B1F0B4E6CB2ED12CE12CF12C17C0A0EADC
:10185000CA2EA6E8DA2EEE24E394F12C0FC0F0E4B1
:10186000CF2EF2E4DF2EFFE0EF2EF12C07C0E0E8F0
:10187000CE2EE6E9DE2EE8E9EE2EF12C5AE0852E9A
:10188000912CA12CB12C6C157D058E059F0560F067
:101890006B5F7F4F8F4F9F4FA50194010E94C1370F
:1018A000CA01B9011F5FEFCF0CE0010F07FD04C0B3
:1018B000033118F002E101C000E01BEA019F112D85
:1018C00011241695212F220F210F021B21F01F5FDB
:1018D00023E0201B022F2AE030E044E551E00E9483
:1018E000C038A4E5B1E00D900020E9F71197A455A8
:1018F000B140BA2E9D013327802F90E004968217C5
:10190000930714F41F5F0D5FE12FF0E0ED50F24FED
:10191000A490DA2FD01B1D1644F08EE20E94D70A45
:10192000DD2319F080E30E94D70A011101C0DFEF27
:1019300044E5E42E41E0F42E8701CD2EDD24C7FCE2
:10194000D094802F8E198B1578F4F80181918F0136
:101950000E94D70A9801245531402C153D0589F77E
:101960008EE20E94D70AEDCFAA2019F08A2D0E949C
:10197000D70ACC2391F08C2F0E94D70A0EC038EEE4
:10198000C32E33E0D32EE12CF12C78CF20E1C22EF0
:1019900027E2D22EE12CF12C71CFCDB7DEB7ECE0EF
:1019A0000C948338E82FF0E0EE0FFF1FEA5EF24F51
:1019B0008591949120910001420F20910E01620FB8
:1019C00020E00E94480B0895CF93DF93C82FD62FB5
:1019D000E0916301F091640148E161E284850E9435
:1019E000D20CE0916301F09164014D2F6C2F828540
:1019F0000E94D20CE0916301F091640140E061E249
:101A000083850E94D20CDF91CF910895CF930E94DD
:101A1000990980E30E948A0A62E08EE29DE00E94BA
:101A2000BA0A80E20E948A0A83E69DE00E94D30AF5
:101A300062E085E00E94750985E290E10E94390B21
:101A40006AE085E00E94750981E290E10E94390B0D
:101A500080E197E20E94B00F0E94990983E10E9401
:101A60008A0A83E00E948A0A8CE69DE00E94D30ADB
:101A700060E080E00E9475098EE40E94D70A8DE242
:101A80000E94D70A85E390E10E94390B68E080E06C
:101A90000E94750980E50E94D70A8DE20E94D70A4C
:101AA00085E390E10E94390B80E197E20E94B00F3C
:101AB0000E94990981E30E948A0A81E20E948A0AAF
:101AC00085EC9DE00E94D30A60E085E00E947509E4
:101AD0008EE40E94D70A8DE20E94D70A85E40E9414
:101AE000D70A8FE290E10E94390B68E086E00E94FD
:101AF000750980E50E94D70A8DE20E94D70A85E425
:101B00000E94D70A8FE290E10E94390B80E197E2B0
:101B10000E94B00F0E94990981E10E948A0A89EB14
:101B20009DE00E94D30A81E00E948A0A85E99DE037
:101B30000E94D30A60E080E00E9475098EE40E9452
:101B4000D70A8DE20E94D70A84E40E94D70A8FE266
:101B500090E10E94390B68E081E00E94750980E500
:101B60000E94D70A8DE20E94D70A84E40E94D70A15
:101B70008FE290E10E94390B80E197E20E94B00F62
:101B80000E94990982E30E948A0A82E20E948A0ADC
:101B90008BE89DE00E94D30A60E085E00E94750911
:101BA0008EE40E94D70A8DE20E94D70A85E40E9443
:101BB000D70A8AE390E10E94390B68E086E00E9430
:101BC000750980E50E94D70A8DE20E94D70A85E454
:101BD0000E94D70A8AE390E10E94390B80E197E2E4
:101BE0000E94B00F0E94990982E10E948A0A85E84A
:101BF0009DE00E94D30A82E00E948A0A83E79DE06A
:101C00000E94D30A60E080E00E9475098EE40E9481
:101C1000D70A8DE20E94D70A84E40E94D70A8AE399
:101C200090E10E94390B68E081E00E94750980E52F
:101C30000E94D70A8DE20E94D70A84E40E94D70A44
:101C40008AE390E10E94390B80E197E20E94B00F95
:101C50000E94990984E30E948A0A85E20E948A0A06
:101C600087E10E948A0A89E00E948A0A80E197E25D
:101C70000E94B00F0E9499098AE30E948A0A8BE2AF
:101C80000E948A0A8CE10E948A0A8DE00E948A0AD8
:101C900080E197E20E94B00F0E94990988E30E94B8
:101CA0008A0A8EE20E948A0A80E197E20E94B00FBF
:101CB0000E9499090E945E0984EC9EE00E94390B03
:101CC0000E9463098FEB9EE00E94390B0E94690914
:101CD00089E090E10E94390B0E946F0982ED9EE03D
:101CE0000E94390B0E94210B8EEC9EE00E94390B62
:101CF000C0E08C2F8F7089F48C2F8F7331F480E1CA
:101D000097E20E94B00F0E94990960E08C2F86959F
:101D10008695869586700E94750980E28C0F0E94D8
:101D2000D70ACF5FCF3529F780E197E20E94B00F45
:101D30000E949909CF9108958F932F932AE080955F
:101D40003B9A089410F4439802C0439A000020D0B4
:101D500027D086952A95B1F72F918F91089503D0BA
:101D600002D001D000D000D003D002D001D000D0EA
:101D7000A89500D003D002D001D000D000D003D06D
:101D800002D001D000D000D003D002D001D000D0CA
:101D900000D003D002D001D000D000D003D002D0B8
:101DA00001D000D00000089590E0893C28F0885CC4
:101DB00048EC849FC0011124009709F408952091F4
:101DC0008100277019F0DBDF019716C08130910583
:101DD00019F002973EE303C037E180E090E02091E4
:101DE000B200230F2093B30042E04093700027E03D
:101DF00023BF889526E023BFA895DECF8F9384E08C
:101E0000D3DF07C08F9382E0CFDF03C08F9381E0E1
:101E1000CBDF8F911F93182F106410937C00E12F5C
:101E2000E07880914B01E81759F0E0934B01B0DF67
:101E30008EE980937A0083E083BF889582E083BF38
:101E400020E030E0A901E0E01FC08EE980937A0035
:101E500083E083BF889582E083BF609178007091B2
:101E60007900260F371F411D511DE43061F4809128
:101E70004D01803041F084E02030380720F417FD18
:101E800002C01068CACFEF5F80914A01E817E8F2FC
:101E900060914E0170914F0117FF04C060914C0199
:101EA00070914D0180E090E00E9489372FEF33E080
:101EB00040E050E00E94C137B901CA0120914A01B7
:101EC00030E040E050E00E94C137C9011F91089501
:101ED00089B183FB882780F94999826090911A0122
:101EE000943050F09EE09093160180931701109269
:101EF0001B0191E090931A01E0911A01AE2FB0E01E
:101F0000AA5EBE4F9C91981721F181111AC0A3E0DF
:101F1000AE0FA37020911B01923041F4B0E0AA5E95
:101F2000BE4F9C91933069F42F5F09C0913049F402
:101F3000B0E0AA5EBE4F9C91933019F421502093DB
:101F40001B01EF5FE370E0931A01F0E0EA5EFE4FE1
:101F5000808380911B0187FD819580931C010895EA
:101F6000A0E0B0E0E6EBFFE00C946A38D82EC92E72
:101F7000539851980E94C30E10921B01E0911A01D0
:101F8000F0E03196E370FF27EA5EFE4F80EF80833A
:101F9000C5E6D9E10E94680F4F9906C00E94C70E9E
:101FA000D150C1F7C150A9F7CD2DDC2DF12C05E59D
:101FB00010E0BB24B394D7FD38C082E3E82E0E9422
:101FC000680F0E94C70EEA94D1F7000F4F9B0F5F76
:101FD0000F730F3349F4111103C0CD2DDC2D14E024
:101FE0001F5F163928F021C0011102C011111DC058
:101FF000A8951C161D062CF42A97209711F4CFEFF4
:10200000DFEF80911C01882339F0F39480918C01DB
:10201000811102C0B0928C0184E18F1560F680912D
:102020001B01811102C0F12CC6CF812FCDB7DEB7C5
:10203000E9E00C94863888E893E10E94B00F8111A2
:1020400004C080911C018111F6CF0E9463090E9497
:10205000250B0E94630908958CE090E00E94FB38F4
:10206000382F8DE090E00E94FB3820915201230F21
:1020700030915301381F20931F013093200183E0DA
:10208000283E380720F0C901885E934002C080E0F6
:1020900090E062E370E00E949937683008F067E0F2
:1020A000ECE5F1E1E60FF11DE60FF11D45915591CB
:1020B0002591359162E3681B421B530B649FC0015D
:1020C000659F900D1124499662E370E00E94993754
:1020D000620F731F70938F0160938E018EE090E00A
:1020E0000E94FB38992787FD90956091520170916D
:1020F0005301860F971F90934D0180934C0190934D
:102100008A01809389010895CF93DF9324E130E021
:10211000B9010E949937DC01EEE6F1E1E60FF71F05
:10212000E60FF71FC591D591459155914C1B4A9FDC
:10213000C0011124B9010E9499376C0F7D1FCB019A
:10214000DF91CF91089518951895A1E0B0E0EBEAE2
:10215000F0E10C946F3898E097B998B9E82FF0E067
:10216000E050F24F249125B9E62FF0E0E050F24F15
:102170009491922B94B969830E940A0F8C01698112
:10218000862F0E940A0F20914E0130914F01369503
:102190002795A901415251094017510760F4255E66
:1021A0003F4F0217130738F44817590720F441E04E
:1021B0008217930708F040E014B8842F2196E4E0DA
:1021C0000C948B38CF9361E080E00E94A510C82F5B
:1021D00062E080E00E94A510C80F62E081E00E94EA
:1021E000A5108C0FCF910895A3E1B0E0EAEFF0E1E4
:1021F0000C946138182F10922301807FE9F40E941B
:10220000E210833009F0F9C30E9499098AEE90E147
:102210000E94390B0E9463098FE30E94D70A80ED68
:1022200097E00E94B00F8B30F8F40E94990981EB7F
:102230009EE00E94390BE1C336E9F32E00E00E94D4
:10224000990981E590E10E94390B0E94E2108330E8
:1022500021F40F5F043010F007C000E088E20E9414
:10226000D40EFA9461F76FC00E9463098DE69EE078
:102270000E94390B60E083E090E00E94093960E041
:1022800084E090E00E94093960E082E090E00E94E2
:10229000093960E082E00E94E5235C019A8389832A
:1022A00061E082E00E94E5236C019C838B8360E007
:1022B00081E00E94E5237C019E838D83B501882700
:1022C00077FD8095982F03E020E24EEF0E940D0CE1
:1022D000B601882777FD8095982F20E24EEF0E9467
:1022E0000D0CB701882777FD8095982F24E04EEFDD
:1022F0000E940D0C2AE5A216B10424F084E190E0BE
:102300009A838983698183E090E00E9409398AE594
:10231000C816D10424F084E190E09C838B836B8108
:1023200084E090E00E9409399AE5E916F10424F06E
:1023300084E190E09E838D836D8182E090E00E9435
:1023400009390E941B101F701F87113009F067C0E8
:10235000AA24A394B12C08EB202E02ED302E07E422
:10236000402E512C82E0882E98E0992E24ECC22E2B
:1023700026E3D22EE12CF12C54C0739423E02715D0
:1023800008F443C00E9463090E94250B0E945E0965
:102390000E94250B0E945E0984E50E94D70AC501B0
:1023A0000E94600B0E94210B113009F03FC00E9477
:1023B000E12080EA9EE00E94390B60915201709109
:1023C000530180E090E004E026E54DEF0E940D0C03
:1023D0000E9463098BE99EE00E94390B80918E0177
:1023E00090918F010E94600B8EEB80934A0197B809
:1023F00098B814B815B888EE93E00E94B00F143066
:1024000009F4BBCF8B3008F4B8CF88EC0E94D40E0F
:102410008FEFA81AB80A98E0A916B10411F418E7CA
:1024200036C1712C1A2DA0E26A2EACCF123009F001
:1024300044C020914E0130914F01A8E5BBE10E94BC
:102440006837A70196010E94E33781E085B9E5E08E
:10245000E4B980E0288B398B4A8B5B8B0E94FE0E9F
:10246000288939894A895B89821B930B9A838983DE
:1024700081E184B980E0288B398B4A8B5B8B0E9489
:10248000FE0E288939894A895B89821B930B9C83BC
:102490008B8384E085B984E184B981E0288B398B12
:1024A0004A8B5B8B0E94FE0E28893989821B930B15
:1024B0009E838D8385E89EE0C2C0133061F585B8A8
:1024C000FAE0F4B980E00E94FE0E20914E013091B6
:1024D0004F013695279538872F83821B930B9A835C
:1024E000898322E224B980E00E94FE0E2F81388584
:1024F000821B930B9C838B8395B888E284B981E01F
:102500000E94FE0E2F813885821B930B9E838D8344
:1025100087E79EE094C0143049F48AED90E10E9470
:10252000390B0E94E210811165C28FC01530B1F4E1
:1025300015B884B880E00E94FE0E9A83898394B80F
:1025400081E00E94FE0E9C838B8364B882E00E942F
:10255000FE0E9E838D8387E99EE071C0163051F593
:1025600084B885B880E00E94FE0E20914E01309123
:102570004F01821B930B9A83898394B895B881E0AD
:102580000E94FE0E20914E0130914F01821B930B51
:102590009C838B8364B865B882E00E94FE0E209114
:1025A0004E0130914F01821B930B9E838D8383E9F3
:1025B0009EE045C0173009F045C020914E01309192
:1025C0004F01A8E5BBE10E946837A20191010E947A
:1025D000C13785B893E094B980E0288B398B4A8B5A
:1025E0005B8B0E94FE0E288939894A895B89821B90
:1025F000930B9A83898395B8ECE0E4B981E0288B4A
:10260000398B4A8B5B8B0E94FE0E288939894A8957
:102610005B89821B930B9C838B8365B8F0E3F4B9D1
:1026200082E0288B398B4A8B5B8B0E94FE0E2889B7
:102630003989821B930B9E838D8381E79EE00E94E4
:10264000390B03C0113009F4D2CE0E94630989818D
:102650009A810E94550B0E94210B8B819C810E94C4
:10266000550B0E94210B8D819E810E94550BBFCE80
:102670000E9463090E94250B0E9463098AED90E184
:102680000E94390B84E60E94D40E115021F00E9462
:10269000E2108111EDCF0E94990986E69EE00E942A
:1026A000390B609150017091510180E090E003E09E
:1026B00024E04FEF0E940D0C0E9463098FE59EE01D
:1026C0000E94390B609160017091610180E090E09F
:1026D00024E04FEF0E940D0C0E941B10109223016A
:1026E0000E9499098BE59EE00E94390B60E082E030
:1026F0000E94AF1D00919801109199011C870B87D2
:1027000061E082E00E94AF1DC0909801D0909901D5
:10271000DE86CD8660E081E00E94AF1DE0909801EA
:10272000F0909901FE82ED8262E080E00E94AF1D90
:1027300080919801909199019C838B8362E081E064
:102740000E94AF1D80919801909199019A87898785
:1027500061E080E00E94AF1D809198019091990105
:102760009A83898398878F83B801882777FD80951E
:10277000982F03E020E240E00E940D0CB60188276C
:1027800077FD8095982F20E240E00E940D0CB70164
:10279000882777FD8095982F26E444EF0E940D0C42
:1027A0006E01EFE0CE0ED11CFE0131968191919128
:1027B0000A97853B9105E0F4EC15FD05B9F705E0B6
:1027C00010E0CE0101967C01F7016081F2E0EF0E8E
:1027D000F11C6E5EC8010E9409390F5F1F4FEC1497
:1027E000FD0491F70E9463098FE390E10E94390B89
:1027F0000E941B102F85213029F080915F018230CB
:1028000009F0E2C0E0E4BE2E10E0FAE0CF2ED12CB9
:10281000E12CF12C0E94990980E00E941D0B89E0B7
:1028200090E10E94390B82E00E941D0B8BEE9DE02F
:102830000E94390B1092230160E082E00E94AF1DDC
:102840000091A2016091900170919101809192019B
:1028500090919301073F44F4A70196010E94C1376C
:102860000F5FB901CA01F6CF0093A20160939001F6
:10287000709391018093920190939301073F09F027
:102880008CC0DC01CB0180569109A109B1098039C6
:102890009545A105B10508F080C06091A401709133
:1028A000A501CB018B569F4F8B32914008F075C02C
:1028B0001F5F153008F472C08CE090E00E94173959
:1028C0000E94990984EE9DE00E94390B8091A40139
:1028D0009091A5010E94550B0E942C1088E088B9A8
:1028E00089E087B980E284B982E00E940A0F853DC1
:1028F0009340D4F714B810924D0110924C0182E02D
:102900000E940A0F7C018091890190918A01909325
:102910004D0180934C0182E00E940A0F8C01000F50
:10292000111F10924D0110924C0182E00E940A0F7B
:10293000C0908901D0908A01D0924D01C0924C0183
:10294000E80EF91EE01AF10A0E9463098DED9DE080
:102950000E94390B8EE090E00E94FB3873E0B72EA6
:10296000B80E9601D7010E9477379801442737FDAA
:102970004095542F0E94E337B20E6B2D8EE090E00D
:102980000E9409398B2D992787FD90950E94550B40
:102990000E942C100E941B1017C010E00E946309B7
:1029A00060919001709191018091920190919301B9
:1029B00004E026E44091A2010E940D0C88E20E94EE
:1029C000D40EBA9409F026CF10925F0189E180936A
:1029D0004A010E94990981EB9EE00E94390B0E94F6
:1029E000630981ED90E10E94390B109223010E944E
:1029F0001B1003C052E0752E28CE6396E2E10C94C2
:102A00007D3880915F0181110DC085E090E00E94CA
:102A1000FB3861E0680F88E090E00E94093981E0AE
:102A200080935F0108950F93CF93DF93E82FF0E039
:102A3000E650F24FE491E8B9E860E7B915B8E62F3F
:102A4000F0E0E350F24FE491E4B9862F0E94060FC4
:102A5000EC010097F1F087EE9FE00E94390BDE0158
:102A600020EA36E841E050E00E947E3728E937EB63
:102A700040E050E00E94C137CA01B9018827992778
:102A800002E021E447EF0E940D0C88E087B988B985
:102A900014B8DF91CF910F910895A9E1B0E0E3E57B
:102AA000F5E10C946138982E862E342EA895862F49
:102AB00090E0FC01E050F24F2490FC01E350F24F13
:102AC0002491288B242F30E0F901E050F24F6490DC
:102AD000F901E350F24F4490292D30E0F901E05024
:102AE000F24F7490F901E350F24F44914B87F90192
:102AF000E650F24F54915B83FC01E650F24F649133
:102B00006C87586058876860562E65B8762D722994
:102B10007C8374B957B98B8188B9882D0E94060FC0
:102B20009A83898324B8882D0E94060F5C0114B80B
:102B30000E94BF0E15B89C8194B9882D0E94060F83
:102B4000A981BA818A179B0738F5805E9E4FA81726
:102B5000B90708F44EC457B888E088B975B8872D0E
:102B6000862984B9E0914E01F0914F01FA83E983FF
:102B7000892D0E94060F29813A81281B390B3A833F
:102B8000298374B8A0904E01B0904F01892D0E9406
:102B9000060FA81AB90A08C029813A81205E3E4F63
:102BA0008217930708F425C4209172018091840153
:102BB00090E0820F911D02974CF0213009F019C46A
:102BC00090916F0180918101981313C449815A81BA
:102BD0004437510508F4AEC0CA01880F991F4496C6
:102BE000A816B90608F0A6C0588557B96B8168B910
:102BF000842D822984B9882D0E94020F8C01832D97
:102C00000E940A0F7C0145B8882D0E94020F98018E
:102C1000295A3D4F472828173907D8F588E088B941
:102C200057B844B845B8832D0E94020F88349F409E
:102C300028F084E08093230182E204C084E0809342
:102C4000230184E28093220110936A0100936901B9
:102C5000E016F10640F4C8018E199F0990936E01A9
:102C600080936D0104C010926E0110926D01980165
:102C7000A8EEB3E00E94683720911D0130911E013B
:102C800040E050E00E94C13730936C0120936B010B
:102C9000A7C388E088B957B844B845B8892D0E94C1
:102CA000020F8C01832D0E940A0F7C0175B8892DBB
:102CB0000E94020F895A9D4F8017910708F099C30F
:102CC0008B8188B9988597B9832D0E94020F813D29
:102CD000934028F484E08093230182E304C084E0DD
:102CE0008093230184E3809322010E151F0538F49D
:102CF000E01AF10AF0928001E0927F0104C0109284
:102D0000800110927F0120914E0130914F01201BD4
:102D1000310BA8EEB3E00E94683720912401309176
:102D2000250140E050E00E94C13730937E0120939E
:102D30007D0169C188E088B957B875B8B72DB62943
:102D4000B987B4B9892D0E94060F9F838E83E090C6
:102D50004E01F0904F01832D0E940A0F8C018A30A2
:102D6000910570F514B881E00E94D40E872D842956
:102D700084B9892D0E94060F9F838E83E0904E01B7
:102D8000F0904F01E81AF90A832D0E940A0F8C0176
:102D900080912401909125019C0140E050E060E683
:102DA00077EB87E490E00E94C137D7010E947E371D
:102DB000980140E050E00E94C13769017A010DC0DE
:102DC000C701EE81FF818E1B9F0B801B910BB80109
:102DD0000E9499376B01E12CF12C14B815B8FB81D6
:102DE000F8B9288527B981E00E94D40E39EBA316E3
:102DF00037E0B30608F0FDC24C8144B9882D0E942B
:102E0000060F8F359D4008F404C114B881E00E947C
:102E1000D40E742D7229798B74B9882D0E94060FF7
:102E2000998F888F832D0E940A0F9F878E87892D07
:102E30000E940A0F9B8B8A8B8E859F85813D9740D0
:102E400008F48CC083E0809323018DE080932201FD
:102E5000E88DF98DAE16BF0620F4EA19FB09F98F4B
:102E6000E88F40901D0150901E01612C712C60E68E
:102E700077EB87E490E0A30192010E94C137A88D0F
:102E8000B98D0E947E37AE85BF859D0140E050E040
:102E90000E94C13780918401882369F08091770175
:102EA00090917801A0917901B0917A0182179307EE
:102EB000A407B507A0F420937701309378014093DD
:102EC000790150937A018A899B89EE85FF858E1B53
:102ED0009F0B90937C0180937B0121E001C020E057
:102EE0008091770190917801A0917901B0917A0158
:102EF0008C159D05AE05BF0588F4C0927701D09270
:102F00007801E0927901F0927A018E819F81801B95
:102F1000910B90937C0180937B0103C0222309F4E1
:102F2000CFC39501A8EEB3E00E946837A3019201D8
:102F30000E94C13730937E0120937D0129813A811F
:102F4000A8EEB3E00E946837A30192010E94C13746
:102F50003093800120937F0121E0B2C3F1E6AF16E8
:102F6000B10408F056C0288D398D213D47E0340763
:102F700008F44FC084E08093230126503F4F6A89B4
:102F80007B892617370710F082E101C083E1809327
:102F900022017C857770E72E832D806480937C00EE
:102FA000ABE0FA2ECC24C394D12C0FEF13E0A895FC
:102FB00061E0862D0E94CA1C298924B986B18E2120
:102FC000E9F324B880917A00806480937A0080913C
:102FD0007A0086FDFCCF8091780090917900A8015D
:102FE000481B590BC40ED51EFA9409F7C601880F69
:102FF000991F880F991F69E070E00E9499377093BC
:10300000800160937F01809184018F5F80938401B0
:10301000A3CF5C8154B965B8882D0E94060F9D83AB
:103020008C83832D0E940A0F9F838E8360914E01B3
:1030300070914F01681B790B6A30710590F514B8D7
:1030400081E00E94D40E842D822984B945B8882D50
:103050000E94060F9D838C83832D0E940A0F9F83FD
:103060008E8380911D0190911E019C0140E050E0F3
:1030700060E677EB87E490E00E94C137AC81BD81C8
:103080000E947E3720914E0130914F01AE81BF8169
:103090002A1B3B0B40E050E00E94C13769017A01D6
:1030A00009C08C819D81861B970B0E9499376B010B
:1030B000E12CF12C57B888E088B9B985B4B9B5B915
:1030C000892D0E94060F8C01832D0E940A0F9F8775
:1030D0008E87882D0E940A0F9C010034E6E01E07AF
:1030E00008F084C175B8892D2E8B3F8B0E94060F86
:1030F000AC0174B8892D4C8B5D8B0E94060F9B8BA5
:103100008A8B15B881E00E94D40E75B8892D0E9473
:10311000060F2E893F894C895D896A897B896034D5
:10312000764008F058C08133914108F454C0C8017A
:103130008A569F4F4817590708F04DC085E0809385
:103140002301809172018F5F809372018E859F852C
:10315000821B930B90936A0180936901021B130BEE
:1031600010936E0100936D0114B815B8EC85E8B9A1
:1031700081E00E94D40E74B8892D0E94060F853F0D
:10318000910508F0ABC2F985F4B9832D0E94060FB2
:10319000813D934008F4A2C2892D0E940A0F8D3D03
:1031A000924008F49BC274B8892D0E94060F8D3D91
:1031B000924008F493C275B881E00E94D40E15B80D
:1031C000892D0E94060F853F910508F087C286E091
:1031D0008093230183C2472844B845B8892D0E94B3
:1031E000FE0E9C0160914E0170914F01681B790B9E
:1031F0007F876E87832D2E8B3F8B0E940A0F9A87C5
:10320000898700914E0110914F01081B190B882DE1
:103210000E940A0F9D878C872E893F890E3F79E097
:10322000170708F48FC083E0809323018CE080931C
:1032300022018E859F85A816B90620F48A199B095C
:103240009F878E874090240150902501612C712C1E
:1032500060E677EB87E490E0A30192010E94C1371A
:10326000AE85BF850E947E37980140E050E00E9405
:10327000C13780917201882369F080916501909136
:103280006601A0916701B091680182179307A407B6
:10329000B507A0F420936501309366014093670160
:1032A0005093680189859A85AC85BD858A1B9B0BE7
:1032B00090936A018093690121E001C020E0809130
:1032C000650190916601A0916701B09168018C152C
:1032D0009D05AE05BF0598F4C0926501D0926601C8
:1032E000E0926701F09268018E819F81EC81FD81FF
:1032F0008E1B9F0B90936A018093690103C0222368
:1033000009F4EDC19501A8EEB3E00E946837209161
:103310001D0130911E0140E050E00E94C137309302
:103320006C0120936B0129813A81A8EEB3E00E94E1
:103330006837A30192010E94C13730936E01209338
:103340006D01CCC1F1E6AF16B10408F04FC04E8557
:103350005F8549345D4008F449C084E080932301CF
:1033600082E0809322018C859D8586509F4F821735
:10337000930718F483E0809322010B810770832D5B
:10338000806480937C001BE0EE24E394F12CA895EC
:1033900060E0862D0E94CA1C44B845B886B18023DF
:1033A000E9F774B880917A00806480937A00809104
:1033B0007A0086FDFCCF8091780090917900E80E2C
:1033C000F91E115021F7C701880F991F880F991F07
:1033D00069E070E00E94993770936E0160936D010F
:1033E000809172018F5F8093720178C188E087B904
:1033F00088B914B815B888E087B977ECA71671E0DA
:10340000B70608F4B9C088B918EC0885052907B9CA
:1034100081E00E94D40E57B8892D0E940A0F42976E
:1034200010F01150A1F78B8584B985B961E0862D24
:103430000E94CA1C892D0E94060F8C01988994B99C
:1034400015B8A885A7B9BB81B8B960E0862D0E94E0
:10345000CA1CA0904E01B0904F01882D0E94060F0B
:103460006C0124B8892D0E94060F9A838983882DC8
:103470000E940A0F29813A81281B390B3A8329833C
:1034800088E088B957B874B875B861E0862D0E9495
:10349000CA1C892D0E94060F7C01882D0E940A0FEC
:1034A000E81AF90A49815A814E155F0548F45B858F
:1034B00054B955B9892D0E94060FFA82E98219C0C4
:1034C00085010C191D09688964B915B8788577B923
:1034D0008B8188B960E0862D0E94CA1CE0904E0165
:1034E000F0904F01882D0E94060FD701A81BB90B41
:1034F000CD0129813A812759310929383141E0F537
:1035000029813A8182179307B8F5C80163E096953F
:1035100087956A95E1F7893C910510F088EC90E079
:10352000800F911F49815A818417950728F5CA0198
:1035300054E0969587955A95E1F780179107E0F446
:1035400080912301823018F482E0809323018091DE
:103550002101E82FF0E0DF01AA55BE4F9C9216969C
:103560008C92EE0FFF1FEE54FE4F29813A8131837A
:1035700020838F5F809321012091840180917201CB
:1035800090E0820F911D892B09F091C0A895809140
:103590004E0190914F01880F991F880F991F9093AA
:1035A0004F0180934E0180914C0190914D01880F05
:1035B000991F880F991F90934D0180934C018EEBBA
:1035C00080934A0188E088B957B874B875B818E193
:1035D000C12CD12C882D0E94060F582E492E892DE2
:1035E0000E940A0F7C018C199D0997FF03C09195D9
:1035F00081959109039734F0A895115009F440C0C2
:103600006701E8CF15B83B8534B9892D0E94060FB4
:1036100081359105A8F53B8535B9892D0E94060FA6
:103620008C01488547B95B8158B915B824B888E141
:10363000B82EC12CD12C892D0E94060F782E692E10
:10364000882D0E940A0F9A8389838C199D0997FF00
:1036500003C091958195910903970CF04EC048895C
:1036600044B9882D0E94060F5C0150ECE51654E425
:10367000F50608F049C0053861E0160708F449C0AE
:1036800080914E0190914F019695879596958795DB
:1036900090934F0180934E018091890190918A010E
:1036A00090934D0180934C0189E180934A0188E019
:1036B00087B988B914B815B86996E2E10C947D38D9
:1036C000809184018F5F80938401222381F3309263
:1036D00081018092820190928301E9CF21E0809163
:1036E00072018F5F80937201222309F330926F0180
:1036F0009092700180927101DACFA895BA9409F482
:10370000BFCFC980DA8097CF003B7DE4170708F070
:10371000B7CFC0904E01D0904F0189819A81843AF1
:10372000924008F061C0B8E9AB16B10408F4A8CF24
:103730009801A8E9B7EB0E9468379601201B310B6E
:1037400040E050E00E94C13729013A0196012A1950
:103750003B09A8E9B7EB0E9468376501E12CF12C21
:10376000A70196010E94C1370837EFE01E0770F4E9
:10377000C301B201B2E0660F771F881F991FBA9587
:10378000D1F7620F731F841F951F12C0F8E7AF16A1
:10379000FFE0BF06A0F4CA01B901A2E0660F771FDF
:1037A000881F991FAA95D1F7640D751D861D971D59
:1037B00025E030E040E050E00E94C13708C0240D11
:1037C000351D461D571D5695479537952795A4E6F7
:1037D000B0E00E947E376B017C012CEAC20E2DE026
:1037E000D21EE11CF11C75C0252D342DE216F30606
:1037F00008F49701072D162D49815A8104171507E2
:1038000008F48A0159012E153F0508F45701A091CB
:103810002401B0912501B501621B730B9B010E942D
:10382000683796012A193B0940E050E00E94C137F1
:1038300029013A01780189819A818017910708F45A
:103840007C01A0911D01B0911E0198012E193F0924
:103850000E946837870120E030E0A90198010E94AA
:10386000C13798E7A9169FE0B90670F4C301B20109
:10387000E2E0660F771F881F991FEA95D1F7620F64
:10388000731F841F951F12C0A8E7EA16AFE0FA065F
:10389000B0F4CA01B90142E0660F771F881F991F73
:1038A0004A95D1F7640D751D861D971D25E030E002
:1038B00040E050E00E94C13769017A010AC0690105
:1038C0007A01C40CD51CE61CF71CF694E794D79437
:1038D000C79410912301133008F0D2CE80918B0150
:1038E000882309F443C0B8E08B9F30011124F30111
:1038F000E65DFE4F3F019681931132C0808091803A
:10390000A280B380A7019601281939094A095B09E9
:1039100057FF07C050954095309521953F4F4F4F29
:103920005F4FAAE0B0E00E947E37A50194012C59B8
:103930003F4F4F4F5F4F2C0D3D1D4E1D5F1D0E9491
:10394000C137232B242B252B09F09ACE123019F0E6
:1039500081E08093230181E0D30117968C9390CE70
:103960009781911103C0815080938B0180918B01CD
:1039700028E0829FF0011124EE5CFE4FC082D182CC
:10398000E282F38284829582368217828F5F8093EF
:103990008B0176CECF93C82FC09595B160FF02C042
:1039A000982B01C09C2395B994B1982B94B982E0CF
:1039B0000E94D40E84B18C2384B985B18C2385B93F
:1039C000CF910895A0E0B0E0E8EEFCE10C946A38F5
:1039D0008AE0C82E98E0D92E2FE3B22ED7B8D8B8F7
:1039E00015B8B4B880E00E94060F8C0181E00E94F7
:1039F0000A0FEC0182E00E940A0F20912301283077
:103A000081F428E027B914B810930401009303014E
:103A1000D0930601C093050190930801809307019C
:103A200059C031E0C430D10508F030E021E0043065
:103A3000110508F020E0232319F08430910508F3E4
:103A4000083E134010F028E001C029E0C83ED340F2
:103A500008F42260883E934008F4246027B9C0E04F
:103A6000D0E0A89580E00E94FE0E7C0181E00E94DB
:103A70000A0F8C0182E00E940A0F24E1E21625E081
:103A8000F20608F4389A043135E0130708F4399A3D
:103A9000843125E0920708F43A9A36E0E316F104FF
:103AA00028F40630110510F4069738F02196C43F2B
:103AB00081E0D807B1F6D092230100E010E00C17A6
:103AC0001D0729F00E94C30E0F5F1F4FF8CFCA9445
:103AD00009F084CFCDB7DEB7E9E00C948638CF92F9
:103AE000DF92EF92FF92CF9320919001309191015C
:103AF0004091920150919301C091A2018AE0C82E99
:103B0000D12CE12CF12C8C2FCF5F213A96E839078C
:103B100091E04907510538F0CA01B901A7019601A2
:103B20000E94C137F0CF8093A201A0914E01B091C5
:103B30004F010E947E3728E833E140E050E00E94C8
:103B4000C13720939001309391014093920150939B
:103B50009301CF91FF90EF90DF90CF900895A0E078
:103B6000B0E0E5EBFDE10C946738C82FD62F8FEF5E
:103B7000860F9C2F990F9C0F890F80937401E62F5D
:103B8000F0E0E650F24F0491EC2FF0E0E050F24FFD
:103B9000149180912301813009F497C24091210151
:103BA0008CEA91E062EB71E0DC012A2F281B2417DC
:103BB000A0F42D912D130EC09D0127503109F9015C
:103BC00020812C1307C0FB01208131812C3D354021
:103BD00008F47BC26E5F7F4FE8CF086010929D01B2
:103BE00010929C01109290011092910110929201FA
:103BF0001092930184EF8093A2010E94E21C88E05E
:103C000088B915B807B914B88C2F0E940A0F6C0137
:103C100010927601109275017C018091750190914E
:103C20007601843F914080F515B914B90E94BE0E0B
:103C300014B815B80E94C40EA8958C2F0E940A0FC4
:103C4000C816D90620F47C01EC18FD0802C0E12C4E
:103C5000F12C80917501909176018E37910528F0B5
:103C60002BE4E216F10408F42BC25DE2E51651E004
:103C7000F50680F4809175019091760101969093FC
:103C8000760180937501C9CFFDE2EF16F1E0FF06E2
:103C900008F416C28091750190917601892B21F06C
:103CA000C70100E010E006C025E1E21625E0F206BB
:103CB000B8F380C02091750130917601201731074B
:103CC00048F00E94BF0E8C2F0E940A0FA8950F5F2C
:103CD0001F4FF0CFC816D90630F48C199D098E15E8
:103CE0009F05C8F402C080E090E08701081B190B13
:103CF000A1F0093C110508F0E3C19801A8EEB3E07A
:103D00000E9468374701A12CB12CA50194010E94A3
:103D1000C137690104C000E010E0C12CD12CA09093
:103D20007501B09076015FEFA51AB50AC501A0E054
:103D3000B0E08093980190939901A0939A01B09379
:103D40009B01C8018E0D9F1D0E94B2209C01D501D0
:103D50000E946837609398017093990180939A014B
:103D600090939B01609390017093910180939201D5
:103D70009093930187EF8093A2010E946F1D209181
:103D80009001309191014091920150919301A8EEE0
:103D9000B3E00E947E3724E630E040E050E00E942D
:103DA000C137209390013093910140939201509339
:103DB000930144C10E94E21C15B88FE087B988E0E6
:103DC00088B9F12EFF0CF4B880E480937B0084E581
:103DD00080BF8C2F806480937C0086E180937A0082
:103DE0000E94C70E10927601109275011092800009
:103DF000109285001092840087E286BB81E2809356
:103E00006F0081E080938D01F5B89091230180933C
:103E10008100943059F481E090E00C2E01C0880FAD
:103E20000A94EAF780958F7087B901C007B9F894B2
:103E300083B7817F83BF80918D01882389F083B709
:103E4000816083BF7894889583B78E7F83BFF89411
:103E5000A89580917501909176018034964059F72C
:103E6000789410928100E0908600F0908700109284
:103E70006F0086E980937A0014B815B88C2F0E94E1
:103E80000A0F2091520130915301821B930B0C9623
:103E90009093A5018093A401809175019091760182
:103EA0008032934008F00CC18091750190917601A9
:103EB00090939B0180939A01F0929901E09298016E
:103EC00084EF8093A20180917501909176018234F4
:103ED0009105C8F0609198017091990180919A01C3
:103EE00090919B0124E630E040E050E00E94C13711
:103EF000209398013093990140939A0150939B012C
:103F000086EF8093A201A0918E01B0918F01209144
:103F100098013091990140919A0150919B010E9422
:103F20007E3720E233E040E050E00E94C13720932A
:103F300098013093990140939A0150939B012093EB
:103F400090013093910140939201509393010E940C
:103F50006F1D8091A201843F09F060C0C090900164
:103F6000D0909101E0909201F090930120EAC21666
:103F70002FE0D206E104F104C0F4A70196012C540D
:103F80003F4F4F4F5F4F60EA7FE080E090E00E943C
:103F9000C1372C0D3D1D4E1D5F1D209390013093A8
:103FA000910140939201509393018091740190E0AC
:103FB0008B5F9F4F0E94FB38C0909001D090910181
:103FC000E0909201F0909301482F50E060E070E0A3
:103FD0004C155D056E057F0568F4C41AD50AE60A1E
:103FE000F70AC0929001D0929101E0929201F09272
:103FF000930114C084E1C80ED11CE11CF11CC4164D
:10400000D506E606F70610F40E94011510929001FD
:1040100010929101109292011092930114B9809123
:10402000900190919101A0919201B09193014997D3
:10403000A105B10508F444C0C12CD12C8091210107
:10404000882321F0809123018430D1F587E080938B
:1040500023012091A2018091A3018217BCF02813B3
:104060002FC0409190015091910160919201709107
:1040700093018091940190919501A0919601B09146
:10408000970184179507A607B707D0F48091900190
:1040900090919101A0919201B0919301809394012C
:1040A00090939501A0939601B09397012093A3015B
:1040B000D0929F01C0929E01D093A001C093A10114
:1040C00088E087B988B914B815B8CDB7DEB7ECE089
:1040D0000C9483381F920F920FB60F9211248F9376
:1040E0009F93B59904C080918D01811109C0B59B42
:1040F00010C080918600909187008A3F910548F416
:10410000809175019091760101969093760180934C
:1041100075019F918F910F900FBE0F901F90189572
:104120001F920F920FB60F9211248F939F931092AC
:104130008D01B09B10C080918600909187008A3FCE
:10414000910548F4809175019091760101969093C4
:104150007601809375019F918F910F900FBE0F9004
:104160001F9018950F9221E08C32920710F48CE288
:1041700091E08C52914069E170E00E94993799E199
:104180006B3210F0982F6BE2981BECECF1E1E60F2C
:10419000F11DE60FF11D4591559125913591692F3E
:1041A000421B530B649FC001659F900D11240C9618
:1041B00069E170E00E949937620F731FCB010F9085
:1041C0000895A0E0B0E0E7EEF0E20C94673888E8EC
:1041D00093E190934F0180934E018EEB80934A01BF
:1041E000C8E0C8B988E187B90E94CC0EC7B984E09D
:1041F0000E94060FAC018B5C9840833F9140A0F475
:1042000081E08093620120914E0130914F01AFEB2C
:10421000B9E00E9468379A0140E050E00E94C1373F
:1042200030934F0120934E018EE00E940A0F8EE0E2
:104230000E94060F90935301809352010E942C100C
:10424000D9E0D7B9C1E0C5B9C4B980E00E94060F72
:104250007C010AE007B914E015B914B981E00E94A5
:10426000060FE80EF91E8CE0882E87B890E1992E93
:1042700095B894B882E00E94060FE80EF91E15B8B2
:10428000D8B9D7B9C4B9C0914E01D0914F0180E0DF
:104290000E94060F5C0108B907B914B900914E01DC
:1042A00010914F0181E00E94060F6C0188B887B819
:1042B00094B880904E0190904F0182E00E94060FCA
:1042C000C00FD11FC80DD91DCA19DB09CC19DD09D2
:1042D000C81BD90B80914E0190914F014C01880C65
:1042E000991C880E991E8E189F088C1A9D0AA12C65
:1042F000B12C9701A0E9BAE10E946837A5019401A9
:104300000E94C13769017A013093610120936001F5
:104310009E01A0E9BAE10E946837A50194010E94BC
:10432000C13730935101209350012057354E3093BF
:1043300025012093240180E7C81A85EED80AD0927F
:104340001E01C0921D0189E180934A01CDB7DEB7FD
:10435000ECE00C948338A0E1B0E0E1EBF1E20C94E6
:1043600061381092010180912301813009F029C246
:1043700080918B01813009F024C2809132019091AB
:104380003301A0913401B091350189309245A105E6
:10439000B10508F016C2312C80913601A09037018A
:1043A00041E0431510F0B82E02C0BA2CA82EEA2D19
:1043B000F0E0E650F24F74908B2D90E0FC01E0505D
:1043C000F24FE49115B858E058B94091320150913C
:1043D00033016091340170913501272D2860403FF1
:1043E000510561057105A0F430FC12C000911D015A
:1043F00010911E0100591A4141E050E00B2C02C0FF
:10440000440F551F0A94E2F7CA01822B87B906C0F0
:10441000E4B927B900911D0110911E0144E1642EF9
:104420008B2D0E94020F4C018A2D0E940A0F52E030
:104430008516910410F4029710F06A9489F760E4ED
:1044400060937B0084E580BF8B2D806480937C002B
:1044500086E180937A00E12CF12C1092800010927A
:1044600085001092840087E286BB0E94C70E932DC0
:104470009170292E30FC05C081E88093810078B8C6
:1044800008C078B80E94D00E80E286BB81E8809395
:10449000810046B345FF11C01092810080E286BBC7
:1044A00080918600909187006C012091840030916A
:1044B00085008217930768F013C040FFEACF21E020
:1044C00026BBA895C70101967C018035910509F7A7
:1044D000E3CF40FF05C041E046BB5FEFE51AF50AB8
:1044E00068E068B986E980937A0034E1732E8B2DF9
:1044F0000E94020F4C018A2D0E940A0F22E08216B0
:10450000910410F4029710F07A9489F780903201A8
:10451000909033018091600190916101880E991E05
:10452000800E911E20911F013091200100394AE137
:104530001407B0F451EEC516D104E104F10438F4C7
:10454000C60165E070E00E949937645101C069E1DD
:1045500028523109261B310967FD339586E009C0D1
:10456000C40160EB76E30E94993787E0860F285DEF
:104570003F4F90E0A0E0B0E08C159D05AE05BF0573
:1045800028F4C81AD90AEA0AFB0A03C0C12CD12CA4
:104590007601222029F062E2C60ED11CE11CF11C3A
:1045A00080E5E816F10418F0C12CD12C76019BE0CF
:1045B000C916D104E104F10428F041E0C41AD1087D
:1045C000E108F10840914E0150914F01A12CB12C0E
:1045D000A8EEB3E00E9468372B013C019801DA0194
:1045E0000E946837A50194010E94C13744275527CE
:1045F000C301B2010E94C137C9010E948410FC01AD
:10460000A5019401C701B6010E9489374B015C01E5
:10461000BF0180E090E023E0660F771F881F991F9D
:104620002A95D1F76B5F7F4F8F4F9F4F2AE030E085
:1046300040E050E00E94C137C501B4010E94C1377B
:10464000832D90E0E1E0F0E0EC0FFD1F64E0369E8A
:10465000E00DF11D11242083318342835383211007
:1046600017C06CE0C616D104E104F10488F0FC0127
:104670003196EE0FFF1FEE0FFF1F81E090E08C0FD1
:104680009D1FE80FF91F20833183428353833394A6
:10469000A895339493E0931508F07ECE88E088B90E
:1046A00084E00E94D40E21E04D815E816F81788587
:1046B00089819A81AB81BC8184179507A607B707CA
:1046C00008F020E04D855E856F85788989859A851B
:1046D000AB85BC8584179507A607B70710F032E0B5
:1046E00001C033E0E22FF0E0EE0FFF1FEE0FFF1FDF
:1046F00041E050E04C0F5D1FE40FF51FDA0154E07C
:10470000359FA00DB11D11244D915D916D917C914E
:1047100080819181A281B381481759076A077B077D
:1047200008F0322FE1E0F0E0EC0FFD1F64E0369F6F
:10473000E00DF11D112480819181A281B3818093CC
:10474000090190930A01A0930B01B0930C012BEF88
:104750002093010130FD0DC0409132015091330191
:104760006091340170913501403F5105610571053B
:10477000B8F02CEF20930101BC01CD016B5F7F4F9E
:104780008F4F9F4F2AE030E040E050E00E94C13759
:104790002093090130930A0140930B0150930C01BF
:1047A0008091090190910A01A0910B01B0910C0137
:1047B000892B8A2B8B2B11F41092010188E087B989
:1047C00014B86096E2E10C947D382F923F924F929C
:1047D0005F926F927F928F929F92AF92BF92CF9291
:1047E000DF92EF92FF920F931F93DF93CF93CDB79A
:1047F000DEB76E970FB6F894DEBF0FBECDBF662E44
:10480000B82E860F898320912301273041F520910E
:10481000940130919501409196015091970110912A
:10482000A30109C0CA01B9012AE0312D412D512D42
:104830000E94C1371F5F173FACF32A3560E036078F
:104840004105510518F48FEF9FEF82C1173F39F4EE
:1048500080E028178DE738074105410510F020E07A
:104860003DE72C8B3D8B26EDA22E02C094EDA92EA8
:10487000EAEFFDE0E60DF11D859188608E87EAEF95
:10488000FDE0EB0DF11D859188608F87E0E0FEE093
:10489000E60DF11D7590E0E0FEE0EB0DF11DC59019
:1048A00090EC692AB92A81E0E82EF12C012D112D16
:1048B0008E831F82188619861A861B861C861D8683
:1048C000188E198E1B8E1A8E0E94E21C88E088B901
:1048D00060927C000E94C80E3F8537B975B874B8E5
:1048E0000E94CF0E14B815B8DD24B4ED9B2EA6EDB2
:1048F0008A2E3E8537B975B874B860927C00A89549
:10490000A0927A0080917A0086FDFCCFA0927A0076
:1049100080917A0086FDFCCF20907800309079005D
:10492000B0927C00A0927A0080917A0086FDFCCF44
:1049300080927A000E94CD0E0E94CF0EC5B8C4B8F6
:104940000E94CE0E0E94D00EA895A895A895A89575
:1049500014B815B880917A0086FDFCCF20917800BC
:1049600030917900288B398B3F8537B9C5B8C4B8E9
:10497000A895B0927C00A0927A0080917A0086FD82
:10498000FCCFA0927A0080917A0086FDFCCF6091E6
:1049900078007091790060927C00A0927A008091FA
:1049A0007A0086FDFCCF80927A000E94CD0E0E9494
:1049B000CF0E75B874B80E94CE0E0E94D00EA89586
:1049C000A895A895A89514B815B880917A0086FD89
:1049D000FCCF409178005091790014B8CB01820D42
:1049E000931DE80EF91E011D111DEA82FB820C8346
:1049F0001D8388899989840F951F2E813F81688541
:104A00007985280F391F611D711D2E833F836887AB
:104A1000798722E32417150650F075B874B80E9400
:104A2000D20E14B815B8888D8395888F07C0483E7C
:104A300073E0570718F08A8D83958A8F8889998942
:104A40002817190660F03E8537B9C5B8C4B80E946A
:104A5000D20E14B815B8898D8395898F07C0883E0A
:104A600073E0970718F08B8D83958B8FD3945D2D12
:104A70005F3F09F03ECF4090600150906101440CCF
:104A8000551C9201E4E0240D351DEA95E1F729015A
:104A9000570168016E807F8088849984209123016A
:104AA0002730C1F46C897D89812D912D6C53704024
:104AB000804090409B01AC010E9489379B01AC0172
:104AC0006FEF71EC8EE390E00E94C137621A730AB7
:104AD000840A950AA614B704C804D90428F46A18ED
:104AE0007B088C089D0803C0662477244301B2012B
:104AF00080E090E09301A4010E9489379501A6010E
:104B00000E94C13781E090E07981870F911D0E945A
:104B1000FB3890E0682EC90160E170E00E9499378F
:104B2000260F371FC9016816190618F4861991094E
:104B30000FC08C5E9F4F8615910540F48C899D892E
:104B4000843981E1980710F00E940115812D912D83
:104B50006E960FB6F894DEBF0FBECDBFCF91DF913A
:104B60001F910F91FF90EF90DF90CF90BF90AF908B
:104B70009F908F907F906F905F904F903F902F907D
:104B80000895A0E0B0E0E7ECF5E20C94673880917E
:104B90009E0190919F01892B09F09DC0E091A00199
:104BA000F0E0E650F24FC491C860E091A101F0E05E
:104BB000E050F24F14910E94E21C88E088B915B8C9
:104BC000C7B914B98091A1010E940A0FEC010091AC
:104BD000A301083F0CF07FC0045FC0909401D09007
:104BE0009501E0909601F09097018AE0882E912C33
:104BF000A12CB12C043070F4C701B6016B5F7F4F5C
:104C00008F4F9F4FA50194010E94C1370F5F69012B
:104C10007A01F0CFD701C6010197A109B1098838FF
:104C20009341A105B10508F056C015B914B9A12CDE
:104C3000B12CAC14BD0430F40E94CE0E82E0A80E5C
:104C4000B11CF7CF14B815B8A89585E080934A0138
:104C50008091A1010E940A0FC817D90720F45C01B6
:104C6000AC1ABD0A02C0A12CB12C812C912C8C1441
:104C70009D0430F40E94CE0E2FEF821A920AF7CFD5
:104C80008091A1010E940A0F29E120934A01A89571
:104C9000C817D90718F48C1B9D0B02C080E090E068
:104CA0008A159B0588F49501281B390B69F0A4EF40
:104CB000B1E00E946837950140E050E00E94C137A2
:104CC00030939F0120939E010E94E21C88E087B9E7
:104CD00088B914B815B8CDB7DEB7ECE00C948338BA
:104CE000A5E0B0E0E6E7F6E20C94613881EB90E1F4
:104CF0000E94E82C20EF2A8354980E94C30E14BC13
:104D000016BC109210011092110110921201109213
:104D1000130131E035BB30936E001092800083E1C7
:104D20009AE79093890080938800E1E0F0E0F093A7
:104D30008B00E0938A00109285001092840083B566
:104D4000816083BDF6E0F6BBF0936F00789424E0B9
:104D50002093810012E319820E94BD0EA8954F99FD
:104D600002C031E0398385B5811131C015BC86B5EB
:104D7000809310010E9463090E94250B0E9469091B
:104D80000E94250B0E946F090E94250B0E94630957
:104D900086E60E94D70A8DE30E94D70A609110012F
:104DA00070911101809112019091130107E028E4A4
:104DB00040E00E940D0C8AE70E94D70A5498809127
:104DC0008100882339F08FE30E94D70A03C0115075
:104DD00019F6CCCF1092810010926F002091100133
:104DE000309111014091120150911301DA01C90172
:104DF0000197A109B109893D9146A105B10508F0C6
:104E00002BC1AAE0B0E00E947E37685F7F4F8F4FD2
:104E10009F4F23E096958795779567952A95D1F7CB
:104E2000660F771F709386016093850154980E94E6
:104E3000C30E16BC109210011092110110921201B3
:104E40001092130181E085BB80936E00109288015F
:104E50001092870194E09BBB8091680084608093EE
:104E60006800789480916D00806180936D001D8250
:104E70000E94BD0EA8954F9902C0E1E0E9838091A0
:104E80006D0084FF05C0FD81FF5FFD83FA3F81F760
:104E900015BC80916D008F7E80936D0080916800BD
:104EA0008B7F8093680086B5809310010E9469090A
:104EB00084E50E94D70A8DE30E94D70A80911001F1
:104EC00090911101A0911201B091130120918501DF
:104ED000309186013C832B831C012D019C01A20192
:104EE00060E070E080E090E003E00E949E385101B5
:104EF0006201E12CF12C00E010E00E94B73859016A
:104F00006A017B01E82F192F03E00E949E380E2FC3
:104F10000E94B73803E00E949E3851016201E12CE3
:104F2000F12C00E010E00E94B73802E00E949E38A9
:104F300000E00E94B73801E00E949E3800E00E9425
:104F4000B73803E00E949E38EB81FC815F01C12CE1
:104F5000D12C00E00E94FC3739014A011B012C01D1
:104F60002B813C812038310530F007E023E745EF05
:104F7000B301C40116C084E6A82EB12CC12CD12CDB
:104F8000E12CF12C00E010E09301C2010E94FC37FB
:104F9000E22FF42F07E023E747EF6E2F732F8F2FB9
:104FA000952F0E940D0C3D813A3F21F48FE30E9422
:104FB000D70A52C09301A401B101C2012C393E4C61
:104FC00043405105610571058105910509F008F41B
:104FD00043C00E946F0986E60E94D70A8DE30E94B3
:104FE000D70A9301A401B101C20153016401710107
:104FF000820121153A4C4A495B43610571058105DF
:10500000910589F080F020E030E04AE85DE568E74E
:1050100075E483E691E00E94FC37E22FF42F07E06D
:1050200028E44AEF0FC020E030E846EC54EA6EE78F
:105030007DE883E090E00E94FC37E22FF42F07E048
:1050400028E44CEF6E2F732F8F2F952F0E940D0C9D
:105050008AE70E94D70A549810926E0080ED97E07C
:105060000E94B00F2981820F49F480911C01833086
:1050700028F43A8131503A8331113ECE2596E2E14F
:105080000C947D381F920F920FB60F9211248F93BC
:105090009F93AF93BF9378948091100190911101E9
:1050A000A0911201B09113019F5FAF4FBF4F80934A
:1050B000100190931101A0931201B0931301BF91BD
:1050C000AF919F918F910F900FBE0F901F901895E9
:1050D0001F920F920FB60F9211248F9386E085BD19
:1050E0008F910F900FBE0F901F9018951F920F92E7
:1050F0000FB60F921124A8951092810015BC0F9045
:105100000FBE0F901F9018951F920F920FB60F921F
:1051100011242F933F938F939F93809187019091B8
:105120008801892B11F481E085BD209187013091A0
:10513000880180918501909186012817390730F008
:1051400015BC80916D008F7E80936D0080918701EA
:1051500090918801019690938801809387019F9197
:105160008F913F912F910F900FBE0F901F90189528
:105170008A3008F08A50811103C08BEB90E12CC07B
:10518000813019F481EB90E127C0823019F488E86E
:1051900090E122C0833019F48DE790E11DC0843086
:1051A00019F483E49EE018C0853019F48EE690E18E
:1051B00013C0863019F48FE590E10EC0873019F4E2
:1051C00088E490E109C0883019F48FE990E104C0C7
:1051D000893021F484E990E10E94390B08950F93FE
:1051E000CF9383E49EE00E94E82CCAEF1092230143
:1051F00060E082E00E94042D80912301873009F055
:1052000042C00E945E090E94250B0E945E0983E451
:105210000E94D70A8DE30E94D70A60919401709191
:105220009501809196019091970103E026E44091C9
:10523000A3010E940D0C6091A0018091A1010E9428
:10524000E52390939D0180939C010E9463090E9435
:10525000250B0E94630989EF9FE00E94390B609142
:105260009C0170919D016A3F8FEF780740F480E0C8
:1052700090E002E024E04EEF0E940D0C0AC08FE3A4
:105280000E94D70A06C00E94990983E49EE00E940A
:10529000390B88EE93E00E94B00F811107C0809116
:1052A0001C01843018F4C15009F0A0CFCF910F91A8
:1052B000089508950F93843108F08451833189F45F
:1052C00089E08093810081E090E090938900809351
:1052D000880007E028E44DEF60E074E985E397E794
:1052E00048C1823189F489E08093810083E090E0B5
:1052F000909389008093880007E028E44DEF60E0F8
:105300007AEC8AE99BE335C1813169F489E08093C5
:10531000810087E090E0909389008093880007E007
:1053200028E44DEF6CC0803169F489E080938100FE
:105330008FE090E0909389008093880007E028E454
:105340004DEF6FC08F3089F489E08093810089E14F
:1053500090E0909389008093880007E028E44DEF67
:105360006AE871E88BE299E004C18E3069F489E063
:105370008093810087E290E0909389008093880079
:1053800007E028E44DEF60C08D3069F489E0809338
:1053900081008FE490E0909389008093880007E07B
:1053A00028E44CEF2CC08C3069F489E080938100B4
:1053B0008FE990E0909389008093880007E028E4CB
:1053C0004CEF2FC08B3069F489E0809381008FE827
:1053D00091E0909389008093880007E028E44CEFE7
:1053E00033C08A3089F489E0809381008FE193E0B3
:1053F000909389008093880007E028E44BEF60E0F9
:1054000075E68DEC9DE1B5C0893081F48093810013
:105410008FE396E0909389008093880007E028E46A
:105420004BEF60E872EB86EE9EE0A3C0883089F413
:1054300089E0809381008FE99FE0909389008093B9
:10544000880007E028E44BEF60E071EE85EF95E01F
:1054500090C0873089F489E08093810084E493E2EE
:10546000909389008093880007E028E44BEF6FE772
:105470007DEF83EA92E07DC0863089F489E08093F5
:10548000810089E593E2909389008093880007E08A
:1054900028E44BEF6FEE7BE682EA92E06AC085304B
:1054A00089F489E08093810082E893E290938900F7
:1054B0008093880007E028E44BEF68E471E68FE909
:1054C00092E057C0843089F489E0809381008FE7AF
:1054D0009EE3909389008093880007E028E44BEFD7
:1054E00060E478E78DE791E044C0833069F48BE0B5
:1054F0008093810080E792E09093890080938800F8
:1055000007E028E44AEFA0CF823071F481EE94E006
:10551000909389008093880007E028E44AEF60E8D0
:1055200070EF8AEF92E025C0813089F48BE08093A0
:10553000810089E698E1909389008093880007E0D4
:1055400028E44AEF60E876E988E990E012C081112A
:1055500012C08CE08093810088E09DE390938900E5
:105560008093880007E028E44AEF60E472E48FE06B
:1055700090E00E940D0C8AE70E94D70A0F910895CF
:10558000A0E0B0E0E6ECFAE20C946C3888E890E138
:105590000E94E82C80E18093800010926F0081E0EF
:1055A00090E0909389008093880010928B00109275
:1055B0008A0083E086BB1092820088E0809381009D
:1055C00015B891E194B988B989E087B9229A809396
:1055D000810000E020E0D12C12E1CEE1D0E0802F6C
:1055E00090E00A96BE010E94AD37F62E621791F048
:1055F0000E945E090E94250B0E945E0988E890E1E6
:105600000E94390BE12CEF1430F48EE20E94D70A8D
:10561000E394F9CFF22ED11641F1143108F0145170
:105620000E9463090E94250B0E9463090E94210BBE
:1056300083E1810F0E945A290E946F090E94250B65
:105640000E946F090E94210B81E0810F0E945A295C
:105650000E9469090E94250B0E9469098EE30E943D
:10566000D70A812F0E945A29D12E88EE93E00E94FA
:10567000B00F90911C01811102C0992319F000E034
:105680009B3078F490911B0197FD9C5E190F85313A
:1056900018F01F5F803528F40F5F003F10F42F2DA6
:1056A0009ECF109281001092800088E087B914B8D4
:1056B0002298CDB7DEB7E7E00C948838A4E0B0E0DC
:1056C000E4E6FBE20C9465388DE790E10E94E82C5B
:1056D00083E28093800010926F0081E090E09093CD
:1056E0008900809388008FEF90E090938B008093E7
:1056F0008A0083E086BB1092820015B881E184B9EC
:1057000088E088B989E087B9229A8093810010E007
:1057100000E08AE0782E612C94E6C92ED12CE12C91
:10572000F12C88248A9423E0922EA12CB12C70169F
:1057300009F43FC083E6871510F4ECE97E0E272DAF
:1057400030E0AFEFB3E00E9468376E5C7F4F8F4F61
:105750009F4FA70196010E94C13730938B00209381
:105760008A0029833A834B835C830E9463090E94E9
:10577000250B0E946309A8EEB3E029813A814B8191
:105780005C810E947E3761507E4F8F4F9F4FA501F5
:1057900094010E94C137CA01B90105E025E24FEF2B
:1057A0000E940D0CF8E2F61518F48CE30E94D40E5A
:1057B000072D80E496E00E94B00F682E82E88615DF
:1057C000B8F090911C019B3098F480911B0187FDEB
:1057D0008C59780EE2E3E61518F4FAE07F0E03C068
:1057E000662091F0739410E01F5F103F08F49FCF84
:1057F00088E087B9109281001092800014B8229836
:105800002496EEE00C9481389111EDCFEDCF0F93FB
:10581000CF93DF9388E490E10E94E82C80E090E051
:105820000E94FB38C82FD0E081E80E9485098C2FA8
:105830000E9485090E9463090E94250B0E9463094A
:105840008C2F90E0A0E0B0E004E020E240E0BC015A
:10585000CD010E940D0C80E496E00E94B00F8111F2
:1058600005C090911C01911103C003C08238B0F4AF
:10587000D0E090911C019B3088F490911B0197FD22
:10588000905C9C0F882329F0893210F09F5F01C043
:10589000915CC92FCF73DF5FD03F30F26C2F80E077
:1058A00090E00E940939DF91CF910F910895CF9335
:1058B000DF93D0E0C0E086EC90E10E94E82C0E94EB
:1058C00063090E94250B0E9463090E94210B89E055
:1058D0008C0F0E94B8280E9469090E94250B0E9423
:1058E00069098EE30E94D70A8C2F0E94B8280E9473
:1058F0006F090E94250B0E946F090E94210B81E015
:105900008C0F0E94B82888E893E10E94B00F88238A
:1059100019F0D0E0823330F490918C019923D9F1C1
:105920008823C9F1CC2309F450C0C13021F480E0B0
:105930000E9470262BC0C23019F40E94C02A26C0D3
:10594000C33019F40E945E2B21C0C43019F40E94A8
:10595000EF281CC0C53019F40E942E2E17C0C63087
:1059600021F481E10E94F41011C0C73019F40E94A3
:10597000072C0CC0C83019F40E94862F07C0C9300C
:1059800029F45E9880E090E00E94B00F10921C0114
:1059900010921B0180E090911C019A30B0F490911C
:1059A0001B01992319F097FD03C0D0E0C90F03C074
:1059B000965FC90FD0E08111CF5FDF5FD43628F446
:1059C000CA3008F478CFCA5076CFDF91CF910895CE
:1059D000A2E0B0E0EEEEFCE20C94703889839A838A
:1059E0000E94990989819A810E94390B14E682E00C
:1059F0000E94D40E4F9902C01150C9F70E9463094A
:105A00002296E3E00C948C38A0E0B0E0EAE0FDE2FE
:105A10000C946838C82FD62F8FEF860F9C2F990FC4
:105A20009C0F890F80937401E62FF0E0E650F24F4F
:105A300014911860EC2FF0E0E050F24FB490109207
:105A40009D0110929C011092900110929101109270
:105A500092011092930187EF8093A2010E94E21CB1
:105A600088E088B915B817B914B88C2F0E940A0FAE
:105A70008C0110927601109275019C019CE2E92E36
:105A8000FF24F3944AE0A42E54E6952E80917501EC
:105A900090917601843D904308F06FC0B5B8809135
:105AA000750190917601892B89F06701C21AD30A9A
:105AB0006091750170917601A29EC001A39E900D28
:105AC00011240E949937C616D70650F4B4B80E9424
:105AD000C70E14B88091750190917601019628C087
