:1000000034C6000044C6000042C6000040C60000DE
:100010003EC600000C9420283AC600000C948F0DB8
:1000200036C6000034C600000C944D1E0C94042803
:100030000C9412280C94271E2AC6000028C6000023
:100040000C94DE2724C6000022C6000020C6000053
:100050001EC600000C94900D1AC6000018C60000C1
:1000600016C6000014C6000018081A081E08280842
:1000700026082208220824082E082E08C200BB00E9
:10008000B4001008407E01013E01013E01013E0125
:10009000017E404018000720080808F800000020F2
:1000A00060A03FA06020020202FF020202101010B6
:1000B0001F000000050842818989760508C2A191C8
:1000C00089860508000402FF0010100508F878383A
:1000D0005888091003081C3E7F0D080710FF818116
:1000E00081F1E1C1FF4040404743410D080110FF4D
:1000F000FF11080310F1E1C14743410E0008202120
:1001000021122060E0E0E0FEFE0402010001037F16
:100110007F21C2C4C4C04094840007030102040EBE
:10012000080210FEFE7F7F00000000110005202065
:1001300060E0E0E00201000103C2C4C4C040070364
:10014000010204010410090A0C4E6F742063616CF3
:10015000696272617465642120466F72FF63616C2D
:100160006962726174696F6E20636C616D70207476
:1001700068652033FF70696E7320746F67657468FB
:10018000657220616E642073746172742077697483
:100190006820746865FF6B65792E2041636B6E6F14
:1001A000776C65646765207468652073656C662D7F
:1001B00074657374207769746820746865206B6552
:1001C000792077697468696EFF32732E20446973F1
:1001D000636F6E6E6563742070696E732061667400
:1001E000657220746865FF6D6573736167652022B1
:1001F00069736F6C617465FF50726F6265212220B4
:1002000069732073686F776E2E20536F6674776101
:10021000726520616E6420646F63756D656E7461D4
:1002200074696F6E2069732061742073766E3A2F43
:100230002F206D696B726F636F6E74726F6C6C657B
:10024000722E206E65742F7472616E736973746F91
:1002500072207465737465722000B90387035803B4
:100260002E030703E402C302A40288020000140064
:1002700029003E005300690080009700AE00C600D0
:10028000DF00F80012012D01490165018201A00182
:10029000BE01DE01FF012102440268028E02B502A6
:1002A000DE020903350364039403C803FE03370425
:1002B0007304B404F90443059305EA054906B3063B
:1002C0002907AE074808FF08DE090000000000000B
:1002D000000000000000000000001E21212112008B
:1002E000807F0000007E4A4A4A340000000000007F
:1002F000FC4020100804020100000001010101017E
:1003000001010101010101017F0488D0E0F0F80042
:1003100000000000000000000000000000000000DD
:1003200000FC94948400000102FC00000000000026
:100330000000000000001E21212112E0C0804020AA
:10034000100F000000C020202040000000FC000032
:100350009E9E0403030303020000002020232425A3
:1003600025232020203F00007B7B2142840480C085
:100370000000000000000000000000000000FC94ED
:10038000948400040607070708F00000000000003E
:1003900000000000000000803F2121120C0000003E
:1003A00000FF000000F0084848C80000FE0000E719
:1003B000818181C1E1F18181810100202020212101
:1003C000212020203F0000F340404041434740406F
:1003D0007FC00000000000000000000000000000DE
:1003E000489494946400000000FF000000000000A6
:1003F000000000000000000000003F2121120C005E
:1004000000FF000000F0084848D000000000000095
:10041000FEFE040404040404040700080808090993
:100420000908087F3E1C08087F7F2020202020200C
:1004300020E00000000000000000000000000000BC
:10044000000048949494640000FF00000000000045
:100450000000000000FF003C0A090A3C002231298C
:100460002926000082868E9EBEFEFEBEDEEFF6FAD4
:10047000FEFEFAF2E2C282000000080808040279D7
:1004800084A4A46800FF0000000000000000000039
:1004900000000000000000000000000000FF00005D
:1004A000F0282428F0001008FC00000000000000E4
:1004B00000000000003C0A090A3C00FF00000000A8
:1004C0000000000000000000000000000000040C1C
:1004D0001C3C7CFF7C3C1C0C040000000000009EC7
:1004E000A1A9A99A804323130B0703FF0303030366
:1004F0000303000000000000000000000078848476
:10050000844800FF000000000000000000F0080424
:10051000E2110909090909090909091121C2040897
:1005200010E0000000010204040700000000008049
:10053000402010884423100804030000000000003D
:100540000000000000FE0100FC02010000000000AD
:100550000000000000000000000000000079494990
:100560007900000000000000000040F0101010F0C2
:10057000400001010101010040F8F0E040F84000B6
:1005800003010000030040F840E0F0F840000300E1
:100590000001030040FCFC00FCFC400007070007D2
:1005A0000700E0101010E00000040700070400003E
:1005B00000F80000F000000E01020103020008082C
:1005C000080808F8400202020202030040F8080886
:1005D0000808080003020202020240404040404076
:1005E00040000000000000004040C000008000000B
:1005F00000010202010200800000C040400201022E
:100600000201000000FC021212EC000E03000101C6
:1006100000000000000000000000000000000000DA
:1006200000000000000000000000000000000000CA
:1006300000000000000000000000000000000000BA
:100640000000000000000000000000F80402FE02AC
:10065000000C070404070C00FE000000FE00000769
:10066000040404070C00FE00FE00FE00000704075F
:1006700004070C0000E01008F808000C0704040749
:100680000C00E014FC14E00000010A0F0A01000055
:10069000F8000000F8000007040404070C00F8004C
:1006A000F800F8000007040704070C000000000031
:1006B000000000000000000000000000000000003A
:1006C000000000000000000000000000000000002A
:1006D000000000000000000000000000000000001A
:1006E000000000000000000000000000000000000A
:1006F00000000000000000000000000000000000FA
:1007000000000000000000000000000000000000E9
:1007100000000000000000000000000000000000D9
:1007200000000000000000000000000000000000C9
:10073000000000000000000000003CFE3C00000043
:1007400000001B00000000160E00160E0000000046
:100750000000000008FE0808FE080001070101076C
:10076000010038FE4484FE0800041F08081F07002B
:100770001C149C402018000601000E0A0E0088542C
:10078000225488C000030404020106000000160E73
:1007900000000000000000000000F0080402020059
:1007A00000030408101000000002020408F000001A
:1007B0001010080403004850E0E050480002010017
:1007C00000010200004040F0404000000000010035
:1007D0000000000000000000000000160E000000F5
:1007E0004040404040400000000000000000000089
:1007F000000000000000000606000000000080402D
:1008000020100002010000000000F804020204F8B9
:100810000001020404020100000804FE02000000BE
:10082000000407040000080482422418000605049E
:1008300004040600060212122AC600010204040281
:100840000100E0988680F8800000000004070400A2
:100850003E22121222C60001020404020100F82402
:10086000121222C000010204040201000602C26248
:10087000321E000000070000000088542222548825
:1008800000010204040201003844828244F800009E
:1008900004040402010000003030000000000006E3
:1008A000060000000000303000000000000A0600D2
:1008B00000000040A0100804000000000102040035
:1008C000202020202020000101010101010000045E
:1008D0000810A04000000402010000001804824239
:1008E00024180000000D00000000F804629294F843
:1008F000000102040404020000F8848284F800006D
:1009000007000000070002FE222222DC0004070488
:1009100004040300F8040202040E000102040404AB
:10092000030002FE020204F80004070404020100AE
:1009300002FE22720206000407040404060002FEFE
:10094000227202060004070400000000F80402827C
:10095000848E000102040402070000FE202020FE15
:100960000000070000000700000002FE0200000077
:1009700000040704000000000002FE020000020460
:100980000403000002FE22F09C0600040704000796
:10099000040002FE02000000000407040404060034
:1009A00000FE1C701CFE0000070000000700FE1C7B
:1009B00070C0FE000007000001070000F8040202FA
:1009C00004F8000102040402010002FE4242423C1B
:1009D0000004070400000000F804020204F800010B
:1009E00002040502050002FE42C2423C0004070068
:1009F000000704000C122222448E000102040402AB
:100A00000100000E02FE020E0000000407040000B8
:100A100000FE000000FE0000030404040300007E4A
:100A2000C000C07E000000010701000000FE80F849
:100A300080FE00000107010701008ED87070D88E7B
:100A400000070000000007003E60C0603E0000009C
:100A500004070400000006824222120E000704046C
:100A60000404060000FE0202020000000F0808084D
:100A7000000008102040800000000000000001027B
:100A800000020202FE0000000808080F0000000833
:100A90000402040800000000000000000000000044
:100AA0000000000808080808080800000E160000EA
:100AB0000000000000000000C0282848F0000003EB
:100AC00004040403040002FE120808F000040704F2
:100AD00004040300E01008081038000102040404B4
:100AE0000200F0080810FE020003040404070400DA
:100AF000E090888890E000010204040400000010E7
:100B0000FC1212040000040704000000F0080808AA
:100B1000F00800010A0A0907000002FE100808F0A8
:100B20000004070400000700000016F600000000A3
:100B300000040704000000000016F600000004088E
:100B40000807000002FE40F09808000407040007B0
:100B50000400000002FE0000000000040704000082
:100B600008F808F008F0000407000700070008F87C
:100B7000100808F00004070000000700E010080853
:100B800010E0000102040402010008F0080808F067
:100B900000080F0902020100F0080808F00800012F
:100BA0000202090F080008F82010083000040704AA
:100BB0000000000030484848903800020404040453
:100BC00003000010FE1010000000000304040200E7
:100BD000F8000000F808000304040207040078C0CD
:100BE00000C078000000010701000000F880F080DC
:100BF000F800000107010701000018B0C0C0B018DC
:100C0000000603000003060008F80000F8080000D2
:100C1000090A0A0700001808884828180006050471
:100C2000040406000040A01C0202000000000708A7
:100C300008000000003E0000000000001F0000004F
:100C40000002021CA0400000080807000000040683
:100C50000206040600000000000000000000000082
:100C60000000000000000000000011241FBECFEFB4
:100C7000D8E0DEBFCDBF11E0A0E0B1E001C01D9221
:100C8000AE3BB107E1F70E94AD330C94983BB8C975
:100C90005D98559A80FD599A80FF5998519A539AB8
:100CA0005A9867FD5B9A67FF5B985A9A5A9866FD57
:100CB0005B9A66FF5B985A9A5A9865FD5B9A65FF46
:100CC0005B985A9A5A9864FD5B9A64FF5B985A9AAB
:100CD0005A9863FD5B9A63FF5B985A9A5A9862FD33
:100CE0005B9A62FF5B985A9A5A9861FD5B9A61FF22
:100CF0005B985A9A5A9860FD5B9A60FF5B985A9A83
:100D00005D9A5A985B98089560933F01809304011F
:100D100086958093A50187E0689F602D11246093DC
:100D20000F01089580913F01809301018091A501F9
:100D30008093030108958091030160910101880F60
:100D4000E3CFCF93C82F692F81E0A2DF6C2F81E022
:100D50009FDFCF910895682F80E09ACF8EEAFBDF66
:100D600085EAF9CF8DE036D58AE034C5FBDF1092F5
:100D7000A50160E080E0C8CFCF93DF93C0E080E1C1
:100D8000EADF80E0E8DF8C2F806BE5DFD4E860E00D
:100D900081E07EDFD150D9F7CF5FC83081F7E6DF41
:100DA000DF91CF91089558985A985B985D98509A22
:100DB000529A539A559A3FD55D9A559A5998519A95
:100DC00084E140D5589A84E13DD58EEAC4DF82EEB5
:100DD000C2DF82EAC0DF80EABEDF80ECBCDF8FE2E8
:100DE000BADF84E2B8DF81E8B6DF89E293E00E94EF
:100DF0005A3B8F73B0DF80E4AEDF84EAACDF86EA73
:100E0000AADFBADF8FEAA7DF60E080E07DCFAADF4C
:100E100060E082E079CFA6DF60E084E075CFA2DFFA
:100E200060E086E071CF0895582F28E030E090E828
:100E300041E080E0642F652309F0892B440F9695EB
:100E40002150310921153105A9F70895A0E0B0E03E
:100E5000ECE2F7E00C94C53AEC01C02ED12CC601AF
:100E6000860F911D813891050CF06CC0F12CE40EB9
:100E7000F11C81E4E816F1040CF064C0142F1695FF
:100E80001695169581E0E81AF10833E0F594E79499
:100E90003A95E1F7822F8270582E21FF0DC0F7019D
:100EA000FF27E11BF109EC9DC001ED9D900DFC9D1C
:100EB000900D1124C80FD91F87E08E1510F497E00C
:100EC000E92E6E5FF62EF2948FE0F8228F2D80616E
:100ED000F82E6F70462E2170322E460181E0881A5E
:100EE0009108E11650F1812F806B35DF8F2D33DFB4
:100EF000842D31DFA12CB12C3E01680C791CA01689
:100F000098F4332021F0F301EA19FB0903C0FE0134
:100F1000EA0DFB1D8491511087DF682F81E0B8DE58
:100F20008FEFA81AB80AEBCF552019F0CC19DD09BC
:100F300002C0CC0DDD1D1F5FD4CF809104018F70E6
:100F4000806B09DFCDB7DEB7E1E10C94E13AEF92B7
:100F50000F93282F8F7030E6839FC0011124865392
:100F60009D4F322F307324FF02C028E001C028E4D7
:100F700020931001303218F01092000108C020E2D6
:100F800020930001209110012D5E2093100140E27A
:100F9000E42E08E120E0409100016091100156DF4D
:100FA0000F91EF900895EF920F93262FFC0164911B
:100FB00031964491FC0132960491FC013396E49001
:100FC00050910001450F50911001650F04963EDFCE
:100FD0000F91EF90089560E0E6CFEF920F93CF93DB
:100FE000C82F80913F018F5F80933F0140910401A2
:100FF000440F440F440F2EE0C29FC001112450E162
:10100000E52E07E020E060910F0186599A4F1EDF20
:1010100080910F01895F80930F014C2F50E0FA01FE
:101020003197EA30F105E0F4EC5CFF4F0C94FB3AA9
:101030008EE305C08CE7CED38CE313C08CE7CAD314
:101040008CE70FC082E50DC08DE20BC085E709C0BB
:101050008FE4C0D388E6BED38DE603C08CE401C024
:101060008C2FB8D3CF910F91EF9008958F5CB5CFAF
:1010700080E2B3CFA1E0B0E0E0E4F8E00C94D43A31
:1010800018162CF48983F4DF89818150F9CF2196D9
:10109000E2E00C94F03A90913F0182E1891BEACFA3
:1010A000A1E0B0E0E6E5F8E00C94D43A8983F3DF00
:1010B00059DE9091A5019F5F9093A50169819430BD
:1010C00038F083E08093A50181E08093420102C063
:1010D000109242018091A501880F16DE2196E2E070
:1010E0000C94F03ADDDF81C441DED5DF3FCE8FDEE8
:1010F000D2DF8DCE8DE371CFCF93DF93EC01899159
:10110000882311F06ADFFBCFDF91CF910895CF9351
:10111000DF93EC01FE018491982F9F7719F05DDF3A
:101120002196F8CFDF91CF910895CF93DF93EC0113
:10113000CE010E945A3B982F9F7719F04EDF2196DF
:10114000F7CFDF91CF910895EF920F93FC010491B7
:101150003196E49002967ADE0F91EF9008950F9306
:101160008BE891E0E2DF409189014D3F64F46091AA
:101170007701709178018091790190917A0103E073
:1011800026E4E6D002C08FE328DF0F91089597FF91
:1011900009C08F939F938DE220DF9F918F9190954F
:1011A00081959F4F65E271E04AE050E00E94463B26
:1011B000A3CFEDDF01C0EBDF5BCFEF92FF920F9388
:1011C0001F93182F062FF42E8DE691E0AEDFEE244C
:1011D000E0914001F09141018685E81611F4812FDC
:1011E00009C08485E81611F4802F04C08585E816AF
:1011F00011F48F2DF2DEE3948E2D833049F71F9189
:101200000F91FF90EF900895EF92FF920F931F932D
:10121000182F062FF42E80E065DF83E791E085DF4D
:10122000EE248E2D23DF66DFE0914001F091410135
:101230008685E81611F4812F09C08485E81611F41B
:10124000802F04C08585E81611F48F2DC6DE10DFCF
:10125000E3948E2D833029F71F910F91FF90EF902B
:101260000895682F80E092E0662309F491E06230EF
:1012700009F481E008950F93082FE6EAF1E0880F62
:10128000880FE80FF11D608171818281938164363E
:1012900071058105910570F42091020127FD0AC0B6
:1012A000802FDFDF692F0E94AF236EEF23E044E041
:1012B0003ED104C04FEF04E024E04AD0D9DE0F91C4
:1012C0000895863058F4E9E9F1E0E80FF11DE80FE0
:1012D000F11D8081918163E035D1CACE08951F93BD
:1012E000182F80917301882319F0C2DE80E075DE2B
:1012F0008EDD84E691E019DF812F82958F70E1DF2A
:10130000812F8F70DEDF1F910895CF93DF9380913F
:10131000110182958F70CDE8D1E0C80FD11D888171
:10132000A5DE82E391E001DF8E81A0DE82E391E021
:10133000FCDECDE8D1E0809111018370C80FD11D92
:101340008E8194DE80911101CADFDF91CF910895E3
:10135000AEE0B0E0EEEAF9E00C94C43A342E222E6E
:101360006B017C01102F1F7080E389838A838B833C
:101370008C838D838E83F7FE0BC08DE22EDEF0947E
:10138000E094D094C094C11CD11CE11CF11C04C099
:1013900005FF02C08BE221DE133009F4B6C0143021
:1013A00009F4BAC0153051F0163081F01730B1F0A1
:1013B00074E6872E912CA12CB12C17C060EA862EE2
:1013C00066E8962EAA24A394B12C0FC050E4852E73
:1013D00052E4952E5FE0A52EB12C07C040E8842E84
:1013E00046E9942E48E9A42EB12C3AE0432E512C24
:1013F000612C712CC814D904EA04FB0470F0C701F5
:10140000B6016B5F7F4F8F4F9F4FA30192010E94E8
:10141000283A69017A013394EDCF81E1830D9BEA8B
:10142000899F812C1124869486E08319899F912CB1
:1014300011249694992D990F990D982E991A5E0161
:1014400087E0A80EB11C2AE030E0A501C701B60173
:101450000E94233BF50101900020E9F7CF0101979D
:101460007C01EA18FB08AE2C6701DD24892D90E091
:1014700004968C159D051CF4839493E0990E882D99
:1014800090E0895D9F4F0E945A3BB82E04FF04C034
:10149000A11610F41E1901C010E0AE2CA918A10E5F
:1014A0001A1424F08EE299DD192D1E19911002C034
:1014B00028EFA22E912C012F10E0C00ED11EEA2C95
:1014C000FF24E7FCF094E92DF0E0EC15FD05A4F411
:1014D0003696E01BF10B81E090E08C0F9D1FE80F2A
:1014E000F91F80817ADD9394892D90E08E159F05F8
:1014F00051F78EE272DDE7CFBB2011F08B2D6DDD51
:10150000222089F0822D69DD0EC098EE892E93E0AD
:10151000992EA12CB12C69CF80E1882E87E2982EDC
:10152000A12CB12C62CF2E96E2E10C94E03A0F93FD
:10153000362FBC0180E090E0022F242F432F08DFDC
:101540000F9108950F93062FBC0180E090E026E5EF
:101550004DEFFEDE0F9108950F93042F28E440E035
:10156000F7DE8AE73ADD84DD0F910895E82FF0E099
:10157000EE0FFF1FE458FF4F8591949120910001D9
:10158000420F20911001620F20E0DECDCF93DF9358
:10159000C82FD62FE0914001F091410148E16EE162
:1015A0008685E4DFE0914001F09141014D2F6C2FE1
:1015B0008485DCDFE0914001F091410140E06EE183
:1015C0008585D4DFDF91CF9108951F93CF93DF936B
:1015D000D3DB80E3BCDC62E084E990E0E4DC80E221
:1015E000B6DC89EC90E0F7DC60E085E08DDB80E83C
:1015F00091E09BDD69E085E087DB88E791E095DDA0
:1016000088E99AE3B5D1B8DB83E1A1DC83E09FDC14
:1016100082ED90E0E0DC61E082E076DB8EE4DDDC10
:101620008DE2DBDC8AE991E080DD6AE082E06CDB60
:1016300080E5D3DC8DE2D1DC8AE991E076DD88E9D2
:101640009AE396D199DB81E382DC81E280DC8BE254
:1016500091E0C1DC60E085E057DB8EE4BEDC8DE22A
:10166000BCDC85E4BADC84E991E05FDD69E086E01A
:101670004BDB80E5B2DC8DE2B0DC85E4AEDC84E9F6
:1016800091E053DD88E99AE373D176DB81E15FDC99
:101690008FE191E0A0DC81E05ADC8BEF90E09BDCF5
:1016A00060E081E031DB8EE498DC8DE296DC84E45E
:1016B00094DC84E991E039DD69E082E025DB80E5B6
:1016C0008CDC8DE28ADC84E488DC84E991E02DDD29
:1016D00088E99AE34DD150DB82E339DC82E237DCE2
:1016E00081EF90E078DC60E085E00EDB8EE475DC75
:1016F0008DE273DC85E471DC8FE991E016DD69E051
:1017000086E002DB80E569DC8DE267DC85E465DC90
:101710008FE991E00ADD88E99AE32AD12DDB82E1A5
:1017200016DC8BEE90E057DC82E011DC89ED90E076
:1017300052DC61E081E0E8DA8EE44FDC8DE24DDCE2
:1017400084E44BDC8FE991E0F0DC6AE082E0DCDAF3
:1017500080E543DC8DE241DC84E43FDC8FE991E00D
:10176000E4DC88E99AE304D107DB00DB83E191E064
:10177000DCDC4DDB8EE091E0D8DC4DDB86E591E0F2
:10178000D4DC4DDB82E391E0D0DC72DC8EE291E0D0
:10179000CCDCC0E012E18C2F612F0E94F539911151
:1017A0000BC0D82FD37021F488E99AE3E1D0E4DAB2
:1017B00060E08D2F880FA8DA80E28C0F0EDCCF5FFF
:1017C000CF3549F788E99AE3D3D0D6DADF91CF91C4
:1017D0001F9108958F932F932AE080953B9A089448
:1017E00010F4439802C0439A000020D027D0869579
:1017F0002A95B1F72F918F91089503D002D001D08F
:1018000000D000D003D002D001D000D000D003D04F
:1018100002D001D000D000D0A89503D002D001D0D2
:1018200000D000D003D002D001D000D000D003D02F
:1018300002D001D000D000D003D002D001D000D01F
:101840000000089590E0893C28F0885C48EC849F73
:10185000C0011124009709F4089520918100277098
:1018600019F0DADF0197F6CF8130910519F0029770
:101870003EE303C037E180E090E02091B200230F07
:101880002093B30042E04093700027E023BF889587
:1018900026E023BF10927000A895DCCF8F9384E0E0
:1018A000D1DF07C08F9382E0CDDF03C08F9381E04B
:1018B000C9DF8F911F93182F106410937C00E12FC4
:1018C000E07880913001E81759F0E0933001AEDF05
:1018D0008EE980937A0083E083BF889582E083BF9E
:1018E00020E030E0A901E0E01FC08EE980937A009B
:1018F00083E083BF889582E083BF60917800709118
:101900007900260F371F411D511DE43061F480918D
:101910003201803041F084E02030380720F417FD98
:1019200002C01068CACFEF5F80912F01E817E8F27C
:10193000609133017091340117FF04C0609131014F
:101940007091320180E090E00E94E6392FEF33E0A1
:1019500040E050E00E94283AB901CA0120912F01CD
:1019600030E040E050E00E94283AC9011F910895FC
:10197000EF92FF920F931F93CF93DF93F82EE92EF0
:10198000C5E64F9B05C0CF2DDE2D05E510E019C043
:1019900081E058DFC150A9F7F6CF82E053DF000F96
:1019A0004F9B0F5F0F730F3379F4111103C0CF2DCD
:1019B000DE2D14E01F5F163990F4A8951C161D0645
:1019C00044F0D7FFEACF0BC00111F7CF1123A9F3E1
:1019D00006C02A972097A9F7CFEFDFEFF2CF812F2C
:1019E000CDB7DEB7E6E00C94EC3ACF939BD9C82F85
:1019F000809142018823D1F0813051F4C33041F409
:101A000061E186E081D98BE2E8DA61E186E07CD9A8
:101A100080E49FE1ADDFC33041F480914201813029
:101A200021F460E086E070D936DB85D9CF91089546
:101A300082E593E00E945A3B382F83E593E00E94B1
:101A40005A3B20913701230F30913801381F2093E2
:101A50001A0130931B0183E0283E380720F0C901AA
:101A6000885E934002C080E090E062E370E00E94F4
:101A7000013A683008F067E0EAE5F2E0E60FF11DB0
:101A8000E60FF11D459155912591359162E3681B53
:101A9000421B530B649FC001659F900D1124499612
:101AA00062E370E00E94013A620F731F7093760147
:101AB0006093750184E593E00E945A3B992787FD66
:101AC00090956091370170913801860F971F909320
:101AD00032018093310190937201809371010895D6
:101AE000CF93DF9324E130E0B9010E94013ADC0199
:101AF000ECE6F2E0E60FF71FE60FF71FC591D59170
:101B0000459155914C1B4A9FC0011124B9010E9477
:101B1000013A6C0F7D1FCB01DF91CF91089518958D
:101B2000189510921E0110921C0110926C011092D7
:101B3000520110921D0110923E01109273011092F9
:101B4000570110925801109259011092870182E0BA
:101B500080938801109202011092860110928501F3
:101B600010927B0110927C0110927D0110927E01F7
:101B700081EF80938A010895F1D85E9880E090E02B
:101B8000F7CEA1E0B0E0E7ECFDE00C94D23A98E0AB
:101B900097B998B9E82FF0E0ED5BFE4F949195B9B5
:101BA000262F281BE20FF11D27FDFA95E491E92B62
:101BB000E4B969837FDE8C016981862F7BDE209109
:101BC00033013091340136952795A90143505109CD
:101BD000B801625E7F4F4617570778F4255E3F4F86
:101BE0000217130750F4BC01625E7F4F4617570778
:101BF00020F441E08217930708F040E014B8842FE6
:101C00002196E4E00C94EE3ACF9361E080E0B9DFF6
:101C1000C82F62E080E0B5DFC80F62E081E0B1DF8D
:101C20008C0FCF910895A3E1B0E0E9E1FEE00C94C0
:101C3000C43AB82E10921E01807FA9F4E5DF8330EC
:101C400009F0BCC399D88DE592E06FDAE0D88FE354
:101C5000C4D980ED97E08CDE8B30C0F48DD880E065
:101C600091E063DAABC306E910E086D882EC91E03C
:101C70005CDACADF833021F41F5F143010F006C035
:101C800010E088E2DFDD015081F763C0C0D80E9418
:101C9000AE1E8CEB90E049DA60E08CE293E00E94AB
:101CA000673B60E08DE293E00E94673B60E08BE27F
:101CB00093E00E94673B60E082E00E94AF236C01EA
:101CC0009A83898361E082E00E94AF237C019C8338
:101CD0008B8360E081E00E94AF238C019E838D8323
:101CE00023E040E26EEFC60122DC23E040E26EEF2B
:101CF000C7011DDC23E044E06EEFC80118DC2AE5D3
:101D0000C216D10424F024E130E03A8329836981AA
:101D10008CE293E00E94673B8AE5E816F10424F028
:101D200024E130E03C832B836B818DE293E00E94C1
:101D3000673B0A35110524F024E130E03E832D8312
:101D40006D818BE293E00E94673B82E080934201C9
:101D50004CDE9B2D9F709F87913009F04DC001E0B4
:101D600010E058EB252E52ED352E57E4452E512C20
:101D700062E0962E78E0A72EECE06E2EF4ECCF2EEB
:101D8000F6E3DF2EE12CF12C39C0839423E02815F3
:101D900058F1ADD9A9D984E520D9C80103DA68D9A9
:101DA000E1E0BE1230C08FEE90E0BFD964E08091D8
:101DB000370190913801C6DB2AD88AEE90E0B5D978
:101DC0008091750190917601EDD98EEB80932F0172
:101DD000A7B8A8B814B815B888EE93E0C9DDF4E048
:101DE000BF1699F28B3088F288EE93E0C1DD0F5F69
:101DF0001F4F0830110511F418E71CC1812CB02EBB
:101E0000B0E27B2EC6CFF2E0BF1241C02091330179
:101E100030913401A8E5BBE10E94C139A7019601C8
:101E20000E944A3A81E085B985E084B980E0288B38
:101E3000398B4A8B5B8B32DD288939894A895B89EA
:101E4000821B930B9A83898381E184B980E0288B7C
:101E5000398B4A8B5B8B22DD288939894A895B89DA
:101E6000821B930B9C838B8384E085B984E184B9C6
:101E700081E0288B398B4A8B5B8B10DD288939896F
:101E8000821B930B9E838D8384ED90E0B7C093E01B
:101E9000B91229C095B8EAE0E4B980E0FFDC2091EE
:101EA0003301309134013695279538872F83821B73
:101EB000930B9A838983F2E2F4B980E0EFDC2F81FF
:101EC0003885821B930B9C838B83A5B828E224B9A9
:101ED00081E0E4DC2F813885821B930B9E838D8308
:101EE00086EC90E08BC084E0B81207C08DE492E0ED
:101EF0001CD98ADE81115FC287C095E0B91213C078
:101F000015B894B880E0CADC9A838983A4B881E0CC
:101F1000C5DC9C838B8374B882E0C0DC9E838D8398
:101F200086EE90E06BC0E6E0BE1227C094B895B88C
:101F300080E0B4DC2091330130913401821B930B9B
:101F40009A838983A4B8A5B881E0A8DC20913301E5
:101F500030913401821B930B9C838B8374B875B8CA
:101F600082E09CDC2091330130913401821B930B81
:101F70009E838D8382EE90E041C0F7E0BF1240C0A7
:101F80002091330130913401A8E5BBE10E94C139B1
:101F9000A20191010E94283A95B883E084B980E0BB
:101FA000288B398B4A8B5B8B79DC288939894A8964
:101FB0005B89821B930B9A838983A5B864B881E0FF
:101FC000288B398B4A8B5B8B69DC288939894A8954
:101FD0005B89821B930B9C838B8375B890E394B9C8
:101FE00082E0288B398B4A8B5B8B58DC28893989B6
:101FF000821B930B9E838D8380EC90E096D804C067
:10200000E1E0BE1609F4E4CE0E94070789819A81B7
:10201000BED82ED88B819C81BAD82AD88D819E813A
:10202000B6D8D6CE64D88DE492E07FD884E60ADCB8
:10203000115019F0E9DD8111F5CF0E94BC0685EB46
:1020400090E073D823E044E06FEF809135019091E8
:1020500036016DDA0E9407078EEA90E066D823E029
:1020600044E06FEF80913C0190913D0160DA82E0A5
:1020700080934201BADC10921E010E94BC068AEADB
:1020800090E053D860E082E00E94541B80907F0172
:1020900090908001A0908101B09082019C868B86F7
:1020A00061E082E00E94541BC0907F01D0908001CB
:1020B000E0908101F0908201DE86CD8660E081E0D3
:1020C0000E94541B00917F01109180011E830D839B
:1020D00062E080E00E94541B80917F01909180011A
:1020E0009C838B8362E081E00E94541B80917F017E
:1020F000909180019A87898761E080E00E94541B5B
:1021000080917F01909180019A838983EF85E130EE
:1021100021F020913B01223021F4029698878F8391
:1021200004C098878F8310923B01C40144D8C60134
:1021300042D8B801882777FD8095982F03E026E4E0
:1021400044EF06D96E01FFE0CF0ED11CFE0131969F
:10215000819191910A97853B9105F0F4EC15FD056D
:10216000B9F7ABE4EA2EA3E0FA2E8E010F5F1F4F02
:10217000F80160810E5F1F4F6E5EC7010E94673BD2
:10218000FFEFEF1AFF0A0C151D0591F70E940707D4
:1021900080EB91E00E94950882E08093420125DC6B
:1021A0000E9461302F85213029F080913B018230DF
:1021B00009F0E9C0E0E4BE2E10E0FAE0CF2ED12C09
:1021C000E12CF12CAEDC0E94BC0680E00E943608B7
:1021D00086E591E00E94950882E00E9436088FE132
:1021E00090E00E94950810921E0160E082E00E943B
:1021F000541B009189016091770170917801809161
:10220000790190917A01073F44F4A70196010E9459
:10221000283A0F5FB901CA01F6CF00938901609394
:102220007701709378018093790190937A01073F49
:1022300009F093C0DC01CB0180569109A109B109D5
:1022400080399545A105B10508F087C060918B01E3
:1022500070918C01CB018B569F4F8B32914008F0CF
:102260007CC01F5F153008F479C082E593E00E94BE
:10227000753B0E94BC0688E190E00E949508809121
:102280008B0190918C010E94C708D2DB88E088B94D
:1022900089E087B980E284B982E00CDB853D934018
:1022A000DCF714B8109232011092310182E002DBA7
:1022B0008C01809171019091720190933201809311
:1022C000310182E0F7DA7C01EE0CFF1C1092320142
:1022D0001092310182E0EEDAC0907101D09072016B
:1022E000D0923201C0923101080F191F0E191F0937
:1022F0000E94070781E190E00E94950884E593E041
:102300000E945A3B73E0B72EB80E9601D8010E9486
:10231000D0399701442737FD4095542F0E944A3AFF
:10232000B20E6B2D84E593E00E94673B8B2D9927BD
:1023300087FD90950E94C7087BDB82E08093420175
:1023400054DB10923B018BE493E00E945A3B682FD0
:102350008EE493E00E94673B16C010E00E940707DE
:1023600060917701709178018091790190917A0163
:1023700004E026E4409189010E94A80988E262DA1B
:10238000BA9409F01FCF89E180932F010E946B332B
:102390000E94BC0680E091E00E9495080E94070719
:1023A00084E492E00E94950810921E0182E08093DE
:1023B00042011BDB03C052E0852E26CE6396E2E18C
:1023C0000C94E03A80913B0181110DC08BE493E0C5
:1023D0000E945A3B61E0680F8EE493E00E94673BE5
:1023E00081E080933B010895CF92DF92FF920F939B
:1023F0001F93CF93DF931F92CDB7DEB7E82FF0E0A6
:10240000EA5BFE4FE491E8B9E860E7B915B8E62F5A
:10241000F0E0ED5BFE4FE491E4B908E813E1FE2E35
:10242000FF0C862F69833ADA6C01F4B86981801752
:10243000910710F48C01F5CF0097E9F00E940F0787
:1024400086E391E00E949508D60120EA36E841E053
:1024500050E00E94D63928E937EB40E050E00E9476
:10246000283ADA01C90122E041E467EF60D888E048
:1024700087B988B914B80F90DF91CF911F910F9150
:10248000FF90DF90CF9008950F931F93CF93DF932A
:1024900085E010DA85E00ADAEC018C01000F111FEB
:1024A000000F111F0A561F4F10923901043883E0A4
:1024B000180750F484EA91E00E9495080E944B08A6
:1024C00081E08093390123C083EB91E00E9495085D
:1024D00062E0C80137D80E943808CA3F86E0D807B2
:1024E00080F4C333D64050F488EB92E00E94950804
:1024F0000E944B088DECA6D93FDB09C08FEB92E020
:1025000002C080EB91E00E9495080E944B08DF9189
:10251000CF911F910F910895A9E1B0E0E2E9F2E1B6
:102520000C94C43A982E862E4983A895E62FF0E0A5
:10253000ED5BFE4F449033962491288BE42FF0E01E
:10254000ED5BFE4F6490E82FF0E0ED5BFE4F749082
:10255000339634913A8338603F8728602E8765B878
:10256000462D44294E8344B937B95A8158B9862F2C
:102570009DD99987888744B8882D98D91C0114B8AB
:102580004BD915B86E8164B9882D90D9A885B985C5
:102590008A179B0730F5805E9E4FA817B90708F48D
:1025A000CFC4BE85B7B988E088B975B8872D8629AC
:1025B00084B9E0913301F0913401F987E887892DDE
:1025C00075D928853985281B390B3987288774B830
:1025D0002090330130903401892D68D9281A390AA6
:1025E00008C028853985205E3E4F8217930708F47E
:1025F000A7C42091520180916C0190E0820F911D3F
:1026000002974CF0213009F09BC490914F018091CA
:102610006901981395C4562C550C48855985443743
:10262000510508F4A8C0CA01880F991F44962816BE
:10263000390608F0A0C05F8557B96A8168B9852D51
:10264000842984B9882D2ED98C01898133D97C01C4
:1026500055B8882D27D99801295A3D4F5728281752
:102660003907D8F588E088B97E8577B954B855B868
:10267000898118D988349F4028F085E080931E0115
:1026800082E204C085E080931E0184E280931D01F4
:102690001093480100934701E016F10640F4C80189
:1026A0008E199F0990934E0180934D0104C01092A2
:1026B0004E0110924D019801A0E1B7E20E94C1398C
:1026C000209118013091190140E050E00E94283A11
:1026D00030934A01209349012AC488E088B9BE8515
:1026E000B7B954B855B8892DDDD88C018981E2D8A5
:1026F0007C0175B8892DD6D8895A9D4F80179107CE
:1027000008F01EC4EA81E8B9FF85F7B98981CAD803
:10271000813D934028F485E080931E0182E304C04C
:1027200085E080931E0184E380931D010E151F0533
:1027300038F4E01AF10AF0926801E092670104C0EF
:102740001092680110926701209133013091340199
:10275000201B310BA0E1B7E20E94C13920911F017B
:102760003091200140E050E00E94283A309364010B
:1027700020936301ADC188E088B93E8537B975B84B
:10278000472D46294C8344B9892D90D89B878A8749
:10279000009133011091340189818CD85C018A3019
:1027A000910550F514B881E04DD8852D872984B95D
:1027B000892D7CD89B878A87609133017091340181
:1027C000681B790B798F688F898174D85C0180913F
:1027D0001F01909120019C0140E050E060E871EA07
:1027E00083E09CE10E94283AA88DB98D0E94D639D9
:1027F000950140E050E013C0C801AA85BB858A1B43
:102800009B0B998F888F9C012A193B09A4E6B0E0A5
:102810000E94C139850120E030E0A90198010E94A1
:10282000283A69017A0114B815B8BA81B8B9EF85A8
:10283000E7B981E007D8F9EB2F16F7E03F0608F07B
:102840007FC32E8124B9882D31D88F359D4008F45F
:1028500045C114B881E00E94220C4E8144B981E048
:102860000E94220C552D54295B8B54B9882D1ED8FB
:102870008C0189811FD89A8B898B892D1BD89D87C4
:102880008C8769897A89613D774008F4AFC084E01C
:1028900080931E018DE080931D012016310630F4D7
:1028A000D801A219B309BB83AA8302C01B830A8380
:1028B0004090180150901901612C712C60E871EA68
:1028C00083E09CE1A30192010E94283AAA81BB8186
:1028D0000E94D639E989FA899F0140E050E00E94C0
:1028E000283A80916C01882369F080915D01909174
:1028F0005E01A0915F01B091600182179307A40768
:10290000B50708F520935D0130935E0140935F01A8
:10291000509360019801A0E1B7E20E94C139A30180
:1029200092010E94283A30936401209363018C85C0
:102930009D8529893A89821B930B9093620180932C
:10294000610121E001C020E080915D0190915E0174
:10295000A0915F01B09160018C159D05AE05BF058A
:1029600028F5C0925D01D0925E01E0925F01F09285
:1029700060018A859B858A199B09909362018093E7
:102980006101288D398DA0E1B7E20E94C139209103
:102990001F013091200140E050E00E94283A205F62
:1029A000384D309364012093630103C0222309F45E
:1029B0008CC39101A0E1B7E20E94C139A301920149
:1029C0000E94283A30936601209365012885398555
:1029D000A0E1B7E20E94C139A30192010E94283A06
:1029E000309368012093670121E06FC331E623161D
:1029F000310408F073C0013D47E0140708F46EC0CD
:102A000085E080931E0182E180931D01C8018650FC
:102A10009F4F6C857D858617970720F483E180930F
:102A20001D011CC08C859D850817190798F4A0917D
:102A30001801B09119019C01201B310B0E94C13972
:102A4000980140E050E00E94283A309362012093C0
:102A5000610104C01092620110926101988997701F
:102A6000D92E8981806480937C00FBE0CF2E01E029
:102A700010E0EE24EA94A3E0FA2EA89561E0862DFA
:102A800030D5AB89A4B986B18D21E9F344B88091E2
:102A90007A00806480937A0080917A0086FDFCCF72
:102AA0008091780090917900F701E81BF90B0E0FE7
:102AB0001F1FCA9411F7C801880F991F880F991F0B
:102AC00069E070E00E94013A7093680160936701C9
:102AD00080916C018F5F80936C0186CFFE81F4B989
:102AE00065B8882D0E94560C9F838E8389810E9431
:102AF0005A0C9B878A874091330150913401481BBF
:102B0000590B4A30510560F514B881E00E94220C3F
:102B1000852D842984B955B8882D0E94560C9F8331
:102B20008E8389810E945A0C9B878A878091180125
:102B3000909119019C0140E050E060E871EA83E067
:102B40009CE10E94283AAE81BF810E94D639209133
:102B50003301309134014A855B85241B350B09C054
:102B60002E813F81241B350BA4E6B0E00E94C139C1
:102B70009A0140E050E00E94283A69017A015E859E
:102B800057B988E088B96C8164B965B9892D0E940C
:102B9000560C8C0189810E945A0C5C01882D0E9480
:102BA0005A0C9C01003371E1170708F0C6C175B8D3
:102BB000892D2E8B3F8B0E94560CAC0174B8892D49
:102BC0004C8B5D8B0E94560C9A8B898B15B881E0DB
:102BD0000E94220C75B8892D0E94560C2E893F89BF
:102BE0004C895D8969897A896034764008F057C0DC
:102BF0008133914108F453C0C8018A569F4F48174A
:102C0000590708F04CC086E080931E018091520164
:102C10008F5F80935201C501821B930B90934801F3
:102C200080934701021B130B10934E0100934D013B
:102C300014B815B8E889E8B981E00E94220C74B88C
:102C4000892D0E94560C853F910508F04DC2FC81EC
:102C5000F4B989810E94560C813D934008F444C226
:102C6000892D0E945A0C8D3D924008F43DC274B8E3
:102C7000892D0E94560C8D3D924008F435C275B8DE
:102C800081E00E94220C15B8892D0E94560C853FC8
:102C9000910508F029C287E080931E0125C25C815E
:102CA00054B955B981E00E94220C572854B855B840
:102CB000892D0E94560C5C016091330170913401A2
:102CC000681B790B7A8B698B89810E945A0C9D87CE
:102CD0008C878091330190913401AC85BD858A1B2E
:102CE0009B0B9D838C83882D0E945A0C8C01EC8158
:102CF000FD81EE3FF94008F4B1C084E080931E01ED
:102D00008CE080931D0149895A892416350620F4E8
:102D10005A01A218B30802C0A988BA8840901F01BE
:102D200050902001612C712C60E871EA83E09CE1F5
:102D3000A30192010E94283AD5010E94D639AC81A4
:102D4000BD819D0140E050E00E94283A80915201EF
:102D5000882369F08091430190914401A09145013D
:102D6000B091460182179307A407B50700F5209399
:102D700043013093440140934501509346018C85B3
:102D80009D85801B910B9093480180934701298971
:102D90003A89A0E1B7E20E94C139A30192010E94E1
:102DA000283A30934A012093490121E001C020E0F4
:102DB0008091430190914401A0914501B091460159
:102DC0008C159D05AE05BF0530F5C0924301D0922C
:102DD0004401E0924501F09246018A859B85EE818F
:102DE000FF818E1B9F0B90934801809347019F01A9
:102DF000A0E1B7E20E94C139209118013091190178
:102E000040E050E00E94283A205F384D30934A015C
:102E10002093490103C0222309F467C19101A0E175
:102E2000B7E20E94C139209118013091190140E0A8
:102E300050E00E94283A30934C0120934B012885A2
:102E40003985A0E1B7E20E94C139A30192010E9435
:102E5000283A30934E0120934D0146C1F1E62F16DA
:102E6000310408F06AC029893A8929343D4008F4C0
:102E700064C085E080931E0182E080931D01C8013B
:102E800086509F4F8A159B0520F483E080931D0197
:102E90001CC00A151B05A8F4A0911F01B0912001C8
:102EA0009501201B310B0E94C139A989BA899D0166
:102EB00040E050E00E94283A3093480120934701B7
:102EC00004C010924801109247010A81077089815D
:102ED000806480937C001BE0EE24E394F12CA895A1
:102EE00060E0862DFED254B855B886B18023E9F74C
:102EF00074B880917A00806480937A0080917A001F
:102F000086FDFCCF8091780090917900E80EF91E43
:102F1000115029F7C701880F991F880F991F69E081
:102F200070E00E94013A70934E0160934D018091D0
:102F300052018F5F80935201D7C088E087B988B96A
:102F400014B815B888E087B9B7EC2B16B1E03B068A
:102F500008F4AFC088B918EC0E85EF850E2B07B9C1
:102F600081E00E94220CFE85F7B9892D0E945A0C3F
:102F7000429710F0115099F7542C550C372C330C04
:102F800034B835B861E0862DACD2892D0E94560C3C
:102F90009D838C8354B815B82F8527B93A8138B9E9
:102FA00060E0862D9ED2E0903301F0903401882DB0
:102FB0000E94560C8C0144B8892D0E94560C6C015D
:102FC000882D0E945A0CC81AD90A88E088B94E8503
:102FD00047B974B875B861E0862D83D2892D0E94F7
:102FE000560C5C01882D0E945A0CA81AB90ACA1402
:102FF000DB0438F434B835B8892D0E94560C6501CD
:1030000019C09701201B310B3D832C8354B815B890
:103010003F8537B94A8148B960E0862D62D2009178
:10302000330110913401882D0E94560CB801681BA1
:10303000790BCB0196012759310929383141C8F55F
:103040008C159D05B0F58C819D8153E096958795F3
:103050005A95E1F7893C910510F088EC90E02C81BD
:103060003D81820F931F8C159D0518F5C60144E024
:10307000969587954A95E1F782179307D0F480914A
:103080001E01833018F483E080931E0180911C019F
:10309000E82FF0E0DF01A357BE4F9C9216968C926A
:1030A000EE0FFF1FE756FE4FD182C0828F5F8093E5
:1030B0001C01682D892D28D088E087B988B914B8FB
:1030C00015B86996E2E10C94E03A80916C018F5F4B
:1030D00080936C01222381F33981309369018092BE
:1030E0006A0190926B01E8CF21E0809152018F5FDD
:1030F00080935201222301F3498140934F01909222
:10310000500180925101D8CFA0E0B0E0EAE8F8E1A8
:103110000C94C63A982E862EA895E62FF0E0ED5B2B
:10312000FE4F549033962491E82FF0E0ED5BFE4F74
:10313000E4903396F49030916C018091520190E0CC
:10314000830F911D892B09F0C7C1A8958091220199
:1031500090912301880F991F880F991F9093340134
:10316000809333018091710190917201880F991FB2
:10317000880F991F90933201809331018EEB8093D9
:103180002F0188E088B9286027B9E4B8E5B858E18C
:10319000D52EC0E0D0E0882D0E94560C782E692EE6
:1031A000892D0E945A0C8C018C1B9D0B97FF03C02C
:1031B00091958195910903972CF0A895DA94E1F106
:1031C000E801E9CFEE0C15B8E4B8892D0E94560C41
:1031D0008135910588F5E5B8892D0E94560CEC01E2
:1031E0008F2D886087B9F8B815B854B888E1482E93
:1031F000C12CD12C892D0E94560CB82EA92E882DB9
:103200000E945A0C7C019C012C193D0937FF03C018
:103210003195219531092330310514F5550C54B8F9
:10322000882D0E94560C6C01003C94E41907E8F4C8
:10323000C53881E0D807E8F0809122019091230100
:1032400090933401809333018091710190917201C8
:10325000909332018093310189E180932F013CC129
:10326000A8954A9449F36701C5CFC03B9DE4D907AF
:1032700018F784EAE81682E0F80608F063C098E9D7
:10328000C916D104C8F200913301109134019E0196
:10329000A8E9B7EB0E94C13998012C1B3D0B40E017
:1032A00050E00E94283A29013A0198012C193D0961
:1032B000A8E9B7EB0E94C139860120E030E0A901FE
:1032C00098010E94283AC837DF4070F4C301B20168
:1032D000B2E0660F771F881F991FBA95D1F7620F6A
:1032E000731F841F951F12C098E7C9169FE0D90667
:1032F000A0F4CA01B901A2E0660F771F881F991FC9
:10330000AA95D1F7640D751D861D971D25E030E047
:1033100040E050E00E94283A08C0240D351D461DAB
:10332000571D5695479537952795A4E6B0E00E941E
:10333000D6396B017C018CEAC80E8DE0D81EE11CE9
:10334000F11C73C0272D362D0217130708F49801BE
:10335000CB2DDA2DCE15DF0508F4E7015901201732
:10336000310708F45801A0911F01B0912001C50157
:10337000821B930B9C010E94C13920913301309133
:1033800034012A193B0940E050E00E94283A290103
:103390003A018E01EC16FD0608F48701A091180190
:1033A000B09119019E01201B310B0E94C1396801A7
:1033B000E12CF12CA70196010E94283A98E7A91662
:1033C0009FE0B90670F4C301B201E2E0660F771F17
:1033D000881F991FEA95D1F7620F731F841F951FED
:1033E00011C008378FE01807B0F4CA01B90152E0E4
:1033F000660F771F881F991F5A95D1F7640D751DA9
:10340000861D971D25E030E040E050E00E94283AFC
:1034100069017A010AC069017A01C40CD51CE61C55
:10342000F71CF694E794D794C79410911E011430BA
:1034300008F002CF9A94980C892D90E0EC01C95ABB
:10344000DE4F2881880F991F880F991FFC01EA55CC
:10345000FE4F2223D1F14080518062807380A7010A
:103460009601241935094609570957FF07C0509599
:103470004095309521953F4F4F4F5F4FAAE0B0E008
:103480000E94D639A30192012C593F4F4F4F5F4FF5
:103490002C0D3D1D4E1D5F1D0E94283A232B242B11
:1034A000252B09F0C9CE133019F081E080931E015D
:1034B00082E0888380917301E82FF0E0E65AFE4FA6
:1034C00090828F5F80937301B7CEC082D182E282F7
:1034D000F38281E08883B0CECDB7DEB7E0E10C9413
:1034E000E23ACF93C82FC09595B160FF02C0982BE8
:1034F00001C09C2395B994B1982B94B982E00E94A5
:10350000220C84B18C2384B985B18C2385B9CF91E9
:103510000895A0E0B0E0EFE8FAE10C94CC3A8AE03C
:10352000D82E98E0C92E2FE3A22E39E0B32EC7B8CB
:10353000C8B815B8A4B880E00E94560C8C0181E090
:103540000E945A0CEC0182E00E945A0C20911E014C
:10355000293081F428E027B914B8109306010093AC
:103560000501D0930801C093070190930A0180934D
:10357000090155C00430110540F4C430D10550F4A0
:103580008430910538F329E009C0083E134010F05B
:1035900028E001C029E0C83ED34008F42260883EFC
:1035A000934008F4246027B9C0E0D0E0A89580E0FB
:1035B0000E944E0C7C0181E00E945A0C8C0182E03A
:1035C0000E945A0C24E1E21625E0F20608F4389A2B
:1035D000043135E0130708F4399A843125E0920765
:1035E00008F43A9A36E0E316F10428F4063011059F
:1035F00010F4069738F02196C43F81E0D807B1F661
:10360000B0921E0100E010E00C171D0729F00E9487
:10361000110C0F5F1F4FF8CFDA9409F088CFCDB7A8
:10362000DEB7EAE00C94E83ACF92DF92EF92FF9295
:10363000CF93209177013091780140917901509199
:103640007A01C09189018AE0C82ED12CE12CF12C9D
:103650008C2FCF5F213A96E8390791E04907510551
:1036600038F0CA01B901A70196010E94283AF0CFAB
:1036700080938901A0913301B09134010E94D63921
:1036800028E833E140E050E00E94283A2093770197
:10369000309378014093790150937A01CF91FF9054
:1036A000EF90DF90CF900895A4E0B0E0EAE5FBE171
:1036B0000C94CA3A982E862E8FEF860F992D990F6B
:1036C000990D890F80935401E92DF0E0ED5BFE4FD9
:1036D0001491862F90E0FC01ED5BFE4FF490FC010D
:1036E000EA5BFE4F049180911E01813009F4ABC268
:1036F00080911C0123E931E069E971E0D9019A2F39
:10370000921B9817A0F49D9198110EC0AD014750DF
:103710005109FA019081991107C0FB014081518143
:103720004C3D554008F48FC26E5F7F4FE8CF086074
:10373000109284011092830181EF8093890110928D
:103740007701109278011092790110927A01E1DEEE
:1037500088E088B907B9F4B8F5B8892D0E945A0CE9
:103760007C01882D0E945A0CE81AF90A14B81092AC
:10377000560110925501C12CD12C20915501309148
:103780005601243F314050F515B914B90E940B0C75
:1037900014B815B80E94120CA895892D0E945A0CD5
:1037A0006C01CE18DF0820915501309156012E375B
:1037B000310528F02BE4C216D1040CF43FC28DE28F
:1037C000C81681E0D80684F4809155019091560185
:1037D00001969093560180935501CFCFEDE2CE161E
:1037E000E1E0DE060CF42AC2209155013091560129
:1037F000232B21F0C60100E010E006C0F5E1CF1652
:10380000F5E0DF06BCF385C02091550130915601EB
:103810002017310758F00E940C0C892D0E945A0C79
:103820008E199F09A8950F5F1F4FEECF8601081BC9
:10383000190B1016110694F4093C11050CF0FEC189
:1038400028EE33E0D8010E94D0399601442737FD95
:103850004095542F0E94283A790102C0E12CF12CA6
:10386000A0905501B09056012FEFA21AB20AC501DF
:10387000A0E0B0E080937F0190938001A09381014C
:10388000B0938201C601800F911F29D29C01D501FE
:103890000E94C13960937F01709380018093810100
:1038A00090938201609377017093780180937901FE
:1038B00090937A0187EF80938901B6DE209177019A
:1038C000309178014091790150917A018EE293E034
:1038D00029833A834B835C830E945A3BA8EEB3E072
:1038E000A81BB10987FDB39529813A814B815C8181
:1038F0000E94E03924E630E040E050E00E94283A9F
:1039000020937701309378014093790150937A01A5
:1039100053C1FFDD15B88FE087B988E088B9F12E73
:10392000FF0CF4B880E480937B0084E580BF892D90
:10393000806480937C0086E180937A000E94150C5D
:10394000109256011092550110928000109285003D
:103950001092840087E286BB81E280936F0091E041
:1039600090937401F5B880911E0190938100853089
:1039700059F481E090E0092C01C0880F0A94EAF71D
:1039800080958F7087B901C007B9F89483B7817F9C
:1039900083BF80917401882389F083B7816083BFDE
:1039A0007894889583B78E7F83BFF894A89580918B
:1039B0005501909156018034964059F778941092B1
:1039C0008100E0908600F090870010926F0086E9F9
:1039D00080937A0014B815B8892D0E945A0C209152
:1039E000370130913801821B930B0C9690938C0118
:1039F00080938B01809155019091560180329340C4
:103A000008F01CC18091550190915601909382015C
:103A100080938101F0928001E0927F0184EF809396
:103A20008901809155019091560182349105C8F029
:103A300060917F017091800180918101909182015C
:103A400024E630E040E050E00E94283A20937F01D5
:103A500030938001409381015093820186EF8093DF
:103A60008901A0917501B091760120917F0130917B
:103A7000800140918101509182010E94D63920E25B
:103A800033E040E050E00E94283A20937F013093D9
:103A900080014093810150938201209377013093FC
:103AA00078014093790150937A01BEDD80918901BC
:103AB000843F09F071C0C0907701D0907801E09008
:103AC0007901F0907A0120EAC2162FE0D206E104D3
:103AD000F104C0F4A70196012C543F4F4F4F5F4FA4
:103AE00060EA7FE080E090E00E94283A2C0D3D1DC6
:103AF0004E1D5F1D2093770130937801409379012B
:103B000050937A01C0907701D0907801E0907901CC
:103B1000F0907A01C114D10481E0E806F10428F4A0
:103B2000D092B701C092B60106C081E090E09093B8
:103B3000B7018093B6018091540190E0855B9C4F62
:103B40000E945A3B482F50E060E070E04C155D0544
:103B50006E057F0568F4C41AD50AE60AF70AC09212
:103B60007701D0927801E0927901F0927A0114C045
:103B700094E1C90ED11CE11CF11CC416D506E60661
:103B8000F70610F40E94E21110927701109278016A
:103B90001092790110927A0114B980917701909175
:103BA0007801A0917901B0917A014997A105B105F9
:103BB00008F444C0E12CF12C80911C01882321F0F1
:103BC00080911E018530D1F588E080931E012091FF
:103BD000890180918A018217BCF028132FC040917F
:103BE0007701509178016091790170917A0180910B
:103BF0007B0190917C01A0917D01B0917E018417A1
:103C00009507A607B707D0F48091770190917801C6
:103C1000A0917901B0917A0180937B0190937C010E
:103C2000A0937D01B0937E0120938A01F0928601DA
:103C3000E0928501809287019092880188E087B99F
:103C400088B914B815B82496ECE00C94E63A1F92A3
:103C50000F920FB60F9211248F939F93B59904C0C2
:103C600080917401811109C0B59B10C080918600BC
:103C7000909187008A3F910548F480915501909179
:103C80005601019690935601809355019F918F9113
:103C90000F900FBE0F901F9018951F920F920FB6A6
:103CA0000F9211248F939F9310927401B09B10C0B8
:103CB00080918600909187008A3F910548F4809119
:103CC00055019091560101969093560180935501AC
:103CD0009F918F910F900FBE0F901F9018950F928C
:103CE00021E08C32920710F48CE291E08C529140EA
:103CF00069E170E00E94013A99E16B3210F0982F6F
:103D00006BE2981BEFECF2E0E60FF11DE60FF11D00
:103D10009F93CF010E945A3B482F3196CF010E94BA
:103D20005A3B582F3196CF010E945A3B282F31968B
:103D3000CF010E945A3B382F6F91421B530B649F57
:103D4000C001659F900D11240C9669E170E00E94FE
:103D5000013A620F731FCB010F900895A0E0B0E00D
:103D6000E4EBFEE10C94C93A88E893E190932301D7
:103D70008093220190933401809333018EEB8093E2
:103D80002F01C8E0C8B988E187B90E941A0CC7B9E9
:103D900084E00E94560CAC018B5C9840833F9140BC
:103DA000A0F481E080933E012091330130913401F1
:103DB000AFEBB9E00E94C1399A0140E050E00E94A7
:103DC000283A30932301209322018091220190917F
:103DD000230190933401809333018EE00E945A0CAA
:103DE0008EE00E94560C90933801809337010E9418
:103DF000180D8FDB88E0782E78B8C9E0C7B985E167
:103E000085B9D1E0D4B980E00E94560C7C011AE05B
:103E100017B904E004B981E00E94560CE80EF91EBF
:103E20009CE0992E97B820E1822E84B882E00E940F
:103E3000560CE80EF91E15B8C8B9C7B9D4B9C09167
:103E40003301D091340180E00E94560C5C0118B916
:103E500017B904B9009133011091340181E00E9437
:103E6000560C6C0198B897B884B880903301909044
:103E7000340182E00E94560CC00FD11FC80DD91D1D
:103E8000CA19DB09CC19DD09C81BD90B77B878B87A
:103E900014B880913301909134014C01880C991C25
:103EA000880E991E8E189F088C1A9D0AA12CB12C81
:103EB0009701A0E9BAE10E94C139A50194010E94CD
:103EC000283A69017A0130933D0120933C019E011B
:103ED000A0E9BAE10E94C139A50194010E94283AE3
:103EE00030933601209335012057354E3093200111
:103EF00020931F0180E7C81A85EED80AD0921901D5
:103F0000C092180189E180932F01CDB7DEB7EDE0B3
:103F10000C94E53AFF920F931F93CF93DF93C82F32
:103F2000D62FF42E0E94360883E191E00E94950876
:103F3000E1D16D2F8C2F0E94DB31C1E00091BA01DD
:103F40001091BB012091BC013091BD0101151105FB
:103F50002105310509F0C0E08091020187FD02C012
:103F6000C11104C08FE091E00E9495088D2F0E943E
:103F70003608C11106C00E94380880915A010E947B
:103F80003B09FF2049F080913F018F3028F490E0F9
:103F9000815B9C4F0E94950880E00E947208C111CD
:103FA0001BC06091BA017091BB018091BC019091DE
:103FB000BD0103E028E447EF0E94A80982E291E0F6
:103FC0000E94950882E693E00E94623B23E046E46B
:103FD00064EF0E94970A1AC080915A010E943B091F
:103FE000809102018E3F94F48AE391E00E9495084B
:103FF00060910B0170910C0180910D0190910E0167
:1040000003E028E4409102010E94A8098091B201D6
:104010009091B301A091B401B091B501892B8A2B85
:104020008B2BF1F080E00E9472086091B2017091D8
:10403000B3018091B4019091B50104E028E440E01F
:104040000E94A8098DE191E00E94950823E040E2DA
:104050006FEF8091B8019091B9010E94970A07C053
:1040600080E00E94500880914201811102C00E94AC
:104070004B08CDB7DEB7E5E00C94ED3A0F931F93F4
:10408000CF93DF93082F0E94B606809187010E948C
:10409000360886E591E00E94950809D56091870170
:1040A000809188015CD3909384018093830111E017
:1040B0008A3F9F4F08F010E0C0918501D0918601A2
:1040C000112321F084E191E00E94950880918801FC
:1040D0000E943608002359F090913F018FE0891B20
:1040E0000E943A0884E790E00E94950802C00E946E
:1040F0004B080E94070760917B0170917C018091C1
:104100007D0190917E0104E026E440918A010E94A5
:10411000A809112369F085E491E00E94950822E046
:1041200044E06EEF80918301909184010E94970A90
:104130000E944B080E940B07CD2B69F08EE391E0A3
:104140000E94950822E045E26FEF809185019091F1
:1041500086010E94970A0E944B08DF91CF911F9120
:104160000F9108958F7021F40E940F070C94441250
:1041700008958F3021F490913901913011F08F5FC3
:10418000089580E00895CF938FE790E00E941C2C63
:10419000C0E00E94910D60E082E00E94841862E01D
:1041A00080E00E9484180E94B606809173018823E3
:1041B00029F041E062E080E0ADDE12C08FE790E0E0
:1041C0000E94950889E593E00E9495080E940707E0
:1041D0008FE30E94ED0780E00E9450080E944B0888
:1041E0008C2FC0DF88EE93E00E94B80C811105C0CF
:1041F0008C2FBFDFC82F8A3F60F20E94BC06CF9190
:1042000008950F931F93CF93DF93C0E0D8E012EF90
:104210000FE00E94910D60E082E046DAD0931E012B
:1042200080918901843FE1F44091770150917801B8
:104230006091790170917A014436510561057105EB
:1042400078F440E060E082E00E946F2F6093770195
:10425000709378018093790190937A01109389018A
:1042600080918901823FACF080938A01409177016F
:10427000509178016091790170917A0140937B01AE
:1042800050937C0160937D0170937E0181E0F6DEA6
:104290001CC00E94B60688E790E00E9495088091B5
:1042A0003F01902F981B892F0E943A0884E790E0E5
:1042B0000E9495080E9407078FE30E94ED070E9465
:1042C0004B080E940B070E944B088C2F4BDF88EE97
:1042D00093E00E94B80C811106C08C2F4ADFC82FD2
:1042E0008A3F08F496CF0E94BC06DF91CF911F91C0
:1042F0000F910895A3E1B0E0E0E8F1E20C94C43A34
:1043000082E08093020180911E01813009F023C276
:1043100080917301813009F01EC220905A0124E07F
:10432000229EF0011124EA55FE4F80819181A281E5
:10433000B381893032E59307A105B10508F00BC2BE
:104340009B8B8A8B312C61E0822D631528F00E94B3
:104350003109B82EA92E03C00E9431095C01EA2D53
:10436000F0E0EA5BFE4F74908B2D90E0FC01ED5B7A
:10437000FE4FE49115B828E028B92A893B89203FEF
:104380003105A8F430FC13C00091180110911901F7
:1043900000591A4121E030E00B2C02C0220F331FDC
:1043A0000A94E2F7C9018860872987B908C0E4B98F
:1043B000872D886087B9009118011091190144E197
:1043C000642E8B2D0E94520C4C018A2D0E945A0C97
:1043D00034E08316910410F4049710F06A9489F77E
:1043E00060E460937B0084E580BF8B2D80648093C4
:1043F0007C0086E180937A00E12CF12C1092800001
:10440000109285001092840087E286BB0E94150CF2
:10441000932D9170998B30FC05C081E880938100C9
:1044200078B808C078B80E941E0C80E286BB81E88C
:104430008093810046B345FF13C028E028B910924D
:10444000810080E286BB80918600909187006C019C
:1044500020918400309185008217930768F013C083
:1044600040FFE8CF31E036BBA895C70101967C013B
:1044700080359105F9F6E1CF40FF05C061E066BBEC
:104480008FEFE81AF80A86E980937A0034E1732EF8
:104490008B2D0E94520C4C018A2D0E945A0C24E054
:1044A0008216910410F4049710F07A9489F78090A2
:1044B0003C0190903D018A899B89880E991E800E4F
:1044C000911E20911A0130911B0100399AE11907C0
:1044D000B0F461EEC616D104E104F10438F4C6016B
:1044E00065E070E00E94013A645101C069E1285220
:1044F0003109261B310967FD339586E009C0C401E7
:1045000060EB76E30E94013A87E0860F285D3F4F1B
:1045100090E0A0E0B0E08C159D05AE05BF0528F445
:10452000C81AD90AEA0AFB0A03C0C12CD12C7601A9
:104530008989882329F092E2C90ED11CE11CF11C63
:1045400060E5E616F10418F0C12CD12C76018BE061
:10455000C816D104E104F10428F091E0C91AD10889
:10456000E108F1084091330150913401A12CB12CA4
:10457000A8EEB3E00E94C1392B013C019801DA0199
:104580000E94C139A50194010E94283A4427552769
:10459000C301B2010E94283AC9010E94700DFC01BA
:1045A000A5019401C701B6010E94E6394B015C01E7
:1045B000BF0180E090E023E0660F771F881F991FFE
:1045C0002A95D1F76B5F7F4F8F4F9F4F2AE030E0E6
:1045D00040E050E00E94283AC501B4010E94283A08
:1045E000832D90E0E1E0F0E0EC0FFD1F64E0369EEB
:1045F000E00DF11D112420833183428353836989A7
:10460000611117C06CE0C616D104E104F10488F012
:10461000FC013196EE0FFF1FEE0FFF1F81E090E0CF
:104620008C0F9D1FE80FF91F208331834283538332
:104630003394A895339493E0931508F084CE88E0E2
:1046400088B984E00E94220C21E04D815E816F8157
:10465000788589819A81AB81BC8184179507A607EB
:10466000B70708F020E04D855E856F8578898985DC
:104670009A85AB85BC8584179507A607B70710F008
:1046800032E001C033E0E22FF0E0EE0FFF1FEE0F4B
:10469000FF1F81E090E08C0F9D1FE80FF91FDC01E8
:1046A00094E0399FA00DB11D11244D915D916D9144
:1046B0007C9180819181A281B381481759076A0753
:1046C0007B0708F0322FE1E0F0E0EC0FFD1F24E063
:1046D000329FE00DF11D112480819181A281B3816F
:1046E00080930B0190930C01A0930D01B0930E01E8
:1046F00030FD09C02A893B89203F310520F48BEF2A
:104700008093020117C02CEF20930201BC01CD0160
:104710006B5F7F4F8F4F9F4F2AE030E040E050E0CB
:104720000E94283A20930B0130930C0140930D0115
:1047300050930E0180910B0190910C01A0910D01FD
:10474000B0910E01892B8A2B8B2B11F41092020150
:1047500088E087B914B86396E2E10C94E03AAEE1E0
:10476000B0E0E5EBF3E20C94C43A662EB82E860F67
:10477000898320911E01283059F520917B013091C9
:104780007C0140917D0150917E0157FD15C0109133
:104790008A0109C0CA01B9012AE0312D412D512DEC
:1047A0000E94283A1F5F173FACF391F4243160E078
:1047B00036074105510518F48FEF9FEF45C1173FAC
:1047C00039F480E028178DE738074105410510F0DE
:1047D00020E03DE72C8B3D8B26EDA22EE6E4F1E0B8
:1047E000E60DF11D859188608E87E6E4F1E0EB0D22
:1047F000F11D859188608F87E3E4F1E0E60DF11DFE
:104800007590E3E4F1E0EB0DF11DC59090EC692AA1
:10481000B92A81E0E82EF12C012D112D8E831F8203
:10482000188619861A861B861C861D86188E198E78
:104830001B8E1A8E0E94891A88E088B960927C00CB
:104840000E94160C3F8537B975B874B852E05A9576
:10485000F1F70000000014B815B8DD243E8537B923
:1048600075B874B860927C00A895A0927A00809187
:104870007A0086FDFCCF2090780030907900B092CD
:104880007C004C2DE5D02091780030917900288B68
:10489000398B3F8537B9C5B8C4B8A895B0927C00AC
:1048A000A0927A0080917A0086FDFCCF609178001A
:1048B0007091790060927C00472DCAD040917800B9
:1048C0005091790014B8CB01820D931DE80EF91EAA
:1048D000011D111DEA82FB820C831D838889998941
:1048E000840F951F2E813F8168857985280F391F98
:1048F000611D711D2E833F836887798722E324170A
:10490000150650F075B874B80E94200C14B815B88C
:10491000888D8395888F07C0483E73E0570718F04D
:104920008A8D83958A8F888999892817190660F05E
:104930003E8537B9C5B8C4B80E94200C14B815B864
:10494000898D8395898F07C0883E73E0970718F09B
:104950008B8D83958B8FD3945D2D5F3F49F05F37AF
:1049600031F45C2D550FC50E572D550F750E76CFB2
:1049700040903C0150903D01440C551C9201E4E0F4
:10498000240D351DEA95E1F72901570168016E8074
:104990007F808884998420911E012830C1F46C891D
:1049A0007D89812D912D65507040804090409B0104
:1049B000AC010E94E6399B01AC0160E779E786E132
:1049C00090E00E94283A621A730A840A950AA61493
:1049D000B704C804D90428F46A187B088C089D0819
:1049E00003C0662477244301B20180E090E0930184
:1049F000A4010E94E6399501A6010E94283A8AE2A4
:104A000093E07981870F911D0E945A3B682EC9015E
:104A100060E170E00E94013A260F371FC901681655
:104A2000190618F4861991090FC08C5E9F4F8615E0
:104A3000910540F48C899D89843981E1980710F0B3
:104A40000E94E211812D912D6E96E2E10C94E03AE4
:104A5000109281001092800010926F0010928B00D3
:104A600010928A0057E056BB5FEF50938500509339
:104A7000840055E050937B0056EB50937A0051E050
:104A80005093810058E25A95F1F7000045B944B9B6
:104A900055E05A95F1F7000014B815B8109281004E
:104AA00080917A0084FFFCCF80937A000895A4E07F
:104AB000B0E0EDE5F5E20C94CC3A8091850190915F
:104AC0008601892B09F0B5C0E0918701F0E0EA5B2F
:104AD000FE4F04910860E0918801F0E0ED5BFE4F2D
:104AE00014910E94891A88E088B915B807B914B9D9
:104AF000809188010E945A0C5C0100918A018CE02F
:104B0000800F843008F095C0015F80917B01909107
:104B10007C01A0917D01B0917E012AE0C22ED12CB2
:104B2000E12CF12CBC01CD016B5F7F4F8F4F9F4F6C
:104B3000A70196010E94283A0F5F073019F0DA01A9
:104B4000C901F0CF293883E138074105510508F044
:104B500070C02530310508F46CC015B914B900E0F7
:104B600010E00217130768F429833A834B835C83B0
:104B70000E941C0C0E5F1F4F5C814B813A81298182
:104B8000F0CF14B815B8A89585E080932F018091D7
:104B9000880129833A834B835C830E945A0C2981C4
:104BA0003A814B815C81A816B90620F47C01EA1891
:104BB000FB0802C0E12CF12C00E010E00217130703
:104BC00068F429833A834B835C830E941C0C0F5F3B
:104BD0001F4F5C814B813A812981F0CF8091880100
:104BE0000E945A0C29E120932F01A895A816B90616
:104BF00018F48A199B0902C080E090E08E159F0589
:104C000088F49701281B390B69F0A4EFB1E00E94EA
:104C1000C139970140E050E00E94283A3093860164
:104C2000209385010E94891A88E087B988B914B851
:104C300015B82496EAE00C94E83AA5E0B0E0E3E287
:104C4000F6E20C94C43A84E292E0F6D520EF2A838F
:104C500054980E94110C14BC16BC109212011092B0
:104C60001301109214011092150131E035BB3093FD
:104C70006E001092800083E19AE790938B008093FE
:104C80008A00E1E0F0E0F0938900E0938800109260
:104C900085001092840083B5816083BDF6E0F6BB89
:104CA000F0936F00789424E02093810012E319823E
:104CB0000E940A0CA8954F9902C031E0398385B54E
:104CC000811127C015BC86B5809312010E940B0785
:104CD0000E944B080E940F070E944B080E94770811
:104CE00086E60E94ED070E947A0860911201709199
:104CF0001301809114019091150147E00E94AC0AC4
:104D0000549880918100882339F08FE30E94ED0749
:104D100003C0115069F6D6CF1092810010926F0037
:104D2000209112013091130140911401509115010D
:104D3000DA01C9010197A109B109893D9146A1058F
:104D4000B10508F029C1AAE0B0E00E94D639685F39
:104D50007F4F8F4F9F4F23E0969587957795679567
:104D60002A95D1F7660F771F70936E0160936D01DE
:104D700054980E94110C16BC10921201109213014B
:104D8000109214011092150181E085BB80936E0092
:104D90001092700110926F0194E09BBB80916800AB
:104DA000846080936800789480916D008061809326
:104DB0006D001D820E940A0CA8954F9902C0E1E087
:104DC000E98380916D0084FF05C0FD81FF5FFD8355
:104DD000FA3F81F715BC80916D008F7E80936D0046
:104DE000809168008B7F8093680086B58093120164
:104DF0000E940B0784E50E94ED070E947A088091CB
:104E0000120190911301A0911401B091150120910C
:104E10006D0130916E013C832B831C012D019C019F
:104E2000A20160E070E080E090E003E00E94013BBE
:104E300051016201E12CF12C00E010E00E941A3BCC
:104E400059016A017B01E82F192F03E00E94013B01
:104E50000E2F0E941A3B03E00E94013B51016201A8
:104E6000E12CF12C00E010E00E941A3B02E00E94CD
:104E7000013B00E00E941A3B01E00E94013B00E080
:104E80000E941A3B03E00E94013BEB81FC815F0121
:104E9000C12CD12C00E00E94603A39014A011B016B
:104EA0002C012B813C812038310530F007E023E7CD
:104EB00045EFB301C40116C084E6A82EB12CC12C65
:104EC000D12CE12CF12C00E010E09301C2010E94F2
:104ED000603AE22FF42F07E023E747EF6E2F732F9E
:104EE0008F2F952F0E94A8093D813A3F21F48FE32F
:104EF0000E94ED0751C09301A401B101C2012C39F8
:104F00003E4C43405105610571058105910509F04D
:104F100008F442C00E940F0786E60E94ED070E9437
:104F20007A089301A401B101C20153016401710126
:104F3000820121153A4C4A495B436105710581059F
:104F4000910589F080F020E030E04AE85DE568E70F
:104F500075E483E691E00E94603AE22FF42F07E0C7
:104F600028E44AEF0FC020E030E846EC54EA6EE750
:104F70007DE883E090E00E94603AE22FF42F07E0A2
:104F800028E44CEF6E2F732F8F2F952F0E94A809C6
:104F90008AE70E94ED07549810926E0080ED97E02A
:104FA0000E94B80C2981820F29F43A8131503A834A
:104FB00031114ECE2596E2E10C94E03A1F920F9209
:104FC0000FB60F9211248F939F93AF93BF93789452
:104FD0008091120190911301A0911401B0911501DB
:104FE0009F5FAF4FBF4F8093120190931301A09327
:104FF0001401B0931501BF91AF919F918F910F90C4
:105000000FBE0F901F9018951F920F920FB60F9220
:1050100011248F9386E085BD8F910F900FBE0F9066
:105020001F9018951F920F920FB60F921124A895FA
:105030001092810015BC0F900FBE0F901F90189515
:105040001F920F920FB60F9211242F933F938F93BD
:105050009F9380916F0190917001892B11F481E0F1
:1050600085BD20916F013091700180916D0190910B
:105070006E012817390730F015BC80916D008F7EC6
:1050800080936D0080916F019091700101969093D3
:10509000700180936F019F918F913F912F910F909D
:1050A0000FBE0F901F9018958C3008F08C50811116
:1050B00003C08EE292E036C0813019F484E292E0BF
:1050C00031C0823019F48BEF91E02CC0833019F499
:1050D00080EF91E027C0843019F48AE890E022C084
:1050E000853019F48FE790E01DC0863019F488E709
:1050F00090E018C0873019F48FED91E013C088302C
:1051000019F480ED91E00EC0893019F489EB91E03B
:1051100009C08A3019F482E192E004C08B3021F496
:1051200087E092E00E9495080C944B080F93CF9370
:105130008AE890E081D3C0E010921E0160E082E036
:1051400097D380911E018830C1F50E94070783E440
:105150000E94ED070E947A0860917B0170917C01AA
:1051600080917D0190917E0103E026E440918A01C7
:105170000E94A8090E944B086091870180918801D4
:10518000EEDA90938401809383010E940B0786E4FA
:1051900091E00E94950880918301909184018A3F5B
:1051A0002FEF920730F422E044E06EEF0E94970A5E
:1051B00008C08FE30E94ED0704C00E9477080E9498
:1051C0000B070E944B088C2F0E94B22088EE93E0C0
:1051D0000E94B80C811107C08C2F0E94B920C82FE3
:1051E0008A3F08F4A9CFCF910F9108950895A5E0C3
:1051F000B0E0EDEFF8E20C94C43A8BEF91E01CD3F1
:1052000080E18093800010926F0081E090E09093A5
:1052100089008093880010928B0010928A0083E0AE
:1052200086BB1092820088E08093810015B891E1DE
:1052300094B988B989E087B9229A80938100212C9A
:105240001B822AE0298333243394812C912C54012E
:10525000839411E1822D90E00A966EE170E00E9445
:10526000153A662E562E3B81631789F00E94B606CA
:105270008BEF91E00E949508712C751428F48EE252
:105280000E94ED077394F9CF0E944B086B82123194
:10529000C8F0C701B601A50194010E94283A2B016C
:1052A0003C01832D69810E94F539A92FB0E0A50149
:1052B00094010E94D6396B017C01C40CD51CE61CFC
:1052C000F71C0CC0832D69810E94F539A92FB0E02D
:1052D000A50194010E94D6396B017C010E94070749
:1052E0008981381208C081E0123108F480E08A8395
:1052F000811106C001C01A82163120F48EE303C06A
:105300008CE301C082E50E94ED070E943808412F1E
:10531000C701B6010E94AC0AC701B6017E5E85488E
:105320009F4FA7019601220F331F441F551F0E9454
:10533000283ACA014F3F510539F030F08DE0809393
:10534000810080E094E01FC04034510530F08CE0D3
:105350008093810080E091E016C04830510530F024
:105360009BE09093810080E490E00DC0892B31F0A8
:10537000EAE0E093810088E090E005C0F9E0F09376
:10538000810081E090E02C01612C712CCA01B901EF
:10539000A30192010E94283AC901019790938900C4
:1053A000809388008091880090918900892B31F446
:1053B00021E030E030938900209388000E944B0860
:1053C0000E940B0786E60E94ED070E943808809134
:1053D0008800909189009D838C8360E079E08DE363
:1053E00090E0A30192010E94283AA4E6B0E00E9456
:1053F000D639EC81FD8131969F0140E050E00E945A
:10540000283A29013A01A4E6B0E0A70196010E94DA
:10541000D639461A570A680A790A05E228E44EEF97
:10542000C301B2010E94A8098AE70E94ED070E9409
:105430004B088CED95E00E94B80C882309F443C01A
:10544000863960F0109281001092800088E087B960
:1054500014B822982596E2E10C94E03A813578F16F
:10546000FA81FF23D9F01150C501B4012AE030E0E0
:1054700040E050E00E94283A49015A01C701B601B4
:105480000E94283ACA01B9012AE030E040E050E029
:105490000E94283A362E2AE0298331C0163130F591
:1054A0001F5F163111F435E13983AAE0B0E0A501A0
:1054B00094010E94D6394B015C01312C20C08B3005
:1054C00008F03394212C832D90E0E9816E2F70E059
:1054D0006F5F7F4F0E94153A382E822D0E94B920AF
:1054E000282EFFEEF81708F0B5CEACCF2AE02983BE
:1054F00033243394812C912C5401839411E1212C79
:10550000A9CEA4E0B0E0E7E8FAE20C94C83A80EF54
:1055100091E092D183E28093800010926F008FEF30
:1055200090E090938B0080938A0083E086BB10927A
:10553000820015B881E184B988E088B929E027B9EB
:10554000229A81E090E090938900809388002093D4
:10555000810010E000E0A2E37A2E612CB4E6CB2EAD
:10556000D12CE12CF12C88248A9483E0982EA12C54
:10557000B12C7016E9F183E6871510F4ECE97E0E84
:10558000272D30E0AFEFB3E00E94C1396E5C7F4F52
:105590008F4F9F4FA70196010E94283A30938B00AE
:1055A00020938A0029833A834B835C830E940707F8
:1055B000A8EEB3E029813A814B815C810E94D63903
:1055C00061507E4F8F4F9F4FA50194010E94283A52
:1055D000DA01C90125E045E26FEF0E94970A0E94B7
:1055E0004B08F8E2F61518F48CE30E94220C072D04
:1055F00080E496E00E94B80C682E82E8861560F47C
:1056000088E087B9109281001092800014B8229827
:105610002496EEE00C94E43AE2E3E61518F4FAE09E
:105620007F0E03C0662011F0739410E0812F0E945A
:10563000B920182F803F08F49CCFE2CFCF93DF939F
:1056400089EB91E0F9D089E293E00E945A3BC82FA0
:10565000D0E081E80E94AB068C2F0E94AB060E942E
:10566000070724E040E260E08C2F90E00E94970A58
:105670000E944B0880E496E00E94B80C882331F029
:10568000823858F4893288F0CF5FD0E0CF778D2F01
:105690000E94B920D82F803FE0F26C2F89E293E07E
:1056A0000E94673BDF91CF910895C158EECF0F93D1
:1056B0001F93CF93DF938FED91E0BED08EE293E006
:1056C0000E945A3B182F00E00E940707C12FDD27D8
:1056D000C7FDD09517FF0BC08DE20E94ED0723E0B8
:1056E00045E26FEF882799278C1B9D0B04C023E0B0
:1056F00045E26FEFCE010E94970A0E944B0880E4BA
:1057000096E00E94B80C882331F0823888F4893200
:10571000C8F01F5F00E0113514F0155603C01C3EA1
:105720000CF41B59802F0E94B920082F803F60F293
:10573000612F8EE293E00E94673BDF91CF911F9132
:105740000F9108951150E6CF813011F480E075CAB1
:10575000823009F44CCD833009F4D3CE843009F47F
:10576000E5CC853011F40C94C320863021F40E94DE
:10577000BC060C940121873009F499CF883019F4C4
:1057800081E10C94130E893009F458CF8A3009F462
:10579000B1C18B3011F40C94BC0D0895FF920F939E
:1057A0001F93CF93DF9389E392E046D0D0E0C0E02F
:1057B0001BE01C0FF12C01E00F0D60E0802F880F23
:1057C0000E94840681E0F81204C08EE30E94ED0777
:1057D00002C00E9438081C3018F084EF810F01C00D
:1057E000812F62DC1F5F033011F0F02EE4CF80E4E4
:1057F0009FE10E94B80C8111D0E090913901913065
:1058000009F4D0E0823340F0CC2381F08C2F9CDF70
:1058100089E392E011D002C08111CF5FDF5FD837FA
:1058200028F4CC3008F4C4CFCC50C2CF80E0CDB740
:10583000DEB7E5E00C94ED3AA2E0B0E0E2E2FCE293
:105840000C94D33A89839A830E94BC0689819A81F9
:105850000E94950814E682E00E94220C4F9902C033
:105860001150C9F70E9407072296E3E00C94EF3A23
:10587000A4E0B0E0EEE3FCE20C94C93A882E762E68
:10588000862F90E0FC01EA5BFE4F14911860E82D32
:10589000F0E0ED5BFE4FB490FC01ED5BFE4F049138
:1058A0001092840110928301109277011092780176
:1058B0001092790110927A0187EF809389010E94FA
:1058C000891A88E088B917B904B905B9882D0E94EA
:1058D0005A0C8C01872D0E945A0C081B190B14B806
:1058E000109256011092550120E030E09CE2E92E22
:1058F000FF24F3944AE0A42E54E6952E809155019E
:1059000090915601843D904308F069C0B5B88091EC
:10591000550190915601892B89F06701C21AD30A6B
:105920006091550170915601A29EC001A39E900DF9
:1059300011240E94013AC616D70650F4B4B80E944A
:10594000150C14B88091550190915601019628C00C
:1059500080915501909156010B97C8F060915501C7
:1059600070915601929EC001939E900D11240E9449
:10597000013A6C157D0558F4B4B80E940A0C14B8AD
:1059800080915501909156018C599F4F09C0B4B830
:105990000E94100C14B880915501909156010A96FE
:1059A000909356018093550115B80E94170CA89545
:1059B000882D0E945A0C9C01201B310B80915501AF
:1059C000909156018B31964020F0253231050CF430
:1059D00088C02D3281E038070CF490CF05C02D32FD
:1059E000F1E03F070CF47DC0809155019091560184
:1059F000019729F4253145E034070CF072C000917D
:105A0000550110915601000F111FA80160E070E0D0
:105A100040937F01509380016093810170938201D4
:105A2000C90168E270E00E94153AC901860F971F0C
:105A30000E946F1E9C01D8010E94C13960937F01B2
:105A4000709380018093810190938201609377012C
:105A5000709378018093790190937A010E94141BCE
:105A600020917701309178014091790150917A012C
:105A70008EE293E029833A834B835C830E945A3BF6
:105A8000A8EEB3E0A81BB10987FDB39529813A813F
:105A90004B815C810E94E03920E137E240E050E038
:105AA0000E94283A2093770130937801409379013E
:105AB00050937A0188E080931E0120937B013093FC
:105AC0007C0140937D0150937E01809189018093F8
:105AD0008A0110928601109285017092870180924E
