:10000000CDC70000DDC70000DBC70000D9C7000076
:10001000D7C700000C947928D3C700000C94150EA4
:10002000CFC70000CDC700000C94A71E0C946B280E
:100030000C945D280C94811EC3C70000C1C700004A
:100040000C943728BDC70000BBC70000B9C700002B
:10005000B7C700000C94160EB3C70000B1C700006C
:10006000AFC70000ADC70000B200A900A000100893
:10007000407E01013E01013E01013E01017E404002
:1000800018000720080808F80000002060A03FA022
:100090006020020202FF0202021010101F00000086
:1000A0000708FFDBBDB5B5CBFF0708FFBB9DADADB6
:1000B000B3FF0708FFFFF7FB81FFFF10100508F8EB
:1000C00078385888091003081C3E7F0D080710FF78
:1000D000818181F1E1C1FF4040404743410D08016A
:1000E00010FFFF11080310F1E1C14743410E000862
:1000F000202121122060E0E0E0FEFE040201000168
:10010000037F7F21C2C4C4C040948400070301025E
:10011000040E080210FEFE7F7F00000000110005A3
:10012000202060E0E0E00201000103C2C4C4C0403E
:1001300007030102045245465F523D005245465FA7
:10014000433D00203E3130306E4600706E056D003C
:100150006B4D01041001020400111111131D101048
:1001600000000E11110A1B00041F111111111F04B0
:10017000001E0203021E0000000F0818080F0000F6
:100180001113171F1713110011191D1F1D1911002D
:100190001B1B1B1B1B1B1B005244533D005B435D81
:1001A00000310803083320003108070608090A084F
:1001B000332000432B455352405450313A330066AC
:1001C0004054503200203530487A00433073616D1E
:1001D0007020004330200052695F4C6F3D0052692F
:1001E0005F48693D0052303D0052482F524C002B71
:1001F00052482D203132203133203233002B524CE3
:100200002D2031322031332032330052482B00521E
:10021000482D005248663D005265663D0049434501
:10022000733D00494345303D0056657273696F6EFA
:1002300020312E31326B0008090A08000807060831
:10024000002A012020007A20513D0020696620000C
:100250002040302D35560008020800080108004EE5
:100260006F742063616C6962726174656421004916
:10027000723D004C3D0020566C6F73733D0020456D
:1002800053523D005643433D0043656C6C210008CA
:100290000308004056673D002056743D0055663DFA
:1002A000005562653D00203132333D0050696E20BB
:1002B00000424A542D504E5000424A542D4E504E4A
:1002C00000433D0043673D006846453D002D4947DA
:1002D0004254004A464554002D4D4F53004443209C
:1002E000507772204D6F6465004F4B004261742E51
:1002F000200043617020666F72204C206D65617331
:100300003F00436F6E74726173740073686F727430
:100310002050726F626573210053656C667465735B
:1003200074007475726E210043280546292D636F91
:100330007272656374696F6E00726F746172792096
:10034000656E636F6465720031302D626974205090
:10035000574D00662D47656E657261746F7200536C
:100360007769746368206F66660053686F772064EE
:1003700061746100566F6C746167650046726571E7
:1003800075656E6379005472616E736973746F7210
:100390000053656C656374696F6E3A0054657374DD
:1003A00020456E640069736F6C6174652050726FD4
:1003B000626573210053656C6674657374206D6F9C
:1003C00064652E2E0054696D656F757421006F721F
:1003D0002064616D6167656420004E6F2C20756E2E
:1003E0006B6E6F776E2C206F720020756E6B6E6F68
:1003F000776E00546879726973742E005472696163
:100400006300706172740064616D616765642000EF
:10041000656D70747921007765616B005465737444
:10042000696E672E2E2E00B903870358032E03072B
:1004300003E402C302A40288020000140029003E63
:10044000005300690080009700AE00C600DF00F88E
:100450000012012D01490165018201A001BE01DEEA
:1004600001FF012102440268028E02B502DE020988
:1004700003350364039403C803FE0337047304B411
:1004800004F90443059305EA054906B3062907AEB6
:10049000074808FF08DE09AF57B950C24A9745110F
:1004A00041133D87395A367E33E8308E2E692C71E0
:1004B0002AA128F5266925F923A222622137201EC8
:1004C0001F161E1E1D341C571B851ABF19031950F9
:1004D00018A61704176A16D6154915C2144114C573
:1004E000134E13DC126E1205129F113D11DF1084A2
:1004F00010000000000000000000000000000000EC
:10050000001E2121211200807F0000007E4A4A4AFD
:1005100034000000000000FC40201008040201002C
:100520000000010101010101010101010101017F3F
:100530000488D0E0F0F80000000000000000000097
:100540000000000000000000FC9494840000010200
:10055000FC0000000000000000000000001E21213F
:100560002112E0C0804020100F000000C020202099
:1005700040000000FC00009E9E04030303030200F1
:100580000000202023242525232020203F00007B5D
:100590007B2142840480C0000000000000000000B5
:1005A0000000000000FC949484000406070707087C
:1005B000F000000000000000000000000000803F8C
:1005C0002121120C00000000FF000000F008484844
:1005D000C80000FE0000E7818181C1E1F1818181D5
:1005E00001002020202121212020203F0000F34075
:1005F000404041434740407FC000000000000000F1
:100600000000000000000048949494640000000082
:10061000FF000000000000000000000000000000DB
:10062000003F2121120C0000FF000000F0084848A4
:10063000D0000000000000FEFE04040404040404D2
:10064000070008080809090908087F3E1C08087FF8
:100650007F20202020202020E0000000000000005B
:100660000000000000000000004894949464000022
:10067000FF0000000000000000000000FF003C0A36
:10068000090A3C002231292926000082868E9EBE5E
:10069000FEFEBEDEEFF6FAFEFEFAF2E2C2820000D5
:1006A0000008080804027984A4A46800FF00000080
:1006B000000000000000000000000000000000003A
:1006C00000000000FF0000F0282428F0001008FCC3
:1006D0000000000000000000000000003C0A090AC1
:1006E0003C00FF00000000000000000000000000CF
:1006F0000000000000040C1C3C7CFF7C3C1C0C0433
:100700000000000000009EA1A9A99A804323130BBA
:100710000703FF03030303030300000000000000BE
:1007200000000000788484844800FF00000000007E
:1007300000000000F00804E211090909090909098B
:1007400009091121C2040810E0000000010204049C
:100750000700000000008040201088442310080497
:10076000030000000000000000000000FE0100FC8B
:100770000201000000000000000000000000000076
:1007800000000000794949790000000000000000E5
:1007900000C0F818181818F8C00007060606060763
:1007A00000C0FCF8F0E0DCFCC0000F0703010E0FF6
:1007B00000C0FCDCE0F0F8FCC0000F0E0103070FE6
:1007C00000C0FCFC0000FCFCC0000F0F00000F0F7D
:1007D00000F0F80C0C0CF8F0000C0D0F000F0D0CD5
:1007E0000000FCFC0000F8F800381F0F03060307A8
:1007F000060C0C0C0C0CFCFCC00C0C0C0C0C0F0FA5
:1008000000C0FCFC0C0C0C0C0C000F0F0C0C0C0CA6
:100810000CC0C0C0C0C0C0C0C000000000000000CC
:1008200000C000008000008000070C0C070C0C07C3
:100830000C00800000800000C00C070C0C070C0CA2
:1008400007000000000000000000000000000000A1
:100850000000000000000000000000000000000098
:100860000000000000000000000000000000000088
:100870000000000000000000000000000000000078
:100880000000000000000000000000000000000068
:100890000000F8FC0602FEFE00381F0F08080F1FBC
:1008A00038FEFE0000FEFE00000F0F08080F3F1884
:1008B00000FEFE00F800FEFE000F0F080F080F3FBD
:1008C000180080E03010F0F000381F0F08080F1FEC
:1008D00038C0E028F828E0C000070F283F280F079D
:1008E00000F0F00000F0F000000F0F08080F3F18B4
:1008F00000F0F000F000F0F0000F0F080F080F3FBD
:1009000018000000000000000000000000000000CF
:1009100000000000000000000000000000000000D7
:1009200000000000000000000000000000000000C7
:1009300000000000000000000000000000000000B7
:1009400000000000000000000000000000000000A7
:100950000000000000000000000000000000000097
:100960000000000000000000000000000000000087
:100970000000000000000000000000000000000077
:100980000000000000000000000000000000000067
:100990000000000000000000000000000000000057
:1009A0000000007CFEFE7C00000000001B1B00001D
:1009B00000000E1E00001E0E0000000000000000DF
:1009C0000020F8F820F8F82000020F0F020F0F02A5
:1009D00000387C444747CC9800060C0838380F078D
:1009E00000081494C860301800060301040A0A04C1
:1009F0000080D87CE4BCD84000070F0808070F0827
:100A00000000080F070000000000000000000000C8
:100A1000000000F0F80C0400000000070F181000A0
:100A2000000000040CF8F00000000010180F070090
:100A3000004050F0E0F050400000010100010100D2
:100A400000004040F0F040400000000001010000C4
:100A500000000000000000000000002C3C1C000012
:100A600000C0C0C0C0C0C0C0000000000000000046
:100A700000000000000000000000000C0C0000005E
:100A800000000080C0603018000603010000000074
:100A900000F8FC060206FCF80003070C080C07032C
:100AA0000000181CFEFE0000000008080F0F0808D8
:100AB000000C0E82C2623E1C000E0F0908080C0CCE
:100AC000000406424242FEBC00040C0808080F075E
:100AD00000C0E0B098FCFE8000000000080F0F0886
:100AE000003E3E222222E2C200060C0808080F0740
:100AF00000F8FC262266C4800003070C080C0703DC
:100B000000060682C2623E1E0000000F0F000000B9
:100B100000BCFE424242FEBC00070F0808080F0757
:100B200000387CC68286FCF80000040C080C070321
:100B30000000003030300000000000060606000013
:100B40000000003030300000000020361E0E000093
:100B5000000040E0B0180C06000000000103060C85
:100B600000002020202020200000010101010101BF
:100B70000000060C18B0E04000000C060301000065
:100B800000181C86C2663C180000001919000000FD
:100B900000F8FC04E4E4FCF800070F080B0B0B0161
:100BA00000F0F88C868CF8F0000F0F0000000F0F9B
:100BB0000002FEFE4242FEBC00080F0F08080F07AD
:100BC00000F8FC060202060C0003070C08080C06DD
:100BD0000002FEFE0206FCF800080F0F080C0703D7
:100BE0000002FEFE42E2060E00080F0F08080C0E7F
:100BF0000002FEFE42E2060E00080F0F0800000091
:100C000000F8FC068282868C0003070C0808070F98
:100C100000FEFE404040FEFE000F0F0000000F0FE0
:100C200000000002FEFE0200000000080F0F080096
:100C30000000000002FEFE0200070F08080F070078
:100C40000002FEFE60F09E0E00080F0F00000F0F66
:100C50000002FEFE0200000000080F0F08080C0E44
:100C600000FEFE38E038FEFE000F0F0000000F0F00
:100C700000FEFE38E080FEFE000F0F0000030F0FA5
:100C800000F8FC060206FCF80003070C080C07033A
:100C90000002FEFE42427E3C00080F0F08000000EA
:100CA00000FCFE020202FEFC00070F080E3C3F277C
:100CB0000002FEFE42C6FC3800080F0F00000F0FB6
:100CC000001C3E6242C28E0C00060E0808080F0788
:100CD000000E0602FEFE02060E0000080F0F0800BE
:100CE00000FEFE000000FEFE00070F0808080F07C8
:100CF00000FEFE000000FEFE000103060C060301DC
:100D000000FEFE00F800FEFE00030F0E030E0F03B0
:100D100000069EF8F0F89E06000E0F0100010F0E6F
:100D200000003E7EC0C07E3E000000080F0F08009D
:100D3000000682C262321E0E000E0F090808080C5F
:100D4000000000FEFE0202000000000F0F08080075
:100D5000001C3870E0C080000000000000010307A4
:100D60000000000202FEFE0000000008080F0F0055
:100D700000080C0603060C0800000000000000003C
:100D80000000000000000000003030303030303013
:100D90000000000307040000000000000000000045
:100DA0000020B09090F0E00000070F0808070F083F
:100DB0000002FEFE1030E0C000000F0F080C070319
:100DC00000C0E030101030200003070C08080C04AD
:100DD00000C0E03012FEFE0000070F0808070F08F1
:100DE00000C0E0B090B0E0C00003070C08080C049D
:100DF000000020FCFE220E0C0000080F0F0800006F
:100E000000E0F01010E0F01000133724243F1F0022
:100E10000002FEFE2010F0E000080F0F00000F0F90
:100E200000000010F6F60000000000080F0F080098
:100E30000000000010F6F60000183820203F1F00C8
:100E40000002FEFEC0E0301000080F0F00010F0E80
:100E500000000002FEFE0000000000080F0F080066
:100E600000F0E030E030F0E0000F0F0007000F0F5F
:100E70000010F0E01030E0C000000F0F00000F0F76
:100E800000C0E0301030E0C00003070C080C07037E
:100E90000010F0E01010F0E000203F3F28080F079E
:100EA00000E0F01010E0F01000070F08283F3F208E
:100EB0000010F0E03010706000080F0F0800000014
:100EC000002070D09090302000040C0808090F0614
:100ED000001010FCFE101000000000070F080C04AA
:100EE00000F0F00000F0F00000070F0808070F08FE
:100EF0000000F0F00000F0F0000003070C0C070306
:100F000000F0F000C000F0F000070F0C070C0F0716
:100F1000003070C080C07030000C0F0301030F0C54
:100F200000F0F0000000F0F00013372424243F1FED
:100F30000030301090D07030000C0E0B09080C0CF3
:100F4000000040E0BE1F0100000000000F1F100065
:100F500000000000FFFF0000000000003F3F000015
:100F6000000000011FBEE040000000101F0F000045
:100F700000080C040C080C04000000000000000035
:100F80000080C0603060C0800007070404040707C9
:100F9000002020202020205B524C5D0011241FBE29
:100FA000CFEFD8E0DEBFCDBF11E0A0E0B1E001C0DF
:100FB0001D92A03DB107E1F70E9400360C94643DFC
:100FC0001FC85D98559A80FD599A80FF5998519A8B
:100FD000539A5A9867FD5B9A67FF5B985A9A5A989A
:100FE00066FD5B9A66FF5B985A9A5A9865FD5B9A14
:100FF00065FF5B985A9A5A9864FD5B9A64FF5B9808
:101000005A9A5A9863FD5B9A63FF5B985A9A5A986A
:1010100062FD5B9A62FF5B985A9A5A9861FD5B9AEF
:1010200061FF5B985A9A5A9860FD5B9A60FF5B98E3
:101030005A9A5D9A5A985B980895609350018093EC
:10104000040186958093B701660F660F660F609363
:101050000F0108951092B70160E080E0EECF60E0EC
:1010600082E0EBCF60E084E0E8CF60E086E0E5CFAF
:1010700080915001809301018091B7018093030119
:1010800008958091030160910101880FD6CF682FE8
:1010900080E097CF8EEAFBDF85EAF9CFCF93DF932D
:1010A000C0E080E1F4DF80E0F2DF8C2F806BEFDFC7
:1010B000D4E860E081E085DFD150D9F7CF5FC83058
:1010C00081F7C8DFDF91CF91089558985A985B98BF
:1010D0005D98509A529A539A559ABCD35D9A559AF4
:1010E0005998519A84E1BDD3589A84E1BAD38EEAD3
:1010F000CEDF82EECCDF82EACADF80EAC8DF80EC96
:10110000C6DF8FE2C4DF84E2C2DF81E8C0DF80E0B7
:1011100090E00E94263D8F73BADF80E4B8DF84EA56
:10112000B6DF86EAB4DFBADF8FEAB1DF60E080E0E5
:1011300084CF0895582F28E030E090E841E080E027
:10114000642F652309F0892B440F969521503109AE
:1011500021153105A9F70895A0E0B0E0E2EBF8E031
:101160000C94963CEC01C02ED12CC601860F911D2B
:10117000813891050CF071C0F12CE40EF11C81E472
:10118000E816F1040CF069C0142F16951695169503
:1011900081E0E81AF10843E0F594E7944A95E1F715
:1011A000822F8270582E21FF0DC0F701FF27E11B0F
:1011B000F109EC9DC001ED9D900DFC9D900D112459
:1011C000C80FD91F87E08E1510F437E0E32EF62EF6
:1011D000F2948FE0F8228F2D8061F82E97E0292E6F
:1011E000211A6F70462E2170322E460181E0881A36
:1011F0009108E11660F1822D806B49DF8F2D47DF6A
:10120000842D45DFA12CB12C3E01680C791CA01661
:10121000A0F4332021F0F301EA19FB0903C0FE0119
:10122000EA0DFB1D8491511001C084DF682F81E01D
:10123000C8DE8FEFA81AB80AEACF552019F0CC19EA
:10124000DD0902C0CC0DDD1D1F5F2A94D2CF87E0DF
:1012500090910401891B806B1ADFCDB7DEB7E2E104
:101260000C94B23CEF920F93282F8F7030E6839F3F
:10127000C00111248F509B4F322F307324FF02C0C6
:1012800028E001C028E420931001303218F01092B9
:10129000000108C020E220930001209110012D5E82
:1012A0002093100150E2E52E08E120E0409100017A
:1012B0006091100151DF0F91EF900895EF920F931D
:1012C000262FFC01649131964491FC0132960491E1
:1012D000FC013396E49050910001450F50911001AC
:1012E000650F049639DF0F91EF90089560E0E6CF27
:1012F000EF920F93909150019F5F90935001409116
:101300000401440F440F440F20E1829FC0011124C7
:1013100060E1E62E08E020E060910F018F56984FC3
:101320001BDF80910F01885F80930F010F91EF9079
:1013300008958F5CDDCF80E2DBCFA1E0B0E0E3EA8F
:10134000F9E00C94A63C18162CF48983F4DF89810B
:101350008150F9CF2196E2E00C94C23C909150016B
:1013600080E1891BEACFA1E0B0E0E9EBF9E00C9461
:10137000A63C8983F3DF9091B7019F5F9093B701FB
:101380006981943038F083E08093B70181E08093E5
:10139000530102C0109253018091B701880F4DDEB6
:1013A0002196E2E00C94C23CDEDF9FC353DED6DF21
:1013B00051CE55DED3DF53CE8DE39ACFCF93DF935B
:1013C000EC018991882311F093DFFBCFDF91CF915E
:1013D0000895CF93DF93EC01FE018491982F9F77BE
:1013E00019F086DF2196F8CFDF91CF910895EF9223
:1013F0000F93FC0104913196E4900296ADDE0F91BB
:10140000EF9008950F9384EC92E0E3DF40919B010D
:101410004D3F64F46091890170918A0180918B0144
:1014200090918C0103E026E4E6D002C08FE360DFF8
:101430000F91089597FF09C08F939F938DE258DF16
:101440009F918F91909581959F4F6CE271E04AE05A
:1014500050E00E94123DB2CFEDDF01C0EBDF6BCF59
:10146000EF92FF920F931F93182F062FF42E86EA08
:1014700092E0AFDFEE24E0915101F09152018685B8
:10148000E81611F4812F09C08485E81611F4802F25
:1014900004C08585E81611F48F2D2ADFE3948E2D84
:1014A000833049F71F910F91FF90EF900895EF92CD
:1014B000FF920F931F93182F062FF42E80E074DFF6
:1014C0008CEA92E086DFEE248E2D33DF75DFE0912B
:1014D0005101F09152018685E81611F4812F09C05F
:1014E0008485E81611F4802F04C08585E81611F470
:1014F0008F2DFEDE20DFE3948E2D833029F71F91A0
:101500000F91FF90EF900895682F80E092E066239E
:1015100009F491E0623009F481E008950F93082FF7
:10152000E8EBF1E0880F880FE80FF11D6081718111
:1015300082819381643671058105910570F4209153
:10154000020127FD0AC0802FDFDF692F0E94F423EC
:101550006EEF23E044E01BD104C04FEF04E024E031
:101560004AD0E9DE0F910895863058F4EBEAF1E0B5
:10157000E80FF11DE80FF11D8081918163E012D128
:10158000DACE08951F93182F80918401882319F0D3
:10159000D2DE80E0ADDE63DD8DE992E01ADF812FDF
:1015A00082958F70E1DF812F8F70DEDF1F910895AC
:1015B000CF93DF938091110182958F70CFE9D1E0B5
:1015C000C80FD11D8881B5DE8BE592E002DF8E81E8
:1015D000B0DE8BE592E0FDDECFE9D1E08091110134
:1015E0008370C80FD11D8E81A4DE80911101CADFE6
:1015F000DF91CF910895A0E0B0E0E1E0FBE00C9432
:10160000983CD42FC22F6B017C01F7FE0AC08DE2FB
:101610006FDEF094E094D094C094C11CD11CE11C06
:10162000F11C033009F4A0C0043009F4A4C0053053
:1016300051F0063081F00730B1F074E6872E912C1E
:10164000A12CB12C17C060EA862E66E8962EAA243B
:10165000A394B12C0FC050E4852E52E4952E5FE088
:10166000A52EB12C07C040E8842E46E9942E48E907
:10167000A42EB12C3AE0432E512C612C712CC814AD
:10168000D904EA04FB0470F0C701B6016B5F7F4F19
:101690008F4F9F4FA30192010E94FA3B69017A018B
:1016A000DF5FEDCF0EE00D0F1BEA019F012D11242E
:1016B000069586E08D1B819F112D11241695912F83
:1016C000990F910F182F191B2AE030E041E451E0E7
:1016D000C701B6010E94EF3CA1E4B1E00D900020EB
:1016E000E9F71197A154B140BA2E9D013327812FFC
:1016F00090E004968217930714F40F5F1D5FE02FAC
:10170000F0E0E55BFE4FA490DA2FD11B1D1634F0FC
:101710008EE2EEDDDD2311F080E3EADD111101C080
:10172000DFEF21E4E22E21E0F22E8701CD2EDD2431
:10173000C7FCD094802F8E198B1568F4F801819125
:101740008F01D6DD9801215431402C153D0591F7CC
:101750008EE2CEDDEFCFAA2011F08A2DC9DDCC2399
:1017600089F08C2FC5DD0EC098EE892E93E0992E5E
:10177000A12CB12C7FCF80E1882E87E2982EA12C5E
:10178000B12C78CFCDB7DEB7E0E10C94B43C0F9329
:10179000362FBC0180E090E0022F242F432F2BDF57
:1017A0000F9108950F93062FBC0180E090E026E58D
:1017B0004DEF21DF0F910895E82FF0E0EE0FFF1FAE
:1017C000E859FF4F8591949120910001420F20919B
:1017D0001001620F20E00BCECF93DF93C82FD62FDE
:1017E000E0915101F091520148E16EE18685E4DF1C
:1017F000E0915101F09152014D2F6C2F8485DCDF77
:10180000E0915101F091520140E06EE18585D4DF15
:10181000DF91CF910895089503D002D001D000D078
:1018200000D003D002D001D000D000D003D002D02D
:1018300001D000D000D0A89503D002D001D000D0B4
:1018400000D003D002D001D000D000D003D002D00D
:1018500001D000D000D003D002D001D000D00000D1
:10186000089590E0893C28F0885C48EC849FC00192
:101870001124009709F4089520918100277019F030
:10188000DADF0197F6CF8130910519F002973EE338
:1018900003C037E180E090E02091B200230F209355
:1018A000B30042E04093700027E023BF889526E014
:1018B00023BF10927000A895DCCF8F9384E0D1DF16
:1018C00007C08F9382E0CDDF03C08F9381E0C9DF33
:1018D0008F911F93182F106410937C00E12FE078F4
:1018E00080913701E81759F0E0933701AEDF8EE9B8
:1018F00080937A0083E083BF889582E083BF20E0F5
:1019000030E0A901E0E01FC08EE980937A0083E017
:1019100083BF889582E083BF6091780070917900E1
:10192000260F371F411D511DE43061F480913901AC
:10193000803041F084E02030380720F417FD02C0E9
:101940001068CACFEF5F80913601E817E8F2609126
:101950003A0170913B0117FF04C06091380170910A
:10196000390180E090E00E94C43B2FEF33E040E07B
:1019700050E00E94FA3BB901CA012091360130E0E3
:1019800040E050E00E94FA3BC9011F91089589B1DF
:1019900083FB882780F94999826090911C019430DB
:1019A00050F09EE0909318018093190110921D0150
:1019B00091E090931C01E0911C01AE2FB0E0A85E75
:1019C000BE4F9C91981721F181111AC0A3E0AE0F70
:1019D000A37020911D01923041F4B0E0A85EBE4F8B
:1019E0009C91933069F42F5F09C0913049F4B0E0C5
:1019F000A85EBE4F9C91933019F4215020931D0195
:101A0000EF5FE370E0931C01F0E0E85EFE4F80833F
:101A100080911D0187FD819580931E010895A0E0AE
:101A2000B0E0E5E1FDE00C949F3CD82EC92E539820
:101A3000519806DF10921D01E0911C01F0E03196F3
:101A4000E370FF27E85EFE4F80EF8083C5E6D9E1B3
:101A50009EDF4F9905C0F8DED150D1F7C150B9F7DC
:101A6000CD2DDC2DF12C05E510E0BB24B394D7FD82
:101A700036C082E3E82E8BDFE7DEEA94E1F7000F61
:101A80004F9B0F5F0F730F3349F4111103C0CD2D1E
:101A9000DC2D14E01F5F163928F021C0011102C0AF
:101AA00011111DC0A8951C161D062CF42A9720970D
:101AB00011F4CFEFDFEF80911E01882339F0F3940A
:101AC00080918501811102C0B092850184E18F155A
:101AD00070F680911D01811102C0F12CC8CF812FB9
:101AE000CDB7DEB7E9E00C94BB3CCF93C1DAC82F89
:101AF00080915301882301F1813051F4C33041F4C6
:101B00006FE086E09ADA8BE2F3DB6FE086E095DA4D
:101B100080E49FE184DF811104C080911E01811166
:101B2000F7CFC33041F480915301813021F460E05C
:101B300086E083DA13DCA5DACF91089589E290E09C
:101B40000E94263D382F8AE290E00E94263D209197
:101B50003E01230F30913F01381F20932101309324
:101B6000220183E0283E380720F0C901885E9340B7
:101B700002C080E090E062E370E00E94D33B6830F6
:101B800008F067E0E7E2F4E0E60FF11DE60FF11D73
:101B9000459155912591359162E3681B421B530B8A
:101BA000649FC001659F900D1124499662E370E027
:101BB0000E94D33B620F731F70938801609387016B
:101BC0008BE290E00E94263D992787FD90956091D9
:101BD0003E0170913F01860F971F909339018093CA
:101BE000380190938301809382010895CF93DF930E
:101BF00024E130E0B9010E94D33BDC01E9E3F4E0E9
:101C0000E60FF71FE60FF71FC591D5914591559146
:101C10004C1B4A9FC0011124B9010E94D33B6C0F99
:101C20007D1FCB01DF91CF910895189518951092E3
:101C300025011092230110927D01109263011092F0
:101C4000240110924F0110928401109268011092A9
:101C5000690110926A011092990182E080939A01C1
:101C600010920201109298011092970110928D012A
:101C700010928E0110928F011092900181EF80934B
:101C80009C010895A1E0B0E0E8E4FEE00C94A43CDF
:101C900017B818B8E82FF0E0EE5AFE4F949195B9B6
:101CA000262F281BE20FF11D27FDFA95E491E92B61
:101CB000E4B969830EDE8C016981862F0ADE2091EA
:101CC0003A0130913B0136952795A90143505109BE
:101CD000B801625E7F4F4617570778F4255E3F4F85
:101CE0000217130750F4BC01625E7F4F4617570777
:101CF00020F441E08217930708F040E014B8842FE5
:101D00002196E4E00C94C03CCF9361E080E0BADF20
:101D1000C82F62E080E0B6DFC80F62E081E0B2DF8A
:101D20008C0FCF910895A3E1B0E0E9E9FEE00C94B7
:101D3000963CB82E10922501807FA9F4E5DF833010
:101D400009F0B2C3ABD985EB93E043DB88D98FE3CD
:101D5000CFDA80ED97E063DE8B30C0F49FD989E263
:101D600092E037DBA1C306E910E098D98BE093E05D
:101D700030DBCADF833021F41F5F143010F006C05F
:101D800010E088E26EDD015081F761C068D985EE10
:101D900091E01FDB60E083E090E00E94333D60E073
:101DA00084E090E00E94333D60E082E090E00E9499
:101DB000333D60E082E00E94F4236C019A838983C2
:101DC00061E082E00E94F4237C019C838B8360E0CD
:101DD00081E00E94F4238C019E838D8323E040E206
:101DE0006EEFC601D4DC23E040E26EEFC701CFDC2A
:101DF00023E044E06EEFC801CADC2AE5C216D10434
:101E000024F024E130E03A832983698183E090E083
:101E10000E94333D8AE5E816F10424F024E130E025
:101E20003C832B836B8184E090E00E94333D0A3534
:101E3000110524F024E130E03E832D836D8182E0A2
:101E400090E00E94333D82E0809353014EDE9B2D53
:101E50009F709F87913009F04FC001E010E058EB70
:101E6000252E52ED352E57E4452E512C62E0A62E3C
:101E700078E0972EECE06E2EF4ECCF2EF6E3DF2E1A
:101E8000E12CF12C3BC0839423E0281568F191DA12
:101E90008DDA84E52DDAC801D8DA4DDAE1E0BE1238
:101EA00032C088E192E095DA0E94F81E64E08091E9
:101EB0003E0190913F0176DCD2D883E192E089DA4D
:101EC0008091870190918801C0DA8EEB8093360172
:101ED00017B818B814B815B888EE93E0A0DDF4E090
:101EE000BF1689F28B3078F288EE93E098DD0F5FB1
:101EF0001F4F0830110511F418E71CC1812CB02EBA
:101F0000B0E27B2EC4CFF2E0BF1241C020913A0173
:101F100030913B01A8E5BBE10E949F3BA7019601E0
:101F20000E941C3C81E085B985E084B980E0288B63
:101F3000398B4A8B5B8BC1DC288939894A895B895B
:101F4000821B930B9A83898381E184B980E0288B7B
:101F5000398B4A8B5B8BB1DC288939894A895B894B
:101F6000821B930B9C838B8384E085B984E184B9C5
:101F700081E0288B398B4A8B5B8B9FDC28893989E0
:101F8000821B930B9E838D838DEF91E0B7C093E00E
:101F9000B91229C0A5B8EAE0E4B980E08EDC20914E
:101FA0003A0130913B013695279538872F83821B64
:101FB000930B9A838983F2E2F4B980E07EDC2F816F
:101FC0003885821B930B9C838B8395B828E224B9B8
:101FD00081E073DC2F813885821B930B9E838D8378
:101FE0008FEE91E08BC084E0B81207C085EA93E0E1
:101FF000F0D98ADE811155C287C095E0B91213C0AD
:1020000015B8A4B880E059DC9A83898394B881E03C
:1020100054DC9C838B8374B882E04FDC9E838D8379
:102020008FE092E06BC0E6E0BE1227C0A4B8A5B86E
:1020300080E043DC20913A0130913B01821B930BFD
:102040009A83898394B895B881E037DC20913A016E
:1020500030913B01821B930B9C838B8374B875B8C2
:1020600082E02BDC20913A0130913B01821B930BE3
:102070009E838D838BE092E041C0F7E0BF1240C0A9
:1020800020913A0130913B01A8E5BBE10E949F3BC2
:10209000A20191010E94FA3BA5B883E084B980E0D7
:1020A000288B398B4A8B5B8B08DC288939894A89D4
:1020B0005B89821B930B9A83898395B864B881E00E
:1020C000288B398B4A8B5B8BF8DB288939894A89C5
:1020D0005B89821B930B9C838B8375B890E394B9C7
:1020E00082E0288B398B4A8B5B8BE7DB2889398927
:1020F000821B930B9E838D8389EE91E06AD904C085
:10210000E1E0BE1609F4E4CE0E942F0889819A818D
:1021100091D911D98B819C818DD90DD98D819E81C9
:1021200089D9D6CE46D985EA93E053D984E699DB9E
:10213000115019F0E9DD8111F5CF0E944E088EEDA6
:1021400091E047D923E044E06FEF80913C0190910A
:102150003D011DDB0E942F0887ED91E03AD923E075
:1021600044E06FEF80914D0190914E0110DB82E0D1
:1021700080935301BADC109225010E944E0883ED32
:1021800091E027D960E082E00E94B21B809091012B
:1021900090909201A0909301B09094019C868B86C0
:1021A00061E082E00E94B21BC0909101D090920148
:1021B000E0909301F0909401DE86CD8660E081E0AE
:1021C0000E94B21B00919101109192011E830D8318
:1021D00062E080E00E94B21B809191019091920197
:1021E0009C838B8362E081E00E94B21B809191010D
:1021F000909192019A87898761E080E00E94B21BEA
:1022000080919101909192019A838983EF85E130C9
:1022100021F020914C01223021F4029698878F837F
:1022200004C098878F8310924C01C40117D9C6014E
:1022300015D9B801882777FD8095982F03E026E40B
:1022400044EFD9D96E01FFE0CF0ED11CFE013196CB
:10225000819191910A97853B9105E8F4EC15FD0574
:10226000B9F7A2E2EA2EA0E0FA2E8E010F5F1F4F0F
:10227000F80160810E5F1F4F6E5EC7010E94333D03
:10228000FFEFEF1AFF0A0C151D0591F70E942F08AA
:1022900089EE92E09ED882E08093530126DC0E9472
:1022A00033330E94C1352F85213029F080914C01B4
:1022B000823009F0E0C0E0E4BE2E10E0FAE0CF2E5C
:1022C000D12CE12CF12CB3DC0E944E0880E031D8F7
:1022D0008FE892E07ED882E02CD883E491E079D830
:1022E0001092250160E082E00E94B21B00919B01E8
:1022F0006091890170918A0180918B0190918C018C
:10230000073F44F4A70196010E94FA3B0F5FB90111
:10231000CA01F6CF00939B016093890170938A01F3
:1023200080938B0190938C01073F09F08FC0DC01F3
:10233000CB0180569109A109B10980399545A105C4
:10234000B10508F083C060919D0170919E01CB01A1
:102350008B569F4F8B32914008F078C01F5F15302D
:1023600008F475C089E290E00E94413D0E944E0849
:102370008CE391E02ED880919D0190919E015AD8D6
:10238000DDDB18B881E087B980E284B982E0A1DAA8
:10239000853D9340DCF714B8109239011092380152
:1023A00082E097DA8C018091820190918301909371
:1023B00039018093380182E08CDA7C01EE0CFF1C3D
:1023C000109239011092380182E083DAC0908201C4
:1023D000D0908301D0923901C0923801080F191FA3
:1023E0000E191F090E942F0885E391E00E94E90958
:1023F0008BE290E00E94263D73E0B72EB80E960166
:10240000D8010E94AE3B9701442737FD4095542FD9
:102410000E941C3CB20E6B2D8BE290E00E94333D7B
:102420008B2D992787FD909505D888DB82E08093D6
:1024300053015BDB10924C0182E290E00E94263D4A
:10244000682F85E290E00E94333D15C010E00E94A5
:102450002F086091890170918A0180918B01909180
:102460008C0104E026E440919B01C5D888E2F9D9AB
:10247000BA9409F028CF89E1809336010E944E0872
:1024800089E292E00E94E9090E942F088CE993E01A
:102490000E94E9091092250182E08093530125DB17
:1024A00003C052E0852E30CE6396E2E10C94B23C3C
:1024B00080914C0181110DC082E290E00E94263D86
:1024C00061E0680F85E290E00E94333D81E08093F7
:1024D0004C010895CF92DF92FF920F931F93CF93F9
:1024E000DF931F92CDB7DEB7E82FF0E0EB5AFE4F37
:1024F000E491E8B9E7B915B8E62FF0E0EE5AFE4FDF
:10250000E491E4B908E813E1FE2EFF0C862F6983FD
:10251000D4D96C01F4B869818017910710F48C014B
:10252000F5CF0097E1F00E9435088FE692E00E9417
:10253000E909D60120EA36E841E050E00E94B43BC8
:1025400028E937EB40E050E00E94FA3BDA01C9018C
:1025500022E041E467EF1BD917B818B814B80F9000
:10256000DF91CF911F910F91FF90DF90CF90089551
:102570000F931F93CF93DF9385E0ABD985E0A5D967
:10258000EC018C01000F111F000F111F0A561F4F85
:1025900010924001043883E0180750F48DED92E06A
:1025A0000E94E9090E94AE0981E08093400125C0A4
:1025B0008CEE92E00E94E90962E0C801F3D80E9423
:1025C0009B09CA3F86E0D80790F4C333D64060F435
:1025D00080E194E00E94E9090E94AE098DEC41D9A6
:1025E0005E988AEC3ED909C087E194E002C089EE8A
:1025F00092E00E94E9090E94AE09DF91CF911F91FC
:102600000F910895A4E1B0E0E8E0F3E10C94963C6A
:10261000982E862E442EA895E62FF0E0EE5AFE4F17
:1026200054903396E490E42FF0E0EE5AFE4F64901D
:10263000E82FF0E0EE5AFE4FF4903396749065B8B0
:10264000262D25292C8B24B977B878B8862F3DD92B
:102650009E838D8354B8882D38D91C0114B8EBD8CB
:1026600015B83C8934B9882D30D94D815E818417E5
:10267000950720F5805E9E4F4817590708F4C5C49A
:10268000E7B818B8F5B88F2D862984B960913A015A
:1026900070913B017E836D83892D17D9AD81BE81F9
:1026A000A81BB90BBE83AD83F4B820903A013090DB
:1026B0003B01892D0AD9281A390A08C02D813E818B
:1026C000205E3E4F8217930708F49FC42091630158
:1026D00080917D0190E0820F911D02974CF0213096
:1026E00009F093C49091600180917A0198138DC490
:1026F000162D110FED81FE81E437F10508F49CC021
:10270000CF01880F991F44962816390608F094C007
:1027100077B878B8812F852984B9882DD2D86C01F3
:10272000842DD7D85C0115B9882DCBD89601295AAC
:102730003D4F1F2918B8E7B814B915B9281739073C
:10274000A8F5842DBED888349F4028F084E080937B
:10275000250182E204C084E08093250184E2809315
:102760002401D0925901C0925801AC14BD0440F428
:10277000C6018A199B0990935F0180935E0104C092
:1027800010925F0110925E019601A0E1B7E20E94F3
:102790009F3B20911F013091200140E050E00E94BA
:1027A000FA3B30935B0120935A0127C4892D89D8C5
:1027B0008C01842D8ED86C01F5B8892D82D8895A68
:1027C0009D4F8017910708F020C478B877B8842D02
:1027D00078D8813D934028F484E08093250182E3FA
:1027E00004C084E08093250184E3809324010C15C8
:1027F0001D0538F4C01AD10AD0927901C09278012F
:1028000004C0109279011092780120913A01309120
:102810003B01201B310BA0E1B7E20E949F3B2091BE
:1028200026013091270140E050E00E94FA3B3093AE
:10283000750120937401B1C118B8E7B8F5B80F2D30
:10284000062904B9892D41D898878F83C0903A0111
:10285000D0903B01842D3DD89A8389830A97A0F5B7
:1028600014B881E00E94310C812F8F2984B9892D01
:102870002CD898878F8340913A0150913B01481B97
:10288000590B5C834B83842D24D89A838983809150
:102890002601909127019C0140E050E060E677EB33
:1028A00087E490E00E94FA3BAB81BC810E94B43B7C
:1028B000A981BA819D0140E050E00E94FA3B29873E
:1028C0003A874B875C8716C0F6012F813885E21B5B
:1028D000F30BFC83EB83CF0149815A81841B950B59
:1028E000BA010E94D33BCB01A0E0B0E089879A8770
:1028F000AB87BC8714B815B878B877B881E00E9468
:10290000310C99EB291697E0390608F07EC3AC89A3
:10291000A4B9882D0E94650C8F359D4008F443C1F1
:1029200014B881E00E94310CEC89E4B981E00E9486
:10293000310CF12FF529FB8BF4B9882D0E94650C21
:102940006C01842D0E94690C9E878D87892D0E94C1
:10295000690C5C012D853E85213D374008F4AEC0F1
:1029600083E0809325018DE08093240136012C14AF
:102970003D0410F462187308E0901F01F0902001EC
:1029800000E010E060E677EB87E490E0A8019701B3
:102990000E94FA3BD3010E94B43BAD85BE859D01E8
:1029A00040E050E00E94FA3B80917D01882369F06D
:1029B00080916E0190916F01A0917001B0917101B1
:1029C00082179307A407B50700F520936E01309393
:1029D0006F0140937001509371019601A0E1B7E23D
:1029E0000E949F3BA80197010E94FA3B309375011A
:1029F00020937401C501ED85FE858E1B9F0B90937E
:102A000073018093720121E001C020E080916E018A
:102A100090916F01A0917001B091710149855A8523
:102A20006B857C8584179507A607B70738F5409313
:102A30006E0150936F0160937001709371018F81EB
:102A4000988569817A81861B970B90937301809397
:102A500072012B813C81A0E1B7E20E949F3B209153
:102A600026013091270140E050E00E94FA3B205FB0
:102A7000384D309375012093740103C0222309F46B
:102A800088C39101A0E1B7E20E949F3BA801970192
:102A90000E94FA3B30937701209376012D813E818D
:102AA000A0E1B7E20E949F3BA80197010E94FA3B78
:102AB000309379012093780121E06BC371E62716EA
:102AC000310408F070C081EDC81687E0D80608F41C
:102AD0006AC084E08093250182E180932401C601CD
:102AE00086509F4F8A159B0520F483E18093240133
:102AF0001AC0CA14DB0498F4A0911F01B091200100
:102B000095012C193D090E949F3B960140E050E041
:102B10000E94FA3B309373012093720104C010921B
:102B20007301109272019E2D9770E92E842D80649E
:102B300080937C007BE0F72E01E010E0CC24CA9467
:102B4000E3E0DE2EA89561E0862D29D5AB89A4B9F6
:102B500086B18E21E9F354B880917A008064809325
:102B60007A0080917A0086FDFCCF80917800909168
:102B70007900F601E81BF90B0E0F1F1FFA9411F7ED
:102B8000C801880F991F880F991F69E070E00E94A3
:102B9000D33B709379016093780180917D018F5FC1
:102BA00080937D0189CFFC89F4B965B8882D0E9496
:102BB000650C5C01842D0E94690C9C838B83609161
:102BC0003A0170913B01681B790B6A30710590F5F1
:102BD00014B881E00E94310C812F852984B915B980
:102BE000882D0E94650C5C01842D0E94690C9C83D9
:102BF0008B8380911F01909120019C0140E050E067
:102C000060E677EB87E490E00E94FA3BD5010E94F2
:102C1000B43B20913A0130913B014B815C81241BF4
:102C2000350B40E050E00E94FA3B29873A874B87FA
:102C30005C870CC0C501861B970B0E94D33BCB0160
:102C4000A0E0B0E089879A87AB87BC87E7B818B85F
:102C500004B905B9892D0E94650C98878F83842D4E
:102C60000E94690C9A838983882D0E94690C6C01EB
:102C70002F8138852034364008F0C5C1F5B8892D3C
:102C80000E94650CAC01F4B8892D498B5A8B0E94C7
:102C9000650C9C0115B881E02F87388B0E94310CA0
:102CA000F5B8892D0E94650C2F85388949895A8984
:102CB0002034364008F059C08133914108F455C0A2
:102CC0008F8198858A569F4F4817590708F04DC045
:102CD00085E080932501809163018F5F809363017C
:102CE00089819A818C199D0990935901809358018B
:102CF0002F8038842C183D0830925F0120925E01AD
:102D000014B815B8E8B881E00E94310CF4B8892DE8
:102D10000E94650C853F910508F049C204B9842DD5
:102D20000E94650C813D934008F441C2892D0E94A8
:102D3000690C8D3D924008F43AC2F4B8892D0E9486
:102D4000650C8D3D924008F432C2F5B881E00E94D6
:102D5000310C15B8892D0E94650C853F910508F04E
:102D600026C286E08093250122C204B905B981E01C
:102D70000E94310CD12EDF28D4B8D5B8892D0E94FD
:102D8000650CAC0100913A0110913B01081B190B35
:102D9000842D498B5A8B0E94690C9E878D872091C8
:102DA0003A0130913B01281B390B3A832983882D46
:102DB0000E94690C98878F8349895A8969817A8131
:102DC0006E3F794008F4B0C083E0809325018CE029
:102DD0008093240138012016310610F4621873081C
:102DE00080912601909127016C01E12CF12C60E685
:102DF00077EB87E490E0A70196010E94FA3BD301AC
:102E00000E94B43BA981BA819D0140E050E00E943C
:102E1000FA3B80916301882369F08091540190917D
:102E20005501A0915601B091570182179307A4074D
:102E3000B50708F52093540130935501409356018E
:102E4000509357018D859E85EF81F8858E1B9F0BD2
:102E500090935901809358019801A0E1B7E20E9434
:102E60009F3BA70196010E94FA3B30935B012093A0
:102E70005A0121E001C020E0809154019091550158
:102E8000A0915601B091570149855A856B857C8583
:102E900084179507A607B70720F540935401509370
:102EA000550160935601709357018B819C818A195B
:102EB0009B0990935901809358019501A0E1B7E2D5
:102EC0000E949F3B20911F013091200140E050E083
:102ED0000E94FA3B205F384D30935B0120935A01EA
:102EE00003C0222309F464C19101A0E1B7E20E946A
:102EF0009F3B20911F013091200140E050E00E9453
:102F0000FA3B30935D0120935C012D813E81A0E16D
:102F1000B7E20E949F3BA70196010E94FA3B3093C3
:102F20005F0120935E0143C161E62616310408F07B
:102F30006AC009347DE0170708F465C084E0809317
:102F4000250182E0809324018F81988586509F4FD0
:102F50008417950720F483E0809324011CC08F819F
:102F600098858417950798F4A0912601B0912701C0
:102F70009A01281B390B0E949F3B980140E050E0CA
:102F80000E94FA3B309359012093580104C01092DB
:102F9000590110925801072D0770842D8064809389
:102FA0007C001BE0AA24A394B12CA89560E0862D98
:102FB000F6D2D4B8D5B886B18023E9F7F4B88091B9
:102FC0007A00806480937A0080917A0086FDFCCF3D
:102FD0008091780090917900A80EB91E115029F7C0
:102FE000C501880F991F880F991F69E070E00E9442
:102FF000D33B70935F0160935E01809163018F5FAB
:1030000080936301D4C017B818B814B815B817B8AE
:1030100097EC291691E0390608F4B0C018B818ECFE
:10302000072D0E2907B981E00E94310CE7B8892DE0
:103030000E94690C429710F01150A1F7452C440CE6
:103040003F2C330C34B835B861E0862DA8D2892DD9
:103050000E94650C8C0144B815B877B878B860E068
:10306000862D9DD2A0903A01B0903B01882D0E9400
:10307000650C6C0154B8892D0E94650C9A83898374
:10308000882D0E94690C29813A81281B390B3A83CB
:10309000298318B8E7B8F4B8F5B861E0862D7FD277
:1030A000892D0E94650C7C01882D0E94690CE81A0C
:1030B000F90A49815A814E155F0540F434B835B894
:1030C000892D0E94650CFA82E98215C085010C19D0
:1030D0001D0944B815B877B878B860E0862D5FD27E
:1030E000E0903A01F0903B01882D0E94650CB701F9
:1030F000681B790BCB0129813A812759310929387D
:103100003141E0F529813A8182179307B8F5C8016A
:1031100033E0969587953A95E1F7893C910510F053
:1031200088EC90E0800F911F49815A8184179507A0
:1031300028F5CA0124E0969587952A95E1F780172E
:103140009107E0F480912501823018F482E08093A9
:10315000250180912301E82FF0E0DF01A156BE4F49
:103160009C9216968C92EE0FFF1FE555FE4F29811B
:103170003A81318320838F5F80932301682D892DCD
:1031800025D017B818B814B815B86496E2E10C94B5
:10319000B23C80917D018F5F80937D01222389F372
:1031A00040927A0180927B0190927C01EACF21E0EB
:1031B000809163018F5F80936301222311F340921A
:1031C00060019092610180926201DBCFA0E0B0E0EB
:1031D000ECEEF8E10C94983C982E862EA895E62FFC
:1031E000F0E0EE5AFE4F549033962491E82FF0E031
:1031F000EE5AFE4FE4903396F49030917D01809129
:10320000630190E0830F911D892B09F0C3C1A8953C
:103210008091290190912A01880F991F880F991F89
:1032200090933B0180933A018091820190918301B8
:10323000880F991F880F991F909339018093380147
:103240008EEB8093360118B827B9E4B8E5B858E199
:10325000D52EC0E0D0E0882D0E94650C782E692E16
:10326000892D0E94690C8C018C1B9D0B97FF03C05C
:1032700091958195910903972CF0A895DA94D1F155
:10328000E801E9CFEE0C15B8E4B8892D0E94650C71
:103290008135910578F5E5B8892D0E94650CEC0122
:1032A000F7B8F8B815B854B888E1482EC12CD12C1D
:1032B000892D0E94650CB82EA92E882D0E94690CBC
:1032C0007C019C012C193D0937FF03C031952195E4
:1032D00031092330310514F5550C54B8882D0E945E
:1032E000650C6C01003C94E41907E8F4C53881E0F2
:1032F000D807E8F08091290190912A0190933B0131
:1033000080933A01809182019091830190933901D9
:103310008093380189E1809336013CC1A8954A9495
:1033200049F36701C5CFC03B9DE4D90718F784EA8C
:10333000E81682E0F80608F063C098E9C916D104DF
:10334000C8F200913A0110913B019E01A8E9B7EB48
:103350000E949F3B98012C1B3D0B40E050E00E94D7
:10336000FA3B29013A0198012C193D09A8E9B7EB6C
:103370000E949F3B860120E030E0A90198010E9455
:10338000FA3BC837DF4070F4C301B201B2E0660F08
:10339000771F881F991FBA95D1F7620F731F841F7B
:1033A000951F12C098E7C9169FE0D906A0F4CA017C
:1033B000B901A2E0660F771F881F991FAA95D1F760
:1033C000640D751D861D971D25E030E040E050E03E
:1033D0000E94FA3B08C0240D351D461D571D569509
:1033E000479537952795A4E6B0E00E94B43B6B0162
:1033F0007C018CEAC80E8DE0D81EE11CF11C73C064
:10340000272D362D0217130708F49801CB2DDA2D3E
:10341000CE15DF0508F4E70159012017310708F43C
:103420005801A0912601B0912701C501821B930B81
:103430009C010E949F3B20913A0130913B012A1947
:103440003B0940E050E00E94FA3B29013A018E011D
:10345000EC16FD0608F48701A0911F01B091200130
:103460009E01201B310B0E949F3B6801E12CF12C37
:10347000A70196010E94FA3B98E7A9169FE0B906BA
:1034800070F4C301B201E2E0660F771F881F991F35
:10349000EA95D1F7620F731F841F951F11C008377B
:1034A0008FE01807B0F4CA01B90152E0660F771F28
:1034B000881F991F5A95D1F7640D751D861D971D9C
:1034C00025E030E040E050E00E94FA3B69017A01DB
:1034D0000AC069017A01C40CD51CE61CF71CF694DD
:1034E000E794D794C79410912501133008F002CFC8
:1034F0009A94980C892D90E0EC01C859DE4F2881F0
:10350000880F991F880F991FFC01E854FE4F222352
:10351000D1F14080518062807380A7019601241907
:1035200035094609570957FF07C050954095309512
:1035300021953F4F4F4F5F4FAAE0B0E00E94B43B50
:10354000A30192012C593F4F4F4F5F4F2C0D3D1D52
:103550004E1D5F1D0E94FA3B232B242B252B09F0C7
:10356000C9CE123019F081E08093250182E0888372
:1035700080918401E82FF0E0E559FE4F90828F5F43
:1035800080938401B7CEC082D182E282F38281E04F
:103590008883B0CECDB7DEB7E0E10C94B43CCF93D6
:1035A000C82FC09595B160FF02C0982B01C09C2325
:1035B00095B994B1982B94B982E00E94310C84B1F2
:1035C0008C2384B985B18C2385B9CF910895A0E06F
:1035D000B0E0EDEEFAE10C949F3C8AE0D82E9FE338
:1035E000B92E28E0C22E17B818B815B8B4B880E0C4
:1035F0000E94650C8C0181E00E94690CEC0182E064
:103600000E94690C20912501283079F417B814B86C
:103610001093060100930501D0930801C0930701A0
:1036200090930A018093090158C031E0C430D1055C
:1036300008F030E021E00430110508F020E02323F9
:1036400019F08430910510F321E0083E134008F092
:1036500020E0C83ED34008F42260883E934008F43E
:10366000246027B9C0E0D0E0A89580E00E945D0CFE
:103670007C0181E00E94690C8C0182E00E94690C4F
:1036800024E1E21625E0F20608F4389A043135E028
:10369000130708F4399A843125E0920708F43A9A1E
:1036A00036E0E316F10428F40630110510F406970D
:1036B00038F02196C43F81E0D807B1F6C0922501C9
:1036C00000E010E00C171D0729F00E94200C0F5F8E
:1036D0001F4FF8CFDA9409F086CFCDB7DEB7E9E017
:1036E0000C94BB3CCF92DF92EF92FF92CF9320914C
:1036F000890130918A0140918B0150918C01C091D8
:103700009B018AE0C82ED12CE12CF12C8C2FCF5FAD
:10371000213A96E8390791E04907510538F0CA0186
:10372000B901A70196010E94FA3BF0CF80939B015B
:10373000A0913A01B0913B010E94B43B28E833E1EB
:1037400040E050E00E94FA3B2093890130938A01C7
:1037500040938B0150938C01CF91FF90EF90DF90BD
:10376000CF900895A4E0B0E0E8EBFBE10C949C3C22
:10377000982E862E8FEF860F992D990F990D890F10
:1037800080936501E92DF0E0EE5AFE4F1491862FEB
:1037900090E0FC01EE5AFE4FF490FC01EB5AFE4F14
:1037A000049180912501813009F4A7C24091230141
:1037B00085EA91E06BEA71E0DC012A2F281B2417CF
:1037C000A0F42D9128110EC09D0127503109F90157
:1037D0002081291107C0FB01208131812C3D35401A
:1037E00008F48BC26E5F7F4FE8CF10929601109263
:1037F000950181EF80939B011092890110928A01BB
:1038000010928B0110928C01E2DE18B807B9F4B85F
:10381000F5B8892D0E94690C7C01882D0E94690CE5
:10382000E81AF90A14B81092670110926601C12CC7
:10383000D12C2091660130916701243F314050F531
:1038400015B914B90E941A0C14B815B80E94210CAD
:10385000A895892D0E94690C6C01CE18DF08809113
:103860006601909167018E37910528F02BE4C2160E
:10387000D1040CF43EC25DE2C51651E0D50684F4D5
:103880008091660190916701019690936701809302
:103890006601CFCFEDE2CE16E1E0DE060CF429C2E0
:1038A0002091660130916701232B21F0C60100E0D1
:1038B00010E006C0F5E1CF16F5E0DF06BCF385C0E9
:1038C00020916601309167012017310758F00E945E
:1038D0001B0C892D0E94690C8E199F09A8950F5FFA
:1038E0001F4FEECF8601081B190B1016110694F41A
:1038F000093C11050CF0FDC128EE33E0D8010E940F
:10390000AE3B9601442737FD4095542F0E94FA3B69
:10391000790102C0E12CF12CA0906601B090670102
:103920002FEFA21AB20AC501A0E0B0E08093910186
:1039300090939201A0939301B0939401C601800FDC
:10394000911F27D29C01D5010E949F3B609391015A
:1039500070939201809393019093940160938901F5
:1039600070938A0180938B0190938C0187EF8093F1
:103970009B01B8DE2091890130918A0140918B0131
:1039800050918C0185E090E029833A834B835C83DE
:103990000E94263DA8EEB3E0A81BB10987FDB395B0
:1039A00029813A814B815C810E94BE3B24E630E054
:1039B00040E050E00E94FA3B2093890130938A0155
:1039C00040938B0150938C0152C101DE15B887E002
:1039D00087B918B8F12EFF0CF4B880E480937B000F
:1039E00084E580BF892D806480937C0086E180938C
:1039F0007A000E94240C10926701109266011092C6
:103A00008000109285001092840087E286BB81E2DC
:103A100080936F0081E080938601F5B89091250135
:103A200080938100943059F481E090E0092C01C02A
:103A3000880F0A94EAF78095877087B901C007B9A3
:103A4000F89483B7817F83BF80918601882389F0B2
:103A500083B7816083BF7894889583B78E7F83BF57
:103A6000F894A89580916601909167018034964002
:103A700059F7789410928100E0908600F0908700CA
:103A800010926F0086E980937A0014B815B8892DDA
:103A90000E94690C20913E0130913F01821B930BE3
:103AA0000C9690939E0180939D0180916601909168
:103AB00067018032934008F01CC1809166019091AB
:103AC00067019093940180939301F0929201E092A8
:103AD000910184EF80939B01809166019091670131
:103AE00082349105C8F060919101709192018091AA
:103AF00093019091940124E630E040E050E00E9470
:103B0000FA3B20939101309392014093930150939B
:103B1000940186EF80939B01A0918701B091880169
:103B20002091910130919201409193015091940123
:103B30000E94B43B20E233E040E050E00E94FA3BB8
:103B400020939101309392014093930150939401FB
:103B50002093890130938A0140938B0150938C010B
:103B6000C1DD80919B01843F09F071C0C090890143
:103B7000D0908A01E0908B01F0908C01F0EACF1692
:103B8000FFE0DF06E104F104C0F4A70196012C5424
:103B90003F4F4F4F5F4F60EA7FE080E090E00E9430
:103BA000FA3B2C0D3D1D4E1D5F1D20938901309366
:103BB0008A0140938B0150938C01C0908901D09071
:103BC0008A01E0908B01F0908C01C114D10421E0B6
:103BD000E206F10428F4D092C901C092C80106C0DF
:103BE00081E090E09093C9018093C80180916501C4
:103BF00090E08E5D9F4F0E94263D482F50E060E090
:103C000070E04C155D056E057F0568F4C41AD50A91
:103C1000E60AF70AC0928901D0928A01E0928B01EC
:103C2000F0928C0114C084E1C80ED11CE11CF11C7F
:103C3000C416D506E606F70610F40E945812109234
:103C4000890110928A0110928B0110928C0114B993
:103C50008091890190918A01A0918B01B0918C0192
:103C60004997A105B10508F444C0E12CF12C8091DD
:103C70002301882321F0809125018430D1F587E04C
:103C80008093250120919B0180919C018217BCF0BB
:103C900028132FC04091890150918A0160918B01B6
:103CA00070918C0180918D0190918E01A0918F0176
:103CB000B091900184179507A607B707D0F48091BB
:103CC000890190918A01A0918B01B0918C01809320
:103CD0008D0190938E01A0938F01B093900120935A
:103CE0009C01F0929801E092970180929901909244
:103CF0009A0117B818B814B815B82496ECE00C94CB
:103D0000B83C1F920F920FB60F9211248F939F937E
:103D1000B59904C080918601811109C0B59B10C07E
:103D200080918600909187008A3F910548F48091A8
:103D300066019091670101969093670180936601F7
:103D40009F918F910F900FBE0F901F9018951F920B
:103D50000F920FB60F9211248F939F9310928601AA
:103D6000B09B10C080918600909187008A3F91059A
:103D700048F48091660190916701019690936701E4
:103D8000809366019F918F910F900FBE0F901F90AF
:103D900018950F9221E08C32920710F48CE291E09A
:103DA0008C52914069E170E00E94D33B99E16B3203
:103DB00010F0982F6BE2981BE7E9F4E0E60FF11D95
:103DC000E60FF11D4591559125913591692F421BC3
:103DD000530B649FC001659F900D11240C9669E1FF
:103DE00070E00E94D33B620F731FCB010F900895C8
:103DF000A0E0B0E0EEEFFEE10C949C3C88E893E19B
:103E000090932A018093290190933B0180933A017A
:103E10008EEB8093360118B880E187B90E94290C97
:103E200017B884E00E94650CAC018B5C9840833F1E
:103E30009140A0F481E080934F0120913A013091AC
:103E40003B01AFEBB9E00E949F3B9A0140E050E09C
:103E50000E94FA3B30932A01209329018091290185
:103E600090912A0190933B0180933A018EE00E9449
:103E7000690C8EE00E94650C90933F0180933E0197
:103E80000E949E0DA4DB18B8C1E0C7B985E185B9D1
:103E9000C4B980E00E94650C7C0112E017B984E08F
:103EA000982E94B881E00E94650CE80EF91E97B830
:103EB00090E1892E84B882E00E94650CE80EF91E1C
:103EC00015B8C8B9C7B9C4B9C0913A01D0913B017E
:103ED00080E00E94650C5C0118B917B994B8009194
:103EE0003A0110913B0181E00E94650C6C0198B889
:103EF00097B884B880903A0190903B0182E00E948C
:103F0000650CC00FD11FC80DD91DCA19DB09CC190A
:103F1000DD09C81BD90B17B818B814B880913A013D
:103F200090913B014C01880C991C880E991E8E18AB
:103F30009F088C1A9D0AA12CB12C9701A0E9BAE127
:103F40000E949F3BA50194010E94FA3B69017A01FE
:103F500030934E0120934D019E01A0E9BAE10E94E9
:103F60009F3BA50194010E94FA3B30933D012093B1
:103F70003C012057354E309327012093260180E7DE
:103F8000C81A85EED80AD0922001C0921F0189E19B
:103F900080933601CDB7DEB7ECE00C94B83CFF92CD
:103FA0000F931F93CF93DF93C82FD62FF42E0E9429
:103FB00099098CE392E00E94E909E8D16D2F8C2FDA
:103FC0000E948A34C1E00091CC011091CD01209172
:103FD000CE013091CF01011511052105310509F000
:103FE000C0E08091020187FD02C0C11104C088E3D6
:103FF00092E00E94E9098D2F0E949909C11106C023
:104000000E949B0980916B010E948E0AFF2049F05B
:10401000809150018D3028F490E08557904F0E9498
:10402000E9090E942F08C1111BC06091CC01709159
:10403000CD018091CE019091CF0103E028E447EFBC
:104040000E94FB0A8BE492E00E94E9098CE290E076
:104050000E942E3D23E046E464EF0E94C70B1AC085
:1040600080916B010E948E0A809102018E3F94F430
:1040700083E792E00E94E90960910B0170910C01C5
:1040800080910D0190910E0103E028E4409102011E
:104090000E94FB0A8091C4019091C501A091C601C4
:1040A000B091C701892B8A2B8B2BF1F080E00E9405
:1040B000D4096091C4017091C5018091C6019091AD
:1040C000C70104E028E440E00E94FB0A86E492E095
:1040D0000E94E90923E040E26FEF8091CA019091CC
:1040E000CB010E94C70B07C080E00E94B3098091FA
:1040F0005301811102C00E94AE09CDB7DEB7E5E0E1
:104100000C94BF3C0F931F93CF93DF93082F0E9413
:104110002A08809199010E9499098FE892E00E94F3
:10412000E90918D56091990180919A015DD3909326
:1041300096018093950111E08A3F9F4F08F010E0AF
:10414000C0919701D0919801112321F08DE392E065
:104150000E94E90980919A010E949909002359F06F
:10416000909150018DE0891B0E949D098DE991E09D
:104170000E94E90902C00E94AE090E942F086091C6
:104180008D0170918E0180918F019091900104E0DA
:1041900026E440919C010E94FB0A112369F08EE7FE
:1041A00092E00E94E90922E044E06EEF80919501DF
:1041B000909196010E94C70B0E94AE090E9432089E
:1041C000CD2B69F087E792E00E94E90922E045E201
:1041D0006FEF80919701909198010E94C70B0E9408
:1041E000AE09DF91CF911F910F9108958F7021F447
:1041F0000E9435080C94B81208958F3021F49091E4
:104200004001913011F08F5F089580E00895CF93C1
:1042100088EA91E00E945F2DC0E00E94170E60E0E6
:1042200082E00E94E61862E080E00E94E6180E94A8
:104230002A0880918401882329F041E062E080E02F
:10424000AEDE12C088EA91E00E94E90985E99FE0AC
:104250000E94E9090E942F088FE30E94780980E0FC
:104260000E94B3090E94AE098C2FC0DF88EE93E054
:104270000E940F0D811109C080911E01843028F425
:104280008C2FBBDFC82F8A3F40F20E944E08CF918F
:1042900008950F931F93CF93DF93C0E0D7E012EF01
:1042A0000DE00E94170E60E082E05CDAD0932501F9
:1042B00080919B01843FE1F44091890150918A01F2
:1042C00060918B0170918C01443651056105710537
:1042D00078F440E060E082E00E943133609389012D
:1042E00070938A0180938B0190938C0110939B01B2
:1042F00080919B01823FACF080939C0140918901A9
:1043000050918A0160918B0170918C0140938D01D5
:1043100050938E0160938F017093900181E0F2DEE3
:104320001CC00E942A0881EA91E00E94E90980915C
:104330005001902F981B892F0E949D098DE991E0D3
:104340000E94E9090E942F088FE30E9478090E94C9
:10435000AE090E9432080E94AE098C2F47DF88EE1A
:1043600093E00E940F0D81110AC080911E018430DC
:1043700030F48C2F42DFC82F8A3F08F492CF0E947E
:104380004E08DF91CF911F910F910895A3E1B0E006
:10439000ECECF1E20C94963C82E080930201809177
:1043A0002501813009F01CC280918401813009F01F
:1043B00017C220906B0124E0229EF0011124E854E2
:1043C000FE4F80819181A281B381893032E59307CC
:1043D000A105B10508F004C29B8B8A8B312C61E0EA
:1043E000822D631528F00E94840AB82EA92E03C0DE
:1043F0000E94840A5C01EA2DF0E0EB5AFE4F7490B3
:104400008B2D90E0FC01EE5AFE4FE49115B818B8E0
:104410002A893B89203F3105A0F430FC12C000916D
:104420001F011091200100591A4121E030E00B2CAE
:1044300002C0220F331F0A94E2F7C901872987B906
:1044400006C0E4B977B800911F011091200144E142
:10445000642E8B2D0E94610C4C018A2D0E94690CE8
:1044600034E08316910410F4049710F06A9489F7ED
:1044700060E460937B0084E580BF8B2D8064809333
:104480007C0096E190937A00E12CF12C1092800050
:10449000109285001092840087E286BB0E94240C53
:1044A000232D2170298B30FC05C081E88093810089
:1044B00078B808C078B80E942D0C80E286BB81E8ED
:1044C0008093810046B345FF12C018B81092810056
:1044D00080E286BB80918600909187006C012091DC
:1044E0008400309185008217930768F013C040FF65
:1044F000E9CF31E036BBA895C70101967C01803534
:10450000910501F7E2CF40FF05C061E066BB8FEF88
:10451000E81AF80A86E980937A0034E1732E8B2D2D
:104520000E94610C4C018A2D0E94690C24E08216C5
:10453000910410F4049710F07A9489F780904D015B
:1045400090904E018A899B89880E991E800E911E3B
:10455000209121013091220100399AE11907B0F42C
:1045600061EEC616D104E104F10438F4C60165E039
:1045700070E00E94D33B645101C069E128523109C7
:10458000261B310967FD339586E009C0C40160EB45
:1045900076E30E94D33B87E0860F285D3F4F90E093
:1045A000A0E0B0E08C159D05AE05BF0528F4C81A43
:1045B000D90AEA0AFB0A03C0C12CD12C76018989E9
:1045C000882329F092E2C90ED11CE11CF11C60E5A0
:1045D000E616F10418F0C12CD12C76018BE0C81638
:1045E000D104E104F10428F091E0C91AD108E108EE
:1045F000F10840913A0150913B01A12CB12CA8EE59
:10460000B3E00E949F3B2B013C019801DA010E941C
:104610009F3BA50194010E94FA3B44275527C30103
:10462000B2010E94FA3BC9010E94F60DFC01A501EE
:104630009401C701B6010E94C43B4B015C01BF015C
:1046400080E090E023E0660F771F881F991F2A956E
:10465000D1F76B5F7F4F8F4F9F4F2AE030E040E0F4
:1046600050E00E94FA3BC501B4010E94FA3B832D41
:1046700090E0E1E0F0E0EC0FFD1F64E0369EE00D1D
:10468000F11D112420833183428353836989611191
:1046900017C06CE0C616D104E104F10488F0FC01F7
:1046A0003196EE0FFF1FEE0FFF1F81E090E08C0FA1
:1046B0009D1FE80FF91F2083318342835383339476
:1046C000A895339493E0931508F089CE18B884E048
:1046D0000E94310C21E04D815E816F817885898156
:1046E0009A81AB81BC8184179507A607B70708F0AC
:1046F00020E04D855E856F85788989859A85AB85B3
:10470000BC8584179507A607B70710F032E001C0F3
:1047100033E0E22FF0E0EE0FFF1FEE0FFF1F81E00E
:1047200090E08C0F9D1FE80FF91FDC0194E0399F8A
:10473000A00DB11D11244D915D916D917C918081F1
:104740009181A281B381481759076A077B0708F056
:10475000322FE1E0F0E0EC0FFD1F24E0329FE00D8E
:10476000F11D112480819181A281B38180930B017D
:1047700090930C01A0930D01B0930E0130FD09C080
:104780002A893B89203F310520F48BEF8093020179
:1047900017C02CEF20930201BC01CD016B5F7F4F4E
:1047A0008F4F9F4F2AE030E040E050E00E94FA3BFC
:1047B00020930B0130930C0140930D0150930E0197
:1047C00080910B0190910C01A0910D01B0910E010F
:1047D000892B8A2B8B2B11F41092020117B814B875
:1047E0006396E2E10C94B23CAEE1B0E0EAEFF3E2B2
:1047F0000C94963C662EB82E860F89832091250155
:10480000273059F520918D0130918E0140918F0113
:104810005091900157FD15C010919C0109C0CA012B
:10482000B9012AE0312D412D512D0E94FA3B1F5F25
:10483000173FACF391F42A3560E036074105510586
:1048400018F48FEF9FEF82C1173F39F480E02817EB
:104850008DE738074105410510F020E03DE72C8B3E
:104860003D8B26EDA22E02C094EDA92EE5E5F1E0E8
:10487000E60DF11D859180608E87E5E5F1E0EB0D99
:10488000F11D859180608F87E2E5F1E0E60DF11D75
:104890007590E2E5F1E0EB0DF11DC59090EC692A11
:1048A000B92A81E0E82EF12C012D112D8E831F8273
:1048B000188619861A861B861C861D86188E198EE8
:1048C0001B8E1A8E0E94E71A80E088B960927C00E5
:1048D0000E94250C3F8537B975B874B80E942C0C1E
:1048E00014B815B8DD24B4ED9B2EA6ED8A2E3E85B6
:1048F00037B975B874B860927C00A895A0927A0018
:1049000080917A0086FDFCCFA0927A0080917A0097
:1049100086FDFCCF2090780030907900B0927C002A
:10492000A0927A0080917A0086FDFCCF80927A0076
:104930000E942A0C0E942C0CC5B8C4B80E942B0CF3
:104940000E942D0CA895A895A895A89514B815B8FF
:1049500080917A0086FDFCCF20917800309179001B
:10496000288B398B3F8537B9C5B8C4B8A895B092A4
:104970007C00A0927A0080917A0086FDFCCFA09204
:104980007A0080917A0086FDFCCF6091780070916A
:10499000790060927C00A0927A0080917A0086FD76
:1049A000FCCF80927A000E942A0C0E942C0C75B8D1
:1049B00074B80E942B0C0E942D0CA895A895A89560
:1049C000A89514B815B880917A0086FDFCCF409167
:1049D00078005091790014B8CB01820D931DE80E38
:1049E000F91E011D111DEA82FB820C831D8388893B
:1049F0009989840F951F2E813F8168857985280FBD
:104A0000391F611D711D2E833F836887798722E3DB
:104A10002417150650F075B874B80E942F0C14B8FE
:104A200015B8888D8395888F07C0483E73E0570777
:104A300018F08A8D83958A8F888999892817190695
:104A400060F03E8537B9C5B8C4B80E942F0C14B8C1
:104A500015B8898D8395898F07C0883E73E09707C5
:104A600018F08B8D83958B8FD3945D2D5F3F09F06C
:104A70003ECF40904D0150904E01440C551C920188
:104A8000E4E0240D351DEA95E1F72901570168019D
:104A90006E807F8088849984209125012730C1F41D
:104AA0006C897D89812D912D6C53704080409040A0
:104AB0009B01AC010E94C43B9B01AC016FEF71EC08
:104AC0008EE390E00E94FA3B621A730A840A950A08
:104AD000A614B704C804D90428F46A187B088C0803
:104AE0009D0803C0662477244301B20180E090E072
:104AF0009301A4010E94C43B9501A6010E94FA3BC8
:104B000081E090E07981870F911D0E94263D90E021
:104B1000682EC90160E170E00E94D33B260F371F69
:104B2000C9016816190618F4861991090FC08C5E20
:104B30009F4F8615910540F48C899D89843981E1C8
:104B4000980710F00E945812812D912D6E96E2E187
:104B50000C94B23CA4E0B0E0E0EBF5E20C949E3C97
:104B60008091970190919801892B09F0B2C0E09152
:104B70009901F0E0EB5AFE4F0491E0919A01F0E0C8
:104B8000EE5AFE4F14910E94E71A18B815B807B9EB
:104B900014B980919A010E94690C5C0100919C01FA
:104BA0008CE0800F843008F094C0015F80918D010B
:104BB00090918E01A0918F01B09190012AE0C22EB8
:104BC000D12CE12CF12CBC01CD016B5F7F4F8F4FBD
:104BD0009F4FA70196010E94FA3B0F5F073019F023
:104BE000DA01C901F0CF293883E1380741055105C1
:104BF00008F06FC02530310508F46BC015B914B941
:104C000000E010E00217130768F429833A834B830E
:104C10005C830E942B0C0E5F1F4F5C814B813A819D
:104C20002981F0CF14B815B8A89585E08093360196
:104C300080919A0129833A834B835C830E94690C9B
:104C400029813A814B815C81A816B90620F47C0148
:104C5000EA18FB0802C0E12CF12C00E010E002177A
:104C6000130768F429833A834B835C830E942B0CDF
:104C70000F5F1F4F5C814B813A812981F0CF80917A
:104C80009A010E94690C29E120933601A895A81683
:104C9000B90618F48A199B0902C080E090E08E15CD
:104CA0009F0588F49701281B390B69F0A4EFB1E048
:104CB0000E949F3B970140E050E00E94FA3B3093F6
:104CC0009801209397010E94E71A17B818B814B8F2
:104CD00015B82496EAE00C94BA3CA5E0B0E0E3E70E
:104CE000F6E20C94963C8CE793E0E9D620EF2A8319
:104CF00054980E94200C14BC16BC10921201109201
:104D00001301109214011092150131E035BB30935C
:104D10006E001092800083E19AE79093890080935F
:104D20008800E1E0F0E0F0938B00E0938A001092BD
:104D300085001092840083B5816083BDF6E0F6BBE8
:104D4000F0936F00789424E02093810012E319829D
:104D50000E94190CA8954F9902C031E0398385B59E
:104D600081112CC015BC86B5809312010E943208B7
:104D70000E94AE090E9435080E94AE090E94D9091E
:104D800086E60E9478090E94DC0960911201709108
:104D90001301809114019091150107E028E440E08F
:104DA0000E94FB0A8AE70E9478095498809181004A
:104DB000882339F08FE30E94780903C0115041F62F
:104DC000D1CF1092810010926F002091120130918A
:104DD00013014091140150911501DA01C9010197A5
:104DE000A109B109893D9146A105B10508F029C184
:104DF000AAE0B0E00E94B43B685F7F4F8F4F9F4FA7
:104E000023E096958795779567952A95D1F7660F54
:104E1000771F70937F0160937E0154980E94200C4D
:104E200016BC1092120110921301109214011092EC
:104E3000150181E085BB80936E0010928101109274
:104E4000800194E09BBB809168008460809368003F
:104E5000789480916D00806180936D001D820E9426
:104E6000190CA8954F9902C0E1E0E98380916D008B
:104E700084FF05C0FD81FF5FFD83FA3F81F715BC0C
:104E800080916D008F7E80936D00809168008B7F94
:104E90008093680086B5809312010E94320884E5F1
:104EA0000E9478090E94DC098091120190911301FF
:104EB000A0911401B091150120917E0130917F01E4
:104EC0003C832B831C012D019C01A20160E070E05A
:104ED00080E090E003E00E94CD3C51016201E12CB2
:104EE000F12C00E010E00E94E63C59016A017B01D0
:104EF000E82F192F03E00E94CD3C0E2F0E94E63CC4
:104F000003E00E94CD3C51016201E12CF12C00E054
:104F100010E00E94E63C02E00E94CD3C00E00E94CE
:104F2000E63C01E00E94CD3C00E00E94E63C03E04C
:104F30000E94CD3CEB81FC815F01C12CD12C00E0B3
:104F40000E94323C39014A011B012C012B813C811A
:104F50002038310530F007E023E745EFB301C40105
:104F600016C084E6A82EB12CC12CD12CE12CF12C3A
:104F700000E010E09301C2010E94323CE22FF42FC6
:104F800007E023E747EF6E2F732F8F2F952F0E9497
:104F9000FB0A3D813A3F21F48FE30E94780951C01A
:104FA0009301A401B101C2012C393E4C434051058B
:104FB000610571058105910509F008F442C00E9460
:104FC000350886E60E9478090E94DC099301A40155
:104FD000B101C201530164017101820121153A4CF2
:104FE0004A495B43610571058105910589F080F0AF
:104FF00020E030E04AE85DE568E775E483E691E0AB
:105000000E94323CE22FF42F07E028E44AEF0FC061
:1050100020E030E846EC54EA6EE77DE883E090E07B
:105020000E94323CE22FF42F07E028E44CEF6E2F71
:10503000732F8F2F952F0E94FB0A8AE70E94780911
:10504000549810926E0080ED97E00E940F0D298118
:10505000820F49F480911E01833028F43A81315047
:105060003A83311145CE2596E2E10C94B23C1F9271
:105070000F920FB60F9211248F939F93AF93BF930C
:1050800078948091120190911301A0911401B09134
:1050900015019F5FAF4FBF4F809312019093130193
:1050A000A0931401B0931501BF91AF919F918F917F
:1050B0000F900FBE0F901F9018951F920F920FB672
:1050C0000F9211248F9386E085BD8F910F900FBEB4
:1050D0000F901F9018951F920F920FB60F921124E8
:1050E000A8951092810015BC0F900FBE0F901F90D5
:1050F00018951F920F920FB60F9211242F933F9382
:105100008F939F938091800190918101892B11F45D
:1051100081E085BD209180013091810180917E01E7
:1051200090917F012817390730F015BC80916D00F0
:105130008F7E80936D008091800190918101019616
:1051400090938101809380019F918F913F912F9146
:105150000F900FBE0F901F9018958D3008F08D5056
:10516000811103C086E893E03BC0813019F48CE7DD
:1051700093E036C0823019F483E593E031C0833088
:1051800019F488E493E02CC0843019F483EB91E0A7
:1051900027C0853019F488EA91E022C0863019F4DE
:1051A00081EA91E01DC0873019F489E393E018C0CB
:1051B000883019F488E293E013C0893019F489E14A
:1051C00093E00EC08A3019F482E093E009C08B307E
:1051D00019F48AE693E004C08C3021F48FE593E063
:1051E0000E94E90980915001803118F40E949B09C6
:1051F000F9CF08950F93CF9383EB91E060D4C0E093
:105200001092250160E082E076D4809125018730FC
:10521000C1F50E942F0883E40E9478090E94DC09EE
:1052200060918D0170918E0180918F01909190011C
:1052300003E026E440919C010E94FB0A0E94AE0913
:105240006091990180919A01CFDA909396018093B1
:1052500095010E9432088FE792E00E94E90980914F
:105260009501909196018A3F2FEF920730F422E04A
:1052700044E06EEF0E94C70B08C08FE30E947809DC
:1052800004C00E94D9090E9432080E94AE098C2FE6
:105290000E94F62088EE93E00E940F0D81110BC052
:1052A00080911E01843038F48C2F0E94FD20C82F7D
:1052B0008A3F08F4A5CFCF910F91089508950F93D9
:1052C000843108F08451833189F489E0809381002E
:1052D00081E090E0909389008093880007E028E4C3
:1052E0004DEF60E074E985E397E74BC1823189F4C3
:1052F00089E08093810083E090E09093890080931F
:10530000880007E028E44DEF60E07AEC8AE99BE34F
:1053100038C1813169F489E08093810087E090E0B1
:10532000909389008093880007E028E44DEF6CC0DB
:10533000803169F489E0809381008FE090E0909360
:1053400089008093880007E028E44DEF6FC08F301C
:1053500089F489E08093810089E190E0909389004D
:105360008093880007E028E44DEF6AE871E88BE25B
:1053700099E007C18E3069F489E08093810087E26B
:1053800090E0909389008093880007E028E44DEF37
:1053900060C08D3069F489E0809381008FE490E0F3
:1053A000909389008093880007E028E44CEF2CC09C
:1053B0008C3069F489E0809381008FE990E09093CC
:1053C00089008093880007E028E44CEF2FC08B30E1
:1053D00069F489E0809381008FE891E090938900DF
:1053E0008093880007E028E44CEF33C08A3089F4CA
:1053F00089E0809381008FE193E09093890080930E
:10540000880007E028E44BEF60E075E68DEC9DE155
:10541000B8C0893081F4809381008FE396E0909347
:1054200089008093880007E028E44BEF60E872EB86
:1054300086EE9EE0A6C0883089F489E080938100E2
:105440008FE99FE0909389008093880007E028E42B
:105450004BEF60E071EE85EF95E093C0873089F403
:1054600089E08093810084E493E2909389008093A3
:10547000880007E028E44BEF6FE77DEF83EA92E0D6
:1054800080C0863089F489E08093810089E593E2C9
:10549000909389008093880007E028E44BEF6FEE3B
:1054A0007BE682EA92E06DC0853089F489E08093E2
:1054B000810082E893E2909389008093880007E05E
:1054C00028E44BEF68E471E68FE992E05AC084303B
:1054D00089F489E0809381008FE79EE390938900AF
:1054E0008093880007E028E44BEF60E478E78DE7DD
:1054F00091E047C0833069F48BE08093810080E7BE
:1055000092E0909389008093880007E028E44AEFB6
:10551000A0CF823089F48BE08093810081EE94E00B
:10552000909389008093880007E028E44AEF60E8C0
:1055300070EF8AEF92E025C0813089F48BE0809390
:10554000810089E698E1909389008093880007E0C4
:1055500028E44AEF60E876E988E990E012C081111A
:1055600012C08CE08093810088E09DE390938900D5
:105570008093880007E028E44AEF60E472E48FE05B
:1055800090E00E94FB0A8AE70E9478090F91089533
:10559000A0E0B0E0EEECFAE20C949F3C83E593E0EF
:1055A0008ED280E18093800010926F0081E090E0C5
:1055B000909389008093880010928B0010928A004B
:1055C00083E086BB1092820088E08093810015B84A
:1055D00081E184B918B881E087B9229A89E0809383
:1055E000810000E0D12CE12C12E1CEE1D0E0802F4F
:1055F00090E00A96BE010E94E73BC62EB62E6D15BE
:1056000089F00E942A0883E593E00E94E909F12CC1
:10561000FB1428F48EE20E947809F394F9CF0E94DB
:10562000AE09DC2CE11669F1143108F01451F12EA9
:1056300082E0E82E8F2D811B813081F060E08E2D7D
:105640000E941D080E949B0983E18F1518F48CEEBF
:105650008F0D01C08F2D33DE0E94AE09F394E394C9
:10566000E39488E0E812E6CF60E084E00E941D0841
:105670008EE30E94780981E0810F21DE0E94AE094D
:10568000E12E88EE93E00E940F0D90911E01811192
:1056900002C0992379F000E09B3060F01092810005
:1056A0001092800017B814B82298CDB7DEB7E9E0A1
:1056B0000C94BB3C90911D0197FD9C5E190F8531A8
:1056C00018F01F5F803550F7802F0E94FD20082FB3
:1056D000803F08F48CCFE2CFA4E0B0E0E2E7FBE249
:1056E0000C949A3C88E493E0EAD183E280938000B2
:1056F00010926F0081E090E0909389008093880081
:105700008FEF90E090938B0080938A0083E086BBBC
:105710001092820015B881E184B918B881E087B988
:10572000229A89E08093810010E000E09AE0792ECF
:10573000612C24E6C22ED12CE12CF12C88248A94F1
:1057400033E0932EA12CB12C7016E9F183E6871576
:1057500010F4ECE97E0E272D30E0AFEFB3E00E94AD
:105760009F3B6E5C7F4F8F4F9F4FA70196010E941A
:10577000FA3B30938B0020938A0029833A834B8332
:105780005C830E942F08A8EEB3E029813A814B8107
:105790005C810E94B43B61507E4F8F4F9F4FA501AB
:1057A00094010E94FA3BDA01C90125E045E26FEF5E
:1057B0000E94C70B0E94AE09F8E2F61518F48CE3BC
:1057C0000E94310C072D80E496E00E940F0D682E98
:1057D00082E8861558F417B8109281001092800064
:1057E00014B822982496EEE00C94B63C90911E01D9
:1057F0009B3088F780911D0187FD8C59780EE2E37C
:10580000E61518F4FAE07F0E03C0662051F0739499
:1058100010E0812F0E94FD20182F803F08F494CFC4
:10582000DACF9111F5CFF5CFCF93DF9382E093E0FC
:1058300046D180E090E00E94263DC82FD0E081E86C
:105840000E9447088C2F0E9447080E942F0824E0DE
:1058500040E260E08C2F90E00E94C70B0E94AE09EE
:1058600080E496E00E940F0D811105C090911E0109
:10587000911103C003C08238C8F4D0E090911E019A
:105880009B30A0F490911D0197FD90589C0F8823A8
:1058900029F0893210F09F5F01C09158C92FCF774E
:1058A0008D2F0E94FD20D82F803F48F26C2F80E082
:1058B00090E00E94333DDF91CF9108950F931F93A5
:1058C000CF93DF9388E293E0FAD085E090E00E94E6
:1058D000263D182F00E00E942F08C12FDD27C7FDAD
:1058E000D09517FF0BC08DE20E94780923E045E2B6
:1058F0006FEF882799278C1B9D0B04C023E045E29E
:105900006FEFCE010E94C70B0E94AE0980E496E0C3
:105910000E940F0D811105C090911E01911103C0CD
:1059200003C0823800F500E090911E019B30D8F44E
:1059300090911D01910F811102C0192F06C089326B
:1059400010F011E001C01FEF190F113514F01556BA
:1059500003C01C3E0CF41B59802F0E94FD20082F11
:10596000803F08F4B8CF612F85E090E00E94333D7E
:10597000DF91CF911F910F910895FF920F931F9385
:10598000CF93DF9381E993E09AD0D0E0C0E01CE0B0
:105990001C0FF12C01E00F0D60E0802F880F0E949A
:1059A0001D0881E0F81204C08EE30E94780902C04D
:1059B0000E949B091D3018F083EF810F01C0812FD9
:1059C000CCDB1F5F033011F0F02EE4CF80E49FE1C9
:1059D0000E940F0D8111D0E090914001913009F4A7
:1059E000D0E0823340F490918501992309F448C0B6
:1059F000882309F445C0CC2309F45CC0C13019F4F4
:105A000080E06BD935C0C23011F4C2DD31C0C33083
:105A100011F462DE2DC0C43011F4ECDB29C0C530B6
:105A200019F40E94072124C0C63029F40E944E08B0
:105A30000E9449211DC0C73011F49CD119C0C83043
:105A400011F43CDF15C0C93021F481E10E94930EAE
:105A50000FC0CA3011F4E8DE0BC0CB3011F4DCD239
:105A600007C0CC3029F45E9880E090E00E940F0DD2
:105A700010921E0110921D0181E993E020D080E078
:105A800090911E019A30B0F490911D01992319F064
:105A900097FD03C0D0E0C90F03C0935FC90FD0E0EA
:105AA0008111CF5FDF5FD23828F4CD3008F46FCF9B
:105AB000CD506DCFCDB7DEB7E5E00C94BF3CA2E092
:105AC000B0E0E5E6FDE20C94A53C89839A830E9450
:105AD0004E0889819A810E94E90914E682E00E94B9
