:100000000C9437080C9449080C9449080C9449083E
:100010000C9449080C94E7270C9449080C947A0F27
:100020000C9449080C9449080C940F200C94D9277F
:100030000C94CB270C94E91F0C9449080C944908A4
:100040000C94A5270C9449080C9449080C94490871
:100050000C9449080C947B0F0C9449080C944908A3
:100060000C9449080C944908B200A900A00010089B
:10007000407E01013E01013E01013E01017E404002
:1000800018000720080808F80000002060A03FA022
:100090006020020202FF0202021010101F00000086
:1000A0000708FFDBBDB5B5CBFF0708FFBB9DADADB6
:1000B000B3FF0708FFFFF7FB81FFFF10100508F8EB
:1000C00078385888091003081C3E7F0D080710FF78
:1000D000818181F1E1C1FF4040404743410D08016A
:1000E00010FFFF11080310F1E1C14743410E000862
:1000F000202121122060E0E0E0FEFE040201000168
:10010000037F7F21C2C4C4C040948400070301025E
:10011000040E080210FEFE7F7F00000000110005A3
:10012000202060E0E0E00201000103C2C4C4C0403E
:1001300007030102045245465F523D005245465FA7
:10014000433D00203E3130306E4600706E056D003C
:100150006B4D01041001020400111111131D101048
:1001600000000E11110A1B00041F111111111F04B0
:10017000001E0203021E0000000F0818080F0000F6
:100180001113171F1713110011191D1F1D1911002D
:100190001B1B1B1B1B1B1B005244533D005B435D81
:1001A00000310803083320005B524C5D0031080722
:1001B0000608090A08332000432B45535240545087
:1001C000313A3300664054503200203530487A00CE
:1001D0004330200052695F4C6F3D0052695F4869AF
:1001E0003D0052303D0052482F524C002B52482DBA
:1001F000203132203133203233002B524C2D20312C
:10020000322031332032330052482B0052482D0027
:100210005248663D005265663D00494345733D00C6
:10022000494345303D0056657273696F6E20312E2B
:1002300031326B0008090A080008070608002A0185
:1002400020200008020800080108004E6F74206397
:10025000616C696272617465642120466F72FF632C
:10026000616C6962726174696F6E20636C616D703C
:10027000207468652033FF70696E7320746F676542
:100280007468657220616E64207374617274207783
:1002900069746820746865FF6B65792E2041636B13
:1002A0006E6F776C65646765207468652073656C34
:1002B000662D74657374207769746820746865208E
:1002C0006B65792077697468696EFF32732E2044FC
:1002D0006973636F6E6E6563742070696E732061FD
:1002E0006674657220746865FF6D65737361676518
:1002F000202269736F6C617465FF50726F626521B3
:10030000222069732073686F776E2E20536F667496
:100310007761726520616E6420646F63756D656ED0
:10032000746174696F6E2069732061742073766ED6
:100330003A2F2F206D696B726F636F6E74726F6CE2
:100340006C65722E206E65742F7472616E736973A2
:10035000746F7220746573746572200049723D0079
:100360004C3D0020566C6F73733D00204553523D49
:10037000005643433D0043656C6C210008030800B0
:100380004056673D002056743D0055663D0055625D
:10039000653D00203132333D0050696E2000424AF5
:1003A000542D504E5000424A542D4E504E00433D65
:1003B0000043673D006846453D002D4947425400D3
:1003C0004A464554002D4D4F530044432050777208
:1003D000204D6F6465004F4B004261742E20004336
:1003E0006F6E74726173740073686F7274205072F0
:1003F0006F626573210053656C6674657374007475
:1004000075726E210043280546292D636F7272654F
:100410006374696F6E00726F7461727920656E63C8
:100420006F6465720031302D6269742050574D0041
:10043000662D47656E657261746F720053776974DB
:100440006368206F66660053686F7720646174612B
:1004500000566F6C74616765004672657175656EF4
:100460006379005472616E736973746F72005365BF
:100470006C656374696F6E3A005465737420456EE1
:10048000640069736F6C6174652050726F6265738C
:10049000210053656C6674657374206D6F64652EFE
:1004A0002E0054696D656F757421006F7220646150
:1004B0006D6167656420004E6F2C20756E6B6E6FEA
:1004C000776E2C206F720020756E6B6E6F776E00EA
:1004D000546879726973742E005472696163007094
:1004E0006172740064616D616765642000656D70A0
:1004F000747921007765616B0054657374696E6768
:100500002E2E2E00BA03870358032E030703E4029E
:10051000C302A40288020000140029003E00530018
:10052000690080009700AE00C600DF00F8001201ED
:100530002D01490165018201A001BE01DE01FF011B
:100540002102440268028E02B502DE02090335036D
:1005500064039403C803FE0337047304B404F9046A
:1005600043059305EA054906B3062907AE0748087F
:10057000FF08DE09AF57B950C24A97451141133DF4
:1005800087395A367E33E8308E2E692C712AA1289D
:10059000F5266925F923A222622137201E1F161E87
:1005A0001E1D341C571B851ABF1903195018A61796
:1005B00004176A16D6154915C2144114C5134E13F3
:1005C000DC126E1205129F113D11DF108410000025
:1005D00000000000000000000000000000001E21DC
:1005E00021211200807F0000007E4A4A4A34000028
:1005F00000000000FC40201008040201000000017F
:100600000101010101010101010101017F0488D003
:10061000E0F0F80000000000000000000000000012
:100620000000000000FC94948400000102FC000023
:10063000000000000000000000001E21212112E047
:10064000C0804020100F000000C02020204000008B
:1006500000FC00009E9E0403030303020000002030
:100660002023242525232020203F00007B7B2142BE
:10067000840480C0000000000000000000000000B2
:100680000000FC94948400040607070708F00000AB
:100690000000000000000000000000803F21211247
:1006A0000C00000000FF000000F0084848C80000EF
:1006B000FE0000E7818181C1E1F18181810100209B
:1006C00020202121212020203F0000F340404041F4
:1006D000434740407FC000000000000000000000D1
:1006E00000000000489494946400000000FF0000A3
:1006F00000000000000000000000000000003F219A
:1007000021120C0000FF000000F0084848D0000053
:1007100000000000FEFE04040404040404070008B2
:10072000080809090908087F3E1C08087F7F202067
:100730002020202020E00000000000000000000039
:1007400000000000000048949494640000FF000042
:10075000000000000000000000FF003C0A090A3C05
:10076000002231292926000082868E9EBEFEFEBE12
:10077000DEEFF6FAFEFEFAF2E2C28200000008089E
:100780000804027984A4A46800FF000000000000AF
:100790000000000000000000000000000000000059
:1007A00000FF0000F0282428F0001008FC000000E2
:1007B0000000000000000000003C0A090A3C00FFA5
:1007C0000000000000000000000000000000000029
:1007D0000000040C1C3C7CFF7C3C1C0C0400000052
:1007E0000000009EA1A9A99A804323130B0703FFD1
:1007F00003030303030300000000000000000000E7
:1008000000788484844800FF00000000000000009D
:1008100000F00804E2110909090909090909091187
:1008200021C2040810E000000001020404070000D7
:1008300000000080402010884423100804030000BA
:10084000000000000000000000FE0100FC020100AA
:100850000000000000000000000000000000000098
:100860000079494979000000000000000000C0F84C
:1008700018181818F8C00007060606060700C0FC7E
:10088000F8F0E0DCFCC0000F0703010E0F00C0FC15
:10089000DCE0F0F8FCC0000F0E0103070F00C0FC05
:1008A000FC0000FCFCC0000F0F00000F0F00F0F870
:1008B0000C0C0CF8F0000C0D0F000F0D0C0000FCE0
:1008C000FC0000F8F800381F0F03060307060C0CA5
:1008D0000C0C0CFCFCC00C0C0C0C0C0F0F00C0FC26
:1008E000FC0C0C0C0C0C000F0F0C0C0C0C0CC0C0F6
:1008F000C0C0C0C0C0C00000000000000000C000B8
:10090000008000008000070C0C070C0C070C008016
:100910000000800000C00C070C0C070C0C07000046
:1009200000000000000000000000000000000000C7
:1009300000000000000000000000000000000000B7
:1009400000000000000000000000000000000000A7
:100950000000000000000000000000000000000097
:10096000000000000000000000000000000000F88F
:10097000FC0602FEFE00381F0F08080F1F38FEFE9F
:100980000000FEFE00000F0F08080F3F1800FEFEDB
:1009900000F800FEFE000F0F080F080F3F18008040
:1009A000E03010F0F000381F0F08080F1F38C0E0CB
:1009B00028F828E0C000070F283F280F0700F0F0B4
:1009C0000000F0F000000F0F08080F3F1800F0F0D3
:1009D00000F000F0F0000F0F080F080F3F180000A4
:1009E0000000000000000000000000000000000007
:1009F00000000000000000000000000000000000F7
:100A000000000000000000000000000000000000E6
:100A100000000000000000000000000000000000D6
:100A200000000000000000000000000000000000C6
:100A300000000000000000000000000000000000B6
:100A400000000000000000000000000000000000A6
:100A50000000000000000000000000000000000096
:100A60000000000000000000000000000000000086
:100A70000000000000000000000000000000000076
:100A80007CFEFE7C00000000001B1B000000000E2E
:100A90001E00001E0E00000000000000000020F8F4
:100AA000F820F8F82000020F0F020F0F0200387C28
:100AB000444747CC9800060C0838380F0700081444
:100AC00094C860301800060301040A0A040080D8A4
:100AD0007CE4BCD84000070F0808070F0800000896
:100AE0000F070000000000000000000000000000F0
:100AF000F0F80C0400000000070F181000000000C0
:100B0000040CF8F00000000010180F07000040501F
:100B1000F0E0F05040000001010001010000004041
:100B200040F0F04040000000000101000000000023
:100B300000000000000000002C3C1C000000C0C0B1
:100B4000C0C0C0C0C00000000000000000000000E5
:100B500000000000000000000C0C0000000000007D
:100B600080C0603018000603010000000000F8FC9F
:100B7000060206FCF80003070C080C070300001827
:100B80001CFEFE0000000008080F0F0808000C0EF5
:100B900082C2623E1C000E0F0908080C0C000406FD
:100BA000424242FEBC00040C0808080F0700C0E0E7
:100BB000B098FCFE8000000000080F0F08003E3EC9
:100BC000222222E2C200060C0808080F0700F8FCE7
:100BD000262266C4800003070C080C0703000606E3
:100BE00082C2623E1E0000000F0F00000000BCFE2B
:100BF000424242FEBC00070F0808080F0700387C7D
:100C0000C68286FCF80000040C080C0703000000F4
:100C10003030300000000000060606000000000032
:100C20003030300000000020361E0E000000004072
:100C3000E0B0180C06000000000103060C000020C4
:100C400020202020200000010101010101000006F8
:100C50000C18B0E04000000C060301000000181C56
:100C600086C2663C18000000191900000000F8FC5C
:100C700004E4E4FCF800070F080B0B0B0100F0F88C
:100C80008C868CF8F0000F0F0000000F0F0002FEA2
:100C9000FE4242FEBC00080F0F08080F0700F8FCD8
:100CA000060202060C0003070C08080C060002FEF0
:100CB000FE0206FCF800080F0F080C07030002FEF6
:100CC000FE42E2060E00080F0F08080C0E0002FE9E
:100CD000FE42E2060E00080F0F0800000000F8FCBC
:100CE000068282868C0003070C0808070F00FEFEB0
:100CF000404040FEFE000F0F0000000F0F000000FC
:100D000002FEFE0200000000080F0F0800000000B5
:100D10000002FEFE0200070F08080F07000002FE97
:100D2000FE60F09E0E00080F0F00000F0F0002FE85
:100D3000FE0200000000080F0F08080C0E00FEFE67
:100D400038E038FEFE000F0F0000000F0F00FEFE1F
:100D500038E080FEFE000F0F0000030F0F00F8FCCC
:100D6000060206FCF80003070C080C07030002FE4D
:100D7000FE42427E3C00080F0F0800000000FCFE0F
:100D8000020202FEFC00070F080E3C3F270002FE95
:100D9000FE42C6FC3800080F0F00000F0F001C3E7B
:100DA0006242C28E0C00060E0808080F07000E06ED
:100DB00002FEFE02060E0000080F0F080000FEFEF5
:100DC000000000FEFE00070F0808080F0700FEFEE7
:100DD000000000FEFE000103060C06030100FEFEFB
:100DE00000F800FEFE00030F0E030E0F0300069E28
:100DF000F8F0F89E06000E0F0100010F0E00003EF5
:100E00007EC0C07E3E000000080F0F080000068272
:100E1000C262321E0E000E0F090808080C00000006
:100E2000FEFE0202000000000F0F080800001C3840
:100E300070E0C08000000000000001030700000017
:100E40000202FEFE0000000008080F0F0000080C60
:100E50000603060C0800000000000000000000006F
:100E60000000000000003030303030303000000032
:100E7000030704000000000000000000000020B094
:100E80009090F0E00000070F0808070F080002FE2E
:100E9000FE1030E0C000000F0F080C070300C0E098
:100EA00030101030200003070C08080C0400C0E0CC
:100EB0003012FEFE0000070F0808070F0800C0E010
:100EC000B090B0E0C00003070C08080C040000203C
:100ED000FCFE220E0C0000080F0F08000000E0F0DE
:100EE0001010E0F01000133724243F1F000002FE12
:100EF000FE2010F0E000080F0F00000F0F000000B0
:100F000010F6F60000000000080F0F0800000000B7
:100F10000010F6F60000183820203F1F000002FEE7
:100F2000FEC0E0301000080F0F00010F0E0000009F
:100F300002FEFE0000000000080F0F080000F0E0B5
:100F400030E030F0E0000F0F0007000F0F0010F04E
:100F5000E01030E0C000000F0F00000F0F00C0E0F5
:100F6000301030E0C00003070C080C07030010F03D
:100F7000E01010F0E000203F3F28080F0700E0F0ED
:100F80001010E0F01000070F08283F3F200010F07D
:100F9000E03010706000080F0F08000000002070A3
:100FA000D09090302000040C0808090F06001010A3
:100FB000FCFE101000000000070F080C0400F0F009
:100FC0000000F0F00000070F0808070F080000F00D
:100FD000F00000F0F0000003070C0C070300F0F035
:100FE00000C000F0F000070F0C070C0F0700307076
:100FF000C080C07030000C0F0301030F0C00F0F034
:10100000000000F0F00013372424243F1F0030308C
:101010001090D07030000C0E0B09080C0C00004032
:10102000E0BE1F0100000000000F1F1000000000C4
:1010300000FFFF0000000000003F3F000000000034
:10104000011FBEE040000000101F0F000000080C50
:10105000040C080C0400000000000000000080C028
:10106000603060C0800007070404040707001124F3
:101070001FBECFEFD8E0DEBFCDBF11E0A0E0B1E0F2
:1010800001C01D92A23CB107E1F70E94F3310C941C
:10109000393A0C9400005D98559A80FD599A80FF6A
:1010A0005998519A539A5A9867FD5B9A67FF5B98D3
:1010B0005A9A5A9866FD5B9A66FF5B985A9A5A98B4
:1010C00065FD5B9A65FF5B985A9A5A9864FD5B9A36
:1010D00064FF5B985A9A5A9863FD5B9A63FF5B982A
:1010E0005A9A5A9862FD5B9A62FF5B985A9A5A988C
:1010F00061FD5B9A61FF5B985A9A5A9860FD5B9A12
:1011000060FF5B985A9A5D9A5A985B98089510927E
:10111000B50110924E011092040110920F01089532
:1011200081E08093B50110924E0182E0809304012A
:1011300010920F01089582E08093B50110924E0144
:1011400084E08093040110920F01089583E080935E
:10115000B50110924E0186E08093040110920F01B8
:10116000089560934E0180930401660F660F660F29
:1011700060930F0108959091B5019F5F9093B50121
:10118000943038F093E09093B50191E09093510141
:1011900002C0109251019091B501682F892F880FDC
:1011A000E0CFE9DF07C680914E0180930101809175
:1011B000B5018093030108958091030160910101BD
:1011C000880FCFCF682F80E066CF8EEAFBDF85EAFD
:1011D000F9CFCF93DF93C0E080E1F4DF80E0F2DF6E
:1011E0008C2F806BEFDFD4E860E081E054DFD150DA
:1011F000D9F7CF5FC83081F78ADFDF91CF910895AB
:1012000058985A985B985D98509A529A539A559A62
:1012100086D45D9A559A5998519A84E187D4589A00
:1012200084E184D48EEACEDF82EECCDF82EACADFAC
:1012300080EAC8DF80ECC6DF8FE2C4DF84E2C2DF71
:1012400081E8C0DF80E090E00E94FB398F73BADF55
:1012500080E4B8DF84EAB6DF86EAB4DFBADF8FEA7B
:10126000B1DF10924E011092040110920F01089507
:101270000895582F28E030E090E841E080E0642FA6
:10128000652309F0892B440F9695215031092115CA
:101290003105A9F70895A0E0B0E0E1E5F9E00C948C
:1012A0006B39EC016A3708F06EC0483308F06BC048
:1012B000342E369436943694F12CE40EF11C81E0F1
:1012C000E81AF10843E0F594E7944A95E1F7122F04
:1012D000127021FF0BC0A701552743195109049F24
:1012E000C001059F900D1124C80FD91F87E08E15EE
:1012F00010F437E0E32EF62EF2948FE0F8228F2DD3
:101300008061F82E97E0292E23186F70562E2170D9
:10131000422EA02EB12C450181E0881A9108E314D9
:1013200060F1822D806B4EDF8F2D4CDF852D4ADFE3
:10133000C12CD12C3E01680C791CC016A0F44420AD
:1013400021F0F301EC19FD0903C0FE01EC0DFD1DB8
:101350008491111101C08DDF682F81E09CDE8FEF39
:10136000C81AD80AEACF112319F0CA19DB0902C03A
:10137000CA0DDB1D33942A94D2CF87E090910401EB
:10138000891B806B1FDFCDB7DEB7E2E10C94873994
:10139000EF920F93282F8F7030E6839FC0011124A6
:1013A00082539A4F322F307324FF02C028E001C0CD
:1013B00028E420931001303218F01092000108C088
:1013C00020E220930001209110012D5E2093100156
:1013D00050E2E52E08E120E040910001609110010B
:1013E0005ADF0F91EF900895EF920F93262FFC0193
:1013F000649131964491FC0132960491FC0133963C
:10140000E49050910001450F50911001650F049632
:1014100042DF0F91EF90089560E0E6CFEF920F93D7
:1014200090914E019F5F90934E0140910401440FB3
:10143000440F440F20E1829FC001112460E1E62E99
:1014400008E020E060910F018259974F24DF8091DE
:101450000F01885F80930F010F91EF9008958F5CCB
:10146000DDCF80E2DBCFA1E0B0E0E9E3FAE00C946D
:101470007B3918162CF48983F4DF89818150F9CFE8
:101480002196E2E00C94973990914E0180E1891BFE
:10149000EACF3DDEF9DF3BCE43DEF6DF41CE8DE322
:1014A000BDCFCF93DF93EC018991882311F0B6DF94
:1014B000FBCFDF91CF910895CF93DF93EC01FE0135
:1014C0008491982F9F7719F0A9DF2196F8CFDF91AB
:1014D000CF910895EF920F93FC0104913196E4901F
:1014E0000296D9DE0F91EF9008950F9381EB93E070
:1014F000E3DF409199014D3F64F460918701709161
:1015000088018091890190918A0103E026E4E3D06B
:1015100002C08FE383DF0F91089597FF09C08F9377
:101520009F938DE27BDF9F918F91909581959F4F47
:101530006AE271E04AE050E00E94E739B2CFEF92F0
:10154000FF920F931F93182F062FF42E83E993E039
:10155000B3DFEE24E0914F01F09150018685E8164B
:1015600011F4812F09C08485E81611F4802F04C07E
:101570008585E81611F48F2D51DFE3948E2D83308D
:1015800049F71F910F91FF90EF900895EF92FF920E
:101590000F931F93182F062FF42E80E002DE89E9A7
:1015A00093E08ADFEE248E2D5ADF79DFE0914F0140
:1015B000F09150018685E81611F4812F09C08485C9
:1015C000E81611F4802F04C08585E81611F48F2DDC
:1015D00025DF47DFE3948E2D833029F71F910F918C
:1015E000FF90EF900895682F80E092E0662309F461
:1015F00091E0623009F481E008950F93082FE6EB43
:10160000F1E0880F880FE80FF11D60817181828100
:101610009381643671058105910578F4209102016A
:10162000222359F4802FDFDF692F0E945423BC014D
:1016300080E090E04EEF03E002C04FEF04E024E0D2
:101640004AD00FDF0F910895863058F4E9EAF1E0AF
:10165000E80FF11DE80FF11D8081918163E007D152
:1016600000CF08951F93182F80918201882319F0CD
:10167000F8DE80E0D3DE54DD8AE893E01DDF812FC1
:1016800082958F70E1DF812F8F70DEDF1F910895CB
:10169000CF93DF938091110182958F70CDE9D1E0D6
:1016A000C80FD11D8881DBDE87E492E005DF8E81E3
:1016B000D6DE87E492E000DFCDE9D1E08091110130
:1016C0008370C80FD11D8E81CADE80911101CADFDF
:1016D000DF91CF910895A0E0B0E0E1E7FBE00C944A
:1016E0006D39D42FC22F6B017C01F7FE0AC08DE249
:1016F00095DEF094E094D094C094C11CD11CE11C00
:10170000F11C033009F4A0C0043009F4A4C0053072
:1017100051F0063081F00730B1F074E6872E912C3D
:10172000A12CB12C17C060EA862E66E8962EAA245A
:10173000A394B12C0FC050E4852E52E4952E5FE0A7
:10174000A52EB12C07C040E8842E46E9942E48E926
:10175000A42EB12C3AE0432E512C612C712CC814CC
:10176000D904EA04FB0470F0C701B6016B5F7F4F38
:101770008F4F9F4FA30192010E94CF3869017A01D8
:10178000DF5FEDCF0EE00D0F1BEA019F012D11244D
:10179000069586E08D1B819F112D11241695912FA2
:1017A000990F910F182F191B2AE030E04FE351E0F9
:1017B000C701B6010E94C439AFE3B1E00D9000202B
:1017C000E9F71197AF53B140BA2E9D013327812F0E
:1017D00090E004968217930714F40F5F1D5FE02FCB
:1017E000F0E0E55BFE4FA490DA2FD11B1D1634F01C
:1017F0008EE214DEDD2311F080E310DE111101C052
:10180000DFEF2FE3E22E21E0F22E8701CD2EDD2443
:10181000C7FCD094802F8E198B1568F4F801819144
:101820008F01FCDD98012F5331402C153D0591F7B8
:101830008EE2F4DDEFCFAA2011F08A2DEFDDCC236C
:1018400089F08C2FEBDD0EC098EE892E93E0992E57
:10185000A12CB12C7FCF80E1882E87E2982EA12C7D
:10186000B12C78CFCDB7DEB7E0E10C9489390F9376
:10187000062FBC0180E090E026E54DEF2CDF0F91B4
:101880000895E82FF0E0EE0FFF1FE859FF4F859114
:10189000949120910001420F20911001620F20E0ED
:1018A00019CECF93DF93C82FD62FE0914F01F0913F
:1018B000500148E16EE18685E4DFE0914F01F0914F
:1018C00050014D2F6C2F8485DCDFE0914F01F091AA
:1018D000500140E06EE18585D4DFDF91CF9108951E
:1018E000CF9377DC80E354DD62E080E890E07CDD3C
:1018F00080E24EDD8BEB90E08FDD60E085E031DC57
:1019000086EA93E0D9DD68E085E02BDC8EE993E0A0
:10191000D3DD88E99AE3E8D15CDC83E139DD83E05B
:1019200037DD84EC90E078DD61E082E01ADC8EE463
:1019300075DD8DE273DD80EC93E0BEDD69E082E071
:1019400010DC80E56BDD8DE269DD80EC93E0B4DDD9
:1019500088E99AE3C9D13DDC81E31ADD81E218DD33
:101960008DE191E059DD60E085E0FBDB8EE456DD42
:101970008DE254DD85E452DD8AEB93E09DDD68E085
:1019800086E0EFDB80E54ADD8DE248DD85E446DD7B
:101990008AEB93E091DD88E99AE3A6D11ADC81E134
:1019A000F7DC81E191E038DD81E0F2DC8DEE90E062
:1019B00033DD60E081E0D5DB8EE430DD8DE22EDDCD
:1019C00084E42CDD8AEB93E077DD68E082E0C9DB1C
:1019D00080E524DD8DE222DD84E420DD8AEB93E0E6
:1019E0006BDD88E99AE380D1F4DB82E3D1DC82E22B
:1019F000CFDC83EE90E010DD60E085E0B2DB8EE4CA
:101A00000DDD8DE20BDD85E409DD85EC93E054DD31
:101A100068E086E0A6DB80E501DD8DE2FFDC85E4A1
:101A2000FDDC85EC93E048DD88E99AE35DD1D1DB0C
:101A300082E1AEDC8DED90E0EFDC82E0A9DC8BECA6
:101A400090E0EADC61E081E08CDB8EE4E7DC8DE2B3
:101A5000E5DC84E4E3DC85EC93E02EDD69E082E004
:101A600080DB80E5DBDC8DE2D9DC84E4D7DC85EC4F
:101A700093E022DD88E99AE337D1ABDB48DB89E3E9
:101A800092E01ADD4DDB84E392E016DD54DB8CE757
:101A900093E012DD5BDB87E492E00EDDE2DC83E4C1
:101AA00092E00ADDC0E08C2F8F7071F48C2F8F7361
:101AB00021F488E99AE318D18CDB60E08C2F8695BD
:101AC0008695869586704DDB80E28C0FA7DCCF5F14
:101AD000CF3549F788E99AE307D17BDBCF910895A9
:101AE000089503D002D001D000D000D003D002D09E
:101AF00001D000D0A89500D003D002D001D000D0F2
:101B000000D003D002D001D000D000D003D002D04A
:101B100001D000D000D003D002D001D000D000D03E
:101B200003D002D001D000D00000089590E0893C9D
:101B300028F0885C48EC849FC0011124009709F4C8
:101B4000089520918100277019F0DBDF019718C0FC
:101B50008130910519F002973EE303C037E180E040
:101B600090E02091B200230F2093B30042E0409315
:101B7000700027E023BF889526E023BF10927000F5
:101B8000A895DCCF8F9384E0D1DF07C08F9382E0EC
:101B9000CDDF03C08F9381E0C9DF8F911F93182F92
:101BA000106410937C00E12FE07880913501E817F4
:101BB00059F0E0933501AEDF8EE980937A0083E03F
:101BC00083BF889582E083BF20E030E0A901E0E098
:101BD0001FC08EE980937A0083E083BF889582E0FE
:101BE00083BF6091780070917900260F371F411DE7
:101BF000511DE43061F480913701803041F084E080
:101C00002030380720F417FD02C01068CACFEF5FFC
:101C100080913401E817E8F2609138017091390140
:101C200017FF04C0609136017091370180E090E0A9
:101C30000E9499382FEF33E040E050E00E94CF3807
:101C4000B901CA012091340130E040E050E00E9427
:101C5000CF38C9011F91089589B183FB882780F986
:101C60004999826090911C01943050F09EE09093CD
:101C700018018093190110921D0191E090931C01AD
:101C8000E0911C01AE2FB0E0A85EBE4F9C9198176A
:101C900021F181111AC0A3E0AE0FA37020911D01A4
:101CA000923041F4B0E0A85EBE4F9C91933069F44D
:101CB0002F5F09C0913049F4B0E0A85EBE4F9C91FF
:101CC000933019F4215020931D01EF5FE370E093EE
:101CD0001C01F0E0E85EFE4F808380911D0187FDCE
:101CE000819580931E010895A0E0B0E0EAE7FEE050
:101CF0000C947439D82EC92E5398519806DF10923F
:101D00001D01E0911C01F0E03196E370FF27E85ED1
:101D1000FE4F80EF8083C5E6D9E19EDF4F9905C075
:101D2000F8DED150D1F7C150B9F7CD2DDC2DF12C13
:101D300005E510E0BB24B394D7FD36C082E3E82E5E
:101D40008BDFE7DEEA94E1F7000F4F9B0F5F0F7325
:101D50000F3349F4111103C0CD2DDC2D14E01F5FAA
:101D6000163928F021C0011102C011111DC0A8951B
:101D70001C161D062CF42A97209711F4CFEFDFEFE5
:101D800080911E01882339F0F394809183018111A1
:101D900002C0B092830184E18F1570F680911D011D
:101DA000811102C0F12CC8CF812FCDB7DEB7E9E099
:101DB0000C949039CF93F7D9C82F80915101882383
:101DC00001F1813051F4C33041F46FE086E0C9D9AC
:101DD0008BE224DB6FE086E0C4D980E49FE184DFFE
:101DE000811104C080911E018111F7CFC33041F4ED
:101DF00080915101813021F460E086E0B2D944DB6A
:101E0000DBD9CF9108958DE090E00E94FB39382F07
:101E10008EE090E00E94FB3920913C01230F30912D
:101E20003D01381F209321013093220183E0283E99
:101E3000380720F0C901885E934002C080E090E03E
:101E400062E370E00E94A838683008F067E0E4E0E0
:101E5000F5E0E60FF11DE60FF11D45915591259135
:101E6000359162E3681B421B530B649FC001659F61
:101E7000900D1124499662E370E00E94A838620F29
:101E8000731F70938601609385018FE090E00E943C
:101E9000FB39992787FD909560913C0170913D0138
:101EA000860F971F9093370180933601909381019D
:101EB000809380010895CF93DF9324E130E0B9014E
:101EC0000E94A838DC01E6E1F5E0E60FF71FE60F17
:101ED000F71FC591D591459155914C1B4A9FC00163
:101EE0001124B9010E94A8386C0F7D1FCB01DF912E
:101EF000CF910895189518951092250110922301FD
:101F000010927B01109261011092240110924D01F8
:101F1000109282011092660110926701109268017E
:101F200010929701109298011092020110928B0169
:101F300010928C0110928D0110928E0184EF80938B
:101F40009A010895A1E0B0E0E8EAFFE00C94793945
:101F500017B818B8E82FF0E0EE5AFE4F949195B9F3
:101F6000262F281BE20FF11D27FDFA95E491E92B9E
:101F7000E4B9698313DE8C016981862F0FDE20911D
:101F800038013091390136952795A90143505109FF
:101F9000B801625E7F4F4617570778F4255E3F4FC2
:101FA0000217130750F4BC01625E7F4F46175707B4
:101FB00020F441E08217930708F040E014B8842F22
:101FC0002196E4E00C949539CF9361E080E0BADF8C
:101FD000C82F62E080E0B6DFC80F62E081E0B2DFC8
:101FE0008C0FCF910895A3E1B0E0E9EFFFE00C94EE
:101FF0006B39182F10922501807FA9F4E5DF83301B
:1020000009F0C9C3E6D882E994E056DA89D88FE3AB
:1020100005DA80ED97E068DE8B30C8F4DAD886E226
:1020200092E04ADAB8C3A6E9FA2E00E0D2D888EEE8
:1020300093E042DAC9DF833021F40F5F043010F0FF
:1020400006C000E088E272DDFA9481F76CC068D8BF
:1020500082EE91E031DA60E083E090E00E94083A9D
:1020600060E084E090E00E94083A60E082E090E066
:102070000E94083A60E082E00E9454235C019A8347
:10208000898361E082E00E9454236C019C838B83EE
:1020900060E081E00E9454237C019E838D83B50122
:1020A000882777FD8095982F03E020E24EEF13DB21
:1020B000B601882777FD8095982F20E24EEF0BDB45
:1020C000B701882777FD8095982F24E04EEF03DB3A
:1020D0002AE5A216B10424F084E190E09A83898372
:1020E000698183E090E00E94083A8AE5C816D1042D
:1020F00024F084E190E09C838B836B8184E090E00A
:102100000E94083A9AE5E916F10424F084E190E08F
:102110009E838D836D8182E090E00E94083A82E088
:102120008093510147DE1F701F87113009F050C0A6
:1021300001E010E058EB252E52ED352E57E4452EE8
:10214000512C62E0A62E78E0972EECE06E2EF4EC97
:10215000CF2EF6E3DF2EE12CF12C3CC0839423E05C
:10216000281570F199D995D984E558D9C801E0D9D5
:1021700078D9E1E0BE1233C00E94602085E192E090
:102180009BD964E080913C0190913D0170DB0E94FD
:10219000900880E192E090D980918501909186012C
:1021A000C7D98EEB8093340117B818B814B815B896
:1021B00088EE93E099DDF4E0BF1681F28B3070F287
:1021C00088EE93E091DD0F5F1F4F0830110511F489
:1021D00018E71CC1812CB02EB0E27B2EC3CFF2E0F9
:1021E000BF1241C02091380130913901A8E5BBE10F
:1021F0000E947438A70196010E94F13881E085B9E8
:1022000085E084B980E0288B398B4A8B5B8BBADC04
:10221000288939894A895B89821B930B9A83898330
:1022200081E184B980E0288B398B4A8B5B8BAADCF7
:10223000288939894A895B89821B930B9C838B830C
:1022400084E085B984E184B981E0288B398B4A8B9D
:102250005B8B98DC28893989821B930B9E838D8345
:102260008AEF91E0B7C093E0B91229C0A5B8EAE0BF
:10227000E4B980E087DC209138013091390136954E
:10228000279538872F83821B930B9A838983F2E2E9
:10229000F4B980E077DC2F813885821B930B9C8317
:1022A0008B8395B828E224B981E06CDC2F813885D6
:1022B000821B930B9E838D838CEE91E08BC084E018
:1022C000B81207C082E894E0F7D87EDE811160C2C0
:1022D00087C095E0B91213C015B8A4B880E052DCED
:1022E0009A83898394B881E04DDC9C838B8374B896
:1022F00082E048DC9E838D838CE092E06BC0E6E058
:10230000BE1227C0A4B8A5B880E03CDC20913801FB
:1023100030913901821B930B9A83898394B895B8C5
:1023200081E030DC2091380130913901821B930B20
:102330009C838B8374B875B882E024DC20913801CB
:1023400030913901821B930B9E838D8388E092E04C
:1023500041C0F7E0BF1240C02091380130913901EF
:10236000A8E5BBE10E947438A20191010E94CF3818
:10237000A5B883E084B980E0288B398B4A8B5B8BCE
:1023800001DC288939894A895B89821B930B9A83EE
:10239000898395B864B881E0288B398B4A8B5B8B35
:1023A000F1DB288939894A895B89821B930B9C83DD
:1023B0008B8375B890E394B982E0288B398B4A8B74
:1023C0005B8BE0DB28893989821B930B9E838D838D
:1023D00086EE91E071D804C0E1E0BE1609F4E4CEC7
:1023E0000E94900889819A8198D83BD88B819C81E2
:1023F00094D837D88D819E8190D8D6CE4DD882E89A
:1024000094E05AD884E692DB115019F0DDDD811199
:10241000F5CF0E94E9088BED91E04ED860913A012A
:1024200070913B0180E090E003E024E04FEF53D94E
:102430000E94900884ED91E03FD860914B0170912B
:102440004C0180E090E024E04FEF45D982E080939A
:102450005101B0DC109225010E94E90880ED91E065
:102460002BD860E082E00E942C1D00918F0110911A
:1024700090011C870B8761E082E00E942C1DC090B8
:102480008F01D0909001DE86CD8660E081E00E94D1
:102490002C1DE0908F01F0909001FE82ED8262E0B1
:1024A00080E00E942C1D80918F01909190019C836F
:1024B0008B8362E081E00E942C1D80918F019091BE
:1024C00090019A87898761E080E00E942C1D8091AD
:1024D0008F01909190019A838983EF85E13021F0FB
:1024E00020914A01223021F4029698878F8304C0FC
:1024F00098878F8310924A01B801882777FD8095CD
:10250000982F03E020E240E0E6D8B601882777FD67
:102510008095982F20E240E0DED8B701882777FD2C
:102520008095982F26E444EFD6D86E01FFE0CF0EB9
:10253000D11CFE013196819191910A97853B9105BD
:10254000F0F4EC15FD05B9F7A6E0EA2EA0E0FA2EAE
:102550008E010F5F1F4FF80160810E5F1F4F6E5E8F
:10256000C7010E94083AFFEFEF1AFF0A0C151D057C
:1025700091F70E94900886ED93E00E945C0A82E049
:102580008093510117DC2F85213029F080914A0179
:10259000823009F0E7C0E0E4BE2E10E0FAE0CF2E72
:1025A000D12CE12CF12C0E94E90880E00E942F0A36
:1025B0008CE793E00E945C0A82E00E942F0A83E489
:1025C00091E00E945C0A1092250160E082E00E9486
:1025D0002C1D009199016091870170918801809173
:1025E000890190918A01073F44F4A70196010E9456
:1025F000CF380F5FB901CA01F6CF009399016093FC
:102600008701709388018093890190938A01073F25
:1026100009F092C0DC01CB0180569109A109B109F2
:1026200080399545A105B10508F086C060919B01F0
:1026300070919C01CB018B569F4F8B32914008F0DB
:102640007BC01F5F153008F478C08DE090E00E94D9
:10265000163A0E94E9088CE391E00E945C0A80919E
:102660009B0190919C010E948D0ACDDB18B881E0FE
:1026700087B980E284B982E091DA853D9340DCF746
:1026800014B8109237011092360182E087DA8C017B
:102690008091800190918101909337018093360160
:1026A00082E07CDA7C01EE0CFF1C10923701109264
:1026B000360182E073DAC0908001D0908101D0921F
:1026C0003701C0923601080F191F0E191F090E9409
:1026D000900885E391E00E945C0A8FE090E00E9400
:1026E000FB3973E0B72EB80E9601D8010E948338EB
:1026F0009701442737FD4095542F0E94F138B20EC0
:102700006B2D8FE090E00E94083A8B2D992787FD72
:1027100090950E948D0A77DB82E0809351014ADB1D
:1027200010924A0186E090E00E94FB39682F89E010
:1027300090E00E94083A16C010E00E949008609154
:102740008701709188018091890190918A0104E04C
:1027500026E4409199010E946B0B88E2E7D9BA9474
:1027600009F021CF89E1809334010E94E90886E2D3
:1027700092E00E945C0A0E94900889E794E00E941F
:102780005C0A1092250182E08093510113DB03C0A3
:1027900052E0852E25CE6396E2E10C948739809134
:1027A0004A0181110DC086E090E00E94FB3961E092
:1027B000680F89E090E00E94083A81E080934A0126
:1027C0000895CF92DF92FF920F931F93CF93DF93E1
:1027D0001F92CDB7DEB7E82FF0E0EB5AFE4FE49141
:1027E000E8B9E7B915B8E62FF0E0EE5AFE4FE491EC
:1027F000E4B908E813E1FE2EFF0C862F6983C2D9E5
:102800006C01F4B869818017910710F48C01F5CF41
:102810000097F9F00E94A6088CE593E00E945C0AFC
:10282000D60120EA36E841E050E00E94893828E9E4
:1028300037EB40E050E00E94CF38CA01B901882749
:10284000992702E021E447EF0E946B0B17B818B8F4
:1028500014B80F90DF91CF911F910F91FF90DF90EF
:10286000CF9008950F931F93CF93DF9385E096D970
:1028700085E090D9EC018C01000F111F000F111F92
:102880000A561F4F10923E01043883E0180750F497
:102890008AEC93E00E945C0A0E94440A81E08093E3
:1028A0003E0126C089ED93E00E945C0A62E0C80107
:1028B0000E94370C0E94310ACA3F86E0D80790F484
:1028C000C333D64060F48DEE94E00E945C0A0E940F
:1028D000440A8DEC2BD91BB88AEC28D909C084EFA7
:1028E00094E002C086ED93E00E945C0A0E94440AD4
:1028F000DF91CF911F910F910895A4E1B0E0E3E83B
:10290000F4E10C946B39982E862E442EA895E62F70
:10291000F0E0EE5AFE4F54903396E490E42FF0E04E
:10292000EE5AFE4F6490E82FF0E0EE5AFE4FF4901E
:102930003396749065B8262D25292C8B24B977B849
:1029400078B8862F27D99E838D8354B8882D22D9B5
:102950001C0114B8D6D815B83C8934B9882D1AD9B9
:102960004D815E818417950720F5805E9E4F481744
:10297000590708F4C5C4E7B818B8F5B88F2D8629EB
:1029800084B960913801709139017E836D83892DFE
:1029900001D9AD81BE81A81BB90BBE83AD83F4B84C
:1029A0002090380130903901892DF4D8281A390A3D
:1029B00008C02D813E81205E3E4F8217930708F4A8
:1029C0009FC42091610180917B0190E0820F911D55
:1029D00002974CF0213009F093C490915E018091F0
:1029E000780198138DC4162D110FED81FE81E43707
:1029F000F10508F49CC0CF01880F991F4496281652
:102A0000390608F094C077B878B8812F852984B941
:102A1000882DBCD86C01842DC1D85C0115B9882DD6
:102A2000B5D89601295A3D4F1F2918B8E7B814B9EF
:102A300015B928173907A8F5842DA8D888349F40E0
:102A400028F084E08093250182E204C084E0809332
:102A5000250184E280932401D0925701C09256014F
:102A6000AC14BD0440F4C6018A199B0990935D0122
:102A700080935C0104C010925D0110925C0196018C
:102A8000A0E1B7E20E94743820911F01309120012B
:102A900040E050E00E94CF38309359012093580114
:102AA00027C4892D73D88C01842D78D86C01F5B892
:102AB000892D6CD8895A9D4F8017910708F020C442
:102AC00078B877B8842D62D8813D934028F484E0AB
:102AD0008093250182E304C084E08093250184E390
:102AE000809324010C151D0538F4C01AD10AD09228
:102AF0007701C092760104C010927701109276019E
:102B00002091380130913901201B310BA0E1B7E24F
:102B10000E947438209126013091270140E050E056
:102B20000E94CF383093730120937201B1C118B85D
:102B3000E7B8F5B80F2D062904B9892D2BD8988749
:102B40008F83C0903801D0903901842D27D89A8383
:102B500089830A97A0F514B881E00E94960D812F11
:102B60008F2984B9892D16D898878F834091380191
:102B700050913901481B590B5C834B83842D0ED82F
:102B80009A83898380912601909127019C0140E0DE
:102B900050E060E677EB87E490E00E94CF38AB81AD
:102BA000BC810E948938A981BA819D0140E050E032
:102BB0000E94CF3829873A874B875C8716C0F60179
:102BC0002F813885E21BF30BFC83EB83CF01498116
:102BD0005A81841B950BBA010E94A838CB01A0E052
:102BE000B0E089879A87AB87BC8714B815B878B8E6
:102BF00077B881E00E94960D99EB291697E0390687
:102C000008F07EC3AC89A4B9882D0E94CA0D8F3507
:102C10009D4008F443C114B881E00E94960DEC89F0
:102C2000E4B981E00E94960DF12FF529FB8BF4B9F0
:102C3000882D0E94CA0D6C01842D0E94CE0D9E87A6
:102C40008D87892D0E94CE0D5C012D853E85213D0D
:102C5000374008F4AEC083E0809325018DE0809377
:102C6000240136012C143D0410F462187308E0901E
:102C70001F01F090200100E010E060E677EB87E4B0
:102C800090E0A80197010E94CF38D3010E948938B3
:102C9000AD85BE859D0140E050E00E94CF38809117
:102CA0007B01882369F080916C0190916D01A09166
:102CB0006E01B0916F0182179307A407B50700F565
:102CC00020936C0130936D0140936E0150936F011E
:102CD0009601A0E1B7E20E947438A80197010E9412
:102CE000CF383093730120937201C501ED85FE85C5
:102CF0008E1B9F0B909371018093700121E001C0A6
:102D000020E080916C0190916D01A0916E01B091D5
:102D10006F0149855A856B857C8584179507A607C1
:102D2000B70738F540936C0150936D0160936E01C5
:102D300070936F018F81988569817A81861B970BCB
:102D400090937101809370012B813C81A0E1B7E2E7
:102D50000E947438209126013091270140E050E014
:102D60000E94CF38205F384D309373012093720159
:102D700003C0222309F488C39101A0E1B7E20E94B5
:102D80007438A80197010E94CF38309375012093C1
:102D900074012D813E81A0E1B7E20E947438A80140
:102DA00097010E94CF38309377012093760121E07C
:102DB0006BC371E62716310408F070C081EDC816A8
:102DC00087E0D80608F46AC084E08093250182E198
:102DD00080932401C60186509F4F8A159B0520F4DD
:102DE00083E1809324011AC0CA14DB0498F4A091F3
:102DF0001F01B091200195012C193D090E947438E2
:102E0000960140E050E00E94CF383093710120934A
:102E1000700104C010927101109270019E2D977084
:102E2000E92E842D806480937C007BE0F72E01E006
:102E300010E0CC24CA94E3E0DE2EA89561E0862D54
:102E400028D5AB89A4B986B18E21E9F354B8809115
:102E50007A00806480937A0080917A0086FDFCCFAE
:102E60008091780090917900F601E81BF90B0E0F24
:102E70001F1FFA9411F7C801880F991F880F991F17
:102E800069E070E00E94A838709377016093760142
:102E900080917B018F5F80937B0189CFFC89F4B99E
:102EA00065B8882D0E94CA0D5C01842D0E94CE0D4C
:102EB0009C838B836091380170913901681B790B79
:102EC0006A30710590F514B881E00E94960D812F4B
:102ED000852984B915B9882D0E94CA0D5C01842DFD
:102EE0000E94CE0D9C838B8380911F0190912001C5
:102EF0009C0140E050E060E677EB87E490E00E94C0
:102F0000CF38D5010E94893820913801309139019C
:102F10004B815C81241B350B40E050E00E94CF3890
:102F200029873A874B875C870CC0C501861B970BA6
:102F30000E94A838CB01A0E0B0E089879A87AB87D0
:102F4000BC87E7B818B804B905B9892D0E94CA0D25
:102F500098878F83842D0E94CE0D9A838983882D34
:102F60000E94CE0D6C012F8138852034364008F048
:102F7000C5C1F5B8892D0E94CA0DAC01F4B8892DE0
:102F8000498B5A8B0E94CA0D9C0115B881E02F878E
:102F9000388B0E94960DF5B8892D0E94CA0D2F8599
:102FA000388949895A892034364008F059C081331C
:102FB000914108F455C08F8198858A569F4F4817D4
:102FC000590708F04DC085E080932501809161018B
:102FD0008F5F8093610189819A818C199D099093FB
:102FE0005701809356012F8038842C183D08309269
:102FF0005D0120925C0114B815B8E8B881E00E9428
:10300000960DF4B8892D0E94CA0D853F910508F0F0
:1030100049C204B9842D0E94CA0D813D934008F431
:1030200041C2892D0E94CE0D8D3D924008F43AC2D6
:10303000F4B8892D0E94CA0D8D3D924008F432C229
:10304000F5B881E00E94960D15B8892D0E94CA0D31
:10305000853F910508F026C286E08093250122C2B3
:1030600004B905B981E00E94960DD12EDF28D4B8AD
:10307000D5B8892D0E94CA0DAC010091380110917C
:103080003901081B190B842D498B5A8B0E94CE0DD8
:103090009E878D872091380130913901281B390B8B
:1030A0003A832983882D0E94CE0D98878F83498982
:1030B0005A8969817A816E3F794008F4B0C083E013
:1030C000809325018CE0809324013801201631067D
:1030D00010F46218730880912601909127016C0109
:1030E000E12CF12C60E677EB87E490E0A7019601F4
:1030F0000E94CF38D3010E948938A981BA819D01ED
:1031000040E050E00E94CF3880916101882369F04F
:103110008091520190915301A0915401B0915501B9
:1031200082179307A407B50708F52093520130933F
:10313000530140935401509355018D859E85EF8135
:10314000F8858E1B9F0B9093570180935601980131
:10315000A0E1B7E20E947438A70196010E94CF381F
:10316000309359012093580121E001C020E0809163
:10317000520190915301A0915401B091550149859C
:103180005A856B857C8584179507A607B70720F5B8
:103190004093520150935301609354017093550131
:1031A0008B819C818A199B099093570180935601CA
:1031B0009501A0E1B7E20E94743820911F0130917F
:1031C000200140E050E00E94CF38205F384D30931E
:1031D00059012093580103C0222309F464C19101CD
:1031E000A0E1B7E20E94743820911F0130912001C4
:1031F00040E050E00E94CF3830935B0120935A01A9
:103200002D813E81A0E1B7E20E947438A7019601AA
:103210000E94CF3830935D0120935C0143C161E689
:103220002616310408F06AC009347DE0170708F457
:1032300065C084E08093250182E0809324018F8122
:10324000988586509F4F8417950720F483E08093DC
:1032500024011CC08F8198858417950798F4A0914C
:103260002601B09127019A01281B390B0E9474385E
:10327000980140E050E00E94CF38309357012093EE
:10328000560104C01092570110925601072D077085
:10329000842D806480937C001BE0AA24A394B12C2D
:1032A000A89560E0862DF5D2D4B8D5B886B1802334
:1032B000E9F7F4B880917A00806480937A00809175
:1032C0007A0086FDFCCF8091780090917900A80E5D
:1032D000B91E115029F7C501880F991F880F991F32
:1032E00069E070E00E94A83870935D0160935C0112
:1032F000809161018F5F80936101D4C017B818B8C5
:1033000014B815B817B897EC291691E0390608F4E7
:10331000B0C018B818EC072D0E2907B981E00E943B
:10332000960DE7B8892D0E94CE0D429710F01150EE
:10333000A1F7452C440C3F2C330C34B835B861E070
:10334000862DA7D2892D0E94CA0D8C0144B815B8CC
:1033500077B878B860E0862D9CD2A0903801B09004
:103360003901882D0E94CA0D6C0154B8892D0E9424
:10337000CA0D9A838983882D0E94CE0D29813A81B6
:10338000281B390B3A83298318B8E7B8F4B8F5B885
:1033900061E0862D7ED2892D0E94CA0D7C01882D88
:1033A0000E94CE0DE81AF90A49815A814E155F052F
:1033B00040F434B835B8892D0E94CA0DFA82E982EA
:1033C00015C085010C191D0944B815B877B878B82F
:1033D00060E0862D5ED2E0903801F0903901882DB2
:1033E0000E94CA0DB701681B790BCB0129813A8174
:1033F0002759310929383141E0F529813A8182176D
:103400009307B8F5C80133E0969587953A95E1F7AB
:10341000893C910510F088EC90E0800F911F498164
:103420005A818417950728F5CA0124E09695879557
:103430002A95E1F780179107E0F480912501823009
:1034400018F482E08093250180912301E82FF0E0B9
:10345000DF01A356BE4F9C9216968C92EE0FFF1F73
:10346000E755FE4F29813A81318320838F5F809316
:103470002301682D892D25D017B818B814B815B8B0
:103480006496E2E10C94873980917B018F5F809391
:103490007B01222389F340927801809279019092F6
:1034A0007A01EACF21E0809161018F5F8093610111
:1034B000222311F340925E0190925F01809260019D
:1034C000DBCFA0E0B0E0E7E6FAE10C946D39982E8E
:1034D000862EA895E62FF0E0EE5AFE4FB490339674
:1034E0002491E82FF0E0EE5AFE4FE4903396F490EA
:1034F00030917B018091610190E0830F911D892BB8
:1035000009F0C2C1A8958091380190913901880FC6
:10351000991F880F991F90933901809338018091EA
:10352000360190913701880F991F880F991F90934A
:103530003701809336018EEB8093340118B827B998
:10354000E4B8E5B858E1D52EC0E0D0E0882D0E945F
:10355000CA0D582E492E892D0E94CE0D8C018C1B30
:103560009D0B97FF03C091958195910903972CF0CE
:10357000A895DA94C1F1E801E9CFEE0C15B8E4B8EA
:10358000892D0E94CA0D8135910568F5E5B8892D10
:103590000E94CA0DEC01F7B8F8B815B8B4B888E1C4
:1035A000A82EC12CD12C892D0E94CA0D782E692EEF
:1035B000882D0E94CE0D7C018C199D0997FF03C0B8
:1035C000919581959109039734F5BB0CB4B8882D7A
:1035D0000E94CA0D5C01003C94E4190708F5C53847
:1035E00081E0D80708F180913801909139019695D2
:1035F00087959695879590933901809338018091AE
:10360000800190918101909337018093360189E187
:103610008093340139C1A895AA9429F36701C3CFD7
:10362000C03B9DE4D907F8F6C0903801D09039012D
:1036300084EAE81682E0F80608F05FC098E9A91667
:10364000B10488F29E01A8E9B7EB0E947438960194
:103650002C1B3D0B40E050E00E94CF3829013A017D
:1036600096012A193B09A8E9B7EB0E947438850135
:1036700020E030E0A90198010E94CF38C837DF4030
:1036800070F4C301B201B2E0660F771F881F991F63
:10369000BA95D1F7620F731F841F951F12C098E768
:1036A000A9169FE0B906A0F4CA01B901A2E0660F0D
:1036B000771F881F991FAA95D1F7640D751D861D68
:1036C000971D25E030E040E050E00E94CF3808C070
:1036D000240D351D461D571D569547953795279541
:1036E000A4E6B0E00E9489386B017C018CEAC80E28
:1036F0008DE0D81EE11CF11C70C0252D342D021761
:10370000130708F49801C72DD62DCE15DF0508F450
:10371000E70159012017310708F45801A09126014B
:10372000B0912701C501821B930B9C010E94743844
:1037300096012A193B0940E050E00E94CF38290148
:103740003A018E01EC16FD0608F48701A0911F01D5
:10375000B09120019E01201B310B0E94743868013A
:10376000E12CF12CA70196010E94CF3898E7A91609
:103770009FE0B90670F4C301B201E2E0660F771F63
:10378000881F991FEA95D1F7620F731F841F951F39
:1037900011C008378FE01807B0F4CA01B90152E030
:1037A000660F771F881F991F5A95D1F7640D751DF5
:1037B000861D971D25E030E040E050E00E94CF38A4
:1037C00069017A010AC069017A01C40CD51CE61CA2
:1037D000F71CF694E794D794C79410912501133001
:1037E00008F001CF9A94980C892D90E0EC01CA5909
:1037F000DE4F2881880F991F880F991FFC01EA541A
:10380000FE4F2223D1F14080518062807380A70156
:103810009601241935094609570957FF07C05095E5
:103820004095309521953F4F4F4F5F4FAAE0B0E054
:103830000E948938A30192012C593F4F4F4F5F4F8F
:103840002C0D3D1D4E1D5F1D0E94CF38232B242BB8
:10385000252B09F0C8CE123019F081E080932501A4
:1038600082E0888380918201E82FF0E0E759FE4FE3
:1038700090828F5F80938201B6CEC082D182E28235
:10388000F38281E08883AFCECDB7DEB7E0E10C9460
:103890008939CF93C82FC09595B160FF02C0982B8E
:1038A00001C09C2395B994B1982B94B982E00E94F1
:1038B000960D84B18C2384B985B18C2385B9CF91C1
:1038C0000895A0E0B0E0E7E6FCE10C9474398AE0EA
:1038D000D82E9FE3B92E28E0C22E17B818B815B815
:1038E000B4B880E00E94CA0D8C0181E00E94CE0D28
:1038F000EC0182E00E94CE0D20912501283079F460
:1039000017B814B81093060100930501D09308016D
:10391000C093070190930A018093090158C031E0D8
:10392000C430D10508F030E021E00430110508F082
:1039300020E0232319F08430910510F321E0083EA4
:10394000134008F020E0C83ED34008F42260883ECF
:10395000934008F4246027B9C0E0D0E0A89580E047
:103960000E94C20D7C0181E00E94CE0D8C0182E09C
:103970000E94CE0D24E1E21625E0F20608F4389A02
:10398000043135E0130708F4399A843125E09207B1
:1039900008F43A9A36E0E316F10428F406301105EB
:1039A00010F4069738F02196C43F81E0D807B1F6AD
:1039B000C092250100E010E00C171D0729F00E94BD
:1039C000850D0F5F1F4FF8CFDA9409F086CFCDB782
:1039D000DEB7E9E00C949039CF92DF92EF92FF923C
:1039E000CF932091870130918801409189015091B6
:1039F0008A01C09199018AE0C82ED12CE12CF12CCA
:103A00008C2FCF5F213A96E8390791E0490751059D
:103A100038F0CA01B901A70196010E94CF38F0CF52
:103A200080939901A0913801B09139010E948938A1
:103A300028E833E140E050E00E94CF38209387012E
:103A4000309388014093890150938A01CF91FF9070
:103A5000EF90DF90CF900895A4E0B0E0E2E3FDE1C5
:103A60000C947139982E862E8FEF860F992D990F11
:103A7000990D890F80936301E92DF0E0EE5AFE4F16
:103A80001491862F90E0FC01EE5AFE4FF490FC0159
:103A9000EB5AFE4F049180912501813009F495C2C3
:103AA0004091230183EA91E069EA71E0DC012A2F69
:103AB000281B2417A0F42D9128110EC09D0127501A
:103AC0003109F9012081291107C0FB0120813181D1
:103AD0002C3D354008F479C26E5F7F4FE8CF1092DD
:103AE0009401109293011092870110928801109214
:103AF000890110928A0110929901E3DE18B807B982
:103B0000F4B8F5B8892D0E94CE0D7C01882D0E9455
:103B1000CE0DE81AF90A14B81092650110926401EA
:103B2000C12CD12C2091640130916501243F31409A
:103B300050F515B914B90E94800D14B815B80E943B
:103B4000860DA895892D0E94CE0D6C01CE18DF0838
:103B500080916401909165018E37910528F02BE4E6
:103B6000C216D1040CF42DC25DE2C51651E0D50693
:103B700084F48091640190916501019690936501B0
:103B800080936401CFCFEDE2CE16E1E0DE060CF4C7
:103B900018C22091640130916501232B21F0C601E8
:103BA00000E010E006C0F5E1CF16F5E0DF06BCF35B
:103BB00085C020916401309165012017310758F0CC
:103BC0000E94810D892D0E94CE0D8E199F09A89506
:103BD0000F5F1F4FEECF8601081B190B1016110641
:103BE00094F4093C11050CF0ECC128EE33E0D80147
:103BF0000E9483389601442737FD4095542F0E9438
:103C0000CF38790102C0E12CF12CA0906401B09072
:103C100065012FEFA21AB20AC501A0E0B0E08093BF
:103C20008F0190939001A0939101B0939201C601EE
:103C3000800F911F16D29C01D5010E9474386093A9
:103C40008F01709390018093910190939201609302
:103C50008701709388018093890190938A0187EF8F
:103C600080939901B9DE20918701309188014091BC
:103C7000890150918A0185E090E029833A834B8342
:103C80005C830E94FB39A8EEB3E0A81BB10987FD55
:103C9000B39529813A814B815C810E94933824E657
:103CA00030E040E050E00E94CF382093870130930D
:103CB00088014093890150938A0141C102DE15B801
:103CC00087E087B918B8F12EFF0CF4B880E4809330
:103CD0007B0084E580BF892D806480937C0086E131
:103CE00080937A000E94890D109265011092640100
:103CF00010928000109285001092840087E286BBAB
:103D000081E280936F0081E080938401F5B8909107
:103D1000250180938100943059F481E090E0092CD2
:103D200001C0880F0A94EAF78095877087B901C0AF
:103D300007B9F89483B7817F83BF8091840188237A
:103D400089F083B7816083BF7894889583B78E7F2D
:103D500083BFF894A89580916401909165018034A7
:103D6000964059F7789410928100E0908600F09088
:103D7000870010926F0086E980937A0014B815B816
:103D8000892D0E94CE0D20913C0130913D01821B76
:103D9000930B0C9690939C0180939B0180916401FE
:103DA000909165018032934008F00BC180916401CD
:103DB000909165019093920180939101F09290010E
:103DC000E0928F0184EF809399018091640190913A
:103DD000650182349105C8F060918F017091900166
:103DE000809191019091920124E630E040E050E012
:103DF0000E94CF3820938F0130939001409391011E
:103E00005093920186EF80939901A0918501B09122
:103E1000860120918F013091900140919101509144
:103E200092010E94893820E233E040E050E00E9495
:103E3000CF3820938F01309390014093910150939C
:103E40009201209387013093880140938901509318
:103E50008A01C2DD80919901843F09F060C0C09061
:103E60008701D0908801E0908901F0908A01F0EA02
:103E7000CF16FFE0DF06E104F104C0F4A7019601CC
:103E80002C543F4F4F4F5F4F60EA7FE080E090E05F
:103E90000E94CF382C0D3D1D4E1D5F1D20938701C4
:103EA000309388014093890150938A018091630186
:103EB00090E08A5F9F4F0E94FB39C0908701D090AD
:103EC0008801E0908901F0908A01482F50E060E07D
:103ED00070E04C155D056E057F0568F4C41AD50ABF
:103EE000E60AF70AC0928701D0928801E092890120
:103EF000F0928A0114C024E1C20ED11CE11CF11C15
:103F0000C416D506E606F70610F40E94CF131092E9
:103F10008701109288011092890110928A0114B9C8
:103F20008091870190918801A0918901B0918A01C7
:103F30004997A105B10508F444C0E12CF12C80910A
:103F40002301882321F0809125018430D1F587E079
:103F5000809325012091990180919A018217BCF0EC
:103F600028132FC0409187015091880160918901E9
:103F700070918A0180918B0190918C01A0918D01AB
:103F8000B0918E0184179507A607B707D0F48091EA
:103F9000870190918801A0918901B0918A01809355
:103FA0008B0190938C01A0938D01B0938E0120938F
:103FB0009A01F0929601E092950180929701909279
:103FC000980117B818B814B815B82496ECE00C94FA
:103FD0008D391F920F920FB60F9211248F939F93DA
:103FE000B59904C080918401811109C0B59B10C0AE
:103FF00080918600909187008A3F910548F48091D6
:10400000640190916501019690936501809364012C
:104010009F918F910F900FBE0F901F9018951F9238
:104020000F920FB60F9211248F939F9310928401D9
:10403000B09B10C080918600909187008A3F9105C7
:1040400048F4809164019091650101969093650117
:10405000809364019F918F910F900FBE0F901F90DE
:1040600018950F9221E08C32920710F48CE291E0C7
:104070008C52914069E170E00E94A83899E16B325E
:1040800010F0982F6BE2981BE4E7F5E0E60FF11DC6
:10409000E60FF11D4591559125913591692F421BF0
:1040A000530B649FC001659F900D11240C9669E12C
:1040B00070E00E94A838620F731FCB010F90089523
:1040C000A0E0B0E0E6E6F0E20C94713988E893E114
:1040D00090933901809338018EEB8093340118B8A6
:1040E00080E187B90E948E0D17B884E00E94CA0D46
:1040F000AC018B5C9840833F9140A0F481E08093B9
:104100004D012091380130913901AFEBB9E00E94A7
:1041100074389A0140E050E00E94CF383093390162
:10412000209338018EE00E94CE0D8EE00E94CA0DD1
:1041300090933D0180933C010E94030FC1E0C7B9F9
:10414000C5B9C4B980E00E94CA0D7C0112E017B95C
:1041500084E0982E95B894B881E00E94CA0DE80ECC
:10416000F91E97B890E1892E85B884B882E00E9444
:10417000CA0DE80EF91E15B8C8B9C7B9C4B9C091BF
:104180003801D091390180E00E94CA0D5C0118B954
:1041900017B994B8009138011091390181E00E945B
:1041A000CA0D6C0198B897B884B880903801909087
:1041B000390182E00E94CA0DC00FD11FC80DD91D60
:1041C000CA19DB09CC19DD09C81BD90B809138014C
:1041D000909139014C01880C991C880E991E8E18FB
:1041E0009F088C1A9D0AA12CB12C9701A0E9BAE175
:1041F0000E947438A50194010E94CF3869017A01A8
:1042000030934C0120934B019E01A0E9BAE10E943A
:104210007438A50194010E94CF3830933B0120935C
:104220003A012057354E309327012093260180E72D
:10423000C81A85EED80AD0922001C0921F0189E1E8
:1042400080933401CDB7DEB7ECE00C948D39A3E157
:10425000B0E0EDE2F1E20C946B3910920201809132
:104260002501813009F01CC280918201813009F062
:1042700017C22090690124E0229EF0011124EA5423
:10428000FE4F80819181A281B381893032E593070D
:10429000A105B10508F004C29B8B8A8B312C61E02B
:1042A000822D631528F00E94F30AB82EA92E03C0B0
:1042B0000E94F30A5C01EA2DF0E0EB5AFE4F749085
:1042C0008B2D90E0FC01EE5AFE4FE49115B818B822
:1042D0002A893B89203F3105A0F430FC12C00091AF
:1042E0001F011091200100591A4121E030E00B2CF0
:1042F00002C0220F331F0A94E2F7C901872987B948
:1043000006C0E4B977B800911F011091200144E183
:10431000642E8B2D0E94C60D4C018A2D0E94CE0D5D
:1043200034E08316910410F4049710F06A9489F72E
:1043300060E460937B0084E580BF8B2D8064809374
:104340007C0096E190937A00E12CF12C1092800091
:10435000109285001092840087E286BB0E94890D2E
:10436000232D2170298B30FC05C081E880938100CA
:1043700078B808C078B80E94920D80E286BB81E8C8
:104380008093810046B345FF12C018B81092810097
:1043900080E286BB80918600909187006C0120911D
:1043A0008400309185008217930768F013C040FFA6
:1043B000E9CF31E036BBA895C70101967C01803575
:1043C000910501F7E2CF40FF05C061E066BB8FEFCA
:1043D000E81AF80A86E980937A0034E1732E8B2D6F
:1043E0000E94C60D4C018A2D0E94CE0D24E082163B
:1043F000910410F4049710F07A9489F780904B019F
:1044000090904C018A899B89880E991E800E911E7E
:10441000209121013091220100399AE11907B0F46D
:1044200061EEC616D104E104F10438F4C60165E07A
:1044300070E00E94A838645101C069E12852310936
:10444000261B310967FD339586E009C0C40160EB86
:1044500076E30E94A83887E0860F285D3F4F90E002
:10446000A0E0B0E08C159D05AE05BF0528F4C81A84
:10447000D90AEA0AFB0A03C0C12CD12C760189892A
:10448000882329F092E2C90ED11CE11CF11C60E5E1
:10449000E616F10418F0C12CD12C76018BE0C81679
:1044A000D104E104F10428F091E0C91AD108E1082F
:1044B000F1084091380150913901A12CB12CA8EE9E
:1044C000B3E00E9474382B013C019801DA010E948C
:1044D0007438A50194010E94CF3844275527C301A1
:1044E000B2010E94CF38C9010E945B0FFC01A501F7
:1044F0009401C701B6010E9499384B015C01BF01CC
:1045000080E090E023E0660F771F881F991F2A95AF
:10451000D1F76B5F7F4F8F4F9F4F2AE030E040E035
:1045200050E00E94CF38C501B4010E94CF38832DDE
:1045300090E0E1E0F0E0EC0FFD1F64E0369EE00D5E
:10454000F11D1124208331834283538369896111D2
:1045500017C06CE0C616D104E104F10488F0FC0138
:104560003196EE0FFF1FEE0FFF1F81E090E08C0FE2
:104570009D1FE80FF91F20833183428353833394B7
:10458000A895339493E0931508F089CE18B884E089
:104590000E94960D21E04D815E816F817885898131
:1045A0009A81AB81BC8184179507A607B70708F0ED
:1045B00020E04D855E856F85788989859A85AB85F4
:1045C000BC8584179507A607B70710F032E001C035
:1045D00033E0E22FF0E0EE0FFF1FEE0FFF1F81E050
:1045E00090E08C0F9D1FE80FF91FDC0194E0399FCC
:1045F000A00DB11D11244D915D916D917C91808133
:104600009181A281B381481759076A077B0708F097
:10461000322FE1E0F0E0EC0FFD1F24E0329FE00DCF
:10462000F11D112480819181A281B38180930B01BE
:1046300090930C01A0930D01B0930E0130FD09C0C1
:104640002A893B89203F310520F48BEF80930201BA
:1046500017C02CEF20930201BC01CD016B5F7F4F8F
:104660008F4F9F4F2AE030E040E050E00E94CF386B
:1046700020930B0130930C0140930D0150930E01D8
:1046800080910B0190910C01A0910D01B0910E0150
:10469000892B8A2B8B2B11F41092020117B814B8B6
:1046A0006396E2E10C9487392F923F924F925F928A
:1046B0006F927F928F929F92AF92BF92CF92DF9232
:1046C000EF92FF920F931F93DF93CF93CDB7DEB797
:1046D0006E970FB6F894DEBF0FBECDBF662EB82E14
:1046E000860F898320912501273041F520918B0188
:1046F00030918C0140918D0150918E0110919A0161
:1047000009C0CA01B9012AE0312D412D512D0E9465
:10471000CF381F5F173FACF32A3560E036074105FD
:10472000510518F48FEF9FEF81C1173F39F480E0F6
:1047300028178DE738074105410510F020E03DE7D7
:104740002C8B3D8B26EDA22E02C094EDA92EE5E523
:10475000F1E0E60DF11D859180608E87E5E5F1E0E1
:10476000EB0DF11D859180608F87E2E5F1E0E60DAC
:10477000F11D7590E2E5F1E0EB0DF11DC59090ECB7
:10478000692AB92A81E0E82EF12C012D112D8E83A2
:104790001F82188619861A861B861C861D86188E0F
:1047A000198E1B8E1A8E8DD880E088B960927C009D
:1047B0000E948A0D3F8537B975B874B80E94910D73
:1047C00014B815B8DD24B4ED9B2EA6ED8A2E3E85D7
:1047D00037B975B874B860927C00A895A0927A0039
:1047E00080917A0086FDFCCFA0927A0080917A00B9
:1047F00086FDFCCF2090780030907900B0927C004C
:10480000A0927A0080917A0086FDFCCF80927A0097
:104810000E948F0D0E94910DC5B8C4B80E94900DE2
:104820000E94920DA895A895A895A89514B815B8BA
:1048300080917A0086FDFCCF20917800309179003C
:10484000288B398B3F8537B9C5B8C4B8A895B092C5
:104850007C00A0927A0080917A0086FDFCCFA09225
:104860007A0080917A0086FDFCCF6091780070918B
:10487000790060927C00A0927A0080917A0086FD97
:10488000FCCF80927A000E948F0D0E94910D75B826
:1048900074B80E94900D0E94920DA895A895A895B5
:1048A000A89514B815B880917A0086FDFCCF409188
:1048B00078005091790014B8CB01820D931DE80E59
:1048C000F91E011D111DEA82FB820C831D8388895C
:1048D0009989840F951F2E813F8168857985280FDE
:1048E000391F611D711D2E833F836887798722E3FD
:1048F0002417150650F075B874B80E94940D14B8BA
:1049000015B8888D8395888F07C0483E73E0570798
:1049100018F08A8D83958A8F8889998928171906B6
:1049200060F03E8537B9C5B8C4B80E94940D14B87C
:1049300015B8898D8395898F07C0883E73E09707E6
:1049400018F08B8D83958B8FD3945D2D5F3F09F08D
:104950003ECF40904B0150904C01440C551C9201AD
:10496000E4E0240D351DEA95E1F7290157016801BE
:104970006E807F8088849984209125012730C1F43E
:104980006C897D89812D912D6C53704080409040C1
:104990009B01AC010E9499389B01AC016FEF71EC57
:1049A0008EE390E00E94CF38621A730A840A950A57
:1049B000A614B704C804D90428F46A187B088C0824
:1049C0009D0803C0662477244301B20180E090E093
:1049D0009301A4010E9499389501A6010E94CF3845
:1049E00081E090E07981870F911D0E94FB3990E072
:1049F000682EC90160E170E00E94A838260F371FB9
:104A0000C9016816190618F4861991090FC08C5E41
:104A10009F4F8615910540F48C899D89843981E1E9
:104A2000980710F00E94CF13812D912D6E960FB62E
:104A3000F894DEBF0FBECDBFCF91DF911F910F91D4
:104A4000FF90EF90DF90CF90BF90AF909F908F90AE
:104A50007F906F905F904F903F902F900895A0E0CF
:104A6000B0E0E5E3F5E20C94713980919501909105
:104A70009601892B09F09AC0E0919701F0E0EB5A7A
:104A8000FE4FC491E0919801F0E0EE5AFE4F149170
:104A90000E94611C18B815B8C7B914B98091980163
:104AA0000E94CE0DEC0100919A01083F0CF07EC0EF
:104AB000045FC0908B01D0908C01E0908D01F0904C
:104AC0008E018AE0882E912CA12CB12C043070F438
:104AD000C701B6016B5F7F4F8F4F9F4FA5019401B8
:104AE0000E94CF380F5F69017A01F0CFD701C6016C
:104AF0000197A109B10988389341A105B10508F0D2
:104B000055C015B914B9A12CB12CAC14BD0430F4A6
:104B10000E94900D82E0A80EB11CF7CF14B815B812
:104B2000A89585E080933401809198010E94CE0D74
:104B3000C817D90720F45C01AC1ABD0A02C0A12C29
:104B4000B12C812C912C8C149D0430F40E94900D7A
:104B50002FEF821A920AF7CF809198010E94CE0D12
:104B600029E120933401A895C817D90718F48C1BA4
:104B70009D0B02C080E090E08A159B0588F49501AA
:104B8000281B390B69F0A4EFB1E00E94743895013D
:104B900040E050E00E94CF38309396012093950179
:104BA0000E94611C17B818B814B815B8CDB7DEB795
:104BB000ECE00C948D39A5E0B0E0E1EEF5E20C9468
:104BC0006B3989E594E0CDD620EF2A8354980E9472
:104BD000850D14BC16BC1092120110921301109294
:104BE00014011092150131E035BB30936E00109224
:104BF000800083E19AE79093890080938800E1E048
:104C0000F0E0F0938B00E0938A0010928500109200
:104C1000840083B5816083BDF6E0F6BBF0936F003E
:104C2000789424E02093810012E319820E947F0D82
:104C3000A8954F9902C031E0398385B581112CC008
:104C400015BC86B5809312010E949B080E94440AFD
:104C50000E94A6080E94440A0E944C0A86E60E940E
:104C60000E0A0E944F0A6091120170911301809107
:104C700014019091150107E028E440E00E946B0BBD
:104C80008AE70E940E0A549880918100882339F0A7
:104C90008FE30E940E0A03C0115041F6D1CF10924B
:104CA000810010926F002091120130911301409108
:104CB000140150911501DA01C9010197A109B10947
:104CC000893D9146A105B10508F029C1AAE0B0E0EF
:104CD0000E948938685F7F4F8F4F9F4F23E09695E2
:104CE0008795779567952A95D1F7660F771F70930B
:104CF0007D0160937C0154980E94850D16BC109232
:104D0000120110921301109214011092150181E00A
:104D100085BB80936E0010927F0110927E0194E01B
:104D20009BBB809168008460809368007894809138
:104D30006D00806180936D001D820E947F0DA8959B
:104D40004F9902C0E1E0E98380916D0084FF05C0C6
:104D5000FD81FF5FFD83FA3F81F715BC80916D00F7
:104D60008F7E80936D00809168008B7F80936800B8
:104D700086B5809312010E949B0884E50E940E0A6A
:104D80000E944F0A8091120190911301A091140189
:104D9000B091150120917C0130917D013C832B83E2
:104DA0001C012D019C01A20160E070E080E090E018
:104DB00003E00E94A23951016201E12CF12C00E0D4
:104DC00010E00E94BB3959016A017B01E82F192FBD
:104DD00003E00E94A2390E2F0E94BB3903E00E941B
:104DE000A23951016201E12CF12C00E010E00E9497
:104DF000BB3902E00E94A23900E00E94BB3901E009
:104E00000E94A23900E00E94BB3903E00E94A2394F
:104E1000EB81FC815F01C12CD12C00E00E9407399D
:104E200039014A011B012C012B813C8120383105BD
:104E300030F007E023E745EFB301C40116C084E674
:104E4000A82EB12CC12CD12CE12CF12C00E010E0CB
:104E50009301C2010E940739E22FF42F07E023E7F4
:104E600047EF6E2F732F8F2F952F0E946B0B3D8175
:104E70003A3F21F48FE30E940E0A51C09301A4012E
:104E8000B101C2012C393E4C434051056105710509
:104E90008105910509F008F442C00E94A60886E643
:104EA0000E940E0A0E944F0A9301A401B101C2019F
:104EB000530164017101820121153A4C4A495B4357
:104EC000610571058105910589F080F020E030E0F1
:104ED0004AE85DE568E775E483E691E00E940739FA
:104EE000E22FF42F07E028E44AEF0FC020E030E87B
:104EF00046EC54EA6EE77DE883E090E00E940739D3
:104F0000E22FF42F07E028E44CEF6E2F732F8F2F42
:104F1000952F0E946B0B8AE70E940E0A54981092FC
:104F20006E0080ED97E00E94740E2981820F49F493
:104F300080911E01833028F43A8131503A83311137
:104F400045CE2596E2E10C9487391F920F920FB659
:104F50000F9211248F939F93AF93BF937894809176
:104F6000120190911301A0911401B09115019F5F5E
:104F7000AF4FBF4F8093120190931301A093140180
:104F8000B0931501BF91AF919F918F910F900FBE7C
:104F90000F901F9018951F920F920FB60F92112429
:104FA0008F9386E085BD8F910F900FBE0F901F905D
:104FB00018951F920F920FB60F921124A895109278
:104FC000810015BC0F900FBE0F901F9018951F9277
:104FD0000F920FB60F9211242F933F938F939F93AD
:104FE00080917E0190917F01892B11F481E085BD34
:104FF00020917E0130917F0180917C0190917D0113
:105000002817390730F015BC80916D008F7E809392
:105010006D0080917E0190917F01019690937F01B8
:1050200080937E019F918F913F912F910F900FBEA2
:105030000F901F9018958D3008F08D50811103C08E
:1050400083E694E03BC0813019F489E594E036C0F2
:10505000823019F480E394E031C0833019F485E2A2
:1050600094E02CC0843019F488EB91E027C085309F
:1050700019F48DEA91E022C0863019F481EA91E0BA
:105080001DC0873019F486E194E018C0883019F407
:1050900085E094E013C0893019F486EF93E00EC0E8
:1050A0008A3019F48FED93E009C08B3019F487E44E
:1050B00094E004C08C3021F48CE394E00E945C0AFC
:1050C00080914E01803118F40E94310AF9CF089581
:1050D0000F93CF9388EB91E044D4C0E01092250168
:1050E00060E082E05AD4809125018730D1F50E949A
:1050F000900883E40E940E0A0E944F0A60918B017F
:1051000070918C0180918D0190918E0103E026E4D5
:1051100040919A010E946B0B0E94440A6091970192
:1051200080919801C1DA90939401809393010E9439
:105130009B088CE693E00E945C0A60919301709159
:1051400094016A3F8FEF780740F480E090E002E03E
:1051500024E04EEF0E946B0B08C08FE30E940E0A02
:1051600004C00E944C0A0E949B080E94440A8C2F93
:105170009FD788EE93E00E94740E81110AC080913F
:105180001E01843030F48C2F9AD7C82F8A3F08F440
:10519000A5CFCF910F91089508950F93843108F012
:1051A0008451833189F489E08093810081E090E02B
:1051B000909389008093880007E028E44DEF60E039
:1051C00074E985E397E748C1823189F489E08093E7
:1051D000810083E090E0909389008093880007E04D
:1051E00028E44DEF60E07AEC8AE99BE335C1813138
:1051F00069F489E08093810087E090E090938900D2
:105200008093880007E028E44DEF6CC0803169F49A
:1052100089E0809381008FE090E0909389008093F3
:10522000880007E028E44DEF6FC08F3089F489E0F3
:105230008093810089E190E09093890080938800B9
:1052400007E028E44DEF6AE871E88BE299E004C1D9
:105250008E3069F489E08093810087E290E090933A
:1052600089008093880007E028E44DEF60C08D300E
:1052700069F489E0809381008FE490E09093890045
:105280008093880007E028E44CEF2CC08C3069F450
:1052900089E0809381008FE990E09093890080936A
:1052A000880007E028E44CEF2FC08B3069F489E0D8
:1052B000809381008FE891E090938900809388002B
:1052C00007E028E44CEF33C08A3089F489E080930A
:1052D00081008FE193E0909389008093880007E03C
:1052E00028E44BEF60E075E68DEC9DE1B5C08930B8
:1052F00081F4809381008FE396E0909389008093FE
:10530000880007E028E44BEF60E872EB86EE9EE051
:10531000A3C0883089F489E0809381008FE99FE001
:10532000909389008093880007E028E44BEF60E0C9
:1053300071EE85EF95E090C0873089F489E0809325
:10534000810084E493E2909389008093880007E0D1
:1053500028E44BEF6FE77DEF83EA92E07DC0863073
:1053600089F489E08093810089E593E29093890034
:105370008093880007E028E44BEF6FEE7BE682EA3B
:1053800092E06AC0853089F489E08093810082E8E8
:1053900093E2909389008093880007E028E44BEF24
:1053A00068E471E68FE992E057C0843089F489E0BF
:1053B000809381008FE79EE390938900809388001B
:1053C00007E028E44BEF60E478E78DE791E044C024
:1053D000833069F48BE08093810080E792E09093C2
:1053E00089008093880007E028E44AEFA0CF82304C
:1053F00071F481EE94E0909389008093880007E037
:1054000028E44AEF60E870EF8AEF92E025C081302F
:1054100089F48BE08093810089E698E1909389007C
:105420008093880007E028E44AEF60E876E988E99D
:1054300090E012C0811112C08CE08093810088E05E
:105440009DE3909389008093880007E028E44AEF69
:1054500060E472E48FE090E00E946B0B8AE70E94A8
:105460000E0A0F910895A0E0B0E0E9E3FAE20C948F
:10547000753980E394E075D280E1809380001092CA
:105480006F0081E090E090938900809388001092F3
:105490008B0010928A0083E086BB1092820088E025
:1054A0008093810015B881E184B918B881E087B98B
:1054B000229A89E08093810000E0F12CE12C12E136
:1054C000CEE1D0E0802F90E00A96BE010E94BC3869
:1054D000D62EC62E6F1589F00E94870880E394E0CF
:1054E0000E945C0AF12CFC1428F48EE20E940E0A41
:1054F000F394F9CF0E94440AFD2CE116F9F014311F
:1055000008F014510E9490080E94310A83E1810F33
:1055100044DE0E94440A0E94A6080E94310A81E0EB
:10552000810F3BDE0E94440A0E949B088EE30E948A
:105530000E0A812F32DE0E94440AE12E88EE93E0AB
:105540000E94740E90911E01811102C0992379F07E
:1055500000E09B3060F0109281001092800017B83C
:1055600014B82298CDB7DEB7E8E00C949139909149
:105570001D0197FD9C5E190F853118F01F5F803566
:1055800050F7802F9CD5082F803F08F49BCFE3CFA6
:10559000A4E0B0E0EEECFAE20C946F3985E294E01E
:1055A000E0D183E28093800010926F0081E090E070
:1055B00090938900809388008FEF90E090938B0008
:1055C00080938A0083E086BB1092820015B881E147
:1055D00084B918B881E087B9229A89E08093810064
:1055E00010E000E08AE0782E612C94E6C92ED12CE0
:1055F000E12CF12C88248A9423E0922EA12CB12C4A
:105600007016E9F183E6871510F4ECE97E0E272D7C
:1056100030E0AFEFB3E00E9474386E5C7F4F8F4F85
:105620009F4FA70196010E94CF3830938B002093A3
:105630008A0029833A834B835C830E949008A8EEFA
:10564000B3E029813A814B815C810E9489386150A5
:105650007E4F8F4F9F4FA50194010E94CF38CA0102
:10566000B90105E025E24FEF0E946B0B0E94440A4E
:10567000F8E2F61518F48CE30E94960D072D80E4ED
:1056800096E00E94740E682E82E8861558F417B8CA
:10569000109281001092800014B822982496EEE0B7
:1056A0000C948B3990911E019B3088F780911D01DD
:1056B00087FD8C59780EE2E3E61518F4FAE07F0EC8
:1056C00003C0662049F0739410E0812FF8D4182F9E
:1056D000803F08F495CFDBCF9111F6CFF6CF0F9333
:1056E000CF93DF938FED93E03CD180E090E00E9478
:1056F000FB39C82FD0E081E80E94E2088C2F0E947D
:10570000E2080E9490088C2F90E0A0E0B0E004E056
:1057100020E240E0BC01CD010E946B0B0E94440AD4
:1057200080E496E00E94740E811105C090911E01E4
:10573000911103C003C08238C0F4D0E090911E01E3
:105740009B3098F490911D0197FD90589C0F8823F1
:1057500029F0893210F09F5F01C09158C92FCF778F
:105760008D2FADD4D82F803F30F26C2F80E090E0A9
:105770000E94083ADF91CF910F9108950F93CF9334
:10578000DF9385E094E0EDD085E090E00E94FB3966
:10579000C82FD0E00E949008C7FF11C08DE20E9480
:1057A0000E0A8C2F992781950CF49095BC018827BF
:1057B00077FD8095982F03E025E24FEF09C003E0C5
:1057C00025E24FEF6C2F772767FD7095872F972F76
:1057D0000E946B0B0E94440A80E496E00E94740EC3
:1057E000811105C090911E01911103C003C0823840
:1057F00000F5D0E090911E019B30D8F490911D01EE
:1058000097FD02C0C90F01C0C91B882329F0893246
:1058100010F0CF5F01C0C150C13514F0C55603C0B0
:10582000CC3E0CF4CB598D2F4AD4D82F803F08F4AE
:10583000B1CF6C2F85E090E00E94083ADF91CF91C4
:105840000F910895CF93DF938EE694E08AD0D0E055
:10585000C0E00E9490080E94310A8CE08C0FEBDBC4
:105860000E949B088EE30E940E0A8C2FE4DB0E94AC
:10587000A6080E94310A81E08C0FDDDB80E49FE105
:105880000E94740E8111D0E090913E01913009F494
:10589000D0E0823340F490918301992309F444C00D
:1058A000882309F441C0CC2309F458C0C13019F44D
:1058B00080E081D931C0C23011F4D5DD2DC0C330B4
:1058C00011F466DE29C0C43011F402DC25C0C530F5
:1058D00011F4FFD321C0C63011F468D41DC0C73005
:1058E00011F49AD119C0C83011F448DF15C0C9307D
:1058F00021F481E10E94F30F0FC0CA3011F4EFDEF2
:105900000BC0CB3011F4DAD207C0CC3029F45E984A
:1059100080E090E00E94740E10921E0110921D0112
:105920008EE694E01ED080E090911E019A30B0F493
:1059300090911D01992319F097FD03C0D0E0C90F84
:1059400003C0935FC90FD0E08111CF5FDF5FD23812
:1059500028F4CD3008F47DCFCD507BCFDF91CF91AF
:105960000895A2E0B0E0E7EBFCE20C947A39898379
:105970009A830E94E90889819A810E945C0A14E650
:1059800082E00E94960D4F9902C01150C9F70E9403
:1059900090082296E3E00C949639A4E0B0E0E3EDA1
:1059A000FCE20C947039882E762E862F90E0FC0154
:1059B000EB5AFE4F0491E82DF0E0EE5AFE4FB49002
:1059C000FC01EE5AFE4F1491109294011092930133
:1059D00010928701109288011092890110928A0119
:1059E00087EF809399010E94611C18B807B914B918
:1059F00015B9882D0E94CE0D8C01872D0E94CE0DE9
:105A0000081B190B14B8109265011092640120E074
:105A100030E09CE2E92EFF24F3944AE0A42E54E601
:105A2000952E8091640190916501843D904308F02A
:105A300069C0B5B88091640190916501892B89F0A6
:105A40006701C21AD30A6091640170916501A29E38
:105A5000C001A39E900D11240E94A838C616D70637
:105A600050F4B4B80E94890D14B8809164019091EB
:105A70006501019628C080916401909165010B97A2
:105A8000C8F06091640170916501929EC001939E7F
:105A9000900D11240E94A8386C157D0558F4B4B8F7
:105AA0000E947F0D14B880916401909165018C591A
:105AB0009F4F09C0B4B80E94840D14B8809164014E
:105AC000909165010A96909365018093640115B8E1
:105AD0000E948B0DA895882D0E94CE0D9C01201B45
