:100000000C9452020C9464020C9464020C946402EA
:100010000C9464020C94B11E0C9464020C94880637
:100020000C9464020C9464020C94CD160C94A31EE0
:100030000C94951E0C94A7160C9464020C94640204
:100040000C946F1E0C9464020C9464020C94640271
:100050000C9464020C9489060C9464020C9464025F
:100060000C9464020C9464025245465F523D005267
:1000700045465F433D00203E3130306E4600706E95
:10008000056D006B4D090A0C0208200104100011D7
:100090001111131D1010041F111111111F04001E46
:1000A0000203021E0000000F0818080F00001113C1
:1000B000171F1713110011191D1F1D1911001B1BEC
:1000C0001B1B1B1B1B00432B455352405450313A02
:1000D0003300664054503200203530487A004330B7
:1000E000200052695F4C6F3D0052695F48693D00D6
:1000F00052303D0052482F524C002B52482D203197
:1001000032203133203233002B524C2D203132201B
:1001100031332032330052482B0052482D005248D0
:10012000663D005265663D00494345733D004943C5
:1001300045303D0056657273696F6E20312E313245
:100140006B002D77772D002D07062D002A0120202A
:10015000002D022D002D012D004E6F742063616C67
:10016000696272617465642120466F72FF63616C1D
:100170006962726174696F6E20636C616D70207466
:1001800068652033FF70696E7320746F67657468EB
:10019000657220616E642073746172742077697473
:1001A0006820746865FF6B65792E2041636B6E6F04
:1001B000776C65646765207468652073656C662D6F
:1001C00074657374207769746820746865206B6542
:1001D000792077697468696EFF32732E20446973E1
:1001E000636F6E6E6563742070696E7320616674F0
:1001F000657220746865FF6D6573736167652022A1
:1002000069736F6C617465FF50726F6265212220A3
:1002100069732073686F776E2E20536F66747761F1
:10022000726520616E6420646F63756D656E7461C4
:1002300074696F6E2069732061742073766E3A2F33
:100240002F206D696B726F636F6E74726F6C6C656B
:10025000722E206E65742F7472616E736973746F81
:1002600072207465737465722000202049723D000D
:100270004C3D0020566C6F73733D00204553523D3A
:10028000005643433D0043656C6C21002D032D0057
:100290004056673D002056743D0055663D002031B4
:1002A00032333D00504E50004E504E00433D00430F
:1002B0003D00423D002D49474254004A4645540006
:1002C0002D4D4F53004F4B004261742E2000736838
:1002D0006F72742050726F626573210053656C6693
:1002E00074657374007475726E2100726F7461723C
:1002F0007920656E636F6465720031302D626974B8
:100300002050574D00662D47656E657261746F729F
:1003100000537769746368206F66660053686F776F
:10032000206461746100566F6C7461676500467289
:10033000657175656E6379005472616E736973746B
:100340006F720053656C656374696F6E3A00546533
:10035000737420456E640069736F6C61746520501E
:10036000726F626573210053656C667465737420E7
:100370006D6F64652E2E0054696D656F7574210074
:100380006F722064616D6167656420004E6F2C2080
:10039000756E6B6E6F776E2C206F720020756E6BB2
:1003A0006E6F776E00546879726973742E005472A0
:1003B00069616300706172740064616D6167656496
:1003C0002000656D70747921007765616B0054655C
:1003D0007374696E672E2E2E00BA03870358032E9E
:1003E000030703E402C302A40288020000140029E8
:1003F000003E005300690080009700AE00C600DF99
:1004000000F80012012D01490165018201A001BE21
:1004100001DE01FF012102440268028E02B502DE04
:10042000020903350364039403C803FE033704730E
:1004300004B404F90443059305EA054906B3062903
:1004400007AE074808FF08DE09AF57B950C24A9700
:10045000451141133D87395A367E33E8308E2E6977
:100460002C712AA128F5266925F923A222622137B9
:10047000201E1F161E1E1D341C571B851ABF190374
:10048000195018A61704176A16D6154915C2144133
:1004900014C5134E13DC126E1205129F113D11DFAD
:1004A0001084100011241FBECFEFD8E0DEBFCDBFF7
:1004B00011E0A0E0B1E001C01D92A63BB107E1F759
:1004C0000E9432260C94612E0C94000080FD5C9AF0
:1004D00080FF5C98549A00005D9A559A58985998F4
:1004E0005A985B9864FD589A509A65FD599A519AAA
:1004F00066FD5A9A529A67FD5B9A539A00005D987E
:10050000B0D287FD10C05D9A589859985A985B9858
:1005100060FD589A61FD599A62FD5A9A63FD5B9A93
:1005200000005D989ED20895CF93C82F682F81E078
:100530000E9466020E942805C53009F140F4C230CD
:1005400091F0C330A9F0C130E1F48EE312C0C8309D
:10055000A0F0CE31B1F48FE40E94FB0488E60E9443
:10056000FB048DE60FC08CE70E94FB048CE30AC0FD
:100570008CE70E94FB048CE705C082E503C085E799
:1005800001C08C2F0E94FB04CF9108958F5C0E94C4
:100590009402089580E20E94940208958DE00E94E2
:1005A000FB048AE00E94FB040895CF93C82F682FB4
:1005B00080E00E9466020E942805CF7BC03811F4BB
:1005C0000E94CE02CF91089580E80E94D50208953E
:1005D00080EC0E94D502089584E90E94D502089516
:1005E00084ED0E94D5020895982F969580FF02C051
:1005F00080EC01C080E8860F24E1929F800D1124D9
:100600000E94D502089581E00E94D50282E00E94F6
:1006100033050E94CE020E94E402089586E00E9403
:10062000330560E380E80E94660281E00E943305A2
:1006300060E380E80E9466020E94220560E380E891
:100640000E9466020E94220560E280E80E94660223
:1006500082E00E94330589E20E94D5028CE10E946B
:10066000D50282E50E94D50289E60E94D50284E780
:100670000E94D50288E20E94D5028CE00E94D50239
:1006800086E00E94D5020E9403030895CF93DF9372
:10069000EC018991882319F00E949402FACFDF912E
:1006A000CF910895CF93DF93EC01FE018491982FB1
:1006B0009F7721F00E9494022196F7CFDF91CF918E
:1006C00008950F931F93CF93DF93EC018C01085F84
:1006D0001F4FFE0184910E9494022196C017D107FA
:1006E000C1F7DF91CF911F910F910895CF93C4E18E
:1006F0000E94CA02C150E1F7CF91089597FF09C047
:100700008F939F938DE210DF9F918F9190958195AC
:100710009F4F6DE171E04AE050E00E940A2EB6DF83
:100720000895EF92FF920F931F93182F062FF42E28
:100730008EE992E0B7DFEE24E0915801F091590183
:100740008685E81611F4812F09C08485E81611F416
:10075000802F04C08585E81611F48F2DE5DEE39423
:100760008E2D833049F71F910F91FF90EF900895E0
:100770000F93E7E2F1E0880F880F880FE80FF11D73
:100780006081718182819381643671058105910553
:1007900070F420910001222351F4848165810E942C
:1007A000221ABC0180E090E04EEF03E002C04FEF60
:1007B00004E02EE15BD0EEDE0F9108950F938330BD
:1007C00078F4EAEAF1E0E80FF11DE80FF11D60812D
:1007D0007181812D912D4DEF26E503E047D0DADEC2
:1007E0000F9108951F93182F80918401882319F089
:1007F000D1DE80E099DEECDE8AE992E053DF812FE2
:1008000082958F70DBDF812F8F70D8DF1F91089565
:10081000DF92EF92FF920F931F93CF93DF93D090CD
:100820000B018D2D82958F70CEE9D1E07E01E80E0F
:10083000F11CF7018081AADE05E511E0C80132DF75
:10084000F7018681A3DEC8012DDF8D2D8370C80FCF
:10085000D11D8E819BDE80910B01C4DFDF91CF9192
:100860001F910F91FF90EF90DF900895A0E0B0E00E
:10087000ECE3F4E00C94922D142FC22F033009F412
:10088000A7C0043009F4ABC0053051F0063081F048
:100890000730B1F0B4E6CB2ED12CE12CF12C17C0EF
:1008A000A0EACA2EA6E8DA2EEE24E394F12C0FC0BB
:1008B000F0E4CF2EF2E4DF2EFFE0EF2EF12C07C0A4
:1008C000E0E8CE2EE6E9DE2EE8E9EE2EF12C5AE045
:1008D000852E912CA12CB12C6C157D058E059F05C4
:1008E00060F06B5F7F4F8F4F9F4FA50194010E9477
:1008F000EC2CCA01B9011F5FEFCF0CE0010F07FD1F
:1009000004C0033118F002E101C000E01BEA019FBE
:10091000112D11241695212F220F210F021B21F0DA
:100920001F5F23E0201B022F2AE030E049E451E062
:100930000E94E52DA9E4B1E00D900020E9F71197A0
:10094000A954B140BA2E9D013327802F90E0049620
:100950008217930714F41F5F0D5FE12FF0E0E25858
:10096000FF4FA490DA2FD01B1D1644F08EE20E9498
:100970009402DD2319F080E30E949402011101C06A
:10098000DFEF49E4E42E41E0F42E8701CD2EDD2493
:10099000C7FCD094802F8E198B1578F4F8018191C3
:1009A0008F010E9494029801295431402C153D0575
:1009B00089F78EE20E949402EDCFAA2019F08A2DC9
:1009C0000E949402CC2391F08C2F0E9494020EC0BE
:1009D00038EEC32E33E0D32EE12CF12C78CF20E17A
:1009E000C22E27E2D22EE12CF12C71CFCDB7DEB78B
:1009F000ECE00C94AE2D8F932F932AE080953B9AD8
:100A0000089410F4439802C0439A000020D027D0E5
:100A100086952A95B1F72F918F91089503D002D032
:100A200001D000D000D003D002D001D000D0A895D2
:100A300000D003D002D001D000D000D003D002D02B
:100A400001D000D000D003D002D001D000D000D01F
:100A500003D002D001D000D000D003D002D001D00A
:100A600000D00000089590E0893C28F0885C48ECB4
:100A7000849FC0011124009709F4089520918100FA
:100A8000277019F0DBDF019716C08130910519F04E
:100A900002973EE303C037E180E090E02091B2008E
:100AA000230F2093B30042E04093700027E023BF60
:100AB000889526E023BFA895DECF8F9384E0D3DF0F
:100AC00007C08F9382E0CFDF03C08F9381E0CBDF3D
:100AD0008F911F93182F106410937C00E12FE07802
:100AE00080914001E81759F0E0934001B0DF8EE9B2
:100AF00080937A0083E083BF889582E083BF20E003
:100B000030E0A901E0E01FC08EE980937A0083E025
:100B100083BF889582E083BF6091780070917900EF
:100B2000260F371F411D511DE43061F480914201B1
:100B3000803041F084E02030380720F417FD02C0F7
:100B40001068CACFEF5F80913F01E817E8F260912B
:100B500043017091440117FF04C0609141017091FD
:100B6000420180E090E00E94B42C2FEF33E040E09F
:100B700050E00E94EC2CB901CA0120913F0130E005
:100B800040E050E00E94EC2CC9011F910895EF92C3
:100B9000FF920F931F93CF93DF93F82EE92EC5E6B4
:100BA0004F9B05C0CF2DDE2D05E510E01BC081E079
:100BB0000E943305C150A1F7F5CF82E00E943305B2
:100BC000000F4F9B0F5F0F730F3379F4111103C0A8
:100BD000CF2DDE2D14E01F5F163990F4A8951C165A
:100BE0001D0644F0D7FFE9CF0BC00111F7CF112349
:100BF000A9F306C02A972097A9F7CFEFDFEFF2CF2E
:100C0000812FCDB7DEB7E6E00C94B42D88E893E1F0
:100C10000E94C7050E94E8020E9476030E94E80233
:100C200008958BE090E00E94202E382F8CE090E019
:100C30000E94202E20914701230F30914801381F38
:100C4000209314013093150183E0283E380720F0EB
:100C5000C901885E934002C080E090E062E370E0EA
:100C60000E94C42C683008F067E0E9EDF3E0E60F7D
:100C7000F11DE60FF11D459155912591359162E3E6
:100C8000681B421B530B649FC001659F900D11248C
:100C9000499662E370E00E94C42C620F731F709348
:100CA0008701609386018DE090E00E94202E9927B5
:100CB00087FD90956091470170914801860F971FBD
:100CC000909342018093410190938301809382012C
:100CD0000895CF93DF9324E130E0B9010E94C42C42
:100CE000DC01EBEEF3E0E60FF71FE60FF71FC5910F
:100CF000D591459155914C1B4A9FC0011124B901D2
:100D00000E94C42C6C0F7D1FCB01DF91CF91089501
:100D100018951895A1E0B0E0E0E9F6E00C949A2D62
:100D200098E097B998B9E82FF0E0E557FF4F249184
:100D300025B9E62FF0E0E557FF4F9491922B94B937
:100D400069830E9469058C016981862F0E9469056B
:100D5000209143013091440136952795A9014152D4
:100D600051094017510760F4255E3F4F02171307E2
:100D700038F44817590720F441E08217930708F028
:100D800040E014B8842F2196E4E00C94B62DCF9364
:100D900061E080E00E948A06C82F62E080E00E9445
:100DA0008A06C80F62E081E00E948A068C0FCF910C
:100DB0000895A3E1B0E0EFEDF6E00C948C2D182F30
:100DC00010921801807FE9F40E94C706833009F071
:100DD00016C40E94030387E693E00E9452030E9418
:100DE000E8028FE30E94940280ED97E00E94C7051D
:100DF0008B30F8F40E94030384E391E00E945203D5
:100E0000FEC336E9F32E00E00E9403038EEC92E06D
:100E10000E9452030E94C706833021F40F5F043002
:100E200010F007C000E088E20E943305FA9461F7F1
:100E30006FC00E94E80280EF90E00E94520360E0E1
:100E400082E090E00E942E2E60E083E090E00E941D
:100E50002E2E60E081E090E00E942E2E60E082E085
:100E60000E94221A5C019A83898361E082E00E94D9
:100E7000221A6C019C838B8360E081E00E94221A1D
:100E80007C019E838D83B501882777FD8095982FFF
:100E900003E020E24EEF0E943604B601882777FD7A
:100EA0008095982F20E24EEF0E943604B7018827E4
:100EB00077FD8095982F2EE14EEF0E9436042AE5AB
:100EC000A216B10424F084E190E09A8389836981B9
:100ED00082E090E00E942E2E8AE5C816D10424F00C
:100EE00084E190E09C838B836B8183E090E00E949F
:100EF0002E2E9AE5E916F10424F084E190E09E8319
:100F00008D836D8181E090E00E942E2E0E94060666
:100F10001F701F87113009F068C0AA24A394B12C58
:100F200008EB202E02ED302E07E4402E512C82E0FB
:100F3000882E98E0992E24ECC22E26E3D22EE12CA6
:100F4000F12C55C0739423E0271508F443C00E9488
:100F5000E8020E9476030E94E4020E9476030E9447
:100F6000E40284E50E949402C5010E9489030E9464
:100F7000CA02113009F040C00E941E1783E291E0BE
:100F80000E945203609147017091480180E090E017
:100F900004E026E54DEF0E9436040E94E8028EE14F
:100FA00091E00E94520380918601909187010E94F6
:100FB00089038EEB80933F0197B898B814B815B8A1
:100FC00088EE93E00E94C705143009F4BBCF8B3044
:100FD00008F4B8CF88EE93E00E94C7058FEFA81AF7
:100FE000B80A98E0A916B10411F418E736C1712CBB
:100FF0001A2DA0E26A2EABCF123009F044C0209126
:10100000430130914401A8E5BBE10E94932CA70164
:1010100096010E940E2D81E085B9E5E0E4B980E0FB
:10102000288B398B4A8B5B8B0E945D052889398917
:101030004A895B89821B930B9A83898381E184B9F6
:1010400080E0288B398B4A8B5B8B0E945D05288959
:1010500039894A895B89821B930B9C838B8384E04B
:1010600085B984E184B981E0288B398B4A8B5B8B0D
:101070000E945D0528893989821B930B9E838D838D
:1010800088E091E0C2C0133061F585B8FAE0F4B9A8
:1010900080E00E945D052091430130914401369526
:1010A000279538872F83821B930B9A83898322E2AB
:1010B00024B980E00E945D052F813885821B930B47
:1010C0009C838B8395B888E284B981E00E945D059A
:1010D0002F813885821B930B9E838D838AEF90E04E
:1010E00094C0143049F487E593E00E9452030E94B3
:1010F000C706811181C28FC01530B1F415B884B80C
:1011000080E00E945D059A83898394B881E00E9403
:101110005D059C838B8364B882E00E945D059E839D
:101120008D838AE191E071C0163051F584B885B89D
:1011300080E00E945D052091430130914401821BB3
:10114000930B9A83898394B895B881E00E945D05DA
:101150002091430130914401821B930B9C838B832C
:1011600064B865B882E00E945D052091430130912A
:101170004401821B930B9E838D8386E191E045C0E1
:10118000173009F045C02091430130914401A8E592
:10119000BBE10E94932CA20191010E94EC2C85B826
:1011A00093E094B980E0288B398B4A8B5B8B0E944B
:1011B0005D05288939894A895B89821B930B9A834B
:1011C000898395B8ECE0E4B981E0288B398B4A8BB0
:1011D0005B8B0E945D05288939894A895B89821B5E
:1011E000930B9C838B8365B8F0E3F4B982E0288B82
:1011F000398B4A8B5B8B0E945D0528893989821B5C
:10120000930B9E838D8384EF90E00E94520303C072
:10121000113009F4D1CE0E94E80289819A810E949E
:101220007E030E94CA028B819C810E947E030E94E1
:10123000CA028D819E810E947E03BECE0E94E8027A
:101240000E9476030E94E80287E593E00E94520321
:1012500084E60E943305115021F00E94C7068111D7
:10126000EDCF0E94030389EE90E00E94520360914B
:1012700045017091460180E090E003E02EE14FEFE0
:101280000E9436040E94E80282EE90E00E9452031F
:10129000609155017091560180E090E02EE14FEF92
:1012A0000E9436040E940606109218010E94030351
:1012B0008EED90E00E94520360E082E00E94ED1308
:1012C00000919001109191011C870B8761E082E0F1
:1012D0000E94ED13C0909001D0909101DE86CD86E2
:1012E00060E081E00E94ED13E0909001F0909101A8
:1012F000FE82ED8262E080E00E94ED138091900119
:10130000909191019C838B8362E081E00E94ED13B8
:1013100080919001909191019A87898761E080E0A6
:101320000E94ED1380919001909191019A8389839D
:10133000EF85E13021F020915401223021F4029612
:1013400098878F8307C098878F83109254018CE011
:101350000E94D502B801882777FD8095982F03E079
:1013600020E240E00E943604B601882777FD809590
:10137000982F20E240E00E943604B701882777FDCD
:101380008095982F26E444EF0E9436046E01FFE01A
:10139000CF0ED11CFE013196819191910A97853B28
:1013A0009105E0F4EC15FD05B9F704E010E0CE017D
:1013B00001967C01F7016081F2E0EF0EF11C6E5E98
:1013C000C8010E942E2E0F5F1F4FEC14FD0491F7F1
:1013D0000E94E80285EC92E00E9452030E940606F9
:1013E0002F85213029F080915401823009F0F0C01E
:1013F000E0E4BE2E10E0FAE0CF2ED12CE12CF12C4F
:101400000E94030380E00E94C6028CE892E00E94E2
:10141000520382E00E94C60286E790E00E945203D7
:101420001092180160E082E00E94ED1300919A0191
:10143000609188017091890180918A0190918B015E
:10144000073F44F4A70196010E94EC2C0F5FB901FD
:10145000CA01F6CF00939A016093880170938901C5
:1014600080938A0190938B01073F09F09AC0DC01B9
:10147000CB0180569109A109B10980399545A10593
:10148000B10508F08EC060919C0170919D01CB0167
:101490008B569F4F8B32914008F083C01F5F1530F1
:1014A00008F480C08BE090E00E943C2E0E94030371
:1014B0008FE690E00E94520380919C0190919D01E3
:1014C0000E947E030E94110688E088B989E087B9EE
:1014D00080E284B982E00E946905853D9340D4F79B
:1014E00014B8109242011092410182E00E946905F5
:1014F0007C018091820190918301909342018093BD
:10150000410182E00E9469058C01000F111F1092B9
:1015100042011092410182E00E946905C09082015F
:10152000D0908301D0924201C0924101E80EF91E91
:10153000E01AF10A0E94E80288E690E00E94520355
:101540008DE090E00E94202E73E0B72EB80E960139
:10155000D7010E94A22C9801442737FD4095542FB3
:101560000E940E2DB20E6B2D8DE090E00E942E2E6B
:101570008B2D992787FD90950E947E030E9411066E
:101580000E940606109254018CE00E94D50284E06D
:1015900090E00E94202E682F87E090E00E942E2E7F
:1015A00017C010E00E94E8026091880170918901E3
:1015B00080918A0190918B0104E026E440919A0188
:1015C0000E94360488E20E943305BA9409F018CFCD
:1015D00089E180933F010E94030384E391E00E942C
:1015E00052030E94E8028EE493E00E94520310929C
:1015F00018010E94060603C052E0752E0CCE6396B9
:10160000E2E10C94A82D8091540181110DC084E079
:1016100090E00E94202E61E0680F87E090E00E9439
:101620002E2E81E08093540108950F93CF93DF9382
:10163000E82FF0E0EB57FF4FE491E8B9E860E7B935
:1016400015B8E62FF0E0E857FF4FE491E4B9862F94
:101650000E946505EC010097F1F08AE692E00E9495
:101660005203DE0120EA36E841E050E00E94A92C56
:1016700028E937EB40E050E00E94EC2CCA01B901A8
:101680008827992702E021E447EF0E94360488E08A
:1016900087B988B914B8DF91CF910F910895A9E166
:1016A000B0E0E5E5FBE00C948C2D982E862E498366
:1016B000A895862F90E0FC01E557FF4F24912987DC
:1016C000FC01E857FF4F3491388B242F30E0F901AB
:1016D000E557FF4F6490F901E857FF4F1491292D0A
:1016E00030E0F901E557FF4F7490F901E857FF4FDB
:1016F00044914D87F901EB57FF4F54915E83FC01F4
:10170000EB57FF4F64916E8758605A876860562E7A
:1017100065B80985062904B957B97E8178B9882D3D
:101720000E9465059D838C83898584B9882D0E94DC
:1017300065051C0114B80E941E0515B804B9882D52
:101740000E946505AC81BD818A179B0738F5805ED4
:101750009E4FA817B90708F497C457B888E088B90E
:1017600075B8872D862984B9E0914301F091440131
:10177000FD83EC83892D0E9465052C813D81281B0A
:10178000390B3D832C8374B8209043013090440181
:10179000892D0E946505281A390A08C02C813D81CF
:1017A000205E3E4F8217930708F46EC420916901B2
:1017B00080917D0190E0820F911D02974CF02130C5
:1017C00009F062C49091660180917A0198135CC41B
:1017D0004C815D814437510508F4AEC0CA01880FC1
:1017E000991F44962816390608F0A6C05A8557B99D
:1017F0006E8168B98985812B84B9882D0E94610525
:101800007C0189810E9469056C0115B9882D0E94AF
:1018100061059701295A3D4F172928173907D8F52F
:1018200088E088B957B814B915B989810E94610553
:1018300088349F4028F084E08093180182E204C03D
:1018400084E08093180184E280931701F0925F0195
:10185000E0925E01CE14DF0440F4C7018C199D09AB
:10186000909365018093640104C010926501109209
:1018700064019701A0E1B7E20E94932C209112012C
:101880003091130140E050E00E94EC2C3093610154
:1018900020936001F0C388E088B957B814B915B92E
:1018A000892D0E9461058C0189810E9469057C0156
:1018B00075B8892D0E946105895A9D4F801791073F
:1018C00008F0E2C38E8188B99A8597B989810E9410
:1018D0006105813D934028F484E08093180182E300
:1018E00004C084E08093180184E3809317010E15EF
:1018F0001F0538F4E01AF10AF0927901E0927801BC
:1019000004C0109279011092780120914301309126
:101910004401201B310BA0E1B7E20E94932C2091DF
:10192000190130911A0140E050E00E94EC2C3093F4
:1019300075012093740194C188E088B957B875B8CF
:10194000472C462844B8892D0E94650598878F83C7
:10195000E0904301F090440189810E9469059B83D6
:101960008A830A97A0F514B881E00E943305872D79
:10197000812B84B9892D0E94650598878F83E0911A
:101980004301F0914401E81BF90BF98FE88F89813D
:101990000E9469059B838A838091190190911A01A5
:1019A0009C0140E050E060E677EB87E490E00E9425
:1019B000EC2CA88DB98D0E94A92CAA81BB819D0118
:1019C00040E050E00E94EC2C69017A0112C0F7015E
:1019D0002F813885E21BF30BF98FE88FCF014A8105
:1019E0005B81841B950BBA010E94C42C6B01E12C16
:1019F000F12C14B815B85E8158B96A8567B981E0D1
:101A00000E94330579EB271677E0370608F03CC3D0
:101A100004B9882D0E9465058F359D4008F426C1C4
:101A200014B881E00E943305B985B12BB98BB4B9E4
:101A3000882D0E9465055C0189810E9469059C874B
:101A40008B87892D0E9469059B8B8A8BEB85FC8592
:101A5000E13DF74008F4ADC083E0809318018DE0CC
:101A60008093170185012A143B0410F4021913090D
:101A70004090120150901301612C712C60E677EBBD
:101A800087E490E0A30192010E94EC2CD8010E940F
:101A9000A92C4B855C858A0120E030E0A9019801E2
:101AA0000E94EC2C80917D01882369F080916E0169
:101AB00090916F01A0917001B0917101821793070D
:101AC000A407B50708F520936E0130936F0140938A
:101AD0007001509371019501A0E1B7E20E94932C2F
:101AE000A30192010E94EC2C3093750120937401A4
:101AF0008A899B896B857C85861B970B90937301E4
:101B00008093720121E001C020E080916E019091EC
:101B10006F01A0917001B09171018C159D05AE050A
:101B2000BF0538F5C0926E01D0926F01E09270014E
:101B3000F09271018F819885AA81BB818A1B9B0BD2
:101B40009093730180937201288D398DA0E1B7E2E3
:101B50000E94932C2091190130911A0140E050E02D
:101B60000E94EC2C205F384D309375012093740156
:101B700003C0222309F4E1C39101A0E1B7E20E946E
:101B8000932CA30192010E94EC2C309377012093B7
:101B900076012C813D81A0E1B7E20E94932CA30144
:101BA00092010E94EC2C309379012093780121E07E
:101BB000C4C3B1E62B16310408F058C0E1EDAE16EF
:101BC000E7E0BE0608F452C084E080931801FAEF03
:101BD000AF0EB11C2A893B89A216B30610F082E130
:101BE00001C083E1809317013E853770D32E898130
:101BF000806480937C00ABE0CA2E01E010E0EE240C
:101C0000EA94B3E0FB2EA89561E0862D0E940813AC
:101C1000498944B986B18D21E9F3598554B9809138
:101C20007A00806480937A0080917A0086FDFCCFF0
:101C30008091780090917900B701681B790B060FAD
:101C4000171FCA9401F7C801880F991F880F991FA1
:101C500069E070E00E94C42C709379016093780170
:101C600080917D018F5F80937D01A1CF04B965B81C
:101C7000882D0E9465059B838A8389810E9469055E
:101C800098878F836091430170914401681B790BA1
:101C90006A30710590F514B881E00E94330589859A
:101CA000812B84B915B9882D0E9465059B838A8391
:101CB00089810E94690598878F8380911201909194
:101CC00013019C0140E050E060E677EB87E490E090
:101CD0000E94EC2CAA81BB810E94A92C2091430177
:101CE00030914401AF81B8852A1B3B0B40E050E0A6
:101CF0000E94EC2C69017A0109C08A819B81861BB4
:101D0000970B0E94C42C6B01E12CF12C57B888E092
:101D100088B944B845B8892D0E9465055C01898160
:101D20000E9469059C878B87882D0E946905AC01FC
:101D3000B0E4AB16B6E0BB0608F0A3C175B8892DB8
:101D40004E8B5F8B0E9465059C0174B8892D2C8B8E
:101D50003D8B0E9465059B8B8A8B15B881E00E94A4
:101D6000330575B8892D0E9465052C893D894E89FA
:101D70005F896A897B896034764008F057C0813377
:101D8000914108F453C0C5018A569F4F281739075F
:101D900008F04CC085E080931801809169018F5F45
:101DA000809369018B859C85841B950B90935F01C3
:101DB00080935E01A41AB50AB0926501A0926401F5
:101DC00014B815B8EE85E8B981E00E94330574B8FF
:101DD000892D0E946505853F910508F0BDC244B874
:101DE00089810E946505813D934008F4B5C2892D23
:101DF0000E9469058D3D924008F4AEC274B8892DE9
:101E00000E9465058D3D924008F4A6C275B881E038
:101E10000E94330515B8892D0E946505853F9105FF
:101E200008F09AC286E08093180196C2472C412A96
:101E300044B845B8892D0E945D058C01409143014D
:101E400050914401481B590B5B8B4A8B89810E943E
:101E500069059F878E87A0904301B0904401A81A1E
:101E6000B90A882D0E9469059C878B875EEFA516AD
:101E700059E0B50608F4B1C083E0809318018CE006
:101E8000809317016A897B892616370620F48B0117
:101E90000219130902C00A891B8940901901509048
:101EA0001A01612C712C60E677EB87E490E0A301C6
:101EB00092010E94EC2CD8010E94A92C950140E0CF
:101EC00050E00E94EC2C80916901882369F0809198
:101ED0005A0190915B01A0915C01B0915D01821764
:101EE0009307A407B50710F520935A0130935B01BF
:101EF00040935C0150935D018E859F85AB85BC85C9
:101F00008A1B9B0B90935F0180935E012A893B891A
:101F1000A0E1B7E20E94932CA30192010E94EC2C55
:101F2000309361012093600121E001C020E08091A5
:101F30005A0190915B01A0915C01B0915D018C15FB
:101F40009D05AE05BF0530F5C0925A01D0925B01E8
:101F5000E0925C01F0925D018F819885EA81FB81BE
:101F60008E1B9F0B90935F0180935E019F01A0E108
:101F7000B7E20E94932C209112013091130140E0AE
:101F800050E00E94EC2C205F384D3093610120938B
:101F9000600103C0222309F4E0C19101A0E1B7E28E
:101FA0000E94932C209112013091130140E050E0E7
:101FB0000E94EC2C30936301209362012C813D81BF
:101FC000A0E1B7E20E94932CA30192010E94EC2CA5
:101FD0003093650120936401BFC1F1E62F163104EF
:101FE00008F04FC02A893B8929343D4008F449C094
:101FF00084E08093180182E0809317018B859C8593
:1020000086509F4F8017910718F483E08093170143
:102010000E8107708981806480937C001BE0EE2430
:10202000E394F12CA89560E0862D0E94081344B833
:1020300045B886B18023E9F774B880917A0080644E
:1020400080937A0080917A0086FDFCCF80917800A1
:1020500090917900E80EF91E115021F7C701880F01
:10206000991F880F991F69E070E00E94C42C70933B
:10207000650160936401809169018F5F80936901BC
:102080006BC188E087B988B914B815B888E087B9FA
:1020900057EC251651E0350608F4ABC088B918ECAA
:1020A0000A85052907B981E00E94330557B8892DB3
:1020B0000E946905429710F01150A1F76D8564B92F
:1020C00065B961E0862D0E940813892D0E9465057F
:1020D0008C01788974B915B88A8587B99E8198B9B9
:1020E00060E0862D0E940813A0904301B090440147
:1020F000882D0E9465056C01A985A4B9892D0E94CF
:1021000065051C01882D0E946905281A390A88E096
:1021100088B957B874B875B861E0862D0E94081365
:10212000892D0E9465057C01882D0E946905E81AA9
:10213000F90A2E143F0440F4BD85B4B9B5B9892D10
:102140000E946505170119C085010C191D09E88950
:10215000E4B915B8FA85F7B92E8128B960E0862D63
:102160000E940813E0904301F0904401882D0E94E2
:102170006505A701481B590BCA019101275931096F
:1021800029383141B0F58215930598F5C80163E00F
:10219000969587956A95E1F7893C910510F088EC52
:1021A00090E0800F911F8215930518F5C10154E04E
:1021B000969587955A95E1F780179107D0F480910D
:1021C0001801823018F482E0809318018091160182
:1021D000E82FF0E0DF01A256BE4F9C9216968C923B
:1021E000EE0FFF1FE655FE4F318220828F5F8093F6
:1021F000160120917D018091690190E0820F911D6F
:10220000892B09F091C0A8958091430190914401D8
:10221000880F991F880F991F909344018093430161
:102220008091410190914201880F991F880F991F59
:1022300090934201809341018EEB80933F0188E0AF
:1022400088B957B874B875B818E1C12CD12C882D4D
:102250000E946505582E492E892D0E9469057C0132
:102260008C199D0997FF03C091958195910903975A
:1022700034F0A895115009F440C06701E8CF15B8B3
:102280006D8564B9892D0E94650581359105A8F594
:102290006D8565B9892D0E9465058C017A8577B9B0
:1022A0008E8188B915B8998594B988E1B82EC12C6A
:1022B000D12C892D0E946505782E692E882D0E94CB
:1022C00069051C018C199D0997FF03C091958195A3
:1022D000910903970CF050C0788974B9882D0E9439
:1022E00065055C0180ECE81684E4F80608F04AC055
:1022F0000538A1E01A0708F44AC080914301909183
:10230000440196958795969587959093440180937F
:1023100043018091820190918301909342018093C7
:10232000410189E180933F0188E087B988B914B8F9
:1023300015B86996E2E10C94A82D80917D018F5F1C
:1023400080937D01222381F3498140937A01809219
:102350007B0190927C01E8CF21E0809169018F5F41
:1023600080936901222301F3598150936601909271
:10237000670180926801D8CFA895BA9409F4BDCFBF
:10238000610197CF003BBDE41B0708F0B6CFC090BA
:102390004301D0904401E4EA2E16E2E03E0608F044
:1023A00061C0F8E9AF16B10408F4A7CF9801A8E915
:1023B000B7EB0E94932C9601201B310B40E050E0BC
:1023C0000E94EC2C29013A0196012A193B09A8E93F
:1023D000B7EB0E94932C6501E12CF12CA70196012B
:1023E0000E94EC2C08376FE0160770F4C301B201AD
:1023F000B2E0660F771F881F991FBA95D1F7620F59
:10240000731F841F951F12C078E7A7167FE0B706D9
:10241000A0F4CA01B901A2E0660F771F881F991FB7
:10242000AA95D1F7640D751D861D971D25E030E036
:1024300040E050E00E94EC2C08C0240D351D461DE4
:10244000571D5695479537952795A4E6B0E00E940D
:10245000A92C6B017C018CEAC80E8DE0D81EE11C12
:10246000F11C71C0252D342DE216F30608F49701F6
:10247000072D162D0215130508F4810159012E159B
:102480003F0508F45701A0911901B0911A01F50117
:10249000E21BF30B9F010E94932C96012A193B0922
:1024A00040E050E00E94EC2C29013A01780120160E
:1024B000310608F47101A0911201B0911301980145
:1024C0002E193F090E94932C870120E030E0A901DA
:1024D00098010E94EC2CF8E7AF16FFE0BF0670F4FD
:1024E000C301B201E2E0660F771F881F991FEA95CA
:1024F000D1F7620F731F841F951F12C068E7E6169D
:102500006FE0F606B0F4CA01B90142E0660F771F2A
:10251000881F991F4A95D1F7640D751D861D971D5B
:1025200025E030E040E050E00E94EC2C69017A01A7
:102530000AC069017A01C40CD51CE61CF71CF6948C
:10254000E794D794C79410911801133008F0D5CEB2
:1025500080918401882309F446C078E0879F300188
:102560001124D301A15EBE4F3D0116969C91B98105
:10257000F3019B1332C080809180A280B380A701B9
:102580009601281939094A095B0957FF07C0509578
:102590004095309521953F4F4F4F5F4FAAE0B0E0F7
:1025A0000E94A92CA50194012C593F4F4F4F5F4F1A
:1025B0002C0D3D1D4E1D5F1D0E94EC2C232B242B4A
:1025C000252B09F09ACE123019F081E08093180182
:1025D00081E0D30117968C9390CE9781911103C01F
:1025E0008150809384018091840128E0829FF001D2
:1025F0001124E95DFE4FC082D182E282F38284829F
:1026000095823981368317828F5F8093840175CEDE
:10261000CF93C82FC09595B160FF02C0982B01C021
:102620009C2395B994B1982B94B982E00E9433050C
:1026300084B18C2384B985B18C2385B9CF91089559
:10264000A0E0B0E0E6E2F3E10C94952D8AE0C82E1C
:1026500098E0D92E2FE3B22ED7B8D8B815B8B4B8B1
:1026600080E00E9465058C0181E00E946905EC0113
:1026700082E00E94690520911801283081F428E049
:1026800027B914B81093020100930101D0930401FB
:10269000C0930301909306018093050159C031E076
:1026A000C430D10508F030E021E00430110508F015
:1026B00020E0232319F08430910508F3083E1340ED
:1026C00010F028E001C029E0C83ED34008F42260A1
:1026D000883E934008F4246027B9C0E0D0E0A89574
:1026E00080E00E945D057C0181E00E9469058C010B
:1026F00082E00E94690524E1E21625E0F20608F472
:10270000389A043135E0130708F4399A843125E00A
:10271000920708F43A9A36E0E316F10428F40630FA
:10272000110510F4069738F02196C43F81E0D807D0
:10273000B1F6D092180100E010E00C171D0729F047
:102740000E9422050F5F1F4FF8CFCA9409F084CF73
:10275000CDB7DEB7E9E00C94B12DCF92DF92EF92C6
:10276000FF92CF93209188013091890140918A0195
:1027700050918B01C0919A018AE0C82ED12CE12C96
:10278000F12C8C2FCF5F213A96E8390791E0490769
:10279000510538F0CA01B901A70196010E94EC2C3D
:1027A000F0CF80939A01A0914301B09144010E941F
:1027B000A92C28E833E140E050E00E94EC2C209363
:1027C00088013093890140938A0150938B01CF9106
:1027D000FF90EF90DF90CF900895A0E0B0E0E3EF9E
:1027E000F3E10C94922DC82FD62F8FEF860F9C2FDC
:1027F000990F9C0F890F80936B01E62FF0E0EB5748
:10280000FF4F0491EC2FF0E0E557FF4F14918091BA
:102810001801813009F496C24091160184EA91E0D2
:102820006AEA71E0DC012A2F281B2417A0F42D91FD
:102830002D130EC09D0127503109F90120812C1361
:1028400007C0FB01208131812C3D354008F47AC25C
:102850006E5F7F4FE8CF086010929501109294014F
:10286000109288011092890110928A0110928B01B6
:1028700010929A010E94201388E088B915B807B910
:1028800014B88C2F0E9469056C0110926D01109292
:102890006C017C0180916C0190916D01843F9140AD
:1028A00080F515B914B90E941D0514B815B80E9419
:1028B0002305A8958C2F0E946905C816D90620F417
:1028C0007C01EC18FD0802C0E12CF12C80916C0118
:1028D00090916D018E37910528F02BE4E216F104FA
:1028E00008F42BC25DE2E51651E0F50680F4809114
:1028F0006C0190916D01019690936D0180936C0134
:10290000C9CFFDE2EF16F1E0FF0608F416C2809190
:102910006C0190916D01892B21F0C70100E010E05E
:1029200006C025E1E21625E0F206B8F380C020914A
:102930006C0130916D012017310748F00E941E058F
:102940008C2F0E946905A8950F5F1F4FF0CFC81606
:10295000D90630F48C199D098E159F05C8F402C064
:1029600080E090E08701081B190BA1F0093C1105DC
:1029700008F0E3C19801A8EEB3E00E94932C470150
:10298000A12CB12CA50194010E94EC2C690104C07A
:1029900000E010E0C12CD12CA0906C01B0906D0132
:1029A0005FEFA51AB50AC501A0E0B0E080939001E1
:1029B00090939101A0939201B0939301C8018E0D61
:1029C0009F1D0E94EF169C01D5010E94932C6093DD
:1029D0009001709391018093920190939301609381
:1029E00088017093890180938A0190938B0187EF0E
:1029F00080939A010E94AD13209188013091890142
:102A000040918A0150918B01A8EEB3E00E94A92C5D
:102A100024E630E040E050E00E94EC2C2093880156
:102A20003093890140938A0150938B0144C10E94E5
:102A3000201315B88FE087B988E088B9F12EFF0C14
:102A4000F4B880E480937B0084E580BF8C2F8064A1
:102A500080937C0086E180937A000E942605109284
:102A60006D0110926C0110928000109285001092FE
:102A7000840087E286BB81E280936F0081E08093CF
:102A80008501F5B89091180180938100943059F434
:102A900081E090E00C2E01C0880F0A94EAF780953F
:102AA0008F7087B901C007B9F89483B7817F83BF5E
:102AB00080918501882389F083B7816083BF7894F2
:102AC000889583B78E7F83BFF894A89580916C0119
:102AD00090916D018034964059F77894109281005E
:102AE000E0908600F090870010926F0086E9809356
:102AF0007A0014B815B88C2F0E94690520914701FF
:102B000030914801821B930B0C9690939D0180930A
:102B10009C0180916C0190916D018032934008F08E
:102B20000CC180916C0190916D0190939301809301
:102B30009201F0929101E092900184EF80939A01CA
:102B400080916C0190916D0182349105C8F0609183
:102B5000900170919101809192019091930124E6EE
:102B600030E040E050E00E94EC2C20939001309344
:102B70009101409392015093930186EF80939A01C3
:102B8000A0918601B091870120919001309191012F
:102B900040919201509193010E94A92C20E233E0D0
:102BA00040E050E00E94EC2C209390013093910182
:102BB00040939201509393012093880130938901AF
:102BC00040938A0150938B010E94AD1380919A012A
:102BD000843F09F060C0C0908801D0908901E090E6
:102BE0008A01F0908B0120EAC2162FE0D206E104A0
:102BF000F104C0F4A70196012C543F4F4F4F5F4F93
:102C000060EA7FE080E090E00E94EC2C2C0D3D1DFE
:102C10004E1D5F1D209388013093890140938A01E6
:102C200050938B0180916B0190E08C5F9F4F0E94CD
:102C3000202EC0908801D0908901E0908A01F09008
:102C40008B01482F50E060E070E04C155D056E058B
:102C50007F0568F4C41AD50AE60AF70AC09288010B
:102C6000D0928901E0928A01F0928B0114C084E134
:102C7000C80ED11CE11CF11CC416D506E606F706E9
:102C800010F40E94030B1092880110928901109297
:102C90008A0110928B0114B9809188019091890169
:102CA000A0918A01B0918B014997A105B10508F463
:102CB00044C0C12CD12C80911601882321F0809131
:102CC00018018430D1F587E08093180120919A0192
:102CD00080919B018217BCF028132FC0409188017E
:102CE0005091890160918A0170918B0180918C01D2
:102CF00090918D01A0918E01B0918F01841795075D
:102D0000A607B707D0F48091880190918901A0911E
:102D10008A01B0918B0180938C0190938D01A093D7
:102D20008E01B0938F0120939B01D0929701C092A6
:102D30009601D0939801C093990188E087B988B92A
:102D400014B815B8CDB7DEB7ECE00C94AE2D1F92D9
:102D50000F920FB60F9211248F939F93B59904C0D1
:102D600080918501811109C0B59B10C080918600BA
:102D7000909187008A3F910548F480916C01909171
:102D80006D01019690936D0180936C019F918F91DD
:102D90000F900FBE0F901F9018951F920F920FB6B5
:102DA0000F9211248F939F9310928501B09B10C0B6
:102DB00080918600909187008A3F910548F4809128
:102DC0006C0190916D01019690936D0180936C015F
:102DD0009F918F910F900FBE0F901F9018950F929B
:102DE00021E08C32920710F48CE291E08C529140F9
:102DF00069E170E00E94C42C99E16B3210F0982FC9
:102E00006BE2981BE9E4F4E0E60FF11DE60FF11D1B
:102E10004591559125913591692F421B530B649F24
:102E2000C001659F900D11240C9669E170E00E942D
:102E3000C42C620F731FCB010F900895A0E0B0E087
:102E4000E4E2F7E10C94922D88E893E19093440139
:102E5000809343018EEB80933F01C8E0C8B988E1BD
:102E600087B90E942B05C7B984E00E946505AC01B3
:102E70008B5C9840833F9140A0F481E080935701A0
:102E80002091430130914401AFEBB9E00E94932CB3
:102E90009A0140E050E00E94EC2C309344012093D2
:102EA00043018EE00E9469058EE00E9465059093C3
:102EB0004801809347010E941106D9E0D7B9C1E0CB
:102EC000C5B9C4B980E00E9465057C010AE007B974
:102ED00014E015B914B981E00E946505E80EF91EE9
:102EE0008CE0882E87B890E1992E95B894B882E04E
:102EF0000E946505E80EF91E15B8D8B9D7B9C4B94E
:102F0000C0914301D091440180E00E9465055C01BD
:102F100008B907B914B9009143011091440181E047
:102F20000E9465056C0188B887B894B88090430109
:102F30009090440182E00E946505C00FD11FC80D2A
:102F4000D91DCA19DB09CC19DD09C81BD90B809121
:102F50004301909144014C01880C991C880E991EE4
:102F60008E189F088C1A9D0AA12CB12C9701A0E9FC
:102F7000BAE10E94932CA50194010E94EC2C6901F6
:102F80007A0130935601209355019E01A0E9BAE1E0
:102F90000E94932CA50194010E94EC2C30934601D1
:102FA000209345012057354E30931A012093190183
:102FB00080E7C81A85EED80AD0921301C092120198
:102FC00089E180933F01CDB7DEB7ECE00C94AE2DE4
:102FD000A0E1B0E0EEEEF7E10C948C2D1092000130
:102FE00080911801813009F029C2809184018130DB
:102FF00009F024C28091270190912801A091290114
:10300000B0912A0189309245A105B10508F016C298
:10301000312C80912B01A0902C0141E0431510F040
:10302000B82E02C0BA2CA82EEA2DF0E0EB57FF4FC5
:1030300074908B2D90E0FC01E557FF4FE49115B89B
:1030400058E058B940912701509128016091290119
:1030500070912A01272D2860403F510561057105B7
:10306000A0F430FC12C0009112011091130100591C
:103070001A4141E050E00B2C02C0440F551F0A9446
:10308000E2F7CA01822B87B906C0E4B927B90091DB
:1030900012011091130144E1642E8B2D0E946105F1
:1030A0004C018A2D0E94690552E08516910410F4A6
:1030B000029710F06A9489F760E460937B0084E5DE
:1030C00080BF8B2D806480937C0086E180937A00A2
:1030D000E12CF12C10928000109285001092840057
:1030E00087E286BB0E942605932D9170292E30FC25
:1030F00005C081E88093810078B808C078B80E9444
:103100002F0580E286BB81E88093810046B345FFAE
:1031100011C01092810080E286BB80918600909160
:1031200087006C01209184003091850082179307FD
:1031300068F013C040FFEACF21E026BBA895C70185
:1031400001967C018035910509F7E3CF40FF05C06A
:1031500041E046BB5FEFE51AF50A68E068B986E929
:1031600080937A0034E1732E8B2D0E9461054C010F
:103170008A2D0E94690522E08216910410F40297BC
:1031800010F07A9489F7809027019090280180911F
:10319000550190915601880E991E800E911E209126
:1031A00014013091150100394AE11407B0F451EED1
:1031B000C516D104E104F10438F4C60165E070E0FD
:1031C0000E94C42C645101C069E128523109261BB8
:1031D000310967FD339586E009C0C40160EB76E3F1
:1031E0000E94C42C87E0860F285D3F4F90E0A0E04E
:1031F000B0E08C159D05AE05BF0528F4C81AD90AA4
:10320000EA0AFB0A03C0C12CD12C7601222029F046
:1032100062E2C60ED11CE11CF11C80E5E816F10447
:1032200018F0C12CD12C76019BE0C916D104E10421
:10323000F10428F041E0C41AD108E108F1084091F6
:10324000430150914401A12CB12CA8EEB3E00E949F
:10325000932C2B013C019801DA010E94932CA501CB
:1032600094010E94EC2C44275527C301B2010E940F
:10327000EC2CC9010E946906FC01A5019401C7015B
:10328000B6010E94B42C4B015C01BF0180E090E0CC
:1032900023E0660F771F881F991F2A95D1F76B5F70
:1032A0007F4F8F4F9F4F2AE030E040E050E00E9478
:1032B000EC2CC501B4010E94EC2C832D90E0E1E0E0
:1032C000F0E0EC0FFD1F64E0369EE00DF11D1124CF
:1032D0002083318342835383211017C06CE0C616CC
:1032E000D104E104F10488F0FC013196EE0FFF1FD8
:1032F000EE0FFF1F81E090E08C0F9D1FE80FF91F7C
:1033000020833183428353833394A895339493E08D
:10331000931508F07ECE88E088B984E00E943305DA
:1033200021E04D815E816F81788589819A81AB81B1
:10333000BC8184179507A607B70708F020E04D85E4
:103340005E856F85788989859A85AB85BC8584176C
:103350009507A607B70710F032E001C033E0E22F6F
:10336000F0E0EE0FFF1FEE0FFF1F41E050E04C0FAB
:103370005D1FE40FF51FDA0154E0359FA00DB11D6C
:1033800011244D915D916D917C9180819181A281FB
:10339000B381481759076A077B0708F0322FE1E02D
:1033A000F0E0EC0FFD1F64E0369FE00DF11D1124ED
:1033B00080819181A281B38180930701909308015C
:1033C000A0930901B0930A012BEF2093000130FD77
:1033D0000DC0409127015091280160912901709101
:1033E0002A01403F510561057105B8F02CEF20938B
:1033F0000001BC01CD016B5F7F4F8F4F9F4F2AE0D3
:1034000030E040E050E00E94EC2C20930701309324
:1034100008014093090150930A018091070190919E
:103420000801A0910901B0910A01892B8A2B8B2BED
:1034300011F41092000188E087B914B86096E2E1B7
:103440000C94A82D2F923F924F925F926F927F9291
:103450008F929F92AF92BF92CF92DF92EF92FF92A4
:103460000F931F93DF93CF93CDB7DEB76E970FB651
:10347000F894DEBF0FBECDBF662EB82E860F8983AF
:1034800020911801273041F520918C0130918D0158
:1034900040918E0150918F0110919B0109C0CA018A
:1034A000B9012AE0312D412D512D0E94EC2C1F5FD6
:1034B000173FACF32A3560E036074105510518F493
:1034C0008FEF9FEF82C1173F39F480E028178DE717
:1034D00038074105410510F020E03DE72C8B3D8B7E
:1034E00026EDA22E02C094EDA92EE5E8F0E0E60D4F
:1034F000F11D859188608E87E5E8F0E0EB0DF11D08
:10350000859188608F87EBE8F0E0E60DF11D7590FE
:10351000EBE8F0E0EB0DF11DC59090EC692AB92ABB
:1035200081E0E82EF12C012D112D8E831F8218864B
:1035300019861A861B861C861D86188E198E1B8E70
:103540001A8E0E94201388E088B960927C000E9445
:1035500027053F8537B975B874B80E942E0514B891
:1035600015B8DD24B4ED9B2EA6ED8A2E3E8537B925
:1035700075B874B860927C00A895A0927A0080918A
:103580007A0086FDFCCFA0927A0080917A0086FDB9
:10359000FCCF2090780030907900B0927C00A0920F
:1035A0007A0080917A0086FDFCCF80927A000E949A
:1035B0002C050E942E05C5B8C4B80E942D050E9496
:1035C0002F05A895A895A895A89514B815B8809129
:1035D0007A0086FDFCCF2091780030917900288B0D
:1035E000398B3F8537B9C5B8C4B8A895B0927C006F
:1035F000A0927A0080917A0086FDFCCFA0927A009A
:1036000080917A0086FDFCCF6091780070917900FE
:1036100060927C00A0927A0080917A0086FDFCCFB7
:1036200080927A000E942C050E942E0575B874B80D
:103630000E942D050E942F05A895A895A895A895EC
:1036400014B815B880917A0086FDFCCF40917800BF
:103650005091790014B8CB01820D931DE80EF91E2C
:10366000011D111DEA82FB820C831D8388899989C3
:10367000840F951F2E813F8168857985280F391F1A
:10368000611D711D2E833F836887798722E324178C
:10369000150650F075B874B80E94310514B815B805
:1036A000888D8395888F07C0483E73E0570718F0D0
:1036B0008A8D83958A8F888999892817190660F0E1
:1036C0003E8537B9C5B8C4B80E94310514B815B8DD
:1036D000898D8395898F07C0883E73E0970718F01E
:1036E0008B8D83958B8FD3945D2D5F3F09F03ECFFB
:1036F0004090550150905601440C551C9201E4E055
:10370000240D351DEA95E1F72901570168016E8006
:103710007F8088849984209118012730C1F46C89B6
:103720007D89812D912D6C537040804090409B018C
:10373000AC010E94B42C9B01AC016FEF71EC8EE3E5
:1037400090E00E94EC2C621A730A840A950AA6146F
:10375000B704C804D90428F46A187B088C089D08AB
:1037600003C0662477244301B20180E090E0930116
:10377000A4010E94B42C9501A6010E94EC2C80E0CB
:1037800090E07981870F911D0E94202E90E0682E95
:10379000C90160E170E00E94C42C260F371FC901E7
:1037A0006816190618F4861991090FC08C5E9F4F90
:1037B0008615910540F48C899D89843981E19807AB
:1037C00010F00E94030B812D912D6E960FB6F89488
:1037D000DEBF0FBECDBFCF91DF911F910F91FF9044
:1037E000EF90DF90CF90BF90AF909F908F907F90A1
:1037F0006F905F904F903F902F900895A0E0B0E0C1
:10380000E4E0FCE10C94922D809196019091970157
:10381000892B09F09DC0E0919801F0E0EB57FF4F34
:10382000C491C860E0919901F0E0E557FF4F149111
:103830000E94201388E088B915B8C7B914B98091DF
:1038400099010E946905EC0100919B01083F0CF071
:103850007FC0045FC0908C01D0908D01E0908E01FC
:10386000F0908F018AE0882E912CA12CB12C04308D
:1038700070F4C701B6016B5F7F4F8F4F9F4FA5015B
:1038800094010E94EC2C0F5F69017A01F0CFD701FF
:10389000C6010197A109B10988389341A105B10575
:1038A00008F056C015B914B9A12CB12CAC14BD0444
:1038B00030F40E942D0582E0A80EB11CF7CF14B899
:1038C00015B8A89585E080933F01809199010E94E9
:1038D0006905C817D90720F45C01AC1ABD0A02C0FB
:1038E000A12CB12C812C912C8C149D0430F40E94BD
:1038F0002D052FEF821A920AF7CF809199010E942D
:10390000690529E120933F01A895C817D90718F444
:103910008C1B9D0B02C080E090E08A159B0588F40B
:103920009501281B390B69F0A4EFB1E00E94932C9C
:10393000950140E050E00E94EC2C309397012093D9
:1039400096010E94201388E087B988B914B815B889
:10395000CDB7DEB7ECE00C94AE2DA5E0B0E0E3EB24
:10396000FCE10C948C2D8EE293E00E944E2220EF1D
:103970002A8354980E94220514BC16BC10920C0194
:1039800010920D0110920E0110920F0131E035BB23
:1039900030936E001092800083E19AE79093890043
:1039A00080938800E1E0F0E0F0938B00E0938A00E0
:1039B000109285001092840083B5816083BDF6E08B
:1039C000F6BBF0936F00789424E02093810012E31B
:1039D00019820E941C05A8954F9902C031E03983D5
:1039E00085B5811125C015BC86B580930C010E9458
:1039F000030386E60E9494028DE30E949402609184
:103A00000C0170910D0180910E0190910F0107E062
:103A100028E440E00E9436048AE70E949402549809
:103A200080918100882339F08FE30E94940203C0C3
:103A3000115079F6D8CF1092810010926F0020912A
:103A40000C0130910D0140910E0150910F01DA01EE
:103A5000C9010197A109B109893D9146A105B105A7
:103A600008F02BC1AAE0B0E00E94A92C685F7F4F4C
:103A70008F4F9F4F23E096958795779567952A9569
:103A8000D1F7660F771F70937F0160937E01549882
:103A90000E94220516BC10920C0110920D0110928A
:103AA0000E0110920F0181E085BB80936E00109291
:103AB00081011092800194E09BBB8091680084603A
:103AC00080936800789480916D00806180936D0090
:103AD0001D820E941C05A8954F9902C0E1E0E98370
:103AE00080916D0084FF05C0FD81FF5FFD83FA3F7B
:103AF00081F715BC80916D008F7E80936D00809161
:103B000068008B7F8093680086B580930C010E94CB
:103B1000E80284E50E9494028DE30E949402809161
:103B20000C0190910D01A0910E01B0910F01209117
:103B30007E0130917F013C832B831C012D019C0170
:103B4000A20160E070E080E090E003E00E94C32DFD
:103B500051016201E12CF12C00E010E00E94DC2D0B
:103B600059016A017B01E82F192F03E00E94C32D40
:103B70000E2F0E94DC2D03E00E94C32D5101620133
:103B8000E12CF12C00E010E00E94DC2D02E00E940C
:103B9000C32D00E00E94DC2D01E00E94C32D00E057
:103BA0000E94DC2D03E00E94C32DEB81FC815F01AC
:103BB000C12CD12C00E00E94272D39014A011B01A4
:103BC0002C012B813C812038310530F007E023E7C0
:103BD00045EFB301C40116C084E6A82EB12CC12C58
:103BE000D12CE12CF12C00E010E09301C2010E94E5
:103BF000272DE22FF42F07E023E747EF6E2F732FD7
:103C00008F2F952F0E9436043D813A3F21F48FE398
:103C10000E94940252C09301A401B101C2012C3947
:103C20003E4C43405105610571058105910509F040
:103C300008F443C00E94E40286E60E9494028DE3E9
:103C40000E9494029301A401B101C20153016401D5
:103C50007101820121153A4C4A495B4361057105A6
:103C60008105910589F080F020E030E04AE85DE5CB
:103C700068E775E483E691E00E94272DE22FF42F98
:103C800007E028E44AEF0FC020E030E846EC54EAB1
:103C90006EE77DE883E090E00E94272DE22FF42F6D
:103CA00007E028E44CEF6E2F732F8F2F952F0E9483
:103CB00036048AE70E949402549810926E0080EDB8
:103CC00097E00E94C7052981820F29F43A8131507B
:103CD0003A8331114ECE2596E2E10C94A82D1F9225
:103CE0000F920FB60F9211248F939F93AF93BF93B0
:103CF000789480910C0190910D01A0910E01B091EA
:103D00000F019F5FAF4FBF4F80930C0190930D0148
:103D1000A0930E01B0930F01BF91AF919F918F912E
:103D20000F900FBE0F901F9018951F920F920FB615
:103D30000F9211248F9386E085BD8F910F900FBE57
:103D40000F901F9018951F920F920FB60F9211248B
:103D5000A8951092810015BC0F900FBE0F901F9078
:103D600018951F920F920FB60F9211242F933F9325
:103D70008F939F938091800190918101892B11F401
:103D800081E085BD209180013091810180917E018B
:103D900090917F012817390730F015BC80916D0094
:103DA0008F7E80936D0080918001909181010196BA
:103DB00090938101809380019F918F913F912F91EA
:103DC0000F900FBE0F901F901895893008F0895002
:103DD000811103C088E393E027C0813019F48EE29B
:103DE00093E022C0823019F485E093E01DC0833057
:103DF00019F48AEF92E018C0843019F486EC90E050
:103E000013C0853019F48BEE92E00EC0863019F4A1
:103E10008CED92E009C0873019F48CE193E004C086
:103E2000883021F481E193E00E94520308950F93BA
:103E3000CF9386EC90E00E944E22CAEF10921801B8
:103E400060E082E00E946A2280911801873009F0C8
:103E500042C00E94E4020E9476030E94E40283E4CE
:103E60000E9494028DE30E94940260918C017091F3
:103E70008D0180918E0190918F0103E026E44091A5
:103E80009B010E94360460919801809199010E94E3
:103E9000221A90939501809394010E94E8020E9457
:103EA00076030E94E8028CE792E00E945203609140
:103EB0009401709195016A3F8FEF780740F480E09C
:103EC00090E002E02EE14EEF0E9436040AC08FE33C
:103ED0000E94940206C00E94030386EC90E00E94B8
:103EE000520388EE93E00E94C705811103C0C150C0
:103EF00009F0A4CFCF910F91089508950F938431C5
:103F000008F08451833189F489E08093810081E055
:103F100090E0909389008093880007E028E44DEFBB
:103F200060E074E985E397E748C1823189F489E06C
:103F30008093810083E090E09093890080938800D3
:103F400007E028E44DEF60E07AEC8AE99BE335C1B5
:103F5000813169F489E08093810087E090E090935B
:103F600089008093880007E028E44DEF6CC0803121
:103F700069F489E0809381008FE090E0909389005C
:103F80008093880007E028E44DEF6FC08F3089F4FC
:103F900089E08093810089E190E09093890080938B
:103FA000880007E028E44DEF6AE871E88BE299E0C9
:103FB00004C18E3069F489E08093810087E290E04B
:103FC000909389008093880007E028E44DEF60C05B
:103FD0008D3069F489E0809381008FE490E09093C4
:103FE00089008093880007E028E44CEF2CC08C30D7
:103FF00069F489E0809381008FE990E090938900D3
:104000008093880007E028E44CEF2FC08B3069F4E0
:1040100089E0809381008FE891E0909389008093FC
:10402000880007E028E44CEF33C08A3089F489E047
:10403000809381008FE193E09093890080938800C2
:1040400007E028E44BEF60E075E68DEC9DE1B5C03C
:10405000893081F4809381008FE396E0909389000A
:104060008093880007E028E44BEF60E872EB86EE6F
:104070009EE0A3C0883089F489E0809381008FE9B5
:104080009FE0909389008093880007E028E44BEF3D
:1040900060E071EE85EF95E090C0873089F489E0AB
:1040A0008093810084E493E2909389008093880058
:1040B00007E028E44BEF6FE77DEF83EA92E07DC0F5
:1040C000863089F489E08093810089E593E29093BA
:1040D00089008093880007E028E44BEF6FEE7BE6D1
:1040E00082EA92E06AC0853089F489E08093810099
:1040F00082E893E2909389008093880007E028E4A7
:104100004BEF68E471E68FE992E057C0843089F4A0
:1041100089E0809381008FE79EE3909389008093EC
:10412000880007E028E44BEF60E478E78DE791E052
:1041300044C0833069F48BE08093810080E792E093
:10414000909389008093880007E028E44AEFA0CF8D
:10415000823071F481EE94E090938900809388001E
:1041600007E028E44AEF60E870EF8AEF92E025C0AC
:10417000813089F48BE08093810089E698E1909307
:1041800089008093880007E028E44AEF60E876E938
:1041900088E990E012C0811112C08CE08093810008
:1041A00088E09DE3909389008093880007E028E4ED
:1041B0004AEF60E472E48FE090E00E9436048AE700
:1041C0000E9494020F910895A0E0B0E0EAEEF0E2C0
:1041D0000C94972D85E093E00E944E2280E180931D
:1041E000800010926F0081E090E0909389008093AE
:1041F000880010928B0010928A0083E086BB109298
:10420000820088E08093810015B891E194B988B963
:1042100089E087B9229A8093810000E020E0D12CC8
:1042200012E1CEE1D0E0802F90E00A96BE010E941C
:10423000D82CF62E621791F00E94E4020E947603B9
:104240000E94E40285E093E00E945203E12CEF1407
:1042500030F48EE20E949402E394F9CFF22ED1164C
:1042600069F0143108F014510E94E8020E947603AC
:104270000E94E802812F0E947E1FD12E88EE93E0DB
:104280000E94C705882331F0853118F01F5F803503
:1042900030F400E00F5F003F10F42F2DC4CF1092D8
:1042A00081001092800088E087B914B82298CDB7B9
:1042B000DEB7E7E00C94B32DA4E0B0E0E2E6F1E273
:1042C0000C94902D8AEF92E00E944E2283E280931C
:1042D000800010926F0081E090E0909389008093BD
:1042E00088008FEF90E090938B0080938A0083E0AA
:1042F00086BB1092820015B881E184B988E088B944
:1043000089E087B9229A8093810010E000E08AE07A
:10431000782E612C94E6C92ED12CE12CF12C882426
:104320008A9423E0922EA12CB12C701609F43FC080
:1043300083E6871510F4ECE97E0E272D30E0AFEF11
:10434000B3E00E94932C6E5C7F4F8F4F9F4FA7016D
:1043500096010E94EC2C30938B0020938A002983D5
:104360003A834B835C830E94E8020E9476030E949A
:10437000E802A8EEB3E029813A814B815C810E947A
:10438000A92C61507E4F8F4F9F4FA50194010E9431
:10439000EC2CCA01B90105E025E24FEF0E9436047A
:1043A000F8E2F61518F48CE30E943305072D80E43B
:1043B00096E00E94C705682E82E8861570F0E2E359
:1043C000E61518F4FAE07F0E03C0662011F073942E
:1043D00010E01F5F103F08F4A8CF88E087B9109263
:1043E00081001092800014B822982496EEE00C947C
:1043F000AC2DCF93DF93D0E0C0E083E493E00E9444
:104400004E220E94E8020E9476030E94E8028C2F4E
:104410000E94E51E88E893E10E94C705882399F170
:10442000823378F1CC23B9F1C13021F480E00E94CD
:10443000AD1C28C0C23019F40E94E42023C0C33050
:1044400019F40E945C211EC0C43019F40E94171F89
:1044500019C0C53019F40E94942314C0C63021F449
:1044600081E10E94D9060EC0C73019F40E94EC24E5
:1044700009C0C83039F45E9880E090E00E94C7051A
:1044800001C0CF5FD0E0DF5FDA3528F4C93008F42F
:10449000B4CFC950B2CFDF91CF910895A2E0B0E080
:1044A000E4E5F2E20C949B2D89839A830E94030336
:1044B00089819A810E94520314E682E00E943305AA
:1044C0004F9902C01150C9F70E94E8022296E3E01A
:1044D0000C94B72DA0E0B0E0E0E7F2E20C94932D4D
:1044E000C82FD62F8FEF860F9C2F990F9C0F890F07
:1044F00080936B01E62FF0E0EB57FF4F14911860AB
:10450000EC2FF0E0E557FF4FB49010929501109218
:104510009401109288011092890110928A011092E0
:104520008B0187EF80939A010E94201388E088B95D
:1045300015B817B914B88C2F0E9469058C01109218
:104540006D0110926C019C019CE2E92EFF24F39412
:104550004AE0A42E54E6952E80916C0190916D0155
:10456000843D904308F06FC0B5B880916C01909184
:104570006D01892B89F06701C21AD30A60916C0121
:1045800070916D01A29EC001A39E900D11240E9406
:10459000C42CC616D70650F4B4B80E94260514B829
:1045A00080916C0190916D01019628C080916C0101
:1045B00090916D010B97C8F060916C0170916D0145
:1045C000929EC001939E900D11240E94C42C6C15E4
:1045D0007D0558F4B4B80E941C0514B880916C0194
:1045E00090916D018C599F4F09C0B4B80E9421056C
:1045F00014B880916C0190916D010A9690936D01B1
:1046000080936C0115B80E942805A8958C2F0E94F4
:1046100069050817190720F49C01201B310B02C003
:1046200020E030E080916C0190916D018B319640DB
:1046300020F02532310508F46DC02D3281E03807B5
:1046400008F48ACF05C02D3281E0380708F462C033
:1046500080916C0190916D01019729F4253145E01D
:10466000340708F057C000916C0110916D01000FE4
:10467000111FA80160E070E04093900150939101F8
:104680006093920170939301C9010E94EF169C01FF
:10469000D8010E94932C60939001709391018093B4
:1046A00092019093930160938801709389018093A4
:1046B0008A0190938B010E94AD13609188017091E3
:1046C000890180918A0190918B012AE030E040E0DD
:1046D00050E00E94EC2C2093880130938901409394
:1046E0008A0150938B0187E08093180120938C01FD
:1046F00030938D0140938E0150938F0180919A01E8
:1047000080939B011092970110929601D09398018B
:10471000C093990188E087B988B914B815B8CDB7A6
:10472000DEB7EBE00C94AF2DA8E1B0E0EAE9F3E2EC
:104730000C94922D8BEE92E00E944E220E94E80291
:1047400085EE92E00E945203DE015196CE01099659
:10475000AE014F5F5F4F9E01275E3F4FF42EE52E67
:104760001D921D92FC0111921192CF01FA0111923A
:104770001192AF01A217B30799F785E185B984B902
:1047800000E010E0812C48E0D42E59E0C52E6AE00C
:10479000B62E7CE0A72ED8B8C7B80E94300586B1E7
:1047A00081FB992490F882FF02C0939493940115A1
:1047B000110589F0981469F0EF2DFE2DE90DF11D1A
:1047C000E90DF11D80859185019691878087982C50
:1047D00002C034E0932EB7B80E94300596B1892FFD
:1047E000817092FD8E5FF4E09F120BC0EF2DFE2DC5
:1047F000E80FF11DE80FF11D808991890196918BD9
:10480000808BA7B80E94300596B1892F817091FDE9
:104810008E5F94E099120BC0EF2DFE2DE80FF11D75
:10482000E80FF11D80819181019691838083A89585
:104830000E9422054F9905C015B814B888E087B9C1
:10484000C7C049895A894531510508F16B897C896E
:1048500065317105E0F02D893E8925313105B8F0CB
:104860008F89988D8531910590F0260F371F11E0C3
:104870002417350708F010E0FF24F39428173907B0
:1048800008F0F12CCC24C39422E0E22E4CC04985E0
:104890005A854531510510F16B857C85653171056F
:1048A000E8F02D853E8525313105C0F08F8598894A
:1048B0008531910598F0260F371F11E02417350731
:1048C00008F010E0FF24F3942817390708F0F12CC2
:1048D000C12C92E0E92EDD24D39430C049815A8165
:1048E0004531510510F16B817C8165317105E8F02E
:1048F0002D813E8125313105C0F08F81988585312C
:10490000910598F0260F371F11E02417350708F09E
:1049100010E0FF24F3942817390708F0F12C82E007
:10492000C82EEE24E394D12C09C00F5F1F4F09312C
:10493000E6EF1E0709F44CC0892C2DCF0E94E80237
:104940000E94760300E00E94E8028D2D0E94C602BC
:104950008DE20E94940200FD02C08DE201C08FE250
:104960000E9494028DE20E9494028C2D0E94C60245
:104970008DE20E94940201FD02C08DE201C08FE22F
:104980000E9494028DE20E9494028E2D0E94C60223
:104990000E94CA02802F837021F4112361F083E406
:1049A00005C0833041F4FF2031F08FE60E9494026D
:1049B00080ED97E004C00E94CA0280E991E00E9465
:1049C000C705811139CF0F5F083709F0BCCF34CF4D
:1049D0006896ECE00C94AE2D0F930E94030384E3E1
:1049E00091E00E9452030E94E80280EF90E00E9452
:1049F000520382E090E00E94202E682F70E080E059
:104A000090E003E020E24EEF0E94360483E090E065
:104A10000E94202E682F70E080E090E020E24EEFB0
:104A20000E94360481E090E00E94202E682F70E002
:104A300080E090E02EE14EEF0E94360488E99AE390
:104A40000E94C7050E94030389EE90E00E94520372
:104A5000609145017091460180E090E02EE14FEFBA
:104A60000E9436040E94E80282EE90E00E94520307
:104A7000609155017091560180E090E02EE14FEF7A
:104A80000E94360488E99AE30E94C7050E94030346
:104A90008EED90E00E94520389E090E00E94202E6B
:104AA000682F70E080E090E020E240E00E94360451
:104AB0008AE090E00E94202E682F70E080E090E075
:104AC00020E240E00E94360486E090E00E94202E22
:104AD000682F70E080E090E026E444EF0E94360406
:104AE0000E94E8020E94CA020E94CA020E94CA02F0
:104AF00085E090E00E94202E682F70E080E090E03A
:104B000020E240E00E94360488E090E00E94202EDF
:104B1000682F70E080E090E020E240E00E943604E0
:104B200084E090E00E94202E682F70E080E090E00A
:104B300026E444EF0E94360488E99AE30E94C70500
:104B40000E9403038FE690E00E9452038BE090E006
:104B50000E94282E0E947E030E94E80288E690E0D0
:104B60000E9452038DE090E00E94202E992787FD3D
:104B700090950E947E0388E99AE30E94C7050F91F1
:104B800008951F93CF93DF9380E090E00E94202E42
:104B9000182F843131F5C0E0D0E0CE018C5F9F4FFB
:104BA0000E94202ECC23A1F0C33099F4811789F004
:104BB000282F30E0412F50E0BA016F5F7F4F26175A
:104BC000370739F04E5F5F4F2417350711F009C0E2
:104BD000182F8A50853B28F42196C730D105E9F675
:104BE0003DC00E94E40285E40E94940285E40E9494
:104BF000940263E08DE090E00E942E2E6CE070E065
:104C00008BE090E00E943C2E69E379E384E090E041
:104C10000E943C2E6BE386E090E00E942E2E6BE318
:104C200087E090E00E942E2E6BE388E090E00E94E7
:104C30002E2E69E379E389E090E00E943C2E64E146
:104C400074E180E090E00E943C2E64E174E182E037
:104C500090E00E943C2E88EC0E943305DF91CF91BA
:104C60001F910895A0E0B0E0E8E3F6E20C948C2DEB
:104C700080E48AB98BB986E880937A001092C100EB
:104C8000C4B784B7877F84BF88E10FB6F894809358
:104C90006000109260000FBE86E88093640088E395
:104CA00080937E001092B00087E08093B1007894EA
:104CB0000E940E03C3FF0BC00E94E40287E793E04B
:104CC0000E9452038BEC0E9433055E9825C688E44F
:104CD0000E94D50286EB90E00E94610380E50E946D
:104CE000D5028EEA90E00E94610388E50E94D50219
:104CF0008EEB90E00E94610388E70E94D50286EA6D
:104D000090E00E94610380E70E94D5028EE990E066
:104D10000E94610388E60E94D5028EE890E00E941E
:104D2000610380E40E94D50286E990E00E9461035D
:104D300080E185BF0E94C125C0E04F9B05C0CF31F7
:104D400048F48FE59DE608C082E00E943305CF5FFE
:104D5000CC3399F780E69DE6909311018093100182
:104D6000109240010E941E17CC3308F041C0A8E108
:104D7000AA2EB12CBAE58B2EB1E09B2ECEE6CC2E1E
:104D8000C1E0DC2EE8E13E2EF0E22F2E67C0873036
:104D900009F4BBC1823009F0C9C28091160181308B
:104DA00009F402C2823009F440C2833009F483C29C
:104DB00084EB93E00E9452038CE993E00E9452033B
:104DC0000E94E80280E893E00E945203809116015D
:104DD000805D0E94940285E591E00E94520388E87C
:104DE00093E137B84F9BFECF0E94C705823318F07E
:104DF0000E94F921BCCF8111C5CF8CE00E94D50261
:104E000080915401882329F154E0752EC0E0D0E050
:104E100080E090E040E1542E9E01275A3E4F7901F8
:104E2000F701E80FF91F649030E2631201C0582EB9
:104E3000019681319105A1F771103DC588E893E194
:104E40000E94C705882309F436C588E893E10E94CB
:104E5000C7055E9880E090E00E94C7051092180197
:104E60001092160110927D011092690110921701A3
:104E7000109257010E94030328E027B91092840181
:104E80001092980110929901109200010E94CE0296
:104E90000E941E170E94E40285E00E94690585E0D9
:104EA0000E946505909373018093720188EC92E0F3
:104EB0000E9452038091720190917301880F991F93
:104EC000880F991FBC016A567F4F80E090E0609385
:104ED00088017093890180938A0190938B0102E08D
:104EE00026E54DEF0E9436040E94CA0280917201AD
:104EF000909173018A3F36E0930778F483339640AC
:104F000048F482EC93E00E9452038AEC0E9433053D
:104F10001BB802C589EC93E002C085EC92E00E94C8
:104F200052033FE00FB6F894A895A09260000FBE20
:104F300030936000809157018823A1F00E94E8021D
:104F400081E892E00E945203609143017091440114
:104F500080E090E003E026E54DEF0E94360488EC07
:104F60000E9433050E94E8020E94201380911801DC
:104F7000883091F50E94030386E892E00E94520374
:104F80000E94E802609101017091020180E090E0CE
:104F900003E026E54DEF0E9436040E94CA026091AC
:104FA00003017091040180E090E026E54DEF0E943E
:104FB00036040E94CA02609105017091060180E0EA
:104FC00090E026E54DEF0E9436048AEC0E943305FE
:104FD00081E10E94D9066AC48CE00E94D50287E074
:104FE00090E00E94202EC82F84E090E00E94202EA6
:104FF000C81BC0935401CC2319F08EE00E94D50247
:1050000080E00E94D9060E94E8028EEC93E00E94A4
:10501000520342E061E080E00E944F0B42E060E01A
:1050200081E00E944F0B41E062E080E00E944F0B64
:1050300041E060E082E00E944F0B40E062E081E0EE
:105040000E944F0B40E061E082E00E944F0B809194
:105050008401882361F098E0899FF0011124E15ECA
:10506000FE4F9781911103C08150809384018091FC
:10507000180181111CC083E40E9494020E94201335
:1050800010928C0110928D0110928E0110928F015E
:1050900084EF80939B0160E082E00E94ED1361E069
:1050A00082E00E94ED1360E081E00E94ED130E9417
:1050B0000303909259018092580180911801853024
:1050C00041F485EA93E00E94520341E467E483E4FB
:1050D0000AC0863009F05BCE8EEA93E00E9452034C
:1050E00042E367E481E30E9491030E94E8028AE9B7
:1050F00092E00E94520360915E0170915F0180E036
:1051000090E002E026E54DEFCFC3809198010E9428
:10511000C6028CE892E00E945203809199010E949D
:10512000C6020E94FE1B8091960190919701892BE7
:1051300079F083E792E00E945203609196017091AA
:10514000970180E090E002E025E24FEF0E943604F4
:105150000E94E80260918C0170918D0180918E0116
:1051600090918F0104E026E440919B010E94360457
:1051700060919801809199010E94221A9093950163
:10518000809394018A3F9F4F08F090C38BE792E091
:105190000E945203609194017091950180E090E02B
:1051A00002E02EE14EEF80C390919E018091A40118
:1051B000981750F4892F0E94C60285E591E00E945D
:1051C00052038091A40108C00E94C60281E591E0CB
:1051D0000E94520380919E010E94C60260919E012E
:1051E0008091A4010E94150B80E70E94F203609158
:1051F0009E018091A4010E94ED1380919A018D3F40
:105200000CF086C28CEA92E00E9452036091880101
:105210007091890180918A0190918B0102E026E4CE
:1052200040919A010E94360473C282E30E94940264
:105230008CE491E00E94520380919E0120919F0195
:10524000821313C08091A4010E94C60281E591E0FF
:105250000E94520380919E010E94C60285E591E062
:105260000E9452038091A50116C03091A401909133
:10527000A501391316C00E94C60285E591E00E947F
:1052800052038091A4010E94C60281E591E00E9430
:10529000520380919F010E94C60281E00E94F203A6
:1052A00037C2321302C081E003C0981381CD80E180
:1052B00080930B0138C083E380930B018091A4019C
:1052C00090919F01891303C021E020930B0140912D
:1052D0009E013091A501431303C020E120930B01EF
:1052E0002091A001821303C082E080930B01809182
:1052F000A601481302C020920B01321303C032E111
:1053000030930B01981303C081E280930B018091CD
:105310000B01823208F04CCD83E30E9494028CE4AE
:1053200091E00E9452030E940804F2C1833009F008
:1053300028C180917D018823A9F18091690188238A
:1053400089F160916601809168010E94ED1340909F
:1053500088015090890160908A0170908B01C09102
:105360009A0160917C0180917A010E94ED138091F5
:105370009A01C8130EC08091880190918901A09173
:105380008A01B0918B01481659066A067B0618F00F
:1053900006C0C81724F49DE09093170103C08CE069
:1053A0008093170180917D01882361F080916901CC
:1053B000882341F04F9906C08091170191E0892719
:1053C00080931701809117018C3051F488EA92E0A4
:1053D0000E94520380917D01882389F080E70DC0EF
:1053E000D0925901C092580184EA92E00E9452037F
:1053F00080916901882319F08EE60E9494020E9430
:10540000CA02C0E080911601C81750F5EC2FF0E0F9
:10541000A0915801B09159011C968C91E256FE4F13
:1054200090819817D9F096819817C1F08091170153
:105430008C3039F49091670180916801891738F0B8
:1054400009C090917B0180917C01981718F485E543
:1054500091E002C081E591E00E945203CF5FD2CF7C
:1054600043E462E485E40E9491030E94E80282EB37
:1054700092E00E945203E0915801F091590160813D
:1054800071818281938103E020E040E00E94360434
:105490000E94CA028AE992E00E945203E0915801F8
:1054A000F09159016481758180E090E026E54DEF2F
:1054B0000E9436040E94060689E40E949402E0914C
:1054C0005801F0915901868197818031974270F09F
:1054D00085E60E949402E0915801F091590186817D
:1054E0009781805197429783868303C083E60E9409
:1054F00094028DE30E949402E0915801F0915901C9
:105500006681778180E090E002E021E44AEF0E942A
:105510003604E0915801F091590180859185892BDD
:10552000A9F00E9406068EE291E00E945203E091EB
:105530005801F09159016085718580E090E003E0A9
:1055400021E44AEF0E9436040E940606E0915801C9
:10555000F091590182859385892B09F4A7C10E9496
:10556000060688E291E00E945203E0915801F09112
:1055700059016285738580E090E003E021E44AEF01
:1055800093C1843009F0DDC08091170184FF08C009
:1055900080E50E949402D0925901C092580103C044
:1055A0008EE40E9494028DE20E9494028091170181
:1055B000C82FCF70C43019F48BEB92E013C085FF75
:1055C00002C084E401C085E40E949402C33041F427
:1055D00085EB92E00E94520343E467E485E407C050
:1055E00080EC92E00E94520344E467E483E50E9469
:1055F000910380911601813099F48091170184FF05
:1056000007C090917B0180917C01981738F008C009
:105610009091670180916801891710F4C1E001C081
:10562000C0E00E94E8028091170185FD21C0E09151
:105630005801F0915901668584850E94ED1380918F
:105640009A018D3F94F48FEA92E00E945203609198
:1056500088017091890180918A0190918B0103E00A
:1056600026E440919A010E94360485E992E015C033
:1056700089E40E9494028DE30E949402E091580113
:10568000F09159016681778180E090E002E021E4A9
:105690004AEF0E94360480E992E00E945203E091B2
:1056A0005801F09159016285738580E090E002E035
:1056B00026E54DEF0E94360480911601813009F0F5
:1056C000F5C00E9406060E94E802CC2359F08091A2
:1056D0009E010E94C60285E591E00E9452038091DE
:1056E000A4010AC08091A4010E94C60281E591E054
:1056F0000E94520380919E010E94C6020E94CA022B
:105700008AE992E00E94520380E00E94DE03CEC04C
:1057100080918401882309F4C9C037B880911001B1
:10572000909111010E94C70538E037B90E94030328
:1057300080911601805D0E9494028CE491E00E94A9
:10574000520320918401222309F4A1C0213071F475
:1057500080912C010E94C60287E491E00E945203CE
:1057600080912B010E94C602C0E051C040912F01E0
:105770005091300160913101709132018091270187
:1057800090912801A0912901B0912A01223059F16C
:1057900021E084179507A607B70708F020E0E22F5D
:1057A000F0E063E0EE0FFF1F6A95E1F7E95DFE4F61
:1057B00040913701509138016091390170913A015F
:1057C00080819181A281B38184179507A607B707CD
:1057D00050F0C22F213019F0D2E313E302C0D3E31B
:1057E00012E381E304C0C2E0D3E311E382E30E9449
:1057F000940287E491E00E945203812F0E94940258
:1058000087E491E00E9452038D2F0E9494020E942F
:10581000E80280918401813049F50E94E81780E018
:105820000E94B80380910001882309F43FC080E7FB
:1058300092E00E94520360910701709108018091EB
:10584000090190910A0103E028E4409100010E94BF
:10585000360465E080E00E94F40282E491E00E9458
:10586000520380912B010E94C60220C0C11102C0C8
:1058700081E003C080E0C13021F40E94B80382E0DF
:1058800003C00E94B80381E00E94B8030FC08CE8F7
:1058900093E00E9452030E94E80289EB93E00E9489
:1058A000520384EB93E099CA0E9436048091100160
:1058B0009091110196CA70FE0E94030381E0781254
:1058C00002C00E94E8027394972D9170792E00E037
:1058D00010E0051598F4F701E00FF11F64906620C1
:1058E00009F4B3CA2FEF621203C00E94CA0203C0B8
:1058F000862D0E9494020F5F1F4FEBCF662009F4A4
:10590000A4CAC50DD11DFE01E75AFE4FE491E03255
:1059100009F07ECA21967CCA80E090E0CDB7DEB760
:10592000E2E10C94A82DA29FB001B39FC001A39FF8
:10593000700D811D1124911DB29F700D811D1124C8
:10594000911D08950E94932CB7FF0895821B930B1D
:1059500008950E94932CA59F900DB49F900DA49F35
:10596000800D911D11240895DB018F939F930E9458
:10597000A92CBF91AF91A29F800D911DA39F900D67
:10598000B29F900D11240895AA1BBB1B51E107C0C3
:10599000AA1FBB1FA617B70710F0A61BB70B881FBF
:1059A000991F5A95A9F780959095BC01CD0108954E
:1059B00097FB072E16F4009407D077FD09D00E94BC
:1059C000C42C07FC05D03EF4909581959F4F089517
:1059D000709561957F4F0895A1E21A2EAA1BBB1BFB
:1059E000FD010DC0AA1FBB1FEE1FFF1FA217B307AB
:1059F000E407F50720F0A21BB30BE40BF50B661FC1
:105A0000771F881F991F1A9469F760957095809584
:105A100090959B01AC01BD01CF010895052E97FB28
:105A20001EF400940E94842D57FD07D00E94EC2C98
:105A300007FC03D04EF40C94842D5095409530957E
:105A400021953F4F4F4F5F4F0895689401C0E894F0
:105A50008F929F92CF93DF930E94332DDF91CF914E
:105A60009F908F90089588249924F401E401B0E474
:105A70009F93AA279A158B049C04ED05FE05CF057C
:105A8000D007A10798F4AD2FDC2FCF2FFE2FE92DE3
:105A9000982C892E982F872F762F652F542F432FE0
:105AA000322F2227B85031F7BF9127C01B2EBF914C
:105AB000BB27220F331F441F551F661F771F881FE8
:105AC000991F881C991CEE1FFF1FCC1FDD1FAA1FEA
:105AD000BB1F8A149B04EC05FD05CE05DF05A0075E
