:100000000C9483000C94A0000C94A0000C94A0000D
:100010000C94A0000C94A0000C94A0000C94AB01D4
:100020000C94A0000C94A0000C9488170C94A000D1
:100030000C94A0000C9462170C94A0000C94A000E7
:100040000C94A0000C94A0000C94A0000C94A000B0
:100050000C94A0000C94AC010C94A0000C94A00093
:100060000C94A0000C94A0000000140029003E0095
:100070005300690080009700AE00C600DF00F80062
:1000800012012D01490165018201A001BE01DE01BD
:10009000FF012102440268028E02B502DE0209035A
:1000A000350364039403C803FE0337047304B404E4
:1000B000F90443059305EA054906B3062907AE0787
:1000C0004808FF08DE09BA03870358032E03070315
:1000D000E402C302A402880256657273696F6E203F
:1000E000312E31306B0052303D00203E3130306EC9
:1000F00046005245465F433D005245465F523D0033
:1001000001041001020411241FBECFEFD4E0DEBFB2
:10011000CDBF11E0A0E0B1E0ECE8FEE302C0059045
:100120000D92A230B107D9F711E0A2E0B1E001C011
:100130001D92A33AB107E1F70E94BE0E0C94441F32
:100140000C9400001F93182F81E0612F0E947B0107
:100150000E94F213183048F41630C0F4123061F0E7
:10016000133079F01130F1F405C0143E89F0143FDA
:10017000C9F410C08EE306C08CE70E94C3138CE361
:1001800012C08CE70E94C3138CE70DC082E50BC040
:1001900085E709C08FE40E94C31388E60E94C31359
:1001A0008DE601C0812F0E94C3131F91089580E244
:1001B0000E94A20008958F5C0E94A20008958DE025
:1001C0000E94C3138AE00E94C31308951F93182F3F
:1001D00080E0612F0E947B010E94F213103811F021
:1001E000103C11F40E94DF001F91089581E00E94ED
:1001F000E60082E090E00E94E9030E94DF0080E8D0
:100200000E94E600089586E090E00E94E90380E8FD
:1002100060E30E947B0181E090E00E94E90380E8B6
:1002200060E30E947B010E94EC1380E860E30E947F
:100230007B010E94EC1380E860E20E947B0182E077
:1002400090E00E94E90388E20E94E6008CE00E94B0
:10025000E60086E00E94E6000E94F6000895EF9214
:10026000FF92CF93DF93E82EE7017E01F92EE7019D
:1002700002C00E94A20089918823D9F7DF91CF9113
:10028000FF90EF900895CF93DF93EC01FE018491EE
:10029000882331F0803821F00E94A2002196F6CF09
:1002A000DF91CF910895CF93DF93EC01CE010E94AF
:1002B000031F882331F0803821F00E94A20021968C
:1002C000F5CFDF91CF9108950F931F93CF93DF93D5
:1002D0008C01C0E0D0E0C8018C0F9D1F0E94031F5D
:1002E0000E94A2002196C830D105A9F7DF91CF91D5
:1002F0001F910F91089580FD5F9A80FF5F98579A34
:1003000000005D9A559A5C985B985A98599864FDDC
:100310005C9A549A65FD5B9A539A66FD5A9A529A72
:1003200067FD599A519A00005D980E94FB1387FD62
:1003300011C05D9A5C985B985A98599860FD5C9AD8
:1003400061FD5B9A62FD5A9A63FD599A00005D98BF
:100350000E94FB13089518951895BF92CF92DF92D3
:10036000EF92FF920F931F93CF93DF932AE0C22E59
:1003700098E0D92E8FE3B82ED7B8D8B815B8B4B84E
:1003800080E00E94621A8C0181E00E94681AEC01F0
:1003900082E00E94681A209107012830C1F041E0F4
:1003A000C430D10508F040E021E00430110508F028
:1003B00020E0422350E021E030E08430910510F04D
:1003C00020E030E0242335232115310521F088E099
:1003D00087B914B84EC023E0083E120710F028E099
:1003E00001C029E033E0C83ED30708F4226033E0BF
:1003F000883E930708F4246027B9C0E0D0E0A895B0
:1004000080E00E94561A7C0181E00E94681A8C01EB
:1004100082E00E94681A24E1E21625E0F20608F460
:10042000389A35E00431130708F4399A25E084310D
:10043000920708F43A9A36E0E316F10430F40630F5
:10044000110518F48630910538F0219681E0C43FFB
:10045000D807A9F6D092070100E010E004C00E947E
:10046000EC130F5F1F4F0C171D07C8F3CA9409F058
:1004700083CFDF91CF911F910F91FF90EF90DF908D
:10048000CF90BF9008958AE991E00E940B1F2091C0
:10049000440130914501280F391F83E0283E380779
:1004A00020F0C901885E934002C080E090E062E3E2
:1004B00070E00E947B1E683008F067E070E0FB018E
:1004C000EE0FFF1FEA53FF4F45915491FB01EE0FD2
:1004D000FF1FE853FF4F2591349162E3681B70E0E2
:1004E000421B530B649FC001659F900D749F900D3C
:1004F0001124499662E370E00E947B1E620F731F15
:10050000709301016093000108951F9314E10E940C
:10051000D7001150E1F71F9108952F923F924F920B
:100520005F927F928F929F92AF92BF92CF92DF9213
:10053000EF92FF920F931F93DF93CF93CDB7DEB768
:100540002F970FB6F894DEBF0FBECDBF6B017C01B5
:10055000142F722E033029F0043031F084E690E03D
:1005600014C088EE93E011C080E197E20EC0C7018D
:10057000B6016B5F7F4F8F4F9F4FA50194010E9483
:100580008F1E69017A011F5F08C01C014424552495
:100590005AE0852E912CA12CB12CC214D304E40472
:1005A000F50428F7812F845F87FD03C0833118F499
:1005B00003C080E001C082E123E0622F0E946F1E31
:1005C000192F992319F08F5F291B122F90E08D5658
:1005D0009E4F0E94031FB82EC6016E010894C11CD5
:1005E000D11CB6014AE050E00E94ED1EF6010190D8
:1005F0000020E9F731972E2E2C18822C811A18141E
:1006000044F08EE20E94A200882019F080E30E944C
:10061000A200112311F488248A946E010894C11C4D
:10062000D11C00E010E0992487FC90940DC00F5F6E
:100630001F4FF60181916F010E94A2000815190554
:1006400019F48EE20E94A200021588F3BB2019F073
:100650008B2D0E94A200772019F0872D0E94A20006
:100660002F960FB6F894DEBF0FBECDBFCF91DF91AE
:100670001F910F91FF90EF90DF90CF90BF90AF90C0
:100680009F908F907F905F904F903F902F90089514
:100690000F9390E0FC01EE0FFF1FE80FF91FEE0F24
:1006A000FF1FEE0FFF1FE85EFE4F608171818281A8
:1006B00093816436710581059105C0F420911C0178
:1006C00030911D0140911E0150911F0121153105EE
:1006D0004105510559F4818562850E94C81ABC0103
:1006E00080E090E04EEF24EF03E003C04FEF24EFF3
:1006F00004E00E948D020E94D7000F9108950F938D
:10070000833098F4E82FF0E0EE0FFF1FEE0FFF1F8D
:10071000E557FE4F6281738180E090E04DEF26E562
:1007200003E00E948D020E94D7000F9108951F934D
:10073000182F80EC0E94E6008BE091E00E945301AC
:10074000812F82958F700E947F03812F8F700E946E
:100750007F031F910895DF92EF92FF920F931F93F3
:10076000CF93DF93D09002018D2D82958F70C82F8B
:10077000D0E00BE811E0CC0FDD1FCC0FDD1FC00F68
:10078000D11F88810E94DB0080E4E82E81E0F82EF2
:10079000C7010E94530189810E94DB00C7010E94AA
:1007A0005301ED2DE370F0E0EE0FFF1FEE0FFF1F82
:1007B000E00FF11F81810E94DB00809102010E9405
:1007C0009703DF91CF911F910F91FF90EF90DF90F2
:1007D000089542E01CC08230910518F002973EE374
:1007E00003C037E180E090E02091B200230F209316
:1007F000B3004093700023B7217F266023BF23B747
:10080000216023BF889523B72E7F23BFA89500972B
:1008100011F71092700008951F93182F60FF03C006
:1008200085B1812B03C095B18095892385B984B1A9
:10083000812B84B982E090E00E94E90384B1109595
:10084000812384B985B1812385B91F9108952F92A1
:100850003F924F925F926F927F928F929F92AF9250
:10086000BF92CF92DF92EF92FF920F931F93DF938D
:10087000CF93CDB7DEB72E970FB6F894DEBF0FBE7D
:10088000CDBF182F262E4983A895862F90E0FC0116
:10089000E050FF4F3490E42FF0E0E050FF4F049120
:1008A000212F30E0F901E050FF4FC4902D5F3E4F03
:1008B000F90194908D5F9E4FFC018490F8E09F2A8F
:1008C0008F2A15B834B897B898B8802F60E00E9486
:1008D0000C04822D0E94621A3C0123E0813D9207A4
:1008E00040F0802F61E00E940C04822D0E94681A63
:1008F0003C012091720180915A0190E0820F911D7C
:10090000823091050CF0B3C3402E440C38EC6316D2
:1009100031E0730608F4ABC0842D832984B9822D9D
:100920000E94561A5C0189810E94681A7C0145B8B0
:10093000822D0E94561A950128513E4F4C282817A7
:10094000390708F040C088E088B987B844B845B88E
:1009500089810E94561A4FE08834940728F083E07A
:100960008093070184E004C083E08093070186E060
:1009700080930601B0925201A0925101EA14FB0447
:1009800040F4C5018E199F0990935601809355013B
:1009900004C01092560110925501B50180E090E01C
:1009A00028EE33E040E050E00E94501E2091030109
:1009B0003091040140E050E00E948F1E30935401BA
:1009C000209353014BC388E088B987B844B845B831
:1009D000812F0E94561A5C0189810E94681A7C014D
:1009E000C5B8812F0E94561A88519E4F8A159B05C3
:1009F00008F03DC398B897B889810E94561A53E011
:100A0000813D950728F483E08093070185E004C0C9
:100A100083E08093070187E080930601AE14BF0452
:100A200038F4EA18FB08F0926E01E0926D0104C000
:100A300010926E0110926D01609140017091410120
:100A40006A197B0980E090E028EE33E040E050E056
:100A50000E94501E209108013091090140E050E0B1
:100A60000E948F1E30936C0120936B014BC188E074
:100A700088B987B8C5B86C2D602B6A8764B9209196
:100A8000400130914101812F2E873B870E94621ADD
:100A90007C0189810E94681A5C012E853B858A3021
:100AA0009105D8F5842D8C2984B9809140019091CD
:100AB00041019D878C87812F0E94621AAC85BD857C
:100AC000A81BB90BBD87AC8789810E94681A5C019D
:100AD0004C855D859A0140E050E02A833B834C833E
:100AE0005D83209108013091090140E050E060E60B
:100AF00077EB87E490E00E948F1E6A817B818C8176
:100B00009D810E94501E950140E050E00E948F1E82
:100B10002A833B834C835D8312C0B9016E197F0920
:100B20007D876C87CB018A199B09B5010E947B1ECA
:100B3000CB01A0E0B0E08A839B83AC83BD8334B853
:100B400015B897B898B881E090E00E94E903502E5C
:100B5000532854B8822D0E94621AADE08F359A074F
:100B600008F4D6C0D42CD328D4B8822D0E94621A9F
:100B70007C0189810E94681A9F838E83B3E0823D45
:100B80009B0708F475C082E08093070180930601FB
:100B90006E147F0410F4E618F7086701EE24FF24B2
:100BA000209103013091040140E050E060E677EBD2
:100BB00087E490E00E948F1EC701B6010E94501E7C
:100BC000EE81FF819F0140E050E00E948F1E8091E6
:100BD0007201882369F08091650190916601A0916E
:100BE0006701B091680182179307A407B507A8F4BD
:100BF000209365013093660140936701509368012B
:100C0000812F0E94681A2E813F81821B930B909343
:100C10006A018093690121E001C020E080916501B3
:100C200090916601A0916701B09168014A815B8152
:100C30006C817D8184179507A607B70708F0E9C482
:100C4000409365015093660160936701709368015A
:100C500080914001909141016C857D85861B970BA9
:100C60008A199B0990936A018093690121E0D1C49C
:100C700071E66716710408F04BC081EDE81687E055
:100C8000F80608F445C083E08093070180930601CD
:100C900097E089228981806480937C007BE0C72E65
:100CA00081E090E06FEFE62E63E0F62E5C01A89500
:100CB000802F61E00E940C04D4B886B18821E9F34A
:100CC00034B880917A00806480937A0080917A00B1
:100CD00086FDFCCF2091780030917900D701A21BCE
:100CE000B30BAA0EBB1ECA9411F7C501880F991F3A
:100CF000880F991F69E070E00E947B1E70936E015F
:100D000060936D01809172018F5F80937201AECF0D
:100D100054B805B9822D0E94621A9B838A83A090E1
:100D20004001B090410189810E94681AA81AB90A4D
:100D3000BAE0AB16B104B8F5842D832984B945B85F
:100D4000822D0E94621A9B838A83A0904001B090FA
:100D5000410189810E94681AA81AB90A4A815B81F7
:100D60009A0140E050E02E833F83488759872091C5
:100D700003013091040140E050E060E677EB87E446
:100D800090E00E948F1E6E817F81888599850E94E8
:100D9000501E950140E050E00E948F1E2E833F833D
:100DA000488759870EC08A819B818A199B09B501A2
:100DB0000E947B1ECB01A0E0B0E08E839F83A887BA
:100DC000B98787B888E088B99A8594B995B9812F91
:100DD0000E94621AA6E080349A0708F045C1802F6D
:100DE00060E00E940C04812F0E94621A7C0115B8F9
:100DF00081E090E00E94E903C5B8812F0E94621A49
:100E0000B0E4EB16B6E0FB0608F042C0E1E1813346
:100E10009E07F0F185E08093070114B815B888B8F3
:100E200081E090E00E94E903C4B8812F0E94621A19
:100E3000853F910508F0FCC3FA85F4B989810E94C9
:100E4000621A23E0813D920708F4F2C3812F0E94C9
:100E5000681A32E08D3D930708F4EAC3C4B8812FC5
:100E60000E94621A42E08D3D940708F4E1C3C5B8C0
:100E700081E090E00E94E90315B8812F0E94621A78
:100E8000853F910508F0D4C384E080930701E6C054
:100E9000D42CDC28D4B8D5B88AE090E00E94E903CD
:100EA0002091400130914101812F2E873B870E9484
:100EB000681A2E853B85281B390BE0904001F09085
:100EC000410189812E873B870E94681A2701481AB1
:100ED000590A2E853B855EEF451659E0550608F404
:100EE00077C082E08093070181E08093060162165B
:100EF000730610F4261937096901EE24FF242091A6
:100F000008013091090140E050E060E677EB87E4AA
:100F100090E00E948F1EC701B6010E94501E9201F0
:100F200040E050E00E948F1E80915A01882369F0B2
:100F300080914D0190914E01A0914F01B0915001CF
:100F400082179307A407B507C8F420934D01309387
:100F50004E0140934F0150935001E0904001F090BA
:100F60004101E418F508822D0E94681AE81AF90A6E
:100F7000F0925201E092510121E001C020E0809105
:100F80004D0190914E01A0914F01B09150014E81C1
:100F90005F816885798584179507A607B70708F0EC
:100FA00048C340934D0150934E0160934F0170939D
:100FB000500180914001909141016A817B81861BA3
:100FC000970B8A199B09909352018093510130C36A
:100FD00071E66716710408F047C08DE029343807C0
:100FE00008F442C083E08093070182E08093060109
:100FF00097E099228981806480937C0081E090E071
:1010000020E07C01A895802F60E02E870E940C04D0
:10101000D4B8D5B82E8586B18921E9F7C4B88091B6
:101020007A00806480937A0080917A0086FDFCCFFC
:101030004091780050917900E40EF51E2F5F2B301F
:1010400009F7C701880F991F880F991F69E070E0A1
:101050000E947B1E709356016093550180915A0146
:101060008F5F80935A01E4C288E087B988B9DC2C8D
:10107000DD0C14B815B888E087B9A1ED6A16A3E0B5
:101080007A0608F492C088B938ECE32EA82CA92877
:10109000A7B881E090E00E94E90387B8812F0E9401
:1010A000681A8231910510F0EA9491F7D4B8D5B856
:1010B000802F61E00E940C04812F0E94621A5C0163
:1010C000802F60E00E940C04812F0E94621A482E3B
:1010D000692EC4B8C5B8812F0E94621A9B838A8387
:1010E000822D0E94681AEA81FB81E81BF90BFB83C1
:1010F000EA83802F61E00E940C04812F0E94621A13
:101100007C01822D0E94681AE81AF90AD4B8D5B871
:101110002A813B812E153F0540F0802F60E00E9420
:101120000C04A42CB62CEA80FB80812F0E94621A4A
:1011300097012759304041E129383407B0F58E1521
:101140009F0598F5C50123E0969587952A95E1F7C7
:10115000893C910510F088EC90E08A0D9B1D8E155E
:101160009F0518F5C70104E0969587950A95E1F764
:101170008A159B05D0F480910701882311F08630F1
:1011800019F481E08093070180910501E82FF0E0D8
:10119000EE0FFF1FEE0FFF1FE557FE4F108321825A
:1011A000F382E2828F5F809305012091720180912A
:1011B000050190E0820F911D20915A01820F911D2F
:1011C000009709F008C2A8958091400190914101D3
:1011D000880F991F880F991F9093410180934001B8
:1011E00080913E0190913F01880F991F880F991FB0
:1011F00090933F0180933E018EEB80933C0188E009
:1012000088B987B8C4B8C5B8EE24FF2401E001C08E
:101210007C01822D0E94621A2C01812F0E94681A83
:101220009C012E193F0937FF03C0309521953F4F90
:10123000233031057CF49C0115B8D4B8812F2E875A
:101240003B870E94621A2E853B858135910508F007
:10125000A7C105C0A8950F5F0931D1F6A1C1D5B8C6
:10126000812F2E873B870E94621A3C0197B898B85D
:1012700015B834B8EE24FF2401E02E853B854901E2
:1012800001C07601812F0E94621A5C01822D0E94AA
:10129000681A6C018E199F0997FF03C0909581957C
:1012A0009F4F8330910584F49401330C34B8822D20
:1012B0008E863B870E94621A4C012E853B8554E442
:1012C000203C350730F00CC0A8950F5F0931C9F6F6
:1012D00067C165E8661661E0760608F061C106C080
:1012E00070EB67167DE4770608F05AC184EAC816E9
:1012F00082E0D80608F072C098E98916910408F4D3
:101300004FC1A0904001B0904101B30180E090E056
:1013100028E937EB40E050E00E94501E9501261965
:10132000370940E050E00E948F1E69017A01A81839
:10133000B908B50180E090E028E937EB40E050E0E3
:101340000E94501E940140E050E00E948F1EA8E7CA
:101350006A16AFE07A0670F4C701B601E2E0660FE4
:10136000771F881F991FEA95D1F7620F731F841F9B
:10137000951F12C0B8E78B16BFE09B06A0F4CA0108
:10138000B90102E0660F771F881F991F0A95D1F7F0
:101390006C0D7D1D8E1D9F1D25E030E040E050E06E
:1013A0000E948F1E08C02C0D3D1D4E1D5F1D5695C1
:1013B000479537952795CA01B90124E630E040E00A
:1013C00050E00E94501E6B017C012CEA3DE040E0A1
:1013D00050E0C20ED31EE41EF51E77C0C9014216AE
:1013E000530608F4C2017601CA14DB0408F475013F
:1013F0003C018217930708F43901B301681B790B8C
:1014000080E090E0209108013091090140E050E037
:101410000E94501E20914001309141012619370948
:1014200040E050E00E948F1E49015A012701CE146E
:10143000DF0408F42601E418F508B70180E090E025
:10144000209103013091040140E050E00E94501EC1
:10145000920140E050E00E948F1E68E766166FE040
:10146000760670F4C501B401A2E0660F771F881FED
:10147000991FAA95D1F7620F731F841F951F12C081
:1014800078E747167FE05706B0F4CA01B901F2E0E9
:10149000660F771F881F991FFA95D1F7680D791D80
:1014A0008A1D9B1D25E030E040E050E00E948F1E29
:1014B00069017A010AC069017A01C80CD91CEA1CC9
:1014C000FB1CF694E794D794C7948091070182306F
:1014D00018F0863009F064C03091730120E041C0FB
:1014E000822F90E0FC01EE0FFF1FE80FF91FEE0FB7
:1014F000FF1FEE0FFF1FE85EFE4F8385998189175E
:1015000011F02F5F2EC080809180A280B380C70130
:10151000B601681979098A099B0997FF07C0909558
:101520008095709561957F4F8F4F9F4F2AE030E0F7
:1015300040E050E00E94501EA50194012C593F4FFD
:101540004F4F5F4F2C0D3D1D4E1D5F1D0E948F1E86
:10155000211531054105510519F586E080930701F4
:101560001FC0231708F4BCCF832F90E0FC01EE0FBF
:10157000FF1FE80FF91FEE0FFF1FEE0FFF1FE85EC2
:10158000FE4FC082D182E282F382148215821682DB
:10159000178221861287A981A3873F5F3093730149
:1015A00080914001909141019695879596958795F8
:1015B000909341018093400180913E0190913F01C1
:1015C000969587959695879590933F0180933E01D8
:1015D00089E180933C0188E087B988B914B815B8CF
:1015E0002E960FB6F894DEBF0FBECDBFCF91DF9120
:1015F0001F910F91FF90EF90DF90CF90BF90AF9031
:101600009F908F907F906F905F904F903F902F9022
:101610000895809172018F5F809372012223D9F225
:10162000B981B0936F012092700110937101D3CFF3
:1016300021E080915A018F5F80935A01222359F251
:10164000E981E09357011093580120925901C3CFCB
:10165000EF92FF920F931F93182F062FF42E85E021
:1016600091E00E945301EE24E0914B01F0914C0176
:101670008485E81619F4812F0E94A200E0914B01A5
:10168000F0914C018285E81619F4802F0E94A20087
:10169000E0914B01F0914C018385E81619F48F2DF0
:1016A0000E94A200E3948E2D8330F1F61F910F91DA
:1016B000FF90EF9008950F931F93DF93CF930F92B6
:1016C000CDB7DEB798E097B998B9E82FF0E0E050D1
:1016D000FF4F949195B9E62FF0E0E050FF4FE49171
:1016E000E92BE4B969830E94681A8C016981862F0D
:1016F0000E94681AAC012091400130914101369559
:101700002795C90144978017910760F42C5E3F4FDD
:101710000217130738F48417950720F481E0421765
:10172000530708F080E014B80F90CF91DF911F911C
:101730000F9108951F9380E061E00E945B0B182FCA
:1017400080E062E00E945B0B180F81E062E00E9483
:101750005B0B810F1F9108958F929F92AF92BF9262
:10176000CF92DF92EF92FF920F931F93DF93CF936D
:10177000CDB7DEB72E970FB6F894DEBF0FBECDBF44
:101780000E949A0B833009F098C20E94F6008CEBFD
:1017900090E00E94530180EC0E94E6008FE30E94DB
:1017A000A20010E0489908C082E090E00E94E9039E
:1017B0001F5F1233B9F70AC010E0489B0EC082E0E9
:1017C00090E00E94E9031F5F183CB9F70E94F60001
:1017D00088ED90E00E94430170C280EC0E94E60018
:1017E00086EE90E00E94430185EA91E060E00E946D
:1017F000111F86EA91E060E00E94111F84EA91E0E7
:1018000060E00E94111F82E060E00E94C81A7C0123
:101810009A83898382E061E00E94C81A6C019C83EC
:101820008B8381E060E00E94C81A5C019E838D83F7
:10183000B701882777FD8095982F4EEF20E203E0CF
:101840000E948D02B601882777FD8095982F4EEF74
:1018500020E20E948D02B501882777FD8095982FA0
:101860004EEF24EF0E948D022CE3E216F1042CF4DB
:1018700085EA91E06E2D0E94111F8CE3C816D104F9
:101880002CF486EA91E06C2D0E94111FECE3AE1659
:10189000B1042CF484EA91E06A2D0E94111F10E03B
:1018A00084E690E00E94E903489B03C01F5F1C3060
:1018B000B9F710E080EC0E94E6000E94850280ECFF
:1018C0000E94E6008CEC90E00E94530184E690E0D8
:1018D0000E94E9030E949A0B882319F01F5F1837B2
:1018E00049F70E94F60082E591E00E945301609161
:1018F00042017091430180E090E04FEF24EF03E05C
:101900000E948D0280EC0E94E60089E591E00E9431
:101910005301609148017091490180E090E04FEFE0
:1019200024EF0E948D0280E991E00E94E903109269
:10193000070182E060E00E94981400917D011091FF
:101940007E011C870B8782E061E00E949814E09082
:101950007D01F0907E01FE86ED8681E060E00E94D0
:101960009814C0907D01D0907E01DE82CD8280E00F
:1019700062E00E94981480917D0190917E019C8389
:101980008B8381E062E00E94981480917D019091A8
:101990007E019A87898780E061E00E949814809197
:1019A0007D0190917E019A83898398878F830E941D
:1019B000F60080E691E00E945301B801882777FD88
:1019C0008095982F40E020E203E00E948D02B7014D
:1019D000882777FD8095982F40E020E20E948D02B5
:1019E000B601882777FD8095982F44EF26E40E9462
:1019F0008D028E010F5F1F4F9E01215F3F4FF80147
:101A0000819191910A97853B9105E8F4E217F307DC
:101A1000B9F7EE24FF24F80160810E5F1F4F615F6C
:101A2000C70184569E4F0E94111F0894E11CF11CAF
:101A3000F7E0EF16F10479F780EC0E94E6008AEEF9
:101A400090E00E94530180E991E00E94E90310E0D8
:101A5000CC240AE0802E912CA12CB12CB5E7EB2EE2
:101A6000B1E0FB2E0E94F60081E30E94A2008AE111
:101A700091E00E94530183E30E94A2008AEE90E06D
:101A80000E9443011092070182E060E00E949814D6
:101A90002091750130917601409177015091780144
:101AA0000091870107C0CA01B901A50194010E94F4
:101AB0008F1E0F5F073FBCF30093870120937501D2
:101AC000F701318342835383073F09F0C0C02036BA
:101AD00031054105510508F4BAC0203FF5E53F073F
:101AE000F0E04F07F0E05F0708F0B1C060918901B6
:101AF00070918A012FEF6B3672070CF4A8C066391B
:101B000071050CF0A4C01F5F123009F0A1C08AE972
:101B100091E00E941F1F0E94F60082EF90E00E9459
:101B200043018091890190918A016CE071E04AE063
:101B300050E00E94CC1E0E942F0188E088B989E005
:101B400087B980E284B982E00E94681AE3E0853DAB
:101B50009E07CCF714B810923F0110923E0182E02C
:101B60000E94681A4C0182E991E00E94031F9927A4
:101B700087FD90952091440130914501820F931F7C
:101B800090933F0180933E0182E00E94681A5C01BD
:101B9000AA0CBB1C10923F0110923E0182E00E94F1
:101BA000681A6C01009144011091450182E991E0AD
:101BB0000E94031F992787FD9095800F911F909396
:101BC0003F0180933E0182E991E00E94031FF82EBD
:101BD00080EC0E94E60089EF90E00E94430182E9D8
:101BE00091E00E94031FF3E0EF2EE80EC80CD91C11
:101BF000CA18DB08B601882777FD8095982F2F2D0E
:101C0000332727FD3095200F311F40E050E00E9420
:101C1000501E9501442737FD4095542F0E94B11E58
:101C2000E20E82E991E06E2D0E94111F8E2D992700
:101C300087FD90956CE071E04AE050E00E94CC1E78
:101C40000E942F0180E293E00E94E9031BC010E094
:101C500080EC0E94E60060917501709176018091A0
:101C60007701909178014091870126E404E00E9479
:101C70008D0288E290E00E94E903C394FC2DF034C9
:101C800009F0F0CE89E180933C010E94F60088EDD6
:101C900090E00E94430180EC0E94E6008BED90E012
:101CA0000E9453011092070188EC90E00E94E90322
:101CB00080EC0E94E6000E9485022E960FB6F894F2
:101CC000DEBF0FBECDBFCF91DF911F910F91FF906F
:101CD000EF90DF90CF90BF90AF909F908F9008953E
:101CE00080914701882369F48CE991E00E94031FE9
:101CF000682F6F5F8FE991E00E94111F81E0809350
:101D0000470108950F93CF93DF93E82FF0E0ED5F45
:101D1000FE4FE491E860E8B9E7B9E62FF0E0E05063
:101D2000FF4FE49115B8EE0FE4B9862F0E94621AB6
:101D3000EC010097F9F08AE391E00E945301BE01A3
:101D400080E090E020EA36E841E050E00E94501E3A
:101D500028E937EB40E050E00E948F1EB90180E097
:101D600090E047EF21E402E00E948D0288E087B90D
:101D700088B914B8DF91CF910F9108958F929F92F7
:101D8000BF92CF92DF92EF92FF920F931F93DF9358
:101D9000CF930F92CDB7DEB780E48AB98BB986E8CE
:101DA00080937A0014B784B7877F84BF88E10FB629
:101DB000F89480936000109260000FBE86EA8093D2
:101DC000640088E380937E001092B00087E08093E7
:101DD000B10078940E94030113FF0AC080E80E94BA
:101DE000E60083EB90E00E94530188E592E09CC0FE
:101DF00088E40E94E6008AE691E00E94640180E5A2
:101E00000E94E60082E791E00E94640188E50E945A
:101E1000E6008AE791E00E94640188E70E94E600FC
:101E200082E891E00E94640180E70E94E6008AE86F
:101E300091E00E94640180E185BF10925B011092E5
:101E40000B015DE4C52E51E0D52E45E6842E41E020
:101E5000942E1092070110920501109272011092B7
:101E60005A011092060110924A010E94F60088E081
:101E700087B91092730110928501109286010E9419
:101E8000DF0010923D010E94581D80E80E94E6008C
:101E900082E991E00E94031F992787FD9095209188
:101EA000440130914501820F931F90933F0180932D
:101EB0003E0185E00E94681A85E00E94621A9093B4
:101EC0006A018093690184EE90E00E945301609161
:101ED000690170916A01660F771F660F771F6A5656
:101EE0007F4F80E090E0609375017093760180935E
:101EF0007701909378014DEF26E502E00E948D0274
:101F00000E94D7008091690190916A0126E08A3F82
:101F10009207F8F4E6E083339E07C0F48AE690E087
:101F20000E94530180E991E00E94E9031BB880E020
:101F300090E00F90CF91DF911F910F91FF90EF9064
:101F4000DF90CF90BF909F908F90089585E690E0AE
:101F500002C08AEE90E00E9453012FE088E190E0F9
:101F60000FB6F894A895809360000FBE2093600090
:101F70000E94430280914A018823F1F080910B0175
:101F80008823D1F480915B018823B1F480EC0E9416
:101F9000E60084E291E00E9453016091400170915B
:101FA000410180E090E04DEF26E503E00E948D02C4
:101FB00088EC90E00E94E90380EC0E94E6000E9419
:101FC000AD0180910701883039F40E94F6008EE15E
:101FD00091E00E945301A0C30E94AC0B80EC0E94D0
:101FE000E600109247018CE991E00E94031F182F30
:101FF0008FE991E00E94031F181731F081E0809370
:10200000470181E20E94A2008AE590E00E9453010C
:1020100080E061E042E00E94270481E060E042E06D
:102020000E94270480E062E041E00E94270482E0F1
:1020300060E041E00E94270481E062E040E00E940D
:10204000270482E061E040E00E94270480910701BC
:102050008823E1F483E40E94A2000E94AD01109263
:10206000790110927A0110927B0110927C0184EF29
:102070008093880182E060E00E94981482E061E031
:102080000E94981481E060E00E9498140E94F6007B
:10209000D0924C01C0924B0100910701013009F030
:1020A000C7C0809105018130D1F590918B0180915D
:1020B0008C01981750F4892F0E94DB0080E491E096
:1020C0000E94530180918C0108C00E94DB0084E4CF
:1020D00091E00E94530180918B010E94DB0080916E
:1020E0008C0160918B010E94820E80E70E94970311
:1020F00087EF90E00E94530180918C0160918B01E9
:102100000E94981460917501709176018091770119
:10211000909178014091870126E403E0C6C28230A5
:1021200009F04AC082E30E94A20088E491E00E9484
:10213000530180918B0120918F01821799F4809136
:102140008C010E94DB0084E491E00E9453018091A5
:102150008B010E94DB0080E491E00E94530180919A
:10216000900116C030918C01909190013917B1F413
:102170000E94DB0080E491E00E94530180918C0179
:102180000E94DB0084E491E00E94530180918F0162
:102190000E94DB0081E00E949703BEC2321719F44F
:1021A0000093020106C0981709F082C280E1809373
:1021B00002010E94AB03B0C2833009F079C283E30D
:1021C0008093020180918C0190918F01891711F405
:1021D0000093020140918B0130919001431719F453
:1021E00020E12093020120919301821719F482E0EB
:1021F0008093020180919401481719F440E24093C2
:102200000201321719F422E120930201981719F400
:1022100081E28093020180910201823208F048C27B
:1022200083E30E94A20088E491E00E945301C1CFA1
:10223000023009F09EC080917201882399F180914B
:102240005A01882379F180915901609157010E94C8
:102250009814E0907501F09076010091770110914B
:102260007801B090870180916F01609171010E94A7
:10227000981480918701B81671F48091750190913E
:102280007601A0917701B0917801E816F9060A0766
:102290001B0718F004C0B81614F482E001C081E0F6
:1022A0008093060180910601813061F48DEF90E00A
:1022B0000E94530180917201882399F080E70E9467
:1022C000A2000FC081E091E00E94530180915A0169
:1022D000882319F08EE60E94A20090924C01809211
:1022E0004B010E94D700809105018330C0F080919E
:1022F0000601813039F49091580180915901891774
:1023000038F009C09091700180917101981718F40C
:1023100080E491E002C084E491E00E94530185E4EE
:1023200062E443E40E94280B80EC0E94E6008AEFFE
:1023300090E00E945301E0914B01F0914C016081CB
:1023400071818281938140E020E003E00E948D0250
:102350000E94D7008BE091E00E945301E0914B0175
:10236000F0914C016481758180E090E04DEF26E5AD
:102370009CC1033009F08FC08091060180FF08C026
:1023800080E50E94A20090924C0180924B0103C014
:102390008EE40E94A2008DE20E94A20080910601BC
:1023A0008695823011F484E403C0813021F485E401
:1023B0000E94A20005C0833019F482EF90E002C0B1
:1023C0008DEE90E00E94530183E567E444E40E94AF
:1023D000280B809105018823C1F08091060184308B
:1023E000A0F480FF07C0909170018091710198174F
:1023F00038F008C09091580180915901891710F464
:1024000081E001C082E00E94A20080EC0E94E60010
:10241000809106018430E8F487EF90E00E94530138
:10242000E0914B01F0914C01828564850E949814E3
:10243000609175017091760180917701909178019A
:102440004091870126E403E00E948D028FE091E035
:1024500015C089E40E94A2008DE30E94A200E091D1
:102460004B01F0914C016681778180E090E04BEF69
:1024700021E402E00E948D0284E191E00E94530178
:10248000E0914B01F0914C016085718580E090E016
:102490004DEF26E509C1053019F485E890E004C048
:1024A000043051F48FE790E00E94530183E467E425
:1024B00041E40E94280B30C1063009F0A3C06091AE
:1024C0007301613071F4809122010E94DB008DE480
:1024D00091E00E945301809121010E94DB0000E005
:1024E00056C0209124013091250140912601509140
:1024F00027018091180190911901A0911A01B091C2
:102500001B01623071F101E082179307A407B50740
:1025100008F000E0802F90E0FC01EE0FFF1FE80FB5
:10252000F91FEE0FFF1FEE0FFF1FE85EFE4F209119
:10253000300130913101409132015091330180815D
:102540009181A281B38182179307A407B50748F050
:10255000013019F012E323E302C013E322E381E325
:1025600004C002E013E321E382E329830E94A20076
:102570008DE491E00E9453012981822F0E94A200E4
:102580008DE491E00E945301812F0E94A20080EC13
:102590000E94E60080917301813011F580E00E9475
:1025A00048030E94D31780911C0190911D01A091B6
:1025B0001E01B0911F010097A105B10509F4ACC03F
:1025C00087E391E00E94530160911C0170911D010D
:1025D00080911E0190911F014091200128E49DCD22
:1025E000002311F481E003C0013029F480E00E944F
:1025F000480382E004C080E00E94480381E00E941A
:1026000048038AC0073009F053C0809185010E94B9
:10261000DB008AE191E00E945301809186010E94D3
:10262000DB000E949E1C80918301909184010097A1
:1026300079F08FE291E00E945301609183017091E3
:10264000840180E090E04FEF25E202E00E948D02DD
:1026500080EC0E94E6006091790170917A0180918E
:102660007B0190917C014091880126E404E00E9466
:102670008D0280918601609185010E94C81A909315
:10268000820180938101FFEF8A3F9F0708F044C0D9
:1026900089E291E00E945301609181017091820171
:1026A00080E090E04EEF24EF02E00E948D0234C003
:1026B00080910501882371F487E990E00E9453011D
:1026C00080EC0E94E60081E790E00E9453018AE7D7
:1026D00090E016C08AE790E00E9453018EE890E0F7
:1026E0000E94530180EC0E94E60087EA90E00E947D
:1026F000530180910501805D0E94A20080E491E079
:102700000E94530180915B018F5F80935B01109267
:102710000B0108ED19E509C010925B0180910B01D6
:102720008F5F80930B0100E010E088E187B9489B40
:10273000FECF88E290E00E94E90310936E010093BF
:102740006D0110C0489B85CBA89582E090E00E9467
:10275000E90380916D0190916E010A9690936E014C
:1027600080936D0180916D0190916E012DE6803610
:10277000920740F35E98489B6CCBA89582E090E06E
:102780000E94E903F8CF2F935FB72F932AE080953B
:10279000089410F4439802C0439A000022D029D034
:1027A00086952A95B1F72F915FBF2F9108950895CF
:1027B00003D002D001D000D000D003D002D001D08D
:1027C00000D0A89500D003D002D001D000D000D016
:1027D00003D002D001D000D000D003D002D001D06D
:1027E00000D000D003D002D001D000D000D003D060
:1027F00002D001D000D000000895EF92FF920F9315
:102800001F93DF93CF930F92CDB7DEB721E08C32C9
:10281000920718F08C52914002C080E090E069E18C
:1028200070E00E947B1E6C3218F449E1481B02C024
:1028300040E06BE2E62EFF24C701880F991F80500D
:10284000904049830E940B1F8C01C701880F991F7C
:102850008E5F9F4F0E940B1F9C01498150E0081B17
:10286000190B409FC001419F900D509F900D112466
:102870000C9669E170E00E947B1E620F731FCB0112
:102880000F90CF91DF911F910F91FF90EF900895DE
:102890008F929F92AF92BF92DF92EF92FF920F932F
:1028A0001F93E0907501F0907601009177011091EF
:1028B0007801D09087014AE0842E912CA12CB12C74
:1028C00008C0C801B701A50194010E948F1E7901BB
:1028D0008A018D2DD39491EAE91696E8F90691E0E4
:1028E000090790E0190768F780938701209140015C
:1028F0003091410140E050E0C801B7010E94501EF4
:1029000028E833E140E050E00E948F1E20937501DB
:102910003093760140937701509378011F910F9186
:10292000FF90EF90DF90BF90AF909F908F900895B1
:102930007F928F929F92AF92BF92CF92DF92EF924F
:10294000FF920F931F93CF93DF93182F762E880F4C
:10295000810F860F815080935C01E62FF0E0ED5FE0
:10296000FE4F0491E12FF0E0E050FF4FA4908091E2
:102970000701863009F498C230910501ABE8B1E057
:1029800020E013C011968C911197871561F48C91FA
:10299000811749F412968D919C91139745E08C3DD7
:1029A000940708F481C22F5F1496231758F3086028
:1029B000109282011092810110927501109276019D
:1029C000109277011092780184EF809387010E9422
:1029D000AD0188E088B915B807B914B8812F0E94F5
:1029E000681A7C0110925E0110925D01EC012DC00D
:1029F000A5B8A4B80E94E71314B815B80E94ED1347
:102A0000A895812F0E94681AE816F90620F4EC01B7
:102A1000CE19DF0902C0C0E0D0E080915D01909145
:102A20005E018E37910521F4CB34D10508F437C20D
:102A300081E0CD32D807B0F480915D0190915E01C4
:102A4000019690935E0180935D0180915D0190916C
:102A50005E0121E0843F920758F241E0CD32D40775
:102A600008F41DC280915D0190915E01009781F490
:102A700085E0C531D80708F092C00AC00E94E8136B
:102A8000812F0E94681AA8950894C11CD11C03C00C
:102A9000CE01CC24DD2420915D0130915E012C1506
:102AA0003D0560F7E816F90630F48E199F098C177A
:102AB0009D0710F502C080E090E07E01E81AF90A57
:102AC000E9F0B70180E090E028EE33E040E050E02C
:102AD0000E94501E9E0140E050E00E948F1E49015E
:102AE00025E6E216F10460F080915D0190915E01AF
:102AF000009709F456C0D3C1EE24FF2488249924FA
:102B0000A0905D01B0905E010894A11CB11CCC2482
:102B1000DD24A0927D01B0927E01C0927F01D0920F
:102B20008001C7018C0F9D1F0E94FD13BC0180E036
:102B300090E0A60195010E94501E60937D01709364
:102B40007E0180937F019093800160937501709363
:102B50007601809377019093780187EF80938701C6
:102B60000E944814609175017091760180917701FF
:102B70009091780128EE33E040E050E00E94501E32
:102B800024E630E040E050E00E948F1E2093750163
:102B900030937601409377015093780141C18824A6
:102BA0009924EA2CEE0C0E94AD0115B88FE087B98C
:102BB00088E088B9E4B880E480937B0084E580BF36
:102BC000812F806480937C0086E180937A000E944C
:102BD000F01310925E0110925D011092800010922D
:102BE00085001092840087E286BB81E280936F00AB
:102BF00081E080937401E5B890910701933071F4FE
:102C00008093810081E090E0012E02C0880F991F1F
:102C10000A94E2F780958F7087B903C08093810092
:102C200007B9F89483B7817F83BF12C083B78160EF
:102C300083BF7894889583B78E7F83BFF894A895D7
:102C400080915D0190915E0146E08034940721F00F
:102C500080917401882351F7789410928100C0917B
:102C60008600D091870010926F0086E980937A00E9
:102C700014B815B8812F0E94681A20914401309130
:102C80004501821B930B0C9690938A0180938901D6
:102C900080915D0190915E0123E08032920708F0FF
:102CA000FEC080915D0190915E01909380018093C0
:102CB0007F01D0937E01C0937D0184EF80938701D3
:102CC00080915D0190915E0182349105C8F0609120
:102CD0007D0170917E0180917F019091800124E6B9
:102CE00030E040E050E00E948F1E20937D01309341
:102CF0007E0140937F015093800186EF809387018E
:102D0000609100017091010180E090E020917D01CF
:102D100030917E0140917F01509180010E94501EB0
:102D200020E233E040E050E00E948F1E20937D01BE
:102D300030937E0140937F0150938001E5E7F1E0FD
:102D4000209375013183428353830E9448148091FC
:102D50008701843F09F055C0C0907501D09076017D
:102D6000E0907701F090780140EAC4164FE0D40675
:102D700040E0E40640E0F406C0F4A70196012452C6
:102D80003F4F4F4F5F4F60EA7FE080E090E00E944E
:102D90008F1E2C0D3D1D4E1D5F1D20937501309320
:102DA0007601409377015093780180915C0190E027
:102DB00084569E4F0E94031F209175013091760129
:102DC000409177015091780190E0A0E0B0E0821747
:102DD0009307A407B50768F4281B390B4A0B5B0B54
:102DE00020937501309376014093770150937801D9
:102DF00008C010927501109276011092770110921E
:102E00007801A4B88091750190917601A091770125
:102E1000B091780189319105A105B10508F43FC051
:102E200080910501882321F0809107018330B9F555
:102E300087E0809307016091870180918801861760
:102E4000BCF0681761F520917501309176014091D1
:102E50007701509178018091790190917A01A09148
:102E60007B01B0917C0182179307A407B507B8F4E2
:102E7000E5E7F1E08091750190917601A0917701ED
:102E8000B09178018093790190937A01A0937B01AE
:102E9000B0937C01638B97868686708A118B88E05D
:102EA00087B988B914B815B8DF91CF911F910F91E8
:102EB000FF90EF90DF90CF90BF90AF909F908F905A
:102EC0007F9008951F920F920FB60F9211248F9347
:102ED0009F93B59904C080917401882349F4B59BF0
:102EE00010C080918600909187008A3F910548F438
:102EF00080915D0190915E01019690935E018093B7
:102F00005D019F918F910F900FBE0F901F901895AC
:102F10001F920F920FB60F9211248F939F931092CE
:102F20007401B09B10C080918600909187008A3F09
:102F3000910548F480915D0190915E010196909316
:102F40005E0180935D019F918F910F900FBE0F9056
:102F50001F901895CF93DF9324E130E0B9010E94D0
:102F60007B1EDC0170E0FB01EE0FFF1FE859FF4FF5
:102F7000C591D491FB01EE0FFF1FE659FF4F45911C
:102F800054914C1B5D0B4A9FC0014B9F900D5A9F63
:102F9000900D1124B9010E947B1E6C0F7D1FCB0187
:102FA000DF91CF9108952F923F924F925F926F924F
:102FB0007F928F929F92AF92BF92CF92DF92EF92C9
:102FC000FF920F931F93DF93CF93CDB7DEB7689730
:102FD0000FB6F894DEBF0FBECDBF809107018630DB
:102FE00009F04BC280917301813009F046C2809193
:102FF000180190911901A0911A01B0911B0189301B
:1030000022E5920720E0A20720E0B20708F035C2CF
:1030100099248091210140902201992D923010F441
:10302000882E02C0842C482EE42DF0E0ED5FFE4F88
:103030002491E82DF0E0E050FF4FE49115B8A8E0AE
:10304000A8B98091180190911901A0911A01B0912D
:103050001B01803F9105A105B105B8F490FC15C096
:10306000A0900301B090040180E795EEA80EB91E70
:10307000322F386081E090E0082C02C0880F991F41
:103080000A94E2F7382B37B908C0E4B9822F886078
:1030900087B9A0900301B090040130E0882D288FFB
:1030A0003F8B0E945C1A6C01842D0E94681AAC014F
:1030B000288D3F8992E0C916D10418F44230510599
:1030C00018F03F5F343151F7A0E4A0937B00B4E5E2
:1030D000B0BF882D806480937C0086E180937A0065
:1030E00000E010E0109280001092850010928400A1
:1030F00097E296BB2860288F0E94F013292C332476
:10310000D101A170B070BA8BA98B288D90FC05C03D
:10311000B1E8B093810028B908C028B90E94F9131A
:1031200020E226BB81E880938100C80146B345FFB9
:1031300002C08C010BC040FFF9CFA1E0A6BBA8954F
:1031400001968035910591F700E510E0109281001D
:10315000B0E2B6BB20918600309187007901809162
:103160008400909185002817390730F440FF04C08F
:1031700021E026BB0F5F1F4F88E088B996E9909346
:103180007A0020E0882D288F0E945C1A6C01842D23
:103190000E94681A288DA2E0CA16D10418F4823061
:1031A000910518F02F5F243169F7C0901801D09075
:1031B00019018091480190914901C80ED91ECA0C8D
:1031C000DB1C8AE991E00E940B1F209144013091A1
:1031D0004501280F391FB0E9AB16BAE1BB06B8F4B8
:1031E00081EEE816F1040105110538F4C70165E028
:1031F00070E00E947B1E645101C069E1285230409A
:10320000772767FD7095261B370B66E008C0C6015F
:1032100060EB76E30E947B1E695F285D3F4F70E0A4
:1032200080E090E06E157F058007910728F4E61A8C
:10323000F70A080B190B03C0EE24FF248701A989A4
:10324000BA89109741F082E290E0A0E0B0E0E80E89
:10325000F91E0A1F1B1F0035110518F0EE24FF246C
:1032600087019BE0E916F1040105110528F0089497
:10327000E108F10801091109C601A0E0B0E08B8B5B
:103280009C8BAD8BBE8BB90180E090E028EE33E0E3
:1032900040E050E00E94501E2B013C01B50180E04F
:1032A00090E0209140013091410140E050E00E94C7
:1032B000501E2B893C894D895E890E948F1E40E0FB
:1032C00050E0C301B2010E948F1EC9010E94AA17DB
:1032D0006C016B897C898D899E89A80197010E9468
:1032E000501E2B013C01B60180E090E0E3E0660F48
:1032F000771F881F991FEA95D1F76B5F7F4F8F4F1C
:103300009F4F2AE030E040E050E00E948F1E40E0F6
:1033100050E0C301B2010E948F1EF101EE0FFF1FAA
:10332000EE0FFF1FA1E0B0E0AC0FBD1FEA0FFB1FC7
:10333000208331834283538389899A89009799F442
:103340009CE0E916F1040105110568F0F1013196E0
:10335000EE0FFF1FEE0FFF1FEA0FFB1F20833183CD
:10336000428353839394A8959394A92DA43008F491
:1033700050CE88E088B984E090E00E94E90361E0E3
:103380002D813E814F81588589819A81AB81BC8195
:1033900082179307A407B50708F060E02D853E85E6
:1033A0004F85588989859A85AB85BC858217930797
:1033B000A407B50710F072E001C073E0A72FB0E0DA
:1033C000AA0FBB1FAA0FBB1FCE010196A80FB91FE2
:1033D000E62FF0E0EE0FFF1FEE0FFF1FE80FF91FC3
:1033E0002D913D914D915C9180819181A281B3811C
:1033F000281739074A075B0708F4672F262F30E0A4
:10340000F901EE0FFF1FEE0FFF1FEC0FFD1F618193
:1034100072818381948160931C0170931D0180935C
:103420001E0190931F014BEF4093200120FD0DC022
:10343000209118013091190140911A0150911B01FE
:10344000203F310541055105A8F02CEF20932001C4
:103450006B5F7F4F8F4F9F4F2AE030E040E050E09E
:103460000E948F1E20931C0130931D0140931E016A
:1034700050931F0188E087B914B868960FB6F89486
:10348000DEBF0FBECDBFCF91DF911F910F91FF9097
:10349000EF90DF90CF90BF90AF909F908F907F90F4
:1034A0006F905F904F903F902F9008958F9384E09E
:1034B00090E00E94E9030BC08F9382E090E00E94AD
:1034C000E90305C08F9381E090E00E94E9038F91AA
:1034D0001F93182F106410937C00E12FE0788091E7
:1034E0003D01E81761F00E94F1138EE980937A00A4
:1034F00083E083BF889582E083BFE0933D0120E0B5
:1035000030E0A901E0E01FC08EE980937A0083E0FB
:1035100083BF889582E083BF6091780070917900C5
:10352000260F371F411D511DE43061F480913F018A
:10353000803041F084E02030380720F417FD02C0CD
:103540001068C9CFEF5F80913C01E817E8F217FFE0
:1035500005C060913E0170913F0104C0609140013F
:103560007091410180E090E00E94501E2FEF33E007
:1035700040E050E00E948F1EB901CA0120913C0139
:1035800030E040E050E00E948F1EC9011F91089575
:103590002F923F924F925F926F927F928F929F9263
:1035A000AF92BF92CF92DF92EF92FF920F931F9351
:1035B000DF93CF93CDB7DEB76E970FB6F894DEBF2B
:1035C0000FBECDBF662EB82E860F898320910701CE
:1035D000273019F52091790130917A0140917B01D2
:1035E00050917C011091880109C0CA01B9012AE0FB
:1035F000312D412D512D0E948F1E1F5F173FACF3BF
:103600002C8B3D8B4E8B5F8B243B60E03607410556
:10361000510518F48FEF9FEF78C126EDA22E02C05E
:1036200094EDA92EE3E0F1E0E60DF11D85918860AF
:103630008E87E3E0F1E0EB0DF11D859188608F87C7
:10364000E0E0F1E0E60DF11D7590E0E0F1E0EB0D5A
:10365000F11DC59090EC692AB92A81E0E82EF12C81
:10366000012D112D8E831F82188619861A861B86BE
:103670001C861D86188E198E0E94AD0188E088B9BF
:1036800060927C000E94F1133F8537B975B874B819
:103690000E94F6130E94FA1315B814B8DD24B4ED95
:1036A0009B2EA6ED8A2E3E8537B975B874B8609208
:1036B0007C00A895A0927A0080917A0086FDFCCFCC
:1036C000A0927A0080917A0086FDFCCF209078004D
:1036D00030907900B0927C00A0927A0080917A00BC
:1036E00086FDFCCF80927A000E94F713C5B8C4B85B
:1036F0000E94F5130E94F7130E94FB138F938F9182
:10370000A895A89514B815B880917A0086FDFCCFCD
:103710002091780030917900288B398B3F8537B91B
:10372000C5B8C4B8A895B0927C00A0927A008091E8
:103730007A0086FDFCCFA0927A0080917A0086FD07
:10374000FCCF609178007091790060927C00A0922B
:103750007A0080917A0086FDFCCF80927A000E94E8
:10376000F71375B874B80E94F5130E94F7130E94FE
:10377000FB138F938F91A895A89514B815B88091D5
:103780007A0086FDFCCF409178005091790014B802
:10379000CB01820D931DE80EF91E011D111DEA8259
:1037A000FB820C831D8388899989840F951F2E8144
:1037B0003F8168857985280F391F611D711D2E8312
:1037C0003F836887798724E62417150650F075B87B
:1037D00074B80E94FA1314B815B8888D8395888F31
:1037E00007C0483E73E0570718F08A8D83958A8F8B
:1037F0008889998928171906B0F03E8537B9C5B868
:10380000C4B80E94FA130E94F5130E94F7130E9495
:10381000FB138F938F91A895A89514B815B8898D2F
:103820008395898F07C0883E73E0970718F08A8DCB
:1038300083958A8FD3945D2D5F3F09F034CF4090FC
:10384000480150904901440C551C9201E4E0240DBC
:10385000351DEA95E1F72901570168016E807F80E7
:1038600088849984209107012730C1F46C897D896F
:103870008E899F899B01AC016D5E7F4F8F4F9F4F5B
:103880000E94501E9B01AC016CE179E380E99AE152
:103890000E948F1E621A730A840A950AA614B7043E
:1038A000C804D90428F46A187B088C089D0803C052
:1038B000662477244301B20180E090E09301A401E3
:1038C0000E94501E9501A6010E948F1E83EA91E07E
:1038D0007981870F911D0E94031F682EC90160E145
:1038E00070E00E947B1E260F371FC901681619065B
:1038F00018F48619910909C08C5E9F4F86159105B1
:1039000010F40E94700E812D912D6E960FB6F894D2
:10391000DEBF0FBECDBFCF91DF911F910F91FF9002
:10392000EF90DF90CF90BF90AF909F908F907F905F
:103930006F905F904F903F902F900895CF92DF92BD
:10394000EF92FF920F931F93CF93DF9380918301A8
:1039500090918401009709F0A2C0E0918501F0E008
:10396000ED5FFE4F04910860E0918601F0E0E050C9
:10397000FF4F14910E94AD0188E088B915B807B9CE
:1039800014B9809186010E94681AEC0100918801A7
:10399000083F0CF084C02091790130917A01409168
:1039A0007B0150917C01045F8AE0C82ED12CE12C70
:1039B000F12C0BC0CA01B9016B5F7F4F8F4F9F4F36
:1039C000A70196010E948F1E0F5F043098F37901C2
:1039D0002150304040405040283883E1380780E093
:1039E000480780E0580708F05AC015B914B900E03C
:1039F00010E004C00E94F7130E5F1F4F67010E1501
:103A00001F05C0F314B815B8A89585E080933C0154
:103A1000809186010E94681AC817D90720F48C018A
:103A20000C1B1D0B02C000E010E0EE24FF2405C0BB
:103A30000E94F7130894E11CF11CEC14FD04C0F380
:103A4000809186010E94681A29E120933C01A89583
:103A5000C817D90718F48C1B9D0B02C080E090E0BA
:103A600080179107A8F4B801681B790B89F080E0F2
:103A700090E024EF31E040E050E00E94501E9801B9
:103A800040E050E00E948F1E309384012093830118
:103A90000E94AD0188E087B988B914B815B8DF91E4
:103AA000CF911F910F91FF90EF90DF90CF900895ED
:103AB0008F929F92AF92BF92CF92DF92EF92FF923E
:103AC0000F931F93CF93DF9388E893E19093410185
:103AD000809340018EEB80933C0108E008B988E1B7
:103AE00087B90E94F51307B984E00E94621AEC01BD
:103AF0008B5C984021E0833F9207C0F481E0809383
:103B00004A01609140017091410180E090E02FEB0B
:103B100039E040E050E00E94501E9E0140E050E03D
:103B20000E948F1E30934101209340018EE00E943D
:103B3000681A8EE00E94621A9093450180934401B6
:103B40000E94430282E991E00E94031F992787FDAA
:103B500090952091440130914501820F931F9093DD
:103B60003F0180933E0179E0D72ED7B8AA24A394D1
:103B7000A5B8A4B880E00E94621A8C016AE0862E83
:103B800087B854E0C52EC5B8C4B881E00E94621A57
:103B9000080F191F4CE0F42EF7B830E1E32EE5B81A
:103BA000E4B882E00E94621A080F191F15B8D8B84D
:103BB000D7B8A4B8C0914001D091410180E00E94E3
:103BC000621A5C0188B887B8C4B8C0904001D09030
:103BD000410181E00E94621A4C01F8B8F7B8E4B8DC
:103BE000E0904001F090410182E00E94621ACC0D09
:103BF000DD1DCE0DDF1DCA19DB09C819D909C81B87
:103C0000D90B80914001909141016C01CC0CDD1CDD
:103C1000C80ED91EC01AD10ACC1ADD0AEE24FF2420
:103C2000B80180E090E020E93AE140E050E00E94F5
:103C3000501EA70196010E948F1E890130934901F1
:103C400020934801BE0180E090E020E93AE140E0A5
:103C500050E00E94501EA70196010E948F1EC901CC
:103C600030934301209342018057954E9093090170
:103C7000809308010057154E10930401009303012F
:103C800089E180933C01DF91CF911F910F91FF90CB
:103C9000EF90DF90CF90BF90AF909F908F9008955E
:103CA000629FD001739FF001829FE00DF11D649F20
:103CB000E00DF11D929FF00D839FF00D749FF00DAC
:103CC000659FF00D9927729FB00DE11DF91F639F4D
:103CD000B00DE11DF91FBD01CF0111240895991BFD
:103CE00079E004C0991F961708F0961B881F7A95F3
:103CF000C9F780950895AA1BBB1B51E107C0AA1FF5
:103D0000BB1FA617B70710F0A61BB70B881F991F7C
:103D10005A95A9F780959095BC01CD010895A1E22F
:103D20001A2EAA1BBB1BFD010DC0AA1FBB1FEE1F35
:103D3000FF1FA217B307E407F50720F0A21BB30B80
:103D4000E40BF50B661F771F881F991F1A9469F7FC
:103D500060957095809590959B01AC01BD01CF0158
:103D6000089597FB092E05260ED057FD04D0D7DF06
:103D70000AD0001C38F450954095309521953F4F5E
:103D80004F4F5F4F0895F6F7909580957095619528
:103D90007F4F8F4F9F4F0895FB019F01E894423062
:103DA000C4F04532B4F44A3029F497FB1EF49095E0
:103DB00081959F4F642F77270E947B1E805D8A33F9
:103DC0000CF0895D8193CB010097A1F716F45DE2B9
:103DD00051931082C9010C94241FFB019F014230B2
:103DE00074F0453264F4642F77270E947B1E805D57
:103DF0008A330CF0895D8193CB010097A1F7108283
:103E0000C9010C94241FF999FECF92BD81BDF89A87
:103E1000992780B50895A8E1B0E042E050E00C9405
:103E2000361F262FF999FECF1FBA92BD81BD20BD46
:103E30000FB6F894FA9AF99A0FBE019608950E9467
:103E4000111F272F0C94121FDC01FC01672F7191A9
:103E50007723E1F7329704C07C916D937083629170
:103E6000AE17BF07C8F30895DC01CB01FC01F99937
:103E7000FECF06C0F2BDE1BDF89A319600B40D92B6
:0C3E800041505040B8F70895F894FFCF6F
:023E8C005803D9
:00000001FF
