:10000000B2C60000C2C60000C0C60000BEC60000E6
:10001000BCC600000C945327B8C600000C940C0D0D
:10002000B4C60000B2C600000C94951D0C9437278E
:100030000C9445270C946F1DA8C60000A6C60000AE
:100040000C941127A2C60000A0C600009EC60000A6
:100050009CC600000C940D0D98C6000096C60000CA
:1000600094C6000092C60000BE00B700B000FEFDBE
:10007000FBF7EFDFBF7F010204081020408010086B
:10008000407E01013E01013E01013E01017E4040F2
:1000900018000720080808F80000002060A03FA012
:1000A0006020020202FF0202021010101F00000076
:1000B000050842818989760508C2A19189860508CB
:1000C000000402FF0010100508F87838588809105D
:1000D00003081C3E7F0D080710FF818181F1E1C1FB
:1000E000FF4040404743410D080110FFFF11080346
:1000F00010F1E1C14743410E000820212112206088
:10010000E0E0E0FEFE0402010001037F7F21C2C4A3
:10011000C4C04094840007030102040E080210FECC
:10012000FE7F7F00000000110005202060E0E0E07D
:100130000201000103C2C4C4C0400703010204015C
:1001400004100102044E6F742063616C6962726175
:100150007465642120466F72FF63616C696272612D
:1001600074696F6E20636C616D70207468652033F4
:10017000FF70696E7320746F6765746865722061C3
:100180006E64207374617274207769746820746877
:1001900065FF6B65792E2041636B6E6F776C6564CC
:1001A0006765207468652073656C662D746573746B
:1001B000207769746820746865206B657920776999
:1001C0007468696EFF32732E20446973636F6E6EBC
:1001D0006563742070696E73206166746572207443
:1001E0006865FF6D657373616765202269736F6C65
:1001F000617465FF50726F626521222069732073FC
:10020000686F776E2E20536F667477617265206118
:100210006E6420646F63756D656E746174696F6E72
:100220002069732061742073766E3A2F2F206D69D8
:100230006B726F636F6E74726F6C6C65722E206E72
:1002400065742F7472616E736973746F7220746554
:10025000737465722000B903870358032E030703E4
:10026000E402C302A40288020000140029003E0038
:100270005300690080009700AE00C600DF00F80060
:1002800012012D01490165018201A001BE01DE01BB
:10029000FF012102440268028E02B502DE02090358
:1002A000350364039403C803FE0337047304B404E2
:1002B000F90443059305EA054906B3062907AE0785
:1002C0004808FF08DE0900000000000000000000F0
:1002D0000000000000001E2121211200807F00008C
:1002E000007E4A4A4A34000000000000FC40201012
:1002F00008040201000000010101010101010101E6
:10030000010101017F0488D0E0F0F8000000000046
:1003100000000000000000000000000000FC9494B9
:100320008400000102FC000000000000000000004A
:1003300000001E21212112E0C0804020100F00008B
:1003400000C020202040000000FC00009E9E04030E
:10035000030303020000002020232425252320205E
:10036000203F00007B7B2142840480C0000000000D
:1003700000000000000000000000FC9494840004D1
:100380000607070708F0000000000000000000005A
:10039000000000803F2121120C00000000FF00003F
:1003A00000F0084848C80000FE0000E7818181C1D4
:1003B000E1F18181810100202020212121202020C4
:1003C0003F0000F340404041434740407FC00000B1
:1003D0000000000000000000000000004894949419
:1003E0006400000000FF00000000000000000000AA
:1003F0000000000000003F2121120C0000FF00005F
:1004000000F0084848D0000000000000FEFE040490
:100410000404040404070008080809090908087FFF
:100420003E1C08087F7F20202020202020E00000A4
:1004300000000000000000000000000000004894E0
:100440009494640000FF0000000000000000000021
:1004500000FF003C0A090A3C00223129292600003D
:1004600082868E9EBEFEFEBEDEEFF6FAFEFEFAF23B
:10047000E2C28200000008080804027984A4A4688B
:1004800000FF00000000000000000000000000006D
:10049000000000000000000000FF0000F0282428F9
:1004A000F0001008FC000000000000000000000048
:1004B000003C0A090A3C00FF0000000000000000A8
:1004C00000000000000000000000040C1C3C7CFF49
:1004D0007C3C1C0C040000000000009EA1A9A99A0D
:1004E000804323130B0703FF0303030303030000ED
:1004F000000000000000000000788484844800FFB1
:10050000000000000000000000F00804E2110909EA
:10051000090909090909091121C2040810E00000AC
:100520000001020404070000000000804020108841
:100530004423100804030000000000000000000035
:1005400000FE0100FC0201000000000000000000AD
:100550000000000000000000007949497900000017
:1005600000000000000040F010101010F0400001EA
:1005700001010101010040FCF8F0E040FC400007EF
:1005800003010000070040FC40E0F0F8FC400007D9
:1005900000000103070040FCFC0000FCFC400007D9
:1005A000070000070700788482028284780006042E
:1005B00007000704060000FC000000F01000100F08
:1005C000020402070400080808080808F8400202AC
:1005D00002020202030040F80808080808080003A5
:1005E00002020202020240404040404040400000FF
:1005F000000000000000C000008000008000010238
:1006000002010202010200800000800000C002011D
:1006100002020102020100F8040222548800101FA5
:1006200010020201000000000000000000000000B5
:1006300000000000000000000000000000000000BA
:1006400000000000000000000000000000000000AA
:10065000000000000000000000000000000000009A
:100660000000000000000000F80402FE02000C067A
:10067000050404070C0002FE020002FE020004074B
:10068000040404170C0002FE02F002FE020004073C
:10069000040704170C000000E01008F808000C061E
:1006A000050404070C00804028F82840800001025F
:1006B000141F1402010008F8080008F808000407D5
:1006C000040404170C0008F808C008F80800040720
:1006D000040704170C00001018FCFC18100000019F
:1006E000010101010100001018FC181000000000B9
:1006F000000100000000000000FC000000000001FC
:100700000101010100004040404050E04000000075
:100710000000010000002070A82020202000000020
:10072000000000000000E0000000000000000101E7
:100730000101010101002070A82020A87020000004
:1007400000000000000000C0F0FCF0C0000000004D
:100750000000000000000C3CFCFCFC3C0C00000015
:100760000000000000000000000000000000000089
:10077000000000000000000000FE0000000000007B
:10078000000D0000000000160E0000160E00000014
:100790000000000000000010FC1010FC1000000120
:1007A000070101070100001824FE4488000000032F
:1007B000040F040300000C12924C201008000201E8
:1007C0000006090906008C5222528C40C00001022A
:1007D000040404010200000000160E0000000000E6
:1007E0000000000000000000F0080402000000000B
:1007F0000102040800000000020408F000000000EC
:100800000804020100004850E0FCE05048000201EA
:10081000000700010200404040F840404000000056
:1008200000030000000000000000000000000000C5
:1008300000160E00000040404040404040000000D4
:1008400000000000000000000000000000000000A8
:100850000006060000000000804020100800020191
:10086000000000000000F80402020204F800010287
:10087000040404020100000804FE02000000000459
:10088000040704040000080402824224180004063D
:1008900005040404060006020202122AC600010230
:1008A000040404020100C0A09E8080FC80000000BF
:1008B0000000040704003E120A0A0A12E6000102C0
:1008C000040404020100F84422121224C0000102B0
:1008D0000404040201000E02C262321A0E0000007B
:1008E00007000000000088542222225488000102E0
:1008F000040404020100384482824224F800000209
:1009000004040402010000000018180000000000A8
:10091000000606000000000000181800000000009B
:1009200000160E0000000040A010080402000000A5
:1009300000010204080000202020202020000001E7
:100940000101010101000002040810A0400000089C
:100950000402010000001804028242241800000072
:10096000000D00000000F804D252E204F800010279
:1009700005050405040200F0080402FE0200040755
:1009800005010507040002FE222222548800040704
:10099000040404020100F804020202048E000102B1
:1009A00004040402010002FE02020204F80004072B
:1009B00004040402010002FE222272020E00040757
:1009C00004040404070002FE222272020E0004073F
:1009D000040400000000F80402C24244DE000102E8
:1009E00004040201070002FE222022FE0200040786
:1009F000040004070400000202FE020200000004DA
:100A00000407040400000000000202FE02000003CC
:100A100004040403000002FE6290080402000407BC
:100A200004000106040002FE0200000000000407AA
:100A300004040404070002FE38E038FE0200040744
:100A400004000407040002FE1A6082FE020004078C
:100A5000040005070400F80402020204F800010281
:100A600004040402010002FE42424224180004076A
:100A7000040000000000F80402028204F8000102F1
:100A800004040405020402FE42C2422418000407C2
:100A90000400010604008814222222448E00010270
:100AA0000404040201000E0202FE02020E00000411
:100AB00004070404000002FE020002FE020000031C
:100AC00004040403000002FE820082FE0200000013
:100AD00003060300000002FE02F002FE0200000115
:100AE00007030701000002DE722072DE0200040725
:100AF000040004070400027EC280C27E02000000DF
:100B00000407040000000E824222120A06000704B5
:100B100004040404070000FE0202020000000007B3
:100B200004040400000008102040800000000000C1
:100B30000000000102000000020202FE00000000AE
:100B40000404040700001008040204081000000058
:100B50000000000000000000000000000000080885
:100B60000808080808000000000E16000000000039
:100B7000000000000000904828284890E000010292
:100B800004040402070002FE10080810E000040735
:100B9000020404020100E0100808081038000102F5
:100BA000040404020100E010080810FE0200010223
:100BB000040402070400E050484848506000010265
:100BC00004040402010020F82422020C000004079F
:100BD000040400000000E010080810F808000009F4
:100BE00012120907000002FE100808F000000407B6
:100BF000040004070400001016F6000000000004C2
:100C00000407040400000000101616F00000000C99
:100C10001010100F000002FEC0201008180004077A
:100C200004010204040000000202FE0000000000B3
:100C300004040704040008F808F008F000000407A2
:100C400000070007040008F8201008F0000004075F
:100C5000040004070400E01008080810E000010286
:100C600004040402010008F810080810E000101F36
:100C7000120404020100E010080810F80800010244
:100C80000404121F100008F82010080830000407A0
:100C90000400000000001028484848903800010275
:100CA0000404040201000808FE0808000000000017
:100CB00003040404020008F8080008F80800000310
:100CC00004040207040008F8880088F808000000FF
:100CD00003060300000008F808C008F80800000335
:100CE00006030603000008B8E040E0B80800040767
:100CF00000000007040008F8080008F808000009D0
:100D00001212110F0000180888482818080006055C
:100D100004040404060040B01C02020000000001AC
:100D2000070808000000000000FE000000000000AE
:100D3000001F00000000000002021CB04000000084
:100D40000808070100000C02020408080402000061
:100D5000000000000000C02010081020C0000101A9
:100D600001010101010011241FBECFEFD8E0DEBF59
:100D7000CDBF15E0A0E0B1E001C01D92AE3BB107D0
:100D8000E1F70E94A0320C94523A3AC95A9A529A08
:100D90005D98559A33D02ED05A9830D080FD5A9A0B
:100DA00080FF5A982BD05A9829D067FD5A9A26D09E
:100DB0005A9866FD5A9A22D05A9865FD5A9A1ED0C2
:100DC0005A9864FD5A9A1AD05A9814D05A9863FDCA
:100DD0005A9A14D05A9862FD5A9A10D05A9861FDC6
:100DE0005A9A0CD05A9860FD5A9A08D05A9802D054
:100DF0009AD49BC403D002D001D000C05D9A5D9A02
:100E00005D98089560933F058093040186958093D3
:100E1000A505660F660F660F60930F010895109287
:100E2000A50560E080E0EECF60E082E0EBCF60E01F
:100E300084E0E8CF60E086E0E5CF80913F058093D5
:100E400001018091A505809303010895809103011C
:100E500060910101880FD6CFCF93C82F692F81E011
:100E600095DF6C2F81E092DFCF910895682F80E0AD
:100E70008DCF2AE331E080E090E0F901E80FF91F1F
:100E80001082019680319105C1F7205F3F4F85E0C8
:100E90002A33380781F7C3CF0895582F28E030E070
:100EA00090E841E080E0642F652309F0892B440F2E
:100EB00096952150310921153105A9F70895A9E02A
:100EC000B0E0E5E6F7E00C9484399A838983162F25
:100ED000A62EB12C802E912CC501880D991D81382C
:100EE00091050CF0ABC08E2D90E0BC01640F711D1C
:100EF000613471050CF0A2C03FE3341BC12CD12C2E
:100F0000422F42704D83AC01415051095F834E83A3
:100F100078E0672E712C217051E0851A91088A0CB7
:100F20009B1CEFE02E2E312CEC2DCE1408F086C049
:100F30004D814423B1F08E819F818C199D09AC01B4
:100F400097FF02C0495F5F4F63E0559547956A95EB
:100F5000E1F7F42EB3010E94D5388A589F4FFC0167
:100F600008C0FE2EF694F694F694E770F0E0EA5886
:100F7000FF4F44911986188669817A81F09E600D31
:100F8000711D11247C836B8370E1379F2001112434
:100F90008885801708F04DC02223A1F0C401A885E0
:100FA000B9858A1B9B0BBC0197FF02C0695F7F4F0D
:100FB00053E0759567955A95E1F7F62EB3010E94B7
:100FC000D5380CC0688579856A0D7B1D93E07595D1
:100FD00067959A95E1F7F62E810F8770EB81FC817A
:100FE00068857985E60FF71F949194236F2D70E043
:100FF000E82FF0E0D101A61BB70B91110AC0E2590E
:10100000FF4FE491A40DB51DA65CBE4F8C91E82363
:1010100009C0EA58FF4FE491A40DB51DA65CBE4F70
:101020008C91E82BEC938885998501969987888720
:10103000AFCF9FEFC91AD90A315076CF2996E2E196
:101040000C94A039EF920F93282F8F7030E6839F76
:10105000C00111248A539D4F322F307324FF02C0E8
:1010600028E001C028E420931001303218F01092DB
:10107000000108C020E220930001209110012D5EA4
:1010800020931001F0E2EF2E08E120E040910001F2
:101090006091100114DF0F91EF900895EF920F937C
:1010A000262FFC01649131964491FC013296049103
:1010B000FC013396E49050910001450F50911001CE
:1010C000650F0496FCDE0F91EF90089560E0E6CF87
:1010D000EF920F9390913F059F5F90933F05409152
:1010E0000401440F440F440F20E1829FC0011124EA
:1010F000A0E1EA2E08E020E060910F018A599A4FA2
:10110000DEDE80910F01885F80930F010F91EF90D9
:1011100008958F5CDDCF80E2DBCFA1E0B0E0E3E9B2
:10112000F8E00C94943918162CF48983F4DF898143
:101130008150F9CF2196E2E00C94B03990913F05AF
:1011400080E1891BEACFA1E0B0E0E9EAF8E00C9485
:1011500094398983F3DF9091A5059F5F9093A5054E
:101160006981943038F083E08093A50581E0809315
:10117000420502C0109242058091A505880F42DE0B
:101180002196E2E00C94B039DEDFACC348DED6DF56
:1011900046CE4ADED3DF48CE8DE39ACFCF93DF939E
:1011A000EC018991882311F093DFFBCFDF91CF9180
:1011B0000895CF93DF93EC01FE018491982F9F77E0
:1011C00019F086DF2196F8CFDF91CF910895CF9364
:1011D000DF93EC01CE010E94143A982F9F7719F00B
:1011E00077DF2196F7CFDF91CF910895EF920F939C
:1011F000FC0104913196E490029661DE0F91EF902C
:1012000008950F938BE891E0E2DF409189054D3F0F
:1012100064F46091770570917805809179059091DB
:101220007A0503E026E428D102C08FE351DF0F9155
:101230000895FF920F931F93CF93DF930AE311E07A
:10124000F12C8FE18F1528F08F2D80680FDE80E85C
:1012500005C080EE8F0D806809DE88E807DEC0E0FB
:10126000D0E0F801EC0FFD1F608181E08FDD219659
:10127000C031D105B1F7F394005F1F4F80E4F8123D
:10128000E0CFA895CDB7DEB7E5E00C94AD395A981C
:10129000529A5D98559A36D281E0E8DD38D28CE0DA
:1012A000E5DD86E0E3DD84E2E1DDE3DD86E2DEDD4F
:1012B000C0DFB5CD97FF09C08F939F938DE208DF04
:1012C0009F918F91909581959F4F65E271E04AE0E3
:1012D00050E00E94003A62CFEDDF01C0EBDF1BCF90
:1012E000EF92FF920F931F93182F062FF42E8DE687
:1012F00091E06DDFEE24E0914005F0914105868597
:10130000E81611F4812F09C08485E81611F4802FA6
:1013100004C08585E81611F48F2DDADEE3948E2D56
:10132000833049F71F910F91FF90EF900895EF924E
:10133000FF920F931F93182F062FF42E80E024DFC7
:1013400083E791E044DFEE248E2DE3DE25DFE0919C
:101350004005F09141058685E81611F4812F09C0FA
:101360008485E81611F4802F04C08585E81611F4F1
:101370008F2DAEDED0DEE3948E2D833029F71F91C2
:101380000F91FF90EF900895682F80E092E0662320
:1013900009F491E0623009F481E008950F93282F59
:1013A00084E0289FF0011124EA55FA4F6081718191
:1013B00082819381643671058105910578F43091BD
:1013C000020137FD0BC0822FDFDF682F892F0E94BB
:1013D000ED2223E044E06EEF3ED104C004E024E0BF
:1013E0004FEF4AD098DE0F910895863058F4E9E91E
:1013F000F5E0E80FF11DE80FF11D8081918163E0B8
:1014000035D189CE08951F93182F809173058823B5
:1014100019F081DE80E05CDE07DD84E691E0D7DE56
:10142000812F82958F70E1DF812F8F70DEDF1F911A
:101430000895CF93DF938091110182958F70CDE84D
:10144000D5E0C80FD11D888164DE82E391E0BFDE64
:101450008E815FDE82E391E0BADECDE8D5E0809157
:1014600011018370C80FD11D8E8153DE809111014F
:10147000CADFDF91CF910895AEE0B0E0E2E4FAE098
:101480000C948439342E222E6B017C01102F1F7096
:1014900080E389838A838B838C838D838E83F7FE9D
:1014A0000BC08DE215DEF094E094D094C094C11C82
:1014B000D11CE11CF11C04C005FF02C08BE208DE58
:1014C000133009F4B6C0143009F4BAC0153051F025
:1014D000163081F01730B1F074E6872E912CA12CD4
:1014E000B12C17C060EA862E66E8962EAA24A39433
:1014F000B12C0FC050E4852E52E4952E5FE0A52E4E
:10150000B12C07C040E8842E46E9942E48E9A42E69
:10151000B12C3AE0432E512C612C712CC814D90403
:10152000EA04FB0470F0C701B6016B5F7F4F8F4F79
:101530009F4FA30192010E94E83869017A01339418
:10154000EDCF81E1830D9BEA899F812C1124869444
:1015500086E08319899F912C11249694992D990FD7
:10156000990D982E991A5E0187E0A80EB11C2AE009
:1015700030E0A501C701B6010E94DD39F5010190F7
:101580000020E9F7CF0101977C01EA18FB08AE2C97
:101590006701DD24892D90E004968C159D051CF4CF
:1015A000839493E0990E882D90E0895D9F4F0E946F
:1015B000143AB82E04FF04C0A11610F41E1901C07D
:1015C00010E0AE2CA918A10E1A1424F08EE280DDD2
:1015D000192D1E19911002C028EFA22E912C012F57
:1015E00010E0C00ED11EEA2CFF24E7FCF094E92D98
:1015F000F0E0EC15FD05A4F43696E01BF10B81E05C
:1016000090E08C0F9D1FE80FF91F808161DD93949E
:10161000892D90E08E159F0551F78EE259DDE7CFB9
:10162000BB2011F08B2D54DD222089F0822D50DD5E
:101630000EC098EE892E93E0992EA12CB12C69CF83
:1016400080E1882E87E2982EA12CB12C62CF2E96B5
:10165000E2E10C94A0390F93362FBC0180E090E0BA
:10166000022F242F432F08DF0F9108950F93062F89
:10167000BC0180E090E026E54DEFFEDE0F9108957D
:101680000F93042F28E440E0F7DE8AE721DD0F9175
:101690000895E82FF0E0EE0FFF1FE859FF4F859106
:1016A000949120910001420F20911001620F20E0DF
:1016B0009DCDCF93DF93C82FD62FE0914005F091B9
:1016C000410548E16EE18685E4DFE0914005F09157
:1016D00041054D2F6C2F8485DCDFE0914005F091B2
:1016E000410540E06EE18585D4DFDF91CF9108951B
:1016F000089503D002D001D000D000D003D002D092
:1017000001D000D000D003D002D001D000D000D052
:10171000A89503D002D001D000D000D003D002D0D1
:1017200001D000D000D003D002D001D000D000D032
:1017300003D002D001D000D00000089590E0893C91
:1017400028F0885C48EC849FC0011124009709F4BC
:10175000089520918100277019F0DADF0197F6CF04
:101760008130910519F002973EE303C037E180E034
:1017700090E02091B200230F2093B30042E0409309
:10178000700027E023BF889526E023BF10927000E9
:10179000A895DCCF8F9384E0D1DF07C08F9382E0E0
:1017A000CDDF03C08F9381E0C9DF8F911F93182F86
:1017B000106410937C00E12FE07880913001E817ED
:1017C00059F0E0933001AEDF8EE980937A0083E038
:1017D00083BF889582E083BF20E030E0A901E0E08C
:1017E0001FC08EE980937A0083E083BF889582E0F2
:1017F00083BF6091780070917900260F371F411DDB
:10180000511DE43061F480913201803041F084E078
:101810002030380720F417FD02C01068CACFEF5FF0
:1018200080912F01E817E8F2609133017091340143
:1018300017FF04C0609131017091320180E090E0A7
:101840000E94A6382FEF33E040E050E00E94E838D5
:10185000B901CA0120912F0130E040E050E00E9420
:10186000E838C9011F910895EF92FF920F931F93DB
:10187000CF93DF93F82EE92EDCDCC5E64F9B05C045
:10188000CF2DDE2D05E510E019C081E057DFC150F6
:10189000A9F7F6CF82E052DF000F4F9B0F5F0F7367
:1018A0000F3379F4111103C0CF2DDE2D14E01F5F2B
:1018B000163990F4A8951C161D0644F0D7FFEACF00
:1018C0000BC00111F7CF1123A9F306C02A97209767
:1018D000A9F7CFEFDFEFF2CF812FCDB7DEB7E6E08C
:1018E0000C94AC39CF93A9DAC82F80914205882394
:1018F000D1F0813051F4C33041F46FE086E082DAF8
:101900008BE2E6DB6FE086E07DDA80E49FE1ACDF2E
:10191000C33041F480914205813021F460E086E0DB
:1019200071DA0CDC93DACF91089588E493E00E9499
:10193000143A382F89E493E00E94143A2091370139
:10194000230F30913801381F20931A0130931B0167
:1019500083E0283E380720F0C901885E934002C02A
:1019600080E090E062E370E00E94C138683008F0E7
:1019700067E0E6E5F2E0E60FF11DE60FF11D4591A7
:1019800055912591359162E3681B421B530B649F6F
:10199000C001659F900D1124499662E370E00E949A
:1019A000C138620F731F70937605609375058AE4E2
:1019B00093E00E94143A992787FD90956091370132
:1019C00070913801860F971F9093320180933101F7
:1019D00090937205809371050895CF93DF9324E16E
:1019E00030E0B9010E94C138DC01E8E6F2E0E60F20
:1019F000F71FE60FF71FC591D591459155914C1BE7
:101A00004A9FC0011124B9010E94C1386C0F7D1F8B
:101A1000CB01DF91CF9108951895189510921E0172
:101A200010921C0110926C051092520510921D012B
:101A300010923E05109273051092570510925805AA
:101A4000109259051092870582E0809388051092C4
:101A50000201109286051092850510927B05109266
:101A60007C0510927D0510927E0581EF80938A059A
:101A70000895A1E0B0E0EFE3FDE00C94923917B8CF
:101A800018B8E82FF0E0E15CFE4F949195B9262F4D
:101A9000281BE20FF11D27FDFA95E491E92BE4B92B
:101AA000698384DE8C016981862F80DE2091330179
:101AB0003091340136952795A90143505109B80159
:101AC000625E7F4F4617570778F4255E3F4F021737
:101AD000130750F4BC01625E7F4F4617570720F48E
:101AE00041E08217930708F040E014B8842F219654
:101AF000E4E00C94AE39CF9361E080E0BADFC82F08
:101B000062E080E0B6DFC80F62E081E0B2DF8C0FF8
:101B1000CF910895A3E1B0E0E0E9FDE00C948439B1
:101B2000B82E10921E01807FA9F4E5DF833009F002
:101B3000B6C39FD984E592E04ADB76D98FE3C8DA51
:101B400080ED97E091DE8B30C8F493D980E091E08E
:101B50003EDBA5C306E910E08CD989EB91E037DBC9
:101B6000CADF833021F41F5F143010F007C010E08B
:101B700060DB88E2E3DD015079F763C055D90E944C
:101B8000F61D8CEB90E023DB60E082E293E00E94A4
:101B9000213A60E083E293E00E94213A60E081E232
:101BA00093E00E94213A60E082E00E94ED226C0105
:101BB0009A83898361E082E00E94ED227C019C830C
:101BC0008B8360E081E00E94ED228C019E838D83F7
:101BD00023E040E26EEFC6013EDD23E040E26EEF1F
:101BE000C70139DD23E044E06EEFC80134DD2AE5AA
:101BF000C216D10424F024E130E03A8329836981BC
:101C000082E293E00E94213A8AE5E816F10424F08A
:101C100024E130E03C832B836B8183E293E00E94DC
:101C2000213A0A35110524F024E130E03E832D836A
:101C30006D8181E293E00E94213A82E08093420527
:101C400051DE9B2D9F709F87913009F04DC001E0C0
:101C500010E058EB252E52ED352E57E4452E512C31
:101C600062E0A62E78E0972EECE06E2EF4ECCF2EFC
:101C7000F6E3DF2EE12CF12C39C0839423E0281504
:101C800058F187DA83DA84E523DAC8011EDB43DA08
:101C9000E1E0BE1230C08FEE90E099DA64E080910E
:101CA000370190913801E2DCBFD88AEE90E08FDAFC
:101CB000809175059091760508DB8EEB80932F015E
:101CC00017B818B814B815B888EE93E0CDDDF4E075
:101CD000BF1699F28B3088F288EE93E0C5DD0F5F76
:101CE0001F4F0830110511F418E71DC1812CB02ECB
:101CF000B0E27B2EC6CFF2E0BF1241C0209133018B
:101D000030913401A8E5BBE10E948138A70196011A
:101D10000E940A3981E085B985E084B980E0288B8A
:101D2000398B4A8B5B8B36DD288939894A895B89F7
:101D3000821B930B9A83898381E184B980E0288B8D
:101D4000398B4A8B5B8B26DD288939894A895B89E7
:101D5000821B930B9C838B8384E085B984E184B9D7
:101D600081E0288B398B4A8B5B8B14DD288939897C
:101D7000821B930B9E838D8384ED90E0B7C093E02C
:101D8000B91229C0A5B8EAE0E4B980E003DD2091EA
:101D90003301309134013695279538872F83821B84
:101DA000930B9A838983F2E2F4B980E0F3DC2F810C
:101DB0003885821B930B9C838B8395B828E224B9CA
:101DC00081E0E8DC2F813885821B930B9E838D8315
:101DD00086EC90E08BC084E0B81207C084E492E007
:101DE000F6D989DE811158C287C095E0B91213C0B7
:101DF00015B8A4B880E0CEDC9A83898394B881E0DA
:101E0000C9DC9C838B8374B882E0C4DC9E838D83A1
:101E100086EE90E06BC0E6E0BE1227C0A4B8A5B87D
:101E200080E0B8DC2091330130913401821B930BA8
:101E30009A83898394B895B881E0ACDC2091330112
:101E400030913401821B930B9C838B8374B875B8DB
:101E500082E0A0DC2091330130913401821B930B8E
:101E60009E838D8382EE90E041C0F7E0BF1240C0B8
:101E70002091330130913401A8E5BBE10E94813803
:101E8000A20191010E94E838A5B883E084B980E0FE
:101E9000288B398B4A8B5B8B7DDC288939894A8971
:101EA0005B89821B930B9A83898395B864B881E020
:101EB000288B398B4A8B5B8B6DDC288939894A8961
:101EC0005B89821B930B9C838B8375B890E394B9D9
:101ED00082E0288B398B4A8B5B8B5CDC28893989C3
:101EE000821B930B9E838D8380EC90E070D904C09D
:101EF000E1E0BE1609F4E4CE0E94140789819A81BC
:101F0000D9D909D98B819C81D5D905D98D819E815B
:101F1000D1D9D6CE3ED984E492E059D98AD984E683
:101F20000DDC115019F0E7DD8111F4CF0E94390763
:101F300085EB90E04CD923E044E06FEF80913501D0
:101F40009091360188DB0E9414078EEA90E03FD919
:101F500023E044E06FEF80913C0590913D057BDBF1
:101F600082E080934205BEDC10921E010E94390778
:101F70008AEA90E02CD960E082E00E94A01A80906A
:101F80007F0590908005A0908105B09082059C8689
:101F90008B8661E082E00E94A01AC0907F05D090FD
:101FA0008005E0908105F0908205DE86CD8660E0B8
:101FB00081E00E94A01A00917F05109180051E8388
:101FC0000D8362E080E00E94A01A80917F059091CD
:101FD00080059C838B8362E081E00E94A01A80913F
:101FE0007F05909180059A87898761E080E00E9453
:101FF000A01A80917F05909180059A838983EF854F
:10200000E13021F020913B05223021F4029698879F
:102010008F8304C098878F8310923B05C4015ED9DB
:10202000C6015CD9B801882777FD8095982F03E019
:1020300026E444EF21DA6E01FFE0CF0ED11CFE0151
:102040003196819191910A97853B9105E8F4EC15C1
:10205000FD05B9F7A1E4EA2EA3E0FA2E8E010F5F89
:102060001F4FF80160810E5F1F4F6E5EC7010E9417
:10207000213AFFEFEF1AFF0A0C151D0591F70E9498
:10208000140780EB91E0A3D882E0809342052ADC1C
:102090000E944F2F2F85213029F080913B058230FF
:1020A00009F0E2C0E0E4BE2E10E0FAE0CF2ED12C21
:1020B000E12CF12CB3DC0E94390780E02AD886E5B8
:1020C00091E085D882E025D88FE190E080D8109209
:1020D0001E0160E082E00E94A01A009189056091D3
:1020E0007705709178058091790590917A05073F81
:1020F00044F4A70196010E94E8380F5FB901CA01B4
:10210000F6CF0093890560937705709378058093E7
:10211000790590937A05073F09F08FC0DC01CB0168
:1021200080569109A109B10980399545A105B105EC
:1021300008F083C060918B0570918C05CB018B56A4
:102140009F4F8B32914008F078C01F5F153008F424
:1021500075C088E493E00E942F3A0E94390788E115
:1021600090E035D880918B0590918C05A3D8DDDB6C
:1021700018B881E087B980E284B982E017DB853D39
:102180009340DCF714B8109232011092310182E0D2
:102190000DDB8C0180917105909172059093320155
:1021A0008093310182E002DB7C01EE0CFF1C109277
:1021B00032011092310182E0F9DAC0907105D090BD
:1021C0007205D0923201C0923101080F191F0E1909
:1021D0001F090E94140781E190E00E94E7088AE449
:1021E00093E00E94143A73E0B72EB80E9601D8011E
:1021F0000E9490389701442737FD4095542F0E9444
:102200000A39B20E6B2D8AE493E00E94213A8B2D9D
:10221000992787FD90954ED888DB82E08093420510
:1022200061DB10923B0581E493E00E94143A682F31
:1022300084E493E00E94213A17C010E00E94140742
:1022400060917705709178058091790590917A0574
:1022500004E026E4409189050FD90E94190988E21B
:102260006DDABA9409F026CF89E180932F010E949C
:102270005A320E94390780E091E00E94E7080E94EC
:1022800014078BE392E00E94E70810921E0182E09F
:102290008093420527DB03C052E0852E2DCE639646
:1022A000E2E10C94A03980913B0581110DC081E4DD
:1022B00093E00E94143A61E0680F84E493E00E9486
:1022C000213A81E080933B050895CF92DF92FF92FF
:1022D0000F931F93CF93DF931F92CDB7DEB7E82FF5
:1022E000F0E0EE5BFE4FE491E8B9E7B915B8E62FF0
:1022F000F0E0E15CFE4FE491E4B908E813E1FE2E62
:10230000FF0C862F698346DA6C01F4B86981801767
:10231000910710F48C01F5CF0097E1F00E941A07A5
:1023200086E391E00E94E708D60120EA36E841E022
:1023300050E00E94963828E937EB40E050E00E94D8
:10234000E838DA01C90122E041E467EF84D917B81F
:1023500018B814B80F90DF91CF911F910F91FF9093
:10236000DF90CF9008950F931F93CF93DF9385E075
:102370001DDA85E017DAEC018C01000F111F000F48
:10238000111F0A561F4F10923901043883E01807B5
:1023900050F484EA91E00E94E7080E949E0881E0E0
:1023A0008093390127C083EB91E00E94E70862E047
:1023B000C8015CD90E948B08CA3F86E0D807A0F408
:1023C000C333D64070F48FEA92E00E94E7080E947F
:1023D0009E080E9419098DECB1D95E988AECAED99D
:1023E00009C086EB92E002C080EB91E00E94E70812
:1023F0000E949E08DF91CF911F910F910895A5E152
:10240000B0E0E5E0F2E10C948439982E862E442E5B
:10241000A895E62FF0E0E15CFE4F54903396E490EF
:10242000E42FF0E0E15CFE4F6490E82FF0E0E15C27
:10243000FE4FF4903396749065B8262D25292D8390
:1024400024B977B878B8862FADD95C0154B8882DF7
:10245000A9D91C0114B85CD915B83D8134B9882DAF
:10246000A1D98A159B05F0F4805E9E4FA816B90687
:1024700008F4BBC4E7B818B8F5B88F2D862984B91D
:10248000A0903301B0903401892D8CD9A81AB90AD3
:10249000F4B82090330130903401892D83D9281A63
:1024A000390A07C09501205E3E4F8217930708F452
:1024B0009CC42091520580916C0590E0820F911D83
:1024C00002974CF0213009F090C490914F05809113
:1024D000690598138AC4162D110F44E7A416B10498
:1024E00008F49CC0C501880F991F44962816390628
:1024F00008F094C077B878B8812F852984B9882DE1
:102500004DD96C01842D52D95C0115B9882D46D95D
:102510009601295A3D4F1F2918B8E7B814B915B9C3
:1025200028173907A8F5842D39D988349F4028F019
:1025300085E080931E0182E204C085E080931E0145
:1025400084E280931D01D0924805C0924705AC14E7
:10255000BD0440F4C6018A199B0990934E058093EF
:102560004D0504C010924E0510924D059601A0E154
:10257000B7E20E948138209118013091190140E0A2
:1025800050E00E94E83830934A052093490525C45D
:10259000892D04D98C01842D09D96C01F5B8892DB8
:1025A000FDD8895A9D4F8017910708F01EC478B84E
:1025B00077B8842DF3D8813D934028F485E080934B
:1025C0001E0182E304C085E080931E0184E38093B2
:1025D0001D010C151D0538F4C01AD10AD0926805EA
:1025E000C092670504C0109268051092670520919B
:1025F000330130913401201B310BA0E1B7E20E947E
:10260000813820911F013091200140E050E00E946C
:10261000E8383093640520936305ACC118B8E7B877
:10262000F5B80F2D062904B9892DBCD89C838B835E
:10263000C0903301D0903401842DB8D89A83898317
:102640000A9768F514B881E079D8812F8F2984B969
:10265000892DA8D89C838B8380913301909134017C
:10266000AB81BC818A1B9B0B9D8B8C8B842D9ED850
:102670009A83898380911F01909120019C0140E001
:1026800050E060E871EA83E09CE10E94E838AC89A0
:10269000BD890E949638E981FA819F0112C0960196
:1026A0004B815C81241B350B3D8B2C8B69817A819E
:1026B000261B370BA4E6B0E00E948138A981BA81BD
:1026C0009D0140E050E00E94E83829873A874B8717
:1026D0005C8714B815B878B877B881E02FD8B9EB13
:1026E0002B16B7E03B0608F080C3ED81E4B9882DD6
:1026F00059D88F359D4008F443C114B881E01ED8E5
:102700002D8124B981E01AD8312F35293F8734B97A
:10271000882D48D86C01842D49D89E878D87892DB6
:1027200045D898878F834D855E85413D574008F495
:10273000AEC084E080931E018DE080931D013601C0
:102740002C143D0410F462187308E0901801F09006
:10275000190100E010E060E871EA83E09CE1A80163
:1027600097010E94E838D3010E949638AD85BE8556
:102770009D0140E050E00E94E83880916C0588237C
:1027800069F080915D0590915E05A0915F05B09123
:10279000600582179307A407B50708F520935D0528
:1027A00030935E0540935F05509360059601A0E16C
:1027B000B7E20E948138A80197010E94E83830935F
:1027C0006405209363058F819885ED85FE858E1BBA
:1027D0009F0B909362058093610521E001C020E08A
:1027E00080915D0590915E05A0915F05B0916005B7
:1027F00049855A856B857C8584179507A607B70799
:1028000038F540935D0550935E0560935F057093C6
:1028100060058B819C8169817A81861B970B9093DF
:102820006205809361052C893D89A0E1B7E20E9491
:10283000813820911F013091200140E050E00E943A
:10284000E838205F384D309364052093630503C05A
:10285000222309F48EC39101A0E1B7E20E948138DE
:10286000A80197010E94E83830936605209365051A
:102870009501A0E1B7E20E948138A80197010E946A
:10288000E838309368052093670521E072C371E64C
:102890002716310408F074C081EDC81687E0D80609
:1028A00008F46EC085E080931E0182E180931D01D3
:1028B000C60186509F4FAF81B8858A179B0720F4C9
:1028C00083E180931D011CC0EF81F885CE16DF06E1
:1028D00098F4A0911801B09119019F012C193D099C
:1028E0000E948138960140E050E00E94E838309321
:1028F00062052093610504C0109262051092610583
:10290000FE2DF770EF2E842D806480937C007BE099
:10291000F72E01E010E0CC24CA94E3E0DE2EA89567
:1029200061E0862D2CD52F8524B986B18E21E9F35F
:1029300054B880917A00806480937A0080917A0004
:1029400086FDFCCF8091780090917900A601481B0C
:10295000590B040F151FFA9411F7C801880F991F1E
:10296000880F991F69E070E00E94C1387093680574
:102970006093670580916C058F5F80936C0585CFB0
:102980005D8154B965B8882D0E94D20B9A838983E2
:10299000842D0E94D60B9E838D83409133015091EC
:1029A0003401481B590B4A30510560F514B881E0D9
:1029B0000E949E0B812F852984B915B9882D0E940C
:1029C000D20B9A838983842D0E94D60B9E838D839C
:1029D00080911801909119019C0140E050E060E85D
:1029E00071EA83E09CE10E94E838A981BA810E94E3
:1029F00096382091330130913401AD81BE812A1B7C
:102A00003B0B09C029813A81241B350BA4E6B0E0B9
:102A10000E9481389A0140E050E00E94E8382987FE
:102A20003A874B875C87E7B818B804B905B9892D90
:102A30000E94D20B98878F83842D0E94D60B9C8393
:102A40008B83882D0E94D60B6C012F813885203313
:102A5000314108F0C8C1F5B8892D0E94D20BAC01F4
:102A6000F4B8892D4A8B5B8B0E94D20B9C0115B860
:102A700081E0288B398B0E949E0BF5B8892D0E942E
:102A8000D20B288939894A895B892034364008F07D
:102A900059C08133914108F455C08F8198858A5679
:102AA0009F4F4817590708F04DC086E080931E01DC
:102AB000809152058F5F809352058B819C818C1988
:102AC0009D0990934805809347052F8038842C18E2
:102AD0003D0830924E0520924D0514B815B8E8B85F
:102AE00081E00E949E0BF4B8892D0E94D20B853F95
:102AF000910508F04CC204B9842D0E94D20B813D8F
:102B0000934008F444C2892D0E94D60B8D3D92401B
:102B100008F43DC2F4B8892D0E94D20B8D3D92403D
:102B200008F435C2F5B881E00E949E0B15B8892DD6
:102B30000E94D20B853F910508F029C287E080935F
:102B40001E0125C204B905B981E00E949E0BD12E59
:102B5000DF28D4B8D5B8892D0E94D20BAC010091E2
:102B6000330110913401081B190B842D4A8B5B8BA8
:102B70000E94D60B9E878D872091330130913401BE
:102B8000281B390B3C832B83882D0E94D60B9887FA
:102B90008F834A895B896B817C816E3F794008F421
:102BA000B1C084E080931E018CE080931D01380148
:102BB0002016310610F46218730880911F0190915D
:102BC00020016C01E12CF12C60E871EA83E09CE1CA
:102BD000A70196010E94E838D3010E949638AB8184
:102BE000BC819D0140E050E00E94E8388091520590
:102BF000882369F08091430590914405A091450593
:102C0000B091460582179307A407B50708F52093EE
:102C100043053093440540934505509346058D8503
:102C20009E85EF81F8858E1B9F0B909348058093BE
:102C300047059801A0E1B7E20E948138A7019601FB
:102C40000E94E83830934A052093490521E001C0ED
:102C500020E08091430590914405A0914505B091F5
:102C6000460549855A856B857C8584179507A60797
:102C7000B70730F5409343055093440560934505ED
:102C8000709346058D819E8169817A81861B970BA1
:102C900090934805809347059B01A0E1B7E20E940D
:102CA0008138209118013091190140E050E00E94D4
:102CB000E838205F384D30934A052093490503C01A
:102CC000222309F465C19101A0E1B7E20E94813895
:102CD000209118013091190140E050E00E94E8383D
:102CE00030934C0520934B059501A0E1B7E20E947B
:102CF0008138A70196010E94E83830934E05209351
:102D00004D0545C171E62716310408F06CC0093441
:102D10008DE0180708F467C085E080931E0182E00B
:102D200080931D018F81988586509F4F841795074A
:102D300020F483E080931D011EC0AF81B885A417E5
:102D4000B507A8F4A0911F01B09120019A01EF816D
:102D5000F8852E1B3F0B0E948138980140E050E01F
:102D60000E94E838309348052093470504C010922C
:102D7000480510924705072D0770842D80648093C5
:102D80007C001BE0AA24A394B12CA89560E0862DBA
:102D9000F6D2D4B8D5B886B18023E9F7F4B88091DB
:102DA0007A00806480937A0080917A0086FDFCCF5F
:102DB0008091780090917900A80EB91E115029F7E2
:102DC000C501880F991F880F991F69E070E00E9464
:102DD000C13870934E0560934D05809152058F5F09
:102DE00080935205D4C017B818B814B815B817B8DE
:102DF000F7EC2F16F1E03F0608F4B0C018B818EC55
:102E0000072D0E2907B981E00E949E0BE7B8892D96
:102E10000E94D60B429710F01150A1F7452C440C9C
:102E20003F2C330C34B835B861E0862DA8D2892DFB
:102E30000E94D20B8C0144B815B877B878B860E01E
:102E4000862D9DD2A0903301B0903401882D0E9430
:102E5000D20B6C0154B8892D0E94D20B9A838983BE
:102E6000882D0E94D60B29813A81281B390B3A8381
:102E7000298318B8E7B8F4B8F5B861E0862D7FD299
:102E8000892D0E94D20B7C01882D0E94D60BE81A56
:102E9000F90A49815A814E155F0540F434B835B8B6
:102EA000892D0E94D20BFA82E98215C085010C1986
:102EB0001D0944B815B877B878B860E0862D5FD2A0
:102EC000E0903301F0903401882D0E94D20BB701BD
:102ED000681B790BCB0129813A812759310929389F
:102EE0003141E0F529813A8182179307B8F5C8018D
:102EF00033E0969587953A95E1F7893C910510F076
:102F000088EC90E0800F911F49815A8184179507C2
:102F100028F5CA0124E0969587952A95E1F7801750
:102F20009107E0F480911E01833018F483E08093D0
:102F30001E0180911C01E82FF0E0DF01A357BA4F7A
:102F40009C9216968C92EE0FFF1FE756FA4F29813E
:102F50003A81318320838F5F80931C01682D892DF6
:102F600025D017B818B814B815B86596E2E10C94D6
:102F7000A03980916C058F5F80936C05222389F3C3
:102F80004092690580926A0590926B05EACF21E034
:102F9000809152058F5F80935205222311F3409256
:102FA0004F059092500580925105DBCFA0E0B0E034
:102FB000ECEDF7E10C948639982E862EA895E62F35
:102FC000F0E0E15CFE4F549033962491E82FF0E05E
:102FD000E15CFE4FE4903396F49030916C05809163
:102FE000520590E0830F911D892B09F0C3C1A8956C
:102FF0008091220190912301880F991F880F991FBA
:103000009093340180933301809171059091720502
:10301000880F991F880F991F909332018093310177
:103020008EEB80932F0118B827B9E4B8E5B858E1C2
:10303000D52EC0E0D0E0882D0E94D20B782E692ECC
:10304000892D0E94D60B8C018C1B9D0B97FF03C012
:1030500091958195910903972CF0A895DA94D1F177
:10306000E801E9CFEE0C15B8E4B8892D0E94D20B27
:103070008135910578F5E5B8892D0E94D20BEC01D8
:10308000F7B8F8B815B854B888E1482EC12CD12C3F
:10309000892D0E94D20BB82EA92E882D0E94D60B06
:1030A0007C019C012C193D0937FF03C03195219506
:1030B00031092330310514F5550C54B8882D0E9480
:1030C000D20B6C01003C94E41907E8F4C53881E0A8
:1030D000D807E8F080912201909123019093340168
:1030E0008093330180917105909172059093320124
:1030F0008093310189E180932F013CC1A8954A94C6
:1031000049F36701C5CFC03B9DE4D90718F784EAAE
:10311000E81682E0F80608F063C098E9C916D10401
:10312000C8F200913301109134019E01A8E9B7EB78
:103130000E94813898012C1B3D0B40E050E00E941A
:10314000E83829013A0198012C193D09A8E9B7EBA3
:103150000E948138860120E030E0A90198010E9498
:10316000E838C837DF4070F4C301B201B2E0660F3F
:10317000771F881F991FBA95D1F7620F731F841F9D
:10318000951F12C098E7C9169FE0D906A0F4CA019E
:10319000B901A2E0660F771F881F991FAA95D1F782
:1031A000640D751D861D971D25E030E040E050E060
:1031B0000E94E83808C0240D351D461D571D569540
:1031C000479537952795A4E6B0E00E9496386B01A5
:1031D0007C018CEAC80E8DE0D81EE11CF11C73C086
:1031E000272D362D0217130708F49801CB2DDA2D61
:1031F000CE15DF0508F4E70159012017310708F45F
:103200005801A0911F01B0912001C501821B930BB1
:103210009C010E94813820913301309134012A1998
:103220003B0940E050E00E94E83829013A018E0154
:10323000EC16FD0608F48701A0911801B091190160
:103240009E01201B310B0E9481386801E12CF12C7A
:10325000A70196010E94E83898E7A9169FE0B906F1
:1032600070F4C301B201E2E0660F771F881F991F57
:10327000EA95D1F7620F731F841F951F11C008379D
:103280008FE01807B0F4CA01B90152E0660F771F4A
:10329000881F991F5A95D1F7640D751D861D971DBE
:1032A00025E030E040E050E00E94E83869017A0112
:1032B0000AC069017A01C40CD51CE61CF71CF694FF
:1032C000E794D794C79410911E01143008F002CFF0
:1032D0009A94980C892D90E0EC01C95ADA4F288114
:1032E000880F991F880F991FFC01EA55FA4F222376
:1032F000D1F14080518062807380A701960124192A
:1033000035094609570957FF07C050954095309534
:1033100021953F4F4F4F5F4FAAE0B0E00E94963893
:10332000A30192012C593F4F4F4F5F4F2C0D3D1D74
:103330004E1D5F1D0E94E838232B242B252B09F0FE
:10334000C9CE133019F081E080931E0182E088839A
:1033500080917305E82FF0E0E65AFA4F90828F5F74
:1033600080937305B7CEC082D182E282F38281E07E
:103370008883B0CECDB7DEB7E0E10C94A239CF930D
:10338000C82FC09595B160FF02C0982B01C09C2347
:1033900095B994B1982B94B982E00E949E0B84B1A8
:1033A0008C2384B985B18C2385B9CF910895A0E091
:1033B000B0E0EDEDF9E10C948D398AE0D82E9FE371
:1033C000B92E29E0C22E17B818B815B8B4B880E0E5
:1033D0000E94D20B8C0181E00E94D60BEC0182E0AE
:1033E0000E94D60B20911E01293079F417B814B829
:1033F0001093060100930501D0930801C0930701C3
:1034000090930A018093090156C00430110540F4DD
:10341000C430D10558F48430910540F321E00AC04E
:1034200021E0083E134018F020E001C021E0C83E32
:10343000D34008F42260883E934008F4246027B902
:10344000C0E0D0E0A89580E00E94CA0B7C0181E03A
:103450000E94D60B8C0182E00E94D60B24E1E2167A
:1034600025E0F20608F4389A043135E0130708F431
:10347000399A843125E0920708F43A9A36E0E31647
:10348000F10428F40630110510F4069738F021965F
:10349000C43F81E0D807B1F6C0921E0100E010E001
:1034A0000C171D0729F00E948D0B0F5F1F4FF8CFDF
:1034B000DA9409F088CFCDB7DEB7E9E00C94A939EA
:1034C000CF92DF92EF92FF92CF93209177053091C8
:1034D00078054091790550917A05C09189058AE077
:1034E000C82ED12CE12CF12C8C2FCF5F213A96E8FD
:1034F000390791E04907510538F0CA01B901A70120
:1035000096010E94E838F0CF80938905A09133019D
:10351000B09134010E94963828E833E140E050E051
:103520000E94E83820937705309378054093790519
:1035300050937A05CF91FF90EF90DF90CF90089550
:10354000A4E0B0E0E6EAFAE10C948A39982E862EDF
:103550008FEF860F992D990F990D890F8093540540
:10356000E92DF0E0E15CFE4F1491862F90E0FC0124
:10357000E15CFE4FF490FC01EE5BFE4F0491809104
:103580001E01813009F4A7C240911C0183E995E036
:1035900069E975E0DC012A2F281B2417A0F42D917E
:1035A00028110EC09D0127503109F90120812911F0
:1035B00007C0FB01208131812C3D354008F48BC2CE
:1035C0006E5F7F4FE8CF109284051092830581EFE4
:1035D00080938905109277051092780510927905ED
:1035E00010927A05E4DE18B807B9F4B8F5B8892D59
:1035F0000E94D60B7C01882D0E94D60BE81AF90A8E
:1036000014B81092560510925505C12CD12C20915A
:10361000550530915605243F314050F515B914B980
:103620000E94870B14B815B80E948E0BA895892D9F
:103630000E94D60B6C01CE18DF0880915505909141
:1036400056058E37910528F02BE4C216D1040CF4F0
:103650003EC25DE2C51651E0D50684F48091550561
:103660009091560501969093560580935505CFCFBE
:10367000EDE2CE16E1E0DE060CF429C220915505FC
:1036800030915605232B21F0C60100E010E006C062
:10369000F5E1CF16F5E0DF06BCF385C020915505B6
:1036A000309156052017310758F00E94880B892D5C
:1036B0000E94D60B8E199F09A8950F5F1F4FEECF62
:1036C0008601081B190B1016110694F4093C11050C
:1036D0000CF0FDC128EE33E0D8010E94903896012D
:1036E000442737FD4095542F0E94E838790102C0E5
:1036F000E12CF12CA0905505B09056052FEFA21AA1
:10370000B20AC501A0E0B0E080937F0590938005E8
:10371000A0938105B0938205C601800F911F27D227
:103720009C01D5010E94813860937F0570938005CC
:103730008093810590938205609377057093780557
:103740008093790590937A0587EF80938905B8DE99
:1037500020917705309178054091790550917A054F
:1037600084E293E029833A834B835C830E94143A7A
:10377000A8EEB3E0A81BB10987FDB39529813A8172
:103780004B815C810E94A03824E630E040E050E0AC
:103790000E94E838209377053093780540937905A7
:1037A00050937A0552C103DE15B887E087B918B87F
:1037B000F12EFF0CF4B880E480937B0084E580BF99
:1037C000892D806480937C0086E180937A000E943A
:1037D000910B109256051092550510928000109290
:1037E00085001092840087E286BB81E280936F009F
:1037F00081E080937405F5B890911E01809381005B
:10380000953059F481E090E0092C01C0880F0A94AA
:10381000EAF78095877087B901C007B9F89483B734
:10382000817F83BF80917405882389F083B781608D
:1038300083BF7894889583B78E7F83BFF894A895CB
:1038400080915505909156058034964059F77894AB
:1038500010928100E0908600F090870010926F0037
:1038600086E980937A0014B815B8892D0E94D60B8A
:103870002091370130913801821B930B0C96909365
:103880008C0580938B05809155059091560580326B
:10389000934008F01CC18091550590915605909376
:1038A000820580938105F0928005E0927F0584EF88
:1038B0008093890580915505909156058234910534
:1038C000C8F060917F05709180058091810590918D
:1038D000820524E630E040E050E00E94E838209382
:1038E0007F0530938005409381055093820586EFD4
:1038F00080938905A0917505B091760520917F058B
:103900003091800540918105509182050E94963842
:1039100020E233E040E050E00E94E83820937F0549
:10392000309380054093810550938205209377055D
:10393000309378054093790550937A05C1DD8091E5
:103940008905843F09F071C0C0907705D090780553
:10395000E0907905F0907A05F0EACF16FFE0DF06F7
:10396000E104F104C0F4A70196012C543F4F4F4FDE
:103970005F4F60EA7FE080E090E00E94E8382C0D25
:103980003D1D4E1D5F1D20937705309378054093B4
:10399000790550937A05C0907705D0907805E0902E
:1039A0007905F0907A05C114D10421E0E206F10412
:1039B00028F4D092B705C092B60506C081E090E029
:1039C0009093B7058093B6058091540590E08F5B86
:1039D0009C4F0E94143A482F50E060E070E04C1574
:1039E0005D056E057F0568F4C41AD50AE60AF70A74
:1039F000C0927705D0927805E0927905F0927A0529
:103A000014C084E1C80ED11CE11CF11CC416D506FB
:103A1000E606F70610F40E945311109277051092F3
:103A200078051092790510927A0514B9809177057E
:103A300090917805A0917905B0917A054997A105F3
:103A4000B10508F444C0E12CF12C80911C018823BD
:103A500021F080911E018530D1F588E080931E0110
:103A60002091890580918A058217BCF028132FC008
:103A700040917705509178056091790570917A05AC
:103A800080917B0590917C05A0917D05B0917E058C
:103A900084179507A607B707D0F480917705909112
:103AA0007805A0917905B0917A0580937B05909374
:103AB0007C05A0937D05B0937E0520938A05F09246
:103AC0008605E0928505809287059092880517B853
:103AD00018B814B815B82496ECE00C94A6391F92C7
:103AE0000F920FB60F9211248F939F93B59904C034
:103AF00080917405811109C0B59B10C0809186002A
:103B0000909187008A3F910548F4809155059091E6
:103B10005605019690935605809355059F918F9178
:103B20000F900FBE0F901F9018951F920F920FB617
:103B30000F9211248F939F9310927405B09B10C025
:103B400080918600909187008A3F910548F480918A
:103B5000550590915605019690935605809355050D
:103B60009F918F910F900FBE0F901F9018950F92FD
:103B700021E08C32920710F48CE291E08C5291405B
:103B800069E170E00E94C13899E16B3210F0982F22
:103B90006BE2981BE6ECF2E0E60FF11DE60FF11D7B
:103BA0009F93CF010E94143A482F3196CF010E9473
:103BB000143A582F3196CF010E94143A282F31968B
:103BC000CF010E94143A382F6F91421B530B649F10
:103BD000C001659F900D11240C9669E170E00E9470
:103BE000C138620F731FCB010F900895A0E0B0E0C1
:103BF000ECEFFDE10C948A3988E893E1909323017E
:103C00008093220190933401809333018EEB809353
:103C10002F0118B880E187B90E94960B17B884E08D
:103C20000E94D20BAC018B5C9840833F9140A0F482
:103C300081E080933E052091330130913401AFEB58
:103C4000B9E00E9481389A0140E050E00E94E838D3
:103C5000309323012093220180912201909123012E
:103C600090933401809333018EE00E94D60B8EE056
:103C70000E94D20B90933801809337010E94950CDB
:103C800096DB18B8C1E0C7B985E185B9C4B980E051
:103C90000E94D20B7C0112E017B984E0982E94B8F0
:103CA00081E00E94D20BE80EF91E97B890E1892EB0
:103CB00084B882E00E94D20BE80EF91E15B8C8B98C
:103CC000C7B9C4B9C0913301D091340180E00E94DA
:103CD000D20B5C0118B917B994B800913301109157
:103CE000340181E00E94D20B6C0198B897B884B877
:103CF000809033019090340182E00E94D20BC00F7B
:103D0000D11FC80DD91DCA19DB09CC19DD09C81B83
:103D1000D90B17B818B814B88091330190913401B9
:103D20004C01880C991C880E991E8E189F088C1ABD
:103D30009D0AA12CB12C9701A0E9BAE10E9481381B
:103D4000A50194010E94E83869017A0130933D058C
:103D500020933C059E01A0E9BAE10E948138A501AB
:103D600094010E94E83830933601209335012057A2
:103D7000354E3093200120931F0180E7C81A85EE4D
:103D8000D80AD0921901C092180189E180932F01BD
:103D9000CDB7DEB7ECE00C94A639FF920F931F93DA
:103DA000CF93DF93C82FD62FF42E0E94890883E18A
:103DB00091E00E94E7080E941909E1D16D2F8C2F34
:103DC0000E94CC30C1E00091BA051091BB05209152
:103DD000BC053091BD05011511052105310509F01E
:103DE000C0E08091020187FD02C0C11104C08FE0D4
:103DF00091E00E94E7088D2F0E948908C11106C03A
:103E00000E948B0880915A050E94CE09FF2049F03C
:103E100080913F058D3028F490E08B5B9C4F0E9491
:103E2000E70880E00E94C408C1111BC06091BA0578
:103E30007091BB058091BC059091BD0503E028E41D
:103E400047EF0E943C0A82E291E00E94E70886E583
:103E500093E00E941C3A23E046E464EF0E942B0B9F
:103E60001AC080915A050E94CE09809102018E3FAE
:103E700094F48AE391E00E94E70860910B0170914D
:103E80000C0180910D0190910E0103E028E4409116
:103E900002010E943C0A8091B2059091B305A09165
:103EA000B405B091B505892B8A2B8B2BF1F080E0FE
:103EB0000E94C4086091B2057091B3058091B40569
:103EC0009091B50504E028E440E00E943C0A8DE1B1
:103ED00091E00E94E70823E040E26FEF8091B8058F
:103EE0009091B9050E942B0B07C080E00E94A308A7
:103EF00080914205811102C00E949E08CDB7DEB7B5
:103F0000E5E00C94AD390F931F93CF93DF93082F07
:103F10000E940F07809187050E94890886E591E03D
:103F20000E94E708FAD4609187058091880555D3EF
:103F3000909384058093830511E08A3F9F4F08F09A
:103F400010E0C0918505D0918605112321F084E110
:103F500091E00E94E708809188050E94890800236B
:103F600059F090913F058DE0891B0E948D0884E7F0
:103F700090E00E94E70802C00E949E080E94140779
:103F800060917B0570917C0580917D0590917E0507
:103F900004E026E440918A050E943C0A112369F05E
:103FA00085E491E00E94E70822E044E06EEF809112
:103FB0008305909184050E942B0B0E949E080E940D
:103FC0001707CD2B69F08EE391E00E94E70822E00D
:103FD00045E26FEF80918505909186050E942B0B3D
:103FE0000E949E08DF91CF911F910F9108958F70CD
:103FF00021F40E941A070C94B31108958F3021F414
:1040000090913901913011F08F5F089580E008950B
:10401000CF938FE790E00E94102BC0E00E940E0D1E
:1040200060E082E00E94D61762E080E00E94D6172E
:104030000E940F0780917305882329F041E062E018
:1040400080E0ABDE12C08FE790E00E94E7088FE4CB
:1040500093E00E94E7080E9414078FE30E9468081B
:1040600080E00E94A3080E949E088C2FC0DF88EE8B
:1040700093E00E94340C811105C08C2FBFDFC82F44
:104080008A3F60F20E943907CF9108950F931F93E2
:10409000CF93DF93C0E0D8E012EF0DE00E940E0D49
:1040A00060E082E04DDAD0931E0180918905843F63
:1040B000E1F4409177055091780560917905709110
:1040C0007A05443651056105710578F440E060E0F9
:1040D00082E00E945E2E609377057093780580934E
:1040E000790590937A051093890580918905823F1F
:1040F000ACF080938A0540917705509178056091E6
:10410000790570917A0540937B0550937C05609307
:104110007D0570937E0581E0F6DE1CC00E940F07CE
:1041200088E790E00E94E70880913F05902F981B58
:10413000892F0E948D0884E790E00E94E7080E9482
:1041400014078FE30E9468080E949E080E941707C8
:104150000E949E088C2F4BDF88EE93E00E94340C67
:10416000811106C08C2F4ADFC82F8A3F08F496CFF2
:104170000E943907DF91CF911F910F910895A3E11C
:10418000B0E0E5ECF0E20C94843982E08093020127
:1041900080911E01813009F01CC28091730581302D
:1041A00009F017C220905A0524E0229EF001112444
:1041B000EA55FA4F80819181A281B381893032E53D
:1041C0009307A105B10508F004C29B8B8A8B312CA3
:1041D00061E0822D631528F00E94C409B82EA92E33
:1041E00003C00E94C4095C01EA2DF0E0EE5BFE4FC3
:1041F00074908B2D90E0FC01E15CFE4FE49115B8CA
:1042000018B82A893B89203F3105A0F430FC12C040
:10421000009118011091190100591A4121E030E074
:104220000B2C02C0220F331F0A94E2F7C901872921
:1042300087B906C0E4B977B8009118011091190147
:1042400044E1642E8B2D0E94CE0B4C018A2D0E94DE
:10425000D60B34E08316910410F4049710F06A949E
:1042600089F760E460937B0084E580BF8B2D8064D8
:1042700080937C0096E190937A00E12CF12C1092CF
:104280008000109285001092840087E286BB0E9415
:10429000910B232D2170298B30FC05C081E8809380
:1042A000810078B808C078B80E949A0B80E286BB7B
:1042B00081E88093810046B345FF12C018B8109280
:1042C000810080E286BB80918600909187006C011E
:1042D00020918400309185008217930768F013C005
:1042E00040FFE9CF31E036BBA895C70101967C01BC
:1042F0008035910501F7E2CF40FF05C061E066BB64
:104300008FEFE81AF80A86E980937A0034E1732E79
:104310008B2D0E94CE0B4C018A2D0E94D60B24E0DF
:104320008216910410F4049710F07A9489F7809023
:104330003C0590903D058A899B89880E991E800EC8
:10434000911E20911A0130911B0100399AE1190741
:10435000B0F461EEC616D104E104F10438F4C601EC
:1043600065E070E00E94C138645101C069E12852E3
:104370003109261B310967FD339586E009C0C40168
:1043800060EB76E30E94C13887E0860F285D3F4FDF
:1043900090E0A0E0B0E08C159D05AE05BF0528F4C7
:1043A000C81AD90AEA0AFB0A03C0C12CD12C76012B
:1043B0008989882329F092E2C90ED11CE11CF11CE5
:1043C00060E5E616F10418F0C12CD12C76018BE0E3
:1043D000C816D104E104F10428F091E0C91AD1080B
:1043E000E108F1084091330150913401A12CB12C26
:1043F000A8EEB3E00E9481382B013C019801DA015C
:104400000E948138A50194010E94E838442755276D
:10441000C301B2010E94E838C9010E94ED0CFC0101
:10442000A5019401C701B6010E94A6384B015C01A9
:10443000BF0180E090E023E0660F771F881F991F7F
:104440002A95D1F76B5F7F4F8F4F9F4F2AE030E067
:1044500040E050E00E94E838C501B4010E94E8380D
:10446000832D90E0E1E0F0E0EC0FFD1F64E0369E6C
:10447000E00DF11D11242083318342835383698928
:10448000611117C06CE0C616D104E104F10488F094
:10449000FC013196EE0FFF1FEE0FFF1F81E090E051
:1044A0008C0F9D1FE80FF91F2083318342835383B4
:1044B0003394A895339493E0931508F089CE18B8F7
:1044C00084E00E949E0B21E04D815E816F817885A2
:1044D00089819A81AB81BC8184179507A607B707AC
:1044E00008F020E04D855E856F85788989859A85FD
:1044F000AB85BC8584179507A607B70710F032E097
:1045000001C033E0E22FF0E0EE0FFF1FEE0FFF1FC0
:1045100081E090E08C0F9D1FE80FF91FDC0194E013
:10452000399FA00DB11D11244D915D916D917C912C
:1045300080819181A281B381481759076A077B075F
:1045400008F0322FE1E0F0E0EC0FFD1F24E0329F95
:10455000E00DF11D112480819181A281B3818093AE
:104560000B0190930C01A0930D01B0930E0130FD4F
:1045700009C02A893B89203F310520F48BEF8093C5
:10458000020117C02CEF20930201BC01CD016B5F2B
:104590007F4F8F4F9F4F2AE030E040E050E00E9475
:1045A000E83820930B0130930C0140930D01509398
:1045B0000E0180910B0190910C01A0910D01B09121
:1045C0000E01892B8A2B8B2B11F41092020117B844
:1045D00014B86396E2E10C94A039AEE1B0E0E3EFE9
:1045E000F2E20C948439662EB82E860F89832091CE
:1045F0001E01283059F520917B0530917C054091B2
:104600007D0550917E0557FD15C010918A0509C0A2
:10461000CA01B9012AE0312D412D512D0E94E838FF
:104620001F5F173FACF391F4243160E0360741057A
:10463000510518F48FEF9FEF3DC1173F39F480E02B
:1046400028178DE738074105410510F020E03DE7C8
:104650002C8B3D8B26EDA22EE2E4F1E0E60DF11D60
:10466000859180608E87E2E4F1E0EB0DF11D85918C
:1046700080608F87EFE3F1E0E60DF11D7590EFE3C9
:10468000F1E0EB0DF11DC59090EC692AB92A81E0AB
:10469000E82EF12C012D112D8E831F82188619868C
:1046A0001A861B861C861D86188E198E1B8E1A8EE6
:1046B0000E94D71980E088B960927C000E94920B1A
:1046C0003F8537B975B874B852E05A95F1F70000D4
:1046D000000014B815B8DD243E8537B975B874B834
:1046E00060927C00A895A0927A0080917A0086FD65
:1046F000FCCF2090780030907900B0927C004C2D57
:10470000DDD02091780030917900288B398B3F855E
:1047100037B9C5B8C4B8A895B0927C00A0927A0009
:1047200080917A0086FDFCCF6091780070917900CD
:1047300060927C00472DC2D0409178005091790062
:1047400014B8CB01820D931DE80EF91E011D111D39
:10475000EA82FB820C831D8388899989840F951FC7
:104760002E813F8168857985280F391F611D711D54
:104770002E833F836887798722E32417150650F03C
:1047800075B874B80E949C0B14B815B8888D8395C1
:10479000888F07C0483E73E0570718F08A8D8395CD
:1047A0008A8F888999892817190660F03E8537B95C
:1047B000C5B8C4B80E949C0B14B815B8898D8395F0
:1047C000898F07C0883E73E0970718F08B8D83951B
:1047D0008B8FD3945D2D5F3F09F07ECF40903C05D9
:1047E00050903D05440C551C9201E4E0240D351D0C
:1047F000EA95E1F72901570168016E807F8088847E
:10480000998420911E012830C1F46C897D89812D05
:10481000912D65507040804090409B01AC010E94FA
:10482000A6389B01AC0160E779E786E190E00E9441
:10483000E838621A730A840A950AA614B704C804F1
:10484000D90428F46A187B088C089D0803C06624E4
:1048500077244301B20180E090E09301A4010E941B
:10486000A6389501A6010E94E83880E293E079819C
:10487000870F911D0E94143A682EC90160E170E013
:104880000E94C138260F371FC9016816190618F48F
:10489000861991090FC08C5E9F4F8615910540F4D3
:1048A0008C899D89843981E1980710F00E94531109
:1048B000812D912D6E96E2E10C94A0391092810029
:1048C0001092800010926F0010928B0010928A005C
:1048D00057E056BB5FEF509385005093840055E03E
:1048E00050937B0056EB50937A0051E05093810037
:1048F00058E25A95F1F7000045B944B955E05A9588
:10490000F1F7000014B815B81092810080917A0078
:1049100084FFFCCF80937A000895A4E0B0E0E3E93F
:10492000F4E20C948C398091850590918605892B51
:1049300009F0B2C0E0918705F0E0EE5BFE4F049114
:10494000E0918805F0E0E15CFE4F14910E94D719D8
:1049500018B815B807B914B9809188050E94D60B0C
:104960005C0100918A058CE0800F843008F094C0CF
:10497000015F80917B0590917C05A0917D05B091B0
:104980007E052AE0C22ED12CE12CF12CBC01CD01F8
:104990006B5F7F4F8F4F9F4FA70196010E94E838B2
:1049A0000F5F073019F0DA01C901F0CF293883E130
:1049B00038074105510508F06FC02530310508F46E
:1049C0006BC015B914B900E010E00217130768F4C2
:1049D00029833A834B835C830E94980B0E5F1F4FA1
:1049E0005C814B813A812981F0CF14B815B8A89524
:1049F00085E080932F018091880529833A834B833A
:104A00005C830E94D60B29813A814B815C81A81678
:104A1000B90620F47C01EA18FB0802C0E12CF12C55
:104A200000E010E00217130768F429833A834B83F0
:104A30005C830E94980B0F5F1F4F5C814B813A8112
:104A40002981F0CF809188050E94D60B29E120931F
:104A50002F01A895A816B90618F48A199B0902C057
:104A600080E090E08E159F0588F49701281B390B94
:104A700069F0A4EFB1E00E948138970140E050E076
:104A80000E94E83830938605209385050E94D71947
:104A900017B818B814B815B82496EAE00C94A839D9
:104AA000A5E0B0E0E6E5F5E20C9484398BE192E014
:104AB000B7D520EF2A8354980E948D0B14BC16BCE6
:104AC000109212011092130110921401109215010C
:104AD00031E035BB30936E001092800083E19AE79D
:104AE00090938B0080938A00E1E0F0E0F0938900DE
:104AF000E0938800109285001092840083B5816055
:104B000083BDF6E0F6BBF0936F00789424E0209329
:104B1000810012E319820E94860BA8954F9902C06A
:104B200031E0398385B5811127C015BC86B58093E6
:104B300012010E9417070E949E080E941A070E94F5
:104B40009E080E94C90886E60E9468080E94CC0858
:104B500060911201709113018091140190911501DF
:104B600047E00E94400B549880918100882339F0DF
:104B70008FE30E94680803C0115069F6D6CF1092E7
:104B8000810010926F002091120130911301409129
:104B9000140150911501DA01C9010197A109B10968
:104BA000893D9146A105B10508F029C1AAE0B0E010
:104BB0000E949638685F7F4F8F4F9F4F23E09695F6
:104BC0008795779567952A95D1F7660F771F70932C
:104BD0006E0560936D0554980E948D0B16BC109263
:104BE000120110921301109214011092150181E02C
:104BF00085BB80936E001092700510926F0594E053
:104C00009BBB809168008460809368007894809159
:104C10006D00806180936D001D820E94860BA895B7
:104C20004F9902C0E1E0E98380916D0084FF05C0E7
:104C3000FD81FF5FFD83FA3F81F715BC80916D0018
:104C40008F7E80936D00809168008B7F80936800D9
:104C500086B5809312010E94170784E50E946808B8
:104C60000E94CC088091120190911301A09114012F
:104C7000B091150120916D0530916E053C832B8319
:104C80001C012D019C01A20160E070E080E090E039
:104C900003E00E94BB3951016201E12CF12C00E0DC
:104CA00010E00E94D43959016A017B01E82F192FC5
:104CB00003E00E94BB390E2F0E94D43903E00E940A
:104CC000BB3951016201E12CF12C00E010E00E949F
:104CD000D43902E00E94BB3900E00E94D43901E0DF
:104CE0000E94BB3900E00E94D43903E00E94BB3926
:104CF000EB81FC815F01C12CD12C00E00E942039A6
:104D000039014A011B012C012B813C8120383105DE
:104D100030F007E023E745EFB301C40116C084E695
:104D2000A82EB12CC12CD12CE12CF12C00E010E0EC
:104D30009301C2010E942039E22FF42F07E023E7FC
:104D400047EF6E2F732F8F2F952F0E943C0A3D81C6
:104D50003A3F21F48FE30E94680851C09301A401F7
:104D6000B101C2012C393E4C43405105610571052A
:104D70008105910509F008F442C00E941A0786E6F1
:104D80000E9468080E94CC089301A401B101C201ED
:104D9000530164017101820121153A4C4A495B4378
:104DA000610571058105910589F080F020E030E012
:104DB0004AE85DE568E775E483E691E00E94203902
:104DC000E22FF42F07E028E44AEF0FC020E030E89C
:104DD00046EC54EA6EE77DE883E090E00E942039DB
:104DE000E22FF42F07E028E44CEF6E2F732F8F2F64
:104DF000952F0E943C0A8AE70E94680854981092F6
:104E00006E0080ED97E00E94340C2981820F29F416
:104E10003A8131503A8331114ECE2596E2E10C941D
:104E2000A0391F920F920FB60F9211248F939F9368
:104E3000AF93BF9378948091120190911301A09148
:104E40001401B09115019F5FAF4FBF4F80931201C6
:104E500090931301A0931401B0931501BF91AF91EA
:104E60009F918F910F900FBE0F901F9018951F92DA
:104E70000F920FB60F9211248F9386E085BD8F910C
:104E80000F900FBE0F901F9018951F920F920FB6A4
:104E90000F921124A8951092810015BC0F900FBE9F
:104EA0000F901F9018951F920F920FB60F9211241A
:104EB0002F933F938F939F9380916F0590917005EF
:104EC000892B11F481E085BD20916F05309170052B
:104ED00080916D0590916E052817390730F015BC4B
:104EE00080916D008F7E80936D0080916F05909111
:104EF000700501969093700580936F059F918F9137
:104F00003F912F910F900FBE0F901F9018958B30EF
:104F100008F08B50811103C085E292E031C08130EE
:104F200019F48BE192E02CC0823019F482EF91E009
:104F300027C0833019F487EE91E022C0843019F441
:104F40008AE890E01DC0853019F48FE790E018C022
:104F5000863019F488E790E013C0873019F486EDA5
:104F600091E00EC0883019F487EC91E009C08930D7
:104F700019F489E092E004C08A3021F48EEF91E0C8
:104F80000E94E7080C949E080F93CF938AE890E064
:104F900047D3C0E010921E0160E082E05DD38091B3
:104FA0001E018830C1F50E94140783E40E9468083E
:104FB0000E94CC0860917B0570917C0580917D05F5
:104FC00090917E0503E026E440918A050E943C0A08
:104FD0000E949E086091870580918805FEDA909373
:104FE0008405809383050E94170786E491E00E9460
:104FF000E70880918305909184058A3F2FEF9207FF
:1050000030F422E044E06EEF0E942B0B08C08FE3E7
:105010000E94680804C00E94C9080E9417070E94E5
:105020009E088C2F0E94F71F88EE93E00E94340C9C
:10503000811107C08C2F0E94FE1FC82F8A3F08F4E1
:10504000A9CFCF910F9108950895A5E0B0E0EBE2CC
:10505000F8E20C94843982EF91E0E2D280E180930F
:10506000800010926F0081E090E09093890080931F
:10507000880010928B0010928A0083E086BB109209
:10508000820088E08093810015B881E184B918B866
:1050900081E087B9229A89E080938100212C1B82CC
:1050A0002AE0298333243394812C912C5401839456
:1050B00011E1822D90E00A966EE170E00E94D538F1
:1050C000662E562E3B81631789F00E940F0782EFF0
:1050D00091E00E94E708712C751428F48EE20E947A
:1050E00068087394F9CF0E949E086B821231C8F051
:1050F000C701B601A50194010E94E8382B013C01CB
:10510000832D69810E94B538A92FB0E0A5019401D3
:105110000E9496386B017C01C40CD51CE61CF71C60
:105120000CC0832D69810E94B538A92FB0E0A5017C
:1051300094010E9496386B017C010E9414078981BA
:10514000381208C081E0123108F480E08A838111AE
:1051500006C001C01A82163120F48EE303C08CE32E
:1051600001C082E50E9468080E948B08412FC70198
:10517000B6010E94400BC701B6017E5E85489F4F75
:10518000A7019601220F331F441F551F0E94E838C4
:10519000CA014F3F510539F030F08DE08093810016
:1051A00080E094E01FC04034510530F08CE08093E3
:1051B000810080E091E016C04830510530F09BE05E
:1051C0009093810080E490E00DC0892B31F0EAE0FB
:1051D000E093810088E090E005C0F9E0F093810061
:1051E00081E090E02C01612C712CCA01B901A3016E
:1051F00092010E94E838C901019790938900809339
:1052000088008091880090918900892B31F421E0F9
:1052100030E030938900209388000E949E080E940D
:10522000170786E60E9468080E948B088091880014
:10523000909189009D838C8360E079E08DE390E01C
:10524000A30192010E94E838A4E6B0E00E949638DB
:10525000EC81FD8131969F0140E050E00E94E838EA
:1052600029013A01A4E6B0E0A70196010E94963810
:10527000461A570A680A790A05E228E44EEFC30184
:10528000B2010E943C0A8AE70E9468080E949E08B8
:105290008CED95E00E94340C882309F442C08639D5
:1052A00058F0109281001092800017B814B822981C
:1052B0002596E2E10C94A039813578F1FA81FF233B
:1052C000D9F01150C501B4012AE030E040E050E0CF
:1052D0000E94E83849015A01C701B6010E94E83826
:1052E000CA01B9012AE030E040E050E00E94E8380D
:1052F000362E2AE0298331C0163130F51F5F163172
:1053000011F435E13983AAE0B0E0A50194010E94CF
:1053100096384B015C01312C20C08B3008F033945F
:10532000212C832D90E0E9816E2F70E06F5F7F4F1D
:105330000E94D538382E822D0E94FE1F282EFFEEA7
:10534000F81708F0B6CEADCF2AE029833324339482
:10535000812C912C5401839411E1212CAACEA4E03C
:10536000B0E0E5EBF9E20C94883987EE91E058D192
:1053700083E28093800010926F008FEF90E0909313
:105380008B0080938A0083E086BB1092820015B860
:1053900081E184B918B881E087B9229A81E090E070
:1053A000909389008093880089E08093810010E0C9
:1053B00000E0A2E37A2E612CB4E6CB2ED12CE12CB6
:1053C000F12C88248A9483E0982EA12CB12C70169D
:1053D000E9F183E6871510F4ECE97E0E272D30E025
:1053E000AFEFB3E00E9481386E5C7F4F8F4F9F4FCD
:1053F000A70196010E94E83830938B0020938A0021
:1054000029833A834B835C830E941407A8EEB3E0A0
:1054100029813A814B815C810E94963861507E4F90
:105420008F4F9F4FA50194010E94E838DA01C9010E
:1054300025E045E26FEF0E942B0B0E949E08F8E2E8
:10544000F61518F48CE30E949E0B072D80E496E07D
:105450000E94340C682E82E8861558F417B8109212
:1054600081001092800014B822982496EEE00C94EB
:10547000A439E2E3E61518F4FAE07F0E03C06620D3
:1054800011F0739410E0812F0E94FE1F182F803FAF
:1054900008F49DCFE3CF0F931F93CF93DF9386ED57
:1054A00091E0BED084E293E00E94143A182F00E00D
:1054B0000E941407C12FDD27C7FDD09517FF0BC031
:1054C0008DE20E94680823E045E26FEF8827992764
:1054D0008C1B9D0B04C023E045E26FEFCE010E94C0
:1054E0002B0B0E949E0880E496E00E94340C8823D7
:1054F00031F0823888F48932C8F01F5F00E011353E
:1055000014F0155603C01C3E0CF41B59802F0E944A
:10551000FE1F082F803F60F2612F84E293E00E941B
:10552000213ADF91CF911F910F9108951150E6CF4D
:10553000813011F480E0B4CA823009F486CD833022
:1055400009F40DCF843009F41FCD853011F40C948B
:105550000820863021F40E9439070C9446208730B9
:1055600009F499CF883019F481E10C948A0D8930BF
:1055700009F4B1C18A3029F45E9880E090E00C947F
:10558000340C0895FF920F931F93CF93DF9380E322
:1055900092E046D0D0E0C0E01AE01C0FF12C01E010
:1055A0000F0D60E0802F880F0E94020781E0F81243
:1055B00004C08EE30E94680802C00E948B081B3062
:1055C00018F085EF810F01C0812FA1DC1F5F033030
:1055D00011F0F02EE4CF80E49FE10E94340C8111A1
:1055E000D0E090913901913009F4D0E0823340F05D
:1055F000CC2381F08C2F9CDF80E392E011D002C09D
:105600008111CF5FDF5FDE3628F4CB3008F4C4CFE2
:10561000CB50C2CF80E0CDB7DEB7E5E00C94AD391A
:10562000A2E0B0E0E6E1FBE20C94933989839A832F
:105630000E94390789819A810E94E70814E682E076
:105640000E949E0B4F9902C01150C9F70E94140787
:105650002296E3E00C94AF39A4E0B0E0E2E3FBE291
:105660000C948939882E762E862F90E0FC01EE5B13
:10567000FE4F0491E82DF0E0E15CFE4FB490FC0198
:10568000E15CFE4F149110928405109283051092F4
:105690007705109278051092790510927A0587EFB8
:1056A000809389050E94D71918B807B914B915B99C
:1056B000882D0E94D60B8C01872D0E94D60B081BCB
:1056C000190B14B8109256051092550520E030E0E1
:1056D0009CE2E92EFF24F3944AE0A42E54E6952E92
:1056E0008091550590915605843D904308F069C01E
:1056F000B5B88091550590915605892B89F06701C1
:10570000C21AD30A6091550570915605A29EC00138
:10571000A39E900D11240E94C138C616D70650F4DE
:10572000B4B80E94910B14B880915505909156051C
:10573000019628C080915505909156050B97C8F0A9
:105740006091550570915605929EC001939E900DF3
:1057500011240E94C1386C157D0558F4B4B80E941C
:10576000860B14B880915505909156058C599F4F22
:1057700009C0B4B80E948C0B14B880915505909163
:1057800056050A96909356058093550515B80E94C4
:10579000930BA895882D0E94D60B9C01201B310BE2
:1057A00080915505909156058B31964020F0253219
:1057B00031050CF488C02D3281E038070CF490CF0D
:1057C00005C02D32F1E03F070CF47DC080915505F6
:1057D00090915605019729F4253145E034070CF0E6
:1057E00072C00091550510915605000F111FA801B8
:1057F00060E070E040937F055093800560938105E1
:1058000070938205C90168E270E00E94D538C90131
:10581000860F971F0E94B71D9C01D8010E948138F6
:1058200060937F0570938005809381059093820536
:1058300060937705709378058093790590937A0546
:105840000E94601A20917705309178054091790582
:1058500050917A0584E293E029833A834B835C83F9
:105860000E94143AA8EEB3E0A81BB10987FDB395D6
:1058700029813A814B815C810E94A03820E137E286
:1058800040E050E00E94E838209377053093780597
:105890004093790550937A0588E080931E01209308
:1058A0007B0530937C0540937D0550937E05809168
:1058B000890580938A05109286051092850570925D
:1058C00087058092880517B818B814B815B82496BB
:1058D000EDE00C94A539A0E0B0E0E1E7FCE20C9427
:1058E0008F390E94390780E091E00E94E7080E940A
:1058F00014078CEB90E00E94E70882E293E00E949C
:10590000143A23E040E26EEF90E00E942B0B83E21A
:1059100093E00E94143A23E040E26EEF90E00E9490
:105920002B0B81E293E00E94143A23E044E06EEFF7
:1059300090E00E942B0B0E94170785EB90E00E94DD
:10594000E70823E044E06FEF809135019091360144
:105950000E942B0B0E941A078EEA90E00E94E70833
:1059600023E044E06FEF80913C0590913D050E945B
:105970002B0B88E99AE30E94340C0E9439078AEACB
:1059800090E00E94E70886E493E00E94143A90E0D9
:1059900042970E946E0987E493E00E94143A90E0D7
:1059A00042970E946E0983E493E00E94143A90E0CB
:1059B00023E046E464EF42970E942B0B0E941407F9
:1059C00083E00E948D0882E493E00E94143A90E004
:1059D00042970E946E0985E493E00E94143A90E099
:1059E00042970E946E0981E493E00E94143A90E08D
:1059F00023E046E464EF42970E942B0B0E941707B6
:105A000088E190E00E94E70888E493E00E941C3A55
:105A10000E945A090E941A0781E190E00E94E7085B
:105A20008AE493E00E94143A992787FD90950E949A
:105A30005A0960E086E00E940207F12CDF2CDD0CA1
:105A4000DF0CE12CDA94FE14D9F1CD2DCE0DD0E08F
:105A5000CC0FDD1FCE018D5C9C4F0E941C3A8C0147
:105A6000CE018B5D9C4F0E941C3AEC018091A505F4
:105A7000833038F088E99AE30E94340C0E94390799
:105A800003C080E00E94A30882EA90E00E94E70839
:105A90008F2D0E9489088AE30E9468088E2D0E943B
:105AA000890880E00E94A30823E040E26EEFC8016D
:105AB0000E942B0B23E046E462EFCE010E942B0BE9
:105AC000E39483E0E812BFCFF394F812B7CF88E9EC
:105AD0009AE30E94340CCDB7DEB7E7E00C94AB3903
