:10000000B2C60000C2C60000C0C60000BEC60000E6
:10001000BCC600000C948029B8C600000C94B10E38
:10002000B4C60000B2C600000C948F1F0C94642963
:100030000C9472290C94691FA8C60000A6C6000083
:100040000C943E29A2C60000A0C600009EC6000077
:100050009CC600000C94B20E98C6000096C6000024
:1000600094C6000092C60000E808EA08EE08F80806
:10007000F608F208F208F408BE00B700B000100855
:10008000407E01013E01013E01013E01017E4040F2
:1000900018000720080808F80000002060A03FA012
:1000A0006020020202FF0202021010101F00000076
:1000B000050842818989760508C2A19189860508CB
:1000C000000402FF0010100508F87838588809105D
:1000D00003081C3E7F0D080710FF818181F1E1C1FB
:1000E000FF4040404743410D080110FFFF11080346
:1000F00010F1E1C14743410E000820212112206088
:10010000E0E0E0FEFE0402010001037F7F21C2C4A3
:10011000C4C04094840007030102040E080210FECC
:10012000FE7F7F00000000110005202060E0E0E07D
:100130000201000103C2C4C4C0400703010204015C
:100140000410090A0C4E6F742063616C696272615D
:100150007465642120466F72FF63616C696272612D
:1001600074696F6E20636C616D70207468652033F4
:10017000FF70696E7320746F6765746865722061C3
:100180006E64207374617274207769746820746877
:1001900065FF6B65792E2041636B6E6F776C6564CC
:1001A0006765207468652073656C662D746573746B
:1001B000207769746820746865206B657920776999
:1001C0007468696EFF32732E20446973636F6E6EBC
:1001D0006563742070696E73206166746572207443
:1001E0006865FF6D657373616765202269736F6C65
:1001F000617465FF50726F626521222069732073FC
:10020000686F776E2E20536F667477617265206118
:100210006E6420646F63756D656E746174696F6E72
:100220002069732061742073766E3A2F2F206D69D8
:100230006B726F636F6E74726F6C6C65722E206E72
:1002400065742F7472616E736973746F7220746554
:10025000737465722000B903870358032E030703E4
:10026000E402C302A40288020000140029003E0038
:100270005300690080009700AE00C600DF00F80060
:1002800012012D01490165018201A001BE01DE01BB
:10029000FF012102440268028E02B502DE02090358
:1002A000350364039403C803FE0337047304B404E2
:1002B000F90443059305EA054906B3062907AE0785
:1002C0004808FF08DE0900000000000000000000F0
:1002D0000000000000001E2121211200807F00008C
:1002E000007E4A4A4A34000000000000FC40201012
:1002F00008040201000000010101010101010101E6
:10030000010101017F0488D0E0F0F8000000000046
:1003100000000000000000000000000000FC9494B9
:100320008400000102FC000000000000000000004A
:1003300000001E21212112E0C0804020100F00008B
:1003400000C020202040000000FC00009E9E04030E
:10035000030303020000002020232425252320205E
:10036000203F00007B7B2142840480C0000000000D
:1003700000000000000000000000FC9494840004D1
:100380000607070708F0000000000000000000005A
:10039000000000803F2121120C00000000FF00003F
:1003A00000F0084848C80000FE0000E7818181C1D4
:1003B000E1F18181810100202020212121202020C4
:1003C0003F0000F340404041434740407FC00000B1
:1003D0000000000000000000000000004894949419
:1003E0006400000000FF00000000000000000000AA
:1003F0000000000000003F2121120C0000FF00005F
:1004000000F0084848D0000000000000FEFE040490
:100410000404040404070008080809090908087FFF
:100420003E1C08087F7F20202020202020E00000A4
:1004300000000000000000000000000000004894E0
:100440009494640000FF0000000000000000000021
:1004500000FF003C0A090A3C00223129292600003D
:1004600082868E9EBEFEFEBEDEEFF6FAFEFEFAF23B
:10047000E2C28200000008080804027984A4A4688B
:1004800000FF00000000000000000000000000006D
:10049000000000000000000000FF0000F0282428F9
:1004A000F0001008FC000000000000000000000048
:1004B000003C0A090A3C00FF0000000000000000A8
:1004C00000000000000000000000040C1C3C7CFF49
:1004D0007C3C1C0C040000000000009EA1A9A99A0D
:1004E000804323130B0703FF0303030303030000ED
:1004F000000000000000000000788484844800FFB1
:10050000000000000000000000F00804E2110909EA
:10051000090909090909091121C2040810E00000AC
:100520000001020404070000000000804020108841
:100530004423100804030000000000000000000035
:1005400000FE0100FC0201000000000000000000AD
:100550000000000000000000007949497900000017
:1005600000000000000040F010101010F0400001EA
:1005700001010101010040FCF8F0E040FC400007EF
:1005800003010000070040FC40E0F0F8FC400007D9
:1005900000000103070040FCFC0000FCFC400007D9
:1005A000070000070700788482028284780006042E
:1005B00007000704060000FC000000F01000100F08
:1005C000020402070400080808080808F8400202AC
:1005D00002020202030040F80808080808080003A5
:1005E00002020202020240404040404040400000FF
:1005F000000000000000C000008000008000010238
:1006000002010202010200800000800000C002011D
:1006100002020102020100000000000000000000D0
:1006200000000000000000000000000000000000CA
:1006300000000000000000000000000000000000BA
:1006400000000000000000000000000000000000AA
:10065000000000000000000000000000000000009A
:100660000000000000000000F80402FE02000C067A
:10067000050404070C0002FE020002FE020004074B
:10068000040404170C0002FE02F002FE020004073C
:10069000040704170C000000E01008F808000C061E
:1006A000050404070C00804028F82840800001025F
:1006B000141F1402010008F8080008F808000407D5
:1006C000040404170C0008F808C008F80800040720
:1006D000040704170C00001018FCFC18100000019F
:1006E000010101010100001018FC181000000000B9
:1006F000000100000000000000FC000000000001FC
:100700000101010100004040404050E04000000075
:100710000000010000002070A82020202000000020
:10072000000000000000E0000000000000000101E7
:100730000101010101002070A82020A87020000004
:1007400000000000000000C0F0FCF0C0000000004D
:100750000000000000000C3CFCFCFC3C0C00000015
:100760000000000000000000000000000000000089
:10077000000000000000000000FE0000000000007B
:10078000000D0000000000160E0000160E00000014
:100790000000000000000010FC1010FC1000000120
:1007A000070101070100001824FE4488000000032F
:1007B000040F040300000C12924C201008000201E8
:1007C0000006090906008C5222528C40C00001022A
:1007D000040404010200000000160E0000000000E6
:1007E0000000000000000000F0080402000000000B
:1007F0000102040800000000020408F000000000EC
:100800000804020100004850E0FCE05048000201EA
:10081000000700010200404040F840404000000056
:1008200000030000000000000000000000000000C5
:1008300000160E00000040404040404040000000D4
:1008400000000000000000000000000000000000A8
:100850000006060000000000804020100800020191
:10086000000000000000F80402020204F800010287
:10087000040404020100000804FE02000000000459
:10088000040704040000080402824224180004063D
:1008900005040404060006020202122AC600010230
:1008A000040404020100C0A09E8080FC80000000BF
:1008B0000000040704003E120A0A0A12E6000102C0
:1008C000040404020100F84422121224C0000102B0
:1008D0000404040201000E02C262321A0E0000007B
:1008E00007000000000088542222225488000102E0
:1008F000040404020100384482824224F800000209
:1009000004040402010000000018180000000000A8
:10091000000606000000000000181800000000009B
:1009200000160E0000000040A010080402000000A5
:1009300000010204080000202020202020000001E7
:100940000101010101000002040810A0400000089C
:100950000402010000001804028242241800000072
:10096000000D00000000F804D252E204F800010279
:1009700005050405040200F0080402FE0200040755
:1009800005010507040002FE222222548800040704
:10099000040404020100F804020202048E000102B1
:1009A00004040402010002FE02020204F80004072B
:1009B00004040402010002FE222272020E00040757
:1009C00004040404070002FE222272020E0004073F
:1009D000040400000000F80402C24244DE000102E8
:1009E00004040201070002FE222022FE0200040786
:1009F000040004070400000202FE020200000004DA
:100A00000407040400000000000202FE02000003CC
:100A100004040403000002FE6290080402000407BC
:100A200004000106040002FE0200000000000407AA
:100A300004040404070002FE38E038FE0200040744
:100A400004000407040002FE1A6082FE020004078C
:100A5000040005070400F80402020204F800010281
:100A600004040402010002FE42424224180004076A
:100A7000040000000000F80402028204F8000102F1
:100A800004040405020402FE42C2422418000407C2
:100A90000400010604008814222222448E00010270
:100AA0000404040201000E0202FE02020E00000411
:100AB00004070404000002FE020002FE020000031C
:100AC00004040403000002FE820082FE0200000013
:100AD00003060300000002FE02F002FE0200000115
:100AE00007030701000002DE722072DE0200040725
:100AF000040004070400027EC280C27E02000000DF
:100B00000407040000000E824222120A06000704B5
:100B100004040404070000FE0202020000000007B3
:100B200004040400000008102040800000000000C1
:100B30000000000102000000020202FE00000000AE
:100B40000404040700001008040204081000000058
:100B50000000000000000000000000000000080885
:100B60000808080808000000000E16000000000039
:100B7000000000000000904828284890E000010292
:100B800004040402070002FE10080810E000040735
:100B9000020404020100E0100808081038000102F5
:100BA000040404020100E010080810FE0200010223
:100BB000040402070400E050484848506000010265
:100BC00004040402010020F82422020C000004079F
:100BD000040400000000E010080810F808000009F4
:100BE00012120907000002FE100808F000000407B6
:100BF000040004070400001016F6000000000004C2
:100C00000407040400000000101616F00000000C99
:100C10001010100F000002FEC0201008180004077A
:100C200004010204040000000202FE0000000000B3
:100C300004040704040008F808F008F000000407A2
:100C400000070007040008F8201008F0000004075F
:100C5000040004070400E01008080810E000010286
:100C600004040402010008F810080810E000101F36
:100C7000120404020100E010080810F80800010244
:100C80000404121F100008F82010080830000407A0
:100C90000400000000001028484848903800010275
:100CA0000404040201000808FE0808000000000017
:100CB00003040404020008F8080008F80800000310
:100CC00004040207040008F8880088F808000000FF
:100CD00003060300000008F808C008F80800000335
:100CE00006030603000008B8E040E0B80800040767
:100CF00000000007040008F8080008F808000009D0
:100D00001212110F0000180888482818080006055C
:100D100004040404060040B01C02020000000001AC
:100D2000070808000000000000FE000000000000AE
:100D3000001F00000000000002021CB04000000084
:100D40000808070100000C02020408080402000061
:100D5000000000000000C02010081020C0000101A9
:100D600001010101010011241FBECFEFD8E0DEBF59
:100D7000CDBF11E0A0E0B1E001C01D92A03DB107E0
:100D8000E1F70E9411370C94F13E3AC95D98559AEB
:100D900080FD599A80FF5998519A539A5A9867FD45
:100DA0005B9A67FF5B985A9A5A9866FD5B9A66FF52
:100DB0005B985A9A5A9865FD5B9A65FF5B985A9AB8
:100DC0005A9864FD5B9A64FF5B985A9A5A9863FD3F
:100DD0005B9A63FF5B985A9A5A9862FD5B9A62FF2E
:100DE0005B985A9A5A9861FD5B9A61FF5B985A9A90
:100DF0005A9860FD5B9A60FF5B985A9A5D9A5A9880
:100E00005B980895609350018093040186958093C8
:100E1000B701660F660F660F60930F01089580E2B9
:100E200084D560E082E0EECF80E27FD560E084E0B0
:100E3000E9CF80E27AD560E086E0E4CF809150018E
:100E4000809301018091B7018093030108958091FF
:100E5000030160910101880FD5CF682F80E096CF04
:100E60008DE063D58AE061C5FBDF1092B70160E0D9
:100E700080E0C8CFCF93DF938AE2EFDF60E081E0CC
:100E800085DF60E081E082DF60E081E07FDF60E8B5
:100E900081E07CDF8BE2E1DF60E081E077DF60E032
:100EA00081E074DF60E081E071DF60EA81E06EDFA5
:100EB0008CE2D3DFD0EAC0E060E081E067DF60E091
:100EC00081E064DFCF5FC038B9F7D150A1F7CCDF44
:100ED000DF91CF91089558985A985B985D98509AF1
:100EE000529A539A559A52D55D9A559A5998519A51
:100EF00084E153D5589A84E150D58AE04ED581E1FA
:100F0000ACDF84E04AD586E2A8DF64E081E03EDF22
:100F100081EBA3DF6EE081E039DF64E181E036DF61
:100F200080EC9BDF6EE081E031DF60E081E02EDF6E
:100F300081EC93DF65E081E029DF85EC8EDF68E3FB
:100F400081E024DF60E481E021DF8AE386DF65E081
:100F500081E01CDF86E381DF6CE181E017DF84EB59
:100F60007CDF60E081E012DF85DF89E276DF8AE006
:100F700014C50895582F28E030E090E841E080E063
:100F8000642F652309F0892B440F96952150310970
:100F900021153105A9F70895A3E0B0E0E2EDF7E0EF
:100FA0000C941D3E9B838A83F62E142FA02EB12C09
:100FB000C501860F911D813891050CF094C08E2DCE
:100FC00090E0AC01410F511D413A51050CF08BC02E
:100FD000EA94E10E322F3270532E21FF13C0019795
:100FE00033E0959587953A95E1F78A9DA0018B9D11
:100FF000500D9A9D500D11248A819B81840F951F5D
:101000009B838A839FE99E1510F49FE9E92E217046
:10101000222E3501E1E06E1A7108E11608F463C072
:10102000C12CD12C8A809B80860C971C37E0310F15
:1010300039834C2CC01608F045C0222021F0F40161
:10104000EC19FD0904C0EA81FB81EC0DFD1D349013
:10105000511003C0832D8EDF382E8BE2FEDE60E060
:1010600081E094DE612F81E091DE60E081E08EDE40
:10107000698181E08BDE8AE2F0DE60E081E086DE7D
:101080004F0C642D81E082DE60E081E07FDE642D24
:1010900081E07CDE8CE2E1DE88E0482E37FE05C090
:1010A0006FEF81E073DE6FEF04C060E081E06EDE21
:1010B00060E081E06BDE330C4A9481F7FFEFCF1ADA
:1010C000DF0AB7CF552039F08A819B818A199B09A5
:1010D0009B838A8306C0EA81FB81EA0DFB1DFB83AB
:1010E000EA83185F9ACF2396E2E10C94393EEF929F
:1010F0000F93282F8F7030E6839FC00111248A53ED
:101100009D4F322F307324FF02C028E001C028E435
:1011100020931001303218F01092000108C020E234
:1011200020930001209110012D5E2093100140E2D8
:10113000E42E08E120E040910001609110012CDFD5
:101140000F91EF900895EF920F93262FFC01649179
:1011500031964491FC0132960491FC013396E4905F
:1011600050910001450F50911001650F049614DF56
:101170000F91EF90089560E0E6CFEF920F93CF9339
:10118000C82F809150018F5F8093500140910401DE
:10119000440F440F440F20E1C29FC001112450E1CD
:1011A000E52E08E020E060910F018A599A4FF4DEA5
:1011B00080910F01885F80930F014C2F50E0FA015E
:1011C0003197E830F105D0F4EC5CFF4F0C94543EBD
:1011D0008EE305C08CE7A9D38CE311C08CE7A5D3BF
:1011E0008CE70DC082E50BC08DE209C085E707C022
:1011F0008FE49BD388E699D38DE601C08C2F95D3DD
:10120000CF910F91EF9008958F5CB7CF80E2B5CF6B
:10121000A1E0B0E0EEE0F9E00C942D3E18162CF4BD
:101220008983F4DF89818150F9CF2196E2E00C9423
:10123000493E9091500180E1891BEACFA1E0B0E0E6
:10124000E4E2F9E00C942D3E8983F3DF80E26DD374
:101250009091B7019F5F9093B70169819A3038F000
:1012600089E08093B70181E08093530102C010921E
:1012700053018091B701880FC5DD2196E2E00C94FF
:10128000493EDCDFCEC4F0DDD4DFEECDC8DDD1DFFA
:10129000C6CD8DE372CFCF93DF93EC018991882384
:1012A00011F06BDFFBCFDF91CF910895CF93DF93E8
:1012B000EC01FE018491982F9F7719F05EDF219653
:1012C000F8CFDF91CF910895CF93DF93EC01CE015A
:1012D0000E94B33E982F9F7719F04FDF2196F7CFEA
:1012E000DF91CF910895EF920F93FC010491319615
:1012F000E490029651DE0F91EF9008950F938BE8E2
:1013000091E0E2DF40919B014D3F64F460918901DF
:1013100070918A0180918B0190918C0103E026E409
:10132000E6D002C08FE329DF0F91089597FF09C02F
:101330008F939F938DE221DF9F918F91909581955F
:101340009F4F6CE271E04AE050E00E949F3EA3CFC5
:10135000EDDF01C0EBDF5ACFEF92FF920F931F93A7
:10136000182F062FF42E8DE691E0AEDFEE24E091EB
:101370005101F09152018685E81611F4812F09C0C0
:101380008485E81611F4802F04C08585E81611F4D1
:101390008F2DF3DEE3948E2D833049F71F910F914B
:1013A000FF90EF900895EF92FF920F931F93182FE5
:1013B000062FF42E80E065DF83E791E085DFEE24E1
:1013C0008E2D22DF66DFE0915101F091520186857A
:1013D000E81611F4812F09C08485E81611F4802FD6
:1013E00004C08585E81611F48F2DC7DE0FDFE39466
:1013F0008E2D833029F71F910F91FF90EF90089564
:10140000682F80E092E0662309F491E0623009F4ED
:1014100081E008950F93082FE8EBF1E0880F880F23
:10142000E80FF11D608171818281938164367105BD
:101430008105910570F42091020127FD0AC0802FDB
:10144000DFDF692F0E94F8246EEF23E044E021D112
:1014500004C04FEF04E024E04AD0D8DE0F91089595
:10146000863058F4EBEAF1E0E80FF11DE80FF11DCA
:101470008081918163E018D1C9CE08951F93182F00
:1014800080918401882319F0C1DE80E076DEC7DC1C
:1014900084E691E019DF812F82958F70E1DF812F43
:1014A0008F70DEDF1F910895CF93DF93809111013C
:1014B00082958F70CFE9D1E0C80FD11D8881A4DE5D
:1014C00082E391E001DF8E819FDE82E391E0FCDE2A
:1014D000CFE9D1E0809111018370C80FD11D8E81B9
:1014E00093DE80911101CADFDF91CF910895A0E0D2
:1014F000B0E0EDE7FAE00C941F3E142FC22F6B0111
:101500007C01F7FE0AC08DE238DEF094E094D094BE
:10151000C094C11CD11CE11CF11C033009F4A6C00D
:10152000043009F4AAC0053051F0063081F00730CC
:10153000B1F074E6872E912CA12CB12C17C060EA73
:10154000862E66E8962EAA24A394B12C0FC050E4F0
:10155000852E52E4952E5FE0A52EB12C07C040E801
:10156000842E46E9942E48E9A42EB12C3AE0432E6D
:10157000512C612C712CC814D904EA04FB0470F0BE
:10158000C701B6016B5F7F4F8F4F9F4FA301920141
:101590000E94813D69017A011F5FEDCF81E1810FDA
:1015A000DBEA8D9FA12C1124A69486E0811B8D9FE0
:1015B000D12D1124D6959D2F990F9D0FD82FD91B72
:1015C0002AE030E041E451E0C701B6010E947C3ED0
:1015D000E1E4F1E0DF010D900020E9F78D01015019
:1015E000110901541140B02EA80155272D2F30E0CC
:1015F0002C5F3F4F2417350714F4A394DD5F8A2D29
:1016000090E0895D9F4F0E94B33EA82EC02ECD1A58
:101610001C1434F08EE2B1DDCC2011F080E3ADDD9E
:10162000D11102C0CC24CA9421E4E22E21E0F22E92
:101630008701DD24C7FCD094802F8E198B1568F4A8
:10164000F80181918F0199DD9801215431402C15C9
:101650003D0591F78EE291DDEFCFAA2011F08A2DA2
:101660008CDDCC2389F08C2F88DD0EC098EE892E7E
:1016700093E0992EA12CB12C79CF80E1882E87E2BE
:10168000982EA12CB12C72CFCDB7DEB7E0E10C942F
:101690003B3E0F93362FBC0180E090E0022F242FB9
:1016A000432F25DF0F9108950F93062FBC0180E093
:1016B00090E026E54DEF1BDF0F910895E82FF0E055
:1016C000EE0FFF1FE858FF4F859194912091000184
:1016D000420F20911001620F20E005CECF93DF93DF
:1016E000C82FD62FE0915101F091520148E16EE1EF
:1016F0008685E4DFE0915101F09152014D2F6C2F6E
:101700008485DCDFE0915101F091520140E06EE10F
:101710008585D4DFDF91CF9108951F93CF93DF9319
:10172000A9DB80E3E4DC62E080E990E00CDD80E2AC
:10173000DEDC85EC90E01FDD60E085E063DB80E8C7
:1017400091E0C2DD68E085E05DDB88E791E0BCDD2B
:1017500088E99AE300D28EDB83E1C9DC83E0C7DC51
:101760008EEC90E008DD61E082E04CDB8EE405DD8C
:101770008DE203DD8AE991E0A7DD69E082E042DBEA
:1017800080E5FBDC8DE2F9DC8AE991E09DDD88E90A
:101790009AE3E1D16FDB81E3AADC81E2A8DC87E296
:1017A00091E0E9DC60E085E02DDB8EE4E6DC8DE2B3
:1017B000E4DC85E4E2DC84E991E086DD68E086E053
:1017C00021DB80E5DADC8DE2D8DC85E4D6DC84E957
:1017D00091E07ADD88E99AE3BED14CDB81E187DCD8
:1017E0008BE191E0C8DC81E082DC87EF90E0C3DC34
:1017F00060E081E007DB8EE4C0DC8DE2BEDC84E4E7
:10180000BCDC84E991E060DD68E082E0FBDA80E541
:10181000B4DC8DE2B2DC84E4B0DC84E991E054DD38
:1018200088E99AE398D126DB82E361DC82E25FDC1F
:101830008DEE90E0A0DC60E085E0E4DA8EE49DDCF3
:101840008DE29BDC85E499DC8FE991E03DDD68E089
:1018500086E0D8DA80E591DC8DE28FDC85E48DDCF2
:101860008FE991E031DD88E99AE375D103DB82E10C
:101870003EDC87EE90E07FDC82E039DC85ED90E0B5
:101880007ADC61E081E0BEDA8EE477DC8DE275DC43
:1018900084E473DC8FE991E017DD69E082E0B2DA7D
:1018A00080E56BDC8DE269DC84E467DC8FE991E044
:1018B0000BDD88E99AE34FD1DDDAD6DA83E191E0F6
:1018C00003DDADDA8EE091E0FFDCAEDA86E591E093
:1018D000FBDCAFDA82E391E0F7DC98DC8EE291E0AA
:1018E000F3DCC0E01AE08C2F8F7089F48C2F829586
:1018F0008F70612F0E944E3DD92F911104C088E94D
:101900009AE329D1B7DA60E08D2F880F7BDA80E285
:101910008C0F33DCCF5FCF3531F788E99AE31BD1E9
:10192000A9DADF91CF911F9108958F932F932AE029
:1019300080953B9A089410F4439802C0439A0000A3
:1019400020D027D086952A95B1F72F918F910895B1
:1019500003D002D001D000D000D003D002D001D0FB
:1019600000D000D003D002D001D000D000D0A89584
:1019700003D002D001D000D000D003D002D001D0DB
:1019800000D000D003D002D001D000D000D003D0CE
:1019900002D001D000D00000089590E0893C28F0EA
:1019A000885C48EC849FC0011124009709F40895D5
:1019B00020918100277019F0DADF0197F6CF81308E
:1019C000910519F002973EE303C037E180E090E013
:1019D0002091B200230F2093B30042E040937000A7
:1019E00027E023BF889526E023BF10927000A895BA
:1019F000DCCF8F9384E0D1DF07C08F9382E0CDDF0F
:101A000003C08F9381E0C9DF8F911F93182F10645B
:101A100010937C00E12FE07880913701E81759F0AE
:101A2000E0933701AEDF8EE980937A0083E083BFD5
:101A3000889582E083BF20E030E0A901E0E01FC08C
:101A40008EE980937A0083E083BF889582E083BF2C
:101A50006091780070917900260F371F411D511D4C
:101A6000E43061F480913901803041F084E020302D
:101A7000380720F417FD02C01068CACFEF5F8091CD
:101A80003601E817E8F260913A0170913B0117FFC7
:101A900004C0609138017091390180E090E00E94AB
:101AA0003F3D2FEF33E040E050E00E94813DB9011F
:101AB000CA012091360130E040E050E00E94813DB3
:101AC000C9011F91089589B183FB882780F949993D
:101AD000826090911C01943050F09EE09093180128
:101AE0008093190110921D0191E090931C01E091E7
:101AF0001C01AE2FB0E0A85EBE4F9C91981721F15B
:101B000081111AC0A3E0AE0FA37020911D01923085
:101B100041F4B0E0A85EBE4F9C91933069F42F5F12
:101B200009C0913049F4B0E0A85EBE4F9C9193305B
:101B300019F4215020931D01EF5FE370E0931C0125
:101B4000F0E0E85EFE4F808380911D0187FD819566
:101B500080931E010895A0E0B0E0E1EBFDE00C945D
:101B6000263ED82EC92E5398519806DF10921D019B
:101B7000E0911C01F0E03196E370FF27E85EFE4F34
:101B800080EF8083C5E6D9E19EDF4F9905C0F8DE7E
:101B9000D150D1F7C150B9F7CD2DDC2DF12C05E591
:101BA00010E0BB24B394D7FD36C082E3E82E8BDF70
:101BB000E7DEEA94E1F7000F4F9B0F5F0F730F33DF
:101BC00049F4111103C0CD2DDC2D14E01F5F16392F
:101BD00028F021C0011102C011111DC0A8951C16CA
:101BE0001D062CF42A97209711F4CFEFDFEF809198
:101BF0001E01882339F0F39480918501811102C080
:101C0000B092850184E18F1570F680911D018111DC
:101C100002C0F12CC8CF812FCDB7DEB7E9E00C941C
:101C2000423ECF930BD9C82F80915301882301F1F5
:101C3000813051F4C93041F46FE082E1E3D88BE2A6
:101C40009CDA6FE082E1DED880E49FE184DF8111DD
:101C500004C080911E018111F7CFC93041F48091F9
:101C60005301813021F460E082E1CCD8E2DAEFD890
:101C7000CF91089587E593E00E94B33E382F88E521
:101C800093E00E94B33E20913E01230F30913F012B
:101C9000381F209321013093220183E0283E38072A
:101CA00020F0C901885E934002C080E090E062E3CA
:101CB00070E00E945A3D683008F067E0E6E5F2E027
:101CC000E60FF11DE60FF11D4591559125913591D6
:101CD00062E3681B421B530B649FC001659F900D1C
:101CE0001124499662E370E00E945A3D620F731F0F
:101CF000709388016093870189E593E00E94B33E69
:101D0000992787FD909560913E0170913F01860F64
:101D1000971F9093390180933801909383018093AA
:101D200082010895CF93DF9324E130E0B9010E944E
:101D30005A3DDC01E8E6F2E0E60FF71FE60FF71F79
:101D4000C591D591459155914C1B4A9FC0011124D5
:101D5000B9010E945A3D6C0F7D1FCB01DF91CF91DD
:101D6000089518951895109225011092230110924C
:101D70007D01109263011092240110924F01109284
:101D80008401109268011092690110926A01109208
:101D9000990182E080939A011092020110929801B9
:101DA0001092970110928D0110928E0110928F0166
:101DB0001092900181EF80939C010895A1E0B0E022
:101DC000E4EEFEE00C942B3E98E097B998B9E82F2A
:101DD000F0E0E15CFE4F949195B9262F281BE20FAD
:101DE000F11D27FDFA95E491E92BE4B969830DDE35
:101DF0008C016981862F09DE20913A0130913B01E7
:101E000036952795A90143505109B801625E7F4F6D
:101E10004617570778F4255E3F4F0217130750F413
:101E2000BC01625E7F4F4617570720F441E08217DE
:101E3000930708F040E014B8842F2196E4E00C9456
:101E4000473ECF9361E080E0B9DFC82F62E080E0D9
:101E5000B5DFC80F62E081E0B1DF8C0FCF9108954C
:101E6000A3E1B0E0E6E3FFE00C941D3EB82E109233
:101E70002501807FC1F4E5DF833009F0C7C30E94EC
:101E80003A0783E692E020DA0E940F078FE375D9C4
:101E900080ED97E060DE8B30D0F40E943A0780E05E
:101EA00091E012DAB3C306E910E00E943A0789EB29
:101EB00091E00ADAC6DF833021F41F5F143010F09E
:101EC00006C010E088E269DD015079F762C00E9427
:101ED0000F078CEB90E0F8D960E081E393E00E947B
:101EE000C03E60E082E393E00E94C03E60E080E399
:101EF00093E00E94C03E60E082E00E94F8246C0102
:101F00009A83898361E082E00E94F8247C019C83AB
:101F10008B8360E081E00E94F8248C019E838D8396
:101F200023E040E26EEFC601B4DB23E040E26EEF57
:101F3000C701AFDB23E044E06EEFC801AADB2AE56E
:101F4000C216D10424F024E130E03A832983698168
:101F500081E393E00E94C03E8AE5E816F10424F094
:101F600024E130E03C832B836B8182E393E00E9489
:101F7000C03E0A35110524F024E130E03E832D8374
:101F80006D8180E393E00E94C03E82E08093530124
:101F900048DE9B2D9F709F87913009F050C001E073
:101FA00010E058EB252E52ED352E57E4452E512CDE
:101FB00062E0962E78E0A72EECE06E2EF4ECCF2EA9
:101FC000F6E3DF2EE12CF12C3CC0839423E02815AE
:101FD00070F15CD958D984E5D0D8C801B2D916D9E6
:101FE000E1E0BE1233C08FEE90E06ED90E94F01F88
:101FF00064E080913E0190913F0156DB0E940F0703
:102000008AEE90E061D9809187019091880199D9F9
:102010008EEB80933601A7B8A8B814B815B888EE2F
:1020200093E099DDF4E0BF1681F28B3070F288EE18
:1020300093E091DD0F5F1F4F0830110511F418E791
:102040001EC1812CB02EB0E27B2EC3CFF2E0BF12B6
:1020500041C020913A0130913B01A8E5BBE10E94CB
:102060001A3DA70196010E94A33D81E085B985E054
:1020700084B980E0288B398B4A8B5B8BBADC28894A
:1020800039894A895B89821B930B9A83898381E111
:1020900084B980E0288B398B4A8B5B8BAADC28893A
:1020A00039894A895B89821B930B9C838B8384E0EB
:1020B00085B984E184B981E0288B398B4A8B5B8BAD
:1020C00098DC28893989821B930B9E838D8384ED4C
:1020D00090E0B7C093E0B91229C095B8EAE0E4B93E
:1020E00080E087DC20913A0130913B0136952795BD
:1020F00038872F83821B930B9A838983F2E2F4B98A
:1021000080E077DC2F813885821B930B9C838B8347
:10211000A5B828E224B981E06CDC2F813885821BC8
:10212000930B9E838D8386EC90E08BC084E0B81285
:1021300007C083E592E0C8D884DE811164C287C0FD
:1021400095E0B91213C015B894B880E052DC9A83B8
:102150008983A4B881E04DDC9C838B8374B882E0D2
:1021600048DC9E838D8386EE90E06BC0E6E0BE1275
:1021700027C094B895B880E03CDC20913A013091BA
:102180003B01821B930B9A838983A4B8A5B881E095
:1021900030DC20913A0130913B01821B930B9C83F0
:1021A0008B8374B875B882E024DC20913A013091B9
:1021B0003B01821B930B9E838D8382EE90E041C096
:1021C000F7E0BF1240C020913A0130913B01A8E5F1
:1021D000BBE10E941A3DA20191010E94813D95B888
:1021E00083E084B980E0288B398B4A8B5B8B01DCE0
:1021F000288939894A895B89821B930B9A83898351
:10220000A5B864B881E0288B398B4A8B5B8BF1DBF6
:10221000288939894A895B89821B930B9C838B832C
:1022200075B890E394B982E0288B398B4A8B5B8B2D
:10223000E0DB28893989821B930B9E838D8380EC98
:1022400090E042D804C0E1E0BE1609F4E4CE0E945A
:102250000F0789819A816AD80E9406098B819C8127
:1022600065D80E9406098D819E8160D8D4CE0ED893
:1022700083E592E029D884E690DB115019F0E1DD86
:102280008111F5CF0E943A0785EB90E01DD823E03D
:1022900044E06FEF80913C0190913D01FAD90E949A
:1022A0000F078EEA90E010D823E044E06FEF8091B2
:1022B0004D0190914E01EDD982E080935301B1DC44
:1022C000109225010E943A078AEA90E00E94640970
:1022D00060E082E00E94961C8090910190909201B3
:1022E000A0909301B09094019C868B8661E082E07F
:1022F0000E94961CC0909101D0909201E0909301B1
:10230000F0909401DE86CD8660E081E00E94961C0C
:1023100000919101109192011E830D8362E080E093
:102320000E94961C80919101909192019C838B83D5
:1023300062E081E00E94961C80919101909192014F
:102340009A87898761E080E00E94961C80919101C4
:10235000909192019A838983EF85E13021F0209159
:102360004C01223021F4029698878F8304C098870D
:102370008F8310924C01C4010E94AA09C6010E94D9
:10238000AA09B801882777FD8095982F03E026E4F5
:1023900044EFADD86E01FFE0CF0ED11CFE013196A7
:1023A000819191910A97853B9105F0F4EC15FD051B
:1023B000B9F7A0E5EA2EA3E0FA2E8E010F5F1F4FBA
:1023C000F80160810E5F1F4F6E5EC7010E94C03E24
:1023D000FFEFEF1AFF0A0C151D0591F70E940F077A
:1023E00080EB91E00E94640982E08093530119DC44
:1023F0000E94C5332F85213029F080914C01823015
:1024000009F0E9C0E0E4BE2E10E0FAE0CF2ED12CB6
:10241000E12CF12CA8DC0E943A0780E00E9404091C
:1024200086E591E00E94640982E00E9404098FE140
:1024300090E00E9464091092250160E082E00E9411
:10244000961C00919B016091890170918A01809195
:102450008B0190918C01073F44F4A70196010E94E3
:10246000813D0F5FB901CA01F6CF00939B016093D4
:10247000890170938A0180938B0190938C01073FAF
:1024800009F093C0DC01CB0180569109A109B10983
:1024900080399545A105B10508F087C060919D017F
:1024A00070919E01CB018B569F4F8B32914008F06B
:1024B0007CC01F5F153008F479C087E593E00E9467
:1024C000CE3E0E943A0788E190E00E946409809124
:1024D0009D0190919E010E949609CCDB88E088B90D
:1024E00089E087B980E284B982E08FDA853D934044
:1024F000DCF714B8109239011092380182E085DAC5
:102500008C01809182019091830190933901809395
:10251000380182E07ADA7C01EE0CFF1C109239015E
:102520001092380182E071DAC0908201D09083016C
:10253000D0923901C0923801080F191F0E191F09D6
:102540000E940F0781E190E00E94640989E593E011
:102550000E94B33E73E0B72EB80E9601D8010E94D8
:10256000293D9701442737FD4095542F0E94A33DF4
:10257000B20E6B2D89E593E00E94C03E8B2D99270A
:1025800087FD90950E94960975DB82E08093530148
:1025900048DB10924C0180E593E00E94B33E682F27
:1025A00083E593E00E94C03E16C010E00E940F0732
:1025B0006091890170918A0180918B0190918C01C9
:1025C00004E026E440919B010E94770A88E2E5D965
:1025D000BA9409F01FCF89E1809336010E94CF366B
:1025E0000E943A0780E091E00E9464090E940F0770
:1025F0008AE492E00E9464091092250182E08093AF
:1026000053010FDB03C052E0852E21CE6396E2E139
:102610000C94393E80914C0181110DC080E593E00E
:102620000E94B33E61E0680F83E593E00E94C03EE4
:1026300081E080934C010895CF92DF92FF920F9337
:102640001F93CF93DF931F92CDB7DEB7E82FF0E053
:10265000EE5BFE4FE491E8B9E860E7B915B8E62F04
:10266000F0E0E15CFE4FE491E4B908E813E1FE2EEE
:10267000FF0C862F6983BDD96C01F4B8698180177E
:10268000910710F48C01F5CF0097F1F00E94190723
:1026900086E391E00E946409D60120EA36E841E031
:1026A00050E00E942F3D28E937EB40E050E00E94C7
:1026B000813DDA01C90122E041E467EF0E94490B44
:1026C00088E087B988B914B80F90DF91CF911F9136
:1026D0000F91FF90DF90CF9008950F931F93CF93AA
:1026E000DF9385E092D985E08CD9EC018C01000F55
:1026F000111F000F111F0A561F4F1092400104387E
:1027000083E0180750F484EA91E00E9464090E9473
:10271000190981E08093400126C083EB91E00E947B
:10272000640962E0C8010E94540B0E940609CA3F76
:1027300086E0D80790F4C333D64060F48EEB92E085
:102740000E9464090E9419098DEC27D95E988AECD1
:1027500024D909C085EC92E002C080EB91E00E9490
:1027600064090E941909DF91CF911F910F9108957B
:10277000AAE1B0E0EEEBF3E10C941D3EB82EA62EDC
:10278000842EA895E62FF0E0E15CFE4F549033963E
:1027900024912E87E42FF0E0E15CFE4F7490E82F47
:1027A000F0E0E15CFE4F949033964490342D386015
:1027B0003D872860622E75B8472D45294B8344B963
:1027C00037B948B8862F1DD998878F8354B88A2D7A
:1027D00018D91C0114B8CBD815B85B8154B98A2D0F
:1027E00010D9AF81B8858A179B0728F5805E9E4F68
:1027F000A817B90708F4E7C467B888E088B995B89E
:10280000892D872984B9E0913A01F0913B01F8873D
:10281000EF838B2DF6D82F813885281B390B38870D
:102820002F8394B820903A0130903B018B2DE9D84A
:10283000281A390A08C02F813885205E3E4F82173A
:10284000930708F4C0C42091630180917D0190E05A
:10285000820F911D02974CF0213009F0B4C4909181
:10286000600180917A019813AEC4172D110F4F812A
:1028700058854437510508F4A4C0CA01880F991F30
:1028800044962816390608F09CC05D8557B948B8AB
:10289000812F852984B98A2DB0D87C01882DB5D89F
:1028A0006C0115B98A2DA9D89701295A3D4F1929CC
:1028B00028173907D0F588E088B967B814B915B971
:1028C000882D9BD888349F4028F085E0809325018F
:1028D00082E204C085E08093250184E28093240194
:1028E000F0925901E0925801CE14DF0440F4C70180
:1028F0008C199D0990935F0180935E0104C0109232
:102900005F0110925E019701A0E1B7E20E941A3DBB
:1029100020911F013091200140E050E00E94813D54
:1029200030935B0120935A0145C488E088B967B8A9
:1029300014B915B98B2D61D88C01882D66D87C010E
:1029400095B88B2D5AD8895A9D4F8017910708F05A
:102950003AC448B8BD85B7B9882D4FD8813D93405A
:1029600028F485E08093250182E304C085E080930C
:10297000250184E3809324010E151F0538F4E01A25
:10298000F10AF0927901E092780104C01092790185
:102990001092780120913A0130913B01201B310BBC
:1029A000A0E1B7E20E941A3D209126013091270153
:1029B00040E050E00E94813D309375012093740106
:1029C000BEC188E088B967B895B8092D072904B950
:1029D0008B2D17D89A878987E0903A01F0903B01B8
:1029E000882D13D89E838D830A9798F514B881E0BB
:1029F0000E94CD0C812F892984B98B2D02D89A870A
:102A0000898720913A0130913B01281B390B3A8389
:102A10002983882D0E94050D9E838D838091260138
:102A2000909127019C0140E050E060E677EB87E45D
:102A300090E00E94813DA981BA810E942F3DAD8125
:102A4000BE819D0140E050E00E94813D69017A0114
:102A500012C0F70129853A85E21BF30BFA83E9835B
:102A6000CF014D815E81841B950BBA010E945A3DB6
:102A70006B01E12CF12C14B815B848B85D8557B935
:102A800081E00E94CD0C89EB281687E0380608F01B
:102A90009AC39B8194B98A2D0E94010D8F359D4068
:102AA00008F453C114B881E00E94CD0CBB81B4B9C5
:102AB00081E00E94CD0CE12FE529EA8BE4B98A2D53
:102AC0000E94010D9A8F898F882D0E94050D998B88
:102AD000888B8B2D0E94050D9C878B8728893989CF
:102AE000213D374008F4B3C084E0809325018DE098
:102AF00080932401898D9A8D2816390620F48C0143
:102B00000219130902C0098D1A8D40901F015090BF
:102B10002001612C712C60E677EB87E490E0A30143
:102B200092010E94813DD8010E942F3DA889B98958
:102B30008D0120E030E0A90198010E94813D809143
:102B40007D01882369F080916E0190916F01A091C1
:102B50007001B091710182179307A407B50710F5B2
:102B600020936E0130936F01409370015093710177
:102B7000298D3A8DA0E1B7E20E941A3DA30192018E
:102B80000E94813D30937501209374018B859C8553
:102B9000E889F9898E1B9F0B9093730180937201D2
:102BA00021E001C020E080916E0190916F01A09121
:102BB0007001B09171018C159D05AE05BF0538F50A
:102BC000C0926E01D0926F01E0927001F09271019B
:102BD00089859A852D813E81821B930B9093730189
:102BE0008093720129813A81A0E1B7E20E941A3DE7
:102BF000209126013091270140E050E00E94813D64
:102C0000205F384D309375012093740103C0222357
:102C100009F49BC39101A0E1B7E20E941A3DA30110
:102C200092010E94813D30937701209376012F819C
:102C30003885A0E1B7E20E941A3DA30192010E94EB
:102C4000813D309379012093780121E07EC331E604
:102C50002316310408F079C0498D5A8D413D87E033
:102C6000580708F472C085E08093250182E18093C3
:102C70002401CA0186509F4FAB85BC858A179B07EC
:102C800020F483E18093240120C0EB85FC85298D0D
:102C90003A8D2E173F07A8F4A0911F01B091200193
:102CA0009F01498D5A8D241B350B0E941A3D9A01B4
:102CB00040E050E00E94813D309373012093720107
:102CC00004C010927301109272015E855770D52E68
:102CD000882D806480937C00FBE0CF2E01E010E023
:102CE000EE24EA94A3E0FA2EA89561E0872D37D56B
:102CF0008A8984B986B18D21E9F354B880917A002C
:102D0000806480937A0080917A0086FDFCCF809168
:102D1000780090917900D701A81BB90B0A0F1B1FEF
:102D2000CA9411F7C801880F991F880F991F69E08D
:102D300070E00E945A3D7093790160937801809110
:102D40007D018F5F80937D0180CFBB81B4B975B861
:102D50008A2D0E94010D9A838983882D0E94050D7A
:102D60009E838D8360913A0170913B01681B790BC2
:102D70006A30710590F514B881E00E94CD0C812F66
:102D8000852984B915B98A2D0E94010D9A838983FA
:102D9000882D0E94050D9E838D8380911F01909147
:102DA00020019C0140E050E060E677EB87E490E092
:102DB0000E94813DA981BA810E942F3D20913A0154
:102DC00030913B01ED81FE812E1B3F0B40E050E036
:102DD0000E94813D69017A0109C089819A81861B1F
:102DE000970B0E945A3D6B01E12CF12C67B888E0EB
:102DF00088B904B905B98B2D0E94010D9A8789877E
:102E0000882D0E94050D9C838B838A2D0E94050DC1
:102E1000AC0129853A852034364008F0D1C195B8F7
:102E20008B2D4E8B5F8B0E94010DBC0194B88B2DB6
:102E30006C8B7D8B0E94010D9C0115B881E0288F61
:102E40003B8B0E94CD0C95B88B2D0E94010D288DD7
:102E50003B894E895F896C897D892034364008F032
:102E60005AC08133914108F456C089859A858A56A3
:102E70009F4F6817790708F04EC086E080932501C0
:102E8000809163018F5F809363018B819C81841BA0
:102E9000950B909359018093580129853A85241BFD
:102EA000350B30935F0120935E0114B815B8EE85A1
:102EB000E8B981E00E94CD0C94B88B2D0E94010DE1
:102EC000853F910508F04FC204B9882D0E94010D7D
:102ED000813D934008F447C28B2D0E94050D8D3D26
:102EE000924008F440C294B88B2D0E94010D8D3D94
:102EF000924008F438C295B881E00E94CD0C15B814
:102F00008B2D0E94010D853F910508F02CC287E0B2
:102F10008093250128C204B905B981E00E94CD0C37
:102F200019291B8314B94B8145B98B2D0E94010DC2
:102F30008C0180913A0190913B01801B910B998B00
:102F4000888B882D0E94050D9F878E87A0913A015E
:102F5000B0913B01A81BB90BBA87A9878A2D0E94A3
:102F6000050D9C878B87E985FA85EE3FF94008F4CB
:102F7000B2C084E0809325018CE0809324014889CD
:102F800059892416350620F48A010219130902C052
:102F9000088919894090260150902701612C712CD5
:102FA00060E677EB87E490E0A30192010E94813D07
:102FB000D8010E942F3DA985BA859D0140E050E0CF
:102FC0000E94813D80916301882369F080915401C2
:102FD00090915501A0915601B09157018217930726
:102FE000A407B50710F52093540130935501409381
:102FF0005601509357018E859F85EB85FC858E1B6E
:103000009F0B909359018093580128893989A0E139
:10301000B7E20E941A3DA30192010E94813D3093C4
:103020005B0120935A0121E001C020E0809154010E
:1030300090915501A0915601B09157018C159D05B5
:10304000AE05BF0528F5C0925401D0925501E0921B
:103050005601F09257018D819E8129813A81821B10
:10306000930B9093590180935801A0E1B7E20E941D
:103070001A3D20911F013091200140E050E00E9454
:10308000813D205F384D30935B0120935A0103C08E
:10309000222309F469C19101A0E1B7E20E941A3D1F
:1030A00020911F013091200140E050E00E94813DBD
:1030B00030935D0120935C012F813885A0E1B7E258
:1030C0000E941A3DA30192010E94813D30935F014D
:1030D00020935E0148C131E62316310408F070C028
:1030E0004889598949345D4008F46AC085E0809375
:1030F000250182E0809324018B859C8586509F4F1B
:103100008017910720F483E08093240120C0AB85D1
:10311000BC85A017B107B8F4A0912601B091270192
:103120009801EB85FC852E1B3F0B0E941A3DA88958
:10313000B9899D0140E050E00E94813D30935901E2
:103140002093580104C01092590110925801042D87
:103150000770882D806480937C001BE0EE24E3944C
:10316000F12CA89560E0872DFAD2BB81B4B9B5B92E
:1031700086B18023E9F794B880917A0080648093C7
:103180007A0080917A0086FDFCCF80917800909142
:103190007900E80EF91E115021F7C701880F991F19
:1031A000880F991F69E070E00E945A3D70935F019B
:1031B00060935E01809163018F5F80936301D3C050
:1031C00088E087B988B914B815B888E087B9E7EC02
:1031D0002E16E1E03E0608F4ACC088B918EC0D8567
:1031E000062907B981E00E94CD0C67B88B2D0E949B
:1031F000050D429710F01150A1F7352C330C292DF5
:10320000220F24B925B961E0872D288FA8D28B2DF4
:103210000E94010D9A83898334B815B8FD85F7B9EA
:1032200048B860E0872D9BD2E0903A01F0903B01D6
:103230008A2D0E94010D8C0154B88B2D0E94010D26
:103240006C018A2D0E94050DC81AD90A88E088B938
:1032500067B894B895B861E0872D81D28B2D0E9414
:10326000010D4C018A2D0E94050D881A990A288D9E
:10327000C814D90438F424B925B98B2D0E94010D46
:10328000640118C09701201B310B3A83298334B89D
:1032900015B83D8537B948B860E0872D60D20091F8
:1032A0003A0110913B018A2D0E94010DA801481B93
:1032B000590BCA0196012759310929383141C8F5FE
:1032C0008C159D05B0F589819A8153E09695879577
:1032D0005A95E1F7893C910510F088EC90E029813E
:1032E0003A81820F931F8C159D0518F5C60144E0A5
:1032F000969587954A95E1F782179307D0F48091C8
:103300002501833018F483E0809325018091230107
:10331000E82FF0E0DF01A156BE4FBC921696AC92AA
:10332000EE0FFF1FE555FE4FD182C0828F5F809365
:1033300023016A2D8B2D26D088E087B988B914B86F
:1033400015B86A96E2E10C94393E80917D018F5F59
:1033500080937D01222381F380927A01A0927B01E8
:10336000B0927C01E9CF21E0809163018F5F80936F
:103370006301222309F380926001B0926101A0925F
:103380006201DACFA0E0B0E0E8ECF9E10C941F3E76
:10339000982E862EA895E62FF0E0E15CFE4F549023
:1033A00033962491E82FF0E0E15CFE4FE4903396F1
:1033B000F49030917D018091630190E0830F911D25
:1033C000892B09F0C7C1A8958091290190912A0104
:1033D000880F991F880F991F90933B0180933A01A2
:1033E0008091820190918301880F991F880F991F06
:1033F00090933901809338018EEB8093360188E0F9
:1034000088B9286027B9E4B8E5B858E1D52EC0E0FE
:10341000D0E0882D0E94010D782E692E892D0E9402
:10342000050D8C018C1B9D0B97FF03C09195819519
:10343000910903972CF0A895DA94E1F1E801E9CF1E
:10344000EE0C15B8E4B8892D0E94010D8135910567
:1034500088F5E5B8892D0E94010DEC018F2D88605B
:1034600087B9F8B815B854B888E1482EC12CD12CCA
:10347000892D0E94010DB82EA92E882D0E94050DC0
:103480007C019C012C193D0937FF03C03195219522
:1034900031092330310514F5550C54B8882D0E949C
:1034A000010D6C01003C94E41907E8F4C53881E093
:1034B000D807E8F08091290190912A0190933B016F
:1034C00080933A0180918201909183019093390118
:1034D0008093380189E1809336013CC1A8954A94D4
:1034E00049F36701C5CFC03B9DE4D90718F784EACB
:1034F000E81682E0F80608F063C098E9C916D1041E
:10350000C8F200913A0110913B019E01A8E9B7EB86
:103510000E941A3D98012C1B3D0B40E050E00E9498
:10352000813D29013A0198012C193D09A8E9B7EB21
:103530000E941A3D860120E030E0A90198010E9416
:10354000813DC837DF4070F4C301B201B2E0660FBD
:10355000771F881F991FBA95D1F7620F731F841FB9
:10356000951F12C098E7C9169FE0D906A0F4CA01BA
:10357000B901A2E0660F771F881F991FAA95D1F79E
:10358000640D751D861D971D25E030E040E050E07C
:103590000E94813D08C0240D351D461D571D5695BE
:1035A000479537952795A4E6B0E00E942F3D6B0123
:1035B0007C018CEAC80E8DE0D81EE11CF11C73C0A2
:1035C000272D362D0217130708F49801CB2DDA2D7D
:1035D000CE15DF0508F4E70159012017310708F47B
:1035E0005801A0912601B0912701C501821B930BC0
:1035F0009C010E941A3D20913A0130913B012A1909
:103600003B0940E050E00E94813D29013A018E01D2
:10361000EC16FD0608F48701A0911F01B09120016E
:103620009E01201B310B0E941A3D6801E12CF12CF8
:10363000A70196010E94813D98E7A9169FE0B9066F
:1036400070F4C301B201E2E0660F771F881F991F73
:10365000EA95D1F7620F731F841F951F11C00837B9
:103660008FE01807B0F4CA01B90152E0660F771F66
:10367000881F991F5A95D1F7640D751D861D971DDA
:1036800025E030E040E050E00E94813D69017A0190
:103690000AC069017A01C40CD51CE61CF71CF6941B
:1036A000E794D794C79410912501143008F002CF05
:1036B0009A94980C892D90E0EC01C859DE4F28812E
:1036C000880F991F880F991FFC01E854FE4F222391
:1036D000D1F14080518062807380A7019601241946
:1036E00035094609570957FF07C050954095309551
:1036F00021953F4F4F4F5F4FAAE0B0E00E942F3D12
:10370000A30192012C593F4F4F4F5F4F2C0D3D1D90
:103710004E1D5F1D0E94813D232B242B252B09F07C
:10372000C9CE133019F081E08093250182E08883AF
:1037300080918401E82FF0E0E559FE4F90828F5F81
:1037400080938401B7CEC082D182E282F38281E08D
:103750008883B0CECDB7DEB7E0E10C943B3ECF938B
:10376000C82FC09595B160FF02C0982B01C09C2363
:1037700095B994B1982B94B982E00E94CD0C84B194
:103780008C2384B985B18C2385B9CF910895A0E0AD
:10379000B0E0EDECFBE10C94253E8AE0D82E98E0F9
:1037A000C92E2FE3A22E39E0B32EC7B8C8B815B87A
:1037B000A4B880E00E94010D8C0181E00E94050DFB
:1037C000EC0182E00E94050D20912501293081F451
:1037D00028E027B914B81093060100930501D0938F
:1037E0000801C093070190930A018093090159C011
:1037F00031E0C430D10508F030E021E0043011059B
:1038000008F020E0232319F08430910508F3083EE6
:10381000134010F028E001C029E0C83ED34008F46E
:103820002260883E934008F4246027B9C0E0D0E0CD
:10383000A89580E00E94F90C7C0181E00E94050DB2
:103840008C0182E00E94050D24E1E21625E0F206DB
:1038500008F4389A043135E0130708F4399A8431B2
:1038600025E0920708F43A9A36E0E316F10428F4CA
:103870000630110510F4069738F02196C43F81E018
:10388000D807B1F6B092250100E010E00C171D0733
:1038900029F00E94BC0C0F5F1F4FF8CFDA9409F09B
:1038A00084CFCDB7DEB7EAE00C94413ECF92DF92F1
:1038B000EF92FF92CF932091890130918A0140913C
:1038C0008B0150918C01C0919B018AE0C82ED12CB4
:1038D000E12CF12C8C2FCF5F213A96E8390791E04B
:1038E0004907510538F0CA01B901A70196010E94A4
:1038F000813DF0CF80939B01A0913A01B0913B01B3
:103900000E942F3D28E833E140E050E00E94813DD5
:103910002093890130938A0140938B0150938C014D
:10392000CF91FF90EF90DF90CF900895A4E0B0E0AA
:10393000ECE9FCE10C94233E982E862E8FEF860F47
:10394000992D990F990D890F80936501E92DF0E06C
:10395000E15CFE4F1491862F90E0FC01E15CFE4F8C
:10396000F490FC01EE5BFE4F0491809125018130C3
:1039700009F4ABC28091230125EA31E06BEA71E0E2
:10398000D9019A2F921B9817A0F49D9198110EC0FF
:10399000AD0147505109FA019081991107C0FB010F
:1039A000408151814C3D554008F48FC26E5F7F4F7E
:1039B000E8CF0860109296011092950181EF8093F4
:1039C0009B011092890110928A0110928B01109232
:1039D0008C01DDDE88E088B907B9F4B8F5B8892D27
:1039E0000E94050D7C01882D0E94050DE81AF90A38
:1039F00014B81092670110926601C12CD12C20914D
:103A0000660130916701243F314050F515B914B972
:103A10000E94B60C14B815B80E94BD0CA895892D4B
:103A20000E94050D6C01CE18DF08209166013091CF
:103A300067012E37310528F02BE4C216D1040CF4AF
:103A40003FC28DE2C81681E0D80684F480916601F9
:103A50009091670101969093670180936601CFCFA3
:103A6000EDE2CE16E1E0DE060CF42AC220916601FA
:103A700030916701232B21F0C60100E010E006C061
:103A8000F5E1CF16F5E0DF06BCF385C020916601B5
:103A9000309167012017310758F00E94B70C892D2B
:103AA0000E94050D8E199F09A8950F5F1F4FEECF3D
:103AB0008601081B190B1016110694F4093C110518
:103AC0000CF0FEC128EE33E0D8010E94293D96019A
:103AD000442737FD4095542F0E94813D790102C053
:103AE000E12CF12CA0906601B09067012FEFA21A93
:103AF000B20AC501A0E0B0E08093910190939201D9
:103B0000A0939301B0939401C601800F911F29D215
:103B10009C01D5010E941A3D60939101709392011E
:103B200080939301909394016093890170938A012B
:103B300080938B0190938C0187EF80939B01B6DE7D
:103B40002091890130918A0140918B0150918C0123
:103B500083E393E029833A834B835C830E94B33EE3
:103B6000A8EEB3E0A81BB10987FDB39529813A817E
:103B70004B815C810E94393D24E630E040E050E01A
:103B80000E94813D2093890130938A0140938B01EB
:103B900050938C0153C1FBDD15B88FE087B988E0E5
:103BA00088B9F12EFF0CF4B880E480937B0084E5A3
:103BB00080BF892D806480937C0086E180937A00A9
:103BC0000E94C00C10926701109266011092800052
:103BD000109285001092840087E286BB81E2809378
:103BE0006F0091E090938601F5B880912501909344
:103BF0008100853059F481E090E0092C01C0880FE4
:103C00000A94EAF780958F7087B901C007B9F894D4
:103C100083B7817F83BF80918601882389F083B732
:103C2000816083BF7894889583B78E7F83BFF89433
:103C3000A89580916601909167018034964059F76C
:103C4000789410928100E0908600F09087001092A6
:103C50006F0086E980937A0014B815B8892D0E9408
:103C6000050D20913E0130913F01821B930B0C9674
:103C700090939E0180939D018091660190916701D0
:103C80008032934008F01CC18091660190916701D9
:103C90009093940180939301F0929201E0929101AC
:103CA00084EF80939B01809166019091670182343B
:103CB0009105C8F0609191017091920180919301FA
:103CC0009091940124E630E040E050E00E94813D74
:103CD000209391013093920140939301509394016A
:103CE00086EF80939B01A0918701B091880120917C
:103CF00091013091920140919301509194010E9461
:103D00002F3D20E233E040E050E00E94813D2093CF
:103D10009101309392014093930150939401209329
:103D2000890130938A0140938B0150938C01BEDD51
:103D300080919B01843F09F071C0C0908901D090AF
:103D40008A01E0908B01F0908C0120EAC2162FE0EE
:103D5000D206E104F104C0F4A70196012C543F4FB0
:103D60004F4F5F4F60EA7FE080E090E00E94813D2E
:103D70002C0D3D1D4E1D5F1D2093890130938A013E
:103D800040938B0150938C01C0908901D0908A019F
:103D9000E0908B01F0908C01C114D10481E0E80621
:103DA000F10428F4D092C901C092C80106C081E094
:103DB00090E09093C9018093C8018091650190E0E3
:103DC000805B9C4F0E94B33E482F50E060E070E063
:103DD0004C155D056E057F0568F4C41AD50AE60A20
:103DE000F70AC0928901D0928A01E0928B01F09289
:103DF0008C0114C094E1C90ED11CE11CF11CC41645
:103E0000D506E606F70610F40E940A1310928901FF
:103E100010928A0110928B0110928C0114B980913A
:103E2000890190918A01A0918B01B0918C014997F1
:103E3000A105B10508F444C0E12CF12C80912301C7
:103E4000882321F0809125018530D1F588E0809389
:103E5000250120919B0180919C018217BCF02813C1
:103E60002FC04091890150918A0160918B0170911E
:103E70008C0180918D0190918E01A0918F01B09164
:103E8000900184179507A607B707D0F480918901A0
:103E900090918A01A0918B01B0918C0180938D014A
:103EA00090938E01A0938F01B093900120939C0179
:103EB000F0929801E09297018092990190929A0174
:103EC00088E087B988B914B815B82496ECE00C944A
:103ED0003F3E1F920F920FB60F9211248F939F9324
:103EE000B59904C080918601811109C0B59B10C0AD
:103EF00080918600909187008A3F910548F48091D7
:103F00006601909167010196909367018093660125
:103F10009F918F910F900FBE0F901F9018951F9239
:103F20000F920FB60F9211248F939F9310928601D8
:103F3000B09B10C080918600909187008A3F9105C8
:103F400048F4809166019091670101969093670112
:103F5000809366019F918F910F900FBE0F901F90DD
:103F600018950F9221E08C32920710F48CE291E0C8
:103F70008C52914069E170E00E945A3D99E16B32A8
:103F800010F0982F6BE2981BE5EDF2E0E60FF11DC3
:103F9000E60FF11D9F93CF010E94B33E482F31964B
:103FA000CF010E94B33E582F3196CF010E94B33EFD
:103FB000282F3196CF010E94B33E382F6F91421BBC
:103FC000530B649FC001659F900D11240C9669E10D
:103FD00070E00E945A3D620F731FCB010F9008954D
:103FE000A0E0B0E0E6EFFFE10C94223E88E893E128
:103FF00090932A018093290190933B0180933A0189
:104000008EEB80933601C8E0C8B988E187B90E9479
:10401000C50CC7B984E00E94010DAC018B5C9840CF
:10402000833F9140A0F481E080934F0120913A01B9
:1040300030913B01AFEBB9E00E941A3D9A0140E09C
:1040400050E00E94813D30932A0120932901809104
:10405000290190912A0190933B0180933A018EE0CF
:104060000E94050D8EE00E94010D90933F01809308
:104070003E010E943A0E8BDB88E0782E78B8C9E0CA
:10408000C7B985E185B9D1E0D4B980E00E94010DBE
:104090007C011AE017B904E004B981E00E94010D27
:1040A000E80EF91E9CE0992E97B820E1822E84B884
:1040B00082E00E94010DE80EF91E15B8C8B9C7B913
:1040C000D4B9C0913A01D0913B0180E00E94010D2A
:1040D0005C0118B917B904B900913A0110913B017C
:1040E00081E00E94010D6C0198B897B884B8809067
:1040F0003A0190903B0182E00E94010DC00FD11F58
:10410000C80DD91DCA19DB09CC19DD09C81BD90B8B
:1041100077B878B814B880913A0190913B014C017E
:10412000880C991C880E991E8E189F088C1A9D0A5F
:10413000A12CB12C9701A0E9BAE10E941A3DA5017A
:1041400094010E94813D69017A0130934E012093D0
:104150004D019E01A0E9BAE10E941A3DA50194011A
:104160000E94813D30933D0120933C012057354E04
:10417000309327012093260180E7C81A85EED80ADC
:10418000D0922001C0921F0189E180933601CDB702
:10419000DEB7EDE00C943E3EFF920F931F93CF935A
:1041A000DF93C82FD62FF42E0E94040983E191E0FB
:1041B0000E946409E8D16D2F8C2F0E943F35C1E029
:1041C0000091CC011091CD012091CE013091CF0111
:1041D000011511052105310509F0C0E080910201AA
:1041E00087FD02C0C11104C08FE091E00E94640904
:1041F0008D2F0E940409C11106C00E9406098091FA
:104200006B010E940A0AFF2049F0809150018D3015
:1042100028F490E08C5A9C4F0E9464090E940F077A
:10422000C1111BC06091CC017091CD018091CE0174
:104230009091CF0103E028E447EF0E94770A82E2E1
:1042400091E00E94640985E693E00E94BB3E23E072
:1042500046E464EF0E94490B1AC080916B010E94F2
:104260000A0A809102018E3F94F48AE391E00E9451
:10427000640960910B0170910C0180910D01909186
:104280000E0103E028E4409102010E94770A809128
:10429000C4019091C501A091C601B091C701892BBD
:1042A0008A2B8B2BF1F080E00E9441096091C401C0
:1042B0007091C5018091C6019091C70104E028E486
:1042C00040E00E94770A8DE191E00E94640923E0BA
:1042D00040E26FEF8091CA019091CB010E94490B9F
:1042E00007C080E00E941E0980915301811102C025
:1042F0000E941909CDB7DEB7E5E00C94463E0F9356
:104300001F93CF93DF93082F0E9434078091990168
:104310000E94040986E591E00E9464091FD560911E
:10432000990180919A0164D39093960180939501AD
:1043300011E08A3F9F4F08F010E0C0919701D091A3
:104340009801112321F084E191E00E946409809199
:104350009A010E940409002359F0909150018DE0C8
:10436000891B0E94080984E790E00E94640902C04A
:104370000E9419090E940F0760918D0170918E01B2
:1043800080918F019091900104E026E440919C017E
:104390000E94770A112369F085E491E00E94640984
:1043A00022E044E06EEF80919501909196010E9489
:1043B000490B0E9419090E941407CD2B69F08EE366
:1043C00091E00E94640922E045E26FEF809197013D
:1043D000909198010E94490B0E941909DF91CF9199
:1043E0001F910F9108958F7021F40E9419070C946A
:1043F0006D1308958F3021F490914001913011F0A8
:104400008F5F089580E00895CF938FE790E00E943A
:10441000142EC0E00E94B30E60E082E00E94C21938
:1044200062E080E00E94C2190E94340780918401FA
:10443000882329F041E062E080E0AEDE12C08FE721
:1044400090E00E9464098EE593E00E9464090E9456
:104450000F078FE30E94BD0880E00E941E090E94A2
:1044600019098C2FC0DF88EE93E00E94AB0D8111FB
:1044700009C080911E01843028F48C2FBBDFC82F27
:104480008A3F40F20E943A07CF9108950F931F93FD
:10449000CF93DF93C0E0D8E012EF0DE00E94B30E9F
:1044A00060E082E043DAD093250180919B01843F54
:1044B000E1F44091890150918A0160918B017091E2
:1044C0008C01443651056105710578F440E060E0E7
:1044D00082E00E94D3326093890170938A018093B5
:1044E0008B0190938C0110939B0180919B01823FE3
:1044F000ACF080939C014091890150918A016091B8
:104500008B0170918C0140938D0150938E016093CB
:104510008F017093900181E0F2DE1CC00E9434078D
:1045200088E790E00E94640980915001902F981BC9
:10453000892F0E94080984E790E00E9464090E9484
:104540000F078FE30E94BD080E9419090E941407FB
:104550000E9419098C2F47DF88EE93E00E94AB0D73
:1045600081110AC080911E01843030F48C2F42DF0B
:10457000C82F8A3F08F492CF0E943A07DF91CF916B
:104580001F910F910895A3E1B0E0E9ECF2E20C94E1
:104590001D3E82E08093020180912501813009F067
:1045A00023C280918401813009F01EC220906B01EA
:1045B00024E0229EF0011124E854FE4F8081918175
:1045C000A281B381893032E59307A105B10508F0D6
:1045D0000BC29B8B8A8B312C61E0822D631528F0F6
:1045E0000E94000AB82EA92E03C00E94000A5C0196
:1045F000EA2DF0E0EE5BFE4F74908B2D90E0FC0115
:10460000E15CFE4FE49115B828E028B92A893B897E
:10461000203F3105A8F430FC13C000911F01109118
:10462000200100591A4121E030E00B2C02C0220F7A
:10463000331F0A94E2F7C9018860872987B908C047
:10464000E4B9872D886087B900911F01109120017E
:1046500044E1642E8B2D0E94FD0C4C018A2D0E949A
:10466000050D34E08316910410F4049710F06A9459
:1046700089F760E460937B0084E580BF8B2D8064C4
:1046800080937C0086E180937A00E12CF12C1092DB
:104690008000109285001092840087E286BB0E9401
:1046A000C00C932D9170998B30FC05C081E88093EC
:1046B000810078B808C078B80E94C90C80E286BB37
:1046C00081E88093810046B345FF13C028E028B9F4
:1046D0001092810080E286BB8091860090918700D5
:1046E0006C0120918400309185008217930768F057
:1046F00013C040FFE8CF31E036BBA895C701019653
:104700007C0180359105F9F6E1CF40FF05C061E0FD
:1047100066BB8FEFE81AF80A86E980937A0034E1E5
:10472000732E8B2D0E94FD0C4C018A2D0E94050DCD
:1047300024E08216910410F4049710F07A9489F71B
:1047400080904D0190904E018A899B89880E991E18
:10475000800E911E209121013091220100399AE1B1
:104760001907B0F461EEC616D104E104F10438F47F
:10477000C60165E070E00E945A3D645101C069E1E4
:1047800028523109261B310967FD339586E009C09F
:10479000C40160EB76E30E945A3D87E0860F285DF6
:1047A0003F4F90E0A0E0B0E08C159D05AE05BF0541
:1047B00028F4C81AD90AEA0AFB0A03C0C12CD12C72
:1047C00076018989882329F092E2C90ED11CE11C67
:1047D000F11C60E5E616F10418F0C12CD12C76012D
:1047E0008BE0C816D104E104F10428F091E0C91A65
:1047F000D108E108F10840913A0150913B01A12C08
:10480000B12CA8EEB3E00E941A3D2B013C019801A7
:10481000DA010E941A3DA50194010E94813D4427BE
:104820005527C301B2010E94813DC9010E94920E29
:10483000FC01A5019401C701B6010E943F3D4B0157
:104840005C01BF0180E090E023E0660F771F881FC6
:10485000991F2A95D1F76B5F7F4F8F4F9F4F2AE0AB
:1048600030E040E050E00E94813DC501B4010E946B
:10487000813D832D90E0E1E0F0E0EC0FFD1F64E06E
:10488000369EE00DF11D1124208331834283538332
:104890006989611117C06CE0C616D104E104F10406
:1048A00088F0FC013196EE0FFF1FEE0FFF1F81E035
:1048B00090E08C0F9D1FE80FF91F20833183428306
:1048C00053833394A895339493E0931508F084CEE2
:1048D00088E088B984E00E94CD0C21E04D815E81A2
:1048E0006F81788589819A81AB81BC818417950716
:1048F000A607B70708F020E04D855E856F857889AB
:1049000089859A85AB85BC8584179507A607B70767
:1049100010F032E001C033E0E22FF0E0EE0FFF1FB5
:10492000EE0FFF1F81E090E08C0F9D1FE80FF91F35
:10493000DC0194E0399FA00DB11D11244D915D91D2
:104940006D917C9180819181A281B3814817590733
:104950006A077B0708F0322FE1E0F0E0EC0FFD1F63
:1049600024E0329FE00DF11D112480819181A2810C
:10497000B38180930B0190930C01A0930D01B09330
:104980000E0130FD09C02A893B89203F310520F402
:104990008BEF8093020117C02CEF20930201BC0122
:1049A000CD016B5F7F4F8F4F9F4F2AE030E040E09B
:1049B00050E00E94813D20930B0130930C01409305
:1049C0000D0150930E0180910B0190910C01A0916B
:1049D0000D01B0910E01892B8A2B8B2B11F41092B3
:1049E000020188E087B914B86396E2E10C94393E7D
:1049F000AEE1B0E0EEEFF4E20C941D3E662EB82E70
:104A0000860F898320912501283059F520918D0149
:104A100030918E0140918F015091900157FD15C04A
:104A200010919C0109C0CA01B9012AE0312D412D24
:104A3000512D0E94813D1F5F173FACF391F42A3541
:104A400060E036074105510518F48FEF9FEF82C1F2
:104A5000173F39F480E028178DE7380741054105F5
:104A600010F020E03DE72C8B3D8B26EDA22E02C0FE
:104A700094EDA92EE2E4F1E0E60DF11D8591886048
:104A80008E87E2E4F1E0EB0DF11D859188608F8760
:104A9000EFE3F1E0E60DF11D7590EFE3F1E0EB0DD2
:104AA000F11DC59090EC692AB92A81E0E82EF12C1D
:104AB000012D112D8E831F82188619861A861B865A
:104AC0001C861D86188E198E1B8E1A8E0E94C71B7F
:104AD00088E088B960927C000E94C10C3F8537B99C
:104AE00075B874B80E94C80C14B815B8DD24B4EDBC
:104AF0009B2EA6ED8A2E3E8537B975B874B86092A4
:104B00007C00A895A0927A0080917A0086FDFCCF67
:104B1000A0927A0080917A0086FDFCCF20907800E8
:104B200030907900B0927C00A0927A0080917A0057
:104B300086FDFCCF80927A000E94C60C0E94C80CB1
:104B4000C5B8C4B80E94C70C0E94C90CA895A89506
:104B5000A895A89514B815B880917A0086FDFCCF69
:104B60002091780030917900288B398B3F8537B9B7
:104B7000C5B8C4B8A895B0927C00A0927A00809184
:104B80007A0086FDFCCFA0927A0080917A0086FDA3
:104B9000FCCF609178007091790060927C00A092C7
:104BA0007A0080917A0086FDFCCF80927A000E9484
:104BB000C60C0E94C80C75B874B80E94C70C0E943D
:104BC000C90CA895A895A895A89514B815B8809172
:104BD0007A0086FDFCCF409178005091790014B89E
:104BE000CB01820D931DE80EF91E011D111DEA82F5
:104BF000FB820C831D8388899989840F951F2E81E0
:104C00003F8168857985280F391F611D711D2E83AD
:104C10003F836887798722E32417150650F075B81B
:104C200074B80E94CB0C14B815B8888D8395888F02
:104C300007C0483E73E0570718F08A8D83958A8F26
:104C4000888999892817190660F03E8537B9C5B853
:104C5000C4B80E94CB0C14B815B8898D8395898F80
:104C600007C0883E73E0970718F08B8D83958B8F74
:104C7000D3945D2D5F3F09F03ECF40904D015090A1
:104C80004E01440C551C9201E4E0240D351DEA95BB
:104C9000E1F72901570168016E807F80888499843B
:104CA000209125012830C1F46C897D89812D912DB9
:104CB0006C537040804090409B01AC010E943F3D8E
:104CC0009B01AC016FEF71EC8EE390E00E94813D9F
:104CD000621A730A840A950AA614B704C804D90490
:104CE00028F46A187B088C089D0803C06624772482
:104CF0004301B20180E090E09301A4010E943F3D96
:104D00009501A6010E94813D8FE293E07981870F92
:104D1000911D0E94B33E90E0682EC90160E170E0F1
:104D20000E945A3D260F371FC9016816190618F44C
:104D3000861991090FC08C5E9F4F8615910540F42E
:104D40008C899D89843981E1980710F00E940A13AB
:104D5000812D912D6E96E2E10C94393EA4E0B0E0F5
:104D6000E4EBF6E20C94253E809197019091980136
:104D7000892B09F0B5C0E0919901F0E0EE5BFE4FA0
:104D800004910860E0919A01F0E0E15CFE4F14911B
:104D90000E94C71B88E088B915B807B914B980917B
:104DA0009A010E94050D5C0100919C018CE0800F2E
:104DB000843008F095C0015F80918D0190918E0143
:104DC000A0918F01B09190012AE0C22ED12CE12C4C
:104DD000F12CBC01CD016B5F7F4F8F4F9F4FA7011F
:104DE00096010E94813D0F5F073019F0DA01C90179
:104DF000F0CF293883E138074105510508F070C02C
:104E00002530310508F46CC015B914B900E010E084
:104E10000217130768F429833A834B835C830E944B
:104E2000C70C0E5F1F4F5C814B813A812981F0CF07
:104E300014B815B8A89585E08093360180919A0141
:104E400029833A834B835C830E94050D29813A8133
:104E50004B815C81A816B90620F47C01EA18FB0896
:104E600002C0E12CF12C00E010E00217130768F4F7
:104E700029833A834B835C830E94C70C0F5F1F4FCB
:104E80005C814B813A812981F0CF80919A010E9407
:104E9000050D29E120933601A895A816B90618F446
:104EA0008A199B0902C080E090E08E159F0588F466
:104EB0009701281B390B69F0A4EFB1E00E941A3D5D
:104EC000970140E050E00E94813D3093980120938B
:104ED00097010E94C71B88E087B988B914B815B834
:104EE0002496EAE00C94413EA5E0B0E0EAE7F7E260
:104EF0000C941D3E8AE292E097D620EF2A835498C4
:104F00000E94BC0C14BC16BC10921201109213012A
:104F1000109214011092150131E035BB30936E00F0
:104F20001092800083E19AE790938B0080938A002F
:104F3000E1E0F0E0F0938900E093880010928500B2
:104F40001092840083B5816083BDF6E0F6BBF093D8
:104F50006F00789424E02093810012E319820E946C
:104F6000B50CA8954F9902C031E0398385B5811100
:104F70002CC015BC86B5809312010E9414070E94B4
:104F800019090E9419070E9419090E94460986E61C
:104F90000E94BD080E94490960911201709113019D
:104FA000809114019091150107E028E440E00E94EF
:104FB000770A8AE70E94BD0854988091810088236F
:104FC00039F08FE30E94BD0803C0115041F6D1CFE4
:104FD0001092810010926F00209112013091130104
:104FE0004091140150911501DA01C9010197A109FD
:104FF000B109893D9146A105B10508F029C1AAE092
:10500000B0E00E942F3D685F7F4F8F4F9F4F23E09E
:1050100096958795779567952A95D1F7660F771FAF
:1050200070937F0160937E0154980E94BC0C16BC63
:105030001092120110921301109214011092150196
:1050400081E085BB80936E001092810110928001F7
:1050500094E09BBB809168008460809368007894A2
:1050600080916D00806180936D001D820E94B50C5F
:10507000A8954F9902C0E1E0E98380916D0084FF1B
:1050800005C0FD81FF5FFD83FA3F81F715BC80916C
:105090006D008F7E80936D00809168008B7F809380
:1050A000680086B5809312010E94140784E50E946F
:1050B000BD080E9449098091120190911301A091AD
:1050C0001401B091150120917E0130917F013C8344
:1050D0002B831C012D019C01A20160E070E080E0A7
:1050E00090E003E00E945A3E51016201E12CF12C54
:1050F00000E010E00E94733E59016A017B01E82F35
:10510000192F03E00E945A3E0E2F0E94733E03E0C7
:105110000E945A3E51016201E12CF12C00E010E0A6
:105120000E94733E02E00E945A3E00E00E94733EDD
:1051300001E00E945A3E00E00E94733E03E00E949C
:105140005A3EEB81FC815F01C12CD12C00E00E9412
:10515000B93D39014A011B012C012B813C812038CA
:10516000310530F007E023E745EFB301C40116C075
:1051700084E6A82EB12CC12CD12CE12CF12C00E01E
:1051800010E09301C2010E94B93DE22FF42F07E025
:1051900023E747EF6E2F732F8F2F952F0E94770AEB
:1051A0003D813A3F21F48FE30E94BD0851C0930135
:1051B000A401B101C2012C393E4C434051056105A7
:1051C00071058105910509F008F442C00E94190794
:1051D00086E60E94BD080E9449099301A401B1011D
:1051E000C201530164017101820121153A4C4A49FF
:1051F0005B43610571058105910589F080F020E030
:1052000030E04AE85DE568E775E483E691E00E94F6
:10521000B93DE22FF42F07E028E44AEF0FC020E069
:1052200030E846EC54EA6EE77DE883E090E00E94C7
:10523000B93DE22FF42F07E028E44CEF6E2F732FD7
:105240008F2F952F0E94770A8AE70E94BD085498F5
:1052500010926E0080ED97E00E94AB0D2981820FC5
:1052600049F480911E01833028F43A8131503A8309
:10527000311145CE2596E2E10C94393E1F920F92F2
:105280000FB60F9211248F939F93AF93BF9378948F
:105290008091120190911301A0911401B091150118
:1052A0009F5FAF4FBF4F8093120190931301A09364
:1052B0001401B0931501BF91AF919F918F910F9001
:1052C0000FBE0F901F9018951F920F920FB60F925E
:1052D00011248F9386E085BD8F910F900FBE0F90A4
:1052E0001F9018951F920F920FB60F921124A89538
:1052F0001092810015BC0F900FBE0F901F90189553
:105300001F920F920FB60F9211242F933F938F93FA
:105310009F938091800190918101892B11F481E00C
:1053200085BD209180013091810180917E01909115
:105330007F012817390730F015BC80916D008F7EF2
:1053400080936D00809180019091810101969093EE
:105350008101809380019F918F913F912F910F90B8
:105360000FBE0F901F9018958C3008F08C50811153
:1053700003C084E392E036C0813019F48AE292E0FF
:1053800031C0823019F481E092E02CC0833019F4EE
:1053900086EF91E027C0843019F48AE890E022C0BB
:1053A000853019F48FE790E01DC0863019F488E746
:1053B00090E018C0873019F487EE91E013C0883070
:1053C00019F486ED91E00EC0893019F487EC91E074
:1053D00009C08A3019F488E192E004C08B3021F4CE
:1053E0008DE092E00E94640980915001803118F4B0
:1053F0000E940609F9CF08950F93CF938AE890E0B1
:1054000013D4C0E01092250160E082E029D480919D
:1054100025018830C1F50E940F0783E40E94BD0872
:105420000E94490960918D0170918E0180918F01D8
:105430009091900103E026E440919C010E94770A3C
:105440000E9419096091990180919A01D1DA909393
:105450009601809395010E94140786E491E00E94D2
:10546000640980919501909196018A3F2FEF9207F0
:1054700030F422E044E06EEF0E94490B08C08FE355
:105480000E94BD0804C00E9446090E9414070E94A1
:1054900019098C2F0E94F32188EE93E00E94AB0D36
:1054A00081110BC080911E01843038F48C2F0E9432
:1054B000FA21C82F8A3F08F4A5CFCF910F91089504
:1054C00008950F93843108F08451833189F489E081
:1054D0008093810081E090E0909389008093880020
:1054E00007E028E44DEF60E074E985E397E74BC1FE
:1054F000823189F489E08093810083E090E0909389
:1055000089008093880007E028E44DEF60E07AECA2
:105510008AE99BE338C1813169F489E08093810095
:1055200087E090E0909389008093880007E028E46A
:105530004DEF6CC0803169F489E0809381008FE089
:1055400090E0909389008093880007E028E44DEF75
:105550006FC08F3089F489E08093810089E190E009
:10556000909389008093880007E028E44DEF6AE873
:1055700071E88BE299E007C18E3069F489E080938D
:10558000810087E290E0909389008093880007E093
:1055900028E44DEF60C08D3069F489E0809381008C
:1055A0008FE490E0909389008093880007E028E4DE
:1055B0004CEF2CC08C3069F489E0809381008FE936
:1055C00090E0909389008093880007E028E44CEFF6
:1055D0002FC08B3069F489E0809381008FE891E0DF
:1055E000909389008093880007E028E44CEF33C053
:1055F0008A3089F489E0809381008FE193E0909371
:1056000089008093880007E028E44BEF60E075E6AE
:105610008DEC9DE1B8C0893081F4809381008FE3E7
:1056200096E0909389008093880007E028E44BEF90
:1056300060E872EB86EE9EE0A6C0883089F489E0CF
:10564000809381008FE99FE0909389008093880088
:1056500007E028E44BEF60E071EE85EF95E093C042
:10566000873089F489E08093810084E493E2909309
:1056700089008093880007E028E44BEF6FE77DEF17
:1056800083EA92E080C0863089F489E080938100CB
:1056900089E593E2909389008093880007E028E4ED
:1056A0004BEF6FEE7BE682EA92E06DC0853089F4C5
:1056B00089E08093810082E893E29093890080934F
:1056C000880007E028E44BEF68E471E68FE992E098
:1056D0005AC0843089F489E0809381008FE79EE38B
:1056E000909389008093880007E028E44BEF60E402
:1056F00078E78DE791E047C0833069F48BE08093D1
:10570000810080E792E0909389008093880007E011
:1057100028E44AEFA0CF823089F48BE080938100A7
:1057200081EE94E0909389008093880007E028E45C
:105730004AEF60E870EF8AEF92E025C0813089F48B
:105740008BE08093810089E698E1909389008093B3
:10575000880007E028E44AEF60E876E988E990E00D
:1057600012C0811112C08CE08093810088E09DE31B
:10577000909389008093880007E028E44AEF60E472
:1057800072E48FE090E00E94770A8AE70E94BD08E9
:105790000F910895A0E0B0E0E0EDFBE20C94263E0E
:1057A00081E092E041D280E18093800010926F000E
:1057B00081E090E0909389008093880010928B00A4
:1057C00010928A0083E086BB1092820088E080936A
:1057D000810015B891E194B988B989E087B9229A16
:1057E0008093810000E0D12CE12C12E1CEE1D0E0E9
:1057F000802F90E00A96BE010E946E3DC62EB62E06
:105800006D1589F00E94340781E092E00E946409DE
:10581000F12CFB1428F48EE20E94BD08F394F9CF1A
:105820000E941909DC2CE11669F1143108F01451B9
:10583000F12E82E0E82E8F2D811B823081F060E016
:105840008E2D0E9402070E94060983E18F1518F42D
:105850008CEE8F0D01C08F2D34DE0E941909F39458
:10586000E394E3948EE0E812E6CF60E086E00E94E5
:1058700002078EE30E94BD0882E0810F22DE0E94B3
:105880001909E12E88EE93E00E94AB0D90911E0164
:10589000811102C0992381F000E09B3068F01092E2
:1058A00081001092800088E087B914B82298CDB7A3
:1058B000DEB7E9E00C94423E90911D0197FD9C5E9D
:1058C000190F853118F01F5F803548F7802F0E942F
:1058D000FA21082F803F08F48BCFE1CFA4E0B0E09D
:1058E000E4E7FCE20C94213E86EF91E09DD183E257
:1058F0008093800010926F008FEF90E090938B0068
:1059000080938A0083E086BB1092820015B881E103
:1059100084B988E088B929E027B9229A81E090E02B
:1059200090938900809388002093810010E000E02C
:1059300092E3792E612C24E6C22ED12CE12CF12C9D
:1059400088248A9433E0932EA12CB12C7016E9F1AF
:1059500083E6871510F4ECE97E0E272D30E0AFEFDB
:10596000B3E00E941A3D6E5C7F4F8F4F9F4FA7019F
:1059700096010E94813D30938B0020938A002983F9
:105980003A834B835C830E940F07A8EEB3E0298122
:105990003A814B815C810E942F3D61507E4F8F4F39
:1059A0009F4FA50194010E94813DDA01C90125E0C4
:1059B00045E26FEF0E94490B0E941909F8E2F615C3
:1059C00018F48CE30E94CD0C072D80E496E00E9431
:1059D000AB0D682E82E8861560F488E087B91092D6
:1059E00081001092800014B822982496EEE00C9466
:1059F0003D3E90911E019B3080F780911D0187FDF7
:105A00008C59780EE2E3E61518F4FAE07F0E03C035
:105A1000662051F0739410E0812F0E94FA21182F14
:105A2000803F08F493CFD9CF9111F5CFF5CF0F93E5
:105A30001F93CF93DF9386ED91E0F6D083E393E05D
:105A40000E94B33E182F00E00E940F07C12FDD27F0
:105A5000C7FDD09517FF0BC08DE20E94BD0823E063
:105A600045E26FEF882799278C1B9D0B04C023E02C
:105A700045E26FEFCE010E94490B0E94190980E4B4
:105A800096E00E94AB0D811105C090911E0191110D
:105A900003C003C0823800F500E090911E019B30E6
:105AA000D8F490911D01910F811102C0192F06C0E9
:105AB000893210F011E001C01FEF190F113514F0F9
:105AC000155603C01C3E0CF41B59802F0E94FA216E
:105AD000082F803F08F4B8CF612F83E393E00E9442
