:100000000C942F080C9441080C9441080C9441085E
:100010000C9441080C942A270C9441080C94DE0E91
:100020000C9441080C9441080C94561F0C941C2706
:100030000C940E270C94301F0C9441080C9441082A
:100040000C94E8260C9441080C9441080C94410847
:100050000C9441080C94DF0E0C9441080C94410858
:100060000C9441080C944108B200A900A0001008AB
:10007000407E01013E01013E01013E01017E404002
:1000800018000720080808F80000002060A03FA022
:100090006020020202FF0202021010101F00000086
:1000A0000708FFDBBDB5B5CBFF0708FFBB9DADADB6
:1000B000B3FF0708FFFFF7FB81FFFF10100508F8EB
:1000C00078385888091003081C3E7F0D080710FF78
:1000D000818181F1E1C1FF4040404743410D08016A
:1000E00010FFFF11080310F1E1C14743410E000862
:1000F000202121122060E0E0E0FEFE040201000168
:10010000037F7F21C2C4C4C040948400070301025E
:10011000040E080210FEFE7F7F00000000110005A3
:10012000202060E0E0E00201000103C2C4C4C0403E
:1001300007030102045245465F523D005245465FA7
:10014000433D00203E3130306E4600706E056D003C
:100150006B4D01041001020400111111131D101048
:1001600000000E11110A1B00041F111111111F04B0
:10017000001E0203021E0000000F0818080F0000F6
:100180001113171F1713110011191D1F1D1911002D
:100190001B1B1B1B1B1B1B005244533D005B435D81
:1001A00000310803083320005B524C5D0031080722
:1001B0000608090A08332000432B45535240545087
:1001C000313A3300664054503200203530487A00CE
:1001D0004330200052695F4C6F3D0052695F4869AF
:1001E0003D0052303D0052482F524C002B52482DBA
:1001F000203132203133203233002B524C2D20312C
:10020000322031332032330052482B0052482D0027
:100210005248663D005265663D00494345733D00C6
:10022000494345303D0056657273696F6E20312E2B
:1002300031326B0008090A080008070608002A0185
:1002400020200008020800080108004E6F74206397
:10025000616C696272617465642120466F72FF632C
:10026000616C6962726174696F6E20636C616D703C
:10027000207468652033FF70696E7320746F676542
:100280007468657220616E64207374617274207783
:1002900069746820746865FF6B65792E2041636B13
:1002A0006E6F776C65646765207468652073656C34
:1002B000662D74657374207769746820746865208E
:1002C0006B65792077697468696EFF32732E2044FC
:1002D0006973636F6E6E6563742070696E732061FD
:1002E0006674657220746865FF6D65737361676518
:1002F000202269736F6C617465FF50726F626521B3
:10030000222069732073686F776E2E20536F667496
:100310007761726520616E6420646F63756D656ED0
:10032000746174696F6E2069732061742073766ED6
:100330003A2F2F206D696B726F636F6E74726F6CE2
:100340006C65722E206E65742F7472616E736973A2
:10035000746F7220746573746572200049723D0079
:100360004C3D0020566C6F73733D00204553523D49
:10037000005643433D0043656C6C210008030800B0
:100380004056673D002056743D0055663D0055625D
:10039000653D00203132333D0050696E2000424AF5
:1003A000542D504E5000424A542D4E504E00433D65
:1003B0000043673D006846453D002D4947425400D3
:1003C0004A464554002D4D4F530044432050777208
:1003D000204D6F6465004F4B004261742E20004336
:1003E0006F6E74726173740073686F7274205072F0
:1003F0006F626573210053656C6674657374007475
:1004000075726E2100726F7461727920656E636F10
:100410006465720031302D6269742050574D00665A
:100420002D47656E657261746F72005377697463EE
:1004300068206F66660053686F772064617461009E
:10044000566F6C74616765004672657175656E63A1
:1004500079005472616E736973746F720053656CC6
:10046000656374696F6E3A005465737420456E64F9
:100470000069736F6C6174652050726F62657321DF
:100480000053656C6674657374206D6F64652E2E01
:100490000054696D656F757421006F722064616D21
:1004A0006167656420004E6F2C20756E6B6E6F77F0
:1004B0006E2C206F720020756E6B6E6F776E00541D
:1004C0006879726973742E00547269616300706197
:1004D00072740064616D616765642000656D70749D
:1004E0007921007765616B0054657374696E672EBE
:1004F0002E2E00BA03870358032E030703E402C31A
:1005000002A40288020000140029003E0053006982
:100510000080009700AE00C600DF00F80012012D39
:1005200001490165018201A001BE01DE01FF012137
:1005300002440268028E02B502DE0209033503643A
:10054000039403C803FE0337047304B404F904439B
:10055000059305EA054906B3062907AE074808FFD3
:1005600008DE09AF57B950C24A97451141133D877C
:10057000395A367E33E8308E2E692C712AA128F53F
:10058000266925F923A222622137201E1F161E1E6E
:100590001D341C571B851ABF1903195018A61704C0
:1005A000176A16D6154915C2144114C5134E13DC2B
:1005B000126E1205129F113D11DF10841000000011
:1005C000000000000000000000000000001E2121CB
:1005D000211200807F0000007E4A4A4A3400000059
:1005E000000000FC4020100804020100000001018E
:1005F00001010101010101010101017F0488D0E035
:10060000F0F8000000000000000000000000000002
:1006100000000000FC94948400000102FC00000033
:100620000000000000000000001E21212112E0C097
:10063000804020100F000000C0202020400000005B
:10064000FC00009E9E040303030302000000202020
:1006500023242525232020203F00007B7B2142846A
:100660000480C00000000000000000000000000046
:1006700000FC94948400040607070708F0000000BB
:1006800000000000000000000000803F2121120C4B
:1006900000000000FF000000F0084848C80000FE0D
:1006A0000000E7818181C1E1F18181810100202089
:1006B000202121212020203F0000F34040404143E1
:1006C0004740407FC0000000000000000000000024
:1006D000000000489494946400000000FF000000B3
:1006E000000000000000000000000000003F212189
:1006F000120C0000FF000000F0084848D000000085
:10070000000000FEFE0404040404040407000808BA
:100710000809090908087F3E1C08087F7F2020205F
:1007200020202020E0000000000000000000000069
:10073000000000000048949494640000FF00000052
:100740000000000000000000FF003C0A090A3C0015
:100750002231292926000082868E9EBEFEFEBEDE44
:10076000EFF6FAFEFEFAF2E2C28200000008080884
:1007700004027984A4A46800FF00000000000000C7
:100780000000000000000000000000000000000069
:10079000FF0000F0282428F0001008FC00000000F2
:1007A00000000000000000003C0A090A3C00FF00B5
:1007B0000000000000000000000000000000000039
:1007C00000040C1C3C7CFF7C3C1C0C040000000062
:1007D00000009EA1A9A99A804323130B0703FF03DE
:1007E00003030303030000000000000000000000FA
:1007F000788484844800FF000000000000000000AE
:10080000F00804E211090909090909090909112176
:10081000C2040810E0000000010204040700000008
:1008200000008040201088442310080403000000CA
:100830000000000000000000FE0100FC02010000BA
:1008400000000000000000000000000000000000A8
:1008500079494979000000000000000000C0F81844
:10086000181818F8C00007060606060700C0FCF8AE
:10087000F0E0DCFCC0000F0703010E0F00C0FCDC41
:10088000E0F0F8FCC0000F0E0103070F00C0FCFCF5
:100890000000FCFCC0000F0F00000F0F00F0F80C70
:1008A0000C0CF8F0000C0D0F000F0D0C0000FCFC00
:1008B0000000F8F800381F0F03060307060C0C0CA5
:1008C0000C0CFCFCC00C0C0C0C0C0F0F00C0FCFC46
:1008D0000C0C0C0C0C000F0F0C0C0C0C0CC0C0C042
:1008E000C0C0C0C0C00000000000000000C0000088
:1008F0008000008000070C0C070C0C070C00800027
:1009000000800000C00C070C0C070C0C0700000056
:1009100000000000000000000000000000000000D7
:1009200000000000000000000000000000000000C7
:1009300000000000000000000000000000000000B7
:1009400000000000000000000000000000000000A7
:100950000000000000000000000000000000F8FCA3
:100960000602FEFE00381F0F08080F1F38FEFE00AB
:1009700000FEFE00000F0F08080F3F1800FEFE00EB
:10098000F800FEFE000F0F080F080F3F180080E070
:100990003010F0F000381F0F08080F1F38C0E02893
:1009A000F828E0C000070F283F280F0700F0F000EC
:1009B00000F0F000000F0F08080F3F1800F0F000E3
:1009C000F000F0F0000F0F080F080F3F18000000B4
:1009D0000000000000000000000000000000000017
:1009E0000000000000000000000000000000000007
:1009F00000000000000000000000000000000000F7
:100A000000000000000000000000000000000000E6
:100A100000000000000000000000000000000000D6
:100A200000000000000000000000000000000000C6
:100A300000000000000000000000000000000000B6
:100A400000000000000000000000000000000000A6
:100A50000000000000000000000000000000000096
:100A60000000000000000000000000000000007C0A
:100A7000FEFE7C00000000001B1B000000000E1E9C
:100A800000001E0E00000000000000000020F8F82A
:100A900020F8F82000020F0F020F0F0200387C44EC
:100AA0004747CC9800060C0838380F070008149404
:100AB000C860301800060301040A0A040080D87CCC
:100AC000E4BCD84000070F0808070F080000080F13
:100AD000070000000000000000000000000000F01F
:100AE000F80C0400000000070F18100000000004BC
:100AF0000CF8F00000000010180F0700004050F044
:100B0000E0F0504000000101000101000000404001
:100B1000F0F0404000000000010100000000000073
:100B2000000000000000002C3C1C000000C0C0C001
:100B3000C0C0C0C0000000000000000000000000B5
:100B4000000000000000000C0C000000000000800D
:100B5000C0603018000603010000000000F8FC0629
:100B60000206FCF80003070C080C07030000181C21
:100B7000FEFE0000000008080F0F0808000C0E829F
:100B8000C2623E1C000E0F0908080C0C000406424D
:100B90004242FEBC00040C0808080F0700C0E0B089
:100BA00098FCFE8000000000080F0F08003E3E2267
:100BB0002222E2C200060C0808080F0700F8FC26F3
:100BC0002266C4800003070C080C07030006068297
:100BD000C2623E1E0000000F0F00000000BCFE427B
:100BE0004242FEBC00070F0808080F0700387CC609
:100BF0008286FCF80000040C080C0703000000309B
:100C00003030000000000006060600000000003042
:100C100030300000000020361E0E0000000040E0D2
:100C2000B0180C06000000000103060C0000202094
:100C30002020202000000101010101010000060C1C
:100C400018B0E04000000C060301000000181C86EC
:100C5000C2663C18000000191900000000F8FC04EE
:100C6000E4E4FCF800070F080B0B0B0100F0F88C14
:100C7000868CF8F0000F0F0000000F0F0002FEFE40
:100C80004242FEBC00080F0F08080F0700F8FC06E0
:100C90000202060C0003070C08080C060002FEFE08
:100CA0000206FCF800080F0F080C07030002FEFE06
:100CB00042E2060E00080F0F08080C0E0002FEFEAE
:100CC00042E2060E00080F0F0800000000F8FC06C4
:100CD0008282868C0003070C0808070F00FEFE4086
:100CE0004040FEFE000F0F0000000F0F000000024A
:100CF000FEFE0200000000080F0F080000000000C8
:100D000002FEFE0200070F08080F07000002FEFEA9
:100D100060F09E0E00080F0F00000F0F0002FEFE95
:100D20000200000000080F0F08080C0E00FEFE383D
:100D3000E038FEFE000F0F0000000F0F00FEFE382F
:100D4000E080FEFE000F0F0000030F0F00F8FC060E
:100D50000206FCF80003070C080C07030002FEFE65
:100D600042427E3C00080F0F0800000000FCFE021B
:100D70000202FEFC00070F080E3C3F270002FEFEA9
:100D800042C6FC3800080F0F00000F0F001C3E6227
:100D900042C28E0C00060E0808080F07000E06025D
:100DA000FEFE02060E0000080F0F080000FEFE0007
:100DB0000000FEFE00070F0808080F0700FEFE00F7
:100DC0000000FEFE000103060C06030100FEFE000B
:100DD000F800FEFE00030F0E030E0F0300069EF840
:100DE000F0F89E06000E0F0100010F0E00003E7E7F
:100DF000C0C07E3E000000080F0F0800000682C23F
:100E000062321E0E000E0F090808080C000000FEDA
:100E1000FE0202000000000F0F080800001C3870DE
:100E2000E0C0800000000000000103070000000295
:100E300002FEFE0000000008080F0F0000080C066C
:100E400003060C0800000000000000000000000085
:100E5000000000000030303030303030000000033F
:100E60000704000000000000000000000020B09017
:100E700090F0E00000070F0808070F080002FEFED0
:100E80001030E0C000000F0F080C070300C0E03076
:100E9000101030200003070C08080C0400C0E030DC
:100EA00012FEFE0000070F0808070F0800C0E0B0A0
:100EB00090B0E0C00003070C08080C04000020FC00
:100EC000FE220E0C0000080F0F08000000E0F010DA
:100ED00010E0F01000133724243F1F000002FEFE34
:100EE0002010F0E000080F0F00000F0F00000010AE
:100EF000F6F60000000000080F0F080000000000D8
:100F000010F6F60000183820203F1F000002FEFEF9
:100F1000C0E0301000080F0F00010F0E00000002AB
:100F2000FEFE0000000000080F0F080000F0E03097
:100F3000E030F0E0000F0F0007000F0F0010F0E0AE
:100F40001030E0C000000F0F00000F0F00C0E030B5
:100F50001030E0C00003070C080C07030010F0E09D
:100F60001010F0E000203F3F28080F0700E0F010CD
:100F700010E0F01000070F08283F3F200010F0E0BD
:100F80003010706000080F0F08000000002070D0C3
:100F90009090302000040C0808090F06001010FC87
:100FA000FE101000000000070F080C0400F0F00015
:100FB00000F0F00000070F0808070F080000F0F02D
:100FC0000000F0F0000003070C0C070300F0F00035
:100FD000C000F0F000070F0C070C0F07003070C0C6
:100FE00080C07030000C0F0301030F0C00F0F00004
:100FF0000000F0F00013372424243F1F003030108D
:1010000090D07030000C0E0B09080C0C000040E072
:10101000BE1F0100000000000F1F100000000000B4
:10102000FFFF0000000000003F3F00000000000143
:101030001FBEE040000000101F0F000000080C045D
:101040000C080C0400000000000000000080C060DC
:101050003060C08000070704040407070000112463
:101060001FBECFEFD8E0DEBFCDBF11E0A0E0B1E002
:1010700001C01D92AA3BB107E1F70E943E300C94DB
:1010800071380C9400005A98529A5D98559A80FDD8
:1010900003C05B98539A02C053985B9A20D5661F91
:1010A00018D0661F16D0661F14D0661F12D0661F98
:1010B00010D0661F0ED0661F0CD0661F0AD00FD549
:1010C0005A98529A55985D9A5A98529A5998519AA4
:1010D00008955A98529A18F45198599A02C05998FA
:1010E000519A52985A9AFBC41092AD01109247013E
:1010F0001092040110920F01089581E08093AD01D8
:101100001092470182E08093040110920F0108952C
:1011100082E08093AD011092470184E08093040146
:1011200010920F01089583E08093AD011092470162
:1011300086E08093040110920F01089560934701A7
:1011400080930401660F660F660F60930F01089588
:101150009091AD019F5F9093AD01943038F093E092
:101160009093AD0191E090934A0102C010924A0120
:101170009091AD01682F892F880FE0CFE9DF84C5FA
:1011800080914701809301018091AD01809303011B
:1011900008958091030160910101880FCFCF682FDE
:1011A00080E071CF8EEAFBDF85EAF9CFCF93DF9342
:1011B000C0E080E1F4DF80E0F2DF8C2F806BEFDFB6
:1011C000D4E860E081E05FDFD150D9F7CF5FC8306D
:1011D00081F78ADFDF91CF9108955C985A985998EA
:1011E0005D98549A529A519A559A74D455985D9A2A
:1011F0005B98539A84E175D454985C9A84E171D4D5
:101200008EEACDDF82EECBDF82EAC9DF80EAC7DF7C
:1012100080ECC5DF8FE2C3DF84E2C1DF81E8BFDF9E
:1012200080E090E00E9433388F73B9DF80E4B7DF4D
:1012300084EAB5DF86EAB3DFB9DF8FEAB0DF109268
:1012400047011092040110920F0108950895582F3C
:1012500028E030E090E841E080E0642F652309F069
:10126000892B440F96952150310921153105A9F795
:101270000895A0E0B0E0EFE3F9E00C94A437EC01AE
:101280006A3708F068C0483308F065C0342E3694D9
:1012900036943694F12CE40EF11C81E0E81AF10842
:1012A00033E0F594E7943A95E1F7122F127021FF9D
:1012B0000BC0A701552743195109049FC001059F81
:1012C000900D1124C80FD91F87E08E1510F497E0F8
:1012D000E92EF62EF2948FE0F8228F2D8061F82E01
:1012E0006F70562E2170422EA02EB12C450181E048
:1012F000881A9108E31450F1832D806B50DF8F2DF5
:101300004EDF852D4CDFC12CD12C3E01680C791CA1
:10131000C01698F4442021F0F301EC19FD0903C034
:10132000FE01EC0DFD1D8491111191DF682F81E00C
:10133000AADE8FEFC81AD80AEBCF112319F0CA1909
:10134000DB0902C0CA0DDB1D3394D4CF80910401A8
:101350008F70806B24DFCDB7DEB7E1E10C94C0372E
:10136000EF920F93282F8F7030E6839FC0011124D6
:1013700083549A4F322F307324FF02C028E001C0FB
:1013800028E420931001303218F01092000108C0B8
:1013900020E220930001209110012D5E2093100186
:1013A00040E2E42E08E120E040910001609110014C
:1013B00060DF0F91EF900895EF920F93262FFC01BD
:1013C000649131964491FC0132960491FC0133966C
:1013D000E49050910001450F50911001650F049663
:1013E00048DF0F91EF90089560E0E6CFEF920F9302
:1013F000909147019F5F9093470140910401440FF2
:10140000440F440F20E1829FC001112450E1E52EDA
:1014100008E020E060910F01835A974F2ADF809106
:101420000F01885F80930F010F91EF9008958F5CFB
:10143000DDCF80E2DBCFA1E0B0E0E1E2FAE00C94A6
:10144000B33718162CF48983F4DF89818150F9CFE2
:101450002196E2E00C94CF379091470180E1891BFF
:10146000EACF42DEF9DF40CE48DEF6DF46CE8DE33E
:10147000BDCFCF93DF93EC018991882311F0B6DFC4
:10148000FBCFDF91CF910895CF93DF93EC01FE0165
:101490008491982F9F7719F0A9DF2196F8CFDF91DB
:1014A000CF910895EF920F93FC0104913196E4904F
:1014B0000296DFDE0F91EF9008950F9381EB93E09A
:1014C000E3DF409191014D3F64F460917F017091A1
:1014D0008001809181019091820103E026E4E3D0B4
:1014E00002C08FE383DF0F91089597FF09C08F93A8
:1014F0009F938DE27BDF9F918F91909581959F4F78
:1015000063E271E04AE050E00E941F38B2CFEF92F0
:10151000FF920F931F93182F062FF42E83E993E069
:10152000B3DFEE24E0914801F09149018685E81689
:1015300011F4812F09C08485E81611F4802F04C0AE
:101540008585E81611F48F2D51DFE3948E2D8330BD
:1015500049F71F910F91FF90EF900895EF92FF923E
:101560000F931F93182F062FF42E80E007DE89E9D2
:1015700093E08ADFEE248E2D5ADF79DFE091480177
:10158000F09149018685E81611F4812F09C0848500
:10159000E81611F4802F04C08585E81611F48F2D0C
:1015A00025DF47DFE3948E2D833029F71F910F91BC
:1015B000FF90EF900895682F80E092E0662309F491
:1015C00091E0623009F481E008950F93082FEEEA6C
:1015D000F1E0880F880FE80FF11D60817181828131
:1015E0009381643671058105910578F4209102019B
:1015F000222359F4802FDFDF692F0E949B22BC0138
:1016000080E090E04EEF03E002C04FEF04E024E002
:101610004AD00FDF0F910895863058F4E1EAF1E0E7
:10162000E80FF11DE80FF11D8081918163E0FAD090
:1016300000CF08951F93182F80917B01882319F004
:10164000F8DE80E0D3DE59DD8AE893E01DDF812FEC
:1016500082958F70E1DF812F8F70DEDF1F910895FB
:10166000CF93DF938091110182958F70C5E9D1E00E
:10167000C80FD11D8881DBDE87E492E005DF8E8113
:10168000D6DE87E492E000DFC5E9D1E08091110168
:101690008370C80FD11D8E81CADE80911101CADF0F
:1016A000DF91CF910895A0E0B0E0E9E5FBE00C9474
:1016B000A937142FC22F033009F4A1C0043009F454
:1016C000A5C0053051F0063081F00730B1F0B4E626
:1016D000CB2ED12CE12CF12C17C0A0EACA2EA6E803
:1016E000DA2EEE24E394F12C0FC0F0E4CF2EF2E4D6
:1016F000DF2EFFE0EF2EF12C07C0E0E8CE2EE6E96A
:10170000DE2EE8E9EE2EF12C5AE0852E912CA12C4C
:10171000B12C6C157D058E059F0560F06B5F7F4FCA
:101720008F4F9F4FA50194010E940737CA01B9014D
:101730001F5FEFCF0CE0010F07FD04C0033118F06D
:1017400002E101C000E01BEA019F112D1124169552
:10175000212F220F210F021B21F01F5F23E0201BEE
:10176000022F2AE030E048E351E00E94FC37A8E372
:10177000B1E00D900020E9F71197A853B140BA2EBF
:101780009D013327802F90E004968217930714F46D
:101790001F5F0D5FE12FF0E0E55BFE4FA490DA2FB5
:1017A000D01B1D1634F08EE221DEDD2311F080E324
:1017B0001DDE011101C0DFEF48E3E42E41E0F42E0D
:1017C0008701CD2EDD24C7FCD094802F8E198B1578
:1017D00068F4F80181918F0109DE980128533140A6
:1017E0002C153D0591F78EE201DEEFCFAA2011F016
:1017F0008A2DFCDDCC2389F08C2FF8DD0EC038EE6D
:10180000C32E33E0D32EE12CF12C7ECF20E1C22E6B
:1018100027E2D22EE12CF12C77CFCDB7DEB7ECE06A
:101820000C94C5370F93062FBC0180E090E026E5AD
:101830004DEF39DF0F910895E82FF0E0EE0FFF1F15
:10184000E859FF4F8591949120910001420F20911A
:101850001001620F20E026CECF93DF93C82FD62F42
:10186000E0914801F091490148E16EE18685E4DFAD
:10187000E0914801F09149014D2F6C2F8485DCDF08
:10188000E0914801F091490140E06EE18585D4DFA7
:10189000DF91CF910895CF9389DC80E361DD62E031
:1018A00080E890E089DD80E25BDD8BEB90E09CDD01
:1018B00060E085E043DC86EA93E0E6DD68E085E011
:1018C0003DDC8EE993E0E0DD88E99AE3A0D16EDCAF
:1018D00083E146DD83E044DD84EC90E085DD61E07A
:1018E00082E02CDC8EE482DD8DE280DD80EC93E012
:1018F000CBDD69E082E022DC80E578DD8DE276DD1B
:1019000080EC93E0C1DD88E99AE381D14FDC81E38B
:1019100027DD81E225DD8DE191E066DD60E085E097
:101920000DDC8EE463DD8DE261DD85E45FDD8AEB55
:1019300093E0AADD68E086E001DC80E557DD8DE21A
:1019400055DD85E453DD8AEB93E09EDD88E99AE37B
:101950005ED12CDC81E104DD81E191E045DD81E0B7
:10196000FFDC8DEE90E040DD60E081E0E7DB8EE4BF
:101970003DDD8DE23BDD84E439DD8AEB93E084DDFF
:1019800068E082E0DBDB80E531DD8DE22FDD84E4A1
:101990002DDD8AEB93E078DD88E99AE338D106DC27
:1019A00082E3DEDC82E2DCDC83EE90E01DDD60E0E1
:1019B00085E0C4DB8EE41ADD8DE218DD85E416DDFA
:1019C00085EC93E061DD68E086E0B8DB80E50EDD64
:1019D0008DE20CDD85E40ADD85EC93E055DD88E9D8
:1019E0009AE315D1E3DB82E1BBDC8DED90E0FCDC1A
:1019F00082E0B6DC8BEC90E0F7DC61E081E09EDB1E
:101A00008EE4F4DC8DE2F2DC84E4F0DC85EC93E03F
:101A10003BDD69E082E092DB80E5E8DC8DE2E6DC3C
:101A200084E4E4DC85EC93E02FDD88E99AE3EFD0F1
:101A3000BDDB5ADB89E392E027DD5FDB84E392E0E4
:101A400023DD66DB8CE793E01FDD6DDB87E492E04E
:101A50001BDDEFDC83E492E017DDC0E08C2F8F709C
:101A600071F48C2F8F7321F488E99AE3D0D09EDB38
:101A700060E08C2F86958695869586705FDB80E288
:101A80008C0FB4DCCF5FCF3549F788E99AE3BFD03C
:101A90008DDBCF910895089503D002D001D000D0FE
:101AA00000D003D002D001D000D0A89500D003D040
:101AB00002D001D000D000D003D002D001D000D09D
:101AC00000D003D002D001D000D000D003D002D08B
:101AD00001D000D000D003D002D001D000D000004F
:101AE000089590E0893C28F0885C48EC849FC00110
:101AF0001124009709F4089520918100277019F0AE
:101B0000DBDF019718C08130910519F002973EE3A1
:101B100003C037E180E090E02091B200230F2093D2
:101B2000B30042E04093700027E023BF889526E091
:101B300023BF10927000A895DCCF8F9384E0D1DF93
:101B400007C08F9382E0CDDF03C08F9381E0C9DFB0
:101B50008F911F93182F106410937C00E12FE07871
:101B600080912E01E81759F0E0932E01AEDF8EE947
:101B700080937A0083E083BF889582E083BF20E072
:101B800030E0A901E0E01FC08EE980937A0083E095
:101B900083BF889582E083BF60917800709179005F
:101BA000260F371F411D511DE43061F48091300133
:101BB000803041F084E02030380720F417FD02C067
:101BC0001068CACFEF5F80912D01E817E8F26091AD
:101BD00031017091320117FF04C060912F017091A3
:101BE000300180E090E00E94D1362FEF33E040E0FA
:101BF00050E00E940737B901CA0120912D0130E061
:101C000040E050E00E940737C9011F910895EF920C
:101C1000FF920F931F93CF93DF93F82EE92EC5E623
:101C20004F9B05C0CF2DDE2D05E510E019C081E0EA
:101C300058DFC150A9F7F6CF82E053DF000F4F9B6A
:101C40000F5F0F730F3379F4111103C0CF2DDE2D09
:101C500014E01F5F163990F4A8951C161D0644F079
:101C6000D7FFEACF0BC00111F7CF1123A9F306C0AC
:101C70002A972097A9F7CFEFDFEFF2CF812FCDB7CB
:101C8000DEB7E6E00C94CB37CF937ADAC82F809199
:101C90004A018823D1F0813051F4C33041F46FE020
:101CA00086E04CDA8BE2A2DB6FE086E047DA80E484
:101CB0009FE1ADDFC33041F480914A01813021F4CE
:101CC00060E086E03BDAC8DB64DACF9108958CE00F
:101CD00090E00E943338382F8DE090E00E94333836
:101CE00020913501230F30913601381F20931A01BE
:101CF00030931B0183E0283E380720F0C901885E3D
:101D0000934002C080E090E062E370E00E94E03621
:101D1000683008F067E0E3EFF4E0E60FF11DE60F4E
:101D2000F11D459155912591359162E3681B421B48
:101D3000530B649FC001659F900D1124499662E387
:101D400070E00E94E036620F731F70937E01609313
:101D50007D018EE090E00E943338992787FD9095B1
:101D60006091350170913601860F971F9093300175
:101D700080932F0190937A01809379010895CF93F6
:101D8000DF9324E130E0B9010E94E036DC01E5E0B8
:101D9000F5E0E60FF71FE60FF71FC591D5914591C6
:101DA00055914C1B4A9FC0011124B9010E94E03695
:101DB0006C0F7D1FCB01DF91CF9108951895189579
:101DC00010921E0110921C011092740110925A017F
:101DD00010921D011092460110927B0110925F013A
:101DE000109260011092610110928F011092900187
:101DF00010920201109283011092840110928501C9
:101E00001092860184EF809392010895A1E0B0E0E2
:101E1000ECE0FFE00C94B13717B818B8E82FF0E009
:101E2000EE5AFE4F949195B9262F281BE20FF11D13
:101E300027FDFA95E491E92BE4B969838ADE8C01E8
:101E40006981862F86DE20913101309132013695ED
:101E50002795A90143505109B801625E7F4F46178B
:101E6000570778F4255E3F4F0217130750F4BC0163
:101E7000625E7F4F4617570720F441E082179307B1
:101E800008F040E014B8842F2196E4E00C94CD379C
:101E9000CF9361E080E0BADFC82F62E080E0B6DF78
:101EA000C80F62E081E0B2DF8C0FCF910895A3E10B
:101EB000B0E0EDE5FFE00C94A337182F10921E015F
:101EC000807FA9F4E5DF833009F0C4C36FD981E8CE
:101ED00094E0DADA12D98FE389DA80ED97E097DEC1
:101EE0008B30C8F463D986E292E0CEDAB3C3A6E9B8
:101EF000FA2E00E05BD988EE93E0C6DAC9DF8330C2
:101F000021F40F5F043010F006C000E088E2E9DD44
:101F1000FA9481F76CC0F1D882EE91E0B5DA60E016
:101F200083E090E00E94403860E084E090E00E940E
:101F3000403860E082E090E00E94403860E082E05B
:101F40000E949B225C019A83898361E082E00E9467
:101F50009B226C019C838B8360E081E00E949B222A
:101F60007C019E838D83B501882777FD8095982F0E
:101F700003E020E24EEF97DBB601882777FD8095DE
:101F8000982F20E24EEF8FDBB701882777FD8095F1
:101F9000982F24E04EEF87DB2AE5A216B10424F047
:101FA00084E190E09A838983698183E090E00E94D4
:101FB00040388AE5C816D10424F084E190E09C837F
:101FC0008B836B8184E090E00E9440389AE5E916AB
:101FD000F10424F084E190E09E838D836D8182E0A2
:101FE00090E00E94403882E080934A014DDE1F70ED
:101FF0001F87113009F04FC001E010E058EB252E8B
:1020000052ED352E57E4452E512C62E0A62E78E095
:10201000972EECE06E2EF4ECCF2EF6E3DF2EE12CC3
:10202000F12C3BC0839423E0281568F11DDA19DAFE
:1020300084E5DCD9C80164DAFCD9E1E0BE1232C023
:102040000E94A71F85E192E01FDA64E080913501CC
:1020500090913601E7DB51D880E192E015DA80916A
:102060007D0190917E014CDA8EEB80932D0117B8A3
:1020700018B814B815B888EE93E0C9DDF4E0BF16BF
:1020800089F28B3078F288EE93E0C1DD0F5F1F4F4D
:102090000830110511F418E71CC1812CB02EB0E2F4
:1020A0007B2EC4CFF2E0BF1241C0209131013091AC
:1020B0003201A8E5BBE10E94B236A70196010E9459
:1020C000293781E085B985E084B980E0288B398B98
:1020D0004A8B5B8B32DD288939894A895B89821B6F
:1020E000930B9A83898381E184B980E0288B398BB3
:1020F0004A8B5B8B22DD288939894A895B89821B5F
:10210000930B9C838B8384E085B984E184B981E05F
:10211000288B398B4A8B5B8B10DD28893989821B90
:10212000930B9E838D838AEF91E0B7C093E0B91241
:1021300029C0A5B8EAE0E4B980E0FFDC20913101D4
:10214000309132013695279538872F83821B930B68
:102150009A838983F2E2F4B980E0EFDC2F8138853D
:10216000821B930B9C838B8395B828E224B981E072
:10217000E4DC2F813885821B930B9E838D838CEE4C
:1021800091E08BC084E0B81207C081E794E07CD96D
:102190007FDE81115CC287C095E0B91213C015B80B
:1021A000A4B880E0CADC9A83898394B881E0C5DC56
:1021B0009C838B8374B882E0C0DC9E838D838CE02B
:1021C00092E06BC0E6E0BE1227C0A4B8A5B880E0DC
:1021D000B4DC2091310130913201821B930B9A8340
:1021E000898394B895B881E0A8DC209131013091C1
:1021F0003201821B930B9C838B8374B875B882E089
:102200009CDC2091310130913201821B930B9E8323
:102210008D8388E092E041C0F7E0BF1240C020917A
:10222000310130913201A8E5BBE10E94B236A20132
:1022300091010E940737A5B883E084B980E0288B1C
:10224000398B4A8B5B8B79DC288939894A895B8990
:10225000821B930B9A83898395B864B881E0288B9D
:10226000398B4A8B5B8B69DC288939894A895B8980
:10227000821B930B9C838B8375B890E394B982E0A7
:10228000288B398B4A8B5B8B58DC28893989821BD8
:10229000930B9E838D8386EE91E0F6D804C0E1E037
:1022A000BE1609F4E4CE0E947D0889819A811DD969
:1022B000C0D88B819C8119D9BCD88D819E8115D9BC
:1022C000D6CED2D881E794E0DFD884E60ADC11507C
:1022D00019F0DEDD8111F5CF0E94D6088BED91E07B
:1022E000D3D8609133017091340180E090E003E035
:1022F00024E04FEFD8D90E947D0884ED91E0C4D846
:10230000609144017091450180E090E024E04FEF3E
:10231000CAD982E080934A01B7DC10921E010E9464
:10232000D60880ED91E0B0D860E082E00E94821C87
:1023300000918701109188011C870B8761E082E082
:102340000E94821CC0908701D0908801DE86CD86D5
:1023500060E081E00E94821CE0908701F09088019B
:10236000FE82ED8262E080E00E94821C8091870103
:10237000909188019C838B8362E081E00E94821CA3
:1023800080918701909188019A87898761E080E038
:102390000E94821C80918701909188019A83898391
:1023A000EF85E13021F020914301223021F40296A3
:1023B00098878F8304C098878F8310924301B80158
:1023C000882777FD8095982F03E020E240E06BD9C5
:1023D000B601882777FD8095982F20E240E063D9E9
:1023E000B701882777FD8095982F26E444EF5BD9C5
:1023F0006E01FFE0CF0ED11CFE01319681919191CB
:102400000A97853B9105E8F4EC15FD05B9F7A5E0C1
:10241000EA2EA0E0FA2E8E010F5F1F4FF8016081B7
:102420000E5F1F4F6E5EC7010E944038FFEFEF1A2C
:10243000FF0A0C151D0591F70E947D0886ED93E0BB
:1024400023D882E080934A011FDC2F85213029F0B8
:1024500080914301823009F0E4C0E0E4BE2E10E038
:10246000FAE0CF2ED12CE12CF12C0E94D60880E08E
:102470000E94170A8CE793E007D882E00E94170AAF
:1024800083E491E001D810921E0160E082E00E9496
:10249000821C0091910160917F0170918001809177
:1024A000810190918201073F44F4A70196010E94A7
:1024B00007370F5FB901CA01F6CF0093910160930E
:1024C0007F01709380018093810190938201073F87
:1024D00009F092C0DC01CB0180569109A109B10934
:1024E00080399545A105B10508F086C0609193013A
:1024F00070919401CB018B569F4F8B32914008F025
:102500007BC01F5F153008F478C08CE090E00E941B
:102510004E380E94D6088CE391E00E94440A8091D4
:102520009301909194010E94750AD1DB18B881E063
:1025300087B980E284B982E00CDB853D9340DCF70B
:1025400014B81092300110922F0182E002DB8C014E
:102550008091790190917A019093300180932F01BD
:1025600082E0F7DA7C01EE0CFF1C10923001109231
:102570002F0182E0EEDAC0907901D0907A01D092FA
:102580003001C0922F01080F191F0E191F090E9458
:102590007D0885E391E00E94440A8EE090E00E946D
:1025A000333873E0B72EB80E9601D8010E94C136B9
:1025B0009701442737FD4095542F0E942937B20ECA
:1025C0006B2D8EE090E00E9440388B2D992787FD7F
:1025D00090950E94750A7BDB82E080934A0154DB70
:1025E0001092430185E090E00E943338682F88E024
:1025F00090E00E94403815C010E00E947D08609174
:102600007F0170918001809181019091820104E0AD
:1026100026E44091910147D888E263DABA9409F040
:1026200024CF89E180932D010E94D60886E292E0B2
:102630000E94440A0E947D0888E694E00E94440AB1
:1026400010921E0182E080934A011EDB03C052E01B
:10265000852E29CE6396E2E10C94BF378091430129
:1026600081110DC085E090E00E94333861E0680F71
:1026700088E090E00E94403881E080934301089513
:10268000CF92DF92FF920F931F93CF93DF931F920E
:10269000CDB7DEB7E82FF0E0EB5AFE4FE491E8B992
:1026A000E7B915B8E62FF0E0EE5AFE4FE491E4B931
:1026B00008E813E1FE2EFF0C862F69833EDA6C01D9
:1026C000F4B869818017910710F48C01F5CF009759
:1026D000F9F00E9493088CE593E00E94440AD60129
:1026E00020EA36E841E050E00E94C73628E937EB9F
:1026F00040E050E00E940737CA01B90188279927B6
:1027000002E021E447EF0E94530B17B818B814B841
:102710000F90DF91CF911F910F91FF90DF90CF909D
:1027200008950F931F93CF93DF9385E012DA85E02E
:102730000CDAEC018C01000F111F000F111F0A565B
:102740001F4F10923701043883E0180750F48AECC9
:1027500093E00E94440A0E942C0A81E08093370192
:1027600025C089ED93E00E94440A62E0C8015AD86E
:102770000E94190ACA3F86E0D80790F4C333D640B6
:1027800060F48CED94E00E94440A0E942C0A8DECC7
:10279000A8D91BB88AECA5D909C083EE94E002C081
:1027A00086ED93E00E94440A0E942C0ADF91CF91AB
:1027B0001F910F910895A4E1B0E0E1EEF3E10C94D4
:1027C000A337982E862E442EA895E62FF0E0EE5AD9
:1027D000FE4F54903396E490E42FF0E0EE5AFE4F13
:1027E0006490E82FF0E0EE5AFE4FF4903396749028
:1027F00065B8262D25292C8B24B977B878B8862F73
:10280000A4D99E838D8354B8882D9FD91C0114B8F8
:1028100053D915B83C8934B9882D97D94D815E813B
:102820008417950720F5805E9E4F4817590708F4D6
:10283000BDC4E7B818B8F5B88F2D862984B9609162
:102840003101709132017E836D83892D7ED9AD81F6
:10285000BE81A81BB90BBE83AD83F4B820903101B3
:1028600030903201892D71D9281A390A08C02D817A
:102870003E81205E3E4F8217930708F497C4209153
:102880005A018091740190E0820F911D02974CF0E3
:10289000213009F08BC490915701809171019813F8
:1028A00085C4162D110FED81FE81E437F10508F482
:1028B0009CC0CF01880F991F44962816390608F04E
:1028C00094C077B878B8812F852984B9882D39D9F3
:1028D0006C01842D3ED95C0115B9882D32D9960141
:1028E000295A3D4F1F2918B8E7B814B915B9281748
:1028F0003907A8F5842D25D988349F4028F084E035
:1029000080931E0182E204C084E080931E0184E271
:1029100080931D01D0925001C0924F01AC14BD04B0
:1029200040F4C6018A199B09909356018093550182
:1029300004C010925601109255019601A0E1B7E231
:102940000E94B236209118013091190140E050E008
:102950000E94073730935201209351011FC4892DE3
:10296000F0D88C01842DF5D86C01F5B8892DE9D803
:10297000895A9D4F8017910708F018C478B877B826
:10298000842DDFD8813D934028F484E080931E019C
:1029900082E304C084E080931E0184E380931D01E0
:1029A0000C151D0538F4C01AD10AD0927001C092DE
:1029B0006F0104C01092700110926F0120913101DB
:1029C00030913201201B310BA0E1B7E20E94B236F8
:1029D00020911F013091200140E050E00E94073714
:1029E00030936C0120936B01A9C118B8E7B8F5B812
:1029F0000F2D062904B9892DA8D898878F83C090F8
:102A00003101D0903201842DA4D89A8389830A970A
:102A100098F514B881E065D8812F8F2984B9892D64
:102A200094D898878F834091310150913201481B8F
:102A3000590B5C834B83842D8CD89A838983809136
:102A40001F01909120019C0140E050E060E677EB8F
:102A500087E490E00E940737AB81BC810E94C736B3
:102A6000A981BA819D0140E050E00E940737298783
:102A70003A874B875C8716C0F6012F813885E21BA9
:102A8000F30BFC83EB83CF0149815A81841B950BA7
:102A9000BA010E94E036CB01A0E0B0E089879A87B6
:102AA000AB87BC8714B815B878B877B881E019D867
:102AB00099EB291697E0390608F078C3AC89A4B9D8
:102AC000882D43D88F359D4008F43EC114B881E06D
:102AD00008D8EC89E4B981E004D8F12FF529FB8B03
:102AE000F4B9882D32D86C01842D33D89E878D8718
:102AF000892D2FD85C012D853E85213D374008F476
:102B0000AEC083E080931E018DE080931D013601ED
:102B10002C143D0410F462187308E0901801F09032
:102B2000190100E010E060E677EB87E490E0A8018F
:102B300097010E940737D3010E94C736AD85BE8535
:102B40009D0140E050E00E94073780917401882386
:102B500069F08091650190916601A0916701B09143
:102B6000680182179307A407B50700F52093650154
:102B70003093660140936701509368019601A0E18C
:102B8000B7E20E94B236A80197010E94073730933E
:102B90006C0120936B01C501ED85FE858E1B9F0B9B
:102BA00090936A018093690121E001C020E0809147
:102BB000650190916601A0916701B0916801498516
:102BC0005A856B857C8584179507A607B70738F566
:102BD00040936501509366016093670170936801AB
:102BE0008F81988569817A81861B970B90936A0102
:102BF000809369012B813C81A0E1B7E20E94B2364B
:102C000020911F013091200140E050E00E940737E1
:102C1000205F384D30936C0120936B0103C0222359
:102C200009F488C39101A0E1B7E20E94B236A8017D
:102C300097010E94073730936E0120936D012D811B
:102C40003E81A0E1B7E20E94B236A80197010E943E
:102C500007373093700120936F0121E06BC371E659
:102C60002716310408F070C081EDC81687E0D80639
:102C700008F46AC084E080931E0182E180931D0104
:102C8000C60186509F4F8A159B0520F483E18093EF
:102C90001D011AC0CA14DB0498F4A0911801B09168
:102CA000190195012C193D090E94B236960140E0A8
:102CB00050E00E94073730936A012093690104C0F5
:102CC00010926A01109269019E2D9770E92E842D51
:102CD000806480937C007BE0F72E01E010E0CC2440
:102CE000CA94E3E0DE2EA89561E0862D28D5AB8955
:102CF000A4B986B18E21E9F354B880917A0080643A
:102D000080937A0080917A0086FDFCCF80917800D4
:102D100090917900F601E81BF90B0E0F1F1FFA9432
:102D200011F7C801880F991F880F991F69E070E09B
:102D30000E94E0367093700160936F01809174017E
:102D40008F5F8093740189CFFC89F4B965B8882DB1
:102D50000E94A50D5C01842D0E94A90D9C838B838C
:102D60006091310170913201681B790B6A307105F5
:102D700090F514B881E00E94710D812F852984B9E6
:102D800015B9882D0E94A50D5C01842D0E94A90D06
:102D90009C838B8380911801909119019C0140E0E4
:102DA00050E060E677EB87E490E00E940737D501BA
:102DB0000E94C73620913101309132014B815C81F4
:102DC000241B350B40E050E00E94073729873A87E3
:102DD0004B875C870CC0C501861B970B0E94E036B1
:102DE000CB01A0E0B0E089879A87AB87BC87E7B8C2
:102DF00018B804B905B9892D0E94A50D98878F834D
:102E0000842D0E94A90D9A838983882D0E94A90D83
:102E10006C012F8138852034364008F0C5C1F5B8E3
:102E2000892D0E94A50DAC01F4B8892D498B5A8BD0
:102E30000E94A50D9C0115B881E02F87388B0E9458
:102E4000710DF5B8892D0E94A50D2F853889498906
:102E50005A892034364008F059C08133914108F432
:102E600055C08F8198858A569F4F4817590708F09B
:102E70004DC085E080931E0180915A018F5F809341
:102E80005A0189819A818C199D09909350018093F0
:102E90004F012F8038842C183D0830925601209223
:102EA000550114B815B8E8B881E00E94710DF4B866
:102EB000892D0E94A50D853F910508F049C204B9EE
:102EC000842D0E94A50D813D934008F441C2892DB7
:102ED0000E94A90D8D3D924008F43AC2F4B8892DA4
:102EE0000E94A50D8D3D924008F432C2F5B881E0F4
:102EF0000E94710D15B8892D0E94A50D853F910581
:102F000008F026C286E080931E0122C204B905B9EA
:102F100081E00E94710DD12EDF28D4B8D5B8892D5B
:102F20000E94A50DAC010091310110913201081BE6
:102F3000190B842D498B5A8B0E94A90D9E878D8772
:102F40002091310130913201281B390B3A832983BA
:102F5000882D0E94A90D98878F8349895A89698194
:102F60007A816E3F794008F4B0C083E080931E01FF
:102F70008CE080931D0138012016310610F4621890
:102F8000730880911F01909120016C01E12CF12CBC
:102F900060E677EB87E490E0A70196010E9407378F
:102FA000D3010E94C736A981BA819D0140E050E05B
:102FB0000E94073780915A01882369F080914B0164
:102FC00090914C01A0914D01B0914E018217930751
:102FD000A407B50708F520934B0130934C014093AB
:102FE0004D0150934E018D859E85EF81F8858E1B96
:102FF0009F0B9093500180934F019801A0E1B7E29D
:103000000E94B236A70196010E9407373093520101
:103010002093510121E001C020E080914B0190916B
:103020004C01A0914D01B0914E0149855A856B85A7
:103030007C8584179507A607B70720F540934B01B9
:1030400050934C0160934D0170934E018B819C8194
:103050008A199B099093500180934F019501A0E13B
:10306000B7E20E94B236209118013091190140E078
:1030700050E00E940737205F384D30935201209373
:10308000510103C0222309F464C19101A0E1B7E218
:103090000E94B236209118013091190140E050E0B1
:1030A0000E94073730935401209353012D813E81B4
:1030B000A0E1B7E20E94B236A70196010E9407374D
:1030C000309356012093550143C161E62616310421
:1030D00008F06AC009347DE0170708F465C084E091
:1030E00080931E0182E080931D018F819885865018
:1030F0009F4F8417950720F483E080931D011CC027
:103100008F8198858417950798F4A0911F01B0913D
:1031100020019A01281B390B0E94B236980140E029
:1031200050E00E9407373093500120934F0104C0B4
:103130001092500110924F01072D0770842D80646A
:1031400080937C001BE0AA24A394B12CA89560E096
:10315000862DF5D2D4B8D5B886B18023E9F7F4B876
:1031600080917A00806480937A0080917A0086FD55
:10317000FCCF8091780090917900A80EB91E115073
:1031800029F7C501880F991F880F991F69E070E022
:103190000E94E036709356016093550180915A0168
:1031A0008F5F80935A01D4C017B818B814B815B8F7
:1031B00017B897EC291691E0390608F4B0C018B892
:1031C00018EC072D0E2907B981E00E94710DE7B8B0
:1031D000892D0E94A90D429710F01150A1F7452C9E
:1031E000440C3F2C330C34B835B861E0862DA7D29F
:1031F000892D0E94A50D8C0144B815B877B878B810
:1032000060E0862D9CD2A0903101B0903201882DD3
:103210000E94A50D6C0154B8892D0E94A50D9A83BA
:103220008983882D0E94A90D29813A81281B390B99
:103230003A83298318B8E7B8F4B8F5B861E0862D69
:103240007ED2892D0E94A50D7C01882D0E94A90D9A
:10325000E81AF90A49815A814E155F0540F434B8DD
:1032600035B8892D0E94A50DFA82E98215C0850125
:103270000C191D0944B815B877B878B860E0862DE8
:103280005ED2E0903101F0903201882D0E94A50DB0
:10329000B701681B790BCB0129813A812759310984
:1032A00029383141E0F529813A8182179307B8F531
:1032B000C80133E0969587953A95E1F7893C9105E9
:1032C00010F088EC90E0800F911F49815A8184179B
:1032D000950728F5CA0124E0969587952A95E1F788
:1032E00080179107E0F480911E01823018F482E08B
:1032F00080931E0180911C01E82FF0E0DF01AB56A6
:10330000BE4F9C9216968C92EE0FFF1FEF55FE4F0C
:1033100029813A81318320838F5F80931C01682D3E
:10332000892D25D017B818B814B815B86496E2E1FD
:103330000C94BF37809174018F5F809374012223B6
:1033400089F3409271018092720190927301EACFE9
:1033500021E080915A018F5F80935A01222311F35B
:10336000409257019092580180925901DBCFA0E022
:10337000B0E0EDEBF9E10C94A537982E862EA895D8
:10338000E62FF0E0EE5AFE4FB49033962491E82FEA
:10339000F0E0EE5AFE4FE4903396F49030917401D1
:1033A00080915A0190E0830F911D892B09F0C2C1D1
:1033B000A8958091310190913201880F991F880F53
:1033C000991F909332018093310180912F01909148
:1033D0003001880F991F880F991F909330018093B7
:1033E0002F018EEB80932D0118B827B9E4B8E5B80A
:1033F00058E1D52EC0E0D0E0882D0E94A50D582EB2
:10340000492E892D0E94A90D8C018C1B9D0B97FFC5
:1034100003C091958195910903972CF0A895DA94B2
:10342000C1F1E801E9CFEE0C15B8E4B8892D0E948E
:10343000A50D8135910568F5E5B8892D0E94A50D8A
:10344000EC01F7B8F8B815B8B4B888E1A82EC12CCB
:10345000D12C892D0E94A50D782E692E882D0E94D1
:10346000A90D7C018C199D0997FF03C09195819549
:103470009109039734F5BB0CB4B8882D0E94A50DB3
:103480005C01003C94E4190708F5C53881E0D807D1
:1034900008F180913101909132019695879596952A
:1034A00087959093320180933101809179019091B9
:1034B0007A019093300180932F0189E180932D014F
:1034C00039C1A895AA9429F36701C3CFC03B9DE4F5
:1034D000D907F8F6C0903101D090320184EAE8169D
:1034E00082E0F80608F05FC098E9A916B10488F2F6
:1034F0009E01A8E9B7EB0E94B23696012C1B3D0B4A
:1035000040E050E00E94073729013A0196012A194C
:103510003B09A8E9B7EB0E94B236850120E030E014
:10352000A90198010E940737C837DF4070F4C30132
:10353000B201B2E0660F771F881F991FBA95D1F7C5
:10354000620F731F841F951F12C098E7A9169FE092
:10355000B906A0F4CA01B901A2E0660F771F881F5F
:10356000991FAA95D1F7640D751D861D971D25E03D
:1035700030E040E050E00E94073708C0240D351DC0
:10358000461D571D5695479537952795A4E6B0E0FB
:103590000E94C7366B017C018CEAC80E8DE0D81EF4
:1035A000E11CF11C70C0252D342D0217130708F4FF
:1035B0009801C72DD62DCE15DF0508F4E701590176
:1035C0002017310708F45801A0911F01B091200184
:1035D000C501821B930B9C010E94B23696012A19E9
:1035E0003B0940E050E00E94073729013A018E0173
:1035F000EC16FD0608F48701A0911801B09119019D
:103600009E01201B310B0E94B2366801E12CF12C87
:10361000A70196010E94073798E7A9169FE0B9060F
:1036200070F4C301B201E2E0660F771F881F991F93
:10363000EA95D1F7620F731F841F951F11C00837D9
:103640008FE01807B0F4CA01B90152E0660F771F86
:10365000881F991F5A95D1F7640D751D861D971DFA
:1036600025E030E040E050E00E94073769017A0130
:103670000AC069017A01C40CD51CE61CF71CF6943B
:10368000E794D794C79410911E01133008F001CF2E
:103690009A94980C892D90E0EC01C15ADE4F288154
:1036A000880F991F880F991FFC01E255FE4F2223B6
:1036B000D1F14080518062807380A7019601241966
:1036C00035094609570957FF07C050954095309571
:1036D00021953F4F4F4F5F4FAAE0B0E00E94C736A1
:1036E000A30192012C593F4F4F4F5F4F2C0D3D1DB1
:1036F0004E1D5F1D0E940737232B242B252B09F01D
:10370000C8CE123019F081E080931E0182E08883D8
:1037100080917B01E82FF0E0EE59FE4F90828F5FA1
:1037200080937B01B6CEC082D182E282F38281E0B7
:103730008883AFCECDB7DEB7E0E10C94C137CF932D
:10374000C82FC09595B160FF02C0982B01C09C2383
:1037500095B994B1982B94B982E00E94710D84B10F
:103760008C2384B985B18C2385B9CF910895A0E0CD
:10377000B0E0EDEBFBE10C94AC378AE0D82E9FE390
:10378000B92E28E0C22E17B818B815B8B4B880E022
:103790000E94A50D8C0181E00E94A90DEC0182E040
:1037A0000E94A90D20911E01283079F417B814B891
:1037B0001093060100930501D0930801C0930701FF
:1037C00090930A018093090158C031E0C430D105BB
:1037D00008F030E021E00430110508F020E0232358
:1037E00019F08430910510F321E0083E134008F0F1
:1037F00020E0C83ED34008F42260883E934008F49D
:10380000246027B9C0E0D0E0A89580E00E949D0D1B
:103810007C0181E00E94A90D8C0182E00E94A90D2B
:1038200024E1E21625E0F20608F4389A043135E086
:10383000130708F4399A843125E0920708F43A9A7C
:1038400036E0E316F10428F40630110510F406976B
:1038500038F02196C43F81E0D807B1F6C0921E012E
:1038600000E010E00C171D0729F00E94600D0F5FAB
:103870001F4FF8CFDA9409F086CFCDB7DEB7E9E075
:103880000C94C837CF92DF92EF92FF92CF932091A2
:103890007F01309180014091810150918201C0915E
:1038A00091018AE0C82ED12CE12CF12C8C2FCF5F16
:1038B000213A96E8390791E04907510538F0CA01E5
:1038C000B901A70196010E940737F0CF80939101BB
:1038D000A0913101B09132010E94C73628E833E14E
:1038E00040E050E00E94073720937F013093800131
:1038F0004093810150938201CF91FF90EF90DF9030
:10390000CF900895A0E0B0E0E8E8FCE10C94AB377C
:10391000C82FD62F8FEF860F9C2F990F9C0F890FE2
:1039200080935C01EC2FF0E0EE5AFE4F1491862F4D
:1039300090E0FC01EE5AFE4FF490FC01EB5AFE4F72
:10394000049180911E01813009F485C240911C01CF
:103950008BE991E061EA71E0DC012A2F281B241732
:10396000A0F42D912D130EC09D0127503109F901AE
:1039700020812C1307C0FB01208131812C3D354073
:1039800008F469C26E5F7F4FE8CF10928C011092ED
:103990008B0110927F011092800110928101109290
:1039A000820110929101E3DE18B807B9F4B8F5B8B6
:1039B0008C2F0E94A90D6C018D2F0E94A90DC81A91
:1039C000D90A14B810925E0110925D01E12CF12C1D
:1039D00020915D0130915E01243F314050F515B9D1
:1039E00014B90E945B0D14B815B80E94610DA8951A
:1039F0008C2F0E94A90D7C01EC18FD0880915D01BF
:103A000090915E018E37910528F02BE4E216F104C7
:103A10000CF41DC25DE2E51651E0F50684F48091D8
:103A20005D0190915E01019690935E0180935D012E
:103A3000CFCFEDE2EE16E1E0FE060CF408C22091D5
:103A40005D0130915E01232B21F0C70100E010E001
:103A500006C0F5E1EF16F5E0FF06BCF375C0209156
:103A60005D0130915E012017310758F00E945C0D16
:103A70008C2F0E94A90D8C199D09A8950F5F1F4FCF
:103A8000EECF8701081B190B1016110694F4093CA0
:103A900011050CF0DCC128EE33E0D8010E94C136DC
:103AA0009701442737FD4095542F0E94073769013D
:103AB00002C0C12CD12CA0905D01B0905E012FEF0F
:103AC000A21AB20AC501A0E0B0E0809387019093EA
:103AD0008801A0938901B0938A01C701800F911FCB
:103AE00007D29C01D5010E94B23660938701709382
:103AF00088018093890190938A0160937F0170937C
:103B00008001809381019093820187EF80939101DE
:103B1000B9DE20917F013091800140918101509167
:103B20008201A8EEB3E00E94C73624E630E040E010
:103B300050E00E94073720937F013093800140932B
:103B400081015093820141C112DE15B887E087B927
:103B500018B8F12EFF0CF4B880E480937B0084E564
:103B600080BF8C2F806480937C0086E180937A00F4
:103B70000E94640D10925E0110925D01109280000F
:103B8000109285001092840087E286BB81E28093C8
:103B90006F0081E080937C01F5B890911E018093C5
:103BA0008100943059F481E090E00C2E01C0880F20
:103BB0000A94EAF78095877087B901C007B9F8942D
:103BC00083B7817F83BF80917C01882389F083B78D
:103BD000816083BF7894889583B78E7F83BFF89484
:103BE000A89580915D0190915E018034964059F7CF
:103BF000789410928100E0908600F09087001092F7
:103C00006F0086E980937A0014B815B88C2F0E9453
:103C1000A90D2091350130913601821B930B0C9632
:103C2000909394018093930180915D0190915E0146
:103C30008032934008F00BC180915D0190915E014C
:103C400090938A0180938901F0928801E092870124
:103C500084EF8093910180915D0190915E018234A7
:103C60009105C8F060918701709188018091890168
:103C700090918A0124E630E040E050E00E9407374E
:103C800020938701309388014093890150938A01E2
:103C900086EF80939101A0917D01B0917E012091EA
:103CA0008701309188014091890150918A010E94D9
:103CB000C73620E233E040E050E00E94073720930F
:103CC0008701309388014093890150938A012093A2
:103CD0007F01309380014093810150938201D2DDB6
:103CE00080919101843F09F060C0C0907F01D09025
:103CF0008001E0908101F0908201F0EACF16FFE0B0
:103D0000DF06E104F104C0F4A70196012C543F4FF3
:103D10004F4F5F4F60EA7FE080E090E00E940737FE
:103D20002C0D3D1D4E1D5F1D20937F0130938001A2
:103D3000409381015093820180915C0190E08B5F00
:103D40009F4F0E943338C0907F01D0908001E09057
:103D50008101F0908201482F50E060E070E04C1546
:103D60005D056E057F0568F4C41AD50AE60AF70AF0
:103D7000C0927F01D0928001E0928101F092820195
:103D800014C024E1C20ED11CE11CF11CC416D506DE
:103D9000E606F70610F40E942E1310927F0110928F
:103DA0008001109281011092820114B980917F01EB
:103DB00090918001A0918101B09182014997A10564
:103DC000B10508F444C0C12CD12C80911C0188237A
:103DD00021F080911E018430D1F587E080931E018F
:103DE00020919101809192018217BCF028132FC07D
:103DF00040917F0150918001609181017091820119
:103E00008091830190918401A0918501B0918601F8
:103E100084179507A607B707D0F480917F0190918A
:103E20008001A0918101B0918201809383019093E0
:103E30008401A0938501B093860120939201D092D2
:103E40008E01C0928D01D0938F01C093900117B85D
:103E500018B814B815B8CDB7DEB7EAE00C94C73778
:103E60001F920F920FB60F9211248F939F93B599C3
:103E700004C080917C01811109C0B59B10C0809164
:103E80008600909187008A3F910548F480915D01FA
:103E900090915E01019690935E0180935D019F91E8
:103EA0008F910F900FBE0F901F9018951F920F9239
:103EB0000FB60F9211248F939F9310927C01B09BA9
:103EC00010C080918600909187008A3F910548F448
:103ED00080915D0190915E01019690935E018093C7
:103EE0005D019F918F910F900FBE0F901F901895BD
:103EF0000F9221E08C32920710F48CE291E08C5208
:103F0000914069E170E00E94E03699E16B3210F077
:103F1000982F6BE2981BE3E6F5E0E60FF11DE60F44
:103F2000F11D4591559125913591692F421B530BF8
:103F3000649FC001659F900D11240C9669E170E0AB
:103F40000E94E036620F731FCB010F900895A0E02E
:103F5000B0E0EDEAFFE10C94A93788E893E1909393
:103F60003201809331018EEB80932D0118B880E1EE
:103F700087B90E94690D17B884E00E94A50DAC01B5
:103F80008B5C9840833F9140A0F481E08093460190
:103F90002091310130913201AFEBB9E00E94B2368D
:103FA0009A0140E050E00E9407373093320120939D
:103FB00031018EE00E94A90D8EE00E94A50D909324
:103FC0003601809335010E94670EC1E0C7B9C5B9BB
:103FD000C4B980E00E94A50D7C0112E017B984E00D
:103FE000982E95B894B881E00E94A50DE80EF91EB0
:103FF00097B890E1892E85B884B882E00E94A50D1B
:10400000E80EF91E15B8C8B9C7B9C4B9C0913101D5
:10401000D091320180E00E94A50D5C0118B917B95A
:1040200094B8009131011091320181E00E94A50DF8
:104030006C0198B897B884B88090310190903201A3
:1040400082E00E94A50DC00FD11FC80DD91DCA194D
:10405000DB09CC19DD09C81BD90B80913101909186
:1040600032014C01880C991C880E991E8E189F08ED
:104070008C1A9D0AA12CB12C9701A0E9BAE10E94EB
:10408000B236A50194010E94073769017A01309385
:104090004501209344019E01A0E9BAE10E94B23695
:1040A000A50194010E940737309334012093330116
:1040B0002057354E3093200120931F0180E7C81A06
:1040C00085EED80AD0921901C092180189E1809337
:1040D0002D01CDB7DEB7ECE00C94C537A3E1B0E01D
:1040E000E4E7F0E20C94A3371092020180911E01E4
:1040F000813009F01CC280917B01813009F017C228
:104100002090620124E0229EF0011124E255FE4F2E
:1041100080819181A281B381893032E59307A10525
:10412000B10508F004C29B8B8A8B312C61E0822D93
:10413000631528F00E94DB0AB82EA92E03C00E9446
:10414000DB0A5C01EA2DF0E0EB5AFE4F74908B2DF8
:1041500090E0FC01EE5AFE4FE49115B818B82A8998
:104160003B89203F3105A0F430FC12C000911801BA
:104170001091190100591A4121E030E00B2C02C0C6
:10418000220F331F0A94E2F7C901872987B906C0B5
:10419000E4B977B8009118011091190144E1642E37
:1041A0008B2D0E94A10D4C018A2D0E94A90D34E097
:1041B0008316910410F4049710F06A9489F760E470
:1041C00060937B0084E580BF8B2D806480937C00AE
:1041D00096E190937A00E12CF12C109280001092DD
:1041E00085001092840087E286BB0E94640D232D17
:1041F0002170298B30FC05C081E88093810078B85C
:1042000008C078B80E946D0D80E286BB81E880937B
:10421000810046B345FF12C018B81092810080E2B9
:1042200086BB80918600909187006C01209184006C
:10423000309185008217930768F013C040FFE9CFE3
:1042400031E036BBA895C70101967C018035910508
:1042500001F7E2CF40FF05C061E066BB8FEFE81ACF
:10426000F80A86E980937A0034E1732E8B2D0E9440
:10427000A10D4C018A2D0E94A90D24E08216910403
:1042800010F4049710F07A9489F78090440190908C
:1042900045018A899B89880E991E800E911E209166
:1042A0001A0130911B0100399AE11907B0F461EE4F
:1042B000C616D104E104F10438F4C60165E070E0EB
:1042C0000E94E036645101C069E128523109261B81
:1042D000310967FD339586E009C0C40160EB76E3E0
:1042E0000E94E03687E0860F285D3F4F90E0A0E017
:1042F000B0E08C159D05AE05BF0528F4C81AD90A93
:10430000EA0AFB0A03C0C12CD12C760189898823D3
:1043100029F092E2C90ED11CE11CF11C60E5E61601
:10432000F10418F0C12CD12C76018BE0C816D10411
:10433000E104F10428F091E0C91AD108E108F1087C
:104340004091310150913201A12CB12CA8EEB3E083
:104350000E94B2362B013C019801DA010E94B2366C
:10436000A50194010E94073744275527C301B201D4
:104370000E940737C9010E94BF0EFC01A5019401EC
:10438000C701B6010E94D1364B015C01BF0180E03C
:1043900090E023E0660F771F881F991F2A95D1F7B9
:1043A0006B5F7F4F8F4F9F4F2AE030E040E050E03F
:1043B0000E940737C501B4010E940737832D90E0A2
:1043C000E1E0F0E0EC0FFD1F64E0369EE00DF11D32
:1043D000112420833183428353836989611117C07B
:1043E0006CE0C616D104E104F10488F0FC013196BA
:1043F000EE0FFF1FEE0FFF1F81E090E08C0F9D1F5F
:10440000E80FF91F20833183428353833394A895A7
:10441000339493E0931508F089CE18B884E00E9495
:10442000710D21E04D815E816F81788589819A814E
:10443000AB81BC8184179507A607B70708F020E079
:104440004D855E856F85788989859A85AB85BC8524
:1044500084179507A607B70710F032E001C033E0D4
:10446000E22FF0E0EE0FFF1FEE0FFF1F81E090E064
:104470008C0F9D1FE80FF91FDC0194E0399FA00D00
:10448000B11D11244D915D916D917C91808191813F
:10449000A281B381481759076A077B0708F0322FBA
:1044A000E1E0F0E0EC0FFD1F24E0329FE00DF11D94
:1044B000112480819181A281B38180930B0190931B
:1044C0000C01A0930D01B0930E0130FD09C02A89A3
:1044D0003B89203F310520F48BEF8093020117C008
:1044E0002CEF20930201BC01CD016B5F7F4F8F4FFA
:1044F0009F4F2AE030E040E050E00E9407372093D1
:104500000B0130930C0140930D0150930E018091EB
:104510000B0190910C01A0910D01B0910E01892B1E
:104520008A2B8B2B11F41092020117B814B86396E2
:10453000E2E10C94BF372F923F924F925F926F92BD
:104540007F928F929F92AF92BF92CF92DF92EF9223
:10455000FF920F931F93DF93CF93CDB7DEB76E9784
:104560000FB6F894DEBF0FBECDBF662EB82E860FF5
:10457000898320911E01273041F5209183013091DC
:10458000840140918501509186011091920109C0EA
:10459000CA01B9012AE0312D412D512D0E94073762
:1045A0001F5F173FACF32A3560E036074105510520
:1045B00018F48FEF9FEF81C1173F39F480E028177F
:1045C0008DE738074105410510F020E03DE72C8BD1
:1045D0003D8B26EDA22E02C094EDA92EE5E5F1E07B
:1045E000E60DF11D859180608E87E5E5F1E0EB0D2C
:1045F000F11D859180608F87E2E5F1E0E60DF11D08
:104600007590E2E5F1E0EB0DF11DC59090EC692AA3
:10461000B92A81E0E82EF12C012D112D8E831F8205
:10462000188619861A861B861C861D86188E198E7A
:104630001B8E1A8E9CD880E088B960927C000E9404
:10464000650D3F8537B975B874B80E946C0D14B804
:1046500015B8DD24B4ED9B2EA6ED8A2E3E8537B924
:1046600075B874B860927C00A895A0927A00809189
:104670007A0086FDFCCFA0927A0080917A0086FDB8
:10468000FCCF2090780030907900B0927C00A0920E
:104690007A0080917A0086FDFCCF80927A000E9499
:1046A0006A0D0E946C0DC5B8C4B80E946B0D0E94C3
:1046B0006D0DA895A895A895A89514B815B88091E2
:1046C0007A0086FDFCCF2091780030917900288B0C
:1046D000398B3F8537B9C5B8C4B8A895B0927C006E
:1046E000A0927A0080917A0086FDFCCFA0927A0099
:1046F00080917A0086FDFCCF6091780070917900FE
:1047000060927C00A0927A0080917A0086FDFCCFB6
:1047100080927A000E946A0D0E946C0D75B874B880
:104720000E946B0D0E946D0DA895A895A895A8955F
:1047300014B815B880917A0086FDFCCF40917800BE
:104740005091790014B8CB01820D931DE80EF91E2B
:10475000011D111DEA82FB820C831D8388899989C2
:10476000840F951F2E813F8168857985280F391F19
:10477000611D711D2E833F836887798722E324178B
:10478000150650F075B874B80E946F0D14B815B8BE
:10479000888D8395888F07C0483E73E0570718F0CF
:1047A0008A8D83958A8F888999892817190660F0E0
:1047B0003E8537B9C5B8C4B80E946F0D14B815B896
:1047C000898D8395898F07C0883E73E0970718F01D
:1047D0008B8D83958B8FD3945D2D5F3F09F03ECFFA
:1047E0004090440150904501440C551C9201E4E076
:1047F000240D351DEA95E1F72901570168016E8006
:104800007F808884998420911E012730C1F46C89AF
:104810007D89812D912D6C537040804090409B018B
:10482000AC010E94D1369B01AC016FEF71EC8EE3BD
:1048300090E00E940737621A730A840A950AA61448
:10484000B704C804D90428F46A187B088C089D08AA
:1048500003C0662477244301B20180E090E0930115
:10486000A4010E94D1369501A6010E94073781E07C
:1048700090E07981870F911D0E94333890E0682E77
:10488000C90160E170E00E94E036260F371FC901C0
:104890006816190618F4861991090FC08C5E9F4F8F
:1048A0008615910540F48C899D89843981E19807AA
:1048B00010F00E942E13812D912D6E960FB6F89454
:1048C000DEBF0FBECDBFCF91DF911F910F91FF9043
:1048D000EF90DF90CF90BF90AF909F908F907F90A0
:1048E0006F905F904F903F902F900895A0E0B0E0C0
:1048F000ECE7F4E20C94A93780918D0190918E0140
:10490000892B09F09AC0E0918F01F0E0EB5AFE4F3D
:10491000C491E0919001F0E0EE5AFE4F14910E9494
:10492000B71B18B815B8C7B914B9809190010E9487
:10493000A90DEC0100919201083F0CF07EC0045FCC
:10494000C0908301D0908401E0908501F0908601B1
:104950008AE0882E912CA12CB12C043070F4C70170
:10496000B6016B5F7F4F8F4F9F4FA50194010E944F
:1049700007370F5F69017A01F0CFD701C6010197B0
:10498000A109B10988389341A105B10508F055C0C6
:1049900015B914B9A12CB12CAC14BD0430F40E948B
:1049A0006B0D82E0A80EB11CF7CF14B815B8A8950E
:1049B00085E080932D01809190010E94A90DC81778
:1049C000D90720F45C01AC1ABD0A02C0A12CB12C9D
:1049D000812C912C8C149D0430F40E946B0D2FEFD0
:1049E000821A920AF7CF809190010E94A90D29E1C5
:1049F00020932D01A895C817D90718F48C1B9D0B7F
:104A000002C080E090E08A159B0588F49501281B80
:104A1000390B69F0A4EFB1E00E94B236950140E095
:104A200050E00E94073730938E0120938D010E9441
:104A3000B71B17B818B814B815B8CDB7DEB7ECE087
:104A40000C94C537A5E0B0E0E8E2F5E20C94A3379A
:104A500088E494E020D620EF2A8354980E94600DC9
:104A600014BC16BC10921201109213011092140182
:104A70001092150131E035BB30936E00109280002A
:104A800083E19AE79093890080938800E1E0F0E069
:104A9000F0938B00E0938A001092850010928400BE
:104AA00083B5816083BDF6E0F6BBF0936F00789428
:104AB00024E02093810012E319820E945A0DA895E8
:104AC0004F9902C031E0398385B581112CC015BCE6
:104AD00086B5809312010E9488080E942C0A0E94C9
:104AE00093080E942C0A0E94340A86E60E94F60966
:104AF0000E94370A60911201709113018091140194
:104B00009091150107E028E440E00E94530B8AE7EA
:104B10000E94F609549880918100882339F08FE330
:104B20000E94F60903C0115041F6D1CF10928100C6
:104B300010926F00209112013091130140911401E5
:104B400050911501DA01C9010197A109B109893D07
:104B50009146A105B10508F029C1AAE0B0E00E9484
:104B6000C736685F7F4F8F4F9F4F23E0969587959D
:104B7000779567952A95D1F7660F771F7093760121
:104B80006093750154980E94600D16BC109212013A
:104B900010921301109214011092150181E085BB4F
:104BA00080936E00109278011092770194E09BBB85
:104BB00080916800846080936800789480916D0093
:104BC000806180936D001D820E945A0DA8954F99B7
:104BD00002C0E1E0E98380916D0084FF05C0FD81A2
:104BE000FF5FFD83FA3F81F715BC80916D008F7EDA
:104BF00080936D00809168008B7F8093680086B5FC
:104C0000809312010E94880884E50E94F6090E94A0
:104C1000370A8091120190911301A0911401B09173
:104C2000150120917501309176013C832B831C0185
:104C30002D019C01A20160E070E080E090E003E0C3
:104C40000E94DA3751016201E12CF12C00E010E002
:104C50000E94F33759016A017B01E82F192F03E005
:104C60000E94DA370E2F0E94F33703E00E94DA37F2
:104C700051016201E12CF12C00E010E00E94F337B9
:104C800002E00E94DA3700E00E94F33701E00E9460
:104C9000DA3700E00E94F33703E00E94DA37EB8155
:104CA000FC815F01C12CD12C00E00E943F3739010B
:104CB0004A011B012C012B813C812038310530F049
:104CC00007E023E745EFB301C40116C084E6A82E30
:104CD000B12CC12CD12CE12CF12C00E010E093017F
:104CE000C2010E943F37E22FF42F07E023E747EF8E
:104CF0006E2F732F8F2F952F0E94530B3D813A3FBC
:104D000021F48FE30E94F60951C09301A401B1017F
:104D1000C2012C393E4C43405105610571058105A6
:104D2000910509F008F442C00E94930886E60E94AB
:104D3000F6090E94370A9301A401B101C20153018F
:104D400064017101820121153A4C4A495B436105B6
:104D500071058105910589F080F020E030E04AE896
:104D60005DE568E775E483E691E00E943F37E22F56
:104D7000F42F07E028E44AEF0FC020E030E846ECCB
:104D800054EA6EE77DE883E090E00E943F37E22F2F
:104D9000F42F07E028E44CEF6E2F732F8F2F952F01
:104DA0000E94530B8AE70E94F609549810926E00F5
:104DB00080ED97E00E94070E2981820F29F43A8145
:104DC00031503A83311149CE2596E2E10C94BF3738
:104DD0001F920F920FB60F9211248F939F93AF9350
:104DE000BF9378948091120190911301A0911401C6
:104DF000B09115019F5FAF4FBF4F80931201909309
:104E00001301A0931401B0931501BF91AF919F912D
:104E10008F910F900FBE0F901F9018951F920F92B9
:104E20000FB60F9211248F9386E085BD8F910F905E
:104E30000FBE0F901F9018951F920F920FB60F92F2
:104E40001124A8951092810015BC0F900FBE0F90F1
:104E50001F9018951F920F920FB60F9211242F9347
:104E60003F938F939F938091770190917801892B45
:104E700011F481E085BD2091770130917801809116
:104E80007501909176012817390730F015BC809193
:104E90006D008F7E80936D008091770190917801F5
:104EA000019690937801809377019F918F913F9124
:104EB0002F910F900FBE0F901F9018958C3008F017
:104EC0008C50811103C082E594E036C0813019F422
:104ED00088E494E031C0823019F48FE194E02CC072
:104EE000833019F484E194E027C0843019F488EB0E
:104EF00091E022C0853019F48DEA91E01DC0863022
:104F000019F481EA91E018C0873019F485E094E043
:104F100013C0883019F486EF93E00EC0893019F47D
:104F20008FED93E009C08A3019F486E394E004C061
:104F30008B3021F48BE294E00E94440A8091470177
:104F4000803118F40E94190AF9CF08950F93CF9376
:104F500088EB91E0A0D3C0E010921E0160E082E0F7
:104F6000B6D380911E018730D1F50E947D0883E47D
:104F70000E94F6090E94370A6091830170918401B2
:104F8000809185019091860103E026E44091920191
:104F90000E94530B0E942C0A60918F018091900116
:104FA000CADA90938C0180938B010E9488088CE66A
:104FB00093E00E94440A60918B0170918C016A3FDA
:104FC0008FEF780740F480E090E002E024E04EEFBD
:104FD0000E94530B08C08FE30E94F60904C00E9490
:104FE000340A0E9488080E942C0A8C2FBAD688EEB8
:104FF00093E00E94070E811109C080913701813032
:1050000009F4C0E0CF5FCA3F08F4A6CFCF910F915B
:10501000089508950F93843108F08451833189F401
:1050200089E08093810081E090E0909389008093F3
:10503000880007E028E44DEF60E074E985E397E736
:1050400048C1823189F489E08093810083E090E057
:10505000909389008093880007E028E44DEF60E09A
:105060007AEC8AE99BE335C1813169F489E0809368
:10507000810087E090E0909389008093880007E0AA
:1050800028E44DEF6CC0803169F489E080938100A1
:105090008FE090E0909389008093880007E028E4F7
:1050A0004DEF6FC08F3089F489E08093810089E1F2
:1050B00090E0909389008093880007E028E44DEF0A
:1050C0006AE871E88BE299E004C18E3069F489E006
:1050D0008093810087E290E090938900809388001C
:1050E00007E028E44DEF60C08D3069F489E08093DB
:1050F00081008FE490E0909389008093880007E01E
:1051000028E44CEF2CC08C3069F489E08093810056
:105110008FE990E0909389008093880007E028E46D
:105120004CEF2FC08B3069F489E0809381008FE8C9
:1051300091E0909389008093880007E028E44CEF89
:1051400033C08A3089F489E0809381008FE193E055
:10515000909389008093880007E028E44BEF60E09B
:1051600075E68DEC9DE1B5C0893081F480938100B6
:105170008FE396E0909389008093880007E028E40D
:105180004BEF60E872EB86EE9EE0A3C0883089F4B6
:1051900089E0809381008FE99FE09093890080935C
:1051A000880007E028E44BEF60E071EE85EF95E0C2
:1051B00090C0873089F489E08093810084E493E291
:1051C000909389008093880007E028E44BEF6FE715
:1051D0007DEF83EA92E07DC0863089F489E0809398
:1051E000810089E593E2909389008093880007E02D
:1051F00028E44BEF6FEE7BE682EA92E06AC08530EE
:1052000089F489E08093810082E893E29093890099
:105210008093880007E028E44BEF68E471E68FE9AB
:1052200092E057C0843089F489E0809381008FE751
:105230009EE3909389008093880007E028E44BEF79
:1052400060E478E78DE791E044C0833069F48BE057
:105250008093810080E792E090938900809388009A
:1052600007E028E44AEFA0CF823071F481EE94E0A9
:10527000909389008093880007E028E44AEF60E873
:1052800070EF8AEF92E025C0813089F48BE0809343
:10529000810089E698E1909389008093880007E077
:1052A00028E44AEF60E876E988E990E012C08111CD
:1052B00012C08CE08093810088E09DE39093890088
:1052C0008093880007E028E44AEF60E472E48FE00E
:1052D00090E00E94530B8AE70E94F6090F9108950F
:1052E000A0E0B0E0E6E7F9E20C94AD378FE194E09E
:1052F000D2D180E18093800010926F0081E090E035
:10530000909389008093880010928B0010928A00FD
:1053100083E086BB1092820088E08093810015B8FC
:1053200081E184B918B881E087B9229A89E0809335
:10533000810000E0F12CE12C12E1CEE1D0E0802FE1
:1053400090E00A96BE010E94F436D62EC62E6F1546
:1053500089F00E9474088FE194E00E94440AF12CC5
:10536000FC1428F48EE20E94F609F394F9CF0E940F
:105370002C0AFD2CE116F9F0143108F014510E94AA
:105380007D080E94190A83E1810F44DE0E942C0AE5
:105390000E9493080E94190A81E0810F3BDE0E945F
:1053A0002C0A0E9488088EE30E94F609812F32DEC3
:1053B0000E942C0AE12E88EE93E00E94070E8823BB
:1053C00031F0853118F01F5F803550F400E0809196
:1053D0003701813009F400E00F5F003F08F4AFCFE0
:1053E000109281001092800017B814B82298CDB79F
:1053F000DEB7E8E00C94C937A4E0B0E0E2E0FAE2FE
:105400000C94A73784E194E046D183E28093800036
:1054100010926F0081E090E0909389008093880063
:105420008FEF90E090938B0080938A0083E086BB9F
:105430001092820015B881E184B918B881E087B96B
:10544000229A89E080938100612C00E08AE0782E26
:1054500010E094E6C92ED12CE12CF12C88248A94FA
:1054600023E0922EA12CB12C7016E1F183E6871572
:1054700010F4ECE97E0E272D30E0AFEFB3E00E9490
:10548000B2366E5C7F4F8F4F9F4FA70196010E94EF
:10549000073730938B0020938A0029833A834B830C
:1054A0005C830E947D08A8EEB3E029813A814B819C
:1054B0005C810E94C73661507E4F8F4F9F4FA50180
:1054C00094010E940737CA01B90105E025E24FEFB8
:1054D0000E94530B0E942C0A193218F08CE30E9490
:1054E000710D072D80E496E00E94070E182F833877
:1054F00098F4833318F0FAE07F0E03C0882311F08C
:105500007394612C80913701813009F4612C63948C
:105510008FEE861508F0A8CF17B810928100109270
:10552000800014B822982496EEE00C94C3370F93B1
:10553000CF93DF938FED93E0AED080E090E00E94B8
:105540003338C82FD0E081E80E94CF088C2F0E940A
:10555000CF080E947D088C2F90E0A0E0B0E004E02E
:1055600020E240E0BC01CD010E94530B0E942C0AB6
:1055700080E496E00E94070E882331F0823868F4B8
:105580008932A0F0CF5FD0E0CF77809137018130B2
:1055900009F4D0E0DF5FD03FB0F26C2F80E090E004
:1055A0000E944038DF91CF910F910895C158EBCF01
:1055B0001F93CF93DF938DE594E06DD0D0E0C0E0F2
:1055C0000E947D080E94190A8BE08C0F77DC0E94F4
:1055D00088088EE30E94F6098C2F70DC0E949308E5
:1055E0000E94190A11E01C0F812F68DC80E49FE102
:1055F0000E94070E8111D0E090913701913009F49B
:10560000D0E0823308F439C0CC2309F440C0C13063
:1056100019F480E017DA2DC0C23011F461DE29C020
:10562000C33011F4E9DE25C0C43011F48FDC21C091
:10563000C53011F49DD31DC0C63011F403D419C078
:10564000C73011F470D115C0C83021F481E10E9437
:10565000570F0FC0C93011F46ADF0BC0CA3011F404
:10566000B4D207C0CB3029F45E9880E090E00E946D
:10567000070E8DE594E00FD002C08111C12FDF5FCE
:10568000D83728F4CC3008F49BCFCC5099CFDF9199
:10569000CF911F910895A2E0B0E0E1E5FBE20C9408
:1056A000B23789839A830E94D60889819A810E94A1
:1056B000440A14E682E00E94710D4F9902C0115015
:1056C000C9F70E947D082296E3E00C94CE37A0E053
:1056D000B0E0EDE6FBE20C94AA37C82FD62F862F58
:1056E00090E0FC01EB5AFE4F0491EC2FF0E0EE5AF3
:1056F000FE4FB490FC01EE5AFE4F149110928C01B3
:1057000010928B0110927F01109280011092810102
:105710001092820187EF809391010E94B71B18B805
:1057200007B914B915B98C2F0E94A90D8C018D2FC2
:105730000E94A90D081B190B14B810925E0110925B
:105740005D0120E030E09CE2E92EFF24F3944AE082
:10575000A42E54E6952E80915D0190915E01843DCA
:10576000904308F069C0B5B880915D0190915E01E9
:10577000892B89F06701C21AD30A60915D0170918B
:105780005E01A29EC001A39E900D11240E94E036EE
:10579000C616D70650F4B4B80E94640D14B88091B0
:1057A0005D0190915E01019628C080915D0190910C
:1057B0005E010B97C8F060915D0170915E01929E51
:1057C000C001939E900D11240E94E0366C157D055A
:1057D00058F4B4B80E945A0D14B880915D019091AC
:1057E0005E018C599F4F09C0B4B80E945F0D14B878
:1057F00080915D0190915E010A9690935E01809385
:105800005D0115B80E94660DA8958C2F0E94A90D08
:105810009C01201B310B80915D0190915E018B31C9
:10582000964020F0253231050CF474C02D3281E011
:1058300038070CF490CF05C02D3281E038070CF406
:1058400069C080915D0190915E01019729F4253135
:1058500045E034070CF05EC000915D0110915E01DF
:10586000000F111FA80160E070E040938701509382
:1058700088016093890170938A01C90168E270E030
:105880000E94F436C901860F971F0E94781F9C0161
:10589000D8010E94B236609387017093880180938B
:1058A000890190938A0160937F01709380018093B6
:1058B0008101909382010E94421C60917F0170914E
:1058C000800180918101909182012AE030E040E0E6
:1058D00050E00E94073720937F013093800140936E
:1058E00081015093820187E080931E012093830100
:1058F00030938401409385015093860180919101FA
:105900008093920110928E0110928D01D0938F019D
:10591000C093900117B818B814B815B8CDB7DEB752
:10592000EBE00C94C637A8E1B0E0E9E9FCE20C94A6
:10593000AA3785E094E0AFDE0E947D088FEF93E008
:105940000E94440ADE015196CE010996AE014F5FD6
:105950005F4F9E01275E3F4FF42EE52E1D921D9254
:10596000FC0111921192CF01FA0111921192AF0133
:10597000A217B30799F785E185B984B900E010E073
:10598000912CDD24D39444E0C42E52E0B52E18B8F7
:10599000D7B80E946E0D86B181FBAA24A0F882FFC1
:1059A00002C0A394A3940115110589F0A91469F00C
:1059B000EF2DFE2DEA0DF11DEA0DF11D808591857B
:1059C000019691878087A92C02C034E0A32EB7B836
:1059D0000E946E0D96B1892F817092FD8E5FF4E06A
:1059E000AF120BC0EF2DFE2DE80FF11DE80FF11DDA
:1059F000808991890196918B808BC7B80E946E0D2A
:105A000096B1892F817091FD8E5F94E0A9120BC031
:105A1000EF2DFE2DE80FF11DE80FF11D8081918122
:105A2000019691838083A8950E94600D4F9904C0D0
:105A300015B814B817B8C5C049895A8945315105F8
:105A400008F16B897C8965317105E0F02D893E890B
:105A500025313105B8F08F89988D8531910590F009
:105A6000260F371F11E02417350708F010E0FF2438
:105A7000F3942817390708F0F12CCC24C39422E0C2
:105A8000E22E4CC049855A854531510510F16B8590
:105A90007C8565317105E8F02D853E852531310520
:105AA000C0F08F8598898531910598F0260F371FB2
:105AB00011E02417350708F010E0FF24F3942817AD
:105AC000390708F0F12CC12C92E0E92EDD24D394A3
:105AD00030C049815A814531510510F16B817C817B
