:100000000C944C020C945E020C945E020C945E0202
:100010000C945E020C94571E0C945E020C948306A2
:100020000C945E020C945E020C9473160C94491EA0
:100030000C943B1E0C944D160C945E020C945E02C4
:100040000C94151E0C945E020C945E020C945E02DD
:100050000C945E020C9484060C945E020C945E0276
:100060000C945E020C945E025245465F523D005273
:1000700045465F433D00203E3130306E4600706E95
:10008000E46D006B4D090A0C020820010410041FE6
:10009000111111111F04001E0203021E0000000FA7
:1000A0000818080F00001113171F1713110011195A
:1000B0001D1F1D1911001B1B1B1B1B1B1B00432B92
:1000C000455352405450313A330066405450320048
:1000D000203530487A004330200052695F4C6F3D34
:1000E0000052695F48693D0052303D0052482F522E
:1000F0004C002B52482D2031322031332032330036
:100100002B524C2D203132203133203233005248D3
:100110002B0052482D005248663D005265663D0056
:10012000494345733D00494345303D005665727370
:10013000696F6E20312E31326B002D77772D002DB7
:1001400007062D002A012020002D022D002D012D53
:10015000004E6F742063616C696272617465642122
:1001600020466F72FF63616C6962726174696F6EC1
:1001700020636C616D70207468652033FF70696E58
:100180007320746F67657468657220616E64207394
:1001900074617274207769746820746865FF6B6598
:1001A000792E2041636B6E6F776C65646765207490
:1001B00068652073656C662D746573742077697447
:1001C0006820746865206B65792077697468696E4A
:1001D000FF32732E20446973636F6E6E6563742003
:1001E00070696E7320616674657220746865FF6D56
:1001F000657373616765202269736F6C617465FF55
:1002000050726F626521222069732073686F776E68
:100210002E20536F66747761726520616E6420646E
:100220006F63756D656E746174696F6E206973209C
:1002300061742073766E3A2F2F206D696B726F6335
:100240006F6E74726F6C6C65722E206E65742F7495
:1002500072616E736973746F722074657374657202
:100260002000202049723D004C3D0020566C6F73E9
:10027000733D00204553523D005643433D004365C6
:100280006C6C21002D032D004056673D00205674F4
:100290003D0055663D00203132333D00504E500048
:1002A0004E504E00423D00433D002D494742540010
:1002B0004A464554002D4D4F53004F4B0042617448
:1002C0002E200073686F72742050726F6265732104
:1002D0000053656C6674657374007475726E2100EA
:1002E000726F7461727920656E636F64657200313C
:1002F000302D6269742050574D00662D47656E653C
:100300007261746F7200537769746368206F6666F8
:100310000053686F77206461746100566F6C74617C
:100320006765004672657175656E63790054726128
:100330006E736973746F720053656C656374696F73
:100340006E3A005465737420456E640069736F6C77
:100350006174652050726F626573210053656C662D
:1003600074657374206D6F64652E2E0054696D651D
:100370006F757421006F722064616D616765642020
:10038000004E6F2C20756E6B6E6F776E2C206F7227
:100390000020756E6B6E6F776E00546879726973AA
:1003A000742E00547269616300706172740064613C
:1003B0006D616765642000656D70747921007765F3
:1003C000616B0054657374696E672E2E2E00BA033C
:1003D000870358032E030703E402C302A402880222
:1003E0000000140029003E005300690080009700BF
:1003F000AE00C600DF00F80012012D0149016501C1
:100400008201A001BE01DE01FF0121024402680257
:100410008E02B502DE020903350364039403C803A8
:10042000FE0337047304B404F90443059305EA0595
:100430004906B3062907AE074808FF08DE09AF578B
:10044000B950C24A97451141133D87395A367E3318
:10045000E8308E2E692C712AA128F5266925F9230A
:10046000A222622137201E1F161E1E1D341C571B80
:10047000851ABF1903195018A61704176A16D6153E
:100480004915C2144114C5134E13DC126E12051225
:100490009F113D11DF10841011241FBECFEFD8E053
:1004A000DEBFCDBF11E0A0E0B1E001C01D92A23BD4
:1004B000B107E1F70E94D8250C94BC2D0C940000E4
:1004C00080FD5C9A80FF5C98549A00005D9A559A72
:1004D000589859985A985B9864FD589A509A65FDB7
:1004E000599A519A66FD5A9A529A67FD5B9A539AA5
:1004F00000005D98B1D287FD10C05D9A5898599858
:100500005A985B9860FD589A61FD599A62FD5A9A13
:1005100063FD5B9A00005D989FD20895CF93C82F2A
:10052000682F81E00E9460020E942305C83050F4C9
:10053000C630F0F4C23091F0C330A9F0C130E1F41C
:100540008EE312C0C43EB1F0C43FB1F48FE40E9408
:10055000F60488E60E94F6048DE60FC08CE70E9440
:10056000F6048CE30AC08CE70E94F6048CE705C011
:1005700082E503C085E701C08C2F0E94F604CF916D
:1005800008958F5C0E948E02089580E20E948E0280
:1005900008958DE00E94F6048AE00E94F604089512
:1005A000CF93C82F682F80E00E9460020E9423052D
:1005B000CF7BC03811F40E94C902CF91089580E822
:1005C0000E94D002089580EC0E94D002089584E930
:1005D0000E94D002089584ED0E94D0020895982FC1
:1005E000969580FF02C080EC01C080E8860F24E170
:1005F000929F800D11240E94D002089581E00E94F4
:10060000D00282E00E942E050E94C9020E94DF02F1
:10061000089586E00E942E0560E380E80E94600253
:1006200081E00E942E0560E380E80E9460020E9443
:100630001D0560E380E80E9460020E941D0560E2E3
:1006400080E80E94600282E00E942E0580E20E9403
:10065000D00280E20E94D0028AE20E94D00288E0AA
:100660000E94D0020E94FE0286E00E94D00282E038
:100670000E94D00281E00E942E058CE00E94D002F0
:100680000895CF93DF93EC018991882319F00E949C
:100690008E02FACFDF91CF910895CF93DF93EC01D3
:1006A000FE018491982F9F7721F00E948E0221965F
:1006B000F7CFDF91CF9108950F931F93CF93DF93DF
:1006C000EC018C01085F1F4FFE0184910E948E0295
:1006D0002196C017D107C1F7DF91CF911F910F91DC
:1006E0000895CF93C4E10E94C502C150E1F7CF91B4
:1006F000089597FF09C08F939F938DE20FDF9F911D
:100700008F91909581959F4F6DE171E04AE050E0A7
:100710000E94652DB6DF0895EF92FF920F931F930D
:10072000182F062FF42E86E992E0B7DFEE24E09131
:100730005801F09159018485E81611F4812F09C000
:100740008285E81611F4802F04C08385E81611F421
:100750008F2DE4DEE3948E2D833049F71F910F91A6
:10076000FF90EF9008950F93E7E2F1E0880F880F74
:10077000880FE80FF11D6081718182819381643659
:1007800071058105910570F420910001222351F437
:10079000848165810E94C819BC0180E090E04EEF21
:1007A00003E002C04FEF04E024EF5BD0EEDE0F91D8
:1007B00008950F93833078F4E6EAF1E0E80FF11D35
:1007C000E80FF11D60817181812D912D4DEF26E59E
:1007D00003E047D0DADE0F9108951F93182F809120
:1007E0008001882319F0D1DE80E098DEECDE82E91A
:1007F00092E053DF812F82958F70DBDF812F8F7026
:10080000D8DF1F910895DF92EF92FF920F931F930D
:10081000CF93DF93D0900B018D2D82958F70CAE915
:10082000D1E07E01E80EF11CF7018081AADE0DE423
:1008300011E0C80132DFF7018681A3DEC8012DDF98
:100840008D2D8370C80FD11D8E819BDE80910B0191
:10085000C4DFDF91CF911F910F91FF90EF90DF9058
:100860000895A0E0B0E0E7E3F4E00C94ED2C142F41
:10087000C22F033009F4A7C0043009F4ABC005301F
:1008800051F0063081F00730B1F0B4E6CB2ED12C18
:10089000E12CF12C17C0A0EACA2EA6E8DA2EEE242D
:1008A000E394F12C0FC0F0E4CF2EF2E4DF2EFFE052
:1008B000EF2EF12C07C0E0E8CE2EE6E9DE2EE8E9C7
:1008C000EE2EF12C5AE0852E912CA12CB12C6C151A
:1008D0007D058E059F0560F06B5F7F4F8F4F9F4FAB
:1008E000A50194010E94472CCA01B9011F5FEFCFF7
:1008F0000CE0010F07FD04C0033118F002E101C054
:1009000000E01BEA019F112D11241695212F220FC3
:10091000210F021B21F01F5F23E0201B022F2AE082
:1009200030E049E451E00E94402DA9E4B1E00D908F
:100930000020E9F71197A954B140BA2E9D01332741
:10094000802F90E004968217930714F41F5F0D5FC9
:10095000E12FF0E0E258FF4FA490DA2FD01B1D16D4
:1009600044F08EE20E948E02DD2319F080E30E94A3
:100970008E02011101C0DFEF49E4E42E41E0F42EC4
:100980008701CD2EDD24C7FCD094802F8E198B15C6
:1009900078F4F80181918F010E948E029801295408
:1009A00031402C153D0589F78EE20E948E02EDCF75
:1009B000AA2019F08A2D0E948E02CC2391F08C2F50
:1009C0000E948E020EC038EEC32E33E0D32EE12CEF
:1009D000F12C78CF20E1C22E27E2D22EE12CF12C8F
:1009E00071CFCDB7DEB7ECE00C94092D8F932F9328
:1009F0002AE080953B9A089410F4439802C0439AE9
:100A0000000020D027D086952A95B1F72F918F919D
:100A1000089503D002D001D000D000D003D002D07E
:100A200001D000D0A89500D003D002D001D000D0D2
:100A300000D003D002D001D000D000D003D002D02B
:100A400001D000D000D003D002D001D000D000D01F
:100A500003D002D001D000D00000089590E0893C7E
:100A600028F0885C48EC849FC0011124009709F4A9
:100A7000089520918100277019F0DBDF019716C0DF
:100A80008130910519F002973EE303C037E180E021
:100A900090E02091B200230F2093B30042E04093F6
:100AA000700027E023BF889526E023BFA895DECFFE
:100AB0008F9384E0D3DF07C08F9382E0CFDF03C042
:100AC0008F9381E0CBDF8F911F93182F10641093C9
:100AD0007C00E12FE07880914001E81759F0E09325
:100AE0004001B0DF8EE980937A0083E083BF889570
:100AF00082E083BF20E030E0A901E0E01FC08EE982
:100B000080937A0083E083BF889582E083BF609101
:100B1000780070917900260F371F411D511DE43078
:100B200061F480914201803041F084E02030380748
:100B300020F417FD02C01068CACFEF5F80913F011B
:100B4000E817E8F2609143017091440117FF04C077
:100B5000609141017091420180E090E00E940F2C71
:100B60002FEF33E040E050E00E94472CB901CA016A
:100B700020913F0130E040E050E00E94472CC90145
:100B80001F910895EF92FF920F931F93CF93DF93DE
:100B9000F82EE92EC5E64F9B05C0CF2DDE2D05E5CD
:100BA00010E01BC081E00E942E05C150A1F7F5CFD7
:100BB00082E00E942E05000F4F9B0F5F0F730F33D3
:100BC00079F4111103C0CF2DDE2D14E01F5F16390B
:100BD00090F4A8951C161D0644F0D7FFE9CF0BC072
:100BE0000111F7CF1123A9F306C02A972097A9F77F
:100BF000CFEFDFEFF2CF812FCDB7DEB7E6E00C9479
:100C00000F2D88E893E10E94C2050E94E3020E9432
:100C100071030E94E30208958BE090E00E947B2D17
:100C2000382F8CE090E00E947B2D20914701230F0C
:100C300030914801381F209314013093150183E04F
:100C4000283E380720F0C901885E934002C080E04A
:100C500090E062E370E00E941F2C683008F067E0CB
:100C6000EEECF3E0E60FF11DE60FF11D4591559115
:100C70002591359162E3681B421B530B649FC001B1
:100C8000659F900D1124499662E370E00E941F2C2D
:100C9000620F731F70938301609382018DE090E077
:100CA0000E947B2D992787FD909560914701709157
:100CB0004801860F971F90934201809341019093C2
:100CC0007F0180937E010895CF93DF9324E130E08C
:100CD000B9010E941F2CDC01E0EEF3E0E60FF71FE4
:100CE000E60FF71FC591D591459155914C1B4A9F31
:100CF000C0011124B9010E941F2C6C0F7D1FCB0174
:100D0000DF91CF91089518951895A1E0B0E0EBE838
:100D1000F6E00C94F52C98E097B998B9E82FF0E03C
:100D2000E557FF4F249125B9E62FF0E0E557FF4F37
:100D30009491922B94B969830E9464058C01698116
:100D4000862F0E946405209143013091440136951D
:100D50002795A901415251094017510760F4255EBA
:100D60003F4F0217130738F44817590720F441E0A2
:100D70008217930708F040E014B8842F2196E4E02E
:100D80000C94112DCF9361E080E00E948506C82F5E
:100D900062E080E00E948506C80F62E081E00E9468
:100DA00085068C0FCF910895A3E1B0E0EAEDF6E05F
:100DB0000C94E72C182F10921801807FE9F40E9400
:100DC000C206833009F0FCC30E94FE028CE593E06A
:100DD0000E944D030E94E3028FE30E948E0280ED89
:100DE00097E00E94C2058B30F8F40E94FE028CE26C
:100DF00091E00E944D03E4C336E9F32E00E00E9427
:100E0000FE0283EC92E00E944D030E94C2068330F2
:100E100021F40F5F043010F007C000E088E20E9468
:100E20002E05FA9461F76FC00E94E30288EE90E00D
:100E30000E944D0360E082E090E00E94892D60E016
:100E400083E090E00E94892D60E081E090E00E94C4
:100E5000892D60E082E00E94C8195C019A83898331
:100E600061E082E00E94C8196C019C838B8360E082
:100E700081E00E94C8197C019E838D83B50188277B
:100E800077FD8095982F03E020E24EEF0E94310419
:100E9000B601882777FD8095982F20E24EEF0E94BB
:100EA0003104B701882777FD8095982F24EF4EEF06
:100EB0000E9431042AE5A216B10424F084E190E0F6
:100EC0009A838983698182E090E00E94892D8AE576
:100ED000C816D10424F084E190E09C838B836B815D
:100EE00083E090E00E94892D9AE5E916F10424F050
:100EF00084E190E09E838D836D8181E090E00E948B
:100F0000892D0E9401061F701F87113009F067C0EC
:100F1000AA24A394B12C08EB202E02ED302E07E476
:100F2000402E512C82E0882E98E0992E24ECC22E7F
:100F300026E3D22EE12CF12C54C0739423E0271524
:100F400008F443C00E94E3020E9471030E94DF0282
:100F50000E9471030E94DF0284E50E948E02C50197
:100F60000E9484030E94C502113009F03FC00E9414
:100F7000C4168BE191E00E944D036091470170918E
:100F8000480180E090E004E026E54DEF0E94310446
:100F90000E94E30286E191E00E944D03809182016C
:100FA000909183010E9484038EEB80933F0197B858
:100FB00098B814B815B888EE93E00E94C2051430B2
:100FC00009F4BBCF8B3008F4B8CF88EC0E942E0513
:100FD0008FEFA81AB80A98E0A916B10411F418E71F
:100FE00036C1712C1A2DA0E26A2EACCF123009F056
:100FF00044C02091430130914401A8E5BBE10E9427
:10100000EE2BA70196010E94692C81E085B9E5E0ED
:10101000E4B980E0288B398B4A8B5B8B0E945805A2
:10102000288939894A895B89821B930B9A83898332
:1010300081E184B980E0288B398B4A8B5B8B0E94DD
:101040005805288939894A895B89821B930B9C83BF
:101050008B8384E085B984E184B981E0288B398B66
:101060004A8B5B8B0E94580528893989821B930B18
:101070009E838D8380E091E0C2C0133061F585B816
:10108000FAE0F4B980E00E945805209143013091C4
:1010900044013695279538872F83821B930B9A83BB
:1010A000898322E224B980E00E9458052F81388587
:1010B000821B930B9C838B8395B888E284B981E073
:1010C0000E9458052F813885821B930B9E838D8348
:1010D00082EF90E094C0143049F48CE493E00E94D5
:1010E0004D030E94C206811168C28FC01530B1F451
:1010F00015B884B880E00E9458059A83898394B813
:1011000081E00E9458059C838B8364B882E00E9432
:1011100058059E838D8382E191E071C0163051F5B0
:1011200084B885B880E00E94580520914301309131
:101130004401821B930B9A83898394B895B881E00C
:101140000E9458052091430130914401821B930B6A
:101150009C838B8364B865B882E00E945805209117
:10116000430130914401821B930B9E838D838EE05B
:1011700091E045C0173009F045C0209143013091FE
:101180004401A8E5BBE10E94EE2BA20191010E945F
:10119000472C85B893E094B980E0288B398B4A8B33
:1011A0005B8B0E945805288939894A895B89821B93
:1011B000930B9A83898395B8ECE0E4B981E0288B9E
:1011C000398B4A8B5B8B0E945805288939894A895B
:1011D0005B89821B930B9C838B8365B8F0E3F4B926
:1011E00082E0288B398B4A8B5B8B0E9458052889BB
:1011F0003989821B930B9E838D838CEE90E00E9435
:101200004D0303C0113009F4D2CE0E94E30289815C
:101210009A810E9479030E94C5028B819C810E9461
:1012200079030E94C5028D819E810E947903BFCE01
:101230000E94E3020E9471030E94E3028CE493E0A7
:101240000E944D0384E60E942E05115021F00E9459
:10125000C2068111EDCF0E94FE0281EE90E00E9455
:101260004D03609145017091460180E090E003E0FC
:1012700024EF4FEF0E9431040E94E3028AED90E0D8
:101280000E944D03609155017091560180E090E0FD
:1012900024EF4FEF0E9431040E94010610921801C2
:1012A0000E94FE0286ED90E00E944D0360E082E025
:1012B0000E94921300918C0110918D011C870B8765
:1012C00061E082E00E949213C0908C01D0908D0169
:1012D000DE86CD8660E081E00E949213E0908C0172
:1012E000F0908D01FE82ED8262E080E00E94921318
:1012F00080918C0190918D019C838B8362E081E0D1
:101300000E94921380918C0190918D019A87898718
:1013100061E080E00E94921380918C0190918D0198
:101320009A83898398878F83B801882777FD809572
:10133000982F03E020E240E00E943104B6018827A4
:1013400077FD8095982F20E240E00E943104B7019C
:10135000882777FD8095982F26E444EF0E9431047A
:101360006E01EFE0CE0ED11CFE013196819191917C
:101370000A97853B9105E0F4EC15FD05B9F704E00B
:1013800010E0CE0101967C01F7016081F2E0EF0EE2
:10139000F11C6E5EC8010E94892D0F5F1F4FEC1477
:1013A000FD0491F70E94E3028AEB92E00E944D0354
:1013B0000E9401062F85213029F08091540182304E
:1013C00009F0E2C0E0E4BE2E10E0FAE0CF2ED12C0E
:1013D000E12CF12C0E94FE0280E00E94C10284E810
:1013E00092E00E944D0382E00E94C10286E790E0F5
:1013F0000E944D031092180160E082E00E94921357
:10140000009196016091840170918501809186011F
:1014100090918701073F44F4A70196010E94472C51
:101420000F5FB901CA01F6CF009396016093840162
:10143000709385018093860190938701073F09F09F
:101440008CC0DC01CB0180569109A109B10980391A
:101450009545A105B10508F080C060919801709193
:101460009901CB018B569F4F8B32914008F075C08C
:101470001F5F153008F472C08BE090E00E94972D3A
:101480000E94FE028FE690E00E944D038091980139
:10149000909199010E9479030E940C0688E088B916
:1014A00089E087B980E284B982E00E946405853DC5
:1014B0009340D4F714B8109242011092410182E097
:1014C0000E9464057C0180917E0190917F01909340
:1014D00042018093410182E00E9464058C01000F6B
:1014E000111F109242011092410182E00E94640596
:1014F000C0907E01D0907F01D0924201C092410104
:10150000E80EF91EE01AF10A0E94E30288E690E074
:101510000E944D038DE090E00E947B2D73E0B72E7A
:10152000B80E9601D7010E94FD2B9801442737FD84
:101530004095542F0E94692CB20E6B2D8DE090E0E7
:101540000E94892D8B2D992787FD90950E94790304
:101550000E940C060E94010617C010E00E94E302E0
:10156000609184017091850180918601909187013D
:1015700004E026E4409196010E94310488E20E9432
:101580002E05BA9409F026CF109254018CE00E94E7
:10159000D00289E180933F010E94FE028CE291E03B
:1015A0000E944D030E94E30283E493E00E944D03F6
:1015B000109218010E94010603C052E0752E25CE3C
:1015C0006396E2E10C94032D8091540181110DC0CA
:1015D00084E090E00E947B2D61E0680F87E090E05E
:1015E0000E94892D81E08093540108950F93CF9339
:1015F000DF93E82FF0E0EB57FF4FE491E8B9E860A4
:10160000E7B915B8E62FF0E0E857FF4FE491E4B9E9
:10161000862F0E946005EC010097F1F082E692E0CF
:101620000E944D03DE0120EA36E841E050E00E94CE
:10163000042C28E937EB40E050E00E94472CCA0117
:10164000B9018827992702E021E447EF0E9431047D
:1016500088E087B988B914B8DF91CF910F910895C8
:10166000A9E1B0E0E6E3FBE00C94E72C982E862E8F
:10167000342EA895862F90E0FC01E557FF4F24906B
:10168000FC01E857FF4F2491288B242F30E0F9010B
:10169000E557FF4F6490F901E857FF4F4490292D1B
:1016A00030E0F901E557FF4F7490F901E857FF4F1B
:1016B00044914B87F901EB57FF4F54915B83FC0139
:1016C000EB57FF4F64916C87586058876860562EBF
:1016D00065B8762D72297C8374B957B98B8188B926
:1016E000882D0E9460059A83898324B8882D0E94E2
:1016F00060055C0114B80E94190515B89C8194B965
:10170000882D0E946005A981BA818A179B0738F548
:10171000805E9E4FA817B90708F44EC457B888E0FA
:1017200088B975B8872D862984B9E0914301F09175
:101730004401FA83E983892D0E94600529813A8159
:10174000281B390B3A83298374B8A0904301B090C9
:101750004401892D0E946005A81AB90A08C0298190
:101760003A81205E3E4F8217930708F425C42091EA
:1017700067018091790190E0820F911D02974CF0F2
:10178000213009F019C49091640180917601981379
:1017900013C449815A814437510508F4AEC0CA01C7
:1017A000880F991F4496A816B90608F0A6C0588558
:1017B00057B96B8168B9842D822984B9882D0E941C
:1017C0005C058C01832D0E9464057C0145B8882D41
:1017D0000E945C059801295A3D4F47282817390770
:1017E000D8F588E088B957B844B845B8832D0E9429
:1017F0005C0588349F4028F084E08093180182E2E1
:1018000004C084E08093180184E280931701109350
:101810005F0100935E01E016F10640F4C8018E19E5
:101820009F09909363018093620104C01092630149
:10183000109262019801A8EEB3E00E94EE2B209175
:1018400012013091130140E050E00E94472C309388
:10185000610120936001A7C388E088B957B844B8F4
:1018600045B8892D0E945C058C01832D0E9464057A
:101870007C0175B8892D0E945C05895A9D4F80179F
:10188000910708F099C38B8188B9988597B9832D02
:101890000E945C05813D934028F484E08093180108
:1018A00082E304C084E08093180184E380931701ED
:1018B0000E151F0538F4E01AF10AF0927501E09256
:1018C000740104C0109275011092740120914301BB
:1018D00030914401201B310BA8EEB3E00E94EE2BA7
:1018E0002091190130911A0140E050E00E94472CEC
:1018F000309373012093720169C188E088B957B8A9
:1019000075B8B72DB629B987B4B9892D0E9460057D
:101910009F838E83E0904301F0904401832D0E94C9
:1019200064058C018A30910570F514B881E00E943D
:101930002E05872D842984B9892D0E9460059F83F7
:101940008E83E0904301F0904401E81AF90A832D58
:101950000E9464058C018091190190911A019C01EB
:1019600040E050E060E677EB87E490E00E94472C8F
:10197000D7010E94042C980140E050E00E94472CBF
:1019800069017A010DC0C701EE81FF818E1B9F0B9B
:10199000801B910BB8010E941F2C6B01E12CF12CD4
:1019A00014B815B8FB81F8B9288527B981E00E94E1
:1019B0002E0539EBA31637E0B30608F0FDC24C81C3
:1019C00044B9882D0E9460058F359D4008F404C1FC
:1019D00014B881E00E942E05742D7229798B74B998
:1019E000882D0E946005998F888F832D0E94640541
:1019F0009F878E87892D0E9464059B8B8A8B8E859D
:101A00009F85813D974008F48CC083E08093180146
:101A10008DE080931701E88DF98DAE16BF0620F496
:101A2000EA19FB09F98FE88F4090120150901301D9
:101A3000612C712C60E677EB87E490E0A3019201C2
:101A40000E94472CA88DB98D0E94042CAE85BF85BD
:101A50009D0140E050E00E94472C8091790188234D
:101A600069F080916C0190916D01A0916E01B0912F
:101A70006F0182179307A407B507A0F420936C01A8
:101A800030936D0140936E0150936F018A899B8959
:101A9000EE85FF858E1B9F0B9093710180937001E3
:101AA00021E001C020E080916C0190916D01A09136
:101AB0006E01B0916F018C159D05AE05BF0588F4D0
:101AC000C0926C01D0926D01E0926E01F0926F01B4
:101AD0008E819F81801B910B909371018093700187
:101AE00003C0222309F4CFC39501A8EEB3E00E94FE
:101AF000EE2BA30192010E94472C30937301209397
:101B0000720129813A81A8EEB3E00E94EE2BA30175
:101B100092010E94472C309375012093740121E0BB
:101B2000B2C3F1E6AF16B10408F056C0288D398D66
:101B3000213D47E0340708F44FC084E0809318014A
:101B400026503F4F6A897B892617370710F082E1BC
:101B500001C083E1809317017C857770E72E832D88
:101B6000806480937C00ABE0FA2ECC24C394D12C0B
:101B70000FEF13E0A89561E0862D0E94AD12298930
:101B800024B986B18E21E9F324B880917A0080646B
:101B900080937A0080917A0086FDFCCF8091780056
:101BA00090917900A801481B590BC40ED51EFA94D8
:101BB00009F7C601880F991F880F991F69E070E027
:101BC0000E941F2C709375016093740180917901BC
:101BD0008F5F80937901A3CF5C8154B965B8882D5C
:101BE0000E9460059D838C83832D0E9464059F83E2
:101BF0008E836091430170914401681B790B6A30B8
:101C0000710590F514B881E00E942E05842D82297B
:101C100084B945B8882D0E9460059D838C83832DEF
:101C20000E9464059F838E8380911201909113011D
:101C30009C0140E050E060E677EB87E490E00E9492
:101C4000472CAC81BD810E94042C2091430130912E
:101C50004401AE81BF812A1B3B0B40E050E00E9453
:101C6000472C69017A0109C08C819D81861B970BE5
:101C70000E941F2C6B01E12CF12C57B888E088B929
:101C8000B985B4B9B5B9892D0E9460058C01832D41
:101C90000E9464059F878E87882D0E9464059C01A1
:101CA0000034E6E01E0708F084C175B8892D2E8B3C
:101CB0003F8B0E946005AC0174B8892D4C8B5D8B05
:101CC0000E9460059B8B8A8B15B881E00E942E05CF
:101CD00075B8892D0E9460052E893F894C895D89E0
:101CE0006A897B896034764008F058C0813391411D
:101CF00008F454C0C8018A569F4F4817590708F086
:101D00004DC085E080931801809167018F5F8093BB
:101D100067018E859F85821B930B90935F01809353
:101D20005E01021B130B109363010093620114B850
:101D300015B8EC85E8B981E00E942E0574B8892DAC
:101D40000E946005853F910508F0ABC2F985F4B9A2
:101D5000832D0E946005813D934008F4A2C2892D25
:101D60000E9464058D3D924008F49BC274B8892D91
:101D70000E9460058D3D924008F493C275B881E0E1
:101D80000E942E0515B8892D0E946005853F91059A
:101D900008F087C286E08093180183C2472844B8C0
:101DA00045B8892D0E9458059C01609143017091AE
:101DB0004401681B790B7F876E87832D2E8B3F8BA9
:101DC0000E9464059A87898700914301109144011C
:101DD000081B190B882D0E9464059D878C872E890E
:101DE0003F890E3F79E0170708F48FC083E08093A6
:101DF00018018CE0809317018E859F85A816B9067F
:101E000020F48A199B099F878E8740901901509072
:101E10001A01612C712C60E677EB87E490E0A30156
:101E200092010E94472CAE85BF850E94042C980128
:101E300040E050E00E94472C80916701882369F0C0
:101E400080915A0190915B01A0915C01B0915D017C
:101E500082179307A407B507A0F420935A01309383
:101E60005B0140935C0150935D0189859A85AC8547
:101E7000BD858A1B9B0B90935F0180935E0121E0DF
:101E800001C020E080915A0190915B01A0915C011A
:101E9000B0915D018C159D05AE05BF0598F4C0920B
:101EA0005A01D0925B01E0925C01F0925D018E815B
:101EB0009F81EC81FD818E1B9F0B90935F0180932E
:101EC0005E0103C0222309F4EDC19501A8EEB3E041
:101ED0000E94EE2B209112013091130140E050E05E
:101EE0000E94472C309361012093600129813A813F
:101EF000A8EEB3E00E94EE2BA30192010E94472CB2
:101F00003093630120936201CCC1F1E6AF16B104B6
:101F100008F04FC04E855F8549345D4008F449C0E4
:101F200084E08093180182E0809317018C859D8561
:101F300086509F4F8217930718F483E08093170110
:101F40000B810770832D806480937C001BE0EE245E
:101F5000E394F12CA89560E0862D0E94AD1244B860
:101F600045B886B18023E9F774B880917A0080641F
:101F700080937A0080917A0086FDFCCF8091780072
:101F800090917900E80EF91E115021F7C701880FD2
:101F9000991F880F991F69E070E00E941F2C7093B1
:101FA000630160936201809167018F5F8093670195
:101FB00078C188E087B988B914B815B888E087B9BE
:101FC00077ECA71671E0B70608F4B9C088B918EC29
:101FD0000885052907B981E00E942E0557B8892D8B
:101FE0000E946405429710F01150A1F78B8584B9C7
:101FF00085B961E0862D0E94AD12892D0E94600591
:102000008C01988994B915B8A885A7B9BB81B8B9CE
:1020100060E0862D0E94AD12A0904301B090440173
:10202000882D0E9460056C0124B8892D0E946005EE
:102030009A838983882D0E94640529813A81281B0F
:10204000390B3A83298388E088B957B874B875B8D2
:1020500061E0862D0E94AD12892D0E9460057C01F1
:10206000882D0E946405E81AF90A49815A814E15A3
:102070005F0548F45B8554B955B9892D0E94600508
:10208000FA82E98219C085010C191D09688964B9B1
:1020900015B8788577B98B8188B960E0862D0E9464
:1020A000AD12E0904301F0904401882D0E9460053C
:1020B000D701A81BB90BCD0129813A8127593109D4
:1020C00029383141E0F529813A8182179307B8F523
:1020D000C80163E0969587956A95E1F7893C91057B
:1020E00010F088EC90E0800F911F49815A8184178D
:1020F000950728F5CA0154E0969587955A95E1F71A
:1021000080179107E0F480911801823018F482E082
:102110008093180180911601E82FF0E0DF01A656A8
:10212000BE4F9C9216968C92EE0FFF1FEA55FE4F03
:1021300029813A81318320838F5F8093160120911A
:1021400079018091670190E0820F911D892B09F040
:1021500091C0A8958091430190914401880F991FE7
:10216000880F991F9093440180934301809141010E
:1021700090914201880F991F880F991F90934201F7
:10218000809341018EEB80933F0188E088B957B876
:1021900074B875B818E1C12CD12C882D0E94600547
:1021A000582E492E892D0E9464057C018C199D09A9
:1021B00097FF03C0919581959109039734F0A895F5
:1021C000115009F440C06701E8CF15B83B8534B918
:1021D000892D0E94600581359105A8F53B8535B9AB
:1021E000892D0E9460058C01488547B95B8158B9EB
:1021F00015B824B888E1B82EC12CD12C892D0E94A5
:102200006005782E692E882D0E9464059A83898343
:102210008C199D0997FF03C09195819591090397AA
:102220000CF04EC0488944B9882D0E9460055C01BD
:1022300050ECE51654E4F50608F049C0053861E0B5
:10224000160708F449C08091430190914401969586
:10225000879596958795909344018093430180914B
:102260007E0190917F01909342018093410189E129
:1022700080933F0188E087B988B914B815B869968A
:10228000E2E10C94032D809179018F5F80937901B5
:10229000222381F330927601809277019092780127
:1022A000E9CF21E0809167018F5F8093670122234E
:1022B00009F3309264019092650180926601DACF51
:1022C000A895BA9409F4BFCFC980DA8097CF003BB4
:1022D0007DE4170708F0B7CFC0904301D0904401C8
:1022E00089819A81843A924008F061C0B8E9AB16BE
:1022F000B10408F4A8CF9801A8E9B7EB0E94EE2B2F
:102300009601201B310B40E050E00E94472C290130
:102310003A0196012A193B09A8E9B7EB0E94EE2B76
:102320006501E12CF12CA70196010E94472C08378A
:10233000EFE01E0770F4C301B201B2E0660F771F31
:10234000881F991FBA95D1F7620F731F841F951FBD
:1023500012C0F8E7AF16FFE0BF06A0F4CA01B9014A
:10236000A2E0660F771F881F991FAA95D1F7640D09
:10237000751D861D971D25E030E040E050E00E946D
:10238000472C08C0240D351D461D571D56954795F1
:1023900037952795A4E6B0E00E94042C6B017C01E0
:1023A0002CEAC20E2DE0D21EE11CF11C75C0252DB9
:1023B000342DE216F30608F49701072D162D4981F6
:1023C0005A810417150708F48A0159012E153F0593
:1023D00008F45701A0911901B0911A01B501621BCF
:1023E000730B9B010E94EE2B96012A193B0940E0DA
:1023F00050E00E94472C29013A01780189819A8195
:102400008017910708F47C01A0911201B09113018B
:1024100098012E193F090E94EE2B870120E030E041
:10242000A90198010E94472C98E7A9169FE0B906D8
:1024300070F4C301B201E2E0660F771F881F991F95
:10244000EA95D1F7620F731F841F951F12C0A8E78A
:10245000EA16AFE0FA06B0F4CA01B90142E0660F2D
:10246000771F881F991F4A95D1F7640D751D861D2A
:10247000971D25E030E040E050E00E94472C6901C4
:102480007A010AC069017A01C40CD51CE61CF71C4C
:10249000F694E794D794C79410911801133008F07C
:1024A000D2CE80918001882309F443C0B8E08B9F8D
:1024B00030011124F301E15EFE4F3F01968193113B
:1024C00032C080809180A280B380A7019601281934
:1024D00039094A095B0957FF07C050954095309567
:1024E00021953F4F4F4F5F4FAAE0B0E00E94042C70
:1024F000A50194012C593F4F4F4F5F4F2C0D3D1DAF
:102500004E1D5F1D0E94472C232B242B252B09F0E9
:102510009ACE123019F081E08093180181E0D30146
:1025200017968C9390CE9781911103C08150809320
:1025300080018091800128E0829FF0011124E95DF3
:10254000FE4FC082D182E282F382848295823682FB
:1025500017828F5F8093800176CECF93C82FC0956E
:1025600095B160FF02C0982B01C09C2395B994B12E
:10257000982B94B982E00E942E0584B18C2384B9F3
:1025800085B18C2385B9CF910895A0E0B0E0EBEC44
:10259000F2E10C94F02C8AE0C82E98E0D92E2FE3BB
:1025A000B22ED7B8D8B815B8B4B880E00E9460058C
:1025B0008C0181E00E946405EC0182E00E946405C8
:1025C00020911801283081F428E027B914B810931D
:1025D000020100930101D0930401C0930301909381
:1025E00006018093050159C031E0C430D10508F0DF
:1025F00030E021E00430110508F020E0232319F039
:102600008430910508F3083E134010F028E001C023
:1026100029E0C83ED34008F42260883E934008F485
:10262000246027B9C0E0D0E0A89580E00E9458055A
:102630007C0181E00E9464058C0182E00E946405B7
:1026400024E1E21625E0F20608F4389A043135E078
:10265000130708F4399A843125E0920708F43A9A6E
:1026600036E0E316F10428F40630110510F406975D
:1026700038F02196C43F81E0D807B1F6D092180116
:1026800000E010E00C171D0729F00E941D050F5FE8
:102690001F4FF8CFCA9409F084CFCDB7DEB7E9E079
:1026A0000C940C2DCF92DF92EF92FF92CF9320915A
:1026B0008401309185014091860150918701C0913C
:1026C00096018AE0C82ED12CE12CF12C8C2FCF5F03
:1026D000213A96E8390791E04907510538F0CA01D7
:1026E000B901A70196010E94472CF0CF8093960173
:1026F000A0914301B09144010E94042C28E833E1E9
:1027000040E050E00E94472C2093840130938501E3
:102710004093860150938701CF91FF90EF90DF9017
:10272000CF900895A0E0B0E0E8E9F3E10C94ED2C3F
:10273000C82FD62F8FEF860F9C2F990F9C0F890FD4
:1027400080936901E62FF0E0EB57FF4F0491EC2FE7
:10275000F0E0E557FF4F149180911801813009F4A2
:1027600097C24091160180EA91E066EA71E0DC01CF
:102770002A2F281B2417A0F42D912D130EC09D0184
:1027800027503109F90120812C1307C0FB0120815A
:1027900031812C3D354008F47BC26E5F7F4FE8CF1E
:1027A0000860109291011092900110928401109291
:1027B0008501109286011092870184EF8093960123
:1027C0000E94C51288E088B915B807B914B88C2FD3
:1027D0000E9464056C0110926B0110926A017C01E9
:1027E00080916A0190916B01843F914080F515B909
:1027F00014B90E94180514B815B80E941E05A895B2
:102800008C2F0E946405C816D90620F47C01EC18B0
:10281000FD0802C0E12CF12C80916A0190916B01BE
:102820008E37910528F02BE4E216F10408F42BC250
:102830005DE2E51651E0F50680F480916A01909121
:102840006B01019690936B0180936A01C9CFFDE201
:10285000EF16F1E0FF0608F416C280916A0190912C
:102860006B01892B21F0C70100E010E006C025E1D3
:10287000E21625E0F206B8F380C020916A0130919B
:102880006B012017310748F00E9419058C2F0E9418
:102890006405A8950F5F1F4FF0CFC816D90630F416
:1028A0008C199D098E159F05C8F402C080E090E048
:1028B0008701081B190BA1F0093C110508F0E3C1C1
:1028C0009801A8EEB3E00E94EE2B4701A12CB12C99
:1028D000A50194010E94472C690104C000E010E0AA
:1028E000C12CD12CA0906A01B0906B015FEFA51AAA
:1028F000B50AC501A0E0B0E080938C0190938D01F2
:10290000A0938E01B0938F01C8018E0D9F1D0E9470
:1029100095169C01D5010E94EE2B60938C0170935B
:102920008D0180938E0190938F0160938401709349
:102930008501809386019093870187EF80939601AC
:102940000E945213209184013091850140918601AB
:1029500050918701A8EEB3E00E94042C24E630E0F9
:1029600040E050E00E94472C209384013093850181
:10297000409386015093870144C10E94C51215B847
:102980008FE087B988E088B9F12EFF0CF4B880E4B5
:1029900080937B0084E580BF8C2F806480937C00D3
:1029A00086E180937A000E94210510926B011092BB
:1029B0006A0110928000109285001092840087E2D4
:1029C00086BB81E280936F0081E080938101F5B83E
:1029D0009091180180938100943059F481E090E047
:1029E0000C2E01C0880F0A94EAF780958F7087B982
:1029F00001C007B9F89483B7817F83BF80918101BB
:102A0000882389F083B7816083BF7894889583B7E2
:102A10008E7F83BFF894A89580916A0190916B0195
:102A20008034964059F7789410928100E0908600A7
:102A3000F090870010926F0086E980937A0014B8B6
:102A400015B88C2F0E9464052091470130914801F0
:102A5000821B930B0C96909399018093980180911F
:102A60006A0190916B018032934008F00CC1809113
:102A70006A0190916B0190938F0180938E01F09287
:102A80008D01E0928C0184EF8093960180916A0120
:102A900090916B0182349105C8F060918C01709126
:102AA0008D0180918E0190918F0124E630E040E00D
:102AB00050E00E94472C20938C0130938D0140936D
:102AC0008E0150938F0186EF80939601A091820131
:102AD000B091830120918C0130918D0140918E0144
:102AE00050918F010E94042C20E233E040E050E03E
:102AF0000E94472C20938C0130938D0140938E01CE
:102B000050938F0120938401309385014093860177
:102B1000509387010E94521380919601843F09F0DF
:102B200060C0C0908401D0908501E0908601F09053
:102B3000870120EAC2162FE0D206E104F104C0F4B6
:102B4000A70196012C543F4F4F4F5F4F60EA7FE043
:102B500080E090E00E94472C2C0D3D1D4E1D5F1D16
:102B6000209384013093850140938601509387011F
:102B70008091690190E08C5F9F4F0E947B2DC090F7
:102B80008401D0908501E0908601F0908701482F64
:102B900050E060E070E04C155D056E057F0568F45F
:102BA000C41AD50AE60AF70AC0928401D0928501B8
:102BB000E0928601F092870114C084E1C80ED11C16
:102BC000E11CF11CC416D506E606F70610F40E94B7
:102BD000E40A1092840110928501109286011092ED
:102BE000870114B98091840190918501A09186019B
:102BF000B09187014997A105B10508F444C0C12CE3
:102C0000D12C80911601882321F080911801843005
:102C1000D1F587E08093180120919601809197016A
:102C20008217BCF028132FC0409184015091850178
:102C3000609186017091870180918801909189014E
:102C4000A0918A01B0918B0184179507A607B70759
:102C5000D0F48091840190918501A0918601B0917A
:102C600087018093880190938901A0938A01B09392
:102C70008B0120939701D0929301C0929201D0933F
:102C80009401C093950188E087B988B914B815B844
:102C9000CDB7DEB7ECE00C94092D1F920F920FB662
:102CA0000F9211248F939F93B59904C08091810155
:102CB000811109C0B59B10C080918600909187005A
:102CC0008A3F910548F480916A0190916B010196C9
:102CD00090936B0180936A019F918F910F900FBE2B
:102CE0000F901F9018951F920F920FB60F921124FC
:102CF0008F939F9310928101B09B10C080918600AA
:102D0000909187008A3F910548F480916A019091E3
:102D10006B01019690936B0180936A019F918F9153
:102D20000F900FBE0F901F9018950F9221E08C32DC
:102D3000920710F48CE291E08C52914069E170E0CE
:102D40000E941F2C99E16B3210F0982F6BE2981BB8
:102D5000EEE3F4E0E60FF11DE60FF11D459155910C
:102D600025913591692F421B530B649FC001659FCC
:102D7000900D11240C9669E170E00E941F2C620FE7
:102D8000731FCB010F900895A0E0B0E0EAECF6E1EC
:102D90000C94ED2C88E893E19093440180934301D7
:102DA0008EEB80933F01C8E0C8B988E187B90E94E3
:102DB0002605C7B984E00E946005AC018B5C984091
:102DC000833F9140A0F481E080935701209143011B
:102DD00030914401AFEBB9E00E94EE2B9A0140E044
:102DE00050E00E94472C30934401209343018EE031
:102DF0000E9464058EE00E946005909348018093D4
:102E000047010E940C06D9E0D7B9C1E0C5B9C4B9E1
:102E100080E00E9460057C010AE007B914E015B962
:102E200014B981E00E946005E80EF91E8CE0882E3E
:102E300087B890E1992E95B894B882E00E94600519
:102E4000E80EF91E15B8D8B9D7B9C4B9C091430175
:102E5000D091440180E00E9460055C0108B907B987
:102E600014B9009143011091440181E00E94600572
:102E70006C0188B887B894B8809043019090440161
:102E800082E00E946005C00FD11FC80DD91DCA196C
:102E9000DB09CC19DD09C81BD90B80914301909146
:102EA00044014C01880C991C880E991E8E189F08AD
:102EB0008C1A9D0AA12CB12C9701A0E9BAE10E94BD
:102EC000EE2BA50194010E94472C69017A013093F1
:102ED0005601209355019E01A0E9BAE10E94EE2B14
:102EE000A50194010E94472C30934601209345018F
:102EF0002057354E30931A012093190180E7C81AE4
:102F000085EED80AD0921301C092120189E1809314
:102F10003F01CDB7DEB7ECE00C94092DA0E1B0E0A5
:102F2000E4E9F7E10C94E72C10920001809118017C
:102F3000813009F029C280918001813009F024C2DA
:102F40008091270190912801A0912901B0912A0137
:102F500089309245A105B10508F016C2312C809147
:102F60002B01A0902C0141E0431510F0B82E02C0B7
:102F7000BA2CA82EEA2DF0E0EB57FF4F74908B2D62
:102F800090E0FC01E557FF4FE49115B858E058B9BF
:102F900040912701509128016091290170912A01E7
:102FA000272D2860403F510561057105A0F430FCD4
:102FB00012C0009112011091130100591A4141E011
:102FC00050E00B2C02C0440F551F0A94E2F7CA01CF
:102FD000822B87B906C0E4B927B90091120110917C
:102FE000130144E1642E8B2D0E945C054C018A2D57
:102FF0000E94640552E08516910410F4029710F0C7
:103000006A9489F760E460937B0084E580BF8B2D30
:10301000806480937C0086E180937A00E12CF12C1F
:1030200010928000109285001092840087E286BB87
:103030000E942105932D9170292E30FC05C081E856
:103040008093810078B808C078B80E942A0580E291
:1030500086BB81E88093810046B345FF11C0109282
:10306000810080E286BB80918600909187006C0190
:1030700020918400309185008217930768F013C077
:1030800040FFEACF21E026BBA895C70101967C014D
:103090008035910509F7E3CF40FF05C041E046BB0D
:1030A0005FEFE51AF50A68E068B986E980937A006F
:1030B00034E1732E8B2D0E945C054C018A2D0E94F9
:1030C000640522E08216910410F4029710F07A94BD
:1030D00089F7809027019090280180915501909167
:1030E0005601880E991E800E911E20911401309178
:1030F000150100394AE11407B0F451EEC516D104A8
:10310000E104F10438F4C60165E070E00E941F2C70
:10311000645101C069E128523109261B310967FD5C
:10312000339586E009C0C40160EB76E30E941F2C52
:1031300087E0860F285D3F4F90E0A0E0B0E08C155F
:103140009D05AE05BF0528F4C81AD90AEA0AFB0A8C
:1031500003C0C12CD12C7601222029F062E2C60ED8
:10316000D11CE11CF11C80E5E816F10418F0C12C1B
:10317000D12C76019BE0C916D104E104F10428F0BA
:1031800041E0C41AD108E108F1084091430150918F
:103190004401A12CB12CA8EEB3E00E94EE2B2B0130
:1031A0003C019801DA010E94EE2BA50194010E94D6
:1031B000472C44275527C301B2010E94472CC9015F
:1031C0000E946406FC01A5019401C701B6010E949A
:1031D0000F2C4B015C01BF0180E090E023E0660F03
:1031E000771F881F991F2A95D1F76B5F7F4F8F4FED
:1031F0009F4F2AE030E040E050E00E94472CC5019C
:10320000B4010E94472C832D90E0E1E0F0E0EC0F48
:10321000FD1F64E0369EE00DF11D112420833183F3
:1032200042835383211017C06CE0C616D104E10419
:10323000F10488F0FC013196EE0FFF1FEE0FFF1F27
:1032400081E090E08C0F9D1FE80FF91F20833183F0
:10325000428353833394A895339493E0931508F0F5
:103260007ECE88E088B984E00E942E0521E04D8161
:103270005E816F81788589819A81AB81BC81841759
:103280009507A607B70708F020E04D855E856F8596
:10329000788989859A85AB85BC8584179507A607AB
:1032A000B70710F032E001C033E0E22FF0E0EE0F9C
:1032B000FF1FEE0FFF1F41E050E04C0F5D1FE40FBA
:1032C000F51FDA0154E0359FA00DB11D11244D9179
:1032D0005D916D917C9180819181A281B38148172C
:1032E00059076A077B0708F0322FE1E0F0E0EC0FA6
:1032F000FD1F64E0369FE00DF11D11248081918156
:10330000A281B3818093070190930801A0930901E2
:10331000B0930A012BEF2093000130FD0DC04091C6
:103320002701509128016091290170912A01403FA5
:10333000510561057105B8F02CEF20930001BC0127
:10334000CD016B5F7F4F8F4F9F4F2AE030E040E011
:1033500050E00E94472C20930701309308014093CE
:10336000090150930A018091070190910801A091F1
:103370000901B0910A01892B8A2B8B2B11F4109231
:10338000000188E087B914B86096E2E10C94032D3F
:103390002F923F924F925F926F927F928F929F9265
:1033A000AF92BF92CF92DF92EF92FF920F931F9353
:1033B000DF93CF93CDB7DEB76E970FB6F894DEBF2D
:1033C0000FBECDBF662EB82E860F898320911801BF
:1033D000273041F5209188013091890140918A017F
:1033E00050918B011091970109C0CA01B9012AE0DF
:1033F000312D412D512D0E94472C1F5F173FACF3FB
:103400002A3560E036074105510518F48FEF9FEF2C
:1034100082C1173F39F480E028178DE7380741054E
:10342000410510F020E03DE72C8B3D8B26EDA22ED0
:1034300002C094EDA92EE5E8F0E0E60DF11D8591BE
:1034400088608E87E5E8F0E0EB0DF11D85918860DE
:103450008F87EBE8F0E0E60DF11D7590EBE8F0E00A
:10346000EB0DF11DC59090EC692AB92A81E0E82E98
:10347000F12C012D112D8E831F82188619861A8634
:103480001B861C861D86188E198E1B8E1A8E0E9416
:10349000C51288E088B960927C000E9422053F85B1
:1034A00037B975B874B80E94290514B815B8DD2469
:1034B000B4ED9B2EA6ED8A2E3E8537B975B874B84B
:1034C00060927C00A895A0927A0080917A0086FD97
:1034D000FCCFA0927A0080917A0086FDFCCF2090EC
:1034E000780030907900B0927C00A0927A008091B0
:1034F0007A0086FDFCCF80927A000E9427050E9408
:103500002905C5B8C4B80E9428050E942A05A895B7
:10351000A895A895A89514B815B880917A0086FD4D
:10352000FCCF2091780030917900288B398B3F8532
:1035300037B9C5B8C4B8A895B0927C00A0927A00FB
:1035400080917A0086FDFCCFA0927A0080917A006B
:1035500086FDFCCF609178007091790060927C00CC
:10356000A0927A0080917A0086FDFCCF80927A004A
:103570000E9427050E94290575B874B80E94280585
:103580000E942A05A895A895A895A89514B815B8DD
:1035900080917A0086FDFCCF4091780050917900AF
:1035A00014B8CB01820D931DE80EF91E011D111DEB
:1035B000EA82FB820C831D8388899989840F951F79
:1035C0002E813F8168857985280F391F611D711D06
:1035D0002E833F836887798722E32417150650F0EE
:1035E00075B874B80E942C0514B815B8888D8395E9
:1035F000888F07C0483E73E0570718F08A8D83957F
:103600008A8F888999892817190660F03E8537B90D
:10361000C5B8C4B80E942C0514B815B8898D839517
:10362000898F07C0883E73E0970718F08B8D8395CC
:103630008B8FD3945D2D5F3F09F03ECF40905501B5
:1036400050905601440C551C9201E4E0240D351DA8
:10365000EA95E1F72901570168016E807F8088842F
:103660009984209118012730C1F46C897D89812DBE
:10367000912D6C537040804090409B01AC010E94A2
:103680000F2C9B01AC016FEF71EC8EE390E00E9478
:10369000472C621A730A840A950AA614B704C80450
:1036A000D90428F46A187B088C089D0803C0662496
:1036B00077244301B20180E090E09301A4010E94CD
:1036C0000F2C9501A6010E94472C80E090E07981A3
:1036D000870F911D0E947B2D90E0682EC90160E14B
:1036E00070E00E941F2C260F371FC90168161906AB
:1036F00018F4861991090FC08C5E9F4F86159105AD
:1037000040F48C899D89843981E1980710F00E94EA
:10371000E40A812D912D6E960FB6F894DEBF0FBE90
:10372000CDBFCF91DF911F910F91FF90EF90DF9070
:10373000CF90BF90AF909F908F907F906F905F9051
:103740004F903F902F900895A0E0B0E0EAEAFBE1AF
:103750000C94ED2C8091920190919301892B09F0AA
:103760009DC0E0919401F0E0EB57FF4FC491C86019
:10377000E0919501F0E0E557FF4F14910E94C512CA
:1037800088E088B915B8C7B914B9809195010E942D
:103790006405EC0100919701083F0CF07FC0045FC5
:1037A000C0908801D0908901E0908A01F0908B014F
:1037B0008AE0882E912CA12CB12C043070F4C70122
:1037C000B6016B5F7F4F8F4F9F4FA50194010E9401
:1037D000472C0F5F69017A01F0CFD701C60101972D
:1037E000A109B10988389341A105B10508F056C077
:1037F00015B914B9A12CB12CAC14BD0430F40E943D
:10380000280582E0A80EB11CF7CF14B815B8A8950A
:1038100085E080933F01809195010E946405C8175F
:10382000D90720F45C01AC1ABD0A02C0A12CB12C4E
:10383000812C912C8C149D0430F40E9428052FEFCC
:10384000821A920AF7CF809195010E94640529E1BE
:1038500020933F01A895C817D90718F48C1B9D0B1E
:1038600002C080E090E08A159B0588F49501281B32
:10387000390B69F0A4EFB1E00E94EE2B950140E016
:1038800050E00E94472C30939301209392010E94B4
:10389000C51288E087B988B914B815B8CDB7DEB7B6
:1038A000ECE00C94092DA5E0B0E0E9E5FCE10C9416
:1038B000E72C83E293E00E94F42120EF2A835498BE
:1038C0000E941D0514BC16BC10920C0110920D0133
:1038D00010920E0110920F0131E035BB30936E0053
:1038E0001092800083E19AE790938900809388008A
:1038F000E1E0F0E0F0938B00E0938A001092850005
:103900001092840083B5816083BDF6E0F6BBF0932E
:103910006F00789424E02093810012E319820E94C2
:103920001705A8954F9902C031E0398385B58111FB
:1039300025C015BC86B580930C010E94FE0286E668
:103940000E948E028DE30E948E0260910C017091A4
:103950000D0180910E0190910F0107E028E440E0F5
:103960000E9431048AE70E948E025498809181005F
:10397000882339F08FE30E948E0203C0115079F63C
:10398000D8CF1092810010926F0020910C013091DD
:103990000D0140910E0150910F01DA01C90101970B
:1039A000A109B109893D9146A105B10508F02BC1D6
:1039B000AAE0B0E00E94042C685F7F4F8F4F9F4FBA
:1039C00023E096958795779567952A95D1F7660FA9
:1039D000771F70937B0160937A0154980E941D05B4
:1039E00016BC10920C0110920D0110920E01109253
:1039F0000F0181E085BB80936E0010927D011092D3
:103A00007C0194E09BBB8091680084608093680097
:103A1000789480916D00806180936D001D820E947A
:103A20001705A8954F9902C0E1E0E98380916D00E8
:103A300084FF05C0FD81FF5FFD83FA3F81F715BC60
:103A400080916D008F7E80936D00809168008B7FE8
:103A50008093680086B580930C010E94E30284E5A0
:103A60000E948E028DE30E948E0280910C01909143
:103A70000D01A0910E01B0910F0120917A013091BA
:103A80007B013C832B831C012D019C01A20160E082
:103A900070E080E090E003E00E941E2D5101620181
:103AA000E12CF12C00E010E00E94372D59016A0151
:103AB0007B01E82F192F03E00E941E2D0E2F0E947C
:103AC000372D03E00E941E2D51016201E12CF12CE3
:103AD00000E010E00E94372D02E00E941E2D00E061
:103AE0000E94372D01E00E941E2D00E00E94372D1C
:103AF00003E00E941E2DEB81FC815F01C12CD12CC3
:103B000000E00E94822C39014A011B012C012B810B
:103B10003C812038310530F007E023E745EFB30161
:103B2000C40116C084E6A82EB12CC12CD12CE12CE6
:103B3000F12C00E010E09301C2010E94822CE22FE0
:103B4000F42F07E023E747EF6E2F732F8F2F952F6A
:103B50000E9431043D813A3F21F48FE30E948E029E
:103B600052C09301A401B101C2012C393E4C434023
:103B70005105610571058105910509F008F443C0FF
:103B80000E94DF0286E60E948E028DE30E948E0272
:103B90009301A401B101C2015301640171018201C9
:103BA00021153A4C4A495B43610571058105910530
:103BB00089F080F020E030E04AE85DE568E775E4F0
:103BC00083E691E00E94822CE22FF42F07E028E4A4
:103BD0004AEF0FC020E030E846EC54EA6EE77DE89B
:103BE00083E090E00E94822CE22FF42F07E028E48B
:103BF0004CEF6E2F732F8F2F952F0E9431048AE781
:103C00000E948E02549810926E0080ED97E00E9400
:103C1000C2052981820F29F43A8131503A8331114A
:103C20004ECE2596E2E10C94032D1F920F920FB613
:103C30000F9211248F939F93AF93BF9378948091A9
:103C40000C0190910D01A0910E01B0910F019F5FA9
:103C5000AF4FBF4F80930C0190930D01A0930E01C5
:103C6000B0930F01BF91AF919F918F910F900FBEB5
:103C70000F901F9018951F920F920FB60F9211245C
:103C80008F9386E085BD8F910F900FBE0F901F9090
:103C900018951F920F920FB60F921124A8951092AB
:103CA000810015BC0F900FBE0F901F9018951F92AA
:103CB0000F920FB60F9211242F933F938F939F93E0
:103CC00080917C0190917D01892B11F481E085BD6B
:103CD00020917C0130917D0180917A0190917B014E
:103CE0002817390730F015BC80916D008F7E8093C6
:103CF0006D0080917C0190917D01019690937D01F2
:103D000080937C019F918F913F912F910F900FBED7
:103D10000F901F901895893008F08950811103C0C9
:103D20008DE293E027C0813019F483E293E022C052
:103D3000823019F48AEF92E01DC0833019F48FEEBF
:103D400092E018C0843019F48EEB90E013C08530F7
:103D500019F480EE92E00EC0863019F481ED92E005
:103D600009C0873019F481E193E004C0883021F460
:103D700086E093E00E944D0308950F93CF938EEB5E
:103D800090E00E94F421CAEF1092180160E082E0F6
:103D90000E94102280911801873009F042C00E94D1
:103DA000DF020E9471030E94DF0283E40E948E0200
:103DB0008DE30E948E02609188017091890180914B
:103DC0008A0190918B0103E026E4409197010E94C3
:103DD000310460919401809195010E94C8199093DB
:103DE0009101809390010E94E3020E9471030E945E
:103DF000E30284E792E00E944D036091900170918C
:103E000091016A3F8FEF780740F480E090E002E094
:103E100024EF4EEF0E9431040AC08FE30E948E020D
:103E200006C00E94FE028EEB90E00E944D0388EED9
:103E300093E00E94C205811103C0C15009F0A4CFD4
:103E4000CF910F91089508950F93843108F0845114
:103E5000833189F489E08093810081E090E0909340
:103E600089008093880007E028E44DEF60E074E962
:103E700085E397E748C1823189F489E08093810026
:103E800083E090E0909389008093880007E028E425
:103E90004DEF60E07AEC8AE99BE335C1813169F44A
:103EA00089E08093810087E090E09093890080937F
:103EB000880007E028E44DEF6CC0803169F489E0A8
:103EC000809381008FE090E0909389008093880038
:103ED00007E028E44DEF6FC08F3089F489E08093CC
:103EE000810089E190E0909389008093880007E049
:103EF00028E44DEF6AE871E88BE299E004C18E3066
:103F000069F489E08093810087E290E090938900D2
:103F10008093880007E028E44DEF60C08D3069F49D
:103F200089E0809381008FE490E0909389008093F2
:103F3000880007E028E44CEF2CC08C3069F489E05D
:103F4000809381008FE990E09093890080938800AE
:103F500007E028E44CEF2FC08B3069F489E08093B0
:103F600081008FE891E0909389008093880007E0BA
:103F700028E44CEF33C08A3089F489E080938100D3
:103F80008FE193E0909389008093880007E028E414
:103F90004BEF60E075E68DEC9DE1B5C0893081F4B2
:103FA000809381008FE396E090938900809388004E
:103FB00007E028E44BEF60E872EB86EE9EE0A3C0DA
:103FC000883089F489E0809381008FE99FE09093A5
:103FD00089008093880007E028E44BEF60E071EEF1
:103FE00085EF95E090C0873089F489E08093810067
:103FF00084E493E2909389008093880007E028E4AA
:104000004BEF6FE77DEF83EA92E07DC0863089F465
:1040100089E08093810089E593E290938900809301
:10402000880007E028E44BEF6FEE7BE682EA92E03F
:104030006AC0853089F489E08093810082E893E248
:10404000909389008093880007E028E44BEF68E4B0
:1040500071E68FE992E057C0843089F489E080935B
:1040600081008FE79EE3909389008093880007E0AA
:1040700028E44BEF60E478E78DE791E044C08330BB
:1040800069F48BE08093810080E792E0909389004F
:104090008093880007E028E44AEFA0CF823071F4D3
:1040A00081EE94E0909389008093880007E028E4F3
:1040B0004AEF60E870EF8AEF92E025C0813089F422
:1040C0008BE08093810089E698E19093890080934A
:1040D000880007E028E44AEF60E876E988E990E0A4
:1040E00012C0811112C08CE08093810088E09DE3B2
:1040F000909389008093880007E028E44AEF60E409
:1041000072E48FE090E00E9431048AE70E948E0200
:104110000F910895A0E0B0E0E0E9F0E20C94F22CF9
:104120008AEF92E00E94F42180E180938000109257
:104130006F0081E090E09093890080938800109256
:104140008B0010928A0083E086BB1092820088E088
:104150008093810015B891E194B988B989E087B955
:10416000229A8093810000E020E0D12C12E1CEE180
:10417000D0E0802F90E00A96BE010E94332CF62EEC
:10418000621791F00E94DF020E9471030E94DF0219
:104190008AEF92E00E944D03E12CEF1430F48EE29E
:1041A0000E948E02E394F9CFF22ED11669F01431F9
:1041B00008F014510E94E3020E9471030E94E3027E
:1041C000812F0E94241FD12E88EE93E00E94C20509
:1041D000882331F0853118F01F5F803530F400E01E
:1041E0000F5F003F10F42F2DC4CF1092810010926A
:1041F000800088E087B914B82298CDB7DEB7E7E031
:104200000C940E2DA4E0B0E0E8E0F1E20C94EB2C6D
:104210008FEE92E00E94F42183E28093800010925E
:104220006F0081E090E090938900809388008FEF89
:1042300090E090938B0080938A0083E086BB10927D
:10424000820015B881E184B988E088B989E087B92E
:10425000229A8093810010E000E08AE0782E612CA1
:1042600094E6C92ED12CE12CF12C88248A9423E0E9
:10427000922EA12CB12C701609F43FC083E687154D
:1042800010F4ECE97E0E272D30E0AFEFB3E00E9492
:10429000EE2B6E5C7F4F8F4F9F4FA70196010E94C0
:1042A000472C30938B0020938A0029833A834B83D9
:1042B0005C830E94E3020E9471030E94E302A8EE65
:1042C000B3E029813A814B815C810E94042C6150CA
:1042D0007E4F8F4F9F4FA50194010E94472CCA012A
:1042E000B90105E025E24FEF0E943104F8E2F6152E
:1042F00018F48CE30E942E05072D80E496E00E94BE
:10430000C205682E82E8861570F0E2E3E61518F41F
:10431000FAE07F0E03C0662011F0739410E01F5F77
:10432000103F08F4A8CF88E087B91092810010925E
:10433000800014B822982496EEE00C94072DCF93B9
:10434000DF93D0E0C0E088E393E00E94F4210E9474
:10435000E3020E9471030E94E3028C2F0E948B1ED5
:1043600088E893E10E94C205882399F1823378F1AD
:10437000CC23B9F1C13021F480E00E94531C28C045
:10438000C23019F40E948A2023C0C33019F40E945D
:1043900002211EC0C43019F40E94BD1E19C0C530D0
:1043A00019F40E943A2314C0C63021F481E10E941E
:1043B000D4060EC0C73019F40E94922409C0C83038
:1043C00039F45E9880E090E00E94C20501C0CF5FA2
:1043D000D0E0DF5FDA3528F4C93008F4B4CFC95033
:1043E000B2CFDF91CF910895A2E0B0E0EAEFF1E221
:1043F0000C94F62C89839A830E94FE0289819A810B
:104400000E944D0314E682E00E942E054F9902C0DF
:104410001150C9F70E94E3022296E3E00C94122D9A
:10442000A0E0B0E0E6E1F2E20C94EE2CC82FD62F2B
:104430008FEF860F9C2F990F9C0F890F8093690136
:10444000E62FF0E0EB57FF4F14911860EC2FF0E0EF
:10445000E557FF4FB4901092910110929001109285
:10446000840110928501109286011092870187EFD6
:10447000809396010E94C51288E088B915B817B9D3
:1044800014B88C2F0E9464058C0110926B0110925D
:104490006A019C019CE2E92EFF24F3944AE0A42ED9
:1044A00054E6952E80916A0190916B01843D904372
:1044B00008F06FC0B5B880916A0190916B01892BAB
:1044C00089F06701C21AD30A60916A0170916B0189
:1044D000A29EC001A39E900D11240E941F2CC616FF
:1044E000D70650F4B4B80E94210514B880916A012F
:1044F00090916B01019628C080916A0190916B01A7
:104500000B97C8F060916A0170916B01929EC00197
:10451000939E900D11240E941F2C6C157D0558F45C
:10452000B4B80E94170514B880916A0190916B018C
:104530008C599F4F09C0B4B80E941C0514B88091D3
:104540006A0190916B010A9690936B0180936A01C6
:1045500015B80E942305A8958C2F0E9464050817A2
:10456000190720F49C01201B310B02C020E030E031
:1045700080916A0190916B018B31964020F0253239
:10458000310508F46DC02D3281E0380708F48ACF78
:1045900005C02D3281E0380708F462C080916A01BD
:1045A00090916B01019729F4253145E0340708F01B
:1045B00057C000916A0110916B01000F111FA801F3
:1045C00060E070E040938C0150938D0160938E0108
:1045D00070938F01C9010E9495169C01D8010E9419
:1045E000EE2B60938C0170938D0180938E019093DC
:1045F0008F0160938401709385018093860190936D
:1046000087010E945213609184017091850180910D
:104610008601909187012AE030E040E050E00E945E
:10462000472C209384013093850140938601509359
:10463000870187E0809318012093880130938901D6
:1046400040938A0150938B0180919601809397014A
:104650001092930110929201D0939401C09395010E
:1046600088E087B988B914B815B8CDB7DEB7EBE0E4
:104670000C940A2DA8E1B0E0E0E4F3E20C94ED2CF8
:1046800080EE92E00E94F4210E94E3028AED92E023
:104690000E944D03DE015196CE010996AE014F5F97
:1046A0005F4F9E01275E3F4FF42EE52E1D921D9217
:1046B000FC0111921192CF01FA0111921192AF01F6
:1046C000A217B30799F785E185B984B900E010E036
:1046D000812C48E0D42E59E0C52E6AE0B62E7CE04D
:1046E000A72ED8B8C7B80E942B0586B181FB9924A4
:1046F00090F882FF02C0939493940115110589F0FC
:10470000981469F0EF2DFE2DE90DF11DE90DF11D55
:1047100080859185019691878087982C02C034E02E
:10472000932EB7B80E942B0596B1892F817092FD08
:104730008E5FF4E09F120BC0EF2DFE2DE80FF11DF0
:10474000E80FF11D808991890196918B808BA7B824
:104750000E942B0596B1892F817091FD8E5F94E0A8
:1047600099120BC0EF2DFE2DE80FF11DE80FF11D82
:1047700080819181019691838083A8950E941D0577
:104780004F9905C015B814B888E087B9C7C04989E2
:104790005A894531510508F16B897C89653171056C
:1047A000E0F02D893E8925313105B8F08F89988D4B
:1047B0008531910590F0260F371F11E0241735073A
:1047C00008F010E0FF24F3942817390708F0F12CC3
:1047D000CC24C39422E0E22E4CC049855A85453151
:1047E000510510F16B857C8565317105E8F02D85EB
:1047F0003E8525313105C0F08F8598898531910539
:1048000098F0260F371F11E02417350708F010E045
:10481000FF24F3942817390708F0F12CC12C92E0FB
:10482000E92EDD24D39430C049815A8145315105A8
:1048300010F16B817C8165317105E8F02D813E813D
:1048400025313105C0F08F8198858531910598F02B
:10485000260F371F11E02417350708F010E0FF245A
:10486000F3942817390708F0F12C82E0C82EEE24C3
:10487000E394D12C09C00F5F1F4F0931E6EF1E07EB
:1048800009F44CC0892C2DCF0E94E3020E947103D1
:1048900000E00E94E3028D2D0E94C1028DE20E9481
:1048A0008E0200FD02C08DE201C08FE20E948E02E6
:1048B0008DE20E948E028C2D0E94C1028DE20E9428
:1048C0008E0201FD02C08DE201C08FE20E948E02C5
:1048D0008DE20E948E028E2D0E94C1020E94C502AE
:1048E000802F837021F4112361F083E405C08330AD
:1048F00041F4FF2031F08FE60E948E0280ED97E0B8
:1049000004C00E94C50280E991E00E94C2058111A5
:1049100039CF0F5F083709F0BCCF34CF6896ECE091
:104920000C94092D0F930E94FE028CE291E00E94EC
:104930004D030E94E30288EE90E00E944D0382E066
:1049400090E00E947B2D682F70E080E090E003E013
:1049500020E24EEF0E94310483E090E00E947B2D24
:10496000682F70E080E090E020E24EEF0E9431047A
:1049700081E090E00E947B2D682F70E080E090E065
:1049800024EF4EEF0E94310488E99AE30E94C205A9
:104990000E94FE0281EE90E00E944D03609145016D
:1049A0007091460180E090E024EF4FEF0E943104C7
:1049B0000E94E3028AED90E00E944D036091550150
:1049C0007091560180E090E024EF4FEF0E94310497
:1049D00088E99AE30E94C2050E94FE0286ED90E0FB
:1049E0000E944D0389E090E00E947B2D682F70E0CB
:1049F00080E090E020E240E00E9431048AE090E014
:104A00000E947B2D682F70E080E090E020E240E083
:104A10000E94310486E090E00E947B2D682F70E0B8
:104A200080E090E026E444EF0E9431040E94E3021B
:104A30000E94C5020E94C5020E94C50285E090E066
:104A40000E947B2D682F70E080E090E020E240E043
:104A50000E94310488E090E00E947B2D682F70E076
:104A600080E090E020E240E00E94310484E090E0A9
:104A70000E947B2D682F70E080E090E026E444EFF8
:104A80000E94310488E99AE30E94C2050E94FE0256
:104A90008FE690E00E944D038BE090E00E94832D12
:104AA0000E9479030E94E30288E690E00E944D0391
:104AB0008DE090E00E947B2D992787FD90950E94C4
:104AC000790388E99AE30E94C2050F9108951F9324
:104AD000CF93DF9380E090E00E947B2D182F8431EC
:104AE00031F5C0E0D0E0CE018C5F9F4F0E947B2D5E
:104AF000CC23A1F0C33099F4811789F0282F30E03E
:104B0000412F50E0BA016F5F7F4F2617370739F00A
:104B10004E5F5F4F2417350711F009C0182F8A50D8
:104B2000853B28F42196C730D105E9F63DC00E94A7
:104B3000DF0285E40E948E0285E40E948E0263E01B
:104B40008DE090E00E94892D6CE070E08BE090E0B9
:104B50000E94972D69E379E384E090E00E94972D0D
:104B60006BE386E090E00E94892D6BE387E090E0A4
:104B70000E94892D6BE388E090E00E94892D69E313
:104B800079E389E090E00E94972D64E174E180E090
:104B900090E00E94972D64E174E182E090E00E9431
:104BA000972D88EC0E942E05DF91CF911F910895DB
:104BB000A0E0B0E0EEEDF5E20C94E72C80E48AB9D9
:104BC0008BB986E880937A001092C100C4B784B78D
:104BD000877F84BF88E10FB6F894809360001092BD
:104BE00060000FBE86E88093640088E380937E00B7
:104BF0001092B00087E08093B10078940E9409037E
:104C0000C3FF0BC00E94DF028CE693E00E944D03BD
:104C10008BEC0E942E055E98DAC588E40E94D002D3
:104C20008EEA90E00E945C0380E50E94D00286EA52
:104C300090E00E945C0388E50E94D00286EB90E041
:104C40000E945C0388E70E94D0028EE990E00E94F7
:104C50005C0380E70E94D00286E990E00E945C033A
:104C600080E40E94D0028EE890E00E945C0380E124
:104C700085BF0E946725C0E04F9B05C0CF3148F437
:104C80008FE59DE608C082E00E942E05CF5FCC3301
:104C900099F780E69DE690931101809310011092A0
:104CA00040010E94C416CC3308F042C0F8E02F2E19
:104CB000A8E1AA2EB12CBAE58B2EB1E09B2ECCE652
:104CC000CC2EC1E0DC2EEDE03E2E68C0873009F42A
:104CD000B6C1823009F0C0C280911601813009F45A
:104CE000FDC1823009F436C2833009F479C289EA01
:104CF00093E00E944D0381E993E00E944D030E94DE
:104D0000E30285E793E00E944D0380911601805DE8
:104D10000E948E028DE491E00E944D0388E893E1A9
:104D200048E147B94F9BFECF0E94C205823318F07D
:104D30000E949F21BBCF8111C6CF8CE00E94D00280
:104D400080915401882329F154E0752EC0E0D0E011
:104D500080E090E040E1542E9E012F5A3E4F7901B1
:104D6000F701E80FF91F649020E2621201C0582E8B
:104D7000019681319105A1F77110F8C488E893E19B
:104D80000E94C205882309F4F1C488E893E10E94D7
:104D9000C2055E9880E090E00E94C2051092180162
:104DA000109216011092790110926701109217016A
:104DB000109257010E94FE0227B8109280011092B3
:104DC000940110929501109200010E94C9020E9464
:104DD000C4160E94DF0285E00E94640585E00E94FF
:104DE000600590937101809370018DEB92E00E94B9
:104DF0004D038091700190917101880F991F880F68
:104E0000991FBC016A567F4F80E090E06093840157
:104E100070938501809386019093870102E026E5D7
:104E20004DEF0E9431040E94C50280917001909163
:104E300071018A3F26E0920778F48333964048F464
:104E400087EB93E00E944D038AEC0E942E051BB86D
:104E5000BEC48EEB93E002C08AEB92E00E944D0349
:104E60004FE00FB6F894A895A09260000FBE409353
:104E70006000809157018823A1F00E94E30289E736
:104E800092E00E944D03609143017091440180E0E3
:104E900090E003E026E54DEF0E94310488EC0E948B
:104EA0002E050E94E3020E94C512809118018830ED
:104EB00091F50E94FE028EE792E00E944D030E944F
:104EC000E302609101017091020180E090E003E053
:104ED00026E54DEF0E9431040E94C5026091030156
:104EE0007091040180E090E026E54DEF0E943104CE
:104EF0000E94C502609105017091060180E090E07A
:104F000026E54DEF0E9431048AEC0E942E0581E1D6
:104F10000E94D40626C48CE00E94D00287E090E074
:104F20000E947B2DC82F84E090E00E947B2DC81B3F
:104F3000C0935401CC2319F08EE00E94D00280E08F
:104F40000E94D4060E94E30283EC93E00E944D038A
:104F500042E061E080E00E94300B42E060E081E0EE
:104F60000E94300B41E062E080E00E94300B41E0A3
:104F700060E082E00E94300B40E062E081E00E944D
:104F8000300B40E061E082E00E94300B80918001B4
:104F9000882361F098E0899FF0011124E15EFE4FC3
:104FA0009781911103C081508093800180911801F5
:104FB00081111CC083E40E948E020E94C5121092CF
:104FC00088011092890110928A0110928B0184EF5E
:104FD0008093970160E082E00E94921361E082E09A
:104FE0000E94921360E081E00E9492130E94FE02F0
:104FF000909259018092580180911801853041F4B6
:105000008AE993E00E944D0341E467E483E40AC027
:10501000863009F05BCE83EA93E00E944D0342E3C1
:1050200067E481E30E948C030E94E30282E992E03C
:105030000E944D0360915E0170915F018BC380916E
:1050400094010E94C10284E892E00E944D03809185
:1050500095010E94C1020E94A41B8091920190912F
:105060009301892B79F08BE692E00E944D036091C9
:1050700092017091930180E090E002E025E24FEF11
:105080000E9431040E94E3026091880170918901BD
:1050900080918A0190918B0104E026E44091970170
:1050A0000E94310460919401809195010E94C81979
:1050B00090939101809390018A3F9F4F08F051C3D4
:1050C00083E792E00E944D036091900170919101FD
:1050D00080E090E002E024EF4EEF41C390919A010E
:1050E0008091A001981750F4892F0E94C1028DE48D
:1050F00091E00E944D038091A00108C00E94C1026E
:1051000089E491E00E944D0380919A010E94C102BE
:1051100060919A018091A0010E94F60A80E70E94A6
:10512000ED0387EA92E00E944D0360919A0180911D
:10513000A0010E9492136091840170918501809179
:1051400086019091870102E026E4409196010E9439
:10515000310434C282E30E948E0284E491E00E9412
:105160004D0380919A0120919B01821313C080917D
:10517000A0010E94C10289E491E00E944D03809148
:105180009A010E94C1028DE491E00E944D0380913A
:10519000A10116C03091A0019091A101391316C050
:1051A0000E94C1028DE491E00E944D038091A00114
:1051B0000E94C10289E491E00E944D0380919B010D
:1051C0000E94C10281E00E94ED03F8C1321302C0C7
:1051D00081E003C098138BCD80E180930B0139C02F
:1051E00083E380930B018091A00190919B0189132F
:1051F00003C021E020930B0140919A013091A1015D
:10520000431303C020E120930B0120919C018213E2
:1052100003C082E080930B018091A201481303C078
:1052200040E240930B01321303C022E120930B01B3
:10523000981303C031E230930B0180910B0182324D
:1052400008F055CD83E30E948E0284E491E00E9431
:105250004D030E940304B2C1833009F0F9C080916C
:1052600079018823A1F180916701882381F1609100
:105270006401809166010E949213409084015090D5
:1052800085016090860170908701C09196016091C0
:105290007801809176010E94921380919601C81343
:1052A0000EC08091840190918501A0918601B091FA
:1052B0008701481659066A067B0618F005C0C8170C
:1052C0001CF43092170103C08CE080931701809189
:1052D0007901882381F080916701882361F04F99DB
:1052E0000AC0809117018C3019F43092170103C065
:1052F0008CE080931701809117018C3061F480EA73
:1053000092E00E944D0380917901882399F080E713
:105310000E948E020FC08CE992E00E944D038091A2
:105320006701882319F08EE60E948E02D0925901FF
:10533000C09258010E94C502C0E080911601C817B2
:1053400050F5EC2FF0E0A0915801B09159011A9658
:105350008C91E656FE4F90819817D9F09681981758
:10536000C1F0809117018C3039F4909165018091E2
:105370006601891738F009C0909177018091780112
:10538000981718F48DE491E002C089E491E00E943E
:105390004D03CF5FD2CF43E462E485E40E948C03E7
:1053A0000E94E302E0915801F091590186819781B2
:1053B000892B99F086E291E00E944D03E09158011B
:1053C000F09159016681778180E090E002E021E46C
:1053D0004BEF0E9431040E940106E0915801F091C8
:1053E000590180859185892B99F080E291E00E9496
:1053F0004D03E0915801F09159016085718580E07D
:1054000090E002E021E44BEF0E9431040E9401068B
:1054100084EA92E00E944D03E0915801F091590115
:10542000608171818281938103E020E040E00E94ED
:1054300031040E94C50282E992E00E944D03E0918E
:105440005801F09159016481758180E090E085C137
:10545000843009F0CCC08091170184FF08C080E53A
:105460000E948E02D0925901C092580103C08EE46E
:105470000E948E028DE20E948E0280911701C82F39
:10548000CF70C43019F480EB92E013C085FF02C0E6
:1054900084E401C085E40E948E02C33041F48AEAAC
:1054A00092E00E944D0343E467E485E407C085EB86
:1054B00092E00E944D0344E467E483E50E948C037C
:1054C000809116018130C9F58091170184FF08C0D1
:1054D0009091770180917801981740F0C0E007C063
:1054E00090916501809166018917C0F7C1E00E9423
:1054F000E302CC2359F080919A010E94C1028DE40D
:1055000091E00E944D038091A0010AC08091A0010A
:105510000E94C10289E491E00E944D0380919A01AA
:105520000E94C1020E94C50282E992E00E944D03DE
:1055300080E00E94D9030E9401060E94E30280914C
:10554000170185FD1DC087EA92E00E944D03E0919E
:105550005801F0915901648582850E9492136091EF
:10556000840170918501809186019091870103E00B
:1055700026E4409196010E9431048DE892E015C026
:1055800089E40E948E028DE30E948E02E091580110
:10559000F09159016681778180E090E002E021E49A
:1055A0004BEF0E94310488E892E00E944D03E091A5
:1055B0005801F091590160857185CCC080918001BE
:1055C000882309F4CEC038E137B980911001909159
:1055D00011010E94C20527B80E94FE0280911601A7
:1055E000805D0E948E0284E491E00E944D03209130
:1055F0008001222309F4A1C0213071F480912C0193
:105600000E94C1028FE391E00E944D0380912B0123
:105610000E94C102C0E051C040912F015091300161
:1056200060913101709132018091270190912801A0
:10563000A0912901B0912A01223059F121E084176B
:105640009507A607B70708F020E0E22FF0E063E037
:10565000EE0FFF1F6A95E1F7E95DFE4F40913701BC
:10566000509138016091390170913A0180819181A6
:10567000A281B38184179507A607B70750F0C22F00
:10568000213019F0D2E313E302C0D3E312E381E344
:1056900004C0C2E0D3E311E382E30E948E028FE3F1
:1056A00091E00E944D03812F0E948E028FE391E0D2
:1056B0000E944D038D2F0E948E020E94E302809172
:1056C0008001813049F50E948E1780E00E94B3036B
:1056D00080910001882309F444C088E692E00E948A
:1056E0004D0360910701709108018091090190912B
:1056F0000A0103E028E4409100010E94310465E0C2
:1057000080E00E94EF028AE391E00E944D038091C5
:105710002B010E94C10225C0C11102C081E003C05B
:1057200080E0C13021F40E94B30382E003C00E94F4
:10573000B30381E00E94B30314C081E893E00E94A8
:105740004D030E94E3028EEA93E00E944D0389EA32
:1057500093E0E2CA80E090E002E026E54DEF0E948F
:1057600031048091100190911101DACA70FE0E94FB
:10577000FE0231E0731202C00E94E3027394472DCF
:105780004170742E00E010E0051598F4F701E00F69
:10579000F11F6490662009F4F8CA8FEF681203C005
:1057A0000E94C50203C0862D0E948E020F5F1F4F0C
:1057B000EBCF662009F4E9CAC50DD11DFE01EF5AF1
:1057C000FE4FE491E03209F0C3CA2196C1CA80E0DD
:1057D00090E0CDB7DEB7E2E10C94032DA29FB001BB
:1057E000B39FC001A39F700D811D1124911DB29F15
:1057F000700D811D1124911D08950E94EE2BB7FF9D
:105800000895821B930B08950E94EE2BA59F900D87
:10581000B49F900DA49F800D911D11240895DB016C
:105820008F939F930E94042CBF91AF91A29F800DF4
:10583000911DA39F900DB29F900D11240895AA1B56
:10584000BB1B51E107C0AA1FBB1FA617B70710F06B
:10585000A61BB70B881F991F5A95A9F7809590959D
:10586000BC01CD01089597FB072E16F4009407D0D4
:1058700077FD09D00E941F2C07FC05D03EF49095BF
:1058800081959F4F0895709561957F4F0895A1E28E
:105890001A2EAA1BBB1BFD010DC0AA1FBB1FEE1FAA
:1058A000FF1FA217B307E407F50720F0A21BB30BF5
:1058B000E40BF50B661F771F881F991F1A9469F771
:1058C00060957095809590959B01AC01BD01CF01CD
:1058D0000895052E97FB1EF400940E94DF2C57FDBF
:1058E00007D00E94472C07FC03D04EF40C94DF2C09
:1058F00050954095309521953F4F4F4F5F4F0895FC
:10590000689401C0E8948F929F92CF93DF930E9496
:105910008E2CDF91CF919F908F90089588249924A9
:10592000F401E401B0E49F93AA279A158B049C0428
:10593000ED05FE05CF05D007A10798F4AD2FDC2FAC
:10594000CF2FFE2FE92D982C892E982F872F762F79
:10595000652F542F432F322F2227B85031F7BF9194
:1059600027C01B2EBF91BB27220F331F441F551F7B
:10597000661F771F881F991F881C991CEE1FFF1F29
:10598000CC1FDD1FAA1FBB1F8A149B04EC05FD055D
:10599000CE05DF05A007B10748F08A189B08EC097F
:1059A000FD09CE09DF09A00BB10B21601A94E1F6C5
:1059B0002EF49401AF01BE01CD01000C0895909525
:1059C0008095709561957F4F8F4F9F4F08952F92CF
:1059D0003F924F925F926F927F928F929F92AF927F
:1059E000BF92CF92DF92EF92FF920F931F93CF93CC
:1059F000DF93CDB7DEB7CA1BDB0B0FB6F894DEBF63
:105A00000FBECDBF09942A88398848885F846E8488
:105A10007D848C849B84AA84B984C884DF80EE80D2
:105A2000FD800C811B81AA81B981CE0FD11D0FB6DB
:105A3000F894DEBF0FBECDBFED0108950F9308307F
:105A400090F0982F872F762F652F542F432F322FCA
:105A500022270850F4CF220F331F441F551F661F03
:105A6000771F881F991F0A95B2F70F9108952A1979
:105A70003B094C095D096E097F09800B910B089564
:105A8000FA01CF93FF93EF932230CCF02532BCF490
:105A9000C22F2C2F332744275527FF93EF930E94C3
:105AA000472CEF91FF91605D6A330CF0695D619363
:105AB000B901CA01605070408040904051F7108297
:105AC0008F919F91CF910C949C2DFB019F014230AF
:105AD00074F0453264F4642F77270E941F2C805D98
