:1000000042C7000052C7000050C700004EC70000A2
:100010004CC700000C94102A48C700000C94630ED3
:1000200044C7000042C700000C9452200C94F429ED
:100030000C94022A0C942C2038C7000036C700000C
:100040000C94CE2932C7000030C700002EC7000034
:100050002CC700000C94640E28C7000026C70000BF
:1000600024C7000022C70000E62FF72F903009F4C4
:100070009395E5B8C4B8B6EFB0937A00A5E0A09325
:100080007B00A8E0A093810010928000AFEFA093C6
:100090008500A0938400A6E0A093360010928B0008
:1000A00010928A00B3E0AFE3A91B51E0392F33303F
:1000B0002AF0A05CBC4F53953350F9CFB093890020
:1000C000A0938800A0917A00A4FFFCCFB6EBB09378
:1000D0007A00A2E0A0936F00A9E0A093810062E003
:1000E000A0E0A0937B00A1E0A09353008895E5B821
:1000F000C4B884FF1AC0A8E10000AA95F1F7EF93F5
:10010000FF93E7B1F8B1A4E0C2FCA2E0C0FCA1E01B
:10011000BF2FBA2BAE2BB8B904B9A7B9E7B9F8B954
:10012000FF91EF910BC00C947300ACE10000000054
:10013000AA95F1F725B9E5B8000004B9A0918400AB
:10014000A0918500B0918900A395AB1760F7A091AD
:100150007A00A4FFF3CFB6EBB0937A006A9571F7FB
:100160006091780070917900308186FD630F619312
:10017000308186FD731F80FF7193652F4A9579F753
:1001800010926F0010928100B6E0B0937A0008954B
:10019000D601CF01C8011008407E01013E01013E99
:1001A00001013E01017E404018000720080808F8C0
:1001B0000000002060A03FA06020020202FF0202B7
:1001C000021010101F000000050842818989760581
:1001D00008C2A19189860508000402FF00101005DD
:1001E00008F878385888091003081C3E7F0D080766
:1001F00010FF818181F1E1C1FF4040404743410D43
:10020000080110FFFF11080310F1E1C14743410E3F
:100210000008202121122060E0E0E0FEFE0402013F
:100220000001037F7F21C2C4C4C04094840007033F
:100230000102040E080210FEFE7F7F000000001184
:100240000005202060E0E0E00201000103C2C4C418
:10025000C0400703010204010410090A0C4E6F7428
:100260002063616C696272617465642120466F72FB
:10027000FF63616C6962726174696F6E20636C61A7
:100280006D70207468652033FF70696E7320746F21
:1002900067657468657220616E642073746172743E
:1002A000207769746820746865FF6B65792E20413A
:1002B000636B6E6F776C6564676520746865207327
:1002C000656C662D74657374207769746820746832
:1002D00065206B65792077697468696EFF32732ECB
:1002E00020446973636F6E6E6563742070696E730A
:1002F00020616674657220746865FF6D6573736153
:100300006765202269736F6C617465FF50726F625C
:100310006521222069732073686F776E2E20536FDA
:1003200066747761726520616E6420646F63756DB9
:10033000656E746174696F6E2069732061742073D7
:10034000766E3A2F2F206D696B726F636F6E7472C9
:100350006F6C6C65722E206E65742F7472616E7393
:100360006973746F72207465737465722000B903C9
:10037000870358032E030703E402C302A402880282
:100380000000140029003E0053006900800097001F
:10039000AE00C600DF00F80012012D014901650121
:1003A0008201A001BE01DE01FF01210244026802B8
:1003B0008E02B502DE020903350364039403C80309
:1003C000FE0337047304B404F90443059305EA05F6
:1003D0004906B3062907AE074808FF08DE09FD0AEB
:1003E000930C480F991B0000000000000000000063
:1003F0000000000000001E2121211200807F00006B
:10040000007E4A4A4A34000000000000FC402010F0
:1004100008040201000000010101010101010101C4
:10042000010101017F0488D0E0F0F8000000000025
:1004300000000000000000000000000000FC949498
:100440008400000102FC0000000000000000000029
:1004500000001E21212112E0C0804020100F00006A
:1004600000C020202040000000FC00009E9E0403ED
:10047000030303020000002020232425252320203D
:10048000203F00007B7B2142840480C000000000EC
:1004900000000000000000000000FC9494840004B0
:1004A0000607070708F00000000000000000000039
:1004B000000000803F2121120C00000000FF00001E
:1004C00000F0084848C80000FE0000E7818181C1B3
:1004D000E1F18181810100202020212121202020A3
:1004E0003F0000F340404041434740407FC0000090
:1004F00000000000000000000000000048949494F8
:100500006400000000FF0000000000000000000088
:100510000000000000003F2121120C0000FF00003D
:1005200000F0084848D0000000000000FEFE04046F
:100530000404040404070008080809090908087FDE
:100540003E1C08087F7F20202020202020E0000083
:1005500000000000000000000000000000004894BF
:100560009494640000FF0000000000000000000000
:1005700000FF003C0A090A3C00223129292600001C
:1005800082868E9EBEFEFEBEDEEFF6FAFEFEFAF21A
:10059000E2C28200000008080804027984A4A4686A
:1005A00000FF00000000000000000000000000004C
:1005B000000000000000000000FF0000F0282428D8
:1005C000F0001008FC000000000000000000000027
:1005D000003C0A090A3C00FF000000000000000087
:1005E00000000000000000000000040C1C3C7CFF28
:1005F0007C3C1C0C040000000000009EA1A9A99AEC
:10060000804323130B0703FF0303030303030000CB
:10061000000000000000000000788484844800FF8F
:10062000000000000000000000F00804E2110909C9
:10063000090909090909091121C2040810E000008B
:100640000001020404070000000000804020108820
:100650004423100804030000000000000000000014
:1006600000FE0100FC02010000000000000000008C
:1006700000000000000000000079494979000000F6
:1006800000000000000040F010101010F0400001C9
:1006900001010101010040FCF8F0E040FC400007CE
:1006A00003010000070040FC40E0F0F8FC400007B8
:1006B00000000103070040FCFC0000FCFC400007B8
:1006C000070000070700788482028284780006040D
:1006D00007000704060000FC000000F01000100FE7
:1006E000020402070400080808080808F84002028B
:1006F00002020202030040F8080808080808000384
:1007000002020202020240404040404040400000DD
:10071000000000000000C000008000008000010216
:1007200002010202010200800000800000C00201FC
:1007300002020102020100F8040222548800101F84
:100740001002020100000000000000000000000094
:100750000000000000000000000000000000000099
:100760000000000000000000000000000000000089
:100770000000000000000000000000000000000079
:100780000000000000000000F80402FE02000C0659
:10079000050404070C0002FE020002FE020004072A
:1007A000040404170C0002FE02F002FE020004071B
:1007B000040704170C000000E01008F808000C06FD
:1007C000050404070C00804028F82840800001023E
:1007D000141F1402010008F8080008F808000407B4
:1007E000040404170C0008F808C008F808000407FF
:1007F000040704170C00001018FCFC18100000017E
:10080000010101010100001018FC18100000000097
:10081000000100000000000000FC000000000001DA
:100820000101010100004040404050E04000000054
:100830000000010000002070A820202020000000FF
:10084000000000000000E0000000000000000101C6
:100850000101010101002070A82020A870200000E3
:1008600000000000000000C0F0FCF0C0000000002C
:100870000000000000000C3CFCFCFC3C0C000000F4
:100880000000000000000000000000000000000068
:10089000000000000000000000FE0000000000005A
:1008A000000D0000000000160E0000160E000000F3
:1008B0000000000000000010FC1010FC10000001FF
:1008C000070101070100001824FE4488000000030E
:1008D000040F040300000C12924C201008000201C7
:1008E0000006090906008C5222528C40C000010209
:1008F000040404010200000000160E0000000000C5
:100900000000000000000000F008040200000000E9
:100910000102040800000000020408F000000000CA
:100920000804020100004850E0FCE05048000201C9
:10093000000700010200404040F840404000000035
:1009400000030000000000000000000000000000A4
:1009500000160E00000040404040404040000000B3
:100960000000000000000000000000000000000087
:100970000006060000000000804020100800020170
:10098000000000000000F80402020204F800010266
:10099000040404020100000804FE02000000000438
:1009A000040704040000080402824224180004061C
:1009B00005040404060006020202122AC60001020F
:1009C000040404020100C0A09E8080FC800000009E
:1009D0000000040704003E120A0A0A12E60001029F
:1009E000040404020100F84422121224C00001028F
:1009F0000404040201000E02C262321A0E0000005A
:100A000007000000000088542222225488000102BE
:100A1000040404020100384482824224F8000002E7
:100A20000404040201000000001818000000000087
:100A3000000606000000000000181800000000007A
:100A400000160E0000000040A01008040200000084
:100A500000010204080000202020202020000001C6
:100A60000101010101000002040810A0400000087B
:100A70000402010000001804028242241800000051
:100A8000000D00000000F804D252E204F800010258
:100A900005050405040200F0080402FE0200040734
:100AA00005010507040002FE2222225488000407E3
:100AB000040404020100F804020202048E00010290
:100AC00004040402010002FE02020204F80004070A
:100AD00004040402010002FE222272020E00040736
:100AE00004040404070002FE222272020E0004071E
:100AF000040400000000F80402C24244DE000102C7
:100B000004040201070002FE222022FE0200040764
:100B1000040004070400000202FE020200000004B8
:100B20000407040400000000000202FE02000003AB
:100B300004040403000002FE62900804020004079B
:100B400004000106040002FE020000000000040789
:100B500004040404070002FE38E038FE0200040723
:100B600004000407040002FE1A6082FE020004076B
:100B7000040005070400F80402020204F800010260
:100B800004040402010002FE424242241800040749
:100B9000040000000000F80402028204F8000102D0
:100BA00004040405020402FE42C2422418000407A1
:100BB0000400010604008814222222448E0001024F
:100BC0000404040201000E0202FE02020E000004F0
:100BD00004070404000002FE020002FE02000003FB
:100BE00004040403000002FE820082FE02000000F2
:100BF00003060300000002FE02F002FE02000001F4
:100C000007030701000002DE722072DE0200040703
:100C1000040004070400027EC280C27E02000000BD
:100C20000407040000000E824222120A0600070494
:100C300004040404070000FE020202000000000792
:100C400004040400000008102040800000000000A0
:100C50000000000102000000020202FE000000008D
:100C60000404040700001008040204081000000037
:100C70000000000000000000000000000000080864
:100C80000808080808000000000E16000000000018
:100C9000000000000000904828284890E000010271
:100CA00004040402070002FE10080810E000040714
:100CB000020404020100E0100808081038000102D4
:100CC000040404020100E010080810FE0200010202
:100CD000040402070400E050484848506000010244
:100CE00004040402010020F82422020C000004077E
:100CF000040400000000E010080810F808000009D3
:100D000012120907000002FE100808F00000040794
:100D1000040004070400001016F6000000000004A0
:100D20000407040400000000101616F00000000C78
:100D30001010100F000002FEC02010081800040759
:100D400004010204040000000202FE000000000092
:100D500004040704040008F808F008F00000040781
:100D600000070007040008F8201008F0000004073E
:100D7000040004070400E01008080810E000010265
:100D800004040402010008F810080810E000101F15
:100D9000120404020100E010080810F80800010223
:100DA0000404121F100008F820100808300004077F
:100DB0000400000000001028484848903800010254
:100DC0000404040201000808FE08080000000000F6
:100DD00003040404020008F8080008F808000003EF
:100DE00004040207040008F8880088F808000000DE
:100DF00003060300000008F808C008F80800000314
:100E000006030603000008B8E040E0B80800040745
:100E100000000007040008F8080008F808000009AE
:100E20001212110F0000180888482818080006053B
:100E300004040404060040B01C020200000000018B
:100E4000070808000000000000FE0000000000008D
:100E5000001F00000000000002021CB04000000063
:100E60000808070100000C02020408080402000040
:100E7000000000000000C02010081020C000010188
:100E800001010101010011241FBECFEFD8E0DEBF38
:100E9000CDBF21E0A0E0B1E001C01D92A63CB207A9
:100EA000E1F70E949A350C94AC3DAAC85D98559A1A
:100EB00080FD599A80FF5998519A539A5A9867FD24
:100EC0005B9A67FF5B985A9A5A9866FD5B9A66FF31
:100ED0005B985A9A5A9865FD5B9A65FF5B985A9A97
:100EE0005A9864FD5B9A64FF5B985A9A5A9863FD1E
:100EF0005B9A63FF5B985A9A5A9862FD5B9A62FF0D
:100F00005B985A9A5A9861FD5B9A61FF5B985A9A6E
:100F10005A9860FD5B9A60FF5B985A9A5D9A5A985E
:100F20005B980895609346018093040186958093B1
:100F3000AD01660F660F660F60930F0108958091F3
:100F40004601809301018091AD01809303010895D2
:100F50008091030160910101880FE4CF0895CF9340
:100F6000C82F692F81E0A2DF6C2F81E09FDFCF9136
:100F70000895682F80E09ACF08958EEAFADF85EA17
:100F8000F8CF08958DE067D48AE065C40895109283
:100F9000AD0160E080E0C6DFF5CF0895CF93DF9329
:100FA000C0E080E1E6DF80E0E4DF8C2F806BE1DFF2
:100FB000D4E860E081E07ADFD150D9F7CF5FC83064
:100FC00081F7E5DFDF91CF91089558985A985B98A3
:100FD0005D98509A529A539A559A6ED45D9A559A42
:100FE0005998519A84E16FD4589A84E16CD48EEA6E
:100FF000C0DF82EEBEDF82EABCDF80EABADF80ECCF
:10100000B8DF8FE2B6DF84E2B4DF81E8B2DF8AE2E4
:1010100093E00E947E3D8F73ACDF80E4AADF84EA18
:10102000A8DF86EAA6DFBADF8FEAA3DF60E080E010
:1010300079CF089581E08093AD0160E082E072DFB6
:10104000A1CF089582E08093AD0160E084E06ADF83
:1010500099CF089583E08093AD0160E086E062DF80
:1010600091CF08950895582F28E030E090E841E0AE
:1010700080E0652F642309F0892B440F9695215059
:101080003109B9F70895B0E0A0E0E9E4F8E00C9484
:10109000EC3C6C01A02EB12CC501860F911D81384E
:1010A00091050CF045C0E42FEE0DFF27FF1FCF0187
:1010B000E134F105ECF5D42FD695D695D695019768
:1010C00033E0959587953A95E1F7F22FF2703F2E30
:1010D00021FF0DC0482F4D1B550BFA01EA9DA001C1
:1010E000EB9D500DFA9D500D1124C40ED51EC82F36
:1010F000883008F0C7E084E8782E701A761A872DB9
:1011000082958F70482E689444F887E0682E6D1A97
:10111000572D5F70752E2170522E850101501109D7
:10112000CD1758F49091040187E0891B806B21DF73
:10113000CDB7DEB7E1E10C94083D862D806B19DF59
:10114000842D17DF872D15DF912C812C7601E00E81
:10115000F11EA814B90439F43320C1F0CA18DB0811
:10116000DF5F6A94DDCFF701E819F909552019F01E
:10117000F601E80DF91D8491311001C074DF682F6C
:1011800081E094DE8FEF881A980AE3CFCA0CDB1C4B
:10119000E7CFEF920F93482F8F7320E6829FC00115
:1011A00011248A519C4F28E046FF28E42093100127
:1011B0001092000147FD08C02091100130E23093E9
:1011C00000012D5E2093100120E2E22E08E120E0D4
:1011D000409100016091100156DF0F91EF9008954A
:1011E000EF920F93262FFC01349131964491319662
:1011F00004913196E490E09100014E0F609110014E
:10120000630F049640DF0F91EF90089560E0E8CF00
:101210000895EF920F93CF93C82F809146018F5F6F
:101220008093460140910401440F440F440F20E194
:10123000C29FC001112420E1E22E08E020E060916D
:101240000F018A57994F1FDF80910F01885F8093AC
:101250000F01EFEFEC0F8C2FEA30B0F4F0E0ED5C13
:10126000F64F0C94003C3D0941094A0952095009C6
:101270004C094C094E09580958098EE3ECD28CE709
:1012800003C08CE7E8D28CE3E6D2A895CF910F910A
:10129000EF9008958CE7F2CF82E5F6CF8DE2F4CFA0
:1012A00085E7F2CF8FE4D7D288E6D5D28DE6ECCFB2
:1012B0008CE4EACF8F5CADCF089580E2AACF089589
:1012C000CF93C82F1C1614F0CF910895F6DFC150AC
:1012D000F9CF9091460180E1891BF2CF0895CF9319
:1012E000C82FF7DF8091AD018F5F8093AD0184300F
:1012F00070F083E08093AD0181E08093490180919B
:10130000AD016C2F880F0EDE3DDECF910895109257
:101310004901F5CFE4DF32D48091AD01833008F08C
:1013200031CE089534DED5DF32CE089583DED1DFAD
:1013300081CE08958DE36DCF0895CF93DF93EC01B7
:101340008991811103C0DF91CF91089562DFF8CFB9
:10135000CF93DF93EC01FE018491982F9F7719F0D2
:1013600058DF2196F8CFDF91CF910895CF93DF9387
:10137000EC01CE010E947E3D982F9F7719F049DF46
:101380002196F7CFDF91CF910895EF920F93FC0153
:1013900004913196E490029676DE0F91EF900895D5
:1013A0000F9380E991E0E2DF409191014D3F6CF4B1
:1013B00060917F0170918001809181019091820103
:1013C00003E026E417D10F9108958FE322DFFBCFCE
:1013D000909124019F70923071F49CDF84E790E03B
:1013E000C5DFE0914701F091480122E044E06FEF52
:1013F00084819581E1C1089597FF09C08F939F93E0
:101400008DE207DF9F918F91909581959F4F6CE2C0
:1014100071E04AE050E00E944B3D8FCF0895ECDF31
:1014200001C0EADF4ACF0895EF92FF920F931F9316
:10143000182F062FF42E82E791E098DFEE24E0913A
:101440004701F09148018685E81611F4812F09C003
:101450008485E81611F4802F04C08585E81611F400
:101460008F2DD7DEE3948E2D833049F71F910F9196
:10147000FF90EF900895EF92FF920F931F93182F14
:10148000062FF42E80E046DF88E791E06FDFEE2440
:101490008E2D10DF4FDFE0914701F09148018685E6
:1014A000E81611F4812F09C08485E81611F4802F05
:1014B00004C08585E81611F48F2DABDEFEDEE394C3
:1014C0008E2D833029F71F910F91FF90EF90089593
:1014D000682F80E092E0662309F491E0623009F41D
:1014E00081E008950F93082FEEEAF1E0880F880F4E
:1014F000E80FF11D608171818281938164367105ED
:101500008105910570F42091020127FD0AC0802F0A
:10151000DFDF692F0E94D1256EEF23E044E04CD13C
:1015200004C04FEF04E024E065D0C7DE0F910895BA
:10153000863058F4E1EAF1E0E80FF11DE80FF11D03
:101540008081918163E043D1B8CE08951F93182F15
:1015500080917A01882319F0B0DE80E05ADE6ADDDE
:1015600089E691E003DF812F82958F70E1DF812F83
:101570008F70DEDF1F9108958091110182958F7029
:1015800019D08091110183701CD080911101DECFA0
:101590000895E5E9F1E0E80FF11D0895CF93F9DF33
:1015A0009081C681C91710F405D001C013D085DE23
:1015B000CF910895EEDF8F9380817CDE8F9101C003
:1015C00008958F9387E391E0D1DE8F91E2DF8681EA
:1015D00071CE0895DEDF8F9386816CDE8F9101C01E
:1015E00008958F9383E391E0C1DE8F91D2DF8081F4
:1015F00061CE0895AEE0B0E0E0E0FBE00C94EB3C9F
:10160000142F622E702E6B017C010F7080E3898392
:101610008A838B838C838D838E83F7FE40C08DE21B
:10162000F8DDF094E094D094C094C11CD11CE11C6E
:10163000F11C68EE862E63E0962EA12CB12C0330AF
:1016400041F150E1852E57E2952EA12CB12C0430AA
:1016500001F140EA842E46E8942EAA24A394B12CEA
:101660000530B9F030E4832E32E4932E3FE0A32E10
:10167000B12C063071F074E6872E912CA12CB12C80
:10168000073039F420E8822E26E9922E28E9A22E8E
:10169000B12C9AE0292E312C412C512C12C075FE10
:1016A000C8CF8BE2B6DDC5CFC701B6016B5F7F4FF8
:1016B0008F4F9F4FA20191010E94C23B69017A01A5
:1016C0001F5FC814D904EA04FB0470F781E1810F9D
:1016D0009BEA899F812D1124A82EA69486E0811B68
:1016E000899F112D11241695912F990F190F811B88
:1016F000182F4E0187E0880E911C2AE0A401C70133
:10170000B6010E942A3DF40101900020E9F73197CB
:101710007F01E818F9089E2C6701DD24812F90E0F5
:1017200004968C159D0514F4A3941D5F8A2D90E0FA
:10173000845D9F4F0E947E3DA82E74FE29C09016A6
:1017400038F50E198E2C811A800E181424F08EE2B2
:1017500060DD012F0E19111102C088EF882E912C27
:1017600010E0C00ED11EE82C082C000CFF08E92D5B
:10177000F0E0EC15FD0574F0AA2011F08A2D49DD8A
:10178000662011F0862D45DD2E96E2E10C94073D92
:1017900000E0D8CF3696E01BF10B81E090E08C0F93
:1017A0009D1FE80FF91F808134DD93949E141F0460
:1017B000F1F68EE22EDDDBCF0F93362FBC0190E0E9
:1017C00080E0022F242F432F15DF0F9108950F93F0
:1017D000062FBC0190E080E026E54DEF0BDF0F9176
:1017E00008950F93042F28E440E004DF8AE711DD19
:1017F00064DD0F910895E82FF0E0EE0FFF1FE05732
:10180000FE4F8591949120910001420F209110018B
:10181000620F20E0BACD0895CF93DF93C82FD62F63
:10182000E0914701F091480148E16EE18685E3DFF0
:10183000E0914701F09148014D2F6C2F8485DBDF4B
:10184000E0914701F091480140E06EE18585D3DFEA
:10185000DF91CF9108958F932F932AE080953B9A43
:10186000089410F4439802C0439A000020D027D077
:1018700086952A95B1F72F918F91089503D002D0C4
:1018800001D000D000D003D002D001D000D000D0D1
:1018900003D002D001D000D000D0A89503D002D050
:1018A00001D000D000D003D002D001D000D000D0B1
:1018B00003D002D001D000D000D003D002D001D09C
:1018C00000D00000089590E0893C28F0885C48EC46
:1018D000849FC0011124009709F40895209181008C
:1018E000277019F0DADF0197F6CF8130910519F0F2
:1018F00002973EE303C037E180E090E02091B20020
:10190000230F2093B30042E04093700027E023BFF1
:10191000889526E023BF10927000A895DCCF8F93A6
:1019200084E0D1DF07C08F9382E0CDDF03C08F93C7
:1019300081E0C9DF8F911F93182F106410937C00F2
:10194000E12FE07880913701E81759F0E0933701F3
:10195000AEDF8EE980937A0083E083BF889582E0D2
:1019600083BF20E030E0A901E0E01FC08EE9809352
:101970007A0083E083BF889582E083BF609178001E
:1019800070917900260F371F411D511DE43061F41D
:1019900080913901803041F084E02030380720F414
:1019A00017FD02C01068CACFEF5F80913601E817BB
:1019B000E8F260913A0170913B0117FF04C0609119
:1019C00038017091390180E090E00E94803B2FEF58
:1019D00033E040E050E00E94C23BB901CA012091CF
:1019E000360130E040E050E00E94C23BC9011F9147
:1019F00008959B01281B390B50F0C9010895BC01C3
:101A000080913A0190913B016817790718F4861B81
:101A1000970B089580E090E0089589B183FB8827B3
:101A200080F94999826090911C01943050F09EE0B9
:101A3000909318018093190110921D0191E09093E9
:101A40001C01E0911C01AE2FB0E0A85EBE4F2C91AE
:101A50002817C1F081110EC090911D01A3E0AE0FB7
:101A6000A3702230B1F4B0E0A85EBE4F2C919F5F0E
:101A70002330C1F0EF5FE370E0931C01F0E0E85E1B
:101A8000FE4F808380911D0187FD0FC080931E0152
:101A90000895213079F7B0E0A85EBE4F2C91233035
:101AA00049F7915090931D01E5CF8195EFCFB0E0BC
:101AB000A0E0EDE5FDE00C94F43CE82ED92E53981F
:101AC0005198F0DE10921D01E0911C01F0E031967A
:101AD000E370FF27E85EFE4F80EF8083C5E6D9E123
:101AE0009CDF4F9B24C0CE2DDD2DF12C15E500E0B1
:101AF000BB24B394D7FD15C082E3C82E8EDFD6DE9B
:101B0000CA94C110FBCF110F4F9B1F5F1F731F3370
:101B1000A1F4011103C0CE2DDD2D04E00F5F083CC0
:101B200080F0802FCDB7DEB7E9E00C94103DBEDE2B
:101B3000D150B1F6C15099F6D6CF111102C00111A2
:101B4000F0CFA8951C161D0624F42A9711F4CFEFA8
:101B5000DFEF80911E01882339F0F39480917B019F
:101B6000811102C0B0927B0184E18F1508F0C2CFD1
:101B700080911D018111D5CFF12CBCCFCF93DFD93E
:101B8000C82F80914901882301F1813051F4C3307D
:101B900041F46FE086E0C6D98BE23BDB6FE086E084
:101BA000C1D980E49FE183DF811104C080911E01CF
:101BB0008111F7CFC33041F480914901813021F484
:101BC00060E086E0AFD985DBC3D9CF91089583E586
:101BD00093E00E947E3D382F84E593E00E947E3D95
:101BE00020913E01230F30913F01381F20932101A6
:101BF0003093220183E0283E380720F0C901885E37
:101C0000934002C080E090E062E370E00E949B3B62
:101C1000683008F067E0EEE6F3E0E60FF11DE60F4E
:101C2000F11D459155912591359162E3681B421B49
:101C3000530B649FC001659F900D1124499662E388
:101C400070E00E949B3B620F731F70937E01609354
:101C50007D0185E593E00E947E3D992787FD909563
:101C600060913E0170913F01860F971F909339015B
:101C70008093380190937901809378010895CF93F0
:101C8000DF9324E130E0B9010E949B3BDC01E0E8F6
:101C9000F3E0E60FF71FE60FF71FC591D5914591C9
:101CA00055914C1B5D0B4A9FC0014B9F900D5A9F55
:101CB000900D1124B9010E949B3B6C0F7D1FCB013D
:101CC000DF91CF9108951895189540912301A09127
:101CD0004701B0914801E5E9F1E030E020E0822FD2
:101CE0002417B0F451911C969C911C97591719F028
:101CF0005581951303C02F5F3F4FF1CF220F331F44
:101D0000F901EF55FE4F20813181293E334008F023
:101D100084E108951092250110922301109273011D
:101D200010925901109224011092450110927A01EB
:101D3000EEE5F1E0108211821282EFE7F1E0108A05
:101D400082E0818B1092020117861686148215821A
:101D50001682178281EF838B08958FE47CDD86E401
:101D60007ADD86E478DD0ED908D95E988ADD90E0C8
:101D700080E09DCE08951F93CF93DF93162F98E0B8
:101D800097B998B9E82FF0E0E95AFD4F949195B9C9
:101D9000262F281BE20FF11D27FDFA95E491E92B70
:101DA000E4B9C9DDEC01812FC6DDAC0120913A0117
:101DB00030913B0136952795C9010397BE01625EBC
:101DC0007F4F8617970778F4255E3F4FC217D307DA
:101DD00050F4BA01625E7F4F8617970720F481E0C6
:101DE0004217530708F080E014B8DF91CF911F919C
:101DF0000895CF9361E080E0BEDFC82F62E080E00D
:101E0000BADFC80F62E081E0B6DF8C0FCF91089592
:101E1000AFE0B0E0EEE0FFE00C94EB3CB82E1092A7
:101E20002501807FB9F4E5DF833081F4B7D882E6FD
:101E300092E09CDAFFD88FE3ECD980ED97E037DEB3
:101E40008B30B0F4ABD885E091E090DA2F96E2E1E8
:101E50000C94073D06E910E0A1D881ED91E086DA07
:101E6000C8DF833009F068C01F5F143008F465C014
:101E7000E1D80E94B32081EC90E078DA60E08DE256
:101E800093E00E948B3D60E08EE293E00E948B3DE8
:101E900060E08CE293E00E948B3D60E082E00E9473
:101EA000D1256C019A83898361E082E00E94D1256B
:101EB0007C019C838B8360E081E00E94D1258C01B2
:101EC0009E838D8323E040E26EEFC60175DC23E044
:101ED00040E26EEFC70170DC23E044E06EEFC80122
:101EE0006BDC2AE5C216D10424F084E190E09A83E9
:101EF000898369818DE293E00E948B3D8AE5E81633
:101F0000F10424F084E190E09C838B836B818EE26A
:101F100093E00E948B3D0A35110524F084E190E0A6
:101F20009E838D836D818CE293E00E948B3D82E0E5
:101F30008093490123DE06C010E088E2C4DC015032
:101F400009F08ACFEB2DEF70EF87E13009F04CC03C
:101F5000EE24E394F12C78EB872E72ED972E77E444
:101F6000A72EB12CE2E0DE2E08E0F0E23F2EC12CDD
:101F70001E2D50E3252EDAD9D5D984E54AD9C701DB
:101F800046DA9BD9113009F0C9C184EF90E0EED94F
:101F900064E080913E0190913F0119DC4BD88FEEB7
:101FA00090E0E4D980917D0190917E0130DA8EEB52
:101FB0008093360107B908B914B815B888EE93E0D4
:101FC00076DD143011F08B3020F4C39484E0C81215
:101FD000D2CF88EE93E06BDDEFEFEE1AFE0AF8E069
:101FE000EF16F10409F0C3CF18E703DF882341F0AF
:101FF0009DD982E592E0BAD984E665DC1150A9F753
:102000000E94CE078AEB90E0B1D923E044E06FEF65
:1020100080913C0190913D01CFDB0CD883EB90E0A7
:10202000A5D923E044E06FEF8091430190914401F2
:10203000C3DB82E080934901A1DD109225010E945B
:10204000CE078FEA90E092D960E082E00E94661DA0
:102050008090870190908801A0908901B0908A01BA
:102060009C868B8661E082E00E94661DC09087019D
:10207000D0908801E0908901F0908A01DE86CD86BB
:1020800060E081E00E94661D009187011091880147
:102090001E830D8362E080E00E94661D80918701AF
:1020A000909188019C838B8362E081E00E94661D91
:1020B00080918701909188019A87898761E080E00B
:1020C0000E94661D80918701909188019A8389837F
:1020D0002F85213029F020914201223009F006C2DB
:1020E000029698878F83C4019CD9C6019AD9B801FA
:1020F000110F880B990B03E026E444EF7BDA8E0185
:102100000F5F1F4F9E01215F3F4F7801F7018191C3
:1021100091917F010A97853B9105D0F42E173F07D7
:10212000A9F74CE4C42E43E0D42EF80160810E5F81
:102130001F4F6E5EC6010E948B3DFFEFCF1ADF0A74
:102140000E151F0591F70E941A0885EB91E00ED934
:1021500082E08093490112DD0E9430322F852130C8
:1021600029F080914201823009F0C1C00E94CE075F
:1021700080E0A0D88BE591E0F9D882E09BD884E29A
:1021800090E0F4D820E4F22E10E03AE0832E912C77
:10219000A12CB12CBFDD1092250160E082E00E94ED
:1021A000661D0091910120917F0130918001409145
:1021B000810150918201073F0CF49DC10093910170
:1021C00020937F01309380014093810150938201DD
:1021D000073F09F098C120563109410951092039BA
:1021E00035454105510508F08EC16091930170910C
:1021F0009401CB018B569F4F8B32914008F083C1E5
:102200001F5F153008F480C183E593E00E94993D7B
:102210000E94CE078DE190E0A9D880919301909122
:102220009401EAD8D4DC88E088B989E087B980E2F3
:1022300084B982E080DB853D9340DCF714B81092CE
:1022400039011092380182E076DB7C0180917801BF
:1022500090917901909339018093380182E06BDB92
:102260006C01CC0CDD1C109239011092380182E017
:1022700062DB4C01A0907801B0907901B0923901F5
:10228000A09238010E941A0886E190E06FD885E597
:1022900093E00E947E3D182FD701A80DB91DAC19FF
:1022A000BD0995010E94153C96010D2C000C440BB4
:1022B000550B0E94E43B1D5F120F612F85E593E0F3
:1022C0000E948B3D812F012E000C990B95D87FDC4D
:1022D00082E08093490152DC109242018CE493E049
:1022E0000E947E3D682F8FE493E00E948B3D89E140
:1022F0008093360180E00E9453350E94CE0785E02E
:1023000091E034D80E941A0889E492E02FD8109204
:10231000250182E08093490131DC98CD123089F5A6
:1023200020913A0130913B01A8E5BBE10E94063CB7
:1023300024EC36E340E050E00E94E43B29013A01FE
:1023400081E085B9F5E0F4B980E0E9DA841995090E
:102350009A83898381E184B980E0E1DA841995095F
:102360009C838B8384E085B984E184B981E0D7DAEA
:10237000841995099E838D8389ED90E00E94B609AA
:1023800034C0133049F5D5B82AE024B980E0C7DA63
:1023900020913A0130913B013695279538872F835C
:1023A000821B930B9A83898382E284B980E0B7DA37
:1023B0002F813885821B930B9C838B8305B9E8E2C0
:1023C000E4B981E0ACDA2F813885821B930B9E83C0
:1023D0008D838BEC90E0D2CF1430C9F482E592E08B
:1023E0000E94B60906DD8111A6C00E941A088981E3
:1023F0009A8102D80E945D098B819C810E94FC0910
:102400000E945D098D819E810E94FC09D3CD15300B
:1024100099F415B8D4B880E082DA9A83898304B934
:1024200081E07DDA9C838B8334B882E078DA9E8306
:102430008D838BEE90E0A2CF163039F5D4B8D5B8A5
:1024400080E06DDA20913A0130913B01821B930BC1
:102450009A83898304B905B981E061DA20913A0150
:1024600030913B01821B930B9C838B8334B835B82E
:1024700082E055DA20913A0130913B01821B930BA7
:102480009E838D8387EE90E079CF173059F52091A8
:102490003A0130913B01A8E5BBE10E94063CA50151
:1024A00094010E94C23B29013A01D5B8F3E0F4B986
:1024B00080E035DA841995099A83898305B92CE07F
:1024C00024B981E02CDA841995099C838B8335B873
:1024D00024B882E024DA841995099E838D8385ECE3
:1024E00090E04CCF113009F080CF64CD98878F8376
:1024F00010924201F8CD0F5FCA01B901A501940104
:102500000E94C23B58CE10E00E941A0860917F01E1
:1025100070918001809181019091820104E026E414
:102520004091910167D80E94690988E2CCD9FA9458
:10253000F11030CEDCCE82E0C82E57CF8091420120
:1025400081110DC08CE493E00E947E3D61E0680F34
:102550008FE493E00E948B3D81E0809342010895D7
:10256000EF92FF920F931F93CF93DF93D62FE82F15
:10257000F0E0E65AFD4FE491E8B9E860E7B915B834
:10258000E62FF0E0E95AFD4FE491E4B9CE2FCC0FED
:1025900088E8E82E83E1F82E8D2FC1D98C01C4B9CB
:1025A0008E159F0518F1892BE1F00E942A088BE314
:1025B00091E00E94B609D80120EA36E841E050E0F7
:1025C0000E941B3C28E937EB40E050E00E94C23BF0
:1025D000C90122E041E467EFEFD888E087B988B904
:1025E00014B8CDB7DEB7E6E00C94133D7801D4CF34
:1025F0000F931F93CF93DF9385E09DD985E097D903
:102600008C01EC01CC0FDD1FCC0FDD1FCA56DF4F54
:1026100010924001C43883E0D80770F489EA91E051
:102620000E94B6090E94690981E080934001DF9110
:10263000CF911F910F91089588EB91E00E94B60908
:1026400062E0CE01C4D80E945D090A3F86E0180707
:10265000A0F40333164050F48BEB92E00E94B609CD
:102660000E9469098DEC2FD978DBE1CF82EC92E0F2
:102670000E94B6090E946909DACF85EB91E0F8CF94
:10268000FC019C01261B370BCA01432F311101C0ED
:1026900041E0240F311D492F5527BA01660F771FDE
:1026A000860F971F4B3E20F4E217F30770F708954B
:1026B00090E080E00895A9E1B0E0E1E6F3E10C9458
:1026C000EB3C582E462E342EA895E62FF0E0E95A22
:1026D000FD4F24912E87220F2F8B339634913A8B06
:1026E000E42FF0E0E95AFD4F449149833396549129
:1026F0005F83E82FF0E0E95AFD4F2490822D880F88
:102700008F87339694919B8398609C8338603A833B
:1027100045B9EE84E42AE4B897B9EB81E8B9862F8D
:1027200006D98C01FE85F4B9842D01D9B82E99877C
:1027300014B8B2D815B8E4B8842DF9D8B80159D96D
:102740006C012A8127B988E088B9398132293D8313
:1027500035B934B9852DEBD852D94C0115B89CD870
:1027600025B8852DE4D84BD99D878C8724B8852D35
:10277000DED845D93C016C857D85C4013AD98032CB
:1027800041E0940730F450E2C51651E0D50608F454
:1027900093C6EC85FD85CE0EDF1E800F911FC816F7
:1027A000D90620F01D870C876B2C79842091590164
:1027B00080917301820F9927991F02974CF0213065
:1027C00009F0A8C590915601809170019813A2C597
:1027D000D980DD0CFE84FD28FD2DF229FB872C8598
:1027E0003D852437310508F4A1C1C9010A96880F37
:1027F000991F6816790608F099C13C8137B94B8159
:1028000048B9F4B8842D8FD88C01832D94D87C01DD
:10281000D5B8842D88D89801295A3D4F28173907F3
:1028200008F0B6C088E088B95A8157B98B8584B959
:1028300085B9832D78D888349F4008F4A4C085E0FA
:102840008093250182E28093240110934F0100932D
:102850004E01B701C801D8D8909355018093540117
:102860009801A0E1B7E20E94063C20911F0130913F
:10287000200150E040E00E94C23B30935101209380
:1028800050018F898D2984B915B8FC81F7B92B8146
:1028900028B9842D48D89093530180935201832DF9
:1028A0004AD82091520130915301A901481B590B7C
:1028B000CA015093530140935201209124012F707B
:1028C000243069F5409150015091510160915401BB
:1028D00070915501D5DE0097F1F0D4B8EA895C819A
:1028E000E52BE7B9842D1FD88C0188E087B99801C2
:1028F000A0E1B7E20E94063C2091430130914401DF
:1029000050E040E00E94C23BA901B8018091520111
:1029100090915301B5DE90934F0180934E018091C9
:1029200024018F70843049F188E088B98F819A81C1
:10293000892B87B924B8ED81E5B9852D0E94970CC4
:102940008C015DD89E838D83842D0E949B0CE0902A
:102950002601F0902701BC01C80156D89701DC017F
:102960000E94063CED81FE819F0150E040E00E9404
:10297000C23B30934F0120934E01809159018F5FEC
:10298000809359014FC385E08093250184E25BCF9A
:1029900088E088B9FA81F7B92B8524B925B9852D46
:1029A0000E94930C8C01832D0E949B0C7C0125B806
:1029B000852D0E94930C895A9D4F8017910708F02E
:1029C000A9C43B8138B94C8147B9832D0E94930C2F
:1029D000813D934008F0A5C085E08093250182E306
:1029E00080932401B801C7010FD890936F018093A1
:1029F0006E01C80104D89C01A0E1B7E20E94063C28
:102A0000209126013091270150E040E00E94C23B16
:102A100030936B0120936A0188E088B99A8197B955
:102A20008F858D2984B985B9852D0E949B0C8C01D9
:102A3000832D0E94930CB8010E94040D9C01909379
:102A40006D0180936C01909124019F709430A1F5E9
:102A500040916A0150916B0160916E0170916F011C
:102A6000C9010EDE009721F1D5B8D4B8EB81E8B9E1
:102A7000EC81FA81EF2BE7B9852D0E94930C0E941F
:102A8000FF0C8C0128E027B99C01A0E1B7E20E946D
:102A9000063C20913C0130913D0150E040E00E9415
:102AA000C23BA901B80180916C0190916D01E8DDF4
:102AB0009093690180936801809124018F70843024
:102AC00051F1EB813F81E32BE8B94C81342B37B9CD
:102AD00015B85D8154B9852D0E94970C7C01842D19
:102AE0000E949B0C9E838D8300911F0110912001F9
:102AF000BC01C7010E94040D9801DC010E94063C44
:102B0000ED81FE819F0150E040E00E94C23B309386
:102B1000690120936801809173018F5F8093730135
:102B200019C185E08093250184E35ACF88E088B9F4
:102B3000FA81F7B925B82B8524B9852D0E94970C09
:102B4000998B888B0E94FF0C98878F83832D0E941E
:102B50009B0C9A87898783010C591F4F4F81588599
:102B6000B3010417150708F0F7C0CA010E94040D4D
:102B70009C8B8B8B209126013091270150E040E007
:102B800060E871EA83E09CE10E94C23BAB89BC89AA
:102B90000E941B3CE985FA859F0150E040E00E94BD
:102BA000C23B49015A0114B815B8FB81F8B92C8110
:102BB00027B981E00E94630CE4B8842D0E94970C31
:102BC0008F359D4008F474C1F4B8842D0E94930C95
:102BD000998F888F832D0E949B0C9C8B8B8B852DCE
:102BE0000E949B0C9E8B8D8B4B895C89413D57408D
:102BF00008F4E6C084E0809325018DE080932401F1
:102C0000E88DF98D8F01061917096E167F0610F0F1
:102C1000088D198DC0901F01D0902001F12CE12C5E
:102C200060E871EA83E09CE1A70196010E94C23B43
:102C3000D8010E941B3CEB89FC899F0150E040E0D9
:102C40000E94C23B80917301882371F080916401DE
:102C500090916501A0916601B09167018217930779
:102C6000A407B50708F099C020936401309365016B
:102C70004093660150936701288D398DA0E1B7E23A
:102C80000E94063CA70196010E94C23B30936B0153
:102C900020936A016B897C898D899E890E94040D2D
:102CA000909369018093680181E0409164015091A3
:102CB00065016091660170916701481559056A05C3
:102CC0007B0508F06CC08092640190926501A0922F
:102CD0006601B092670169857A85888999890E9421
:102CE000040D90936901809368012F813885A0E1DC
:102CF000B7E20E94063C209126013091270150E066
:102D000040E00E94C23B205F384D30936B0120931E
:102D10006A01C0901F01D0902001F12CE12C930199
:102D2000A0E1B7E20E94063CA70196010E94C23BC7
:102D300030936D0120936C012C853D85A0E1B7E2B5
:102D40000E94063CA70196010E94C23B30936F018E
:102D500020936E0181E025C08F8198850E94040D2B
:102D60009C8B8B8BFD81F4B9852D0E94970C998BE0
:102D7000888B0E94FF0C98878F83832D0E949B0C69
:102D80009A878987BC018B899C890E94040D9C01CC
:102D9000A4E6B0E00E94063CFDCE80E086CF811123
:102DA000B8CF909173019F5F90937301882309F4CA
:102DB00077C330927001409271015092720170C3DA
:102DC000F1E66F16710408F073C0288D398D213D2E
:102DD00047E0340708F46CC085E08093250182E168
:102DE00080932401C90186509F4FED89FE898E177B
:102DF0009F0708F043C083E180932401FA89F770AC
:102E0000DF2E832D806480937C00EBE0EE2E21E0AA
:102E100030E03E832D830FEF13E0A89561E08981B8
:102E20006ED5F4B886B18D21E9F33E8534B9809131
:102E30007A00806480937A0080917A0086FDFCCFCE
:102E40008091780090917900A801481B590BED8181
:102E5000FE81E40FF51FFE83ED83EA94E110DDCFE0
:102E6000CF01880F991F880F991F69E070E00E94B9
:102E70009B3B70936F0160936E014DCE00911F01DB
:102E800010912001688D798D8D899E890E94040D95
:102E90009801DC010E94063CE88DF98D9F0150E00D
:102EA00040E00E94C23B3093690120936801A6CFA5
:102EB000F4B8D5B8842D0E94970C6C01832D0E9424
:102EC0009B0C98878F830E94FF0C9A8789870C152B
:102ED0001D0508F0A9C0B301C6010E94040D8C01B4
:102EE00020911F013091200150E040E060E871EA3C
:102EF00083E09CE10E94C23BD8010E941B3CE98513
:102F0000FA859F0150E040E00E94C23B49015A010E
:102F1000FA81F7B988E088B92D8124B925B9852DC2
:102F20000E94970C8C01832D0E949B0C9A878987A5
:102F3000842D0E949B0C7C01003331E1130708F0C3
:102F4000E6C125B8852D0E94970C998B888B24B8F3
:102F5000852D0E94970C9C8B8B8B15B881E00E946D
:102F6000630C25B8852D0E94970C4B895C894034F1
:102F7000564008F079C08133914108F475C0C8010A
:102F80008A569F4F288939892817390708F06CC05D
:102F900086E080932501809159018F5F80935901CC
:102FA000B70189859A850E94040D90934F01809303
:102FB0004E01B701C8010E94040D90935501809302
:102FC000540114B815B83A8938B981E00E94630CED
:102FD00024B8852D0E94970C853F910518F54D81E9
:102FE00044B9832D0E94970C813D9340D8F0852DE4
:102FF0000E949B0C8D3D9240A8F024B8852D0E9424
:10300000970C8D3D924070F025B881E00E94630CD2
:1030100015B8852D0E94970C853F910518F487E01F
:103020008093250181E0F8C0E4B8F981F5B9842DD9
:103030000E94970C6C01832D0E949B0C98878F83B4
:103040000E94FF0C9A878987C6016C147D0410F4D6
:103050008619970969857A850E94040D9C01A4E66A
:10306000B0E00E94063C4BCF2A8127B9398134B9A0
:1030700035B981E00E94630C4B8544B945B9852D73
:103080000E94970C8C010E94FF0C998B888B832DDA
:103090000E949B0C9E838D830E94FF0C9A878987D8
:1030A000842D0E949B0C7C0189859A858E3F9940D6
:1030B00008F4C1C084E0809325018CE08093240152
:1030C000B301888999890E94040D8C012091260101
:1030D0003091270150E040E060E871EA83E09CE134
:1030E0000E94C23BD8010E941B3CE985FA859F01E2
:1030F00050E040E00E94C23B80915901882371F06A
:1031000080914A0190914B01A0914C01B0914D01E9
:1031100082179307A407B50708F07AC020934A01E5
:1031200030934B0140934C0150934D01B7018D8179
:103130009E810E94040D90934F0180934E01288937
:103140003989A0E1B7E20E94063C20912601309126
:10315000270150E040E00E94C23B30935101209390
:10316000500181E040914A0150914B0160914C0126
:1031700070914D01481559056A057B0508F04AC054
:1031800080924A0190924B01A0924C01B0924D0165
:10319000B6018F8198850E94040D90934F01809312
:1031A0004E019601A0E1B7E20E94063C20911F016A
:1031B0003091200150E040E00E94C23B205F384D3A
:1031C00030935101209350019301A0E1B7E20E9496
:1031D000063C20911F013091200150E040E00E9408
:1031E000C23B30935301209352012C853D85A0E1D1
:1031F000B7E20E94063C209126013091270150E061
:1032000040E00E94C23B30935501209354010ACF05
:1032100080E0A8CF8111D8CF909159019F5F909302
:103220005901882309F43CC130925601509257014C
:103230004092580135C1F1E66F16710408F067C07D
:103240002889398929343D4008F461C085E080939C
:10325000250182E080932401C70186509F4F80178B
:10326000910708F03CC083E0809324010B81077034
:10327000832D806480937C001BE021E030E03E835E
:103280002D83A89560E089813AD33B8534B935B95F
:1032900086B18023E9F724B880917A008064809316
:1032A0007A0080917A0086FDFCCF80917800909121
:1032B00079004D815E81480F591F5E834D83115007
:1032C00001F7CA01880F991F880F991F69E070E004
:1032D0000E949B3B70935501609354014ECBC0906C
:1032E0002601D0902701B701C8010E94040D960164
:1032F000DC010E94063CE889F9899F0150E040E02A
:103300000E94C23B30934F0120934E01AFCF88E023
:1033100087B988B914B815B888E087B957EC65162D
:1033200051E0750608F4E4C088B98F8584B998EC3B
:103330009D83EC81FA81EF2BEF832F8127B981E008
:103340000E94630C3A8137B9852D0E949B0C4297ED
:1033500028F04D8141504D834111EFCF5F8554B925
:1033600055B961E08981CBD2852D0E94970C6C0103
:103370008F8984B915B89C8197B9EB81E8B960E071
:103380008981BDD2842D0E94970C0E94FF0C9E83E0
:103390008D83FE85F4B9842D0E949B0C8C01852DB4
:1033A0000E94970CB8010E94040D8C01842D0E948C
:1033B0009B0C7C01852D0E94970CB7010E94040D87
:1033C000980128533F4F2817390708F469C088E04F
:1033D00088B92A8127B924B825B861E089818FD2BC
:1033E000842D0E949B0C7C01852D0E94970CB701B7
:1033F0000E94040D7C010817190708F060C03F8582
:1034000034B935B9852D0E94970C9C01CD82DE829E
:1034100098EEE91693E0F90608F063C0C70164E688
:1034200070E00E949B3BC7018759910989389141FF
:1034300008F05EC02E153F0508F05AC08D819E81B0
:1034400043E0969587954A95E1F7893C910510F000
:1034500088EC90E02D813E81820F931F8E159F0591
:1034600008F046C06217730708F042C0809125013A
:10347000833018F483E08093250120912301822F6B
:1034800090E0FC01EB56FE4F50824682880F991F58
:10349000FC01EF55FE4FF182E0822F5F2093230164
:1034A00088E087B988B914B815B88EE20E94090976
:1034B0006996E2E10C94073D6B2C79842BCF4F8900
:1034C00044B915B85C8157B98B8188B960E08981AE
:1034D00016D2842D0E94970C0E94FF0C9C0178014B
:1034E00097CFB70154E0769567955A95E1F79BCF52
:1034F000642D852D01D0D4CFB0E0A0E0E2E8FAE160
:103500000C94ED3CC82FD62FA895862F90E0FC0197
:10351000E95AFD4F5490339624914C2F50E0FA0114
:10352000E95AFD4F149133960491609173013091E3
:103530005901630F7727771F672B09F05AC0A895A9
:103540006091290170912A01660F771F660F771F1E
:1035500070933B0160933A01609178017091790119
:10356000660F771F660F771F7093390160933801DC
:103570003EEB3093360160912301E5E9F1E030E064
:10358000840F951F63133AC088E088B9286027B973
:1035900014B915B9B8E1BB2ED12CC12C8D2F0E94C6
:1035A000970C782E692E8C2F0E949B0C7C018C1915
:1035B0009D0997FF03C091958195910903970CF49C
:1035C0005AC1A895BA946701B110E8CF809129013A
:1035D00090912A0190933B0180933A018091780168
:1035E00090917901909339018093380189E180931A
:1035F0003601CDB7DEB7E0E10C94093D519145812C
:10360000450F5527551F4817590701F33F5FBACF9C
:1036100025E8C21621E0D206C8F6043AE2E01E0709
:1036200008F0B5C0F8E9AF16B10480F2C6010E94F7
:10363000FF0CAC019601A8E9B7EB0E94063C9A0189
:1036400050E040E00E94C23B29013A01C5010E94BE
:10365000FF0C9C01A8E9B7EB0E94063C950150E0E5
:1036600040E00E94C23B88E7C8168FE0D80608F009
:1036700072C0F2E0440C551C661C771CFA95D1F719
:10368000C301B201620F731F841F951F25E030E054
:1036900040E050E00E94C23BA4E6B0E00E941B3C28
:1036A0006B017C01FCEACF0EFDE0DF1EE11CF11C8A
:1036B00010912501143008F089CFC1500C2F0D0F47
:1036C000802F90E0EC01C25ADE4F2881880F991FAD
:1036D000880F991F82559E4FFC01222309F4C4C014
:1036E00080809180A280B380A701960128193909B2
:1036F0004A095B0957FF07C05095409530952195C1
:103700003F4F4F4F5F4FAAE0B0E00E941B3CF4E6F2
:103710008F0E911CA11CB11CA50194012C0D3D1D07
:103720004E1D5F1D0E94C23B232B242B252B09F02D
:103730004DCF133019F081E08093250182E088831A
:1037400080917A01E82FF0E0EF59FE4F00838F5F00
:1037500080937A013BCFE8E7AE16EFE0BE0670F447
:10376000E2E0220F331F441F551FEA95D1F7CA012B
:10377000B901640D751D861D971D88CF240D351D5B
:10378000461D571D569547953795279585CFC0906F
:103790002601D0902701672D762DE616F70608F44E
:1037A000B701C7010E94040D9601DC010E94063C8E
:1037B0002B013C01C7010E94FF0C9C0150E040E03E
:1037C000C301B2010E94C23B29013A01A0901F012E
:1037D000B0902001892D982D8017910708F4C80119
:1037E000B8010E94040D9501DC010E94063C98017D
:1037F00050E040E00E94C23B88E7E8168FE0F80600
:10380000B0F462E0440C551C661C771C6A95D1F735
:10381000C301B201620F731F841F951F25E030E0C2
:1038200040E050E00E94C23B69017A0141CF083775
:10383000EFE01E0770F4CA01B90152E0660F771F6E
:10384000881F991F5A95D1F7640D751D861D971D08
:10385000E5CF73016201C20ED31EE41EF51EF6947D
:10386000E794D794C79424CFC082D182E282F382B6
:1038700081E08883ABCE110F15B814B98C2F0E944C
:10388000970C8135910508F0A1CE15B98C2F0E94B7
:10389000970C6C01802F886087B908B915B854B8A7
:1038A000A8E14A2EB12CA12C8C2F0E94970C982EA7
:1038B000892E8D2F0E949B0C8C018A199B0997FFE2
:1038C00003C0919581959109039734F0A8954A9486
:1038D00058014110E9CF7ACE550C54B88D2F0E9473
:1038E000970C5C01F0ECEF16F4E4FF0608F490CEC0
:1038F00080EBC8168DE4D80608F068CE8ECECF9344
:10390000C82FC09595B160FF10C0982B95B994B1A0
:10391000892B84B982E00E94630C84B18C2384B922
:1039200085B18C2385B9CF9108959C23EFCFB0E06A
:10393000A0E0EDE9FCE10C94F33C1AE008E08FE331
:10394000C82E99E0D92E07B908B915B8C4B880E0D7
:103950000E94970C7C0181E00E949B0CEC0182E0AC
:103960000E949B0C9C01809125018930A1F488E084
:1039700087B914B8F0920601E0920501D0930801CE
:10398000C093070130930A0120930901CDB7DEB738
:10399000EAE00C940F3D84E0E816F10448F4C430EA
:1039A000D10560F42430310510F399E092600AC02B
:1039B00098E088EEE81683E0F80608F499E0C83E3F
:1039C000D340A0F3283E334008F4946097B9D0E088
:1039D000C0E0A89580E00E948F0C5C0181E00E940D
:1039E0009B0C7C0182E00E949B0C24E1A21625E046
:1039F000B20608F4389A24E1E21625E0F20608F44B
:103A0000399A843125E0920708F43A9A26E0A21602
:103A1000B10430F426E0E216F10410F4069738F011
:103A20002196C43F81E0D807A1F6D0922501F12C60
:103A3000E12CEC16FD0621F4115009F084CFA6CF3D
:103A40000E94520C2FEFE21AF20AF3CFCF92DF92CC
:103A5000EF92FF92CF9320917F01309180014091AE
:103A6000810150918201C09191018AE0C82ED12C30
:103A7000E12CF12C8C2FCF5F213A96E8390791E0A9
:103A800049075105E0F480939101A0913A01B0916A
:103A90003B010E941B3C28E833E140E050E00E94DB
:103AA000C23B20937F01309380014093810150936A
:103AB0008201CF91FF90EF90DF90CF900895CA01DF
:103AC000B901A70196010E94C23BD4CFB0E0A0E0AB
:103AD000ECE6FDE10C94F13CC82F062F880F8C0F0B
:103AE0009FEF960F890F80935B01EC2FF0E0E95A6E
:103AF000FD4F1491862F90E0FC01E95AFD4FF490A0
:103B0000FC01E65AFD4FD491809125018130C1F12D
:103B100020912301E5E9F1E090E080E08217A8F12F
:103B2000D86010928C0110928B0181EF80939101EB
:103B300010927F01109280011092810110928201F7
:103B4000F6DE88E088B9D7B9F4B8F5B88C2F0E94B2
:103B50009B0C5C01802F0E949B0CA81AB90A14B818
:103B600010925D0110925C0180915C0190915D0169
:103B7000843F9140F0F088E087B988B914B815B84F
:103B8000CDB7DEB7ECE00C940D3D368130130EC09E
:103B900030813C130BC0DC01AA0FBB1FAB56BE4FDC
:103BA0001C964D915C914C3D554050F301963196D9
:103BB000B5CF15B914B90E944C0C14B815B80E94B1
:103BC000530CA8958C2F0E949B0C7C01EA18FB08D3
:103BD00080915C0190915D018E37910520F08BE41E
:103BE000E816F10444F280915C0190915D012DE2B0
:103BF000E21621E0F2060CF023C2019690935D01DB
:103C000080935C01B1CF0E944D0C8C2F0E949B0CC5
:103C10008A199B09A8952FEFC21AD20A20915C013C
:103C200030915D012C153D0570F75701A81AB90AAE
:103C30001A141B040CF0ADC039ECA316B1040CF03F
:103C40009ACF28EE33E0D5010E94153C97010F2C46
:103C5000000C440B550B0E94C23B690180915C0132
:103C600090915D010196B0E0A0E080938701909370
:103C70008801A0938901B0938A01C7018A0D9B1D19
:103C800033D2209187013091880140918901509170
:103C90008A01DC010E941B3C6093870170938801BC
:103CA0008093890190938A0160937F0170938001D2
:103CB000809381019093820187EF80939101C6DE0A
:103CC00080907F0190908001A0908101B09082014E
:103CD0008FE293E00E947E3DA8EEB3E0A81BB109FD
:103CE00087FDB395A50194010E94253C24E630E0B0
:103CF00040E050E00E94C23B20937F01309380015E
:103D0000409381015093820180912301882329F0FF
:103D100080912501853009F02ECF88E08093250120
:103D200080919101909192019817C4F0891323CF4B
:103D300080907F0190908001A0908101B0908201DD
:103D400040918301509184016091850170918601B9
:103D5000481559056A057B0508F00DCF40917F0194
:103D600050918001609181017091820140938301A3
:103D70005093840160938501709386018093920132
:103D8000D0928E01C0928D0100938F01C09390015B
:103D9000F2CED12CC12C62CFCADD15B88FE087B925
:103DA00088E088B9F12EFF0CF4B880E480937B00A2
:103DB00084E580BF8C2F806480937C0086E18093B3
:103DC0007A000E94560C10925D0110925C011092D4
:103DD0008000109285001092840087E286BB81E209
:103DE00080936F0081E080937C01F5B8909125016C
:103DF00080938100953009F005C181E090E00C2EA0
:103E000001C0880F0A94EAF780958F7087B9F894FB
:103E100083B7817F83BF80917C01882389F083B73A
:103E2000816083BF7894889583B78E7F83BFF89431
:103E3000A89580915C0190915D018034964059F77E
:103E4000789410928100E0908600F09087001092A4
:103E50006F0086E980937A0014B815B88C2F0E9401
:103E60009B0C20913E0130913F01821B930B0C96DD
:103E7000909394018093930180915C0190915D01F6
:103E80008032934008F077CE80915C0190915D0183
:103E900090938A0180938901F0928801E0928701D2
:103EA00084EF8093910180915C0190915D01823457
:103EB0009105C8F060918701709188018091890116
:103EC00090918A0124E630E040E050E00E94C23B3D
:103ED00020938701309388014093890150938A0190
:103EE00086EF80939101A0917D01B0917E01209198
:103EF0008701309188014091890150918A010E9487
:103F00001B3C20E233E040E050E00E94C23B2093A3
:103F10008701309388014093890150938A0120934F
:103F20007F013093800140938101509382018EDDA7
:103F300080919101843F09F054C0C0907F01D090DE
:103F40008001E0908101F090820180EAC8168FE044
:103F5000D806E104F104C0F4A70196012C543F4FA8
:103F60004F4F5F4F60EA7FE080E090E00E94C23BED
:103F7000C20ED31EE41EF51EC0927F01D0928001B6
:103F8000E0928101F0928201C0907F01D090800187
:103F9000E0908101F0908201C114D10421E0E20699
:103FA000F10490F5D092BF01C092BE0180915B01F7
:103FB00090E0845B9C4F0E947E3D90E0B0E0A0E0EA
:103FC0008C159D05AE05BF0530F5C81AD90AEA0A59
:103FD000FB0AC0927F01D0928001E0928101F092B1
:103FE000820114B980917F0190918001A09181019B
:103FF000B09182014997A105B10508F4BCCDD12C3F
:10400000C12C82CED7B903CF81E090E09093BF015D
:104010008093BE01CBCF34E1C30ED11CE11CF11C57
:10402000C816D906EA06FB0610F40E949E121092EA
:104030007F01109280011092810110928201D1CFF4
:10404000892B31F485E1E81685E0F8060CF0A4CE62
:10405000C701D12CC12CE2CD1F920F920FB60F9247
:1040600011248F939F93B59904C080917C01811195
:1040700009C0B59B10C080918600909187008A3F4F
:10408000910548F480915C0190915D0101969093B7
:104090005D0180935C019F918F910F900FBE0F90F7
:1040A0001F9018951F920F920FB60F9211248F93A5
:1040B0009F9310927C01B09B10C0809186009091DC
:1040C00087008A3F910548F480915C0190915D01E1
:1040D000019690935D0180935C019F918F910F9069
:1040E0000FBE0F901F9018950F9221E08C3292070F
:1040F00010F48CE291E08C52914069E170E00E94F2
:104100009B3B99E16B3210F0982F6BE2981BE0ED2E
:10411000F2E0E60FF11DE60FF11D9F93CF010E9423
:104120007E3D482F3196CF010E947E3D582F31961B
:10413000CF010E947E3D282F3196CF010E947E3D07
:10414000382F6F91421B530B649FC001659F900DE8
:1041500011240C9669E170E00E949B3B620F731F73
:10416000CB010F900895B0E0A0E0E9EBF0E20C94F1
:10417000F13C88E893E190932A0180932901909380
:104180003B0180933A018EEB80933601C8E0C8B9B9
:1041900088E187B90E945B0CC7B984E00E94970C44
:1041A000AC018B5C9840833F9140A0F481E0809308
:1041B000450120913A0130913B01AFEBB9E00E94FB
:1041C000063C9A0150E040E00E94C23B30932A0135
:1041D000209329018091290190912A0190933B011C
:1041E00080933A018EE00E949B0C8EE00E94970C17
:1041F00090933F0180933E010E94E70D98DB88E099
:10420000F82EF8B8C9E0C7B985E185B9D1E0D4B9CD
:1042100080E00E94970C8C019AE0D92ED7B824E058
:10422000B22EB4B881E00E94970C080F191F3CE031
:10423000E32EE7B840E1C42EC4B882E00E94970C98
:10424000080F191F15B8C8B9C7B9D4B980E00E94C2
:10425000970C0E94FF0CEC01D8B8D7B8B4B881E035
:104260000E94970C0E94FF0CC80FD91FE8B8E7B84E
:10427000C4B882E00E94970C0E94FF0CC80FD91F9F
:10428000F7B8F8B814B880913A0190913B016C01ED
:10429000CC0CDD1CC80ED91EC01AD10ACC1ADD0AFE
:1042A000F12CE12C9801A0E9BAE10E94063CA7019B
:1042B00096010E94C23B49015A0130934401209368
:1042C00043019E01A0E9BAE10E94063CA7019601C4
:1042D0000E94C23B30933D0120933C012057354E54
:1042E000309327012093260180E7881A85EE980AEB
:1042F0009092200180921F0189E180933601CDB711
:10430000DEB7ECE00C940D3DCF92DF92EF92FF927E
:104310000F93CF93DF93F82ED62FC42F0E945A0904
:1043200088E191E00E94B609FED16D2F8F2D0E9489
:10433000C733C090C201D090C301E090C401F09097
:10434000C5018091020187FD05C0C114D104E104BB
:10435000F10421F084E191E00E94B6098D2F0E94C2
:104360005A09C114D104E104F10409F474C00E9493
:104370005D09809161010E94720ACC2309F467C033
:10438000809146018D3030F48650990B8A5A9C4FAB
:104390000E94B60980E00E948A09CD28CE28CF2845
:1043A00009F45EC06091C2017091C3018091C401A3
:1043B0009091C50103E028E447EF0E94FA0A87E2E2
:1043C00091E00E94B60981E693E00E94863D23E0D9
:1043D00046E464EF0E94DC0B8091BA019091BB012E
:1043E000A091BC01B091BD01892B8A2B8B2B01F1CF
:1043F00080E00E948A096091BA017091BB018091AE
:10440000BC019091BD0104E028E440E00E94FA0A5A
:1044100082E291E00E94B60923E040E26FEF8091D2
:10442000C0019091C1010E94DC0B0E94690907C084
:1044300080E00E946F09809149018823B1F3DF91E8
:10444000CF910F91FF90EF90DF90CF90089580E093
:104450000E948A09A7CFC11193CF80E00E948A09E8
:10446000809161010E94720A809102018E3F0CF0DE
:10447000B3CF8FE391E00E94B60960910B01709178
:104480000C0180910D0190910E0103E028E4409110
:1044900002010E94FA0AA0CFEF92FF920F931F939E
:1044A000CF93DF93182F0E94C70780918F010E943E
:1044B0005A098BE591E00E94B6091BD560918F01E6
:1044C000809190016ED3EC0190938C0180938B01CD
:1044D000E0908D01F0908E01CA3F8FEFD80720F455
:1044E00089E191E00E94B609809190010E945A09E9
:1044F000112309F445C0909146018DE0891B0E946B
:10450000600989E790E00E94B6090E941A0860914C
:10451000830170918401809185019091860104E06E
:1045200026E4409192010E94FA0ACA3FDF4F68F4E4
:104530008AE491E00E94B60922E044E06EEF8091A7
:104540008B0190918C010E94DC0B0E9469090E94F2
:104550002208E114F10469F083E491E00E94B609B5
:1045600022E045E26FEF80918D0190918E010E94D3
:10457000DC0B0E946909CDB7DEB7E6E00C94133D71
:104580000E946909C2CF8F7021F40E942A080C94FE
:10459000F81208958F3021F490914001913011F07C
:1045A0008F5F089580E00895CF9384E890E00E94A3
:1045B000712EC0E00E948A0E60E082E00E947C1AA8
:1045C00062E080E00E947C1A0E94C70780917A0115
:1045D0008823C9F041E062E080E096DE8C2FD3DFD3
:1045E00088EE93E00E94570D811109C080911E0151
:1045F000843028F48C2FCEDFC82F8A3FD8F20E9457
:10460000CE07CF91089584E890E00E94B6098AE52C
:1046100093E00E94B6090E941A088FE30E940909DC
:1046200080E00E946F090E946909D8CF0F931F9301
:10463000CF93DF93C0E0D8E012EF0DE00E948A0E26
:1046400060E082E043DAD093250180919101843FBC
:10465000E1F480917F0190918001A0918101B0915E
:10466000820184369105A105B10578F440E060E04F
:1046700082E00E944F3160937F01709380018093AC
:104680008101909382011093910180919101823F69
:104690006CF18093920180917F0190918001A091B3
:1046A0008101B09182018093830190938401A09352
:1046B0008501B093860181E0EFDE8C2F64DF88EE08
:1046C00093E00E94570D81110AC080911E01843031
:1046D00030F48C2F5FDFC82F8A3F08F4AFCF0E94E1
:1046E000CE07DF91CF911F910F9108950E94C707C8
:1046F0008DE790E00E94B60980914601902F981BAB
:10470000892F0E94600989E790E00E94B6090E9403
:104710001A088FE30E9409090E9469090E94220871
:104720000E946909CACFA6E1B0E0E9E9F3E20C947E
:10473000EB3C82E08093020180912501813009F0F9
:10474000F0C180917A01813009F0EBC140906101A4
:1047500024E0429EF0011124E255FE4F80819181B8
:10476000A281B381893032E59307A105B10508F034
:10477000D8C11C01712C81E0871508F4D6C1842DA5
:104780000E94680A982E892EE82DF0E0E65AFD4F27
:104790005490892D90E0FC01E95AFD4FE49115B841
:1047A00028E028B9372D3170632E20EF221631040E
:1047B00008F0C0C13111BEC100911F01109120014C
:1047C00000591A4121E030E0092C02C0220F331FAA
:1047D0000A94E2F7C9018860852987B934E1398BE9
:1047E000892D0E94930C5C01882D0E949B0C24E073
:1047F000A216B10410F4049728F039893150398B8E
:104800003111EECF80E480937B0094E590BF892D39
:10481000806480937C0026E120937A00F12CE12CC7
:1048200010928000109285001092840087E286BB6F
:104830000E94560C872D90E09A8B898B611083C162
:1048400081E88093810058B886B385FD0CC080FF55
:10485000FBCF21E026BBA89597012F5F3F4F790141
:104860002035310589F738E038B91092810090E29F
:1048700096BB2091860030918700690140918400A9
:10488000509185002417350738F480FF05C021E0DA
:1048900026BB3FEFE31AF30A86E980937A00B4E17E
:1048A0005B2E892D0E94930C5C01882D0E949B0C2D
:1048B00024E0A216B10410F4049718F05A94511091
:1048C000F0CF8090430190904401820C931C800EA5
:1048D000911E209121013091220100398AE11807AF
:1048E00008F03AC169E191EEC916D104E104F1047E
:1048F00030F4C60165E070E00E949B3B6451285291
:104900003109261B310967FD339566E0862F90E05B
:10491000B0E0A0E08C159D05AE05BF0508F025C1EF
:10492000C81AD90AEA0AFB0A662029F082E2C80EF0
:10493000D11CE11CF11C90E5E916F10418F0C12C22
:10494000D12C76018BE0C816D104E104F10428F0E3
:1049500091E0C91AD108E108F108B12CA12CA8EE08
:10496000B3E00E94063C6B8B7C8B8D8B9E8BA09161
:104970003A01B0913B0198010E94063CA5019401C7
:104980000E94C23B442755276B897C898D899E896B
:104990000E94C23BC9010E943F0EFC01A501940187
:1049A000C701B6010E94803B4B015C01BF0190E052
:1049B00080E0E3E0660F771F881F991FEA95D1F723
:1049C0006B5F7F4F8F4F9F4F2AE030E040E050E019
:1049D0000E94C23BC501B4010E94C23BE989FA8929
:1049E000EE0FFF1FEE0FFF1F81E090E08C0F9D1F69
:1049F000E80FF91F2083318342835383611018C06D
:104A00009CE0C916D104E104F10490F07394E989A3
:104A1000FA893196EE0FFF1FEE0FFF1F81E090E045
:104A20008C0F9D1FE80FF91F20833183428353832E
:104A3000A895739493E0971508F09DCE88E088B907
:104A400084E00E94630C91E00D811E812F813885E6
:104A500049815A816B817C81401751076207730736
:104A600008F090E00D851E852F85388949855A8587
:104A70006B857C8582E0401751076207730708F455
:104A800083E024E0829FD001112421E030E02C0F4C
:104A90003D1FA20FB31FE92FF0E0EE0FFF1FEE0F37
:104AA000FF1FE20FF31F0D911D912D913C9140814D
:104AB000518162817381041715072607370708F0B3
:104AC000892F34E0839FF001112421E030E02C0F86
:104AD0003D1FE20FF31F408151816281738140933A
:104AE0000B0150930C0160930D0170930E0180FD3A
:104AF00040C030EF23163104E0F58BEF80930201C4
:104B000080910B0190910C01A0910D01B0910E01CB
:104B1000892B8A2B8B2B11F41092020188E087B924
:104B200014B86696E2E10C94073D842D0E94680A51
:104B30004C012ACEE4B9852D886087B900911F0108
:104B4000109120014BCE58B80E945F0C90E296BBAA
:104B500081E88093810078CEC40160EB76E30E9407
:104B60009B3B695F285D3F4FD1CEC12CD12C760194
:104B7000DBCE8CEF80930201CB01BA016B5F7F4FDC
:104B80008F4F9F4F2AE030E040E050E00E94C23B50
:104B900020930B0130930C0140930D0150930E01B3
:104BA000AFCFAEE1B0E0E7EDF5E20C94EB3C662E62
:104BB000B82E860F898320912501283059F5209140
:104BC000830130918401409185015091860157FD08
:104BD00015C01091920109C0CA01B9012AE0312D16
:104BE000412D512D0E94C23B1F5F173FACF391F442
:104BF000243160E036074105510518F48FEF9FEF2F
:104C000045C1173F39F480E028178DE73807410583
:104C1000410510F020E03DE72C8B3D8B26EDA22EC8
:104C2000EAE5F2E0E60DF11D859188608E87EAE500
:104C3000F2E0EB0DF11D859188608F87E7E5F2E0EA
:104C4000E60DF11D7590E7E5F2E0EB0DF11DC59065
:104C500090EC692AB92A81E0E82EF12C012D112D62
:104C60008E831F82188619861A861B861C861D86CF
:104C7000188E198E1B8E1A8E0E94971C88E088B998
:104C800060927C000E94570C3F8537B975B874B8A4
:104C900052E05A95F1F70000000014B815B8DD2471
:104CA0003E8537B975B874B860927C00A895A0921B
:104CB0007A0080917A0086FDFCCF209078003090B9
:104CC0007900B0927C004C2DE5D020917800309195
:104CD0007900288B398B3F8537B9C5B8C4B8A895FA
:104CE000B0927C00A0927A0080917A0086FDFCCF81
:104CF000609178007091790060927C00472DCAD055
:104D0000409178005091790014B8CB01820D931D29
:104D1000E80EF91E011D111DEA82FB820C831D8322
:104D200088899989840F951F2E813F8168857985AF
:104D3000280F391F611D711D2E833F836887798776
:104D400022E32417150650F075B874B80E94610C60
:104D500014B815B8888D8395888F07C0483E73E0D6
:104D6000570718F08A8D83958A8F88899989281723
:104D7000190660F03E8537B9C5B8C4B80E94610C09
:104D800014B815B8898D8395898F07C0883E73E064
:104D9000970718F08B8D83958B8FD3945D2D5F3F94
:104DA00049F05F3731F45C2D550FC50E572D550F67
:104DB000750E76CF4090430150904401440C551C31
:104DC0009201E4E0240D351DEA95E1F72901570130
:104DD00068016E807F808884998420912501283025
:104DE000C1F46C897D89812D912D65507040804082
:104DF00090409B01AC010E94803B9B01AC0160E7AD
:104E000079E786E190E00E94C23B621A730A840A45
:104E1000950AA614B704C804D90428F46A187B08B4
:104E20008C089D0803C0662477244301B20180E00A
:104E300090E09301A4010E94803B9501A6010E948D
:104E4000C23B8BE293E07981870F911D0E947E3DEA
:104E5000682EC90160E170E00E949B3B260F371F5E
:104E6000C9016816190618F4861991090FC08C5EDD
:104E70009F4F8615910540F48C899D89843981E185
:104E8000980710F00E949E12812D912D6E96E2E1FE
:104E90000C94073D109281001092800010926F00D8
:104EA00010928B0010928A0057E056BB5FEF509330
:104EB00085005093840055E050937B0056EB50934F
:104EC0007A0051E05093810058E25A95F1F70000C2
:104ED00045B944B955E05A95F1F7000014B815B832
:104EE0001092810080917A0084FFFCCF80937A0039
:104EF0000895B0E0A0E0EFE7F7E20C94ED3C0091FC
:104F00008D0110918E010115110509F091C0E091FC
:104F10008F01F0E0E65AFD4FD491D860E091900106
:104F2000F0E0E95AFD4FC4910E94971C88E088B9CF
:104F300015B8D7B9C4B9809190010E949B0C7C012F
:104F4000D09192018CE08D0F843008F071C0809177
:104F5000830190918401A0918501B0918601D15F78
:104F60002AE0422E512C612C712CBC01CD016B5FCB
:104F70007F4F8F4F9F4FA30192010E94C23B490177
:104F80005A01DA01C901DF5FD73079F7893823E1A7
:104F90009207A105B10508F04BC0059708F448C079
:104FA000C5B9C4B9D0E0C0E0C815D90508F445C0FA
:104FB00014B815B8A89585E08093360180919001CA
:104FC0000E949B0CEC01CE19DF09E816F90610F0DF
:104FD000D0E0C0E0D12CC12CC814D90490F180914C
:104FE00090010E949B0C29E120933601A895E816B8
:104FF000F90618F48C010E191F090C171D0788F407
:105000009E01201B310B69F0A4EFB1E00E94063C29
:105010009E0150E040E00E94C23B30938E012093FD
:105020008D010E94971C88E087B988B914B815B81B
:10503000CDB7DEB7E0E10C94093D0E945D0C2296ED
:10504000B3CF0E945D0C8FEFC81AD80AC5CFA7E076
:10505000B0E0EDE2F8E20C94EB3C87EC91E041D655
:1050600060EF6B8354980E94520C14BC16BC1092D3
:10507000120110921301109214011092150181E097
:1050800085BB80936E0010928000E3E1FAE7F09315
:105090008B00E0938A0081E090E0909389008093F8
:1050A0008800109285001092840083B5816083BDD2
:1050B00096E096BB90936F007894E4E0E0938100D3
:1050C000F2E3F9831A820E944B0CA8954F9902C013
:1050D00061E06A8385B5882329F0898181508983BD
:1050E0008111F1CF15BC86B5809312010E94220870
:1050F0000E9469090E942A080E9469090E94960973
:1051000086E60E9409090E949A0960911201709135
:105110001301809114019091150147E00E94F10B59
:10512000549880918100882319F08FE30E94090927
:105130001092810010926F002091120130911301A2
:105140004091140150911501DA01C9010197A1099B
:10515000B109813F9048A105B10508F096C0AAE0C9
:10516000B0E00E941B3C685F7F4F8F4F9F4F23E052
:1051700096958795779567952A95D1F7660F771F4E
:10518000709375016093740154980E94520C16BC80
:105190001092120110921301109214011092150135
:1051A000F1E0F5BBF0936E0010927701109276015A
:1051B00064E06BBB809168008460809368007894A1
:1051C00080916D00806180936D0019820E944B0C6C
:1051D000A8954F9902C081E08A8380916D0084FF79
:1051E00005C099819F5F99839A3F81F715BC809193
:1051F0006D008F7E80936D00809168008B7F80931F
:10520000680086B5809312010E94220884E50E94FE
:1052100009090E949A09E0917401F0917501FD83DA
:10522000EC836091120170911301809114019091AF
:10523000150128EA31E640E050E00E942B3CEC8169
:10524000FD81612C712C43015F01C12CD12CE12C1B
:10525000F12C00E010E00E947F3C49014F835E8307
:105260001B012C018C819D818038910520F107E084
:1052700023E745EFB4018F81952F0E94FA0A9981A7
:105280009A3F91F58FE30E94090910926E0080ED1C
:1052900097E00E94570D6A81860F49F480911E01A4
:1052A000833028F48B8181508B838111DBCE27964C
:1052B000E2E10C94073D84E6A82EB12CC12CD12C40
:1052C000E12CF12C00E010E094014F815E81B101EE
:1052D000C2010E947F3CF22FE42F07E023E747EF53
:1052E0006F2F732F8E2FC8CF94014F815E81B10134
:1052F000C201263E354B4105510561057105810509
:10530000910519F210F20E942A0886E60E94090906
:105310000E949A0994014F815E81B101C20154013A
:105320002115FAEC3F07FAE94F07FBE35F07610538
:10533000710581059105F1F0E8F06A0171018201C2
:1053400020E030E04AE85DE568E775E483E691E057
:105350000E947F3CF22FE42F07E028E44AEF6F2FF2
:10536000732F8E2F952F0E94FA0A8AE70E9409094F
:1053700054988BCFCF80DE807101820120E030E431
:105380004AE750E163EF7AE580E090E00E947F3CDD
:10539000F22FE42F07E028E44DEFE1CF1F920F92A8
:1053A0000FB60F9211248F939F93AF93BF9378946E
:1053B0008091120190911301A0911401B0911501F7
:1053C0009F5FAF4FBF4F8093120190931301A09343
:1053D0001401B0931501BF91AF919F918F910F90E0
:1053E0000FBE0F901F9018951F920F920FB60F923D
:1053F00011248F9386E085BD8F910F900FBE0F9083
:105400001F9018951F920F920FB60F921124A89516
:105410001092810015BC0F900FBE0F901F90189531
:105420001F920F920FB60F9211242F933F938F93D9
:105430009F938091760190917701892B11F481E0FF
:1054400085BD209176013091770180917401909112
:1054500075012817390730F015BC80916D008F7EDB
:1054600080936D00809176019091770101969093E1
:105470007701809376019F918F913F912F910F90AB
:105480000FBE0F901F9018958C3008F08C50811132
:1054900009C083E392E00E94B6090E9469090C9456
:1054A000C2070895813019F487EC91E0F4CF82307F
:1054B00019F48AE092E0EFCF833019F48FEF91E096
:1054C000EACF843019F48FE890E0E5CF853019F405
:1054D00084E890E0E0CF863019F48DE790E0DBCFF0
:1054E000873019F48EEE91E0D6CF883019F48FED25
:1054F00091E0D1CF893019F48EEB91E0CCCF8A3096
:1055000019F481E292E0C7CF8B3039F686E192E060
:10551000C2CF0F93CF938FE890E0E3D3C0E0109217
:10552000250160E082E0F2D380912501883009F006
:1055300050C00E941A0883E40E9409090E949A0937
:105540006091830170918401809185019091860121
:1055500003E026E4409192010E94FA0A0E94690940
:1055600060918F01809190011CDB90938C0180935E
:105570008B010E9422088BE491E00E94B609809181
:105580008B0190918C018A3F2FEF9207F0F422E07B
:1055900044E06EEF0E94DC0B0E9469098C2F0E9490
:1055A000C32288EE93E00E94570D81110BC08091B9
:1055B0001E01843038F48C2F0E94CA22C82F8A3FE3
:1055C00008F4ADCFCF910F9108958FE30E940909A0
:1055D000E3CF0E9496090E942208DECF0895A5E03D
:1055E000B0E0E5EFFAE20C94EB3C8AE092E079D38C
:1055F00080E18093800010926F0081E090E09093B2
:1056000089008093880010928B0010928A0083E0BA
:1056100086BB1092820088E08093810015B891E1EA
:1056200094B988B989E087B9229A80938100312C96
:1056300020E03AE0398341E04D83812C912C5401E4
:10564000839451E15C83832D90E00A966EE170E0D3
:105650000E94AF3B6B83F62E621761F00E94C70772
:105660008AE092E00E94B60910E01F1508F4DAC043
:105670000E9469098D8169810E948F3BA92FB0E04A
:10568000A50194010E941B3C6B017C018C8182313D
:1056900050F0652D762D872D902F0E94C23BC60EAF
:1056A000D71EE81EF91E0E941A089D812981212C0F
:1056B000921306C081E03C81323108F480E0282E4C
:1056C0002A828CE3211005C04C818EE3463108F01C
:1056D00082E50E9409090E945D094C81C701B6015B
:1056E0000E94F10BC701B6017E5E85489F4FA7015E
:1056F0009601220F331F441F551F0E94C23BCA014F
:105700004F3F510509F008F492C08DE0809381006D
:1057100080E094E02C01712C612CCA01B901A30135
:1057200092010E94C23B215031093093890020939D
:1057300088008091880090918900892B31F481E064
:1057400090E090938900809388000E9469090E94EC
:10575000220886E60E9409090E945D0900918800DE
:105760001091890060E079E08DE390E0A30192015F
:105770000E94C23BA4E6B0E00E941B3C0F5F1F4F9B
:10578000980150E040E00E94C23B29013A01A4E6A2
:10579000B0E0A70196010E941B3CA3019201261BC9
:1057A000370B480B590BCA01B90105E228E44EEF4B
:1057B0000E94FA0A8AE70E9409090E94690980ED9D
:1057C00097E00E94570D282F811151C080911E0132
:1057D000811101C0232D80911E018B30B8F480917E
:1057E0001D0187FD88C03D81830F90E03981632FC3
:1057F00070E06F5F7F4F0E94AF3B8D83822F0E94CE
:10580000CA22382E4FEE481708F056C01092810079
:105810001092800088E087B914B822982596E2E1BA
:105820000C94073D8EE20E9409091F5F1ECF403491
:10583000510530F08CE08093810080E091E06ACFE8
:105840004830510530F08BE08093810080E490E097
:1058500061CF892B31F08AE08093810088E090E06D
:1058600059CF89E08093810081E090E053CF883C5C
:1058700068F68135C8F1222029F13C8131503C8302
:10588000C501B4012AE030E040E050E00E94C23B94
:1058900049015A01C701B6010E94C23BCA01B901C0
:1058A0002AE030E040E050E00E94C23B6A834AE0D8
:1058B00049832A812D83312C2B815C2C6D2C7E2CED
:1058C0000F2DC1CE5C815631E0F45F5F5C835631B1
:1058D00011F485E18983AAE0B0E0A50194010E945A
:1058E0001B3C4B015C01E5CF8B3018F09D819F5F25
:1058F0009D8320E070CF8F5F4981840F5D81850F8C
:1059000074CF5AE0598381E08A83812C912C540111
:10591000839491E19C83CDCFB0E0A0E0E2E9FCE28A
:105920000C94ED3C8FEF91E0DCD183E2809380001A
:1059300010926F008FEF90E090938B0080938A001D
:1059400083E086BB1092820015B881E184B988E0BB
:1059500088B989E087B9229A21E030E03093890044
:10596000209388008093810010E080E0D2E300E083
:1059700094E6C92ED12CE12CF12C88248A9423E0C2
:10598000922EA12CB12CD817A1F1D43608F0D45600
:105990002D2F30E0AFEFB3E00E94063C6E5C7F4FEE
:1059A0008F4F9F4FA70196010E94C23B29013A01E8
:1059B00030938B0020938A000E941A08A8EEB3E06F
:1059C000A30192010E941B3C61507E4F8F4F9F4F5D
:1059D000A50194010E94C23BC90125E045E26FEF99
:1059E0000E94DC0B0E946909093218F08CE30E94C6
:1059F000630C80E496E00E94570D082F8338A0F4D2
:105A000080911E018B3080F4C0911D01C7FD1BC029
:105A1000CD0F0333D0F0C65F10E0812F0E94CA2261
:105A2000182F8D2F103F68F088E087B91092810001
:105A30001092800014B82298CDB7DEB7E0E10C9444
:105A4000093DDC2FA0CFCC59E3CF002311F0CF5F6D
:105A5000E3CF8111E1CFE1CFCF93DF938EEB91E0E4
:105A600040D18AE293E00E947E3DC82FD0E081E8D9
:105A70000E94B9078C2F0E94B9070E941A0824E0DF
:105A800040E260E08C2F90E00E94DC0B0E946909EC
:105A900080E496E00E94570D811121C090911E0173
:105AA00091111FC090911E019B3088F490911D01AF
:105AB00097FD19C0C90F882319F08932B0F0CF5F64
:105AC000CF778D2F0E94CA22D82F803F80F26C2F73
:105AD0008AE293E00E948B3DDF91CF910895823856
