:10000000A2C20000B4C20000B2C20000B0C2000030
:10001000AEC20000ACC20000AAC200000C947B215A
:10002000A6C20000A4C20000A2C20000A0C200003C
:100030009EC200009CC200009AC2000098C200004C
:1000400096C200000C946C210C945D2190C20000BB
:100050008EC200008CC200008AC2000088C200006C
:1000600086C2000084C2000082C2000080C200007C
:100070007EC200007CC200007AC2000078C200008C
:1000800076C2000074C2000072C200000C943F21CE
:100090006EC200006CC200006AC2000068C20000AC
:1000A00066C2000064C2000062C2000060C20000BC
:1000B0005EC200005CC200005AC2000058C20000CC
:1000C00056C2000054C2000052C2000050C20000DC
:1000D0004EC200004CC200004AC2000048C20000EC
:1000E00046C200005245465F523D005245465F43BE
:1000F0003D00203E3130306E4600706EE46D006B86
:100100004D010410010204041F111111111F0400FC
:100110001E0203021E0000000F0818080F00001145
:1001200013171F1713110011191D1F1D1911001B83
:100130001B1B1B1B1B1B005244533D005B435D00FC
:10014000312D032D3320005B524C5D00312D07060D
:100150002D77772D332000432B4553524054503197
:100160003A3300664054503200203530487A00431C
:1001700030200052695F4C6F3D0052695F48693D15
:100180000052303D0052482F524C002B52482D2037
:100190003132203133203233002B524C2D2031327A
:1001A0002031332032330052482B0052482D005268
:1001B00048663D005265663D00494345733D004930
:1001C0004345303D0056657273696F6E20312E31A4
:1001D000326B002D77772D002D07062D002A012088
:1001E00020002D022D002D012D004E6F7420636123
:1001F0006C696272617465642120466F72FF63618D
:100200006C6962726174696F6E20636C616D7020DD
:100210007468652033FF70696E7320746F6765744E
:1002200068657220616E64207374617274207769EE
:10023000746820746865FF6B65792E2041636B6E6E
:100240006F776C65646765207468652073656C669C
:100250002D74657374207769746820746865206BE9
:1002600065792077697468696EFF32732E2044695E
:1002700073636F6E6E6563742070696E7320616660
:1002800074657220746865FF6D65737361676520BE
:100290002269736F6C617465FF50726F6265212211
:1002A0002069732073686F776E2E20536F667477A2
:1002B00061726520616E6420646F63756D656E7434
:1002C0006174696F6E2069732061742073766E3A71
:1002D0002F2F206D696B726F636F6E74726F6C6C11
:1002E00065722E206E65742F7472616E73697374FB
:1002F0006F72207465737465722000202049723D0E
:10030000004C3D0020566C6F73733D0020455352E6
:100310003D005643433D0043656C6C21002D032D89
:10032000004056673D002056743D0055663D00551F
:1003300062653D00203132333D00504E50004E503A
:100340004E00433D00433D00423D002D494742548D
:10035000004A464554002D4D4F53004443205077EA
:1003600072204D6F6465004F4B004261742E200077
:1003700073686F72742050726F62657321005365E9
:100380006C6674657374007475726E2100726F749C
:1003900061727920656E636F6465720031302D6221
:1003A00069742050574D00662D47656E6572617403
:1003B0006F7200537769746368206F6666005368D4
:1003C0006F77206461746100566F6C7461676500BB
:1003D0004672657175656E6379005472616E7369FA
:1003E00073746F720053656C656374696F6E3A0065
:1003F0005465737420456E640069736F6C61746535
:100400002050726F626573210053656C667465736A
:1004100074206D6F64652E2E0054696D656F757460
:1004200021006F722064616D6167656420004E6F0A
:100430002C20756E6B6E6F776E2C206F720020759E
:100440006E6B6E6F776E00546879726973742E00EC
:10045000547269616300706172740064616D6167F8
:1004600065642000656D70747921007765616B00AB
:1004700054657374696E672E2E2E00BA0387035875
:10048000032E030703E402C302A40288020000143F
:100490000029003E005300690080009700AE00C6AE
:1004A00000DF00F80012012D01490165018201A061
:1004B00001BE01DE01FF012102440268028E02B585
:1004C00002DE020903350364039403C803FE033705
:1004D000047304B404F90443059305EA054906B31B
:1004E000062907AE074808FF08DE09AF57B950C212
:1004F0004A97451141133D87395A367E33E8308E8D
:100500002E692C712AA128F5266925F923A22262D9
:100510002137201E1F161E1E1D341C571B851ABF97
:100520001903195018A61704176A16D6154915C2CB
:10053000144114C5134E13DC126E1205129F113DA7
:1005400011DF1084100011241FBECFEFD1E2DEBFF7
:10055000CDBF00E00CBF12E0A0E0B2E001C01D92F0
:10056000A33BB107E1F70E94EC290C94CF3148CDB1
:1005700080FD149A80FF14980C9A0000159A0D9A29
:10058000109811981298139864FD109A089A65FDB6
:10059000119A099A66FD129A0A9A67FD139A0B9AA4
:1005A00000001598F8D287FD10C0159A1098119880
:1005B0001298139860FD109A61FD119A62FD129ACB
:1005C00063FD139A00001598E6C208958091030216
:1005D0008093000280910E02809302020895CF93CF
:1005E000C82F682F81E0C4DFCDD2C83050F4C630A8
:1005F000C0F4C23071F0C33081F0C130E1F48EE359
:100600000DC0C43E81F0C43F81F0CD32A1F48DE233
:1006100013C08CE78AD28CE30FC08CE786D28CE7BC
:100620000BC082E509C085E707C08FE47ED288E66B
:100630007CD28DE601C08C2F78D2CF9108958F5C4B
:10064000CECF80E2CCCFA1E0B0E0E9E2F3E00C94C1
:100650001131882329F08983F4DF89818150F9CF12
:100660002196E2E00C942D318DE3B9CF8DE05DD27F
:100670008AE05BC2CF93C82F682F80E079DF82D2F7
:10068000CF7BC03809F4F2DFCF91089580E24DD2DC
:1006900081E080930E0280ECEDCF80E246D282E0D2
:1006A00080930E0280E9E6CF80E23FD283E0809320
:1006B0000E0280EDDFCF60930302813011F480ECF5
:1006C00001C080E8860FD6CFA1E0B0E0EAE6F3E013
:1006D0000C941131682F80E2698327D290910E0229
:1006E0009F5F90930E026981923030F091E0909379
:1006F0000E029093470202C01092470280910E02B0
:10070000DADF2196E2E00C942D31DEDFE5C2609164
:10071000000280910202CFCFA9DF10920E0280E882
:10072000A9CF81E0A7DF23D2A1DFF6DF10920E026E
:100730000895CF93DF93EC018991882311F04FDF67
:10074000FBCFDF91CF910895CF93DF93EC01FE01B2
:100750008491982F9F7719F042DF2196F8CFDF918F
:10076000CF9108950F931F93CF93DF938C01085F70
:100770001F4FEC01FE01849132DF2196C017D10793
:10078000C9F7DF91CF911F910F910895EAD183E3CB
:1007900071DF82E36FDFEBD180E26CDF80E26ADF42
:1007A0008AE268DF88E066DF86E064DF82E062DF9D
:1007B000B8DFDED18CE05EDF88E45CDF87E291E0C9
:1007C000D1DF80E557DF8FE191E0CCDF88E552DFB4
:1007D0008FE291E0C7DF88E74DDF87E191E0C2DF7C
:1007E00080E748DF8FE091E0BDDF80E443DF87E012
:1007F00091E0B8CF84E127CF8FDFFCDF8DCF46DFDC
:10080000F9DF44CF08950F9385E493E09DDF409195
:100810008B024D3F64F46091790270917A0280916D
:100820007B0290917C0203E026E4B6D002C08FE305
:10083000D6DE0F91089597FF09C08F939F938DE2A5
:10084000CEDE9F918F91909581959F4F61E272E0EE
:100850004AE050E00E947D316CCFEF92FF920F93FF
:100860001F93182F062FF42E84E393E06DDFEE2400
:10087000E0914502F09146028685E81611F4812F39
:1008800009C08485E81611F4802F04C08585E81618
:1008900011F48F2DA4DEE3948E2D833049F71F9140
:1008A0000F91FF90EF900895682F80E092E066230B
:1008B00009F491E0623009F481E008950F93082F64
:1008C000E7EAF2E0880F880FE80FF11D608171817F
:1008D00082819381643671058105910578F42091B8
:1008E0000102222359F4802FDFDF692F0E94D21CDE
:1008F000BC0180E090E04EEF03E002C04FEF04E067
:1009000024EF4AD09EDE0F910895863058F4EBE92B
:10091000F2E0E80FF11DE80FF11D8081918163E0A5
:10092000FAD08FCE08951F93182F809176028823D6
:1009300019F087DE80E053DEA9DE8BE293E004DF6E
:10094000812F82958F70E1DF812F8F70DEDF1F9105
:100950000895CF93DF9380910F0282958F70CFE837
:10096000D2E0C80FD11D88816ADE86EE91E0ECDE10
:100970008E8165DE86EE91E0E7DECFE8D2E0809101
:100980000F028370C80FD11D8E8159DE80910F0236
:10099000CADFDF91CF910895A0E0B0E0E2EDF4E08E
:1009A0000C940731142FC22F033009F4A1C0043076
:1009B00009F4A5C0053051F0063081F00730B1F0E0
:1009C000B4E6CB2ED12CE12CF12C17C0A0EACA2E14
:1009D000A6E8DA2EEE24E394F12C0FC0F0E4CF2E3B
:1009E000F2E4DF2EFFE0EF2EF12C07C0E0E8CE2E80
:1009F000E6E9DE2EE8E9EE2EF12C5AE0852E912C68
:100A0000A12CB12C6C157D058E059F0560F06B5FE8
:100A10007F4F8F4F9F4FA50194010E946530CA01FF
:100A2000B9011F5FEFCF0CE0010F07FD04C00331D8
:100A300018F002E101C000E01BEA019F112D112412
:100A40001695212F220F210F021B21F01F5F23E09B
:100A5000201B022F2AE030E046E352E00E945A3188
:100A6000A6E3B2E00D900020E9F71197A653B2403B
:100A7000BA2E9D013327802F90E0049682179307AA
:100A800014F41F5F0D5FE12FF0E0E650FF4FA490DC
:100A9000DA2FD01B1D1634F08EE2A1DDDD2311F01C
:100AA00080E39DDD011101C0DFEF46E3E42E42E06B
:100AB000F42E8701CD2EDD24C7FCD094802F8E1913
:100AC0008B1568F4F80181918F0189DD9801265317
:100AD00032402C153D0591F78EE281DDEFCFAA2043
:100AE00011F08A2D7CDDCC2389F08C2F78DD0EC0AF
:100AF00038EEC32E33E0D32EE12CF12C7ECF20E153
:100B0000C22E27E2D22EE12CF12C77CFCDB7DEB763
:100B1000ECE00C9423310F93062FBC0180E090E0B1
:100B200026E54DEF39DF0F9108958F932F932AE03B
:100B30008095539A089410F45B9802C05B9A000069
:100B400020D027D086952A95B1F72F918F910895BF
:100B500003D002D001D000D000D003D002D001D009
:100B600000D0A89500D003D002D001D000D000D092
:100B700003D002D001D000D000D003D002D001D0E9
:100B800000D000D003D002D001D000D000D003D0DC
:100B900002D001D000D01F921F9000000000000082
:100BA0000895E5DFE5DFE4DF1F93182F106410934D
:100BB0007C00E12FE07880912C02E81751F0E0935F
:100BC0002C02D5DF87ED80937A0080917A0086FD34
:100BD000FCCF20E030E0A901E0E01FC087ED80936A
:100BE0007A0080917A0086FDFCCF60917800709148
:100BF0007900260F371F411D511DE43069F48091A3
:100C00002E02803049F084E02030380728F417FDA8
:100C100003C010681F7BCBCFEF5F80912B02E817DA
:100C2000E8F260912F027091300217FF04C06091CA
:100C30002D0270912E0280E090E00E942F302FEF65
:100C400033E040E050E00E946530B901CA012091D4
:100C50002B0230E040E050E00E946530C9011F9156
:100C60000895EF92FF920F931F93CF93DF93F82E87
:100C7000E92EC5E6079B05C0CF2DDE2D05E510E06A
:100C800017C076DFC150B1F7F7CF71DF000F079BB8
:100C90000F5F0F730F3379F4111103C0CF2DDE2DC9
:100CA00014E01F5F163990F4A8951C161D0644F039
:100CB000D7FFEBCF0BC00111F7CF1123A9F306C06B
:100CC0002A972097A9F7CFEFDFEFF2CF812FCDB78B
:100CD000DEB7E6E00C942931CF9378DCC82F809101
:100CE00047028823C1F0813049F4C13039F46FE004
:100CF000E2DC8BE274DC6FE081E0DDDC80E49FE12C
:100D0000B0DFC13039F480914702813019F460E0DE
:100D1000D2DC70DDFCDCCF9108958BE090E00E9486
:100D20009131382F8CE090E00E9491312091330274
:100D3000230F30913402381F209318023093190288
:100D400083E0283E380720F0C901885E934002C046
:100D500080E090E062E370E00E943E30683008F08E
:100D600067E0EBE7F4E0E60FF11DE60FF11D4591BA
:100D700055912591359162E3681B421B530B649F8B
:100D8000C001659F900D1124499662E370E00E94B6
:100D90003E30620F731F70937802609377028DE08C
:100DA00090E00E949131992787FD909560913302E0
:100DB00070913402860F971F90932E0280932D021C
:100DC00090937502809374020895CF93DF9324E18A
:100DD00030E0B9010E943E30DC01EDE8F4E0E60FBE
:100DE000F71FE60FF71FC591D591459155914C1B03
:100DF0004A9FC0011124B9010E943E306C0F7D1F33
:100E0000CB01DF91CF91089510921C0210921A022B
:100E100010926F021092570210921B02109244021D
:100E20001092760210925A0210925B0210925C02AB
:100E30001092890210928A021092010210927D0291
:100E400010927E0210927F021092800284EF8093B3
:100E50008C020895A1E0B0E0E0E3F7E00C940F31DC
:100E600010BA11BAE82FF0E0EF5FFE4F9491909323
:100E70000801262F281BE20FF11D27FDFA95E491AA
:100E8000E92BE093070169838FDE8C016981862F4E
:100E90008BDE20912F023091300236952795A901E3
:100EA00043505109B801625E7F4F4617570778F4E7
:100EB000255E3F4F0217130750F4BC01625E7F4F5F
:100EC0004617570720F441E08217930708F040E0E7
:100ED00010920701842F2196E4E00C942B31CF93DC
:100EE00061E080E0B7DFC82F62E080E0B3DFC80FC9
:100EF00062E081E0AFDF8C0FCF910895A3E1B0E015
:100F0000E4E8F7E00C940131182F10921C02807F66
:100F1000A9F4E5DF833009F00FC603DC89E094E033
:100F200013DCB4DB8FE35BDB80ED97E09ADE8B3084
:100F3000C0F4F7DB85EC91E007DCFEC5A6E9FA2EEC
:100F400000E0EFDB80E793E0FFDBC9DF833021F4D3
:100F50000F5F043010F005C000E002DEFA9489F75C
:100F60006CC094DB81E891E0EFDB60E082E090E030
:100F70000E949E3160E083E090E00E949E3160E03C
:100F800081E090E00E949E3160E082E00E94D21CED
:100F90005C019A83898361E082E00E94D21C6C012B
:100FA0009C838B8360E081E00E94D21C7C019E8345
:100FB0008D83B501882777FD8095982F03E020E287
:100FC0004EEFEADCB601882777FD8095982F20E266
:100FD0004EEFE2DCB701882777FD8095982F24EF4C
:100FE0004EEFDADC2AE5A216B10424F084E190E0A9
:100FF0009A838983698182E090E00E949E318AE52C
:10100000C816D10424F084E190E09C838B836B812B
:1010100083E090E00E949E319AE5E916F10424F005
:1010200084E190E09E838D836D8181E090E00E9459
:101030009E3182E0809347024FDE1F701F87113080
:1010400009F09EC301E010E058EB252E52ED352E3D
:1010500057E4452E512C62E0A62E78E0972EECE066
:101060006E2EF4ECCF2EF6E3DF2EE12CF12C812C4A
:10107000B02E90E2792EC3DBBFDB84E5B0DAC80185
:10108000E5DBDFDAE1E0BE1218C00E94D01984EB84
:1010900091E05ADB64E080913302909134023BDDB1
:1010A000F5DA8FEA91E050DB809177029091780237
:1010B000CDDB8EEB80932B0226C1F2E0BF1246C03F
:1010C00020912F0230913002A8E5BBE10E94103040
:1010D000A70196010E94873081E08093080185E096
:1010E0008093070180E0288B398B4A8B5B8B59DD1D
:1010F000288939894A895B89821B930B9A83898362
:1011000081E18093070180E0288B398B4A8B5B8BD0
:1011100048DD288939894A895B89821B930B9C8326
:101120008B8384E08093080184E18093070181E050
:10113000288B398B4A8B5B8B34DD28893989821B5C
:10114000930B9E838D8389E991E0CCC093E0B91223
:101150002EC0A0920801EAE0E093070180E021DDC3
:1011600020912F02309130023695279538872F83B2
:10117000821B930B9A838983F2E2F093070180E04C
:1011800010DD2F813885821B930B9C838B8390927B
:10119000080128E22093070181E003DD2F813885D3
:1011A000821B930B9E838D838BE891E09BC084E030
:1011B000B81207C089EF93E0C7DA91DE8111B9C494
:1011C00096C095E0B91217C010920801A0920701CD
:1011D00080E0E7DC9A8389839092070181E0E1DC7B
:1011E0009C838B837092070182E0DBDC9E838D837E
:1011F0008BEA91E077C0E6E0BE122DC0A092070115
:10120000A092080180E0CDDC20912F0230913002C5
:10121000821B930B9A838983909207019092080115
:1012200081E0BFDC20912F0230913002821B930BB2
:101230009C838B83709207017092080182E0B1DC7D
:1012400020912F0230913002821B930B9E838D835D
:1012500087EA91E047C0F7E0BF1246C020912F0215
:1012600030913002A8E5BBE10E941030A20191014B
:101270000E946530A092080183E08093070180E01E
:10128000288B398B4A8B5B8B8CDC288939894A897E
:101290005B89821B930B9A838983909208016092E9
:1012A000070181E0288B398B4A8B5B8B7ADC28899C
:1012B00039894A895B89821B930B9C838B8370924B
:1012C000080190E39093070182E0288B398B4A8BC9
:1012D0005B8B67DC28893989821B930B9E838D8306
:1012E00085E891E031DA03C0E1E0BE1661F0CED9C5
:1012F00089819A81A0DAA5D98B819C819CDAA1D9B8
:101300008D819E8198DA10BA11BA1092070110925D
:10131000080188EE93E0A5DCF4E0BF1611F08B30F5
:1013200028F4839423E0281508F0A5CE88EE93E0F6
:1013300098DC0F5F1F4F0830110509F098CEF1D9E6
:1013400080E07DD98CE44BD98FD911BA992493943C
:1013500090BA909208019092070180E024DC9A8371
:10136000898318E010937B0080E01EDC9C838B83D4
:1013700010927B00A981BA81AB80BC806501CA1A3A
:10138000DB0AEE24D7FCE094FE2C20E93AE10E942F
:101390001F30A70196010E946530CA01B901209350
:1013A000A7023093A8024093A9025093AA0203E037
:1013B00024EF4FEFF1DA45D988E411D955D92091BE
:1013C0002F02309130022A193B09A0E9BAE10E94AC
:1013D0001030A70196010E946530CA01B90120931F
:1013E000AB023093AC024093AD025093AE0224EFB7
:1013F0004FEFD2DA4BD980E022D923D988E4EFD855
:1014000033D991BA1092080180E0CDDB9A838983A9
:1014100010937B0080E0C8DB9C838B8310927B0061
:10142000C980DA8020912F02309130022C193D09B9
:10143000AB80BC80CA18DB08EE24D7FCE094FE2CFD
:10144000A0E9BAE10E941030A70196010E94653020
:10145000CA01B9012093AB023093AC024093AD02B4
:101460005093AE0224EF4FEF97DAEBD88CE4B7D865
:10147000FBD820E93AE1D5010E941F30A70196016F
:101480000E946530CA01B9012093A7023093A802D7
:101490004093A9025093AA0224EF4FEF7DDA5CDB60
:1014A000B2E09B2E9092470217DC3BD981E0C7D86F
:1014B0008CE495D8D9D811BA90BA84E0882E80925D
:1014C00008018092070181E06EDB9A838983109383
:1014D0007B0082E069DB9C838B8310927B00A98177
:1014E000BA81EB80FC8027014A1A5B0A662457FC0C
:1014F0006094762C20E93AE10E941F30A30192010A
:101500000E946530CA01B9012093A7023093A80256
:101510004093A9025093AA0224EF4FEF3DDA91D8ED
:1015200088E45DD8A1D820912F02309130022E1985
:101530003F09A0E9BAE10E941030A30192010E9484
:101540006530CA01B9012093AB023093AC024093DD
:10155000AD025093AE0224EF4FEF1EDA97D881E030
:101560006ED888E43CD880D891BA1092080181E006
:101570001ADB9A83898310937B0082E015DB9C83BE
:101580008B8310927B0049805A8020912F023091EA
:10159000300224193509EB80FC804E185F08662460
:1015A00057FC6094762CA0E9BAE10E941030A301A8
:1015B00092010E946530CA01B9012093AB023093B9
:1015C000AC024093AD025093AE0224EF4FEFE4D94A
:1015D00038D88CE404D848D820E93AE1D7010E94F1
:1015E0001F30A30192010E946530CA01B901209306
:1015F000A7023093A8024093A9025093AA0224EFB5
:101600004FEFCAD9A9DA9092470266DB8AD882E006
:1016100016D88CE40E94EF0227D880BA80E180932C
:1016200008018093070182E0BEDA9A8389831093D0
:101630007B0084E0B9DA9C838B8310927B00A981C4
:10164000BA81AB80BC806501CA1ADB0AEE24D7FCE4
:10165000E094FE2C20E93AE10E941F30A701960198
:101660000E946530CA01B9012093A7023093A802F5
:101670004093A9025093AA0224EF4FEF8DD90E9404
:10168000210388E40E94EF020E94340320912F027C
:10169000309130022A193B09A0E9BAE10E941030CA
:1016A000A70196010E946530CA01B9012093AB02DF
:1016B0003093AC024093AD025093AE0224EF4FEF53
:1016C0006BD90E94460382E00E941F0388E40E94B7
:1016D000EF020E94340381BA1092080182E063DABB
:1016E0009A83898310937B0084E05EDA9C838B83EA
:1016F00010927B00C980DA8020912F023091300255
:101700002C193D09AB80BC80CA18DB08EE24D7FC3D
:10171000E094FE2CA0E9BAE10E941030A7019601E6
:101720000E946530CA01B9012093AB023093AC022C
:101730004093AD025093AE0224EF4FEF2DD90E949B
:1017400021038CE40E94EF020E94340320E93AE175
:10175000D5010E941F30A70196010E946530CA0181
:10176000B9012093A7023093A8024093A902509395
:10177000AA0224EF4FEF10D9EFD990924702ACDACA
:1017800018E7ADDB81116BC00E9491038AE791E0FD
:101790000E94A403609131027091320280E090E0D7
:1017A00003E024EF4FEFF8D80E94460383E791E06F
:1017B0000E94A403609142027091430280E090E095
:1017C00024EF4FEFE9D882E08093470285DA109248
:1017D0001C020E9491038FE691E00E94A40360E046
:1017E00082E00E94111700918102109182021C87F1
:1017F0000B8761E082E00E941117C0908102D090B7
:101800008202DE86CD8660E081E00E941117E090C2
:101810008102F0908202FE82ED8262E080E00E940E
:10182000111780918102909182029C838B8362E0E8
:1018300081E00E94111780918102909182029A8723
:10184000898761E080E00E94111780918102909168
:1018500082029A838983EF85E13061F40FC00E9490
:10186000FF0389EF93E00E94A40377D9115009F098
:1018700088CF8ACF20914102223021F402969887A6
:101880008F8307C098878F83109241028CE00E945B
:101890003A03B801882777FD8095982F03E020E26E
:1018A00040E07AD8B601882777FD8095982F20E20E
:1018B00040E072D8B701882777FD8095982F26E4FD
:1018C00044EF6AD86E01FFE0CF0ED11CFE013196C5
:1018D000819191910A97853B9105F0F4EC15FD05F6
:1018E000B9F7A4E0EA2EA0E0FA2E8E010F5F1F4F99
:1018F000F80160810E5F1F4F6E5EC7010E949E312E
:10190000FFEFEF1AFF0A0C151D0591F70E94460321
:1019100087E693E00E94A40382E080934702DCD92B
:101920002F85213029F080914102823009F0EBC0EF
:10193000E0E4BE2E10E0FAE0CF2ED12CE12CF12C09
:101940000E94910380E00E941F038DE193E00E94BA
:10195000A40382E00E941F0382EF90E00E94A40390
:1019600010921C0260E082E00E94111700918B022D
:101970006091790270917A0280917B0290917C0251
:10198000073F44F4A70196010E9465300F5FB9013B
:10199000CA01F6CF00938B026093790270937A02AA
:1019A00080937B0290937C02073F09F097C0DC0193
:1019B000CB0180569109A109B10980399545A1054E
:1019C000B10508F08BC060918D0270918E02CB0141
:1019D0008B569F4F8B32914008F080C01F5F1530AF
:1019E00008F47DC08BE090E00E94AC310E9491032E
:1019F0008BEE90E00E94A40380918D0290918E0264
:101A00000E941B048AD911BA81E080BB80E28093D6
:101A1000070182E0C9D8853D9340DCF710920701A9
:101A200010922E0210922D0282E0BED88C0180917D
:101A300074029091750290932E0280932D0282E0A1
:101A4000B3D87C01EE0CFF1C10922E0210922D02D6
:101A500082E0AAD8C0907402D0907502D0922E0273
:101A6000C0922D02080F191F0E191F090E9446036C
:101A700084EE90E00E94A4038DE090E00E949131FA
:101A800073E0B72EB80E9601D8010E941F3097015F
:101A9000442737FD4095542F0E948730B20E6B2D9E
:101AA0008DE090E00E949E318B2D992787FD9095C7
:101AB0000E941B0432D982E0809347020DD9109214
:101AC00041028CE00E943A0384E090E00E94913150
:101AD000682F87E090E00E949E3115C010E00E94C0
:101AE00046036091790270917A0280917B02909115
:101AF0007C0204E026E440918B020E94CC0430D8A2
:101B0000BA9409F01DCF89E180932B020E949103C2
:101B100085EC91E00E94A4030E94460380EF93E0CD
:101B20000E94A40310921C0282E080934702D4D842
:101B300003C052E0852EDBCB6396E2E10C941D31AD
:101B40008091410281110DC084E090E00E949131AA
:101B500061E0680F87E090E00E949E3181E0809311
:101B600041020895CF92DF92FF920F931F93CF937C
:101B7000DF931F92CDB7DEB7E82FF0E0EC5FFE4FAA
:101B8000E491E1BBE0BB10920801E62FF0E0EF5FCB
:101B9000FE4FE491E093070108E813E1FE2EFF0CED
:101BA000862F69830E94D1056C01F092070169813B
:101BB0008017910710F48C01F3CF0097F1F08BEFB1
:101BC00092E00E94A403D60120EA36E841E050E00A
:101BD0000E94253028E937EB40E050E00E94653054
:101BE000CA01B9018827992702E021E447EF0E9442
:101BF000CC0410BA11BA109207010F90DF91CF9167
:101C00001F910F91FF90DF90CF900895A4E1B0E075
:101C1000ECE0FEE00C940131982E862E442EA8951F
:101C2000E62FF0E0EF5FFE4F54903396E490E42F00
:101C3000F0E0EF5FFE4F6490E82FF0E0EF5FFE4FC3
:101C4000F4903396749060920801262D25292C8BF0
:101C50002093070170BA71BA862F0E94D3059E8324
:101C60008D8350920701882D0E94D3051C0110928C
:101C700007010E94B805109208013C8930930701C2
:101C8000882D0E94D3054D815E818417950748F504
:101C9000805E9E4F4817590708F4F7C4E0BA11BA9E
:101CA000F09208018F2D86298093070160912F0201
:101CB000709130027E836D83892D0E94D305AD81A2
:101CC000BE81A81BB90BBE83AD83F09207012090A3
:101CD0002F0230903002892D0E94D305281A390A2C
:101CE00008C02D813E81205E3E4F8217930708F485
:101CF000CCC42091570280916F0290E0820F911D19
:101D000002974CF0213009F0C0C4909154028091A8
:101D10006C029813BAC4162D110FED81FE81E437C1
:101D2000F10508F4A9C0CF01880F991F4496281621
:101D3000390608F0A1C070BA71BA812F8529809345
:101D40000701882D0E94D2056C01842D0E94D405C4
:101D50005C0110930801882D0E94D2059601295A32
:101D60003D4F1F2911BAE0BA1093070110930801E3
:101D700028173907B0F5842D0E94D20588349F407A
:101D800028F084E080931C0282E204C084E0809307
:101D90001C0284E280931B02D0924D02C0924C023E
:101DA000AC14BD0440F4C6018A199B0990935302F8
:101DB0008093520204C01092530210925202960174
:101DC000A0E1B7E20E941030209116023091170274
:101DD00040E050E00E94653030934F0220934E0265
:101DE0004CC4892D0E94D2058C01842D0E94D405FB
:101DF0006C01F0920801892D0E94D205895A9D4FED
:101E00008017910708F041C471BA70BA842D0E94FE
:101E1000D205813D934028F484E080931C0282E344
:101E200004C084E080931C0284E380931B020C15A1
:101E30001D0538F4C01AD10AD0926B02C0926A0212
:101E400004C010926B0210926A0220912F0230910E
:101E50003002201B310BA0E1B7E20E94103020912C
:101E60001D0230911E0240E050E00E946530309328
:101E7000670220936602BDC111BAE0BAF092080170
:101E80000F2D062900930701892D0E94D3059887FD
:101E90008F83C0902F02D0903002842D0E94D405F1
:101EA0009A8389830A97B8F5109207010E94B805B2
:101EB000812F8F2980930701892D0E94D305988750
:101EC0008F8340912F0250913002481B590B5C8345
:101ED0004B83842D0E94D4059A83898380911D02AF
:101EE00090911E029C0140E050E060E677EB87E4B1
:101EF00090E00E946530AB81BC810E942530A981B1
:101F0000BA819D0140E050E00E94653029873A8700
:101F10004B875C8716C0F6012F813885E21BF30BD7
:101F2000FC83EB83CF0149815A81841B950BBA0155
:101F30000E943E30CB01A0E0B0E089879A87AB8752
:101F4000BC87109207011092080171BA70BA0E9402
:101F5000B80599EB291697E0390608F096C3AC89C5
:101F6000A0930701882D0E94D3058F359D4008F46A
:101F700046C1109207010E94B805EC89E093070161
:101F80000E94B805F12FF529FB8BF0930701882DEE
:101F90000E94D3056C01842D0E94D4059E878D87F5
:101FA000892D0E94D4055C012D853E85213D374059
:101FB00008F4AEC083E080931C028DE080931B0286
:101FC00036012C143D0410F462187308E0901602D8
:101FD000F090170200E010E060E677EB87E490E015
:101FE000A80197010E946530D3010E942530AD857C
:101FF000BE859D0140E050E00E94653080916F02F7
:10200000882369F08091600290916102A091620240
:10201000B091630282179307A407B50700F52093D8
:102020006002309361024093620250936302960112
:10203000A0E1B7E20E941030A80197010E9465302C
:102040003093670220936602C501ED85FE858E1BE5
:102050009F0B909365028093640221E001C020E011
:102060008091600290916102A0916202B09163023E
:1020700049855A856B857C8584179507A607B70720
:1020800038F540936002509361026093620270934E
:1020900063028F81988569817A81861B970B909363
:1020A0006502809364022B813C81A0E1B7E20E942B
:1020B000103020911D0230911E0240E050E00E943D
:1020C0006530205F384D309367022093660203C06D
:1020D000222309F4ACC39101A0E1B7E20E941030C1
:1020E000A80197010E94653030936902209368022D
:1020F0002D813E81A0E1B7E20E941030A801970136
:102100000E94653030936B0220936A0221E08FC3F6
:1021100071E62716310408F072C081EDC81687E019
:10212000D80608F46CC084E080931C0282E180939E
:102130001B02C60186509F4F8A159B0520F483E140
:1021400080931B021AC0CA14DB0498F4A0911602F3
:10215000B091170295012C193D090E94103096018B
:1021600040E050E00E9465303093650220936402A5
:1021700004C010926502109264029E2D9770E92EA1
:10218000842D806480937C007BE0F72E01E010E0DA
:10219000CC24CA94E3E0DE2EA89561E0862D54D5C8
:1021A000AB89A09307018FB18E21E9F3509207010B
:1021B00080917A00806480937A0080917A0086FD15
:1021C000FCCF8091780090917900F601E81BF90B23
:1021D0000E0F1F1FFA9401F7C801880F991F880F6F
:1021E000991F69E070E00E943E3070936B0260932B
:1021F0006A0280916F028F5F80936F0287CFFC89A4
:10220000F093070160920801882D0E94D3055C01BC
:10221000842D0E94D4059C838B8360912F02709142
:102220003002681B790B6A307105A0F51092070126
:102230000E94B805812F852980930701109308011A
:10224000882D0E94D3055C01842D0E94D4059C83B7
:102250008B8380911602909117029C0140E050E020
:1022600060E677EB87E490E00E946530D5010E943C
:10227000253020912F02309130024B815C81241B4C
:10228000350B40E050E00E94653029873A874B8744
:102290005C870CC0C501861B970B0E943E30CB01AA
:1022A000A0E0B0E089879A87AB87BC87E0BA11BA13
:1022B0000093070100930801892D0E94D305988798
:1022C0008F83842D0E94D4059A838983882D0E9450
:1022D000D4056C012F8138852034364008F0D3C1F5
:1022E000F0920801892D0E94D305AC01F0920701FC
:1022F000892D498B5A8B0E94D3059C0110920801AD
:102300008F87388B0E94B805F0920801892D0E94B2
:10231000D3052F85388949895A892034364008F0F9
:102320005EC08133914108F45AC08F8198858A56E6
:102330009F4F4817590708F052C085E080931C0250
:10234000809157028F5F8093570289819A818C19FF
:102350009D0990934D0280934C022F8038842C1855
:102360003D083092530220925202109207011092BF
:102370000801E1BA0E94B805F0920701892D0E9478
:10238000D305853F910508F060C200930701842DB5
:102390000E94D305813D934008F457C2892D0E94C5
:1023A000D4058D3D924008F450C2F0920701892D6A
:1023B0000E94D3058D3D924008F447C2F092080177
:1023C0000E94B80510920801892D0E94D305853F0F
:1023D000910508F03AC286E080931C0236C2009351
:1023E0000701009308010E94B805D12EDF28D09282
:1023F0000701D0920801892D0E94D305AC010091FC
:102400002F0210913002081B190B842D498B5A8B17
:102410000E94D4059E878D8720912F023091300233
:10242000281B390B3A832983882D0E94D40598876D
:102430008F8349895A8969817A816E3F794008F48E
:10244000B0C083E080931C028CE080931B023801B3
:102450002016310610F46218730880911D029091C5
:102460001E026C01E12CF12C60E677EB87E490E032
:10247000A70196010E946530D3010E942530A981F1
:10248000BA819D0140E050E00E9465308091570282
:10249000882369F08091480290914902A0914A02F4
:1024A000B0914B0282179307A407B50708F5209354
:1024B00048023093490240934A0250934B028D8563
:1024C0009E85EF81F8858E1B9F0B90934D02809324
:1024D0004C029801A0E1B7E20E941030A7019601DA
:1024E0000E94653030934F0220934E0221E001C0DC
:1024F00020E08091480290914902A0914A02B09157
:102500004B0249855A856B857C8584179507A607FC
:10251000B70720F5409348025093490260934A025E
:1025200070934B028B819C818A199B0990934D0279
:1025300080934C029501A0E1B7E20E9410302091F7
:1025400016023091170240E050E00E946530205F93
:10255000384D30934F0220934E0203C0222309F4DA
:1025600075C19101A0E1B7E20E94103020911602DE
:102570003091170240E050E00E94653030935102E4
:10258000209350022D813E81A0E1B7E20E941030DD
:10259000A70196010E9465303093530220935202A6
:1025A00054C161E62616310408F06DC009347DE09F
:1025B000170708F468C084E080931C0282E08093CF
:1025C0001B028F81988586509F4F8417950720F4B2
:1025D00083E080931B021CC08F8198858417950728
:1025E00098F4A0911D02B0911E029A01281B390B8C
:1025F0000E941030980140E050E00E946530309316
:102600004D0220934C0204C010924D0210924C02D5
:10261000072D0770842D806480937C001BE0AA2422
:10262000A394B12CA89560E0862D0ED3D09207011B
:10263000D09208018FB18023E9F7F09207018091D1
:102640007A00806480937A0080917A0086FDFCCFC6
:102650008091780090917900A80EB91E115011F761
:10266000C501880F991F880F991F69E070E00E94CB
:102670003E307093530260935202809157028F5FF5
:1026800080935702E2C010BA11BA1092070110925B
:10269000080110BA97EC291691E0390608F4BAC07F
:1026A00011BA18EC072D0E2900BB0E94B805E0BA3C
:1026B000892D0E94D405429710F01150A9F7452C9E
:1026C000440C3F2C330C309207013092080161E03A
:1026D000862DBAD2892D0E94D3058C014092070124
:1026E0001092080170BA71BA60E0862DADD2A09048
:1026F0002F02B0903002882D0E94D3056C015092B9
:102700000701892D0E94D3059A838983882D0E9411
:10271000D40529813A81281B390B3A83298311BAC0
:10272000E0BAF0920701F092080161E0862D8CD2A8
:10273000892D0E94D3057C01882D0E94D405E81ABA
:10274000F90A49815A814E155F0550F4309207010C
:1027500030920801892D0E94D305FA82E98217C0C0
:1027600085010C191D09409207011092080170BAE9
:1027700071BA60E0862D68D2E0902F02F0903002AE
:10278000882D0E94D305B701681B790BCB012981E5
:102790003A812759310929383141E0F529813A81B7
:1027A00082179307B8F5C80133E0969587953A9557
:1027B000E1F7893C910510F088EC90E0800F911FC3
:1027C00049815A818417950728F5CA0124E0969516
:1027D00087952A95E1F780179107E0F480911C0214
:1027E000823018F482E080931C0280911A02E82F54
:1027F000F0E0DF01A157BD4F9C9216968C92EE0F30
:10280000FF1FE556FD4F29813A81318320838F5F79
:1028100080931A02682D892D27D010BA11BA109210
:102820000701109208016496E2E10C941D31809139
:102830006F028F5F80936F02222379F340926C02C4
:1028400080926D0290926E02E8CF21E08091570253
:102850008F5F80935702222301F34092540290929B
:10286000550280925602D9CFA0E0B0E0EAE3F4E14D
:102870000C940331982E862EA895E62FF0E0EF5F9A
:10288000FE4FB49033962491E82FF0E0EF5FFE4FB7
:10289000E4903396F49030916F028091570290E06B
:1028A000830F911D892B09F0CAC1A89580912F0231
:1028B00090913002880F991F880F991F90933002D2
:1028C00080932F0280912D0290912E02880F991FE4
:1028D000880F991F90932E0280932D028EEB809388
:1028E0002B0211BA20BBE0920701E092080158E1E7
:1028F000D52EC0E0D0E0882D0E94D305582E492E59
:10290000892D0E94D4058C018C1B9D0B97FF03C061
:1029100091958195910903972CF0A895DA94F1F19E
:10292000E801E9CFEE0C10920801E0920701892D31
:102930000E94D3058135910588F5E0920801892D23
:102940000E94D305EC01F0BAF1BA10920801B092DE
:10295000070188E1A82EC12CD12C892D0E94D30516
:10296000782E692E882D0E94D4057C018C199D0932
:1029700097FF03C091958195910903973CF5BB0C96
:10298000B0920701882D0E94D3055C01003C94E4BD
:10299000190708F5C53881E0D80708F180912F02A2
:1029A00090913002969587959695879590933002F1
:1029B00080932F02809174029091750290932E0261
:1029C00080932D0289E180932B0239C1A895AA94A6
:1029D00029F36701C2CFC03B9DE4D907F8F6C09048
:1029E0002F02D090300284EAE81682E0F80608F060
:1029F0005FC098E9A916B10488F29E01A8E9B7EB77
:102A00000E94103096012C1B3D0B40E050E00E94CC
:102A1000653029013A0196012A193B09A8E9B7EB6B
:102A20000E941030850120E030E0A90198010E9449
:102A30006530C837DF4070F4C301B201B2E0660F01
:102A4000771F881F991FBA95D1F7620F731F841FD4
:102A5000951F12C098E7A9169FE0B906A0F4CA0115
:102A6000B901A2E0660F771F881F991FAA95D1F7B9
:102A7000640D751D861D971D25E030E040E050E097
:102A80000E94653008C0240D351D461D571D569502
:102A9000479537952795A4E6B0E00E9425306B0155
:102AA0007C018CEAC80E8DE0D81EE11CF11C70C0C0
:102AB000252D342D0217130708F49801C72DD62DA4
:102AC000CE15DF0508F4E70159012017310708F496
:102AD0005801A0911D02B0911E02C501821B930BEB
:102AE0009C010E94103096012A193B0940E050E0F9
:102AF0000E94653029013A018E01EC16FD0608F4AA
:102B00008701A0911602B09117029E01201B310B84
:102B10000E9410306801E12CF12CA70196010E945F
:102B2000653098E7A9169FE0B90670F4C301B201B9
:102B3000E2E0660F771F881F991FEA95D1F7620FB1
:102B4000731F841F951F11C008378FE01807B0F45A
:102B5000CA01B90152E0660F771F881F991F5A9565
:102B6000D1F7640D751D861D971D25E030E040E00E
:102B700050E00E94653069017A010AC069017A015A
:102B8000C40CD51CE61CF71CF694E794D794C794A4
:102B900010911C02133008F001CF9A94980C892DE3
:102BA00090E0EC01C65ADD4F2881880F991F880FED
:102BB000991FFC01E955FD4F2223D1F1408051803E
:102BC00062807380A70196012419350946095709C7
:102BD00057FF07C050954095309521953F4F4F4F77
:102BE0005F4FAAE0B0E00E942530A30192012C596A
:102BF0003F4F4F4F5F4F2C0D3D1D4E1D5F1D0E94DF
:102C00006530232B242B252B09F0C8CE123019F068
:102C100081E080931C0282E0888380917602E82F15
:102C2000F0E0E35AFD4F90828F5F80937602B6CE3C
:102C3000C082D182E282F38281E08883AFCECDB7B9
:102C4000DEB7E0E10C941F31CF93C82FC09590916F
:102C5000080160FF02C0982B01C09C2390930801DB
:102C600090910701982B909307010E94B7058091DE
:102C700007018C2380930701809108018C238093A6
:102C80000801CF910895A0E0B0E0E9E4F6E10C94EA
:102C90000A318AE0D82E9FE3B92E28E0C22E10BA5E
:102CA00011BA10920801B092070180E00E94D3058A
:102CB0008C0181E00E94D405EC0182E00E94D405E1
:102CC00020911C02283081F410BA10920701109351
:102CD000050200930402D0930702C093060290936A
:102CE00009028093080258C031E0C430D10508F0D1
:102CF00030E021E00430110508F020E0232319F032
:102D00008430910508F321E0083E134008F020E0EC
:102D1000C83ED34008F42260883E934008F4246003
:102D200020BBC0E0D0E0A89580E00E94D1057C01E6
:102D300081E00E94D4058C0182E00E94D40524E148
:102D4000E21625E0F20608F4809A043135E0130714
:102D500008F4819A843125E0920708F4829A36E0DB
:102D6000E316F10428F40630110510F4069738F044
:102D70002196C43F81E0D807B1F6C0921C0200E062
:102D800010E00C171D0729F00E94BC050F5F1F4FB4
:102D9000F8CFDA9409F083CFCDB7DEB7E9E00C9431
:102DA0002631CF92DF92EF92FF92CF93209179025A
:102DB00030917A0240917B0250917C02C0918B024B
:102DC0008AE0C82ED12CE12CF12C8C2FCF5F213A38
:102DD00096E8390791E04907510538F0CA01B90171
:102DE000A70196010E946530F0CF80938B02A091DD
:102DF0002F02B09130020E94253028E833E140E0F4
:102E000050E00E9465302093790230937A0240931B
:102E10007B0250937C02CF91FF90EF90DF90CF9098
:102E20000895A0E0B0E0E7E1F7E10C940731C82F86
:102E3000D62F8FEF860F9C2F990F9C0F890F8093B1
:102E40005902EC2FF0E0EF5FFE4F1491862F90E0D7
:102E5000FC01EF5FFE4FF490FC01EC5FFE4F04912C
:102E600080911C02813009F467C240911A0225E961
:102E700032E06BE972E0D9018A2F821B841798F443
:102E80008D918D130DC0CD010797FC0180818C13AE
:102E900007C0FB01808191818C3D954008F44CC2B4
:102EA0006E5F7F4FE9CF10928602109285021092DA
:102EB000790210927A0210927B0210927C02109298
:102EC0008B02E1DE11BA00BBF0920701F09208011B
:102ED0008C2F0E94D4054C018D2F0E94D405881A96
:102EE000990A10920701E12CF12C1093080110931C
:102EF00007010E94B70510920701109208010E9475
:102F0000BD05A8958C2F0E94D4055C01A818B908AE
:102F10005EE7E516F10428F08BE4A816B1040CF482
:102F200097C19DE2A91691E0B9064CF4EFEFEE1AB5
:102F3000FE0AF4EFEF16F1E0FF06B9F689C167016A
:102F4000E114F10409F08BC155E1A51655E0B50671
:102F50000CF485C198DE1092080187E080BB11BA9D
:102F6000F12EFF0CF092070180E480937B0084E552
:102F700080BF8C2F806480937C0087E180937A00EF
:102F80000E94C0051092800010928500109284006B
:102F900087E286BBF092080180911C02843071F4B4
:102FA00081E08093810081E090E00C2E01C0880FC9
:102FB0000A94EAF78095877080BB04C081E0809313
:102FC000810000BB81E026B325FD0CC020FFFBCFB4
:102FD00086BBA8959FEFC91AD90AE0E8CE16ECE0A7
:102FE000DE0689F71092810080E286BBE0908600C1
:102FF000F09087008091840090918500E816F90692
:1030000038F420FF05C081E086BBFFEFCF1ADF0A4E
:1030100087E980937A0010920701109208018C2FA3
:103020000E94D4052091330230913402821B930B0D
:103030000C9690938E0280938D0250E4C51656E054
:10304000D50608F005C1D0928402C0928302F092A6
:103050008202E092810284EF80938B0282E4C816A0
:10306000D104C8F060918102709182028091830244
:103070009091840224E630E040E050E00E94653008
:103080002093810230938202409383025093840202
:1030900086EF80938B02A0917702B0917802209105
:1030A00081023091820240918302509184020E94F9
:1030B000253020E436E040E050E00E946530209367
:1030C00081023093820240938302509384022093C2
:1030D000790230937A0240937B0250937C0261DE46
:1030E00080918B02843F09F060C0C0907902D0903B
:1030F0007A02E0907B02F0907C0290EAC9169FE091
:10310000D906E104F104C0F4A70196012C543F4F05
:103110004F4F5F4F60EA7FE080E090E00E946530B3
:103120002C0D3D1D4E1D5F1D2093790230937A02B8
:1031300040937B0250937C028091590290E08C5F17
:103140009F4F0E949131C0907902D0907A02E09016
:103150007B02F0907C02482F50E060E070E04C155C
:103160005D056E057F0568F4C41AD50AE60AF70AFC
:10317000C0927902D0927A02E0927B02F0927C02B5
:1031800014C0E4E1CE0ED11CE11CF11CC416D5061E
:10319000E606F70610F40E94A00D10927902109234
:1031A0007A0210927B0210927C02109307018091A8
:1031B000790290917A02A0917B02B0917C024997AA
:1031C000A105B10508F444C0C12CD12C80911A028C
:1031D000882321F080911C028430D1F587E0809310
:1031E0001C0220918B0280918C028217BCF0281364
:1031F0002FC04091790250917A0260917B027091C8
:103200007C0280917D0290917E02A0917F02B0911C
:10321000800284179507A607B707D0F4809179023A
:1032200090917A02A0917B02B0917C0280937D0202
:1032300090937E02A0937F02B093800220938C0231
:10324000D0928802C0928702D0938902C0938A02EA
:1032500010BA11BA10920701109208016DC000E077
:1032600010E00E94B8058C2F0E94D405A8950F5F2E
:103270001F4FE016F106A8F7881999098501081B68
:10328000190B101611068CF4093C11050CF728EEE9
:1032900033E0D8010E941F309501442737FD409547
:1032A000542F0E946530690102C0C12CD12C8FEFD0
:1032B000E81AF80AC701A0E0B0E080938102909379
:1032C0008202A0938302B0938402C501800F911FF4
:1032D00038D09C01D7010E94103060938102709316
:1032E00082028093830290938402609379027093A8
:1032F0007A0280937B0290937C0287EF80938B020B
:1033000050DD2091790230917A0240917B025091F8
:103310007C02A8EEB3E00E94253024E630E040E0D5
:1033200050E00E9465302093790230937A024093F6
:103330007B0250937C024ACFCDB7DEB7ECE00C9411
:1033400023310F9221E08C32920710F48CE291E04D
:103350008C52914069E170E00E943E3099E16B32FD
:1033600010F0982F6BE2981BEBEEF4E0E60FF11DE6
:10337000E60FF11D4591559125913591692F421B1D
:10338000530B649FC001659F900D11240C9669E159
:1033900070E00E943E30620F731FCB010F900895C2
:1033A000A0E0B0E0E6EDF9E10C94073188E893E1A4
:1033B0009093300280932F028EEB80932B0211BAF0
:1033C00080E180BB0E94C50510BA84E00E94D3054D
:1033D000AC018B5C9840833F9140A0F481E08093E6
:1033E000440220912F0230913002AFEBB9E00E94ED
:1033F00010309A0140E050E00E9465303093300276
:1034000020932F028EE10E94D4058EE10E94D30505
:1034100090933402809333020E948D06C1E0C0BBBA
:10342000C0930801C093070180E00E94D3057C018E
:1034300012E010BB84E0982E909208019092070150
:1034400081E00E94D305E80EF91E90BA90E1892E22
:10345000809208018092070182E00E94D305E80E65
:10346000F91E10920801C1BBC0BBC0930701C091F7
:103470002F02D091300280E00E94D3055C0111BB85
:1034800010BB9092070100912F021091300281E051
:103490000E94D3056C0191BA90BA80920701809086
:1034A0002F029090300282E00E94D305C00FD11FFE
:1034B000C80DD91DCA19DB09CC19DD09C81BD90BE8
:1034C00080912F02909130024C01880C991C880E3B
:1034D000991E8E189F088C1A9D0AA12CB12C970159
:1034E000A0E9BAE10E941030A50194010E94653064
:1034F00069017A0130934302209342029E01A0E9C0
:10350000BAE10E941030A50194010E946530309309
:103510003202209331022057354E30931E02209301
:103520001D0280E7C81A85EED80AD0921702C09211
:10353000160289E180932B02CDB7DEB7ECE00C9444
:103540002331A3E1B0E0E7EAFAE10C9401311092F3
:10355000010280911C02813009F020C28091760224
:10356000813009F01BC220905D0224E0229EF00110
:103570001124E955FD4F80819181A281B381893069
:1035800032E59307A105B10508F008C29B8B8A8B31
:10359000312C61E0822D631528F00E945404B82E6E
:1035A000A92E03C00E9454045C01EA2DF0E0EC5FF8
:1035B000FE4F74908B2D90E0FC01EF5FFE4FE49185
:1035C0001092080111BA2A893B89203F3105A0F4E5
:1035D00030FC12C0009116021091170200591A41D6
:1035E00021E030E00B2C02C0220F331F0A94E2F7D7
:1035F000C901872980BB07C0E093070170BA009119
:1036000016021091170244E1642E8B2D0E94D20500
:103610004C018A2D0E94D40534E08316910410F4E5
:10362000049710F06A9489F760E460937B0084E566
:1036300080BF8B2D806480937C0097E190937A000B
:10364000E12CF12C109280001092850010928400E1
:1036500087E286BB0E94C005232D2170298B30FC98
:1036600005C081E88093810071BA08C071BA0E94D8
:10367000C90580E286BB81E88093810046B345FF9F
:1036800012C011BA1092810080E286BB8091860040
:10369000909187006C012091840030918500821701
:1036A000930768F013C040FFE9CF31E036BBA8951F
:1036B000C70101967C01803A910501F7E2CF40FFF6
:1036C00005C061E066BB8FEFE81AF80A87E98093CE
:1036D0007A0034E1732E8B2D0E94D2054C018A2D85
:1036E0000E94D40524E08216910410F4049710F08F
:1036F0007A9489F780904202909043028A899B894C
:10370000880E991E800E911E209118023091190288
:1037100000399AE11907B0F461EEC616D104E1044C
:10372000F10438F4C60165E070E00E943E30645157
:1037300001C069E128523109261B310967FD339523
:1037400086E009C0C40168E57BE10E943E3087E065
:10375000860F285D3F4F90E0A0E0B0E08C159D05FE
:10376000AE05BF0528F4C81AD90AEA0AFB0A03C045
:10377000C12CD12C76018989882329F09AE3C90EBE
:10378000D11CE11CF11C60EAE616F10418F0C12C12
:10379000D12C76018BE0C816D104E104F10428F0A5
:1037A00091E0C91AD108E108F10840912F02509127
:1037B0003002A12CB12CA8EEB3E00E9410302B01F6
:1037C0003C019801DA010E941030A50194010E9489
:1037D000653044275527C301B2010E946530C901F5
:1037E0000E94E506FC01A5019401C701B6010E94F3
:1037F0002F304B015C01BF0180E090E024E0660FB8
:10380000771F881F991F2A95D1F76B5F7F4F8F4FC6
:103810009F4F2AE030E040E050E00E9465304427AE
:103820005527C501B4010E946530832D90E0E1E089
:10383000F0E0EC0FFD1F64E0369EE00DF11D112459
:1038400020833183428353836989611117C064E106
:10385000C616D104E104F10488F0FC013196EE0FA4
:10386000FF1FEE0FFF1F81E090E08C0F9D1FE80F00
:10387000F91F20833183428353833394A895339473
:1038800093E0931508F085CE11BA0E94B60521E0A9
:103890004D815E816F81788589819A81AB81BC8100
:1038A00084179507A607B70708F020E04D855E85C9
:1038B0006F85788989859A85AB85BC85841795073E
:1038C000A607B70710F032E001C033E0E22FF0E0C6
:1038D000EE0FFF1FEE0FFF1F81E090E08C0F9D1F8A
:1038E000E80FF91FDC0194E0399FA00DB11D1124F0
:1038F0004D915D916D917C9180819181A281B38187
:10390000481759076A077B0708F0322FE1E0F0E01B
:10391000EC0FFD1F24E0329FE00DF11D112480818A
:103920009181A281B38180930A0290930B02A093AC
:103930000C02B0930D0230FD09C02A893B89203F5B
:10394000310520F48BEF8093010217C02CEF2093F8
:103950000102BC01CD016B5F7F4F8F4F9F4F2AE06B
:1039600030E040E050E00E94653020930A0230933E
:103970000B0240930C0250930D0280910A02909129
:103980000B02A0910C02B0910D02892B8A2B8B2B7C
:1039900011F41092010210BA109207016396E2E14D
:1039A0000C941D312F923F924F925F926F927F92B3
:1039B0008F929F92AF92BF92CF92DF92EF92FF923F
:1039C0000F931F93DF93CF93CDB7DEB76E970FB6EC
:1039D000F894DEBF0FBECDBF662EB82E860F89834A
:1039E00020911C02273041F520917D0230917E020A
:1039F00040917F025091800210918C0209C0CA014F
:103A0000B9012AE0312D412D512D0E9465301F5FF3
:103A1000173FACF32A3560E036074105510518F42D
:103A20008FEF9FEF9EC1173F39F480E028178DE795
:103A300038074105410510F020E03DE72D8B3E8B16
:103A400027EDA22E02C095EDA92EE4E0F1E0E60DEF
:103A5000F11D859180608F87E4E0F1E0EB0DF11DB1
:103A600085918060888BE1E0F1E0E60DF11D7590B5
:103A7000E1E0F1E0EB0DF11DC59090E8692AB92A6B
:103A800081E0E82EF12C012D112D8F8318861986E7
:103A90001A861B861C861D861E86198E1A8E1C8E03
:103AA0001B8EF1D880E081BB60927C000E94B7053C
:103AB000388930BB70920801709207010E94C805D6
:103AC0001092070110920801DD24B5ED9B2EA7EDA1
:103AD0008A2E3F8530BB7092080170920701609278
:103AE0007C00A895A0927A0080917A0086FDFCCF98
:103AF000A0927A0080917A0086FDFCCF2090780019
:103B000030907900B0927C00A0927A0080917A0087
:103B100086FDFCCF80927A000E94C6050E94C705F0
:103B2000C0920801C09207010E94C7050E94CA0501
:103B30008F938F918F938F91A895A89510920701DD
:103B40001092080180917A0086FDFCCF20917800C8
:103B500030917900298B3A8B388930BBC0920801AB
:103B6000C0920701A895B0927C00A0927A00809143
:103B70007A0086FDFCCFA0927A0080917A0086FDC3
:103B8000FCCF609178007091790060927C00A092E7
:103B90007A0080917A0086FDFCCF80927A000E94A4
:103BA000C6050E94C70570920801709207010E9425
:103BB000C7050E94CA058F938F918F938F91A89507
:103BC000A895109207011092080180917A0086FD55
:103BD000FCCF409178005091790010920701CB0101
:103BE000820D931DE80EF91E011D111DEB82FC8252
:103BF0000D831E8389899A89840F951F2F813885AB
:103C000069857A85280F391F611D711D2F833887BB
:103C100069877A8722E32417150670F070920801ED
:103C2000709207010E94CB051092070110920801C3
:103C3000898D8395898F07C0483E73E0570718F038
:103C40008B8D83958B8F89899A892817190680F027
:103C50003F8530BBC0920801C09207010E94CB058E
:103C600010920701109208018A8D83958A8F07C0F0
:103C7000883E73E0970718F08C8D83958C8FD394D2
:103C80005D2D5F3F09F025CF4090420250904302E6
:103C9000440C551C9201E4E0240D351DEA95E1F732
:103CA0002901570168016F80788489849A84209162
:103CB0001C022730C1F46D897E89812D912D6853B6
:103CC0007040804090409B01AC010E942F309B01CE
:103CD000AC016FEF71EC8EE390E00E946530621AE8
:103CE000730A840A950AA614B704C804D90428F4F0
:103CF0006A187B088C089D0803C06624772443015A
:103D0000B20180E090E09301A4010E942F30950160
:103D1000A6010E94653080E090E07981870F911DB7
:103D20000E94913190E0682EC90160E170E00E942C
:103D30003E30260F371FC9016816190618F4861978
:103D400091090FC08C5E9F4F8615910540F48D89B7
:103D50009E89843981E1980710F00E94A00D812D81
:103D6000912D6E960FB6F894DEBF0FBECDBFCF91EA
:103D7000DF911F910F91FF90EF90DF90CF90BF9058
:103D8000AF909F908F907F906F905F904F903F90FB
:103D90002F900895A0E0B0E0E0EDFEE10C94073133
:103DA0008091870290918802892B09F0A2C0E0914E
:103DB0008902F0E0EC5FFE4FC491E0918A02F0E0EE
:103DC000EF5FFE4F14910E94431611BA1092080142
:103DD000C0BB1093070180918A020E94D405EC01B8
:103DE00000918C02083F0CF084C0045FC0907D02FB
:103DF000D0907E02E0907F02F09080028AE0882ED0
:103E0000912CA12CB12C043070F4C701B6016B5F6A
:103E10007F4F8F4F9F4FA50194010E9465300F5F28
:103E200069017A01F0CFD701C6010197A109B10953
:103E300088389341A105B10508F05BC010930801D3
:103E400010930701A12CB12CAC14BD0430F40E94D6
:103E5000C70582E0A80EB11CF7CF1092070110929F
:103E60000801A89585E080932B0280918A020E9428
:103E7000D405C817D90720F45C01AC1ABD0A02C0EA
:103E8000A12CB12C812C912C8C149D0430F40E9417
:103E9000C7052FEF821A920AF7CF80918A020E94FB
:103EA000D40529E120932B02A895C817D90718F447
:103EB0008C1B9D0B02C080E090E08A159B0588F466
:103EC0009501281B390B69F0A4EFB1E00E94103076
:103ED000950140E050E00E946530309388022093C5
:103EE00087020E94431610BA11BA1092070110926D
:103EF0000801CDB7DEB7ECE00C942331A5E0B0E0CB
:103F0000E4E8FFE10C94013180ED93E093D520EFDC
:103F10002A836E980E94BC05109290001092950022
:103F2000109294001092100210921102109212023C
:103F30001092130231E038BB309371001092800070
:103F400085E294EF9093890080938800E1E0F0E0AF
:103F5000F0938B00E0938A00109285001092840009
:103F600083B5816083BDF6E0F6BBF0936F00789473
:103F700024E02093810012E319820E94B605A895DF
:103F8000079902C031E039838091910081112AC0E4
:103F9000109291008091940090919500909311025D
:103FA000809310020E94910386E60E94EF020E9415
:103FB000340360911002709111028091120290916D
:103FC000130207E028E440E00E94CC048AE70E9444
:103FD000EF026E9880918100882339F08FE30E9470
:103FE000EF0203C0115049F6D3CF10928100109216
:103FF0006F002091100230911102409112025091F5
:104000001302DA01C9010197A109B109893D91465D
:10401000A105B10508F021C1AAE0B0E00E94253059
:10402000605F7F4F8F4F9F4F24E0969587957795E0
:1040300067952A95D1F7660F771F70937102609389
:1040400070026E980E94BC05109295001092940028
:10405000109210021092110210921202109213028A
:1040600081E088BB809371001092730210927202FB
:1040700090E190936A00E69AEE9A7894EE9A1D8207
:104080000E94B605A895079902C0E1E0E983EE9B7E
:1040900005C0FD81FF5FFD83FA3F91F7109291000B
:1040A000EE988091940090919500909311028093E6
:1040B00010020E94460384E50E94EF020E9434032E
:1040C0008091100290911102A0911202B0911302FE
:1040D00020917002309171023C832B831C012D01D1
:1040E0009C01A20160E070E080E090E003E00E94AB
:1040F000383151016201E12CF12C00E010E00E9406
:10410000513159016A017B01E82F192F03E00E9408
:1041100038310E2F0E94513103E00E943831510195
:104120006201E12CF12C00E010E00E94513102E02C
:104130000E94383100E00E94513101E00E94383184
:1041400000E00E94513102E00E943831EB81FC8195
:104150005F01C12CD12C00E00E949D3039014A0141
:104160001B012C012B813C812038310530F007E008
:1041700023E745EFB301C40116C084E6A82EB12C95
:10418000C12CD12CE12CF12C00E010E09301C201F4
:104190000E949D30E22FF42F07E023E747EF6E2FB8
:1041A000732F8F2F952F0E94CC043D813A3F21F42D
:1041B0008FE30E94EF0251C09301A401B101C2013B
:1041C0002C393E4C4340510561057105810591052F
:1041D00009F008F442C00E948C0386E60E94EF02B8
:1041E0000E9434039301A401B101C201530164018F
:1041F0007101820121153A4C4A495B436105710501
:104200008105910589F080F020E030E04AE85DE525
:1042100068E775E483E691E00E949D30E22FF42F79
:1042200007E028E44AEF0FC020E030E846EC54EA0B
:104230006EE77DE883E090E00E949D30E22FF42F4E
:1042400007E028E44CEF6E2F732F8F2F952F0E94DD
:10425000CC048AE70E94EF026E9810926E0080ED07
:1042600097E00E9431062981820F29F43A8131506A
:104270003A8331114ECE2596E2E10C941D311F9206
:104280000F920FB60F9211240BB60F928F939F933C
:10429000EF93FF937894E2E1F2E0808191810196BF
:1042A00091838083FF91EF919F918F910F900BBE2F
:1042B0000F900FBE0F901F9018951F920F920FB680
:1042C0000F9211248F9386E0809391008F910F902D
:1042D0000FBE0F901F9018951F920F920FB60F925E
:1042E0001124A89510928100109291000F900FBE9A
:1042F0000F901F9018951F920F920FB60F921124D6
:104300002F933F938F939F938091720290917302AA
:10431000892B19F481E080939100209172023091F1
:10432000730280917002909171022817390718F07A
:1043300010929100EE988091720290917302019612
:1043400090937302809372029F918F913F912F916E
:104350000F900FBE0F901F9018958B3008F08B5068
:10436000811103C08AED93E031C0813019F480EDF2
:1043700093E02CC0823019F487EA93E027C08330A1
:1043800019F48CE993E022C0843019F487E591E0B8
:104390001DC0853019F48CE491E018C0863019F402
:1043A00080E491E013C0873019F48DE893E00EC0EB
:1043B000883019F48EE793E009C0893019F48EEB48
:1043C00093E004C08A3021F483EB93E00C94A403BF
:1043D00008950F93CF9387E591E02CD3C0E010921E
:1043E0001C0260E082E041D380911C028730C1F55D
:1043F0000E94FC0383E40E94EF020E943403609158
:104400007D0270917E0280917F029091800203E094
:1044100026E440918C020E94CC0460918902809134
:104420008A02C0DA90938602809385020E94FF037D
:104430008DE093E00E94A403609185027091860252
:104440006A3F8FEF780740F480E090E002E024EFCD
:104450004EEF0E94CC040CC08FE30E94EF0208C014
:104460000E94FC0387E591E00E94A4030E94FF03E1
:1044700088EE93E00E943106811109C080913502D7
:10448000813009F4C0E0CF5FCA3F08F4A8CFCF91D4
:104490000F91089508950F93843108F0845183316A
:1044A00089F489E08093810083E090E09093890013
:1044B0008093880007E028E44DEF60E074E985E32D
:1044C00097E748C1823189F489E08093810087E0D1
:1044D00090E0909389008093880007E028E44DEFF6
:1044E00060E07AEC8AE99BE335C1813169F489E0C7
:1044F000809381008FE090E0909389008093880002
:1045000007E028E44DEF6CC0803169F489E08093C6
:1045100081008FE190E0909389008093880007E00C
:1045200028E44DEF6FC08F3089F489E080938100DB
:1045300083E390E0909389008093880007E028E46B
:104540004DEF6AE871E88BE299E004C18E3069F4BE
:1045500089E0809381008FE490E0909389008093BC
:10456000880007E028E44DEF60C08D3069F489E0F1
:10457000809381008FE990E0909389008093880078
:1045800007E028E44CEF2CC08C3069F489E080937C
:1045900081008FE391E0909389008093880007E089
:1045A00028E44CEF2FC08B3069F489E080938100C0
:1045B0008FE193E0909389008093880007E028E4DE
:1045C0004CEF33C08A3089F489E0809381008FE317
:1045D00096E0909389008093880007E028E44BEFF1
:1045E00060E075E68DEC9DE1B5C0893081F4809383
:1045F00081008FE79CE0909389008093880007E01A
:1046000028E44BEF60E872EB86EE9EE0A3C08830B2
:1046100089F489E0809381008FE39FE19093890082
:104620008093880007E028E44BEF60E071EE85EFAF
:1046300095E090C0873089F489E0809381008AE812
:1046400096E4909389008093880007E028E44BEF7C
:1046500069EE73EF83EA92E07DC0863089F489E0E9
:104660008093810083EB96E4909389008093880087
:1046700007E028E44BEF6FEE7BE682EA92E06AC047
:10468000853089F489E08093810085E097E49093F8
:1046900089008093880007E028E44BEF68E471E626
:1046A0008FE992E057C0843089F489E080938100DB
:1046B0008FEF9CE7909389008093880007E028E4BF
:1046C0004BEF60E478E78DE791E044C0833069F414
:1046D0008BE08093810081EE94E090938900809339
:1046E000880007E028E44AEFA0CF823071F483EC21
:1046F00099E0909389008093880007E028E44AEFCE
:1047000060E870EF8AEF92E025C0813089F48BE099
:104710008093810083ED90E39093890080938800DB
:1047200007E028E44AEF60E876E988E990E012C003
:10473000811112C08CE08093810081E19AE790930F
:1047400089008093880007E028E44AEF60E472E47F
:104750008FE090E00E94CC048AE70E94EF020F9164
:104760000895DF92EF92FF920F931F93CF93DF9301
:1047700087EA93E05FD180E18093800010926F0020
:1047800081E090E0909389008093880010928B00E4
:1047900010928A0083E086BB1092820088E08093AA
:1047A00081001092080181E18093070111BA81E034
:1047B00080BB269A89E08093810000E020E0D12C24
:1047C00012E1CEE1D0E0802F90E00A96BE010E9477
:1047D0005230F62E621771F00E94FC0387EA93E0D4
:1047E0000E94A403E12CEF1430F48EE20E94EF0249
:1047F000E394F9CFF22ED11641F0143108F01451A0
:104800000E94FF03812F47DED12E88EE93E00E94A5
:104810003106882331F0853118F01F5F803558F458
:1048200000E080913502813009F400E00F5F003F25
:1048300010F42F2DC8CF109281001092800010BA72
:10484000109207012698CDB7DEB7E7E00C94283127
:10485000A4E0B0E0EEE2F4E20C9405318CE993E0E0
:10486000E9D083E28093800010926F0081E090E0B5
:1048700090938900809388008FEF90E090938B0055
:1048800080938A0083E086BB109282001092080118
:1048900081E18093070111BA81E080BB269A89E00B
:1048A00080938100612C00E08AE0782E10E094E68D
:1048B000C92ED12CE12CF12C88248A9423E0922E4D
:1048C000A12CB12C7016C9F183E6871510F4ECE920
:1048D0007E0E272D30E0AFEFB3E00E9410306E5C0B
:1048E0007F4F8F4F9F4FA70196010E9465303093F5
:1048F0008B0020938A0029833A834B835C830E9438
:10490000FF03A8EEB3E029813A814B815C810E94CC
:10491000253061507E4F8F4F9F4FA50194010E941B
:104920006530CA01B90105E025E24FEF0E94CC04D1
:10493000193210F00E94AF05072D80E496E00E9426
:104940003106182F833898F4833318F0FAE07F0E7D
:1049500003C0882311F07394612C8091350281305B
:1049600009F4612C63948FEE861508F0ABCF10BA72
:1049700010928100109280001092070126982496D0
:10498000EEE00C942131CF93DF93D0E0C0E085EED0
:1049900093E050D00E94FF038C2FDFDC80E49FE186
:1049A0000E9431068111D0E090913502913009F4D6
:1049B000D0E0823390F1CC2309F439C0C13019F42E
:1049C00080E09CDA2CC0C23011F4CBDE28C0C330AA
:1049D00011F43EDF24C0C43011F4FBDC20C0C5302C
:1049E00011F47ED31CC0C63011F4E5D318C0C73013
:1049F00011F44ED114C0C83021F481E10E947E0729
:104A00000EC0C93011F49AD20AC0CA3041F41698C7
:104A100080E090E00E94310602C08111CF5FDF5F2D
:104A2000DE3628F4CB3008F4B2CFCB50B0CFDF91D4
:104A3000CF910895A2E0B0E0E0E2F5E20C941031ED
:104A400089839A830E94910389819A810E94A40399
:104A500014E60E94B705079902C01150D1F70E94D1
:104A600046032296E3E00C942C31A0E0B0E0EBE3A7
:104A7000F5E20C940631C82FD62F8FEF860F9C2FAE
:104A8000990F9C0F890F80935902862F90E0FC01AB
:104A9000EC5FFE4F0491EC2FF0E0EF5FFE4F94903F
:104AA000FC01EF5FFE4F1491109286021092850276
:104AB0001092790210927A0210927B0210927C027C
:104AC00087EF80938B020E94431611BA00BB1093AC
:104AD0000701109308018C2F0E94D4057C018D2FB3
:104AE0000E94D405E81AF90A1092070100E010E0CC
:104AF00020E030E09CE2C92EDD24D3944AE0842EED
:104B000054E6752E909208010115110571F05601B9
:104B1000A21AB30A829EC001839E900D1124B8018F
:104B20000E943E30A616B70648F4909207010E94F4
:104B3000C005109207010F5F1F4F1FC00B301105FA
:104B4000A0F0729EC001739E900D1124B8010E94C6
:104B50003E306A157B0548F4909207010E94B60525
:104B6000109207010C591F4F08C0909207010E9434
:104B7000BB0510920701065F1F4F109208010E94AB
:104B8000C205A8958C2F0E94D4059C012E193F09BF
:104B90000B3186E0180720F0253231050CF46DC08A
:104BA0002D3281E0380724F00130110539F00BC0B7
:104BB000043D80E3180708F4A5CF5FC0253185E0E8
:104BC00038070CF05AC0000F111FA80160E070E018
:104BD0004093810250938202609383027093840217
:104BE000C90168E270E00E945230C901860F971F28
:104BF0000E94A1199C01D8010E941030609381028B
:104C0000709382028093830290938402609379026E
:104C100070937A0280937B0290937C020E94D1165B
:104C20006091790270917A0280917B0290917C026E
:104C30002AE030E040E050E00E94653020937902A5
:104C400030937A0240937B0250937C0287E08093FA
:104C50001C0220937D0230937E0240937F0250938A
:104C6000800280918B0280938C02109288021092B5
:104C70008702D0938902C0938A0210BA11BA1092A7
:104C8000070110920801CDB7DEB7EDE00C94223198
:104C9000A8E1B0E0EEE4F6E20C9408318DE893E090
:104CA000C9DE0E94460387E893E00E94A403DE0168
:104CB0005196CE010996AE014F5F5F4F9E01275E70
:104CC0003F4FF42EE52E1D921D92FC011192119280
:104CD000CF01FA0111921192AF01A217B30799F710
:104CE00085E1809308018093070100E010E0912C9A
:104CF000DD24D39444E0C42E52E0B52E11BAD0BACC
:104D00000E94CA058FB181FBAA24A0F882FF02C0CD
:104D1000A394A3940115110589F0A91469F0EF2D4E
:104D2000FE2DEA0DF11DEA0DF11D8085918501969C
:104D300091878087A92C02C034E0A32EB0BA0E94CC
:104D4000CA059FB1892F817092FD8E5FF4E0AF128A
:104D50000BC0EF2DFE2DE80FF11DE80FF11D80892E
:104D600091890196918B808BC0BA0E94CA059FB130
:104D7000892F817091FD8E5F94E0A9120BC0EF2DF9
:104D8000FE2DE80FF11DE80FF11D80819181019644
:104D900091838083A8950E94BC05079906C0109254
:104DA00008011092070110BAC5C049895A894531D6
:104DB000510508F16B897C8965317105E0F02D8919
:104DC0003E8925313105B8F08F89988D853191055F
:104DD00090F0260F371F11E02417350708F010E078
:104DE000FF24F3942817390708F0F12CCC24C3943E
:104DF00022E0E22E4CC049855A854531510510F11B
:104E00006B857C8565317105E8F02D853E85253102
:104E10003105C0F08F8598898531910598F0260F6E
:104E2000371F11E02417350708F010E0FF24F39432
:104E30002817390708F0F12CC12C92E0E92EDD2467
:104E4000D39430C049815A814531510510F16B81AD
:104E50007C8165317105E8F02D813E812531310578
:104E6000C0F08F8198858531910598F0260F371F06
:104E700011E02417350708F010E0FF24F3942817F9
:104E8000390708F0F12C82E0C82EEE24E394D12CEF
:104E900009C00F5F1F4F0931E6EF1E0709F44AC032
:104EA0009A2C2CCF0E94FF0300E00E9446038D2D18
:104EB0000E941F038DE20E94EF0200FD02C08DE2FE
:104EC00001C08FE20E94EF028DE20E94EF028C2D62
:104ED0000E941F038DE20E94EF0201FD02C08DE2DD
:104EE00001C08FE20E94EF028DE20E94EF028E2D40
:104EF0000E941F030E942103802F837021F411233D
:104F000061F083E405C0833041F4FF2031F08FE687
:104F10000E94EF0280ED97E004C00E94210380E927
:104F200091E00E94310681113ACF0F5F083709F0F6
:104F3000BCCF35CF6896EBE00C9424310F930E94E0
:104F4000910385EC91E00E94A4030E94460381E84E
:104F500091E00E94A40382E090E00E949131682FCA
:104F600070E080E090E003E020E24EEF0E94CC048D
:104F700083E090E00E949131682F70E080E090E043
:104F800020E24EEF0E94CC0481E090E00E9491313B
:104F9000682F70E080E090E024EF4EEF0E94CC0498
:104FA00088E99AE30E9431060E9491038AE791E022
:104FB0000E94A403609131027091320280E090E07F
:104FC00024EF4FEF0E94CC040E94460383E791E058
:104FD0000E94A403609142027091430280E090E03D
:104FE00024EF4FEF0E94CC0488E99AE30E94310637
:104FF0000E9491038FE691E00E94A40389E090E073
:105000000E949131682F70E080E090E020E240E063
:105010000E94CC048AE090E00E949131682F70E0F9
:1050200080E090E020E240E00E94CC0486E090E046
:105030000E949131682F70E080E090E026E444EF18
:105040000E94CC040E94460383E00E94230385E073
:1050500090E00E949131682F70E080E090E020E2C3
:1050600040E00E94CC0488E090E00E949131682FDB
:1050700070E080E090E020E240E00E94CC0484E018
:1050800090E00E949131682F70E080E090E026E48B
:1050900044EF0E94CC0488E99AE30E9431060E9402
:1050A00091038BEE90E00E94A4038BE090E00E94BD
:1050B00099310E941B040E94460384EE90E00E94F6
:1050C000A4038DE090E00E949131992787FD90958F
:1050D0000E941B0488E99AE30E9431060F9108950B
:1050E0000F93CF938CE491E0A5DC6CE080E00E940C
:1050F0005B0387E491E00E94A403C0E00E940407E0
:1051000060E082E00E94341462E080E00E94341487
:105110000E94460380917602882349F10E94A11AD9
:1051200081E00E945E04809101028823F1F081E019
:1051300093E00E94A40360910A0270910B02809197
:105140000C0290910D0203E028E4409101020E94BC
:10515000CC0465E080E00E945B0383ED91E00E9457
:10516000A40382E00E941F0312C08CE004C08FE3FE
:105170000E94EF0283E10E94230365E080E00E9429
:105180005B0382E00E941F0384E00E94230388EEF9
:1051900093E00E943106811109C08091350281306F
:1051A00009F4C0E0CF5FCA3F08F4A8CF0E94910382
:1051B000CF910F9108950F93CF93DF9380E491E007
:1051C00039DC6DE080E00E945B038CE391E00E949B
:1051D000A403C0E0D7E00E94040710928802109256
:1051E000870260E082E00E9411170E9446038091CE
:1051F0008B0287FF70C088E00E9423030E94460351
:105200006091790270917A0280917B0290917C0288
:1052100004E026E440918B020E94CC04D0931C024F
:1052200060E082E00E94D21C909386028093850207
:1052300068E08A3F9F4F08F581E00E945B038DE0A4
:1052400093E00E94A403609185027091860280E041
:1052500090E002E024EF4EEF0E94CC0482E00E9436
:10526000230364E080E00E945B0388ED91E00E94EC
:10527000A40382E00E941F0310C081E00E945B0330
:105280008AE00E94230364E080E00E945B0382E0E6
:105290000E941F0385E00E9423030E94CA1E809182
:1052A000870290918802892BE1F080ED97E00E94BF
:1052B00031060E94FF0385E093E00E94A403609101
:1052C00087027091880280E090E002E025E24FEFD3
:1052D0000E94CC0406C08FE30E94EF0282E10E948C
:1052E000230380ED97E00E943106811109C080916F
:1052F0003502813009F4C0E0CF5FCA3F08F46BCFBC
:105300000E949103DF91CF910F9108951F93CF9346
:10531000DF9380E090E00E949131182F843129F5CD
:10532000C0E0D0E0CE018C5F9F4FFBD7CC23A1F033
:10533000C33099F4811789F0282F30E0412F50E0D5
:10534000BA016F5F7F4F2617370739F04E5F5F4F07
:105350002417350711F009C0182F8A50853B28F40F
:105360002196C730D105F1F633C00E948C0385E445
:105370000E94EF0285E40E94EF0263E08DE090E07E
:10538000DDD76CE070E08BE090E0E6D769E379E38D
:1053900084E090E0E1D76BE386E090E0CFD76BE369
:1053A00087E090E0CBD76BE388E090E0C7D769E374
:1053B00079E389E090E0D0D764E174E180E090E0A7
:1053C000CBD764E174E182E090E0C6D70E94AC05DF
:1053D000DF91CF911F910895A4E0B0E0E1EFF9E2F1
:1053E00010C780E481B982B987E880937A0010926F
:1053F000C1001092C50087E68093C40088E08093C6
:10540000C1008EE08093C2008091C00085FFFCCF78
:1054100014B784B7877F84BF88E10FB6F894809370
:105420006000109260000FBE0E94C60313FDEAC523
:1054300080E185BF6BDF10E0079905C00E94B705CA
:105440001F5F1C33C9F78FE59DE69093150280938B
:1054500014021F3130F080E69DE690931502809390
:10546000140210922C020E94D0191C3308F08BDA1F
:1054700008E1C02ED12C88E4A82E82E0B82E90E658
:10548000E92E92E0F92E0E94910310BA0E940407BF
:105490000E94D0190E948C0385EC91E00E94A40325
:1054A0002FE00FB6F894A895C09260000FBE20932D
:1054B000600080914402882379F00E94460382E1D3
:1054C00093E00E94A40363E080912F029091300248
:1054D0000E948B050E94AC050E9446030E94431661
:1054E00080911C02883039F50E94910387E193E096
:1054F0000E94A4030E94460363E0809104029091FD
:1055000005020E948B050E94210363E08091060240
:10551000909107020E948B050E94210363E0809115
:105520000802909109020E948B050E94AB0581E15F
:105530000E947E07E5C48CE00E943A0387E090E079
:10554000F0D6082F84E090E0ECD6081B00934102CF
:10555000002319F08EE00E943A0380E00E947E074B
:105560000E94460380E794E00E94A40342E061E0C9
:1055700080E00E94060E42E060E081E00E94060E9C
:1055800041E062E080E00E94060E41E060E082E0DF
:105590000E94060E40E062E081E00E94060E40E0BC
:1055A00061E082E00E94060E80911C02811111C010
:1055B00083E40E94EF020E94431660E082E00E94B2
:1055C000111761E082E00E94111760E081E00E9403
:1055D00011170E949103B0924602A0924502809159
:1055E0001C02853041F487E494E00E94A40341E466
:1055F00067E483E409C08630B9F480E594E00E9452
:10560000A40342E367E481E30E942D040E94460361
:105610008BE293E00E94A40362E080914C0290919F
:105620004D020E948B056CC4873009F05BC08091ED
:1056300089020E941F038DE193E00E94A4038091E0
:105640008A020E941F030E94CA1E809187029091C5
:105650008802892B79F084E093E00E94A403609192
:1056600087027091880280E090E002E025E24FEF2F
:105670000E94CC040E94460360917D0270917E02DC
:1056800080917F029091800204E026E440918C0298
:105690000E94CC046091890280918A020E94D21CEF
:1056A00090938602809385028A3F9F4F78F48CE026
:1056B00093E00E94A403609185027091860280E0CD
:1056C00090E002E024EF4EEF0E94CC04209189028A
:1056D00080918A0290E0820F911D029709F010C418
:1056E0006ADDD1CE823009F0E2C080911A028130A9
:1056F00009F041C090918F0280919502981750F463
:10570000892F0E941F0386EE91E00E94A4038091DE
:10571000950208C00E941F0382EE91E00E94A4033C
:1057200080918F020E941F0360918F0280919502E9
:105730000E94B20D80E70E94930460918F028091D5
:1057400095020E94111780918B028D3F0CF0F3C2DD
:1057500082E493E00E94A4036091790270917A023E
:1057600080917B0290917C0202E026E440918B02C2
:105770000E94CC04E0C2823009F046C082E30E945D
:10578000EF028DED91E00E94A40380918F022091A1
:105790009002821313C0809195020E941F0382EE33
:1057A00091E00E94A40380918F020E941F0386EE65
:1057B00091E00E94A4038091960216C03091950258
:1057C00090919602391316C00E941F0386EE91E055
:1057D0000E94A403809195020E941F0382EE91E033
:1057E0000E94A403809190020E941F0381E00E9406
:1057F0009304A1C2321302C081E003C0981341C0D8
:1058000080E180930F023AC08330D9F583E380931F
:105810000F028091950290919002891303C021E0BC
:1058200020930F0240918F0230919602431303C0E0
:10583000E0E1E0930F0220919102821303C0F2E0B5
:10584000F0930F0280919702481303C040E2409307
:105850000F02321303C022E120930F02981303C0FA
:1058600081E280930F0280910F02823250F483E331
:105870000E94EF028DED91E00E94A4030E94A90412
:105880005AC286E594E00E94A4038EE394E00E944D
:10589000A4030E94460382E294E00E94A403809144
:1058A0001A02805D0E94EF0286EE91E024C38330ED
:1058B00009F064C180916F02882399F180915702A9
:1058C000882379F160915402809156020E94111749
:1058D0004090790250907A0260907B0270907C0236
:1058E00010918B0260916E0280916C020E941117E0
:1058F00080918B0218130EC08091790290917A02E8
:10590000A0917B02B0917C02481659066A067B067C
:1059100018F004C0181714F48DE001C08CE08093D7
:105920001B0280916F02882361F0809157028823C7
:1059300041F0079906C080911B0291E0892780936E
:105940001B0280911B028C3051F48EE393E00E9485
:10595000A40380916F02882389F080E70DC0F09244
:105960004602E09245028AE393E00E94A4038091FC
:105970005702882319F08EE60E94EF020E9421034D
:1059800090911A024091450250914602A5E9B2E079
:105990006FE872E0162F2FE832E0121B191770F52E
:1059A000FB012191BF01FA018485281719F02C9180
:1059B000281302C01196EECF80911B028C3041F467
:1059C0009091550280915602891740F080E007C0FF
:1059D00090916D0280916E029817C0F781E0982E29
:1059E000882339F086EE91E00E94A40399249394D1
:1059F00007C082EE91E00E94A40302C014E1912C42
:105A000043E462E485E40E942D040E94460388E496
:105A100093E00E94A403E0914502F0914602608168
:105A200071818281938103E020E040E00E94CC04F8
:105A30000E94210389E40E94EF02E0914502F09167
:105A40004602868197818031974270F085E60E94F8
:105A5000EF02E0914502F0914602868197818051E4
:105A600097429783868303C083E60E94EF020E94D9
:105A70003403E0914502F09146026681778180E02F
:105A800090E002E021E44AEF0E94CC0480E00E9412
:105A900085038FE293E00E94A403E0914502F09118
:105AA000460263E0848195810E948B05E091450266
:105AB000F091460280859185892BA1F080E00E94BB
:105AC00085038FEB91E00E94A403E0914502F091E1
:105AD00046026085718580E090E003E021E44AEFB2
