:100000000C9484020C9496020C9496020C94960222
:100010000C9496020C945B200C9496020C9496021D
:100020000C9496020C94D6070C9496020C949602AB
:100030000C94F7170C944D200C943F200C94D1177E
:100040000C9496020C9496020C9419200C9496022F
:100050000C9496020C9496020C9496020C949602C0
:100060000C94D7070C9496020C9496020C9496026A
:100070000C9496020C9496020C9496020C949602A0
:100080000C9496020C9496020C9496025245465F8C
:10009000523D005245465F433D00203E3130306EB8
:1000A0004600706EE46D006B4D04104001020404C4
:1000B0001F111111111F04001E0203021E00000077
:1000C0000F0818080F00001113171F171311001144
:1000D000191D1F1D1911001B1B1B1B1B1B1B005B6C
:1000E000435D005B524C5D00312D032D3320003108
:1000F0002D07062D77772D332000432B4553524093
:100100005450313A33006640545032002035304864
:100110007A004330200052695F4C6F3D0052695FA6
:1001200048693D0052303D0052482F524C002B523E
:10013000482D203132203133203233002B524C2DC8
:100140002031322031332032330052482B005248C4
:100150002D005248663D005265663D004943457397
:100160003D00494345303D0056657273696F6E200E
:10017000312E31326B002D77772D002D07062D00A3
:100180002A012020002D022D002D012D004E6F741C
:100190002063616C696272617465642120466F72CC
:1001A000FF63616C6962726174696F6E20636C6178
:1001B0006D70207468652033FF70696E7320746FF2
:1001C00067657468657220616E642073746172740F
:1001D000207769746820746865FF6B65792E20410B
:1001E000636B6E6F776C65646765207468652073F8
:1001F000656C662D74657374207769746820746803
:1002000065206B65792077697468696EFF32732E9B
:1002100020446973636F6E6E6563742070696E73DA
:1002200020616674657220746865FF6D6573736123
:100230006765202269736F6C617465FF50726F622D
:100240006521222069732073686F776E2E20536FAB
:1002500066747761726520616E6420646F63756D8A
:10026000656E746174696F6E2069732061742073A8
:10027000766E3A2F2F206D696B726F636F6E74729A
:100280006F6C6C65722E206E65742F7472616E7364
:100290006973746F7220746573746572200056659B
:1002A00078743D0049723D004C3D0020566C6F73E0
:1002B000733D00204553523D005643433D00436586
:1002C0006C6C21002D032D004056673D00205674B4
:1002D0003D0055663D005562653D00203132333D9D
:1002E00000504E50004E504E00433D0043673D00CD
:1002F0006846453D002D49474254004A4645540052
:100300002D4D4F53004F4B004261742E20004C4640
:100310002071756172747A0048462071756172743B
:100320007A004672657175656E6379203E20324DA4
:10033000487A0073686F72742050726F626573211F
:100340000053656C6674657374007475726E210079
:10035000726F7461727920656E636F6465720031CB
:10036000302D6269742050574D00662D47656E65CB
:100370007261746F7200537769746368206F666688
:100380000053686F77206461746100566F6C74610C
:100390006765004672657175656E637900547261B8
:1003A0006E736973746F720053656C656374696F03
:1003B0006E3A005465737420456E640069736F6C07
:1003C0006174652050726F626573210053656C66BD
:1003D00074657374206D6F64652E2E0054696D65AD
:1003E0006F757421006F722064616D6167656420B0
:1003F000004E6F2C20756E6B6E6F776E2C206F72B7
:100400000020756E6B6E6F776E0054687972697339
:10041000742E0054726961630070617274006461CB
:100420006D616765642000656D7074792100776582
:10043000616B0054657374696E672E2E2E00BA03CB
:10044000870358032E030703E402C302A4028802B1
:100450000000140029003E0053006900800097004E
:10046000AE00C600DF00F80012012D014901650150
:100470008201A001BE01DE01FF01210244026802E7
:100480008E02B502DE020903350364039403C80338
:10049000FE0337047304B404F90443059305EA0525
:1004A0004906B3062907AE074808FF08DE09AF571B
:1004B000B950C24A97451141133D87395A367E33A8
:1004C000E8308E2E692C712AA128F5266925F9239A
:1004D000A222622137201E1F161E1E1D341C571B10
:1004E000851ABF1903195018A61704176A16D615CE
:1004F0004915C2144114C5134E13DC126E120512B5
:100500009F113D11DF10841011241FBECFEFD0E4E6
:10051000DEBFCDBF11E0A0E0B1E001C01D92AD3B58
:10052000B107E1F70E94622B0C9460340C94000038
:1005300080FD2A9A80FF2A98229A00002B9A239AFB
:100540002C982D982E982F9864FD2C9A249A65FD4E
:100550002D9A259A66FD2E9A269A67FD2F9A279A3C
:1005600000002B981FD387FD10C02B9A2C982D9834
:100570002E982F9860FD2C9A61FD2D9A62FD2E9A7F
:1005800063FD2F9A00002B980DD3089580910301ED
:100590008093000180910E01809302010895CF9312
:1005A000C82F682F81E00E9498020E94C905C830B8
:1005B00050F4C630D0F4C23071F0C33089F0C1308D
:1005C00001F58EE30EC0C43E91F0C43F91F0CD32F0
:1005D000C1F48DE217C08CE70E949C058CE312C029
:1005E0008CE70E949C058CE70DC082E50BC085E777
:1005F00009C08FE40E949C0588E60E949C058DE658
:1006000001C08C2F0E949C05CF9108958F5C0E94A1
:10061000CF02089580E20E94CF020895A1E0B0E0E9
:10062000E4E1F3E00C947D33882331F089830E9468
:100630000A0389818150F8CF2196E2E00C94993326
:100640008DE00E949C058AE00E949C050895CF934E
:10065000C82F682F80E00E9498020E94C905CF7BB6
:10066000C03811F40E942003CF91089510920E011A
:1006700080E80E942703089581E080930E0180ECBA
:100680000E942703089582E080930E0184E90E946E
:100690002703089583E080930E0184ED0E942703D1
:1006A000089560930301982F969580FF02C080EC17
:1006B00001C080E8860F24E1929F800D11240E94E2
:1006C0002703089590910E019F5F90930E0194303F
:1006D00038F093E090930E0191E090934D0102C0A9
:1006E00010924D01682F80910E010E9451030895D0
:1006F00060910001809102010E945103089581E000
:100700000E94270382E00E94D4050E9420030E94D9
:10071000360310920E01089586E00E94D40560E32E
:1007200080E80E94980281E00E94D40560E380E89E
:100730000E9498020E94C30560E380E80E9498022C
:100740000E94C30560E280E80E94980282E00E9455
:10075000D40580E20E94270380E20E9427038AE2F8
:100760000E94270388E00E9427030E947F0386E0FF
:100770000E94270382E00E94270381E00E94D405A3
:100780008CE00E9427030895CF93DF93EC018991B9
:10079000882319F00E94CF02FACFDF91CF910895FC
:1007A000CF93DF93EC01FE018491982F9F7721F086
:1007B0000E94CF022196F7CFDF91CF9108950F933A
:1007C0001F93CF93DF938C01085F1F4FEC01FE0155
:1007D00084910E94CF022196C017D107C1F7DF9103
:1007E000CF911F910F91089584E10E940E03089507
:1007F0000F938CEE92E00E94D003409195014D3F03
:100800006CF46091830170918401809185019091D5
:10081000860103E026E40E94D70403C08FE30E9410
:10082000CF020F91089597FF09C08F939F938DE298
:10083000B6DE9F918F91909581959F4F68E271E010
:100840004AE050E00E9409349FDF0895EF92FF9242
:100850000F931F93182F062FF42E8BED92E0A0DF3D
:10086000EE24E0914B01F0914C018685E81611F4DD
:10087000812F09C08485E81611F4802F04C0858576
:10088000E81611F48F2D8BDEE3948E2D833049F71B
:100890001F910F91FF90EF900895682F80E092E0F4
:1008A000662309F491E0623009F481E008950F9322
:1008B000082FE1EBF1E0880F880FE80FF11D608150
:1008C000718182819381643671058105910580F47F
:1008D00020910101222361F4802F0E944D04692F91
:1008E0000E943D1BBC0180E090E04EEF03E002C09F
:1008F0004FEF04E024EF5BD08DDE0F9108950F934E
:10090000833078F4E5EAF1E0E80FF11DE80FF11D1E
:1009100060817181812D912D4DEF26E503E047D057
:1009200079DE0F9108951F93182F80917E018823FF
:1009300019F070DE80E033DE9FDE82ED92E030DF82
:10094000812F82958F70DBDF812F8F70D8DF1F9111
:100950000895DF92EF92FF920F931F93CF93DF934F
:10096000D0900F018D2D82958F70C9E9D1E07E0165
:10097000E80EF11CF701808149DE09E811E0C801A9
:100980000FDFF701868142DEC8010ADF8D2D8370FB
:10099000C80FD11D8E813ADE80910F01C4DFDF9137
:1009A000CF911F910F91FF90EF90DF900895A0E0FD
:1009B000B0E0EDEDF4E00C947333142FC22F03304C
:1009C00009F4A7C0043009F4ABC0053051F006307B
:1009D00081F00730B1F0B4E6CB2ED12CE12CF12C14
:1009E00017C0A0EACA2EA6E8DA2EEE24E394F12C72
:1009F0000FC0F0E4CF2EF2E4DF2EFFE0EF2EF12C5B
:100A000007C0E0E8CE2EE6E9DE2EE8E9EE2EF12C76
:100A10005AE0852E912CA12CB12C6C157D058E05EC
:100A20009F0560F06B5F7F4F8F4F9F4FA501940133
:100A30000E94CD32CA01B9011F5FEFCF0CE0010F58
:100A400007FD04C0033118F002E101C000E01BEA19
:100A5000019F112D11241695212F220F210F021B0A
:100A600021F01F5F23E0201B022F2AE030E04CE33F
:100A700051E00E94E433ACE3B1E00D900020E9F7CF
:100A80001197AC53B140BA2E9D013327802F90E0CF
:100A900004968217930714F41F5F0D5FE12FF0E0B7
:100AA000EE55FF4FA490DA2FD01B1D1644F08EE2B6
:100AB0000E94CF02DD2319F080E30E94CF020111D2
:100AC00001C0DFEF4CE3E42E41E0F42E8701CD2E90
:100AD000DD24C7FCD094802F8E198B1578F4F80193
:100AE00081918F010E94CF0298012C5331402C1527
:100AF0003D0589F78EE20E94CF02EDCFAA2019F0C2
:100B00008A2D0E94CF02CC2391F08C2F0E94CF021D
:100B10000EC038EEC32E33E0D32EE12CF12C78CF6B
:100B200020E1C22E27E2D22EE12CF12C71CFCDB7DD
:100B3000DEB7ECE00C948F338F932F932AE08095EF
:100B4000519A089410F4599802C0599A000020D084
:100B500027D086952A95B1F72F918F91089503D0CC
:100B600002D001D000D000D003D002D001D000D0FC
:100B7000A89500D003D002D001D000D000D003D07F
:100B800002D001D000D000D003D002D001D000D0DC
:100B900000D003D002D001D000D000D003D002D0CA
:100BA00001D000D00000089590E0893C28F0885CD6
:100BB00048EC849FC0011124009709F40895209106
:100BC0008100277019F0DBDF019716C08130910595
:100BD00019F002973EE303C037E180E090E02091F6
:100BE000B200230F2093B30042E04093700027E04F
:100BF00023BF889526E023BFA895DECF8F9384E09E
:100C0000D3DF07C08F9382E0CFDF03C08F9381E0F3
:100C1000CBDF8F911F93182F106410937C00E12F6E
:100C2000E07880913301E81759F0E0933301B0DFA9
:100C30008EE980937A0083E083BF889582E083BF4A
:100C400020E030E0A901E0E020C08EE980937A0046
:100C500083E083BF889582E083BF609178007091C4
:100C60007900260F371F411D511DE43069F4809132
:100C70003501803049F084E02030380728F417FD32
:100C800003C010681F7BC9CFEF5F80913201E81766
:100C9000E0F2609136017091370117FF04C0609156
:100CA00034017091350180E090E00E9495322FEF81
:100CB00033E040E050E00E94CD32B901CA012091FA
:100CC000320130E040E050E00E94CD32C9011F9176
:100CD000089583B1881F8827881F1D99826090918D
:100CE0001A01943050F09EE0909316018093170102
:100CF00010921B0191E090931A01E0911A01AE2F1E
:100D0000B0E0AA5EBE4F9C91981779F1A3E0AE0FB8
:100D1000A37020911B01811109C0923069F5B0E0E8
:100D2000AA5EBE4F9C919330C1F414C08330A9F4E5
:100D3000923041F4B0E0AA5EBE4F9C9191110DC07B
:100D4000215009C0913049F4B0E0AA5EBE4F9C9199
:100D5000911103C02F5F20931B01EF5FE370E093BD
:100D60001A01F0E0EA5EFE4F808380911B0187FD4F
:100D7000819580931C010895913079F7B0E0AA5EC7
:100D8000BE4F9C91933049F7DBCFA0E0B0E0EBEC95
:100D9000F6E00C947633D82EC92E279825980E9419
:100DA000C30510921B01E0911A01F0E03196E37047
:100DB000FF27EA5EFE4F80EF8083C5E6D9E10E94FF
:100DC0006906379906C00E94C705D150C1F7C150C6
:100DD000A9F7CD2DDC2DF12C05E510E0BB24B39453
:100DE000D7FD38C082E3E82E0E9469060E94C7053D
:100DF000EA94D1F7000F379B0F5F0F730F3349F45D
:100E0000111103C0CD2DDC2D14E01F5F163928F021
:100E100021C0011102C011111DC0A8951C161D068C
:100E20002CF42A97209711F4CFEFDFEF80911C016B
:100E3000882339F0F39480917F01811102C0B09230
:100E40007F0184E18F1560F680911B01811102C042
:100E5000F12CC6CF812FCDB7DEB7E9E00C949233E9
:100E6000CF930E94C602C82F80914D01882329F19B
:100E7000C33059F463E183E00E9451038BE20E9486
:100E8000CF0263E183E00E94510380E49FE10E946E
:100E9000C506811104C080911C018111F6CFC330B9
:100EA00051F480914D01813031F460E083E00E9483
:100EB00051030E94F4030E947803CF9108958BE0C0
:100EC00090E00E941F34382F8CE090E00E941F3485
:100ED00020913A01230F30913B01381F20931F01CD
:100EE0003093200183E0283E380720F0C901885E56
:100EF000934002C080E090E062E370E00E94A5327F
:100F0000683008F067E0EEE3F4E0E60FF11DE60F6D
:100F1000F11D459155912591359162E3681B421B66
:100F2000530B649FC001659F900D1124499662E3A5
:100F300070E00E94A532620F731F7093820160936C
:100F400081018DE090E00E941F34992787FD9095E4
:100F500060913A0170913B01860F971F9093350184
:100F60008093340190937D0180937C010895CF9309
:100F7000DF9324E130E0B9010E94A532DC01E0E515
:100F8000F4E0E60FF71FE60FF71FC591D5914591E5
:100F900055914C1B4A9FC0011124B9010E94A532F2
:100FA0006C0F7D1FCB01DF91CF9108951895189597
:100FB000A1E0B0E0EEEDF7E00C947B3311B812B88D
:100FC000E82FF0E0E755FF4F94919BB9262F281B9F
:100FD000E20FF11D27FDFA95E491E92BEAB9698347
:100FE0000E940A068C016981862F0E940A062091C0
:100FF00036013091370136952795A90141525109A3
:101000004017510760F4255E3F4F0217130738F46D
:101010004817590720F441E08217930708F040E091
:101020001AB8842F2196E4E00C949733CF9361E0B3
:1010300080E00E94D807C82F62E080E00E94D807B5
:10104000C80F62E081E00E94D8078C0FCF9108950D
:10105000A3E1B0E0EEE2F8E00C946D33182F1092AB
:101060002301807FE9F40E941608833009F00FC441
:101070000E947F038CEC93E00E94D0030E943C030B
:101080008FE30E94CF0280ED97E00E94C5068B306F
:10109000F8F40E947F0388E691E00E94D003F7C332
:1010A00036E9F32E00E00E947F0383E393E00E9481
:1010B000D0030E941608833021F40F5F043010F033
:1010C00007C000E088E20E94D405FA9461F772C07C
:1010D0000E943C0384E291E00E94D00360E082E041
:1010E00090E00E942D3460E083E090E00E942D3477
:1010F00060E081E090E00E942D3460E082E00E9498
:101100003D1B5C019A83898361E082E00E943D1B64
:101110006C019C838B8360E081E00E943D1B7C011D
:101120009E838D83B501882777FD8095982F03E0F6
:1011300020E24EEF0E94D704B601882777FD809504
:10114000982F20E24EEF0E94D704B701882777FD41
:101150008095982F24EF4EEF0E94D7042AE5A2161F
:10116000B10424F084E190E09A838983698182E06C
:1011700090E00E942D348AE5C816D10424F084E161
:1011800090E09C838B836B8183E090E00E942D3400
:101190009AE5E916F10424F084E190E09E838D83C2
:1011A0006D8181E090E00E942D3482E080934D01BA
:1011B0000E9430071F701F87113009F068C0AA24F1
:1011C000A394B12C08EB202E02ED302E07E4402E24
:1011D000512C88E0982E90E2892E24ECC22E26E332
:1011E000D22EE12CF12C55C0739423E0271508F47E
:1011F00043C00E943C030E94F4030E9436030E94F5
:10120000F4030E94360384E50E94CF02C5010E94C8
:101210001E040E940A03113009F040C00E944818C1
:1012200087E591E00E94D00360913A0170913B0103
:1012300080E090E004E026E54DEF0E94D7040E9494
:101240003C0382E591E00E94D0038091810190915E
:1012500082010E941E048EEB8093320111B812B8F5
:101260001AB81BB888EE93E00E94C506143009F442
:10127000BBCF8B3008F4B8CF88EE93E00E94C50650
:101280008FEFA81AB80A98E0A916B10411F418E76C
:1012900036C1712C1A2DA0E86A2EABCF123009F09E
:1012A00044C02091360130913701A8E5BBE10E948E
:1012B0007432A70196010E94EF32E4E0EBB984E1B9
:1012C0008AB980E0288B398B4A8B5B8B0E94FE05A4
:1012D000288939894A895B89821B930B9A83898380
:1012E00084E48AB980E0288B398B4A8B5B8B0E941F
:1012F000FE05288939894A895B89821B930B9C8367
:101300008B8380E18BB980E58AB981E0288B398BAA
:101310004A8B5B8B0E94FE0528893989821B930BBF
:101320009E838D838CE391E0C2C0133061F59BB83E
:10133000F8E2FAB980E00E94FE0520913601309172
:1013400037013695279538872F83821B930B9A8315
:10135000898328E82AB980E00E94FE052F8138851C
:10136000821B930B9C838B838BB880EA8AB981E0C4
:101370000E94FE052F813885821B930B9E838D83EF
:101380008EE291E094C0143049F48CEB93E00E941B
:10139000D0030E941608811177C28FC01530B1F4B6
:1013A0001BB89AB880E00E94FE059A8389838AB8A8
:1013B00081E00E94FE059C838B836AB882E00E94D4
:1013C000FE059E838D838EE491E071C0163051F549
:1013D0009AB89BB880E00E94FE05209136013091BA
:1013E0003701821B930B9A8389838AB88BB881E07B
:1013F0000E94FE052091360130913701821B930B2C
:101400009C838B836AB86BB882E00E94FE052091B2
:10141000360130913701821B930B9E838D838AE4C2
:1014200091E045C0173009F045C020913601309158
:101430003701A8E5BBE10E947432A20191010E942C
:10144000CD329BB89CE09AB980E0288B398B4A8BCF
:101450005B8B0E94FE05288939894A895B89821B3A
:10146000930B9A8389838BB8E0E3EAB981E0288BF8
:10147000398B4A8B5B8B0E94FE05288939894A8902
:101480005B89821B930B9C838B836BB8F0ECFAB95E
:1014900082E0288B398B4A8B5B8B0E94FE05288962
:1014A0003989821B930B9E838D8388E291E00E9491
:1014B000D00303C0113009F4D1CE0E943C038981CE
:1014C0009A810E9413040E940A038B819C810E94CE
:1014D00013040E940A038D819E810E941304BECED4
:1014E0000E943C030E94F4030E943C038CEB93E0B7
:1014F0000E94D00384E60E94D405115021F00E947E
:1015000016088111EDCF0E947F038DE191E00E94CA
:10151000D003609138017091390180E090E003E0E0
:1015200024EF4FEF0E94D7040E943C0386E191E034
:101530000E94D003609148017091490180E090E0E1
:1015400024EF4FEF0E94D70482E080934D010E9468
:101550003007109223010E947F0382E191E00E94F4
:10156000D00360E082E00E941B1500918B01109176
:101570008C011C870B8761E082E00E941B15C090E4
:101580008B01D0908C01DE86CD8660E081E00E94E8
:101590001B15E0908B01F0908C01FE82ED8262E0E1
:1015A00080E00E941B1580918B0190918C019C839F
:1015B0008B8362E081E00E941B1580918B019091EA
:1015C0008C019A87898761E080E00E941B158091D9
:1015D0008B0190918C019A838983EF85E13021F012
:1015E00020914701223021F4029698878F8307C00B
:1015F00098878F83109247018CE00E942703B801DF
:10160000882777FD8095982F03E020E240E00E9434
:10161000D704B601882777FD8095982F20E240E017
:101620000E94D704B701882777FD8095982F26E47C
:1016300044EF0E94D7046E01FFE0CF0ED11CFE01E3
:101640003196819191910A97853B9105E0F4EC15D3
:10165000FD05B9F704E010E0CE0101967C01F70129
:101660006081F2E0EF0EF11C6E5EC8010E942D3425
:101670000F5F1F4FEC14FD0491F70E943C0385E0BF
:1016800093E00E94D00382E080934D010E943007D6
:101690002F85213029F080914701823009F0DDC08B
:1016A000E0E4BE2E10E0FAE0CF2ED12CE12CF12C9C
:1016B000109223010E94A628009195016091830158
:1016C000709184018091850190918601073F44F4D7
:1016D000A70196010E94CD320F5FB901CA01F6CF72
:1016E0000093950160938301709384018093850139
:1016F00090938601073F09F099C0DC01CB01805629
:101700009109A109B10980399545A105B10508F0F4
:101710008DC06091970170919801CB018B569F4FBE
:101720008B32914008F082C01F5F153008F47FC0F3
:101730008BE090E00E943B340E947F0383E990E0BD
:101740000E94D00380919701909198010E94130408
:101750000E945F0746983E9A87E00E940A06853DF0
:101760009340D4F73E98109235011092340187E0EF
:101770000E940A067C0180917C0190917D019093EA
:1017800035018093340187E00E940A068C01000F26
:10179000111F109235011092340187E00E940A0651
:1017A000C0907C01D0907D01D0923501C09234016F
:1017B000E80EF91EE01AF10A0E943C038CE890E062
:1017C0000E94D0038DE090E00E941F3473E0B72E9A
:1017D000B80E9601D7010E9483329801442737FD45
:1017E0004095542F0E94EF32B20E6B2D8DE090E0A9
:1017F0000E942D348B2D992787FD90950E9413040C
:101800000E945F0782E080934D010E943007109292
:1018100047018CE00E94270384E090E00E941F347F
:10182000682F87E090E00E942D3417C010E00E94DE
:101830003C036091830170918401809185019091B6
:10184000860104E026E4409195010E94D70488E2D5
:101850000E94D405BA9409F02BCF89E1809332011C
:101860000E947F0388E691E00E94D0030E943C031F
:1018700083EB93E00E94D0031092230182E08093D7
:101880004D010E94300703C052E0752E16CE6396BC
:10189000E2E10C9489338091470181110DC084E00D
:1018A00090E00E941F3461E0680F87E090E00E94A2
:1018B0002D3481E08093470108950F93CF93DF93F8
:1018C000E82FF0E0E455FF4FE491E2B9E1B91BB82D
:1018D000E62FF0E0E755FF4FE491EE0FEAB9862FCF
:1018E0000E940606EC010097F9F00E944A0384EA80
:1018F00092E00E94D003DE0120EA36E841E050E0A9
:101900000E948A3228E937EB40E050E00E94CD3255
:10191000CA01B9018827992702E021E447EF0E9414
:10192000D70411B812B81AB8DF91CF910F9108956A
:10193000A6E1B0E0EEE9FCE00C946D33982E862E23
:10194000442EA895E62FF0E0E755FF4F54903396CC
:10195000E490E42FF0E0E755FF4F6490E82FF0E0CB
:10196000E755FF4FF490339674906BB8262D2529D8
:101970002E8B2AB971B872B8862F0E9406069E83F4
:101980008D835AB8882D0E9406061C011AB80E9441
:10199000BF051BB83E893AB9882D0E9406064D81C5
:1019A0005E818417950730F5805E9E4F4817590772
:1019B00008F490C4E1B812B8FBB88F2D86298AB913
:1019C00060913601709137017E836D83892D0E946D
:1019D0000606AD81BE81A81BB90BBE83AD83FAB8E4
:1019E0002090360130903701892D0E940606281A72
:1019F000390A08C02D813E81205E3E4F8217930731
:101A000008F468C420915D018091770190E0820F15
:101A1000911D02974CF0213009F05CC490915A015D
:101A200080917401981356C4162D110FED81FE811B
:101A3000E437F10508F4A4C0CF01880F991F44963C
:101A40002816390608F09CC071B872B8812F852914
:101A50008AB9882D0E9402066C01842D0E940A0614
:101A60005C011BB9882D0E9402069601295A3D4F40
:101A70001F2912B8E1B81AB91BB928173907B0F5F0
:101A8000842D0E94020688349F4028F084E08093D1
:101A9000230182E204C084E08093230184E28093E6
:101AA0002201D0925301C0925201AC14BD0440F403
:101AB000C6018A199B09909359018093580104C06B
:101AC00010925901109258019601A0E1B7E20E94CC
:101AD000743220911D0130911E0140E050E00E94BF
:101AE000CD323093550120935401ECC3892D0E94CF
:101AF00002068C01842D0E940A066C01FBB8892D18
:101B00000E940206895A9D4F8017910708F0E2C390
:101B100072B871B8842D0E940206813D934028F46A
:101B200084E08093230182E304C084E08093230156
:101B300084E3809322010C151D0538F4C01AD10AE4
:101B4000D0927301C092720104C01092730110927E
:101B500072012091360130913701201B310BA0E139
:101B6000B7E20E947432209124013091250140E0B7
:101B700050E00E94CD3230936F0120936E0197C1E7
:101B800012B8E1B8FBB80F2D06290AB9892D0E94B9
:101B900006069C878B87C0903601D0903701842D34
:101BA0000E940A069A8389830A97A0F51AB881E0F1
:101BB0000E94D405812F8F298AB9892D0E9406069B
:101BC0009C878B874091360150913701481B590BF8
:101BD0005C834B83842D0E940A069A8389838091BB
:101BE0002401909125019C0140E050E060E677EBF4
:101BF00087E490E00E94CD32AB81BC810E948A32A2
:101C0000A981BA819D0140E050E00E94CD32590186
:101C10006A0112C0F6012B853C85E21BF30BFC83A5
:101C2000EB83CF0149815A81841B950BBA010E9435
:101C3000A5325B01C12CD12C1AB81BB872B871B88F
:101C400081E00E94D40559EB251657E0350608F0CF
:101C500041C36E896AB9882D0E9406068F359D4062
:101C600008F42BC11AB881E00E94D405212F252940
:101C70002D8B2AB9882D0E94060698878F83842D84
:101C80000E940A069E878D87892D0E940A06988BDE
:101C90008F874D855E85413D574008F4B1C083E094
:101CA000809323018DE0809322018F8198852816EF
:101CB000390620F43C016218730802C06F807884F2
:101CC000E0901D01F0901E0100E010E060E677EB6F
:101CD00087E490E0A80197010E94CD32D3010E94D1
:101CE0008A32AD85BE859D0140E050E00E94CD3234
:101CF00080917701882369F0809168019091690152
:101D0000A0916A01B0916B0182179307A407B507F0
:101D100010F5209368013093690140936A01509354
:101D20006B012F813885A0E1B7E20E947432A801CF
:101D300097010E94CD3230936F0120936E018F8501
:101D40009889ED85FE858E1B9F0B90936D01809386
:101D50006C0121E001C020E080916801909169014F
:101D6000A0916A01B0916B018A159B05AC05BD0578
:101D700038F5A0926801B0926901C0926A01D092D0
:101D80006B018B859C8529813A81821B930B9093F3
:101D90006D0180936C012B813C81A0E1B7E20E9430
:101DA0007432209124013091250140E050E00E94DE
:101DB000CD32205F384D30936F0120936E0103C008
:101DC000222309F450C39101A0E1B7E20E947432CA
:101DD000A80197010E94CD323093710120937001C8
:101DE0002D813E81A0E1B7E20E947432A8019701E3
:101DF0000E94CD32309373012093720121E033C3EE
:101E000031E62316310408F058C04F815885413D12
:101E100067E0560708F451C084E080932301CA01AB
:101E200086509F4FAF85B8898A179B0710F082E1D3
:101E300001C083E180932201BE2DB770EB2E842D6B
:101E4000806480937C007BE0F72E01E010E0CC24DE
:101E5000CA94E3E0DE2EA89561E0862D0E94381436
:101E60002D892AB980B18E21E9F35AB880917A0080
:101E7000806480937A0080917A0086FDFCCF809107
:101E8000780090917900A601481B590B040F151F8B
:101E9000FA9409F7C801880F991F880F991F69E004
:101EA00070E00E94A532709373016093720180917B
:101EB00077018F5F80937701A1CF5E895AB96BB8A4
:101EC000882D0E9406065C01842D0E940A069C83D0
:101ED0008B836091360170913701681B790B6A30F2
:101EE000710570F51AB881E00E94D405812F85290B
:101EF0008AB91BB9882D0E9406065C01842D0E94B8
:101F00000A069C838B8380911D0190911E019C0188
:101F100040E050E060E677EB87E490E00E94CD324D
:101F2000D5010E948A322091360130913701AB8170
:101F3000BC812A1B3B0B40E050E00E94CD3208C020
:101F4000C501861B970B0E94A5329B0140E050E023
:101F50002F83388749875A87E1B812B80AB90BB975
:101F6000892D0E9406069C878B87842D0E940A0675
:101F70009A838983882D0E940A066C014B855C85B3
:101F80004034564008F0A4C1FBB8892D0E940606D3
:101F9000AC01FAB8892D4A8B5B8B0E9406069C0126
:101FA0001BB881E02C8B398B0E94D405FBB8892D9E
:101FB0000E9406062C8939894A895B89203436407B
:101FC00008F059C08133914108F455C08B859C8538
:101FD0008A569F4F4817590708F04DC085E08093F7
:101FE000230180915D018F5F80935D0189819A81DA
:101FF0008C199D0990935301809352012B843C844A
:102000002C183D0830925901209258011AB81BB87B
:10201000E2B881E00E94D405FAB8892D0E94060634
:10202000853F910508F02DC20AB9842D0E9406064D
:10203000813D934008F425C2892D0E940A068D3DFA
:10204000924008F41EC2FAB8892D0E9406068D3D02
:10205000924008F416C2FBB881E00E94D4051BB878
:10206000892D0E940606853F910508F00AC286E088
:102070008093230106C2212F2F292AB92BB9892D3C
:102080002C8B0E94FE056C010091360110913701E6
:10209000081B190B842D0E940A069C878B87409190
:1020A000360150913701481B590B5A834983882DBB
:1020B0000E940A069E878D872C8969817A816E3FEE
:1020C000794008F4B0C083E0809323018CE08093D2
:1020D000220138012016310610F46218730880912D
:1020E0002401909125016C01E12CF12C60E677EB45
:1020F00087E490E0A70196010E94CD32D3010E94AF
:102100008A32A981BA819D0140E050E00E94CD321F
:1021100080915D01882369F080914E0190914F017B
:10212000A0915001B091510182179307A407B50700
:1021300008F520934E0130934F0140935001509386
:1021400051018B859C85ED85FE858E1B9F0B9093A1
:102150005301809352019801A0E1B7E20E947432CA
:10216000A70196010E94CD3230935501209354016E
:1021700021E001C020E080914E0190914F01A0919B
:102180005001B09151014F81588569857A85841736
:102190009507A607B70720F540934E0150934F01CE
:1021A00060935001709351018B819C818A199B0926
:1021B00090935301809352019501A0E1B7E20E94F0
:1021C000743220911D0130911E0140E050E00E94C8
:1021D000CD32205F384D309355012093540103C018
:1021E000222309F44FC19101A0E1B7E20E947432A9
:1021F00020911D0130911E0140E050E00E94CD323F
:1022000030935701209356012D813E81A0E1B7E222
:102210000E947432A70196010E94CD323093590179
:10222000209358012EC151E62516310408F050C004
:1022300009346DE0160708F44BC084E08093230155
:1022400082E0809322018D859E8586509F4F8C155C
:102250009D0518F483E080932201072D0770842DDB
:10226000806480937C001BE0CC24C394D12CA8957F
:1022700060E0862D2C8B0E9438142C892AB92BB94A
:1022800080B18023E9F7FAB880917A008064809366
:102290007A0080917A0086FDFCCF80917800909141
:1022A0007900C80ED91E115011F7C601880F991F69
:1022B000880F991F69E070E00E94A5327093590160
:1022C0006093580180915D018F5F80935D01D9C05B
:1022D00011B812B81AB81BB811B877EC271671E00C
:1022E000370608F4B4C012B818EC072D0E2901B94E
:1022F00081E00E94D405E1B8892D0E940A06429728
:1023000010F01150A1F7452C440C3F2C330C3AB877
:102310003BB861E0862D0E943814892D0E94060684
:102320008C014AB81BB871B872B860E0862D0E9463
:102330003814A0903601B0903701882D0E9406060F
:102340006C015AB8892D0E9406069A838983882DCC
:102350000E940A0629813A81281B390B3A83298376
:1023600012B8E1B8FAB8FBB861E0862D0E943814C3
:10237000892D0E9406067C01882D0E940A06E81A13
:10238000F90A49815A814E155F0540F43AB83BB8C5
:10239000892D0E940606FA82E98216C085010C1971
:1023A0001D094AB81BB871B872B860E0862D0E944A
:1023B0003814E0903601F0903701882D0E9406060F
:1023C000B701681B790BCB0129813A812759310963
:1023D00029383141E0F529813A8182179307B8F510
:1023E000C80133E0969587953A95E1F7893C9105C8
:1023F00010F088EC90E0800F911F49815A8184177A
:10240000950728F5CA0124E0969587952A95E1F766
:1024100080179107E0F480912301823018F482E064
:102420008093230180912101E82FF0E0DF01A7567E
:10243000BE4F9C9216968C92EE0FFF1FEB55FE4FEF
:1024400029813A81318320838F5F80932101682D18
:10245000892D0E94501211B812B81AB81BB866968E
:10246000E2E10C948933809177018F5F809377014B
:10247000222389F340927401809275019092760133
:10248000EACF21E080915D018F5F80935D0122237F
:1024900011F340925A0190925B0180925C01DBCF74
:1024A000A0E0B0E0E6E5F2E10C946F33982E862EC2
:1024B000A895E62FF0E0E755FF4FB49033962491AE
:1024C000E82FF0E0E755FF4FE4903396F490309119
:1024D000770180915D0190E0830F911D892B09F0B8
:1024E000C2C1A8958091360190913701880F991F3C
:1024F000880F991F909337018093360180913401A2
:1025000090913501880F991F880F991F909335017D
:10251000809334018EEB8093320112B821B9EAB86E
:10252000EBB858E1D52EC0E0D0E0882D0E94060619
:10253000582E492E892D0E940A068C018C1B9D0B5A
:1025400097FF03C091958195910903972CF0A89569
:10255000DA94C1F1E801E9CFEE0C1BB8EAB8892D95
:102560000E9406068135910568F5EBB8892D0E9419
:102570000606EC01F1B8F2B81BB8BAB888E1A82E8B
:10258000C12CD12C892D0E940606782E692E882D0B
:102590000E940A067C018C199D0997FF03C0919542
:1025A00081959109039734F5BB0CBAB8882D0E9428
:1025B00006065C01003C94E4190708F5C53881E083
:1025C000D80708F18091360190913701969587954B
:1025D00096958795909337018093360180917C0181
:1025E00090917D01909335018093340189E180932E
:1025F000320139C1A895AA9429F36701C3CFC03B22
:102600009DE4D907F8F6C0903601D090370184EAEE
:10261000E81682E0F80608F05FC098E9A916B10450
:1026200088F29E01A8E9B7EB0E94743296012C1B38
:102630003D0B40E050E00E94CD3229013A01960165
:102640002A193B09A8E9B7EB0E947432850120E002
:1026500030E0A90198010E94CD32C837DF4070F404
:10266000C301B201B2E0660F771F881F991FBA95A8
:10267000D1F7620F731F841F951F12C098E7A91628
:102680009FE0B906A0F4CA01B901A2E0660F771F66
:10269000881F991FAA95D1F7640D751D861D971D7A
:1026A00025E030E040E050E00E94CD3208C0240D2B
:1026B000351D461D571D5695479537952795A4E618
:1026C000B0E00E948A326B017C018CEAC80E8DE07A
:1026D000D81EE11CF11C70C0252D342D02171307E4
:1026E00008F49801C72DD62DCE15DF0508F4E701B3
:1026F00059012017310708F45801A0912401B09125
:102700002501C501821B930B9C010E947432960126
:102710002A193B0940E050E00E94CD3229013A01DC
:102720008E01EC16FD0608F48701A0911D01B09101
:102730001E019E01201B310B0E9474326801E12CA6
:10274000F12CA70196010E94CD3298E7A9169FE0CF
:10275000B90670F4C301B201E2E0660F771F881F6B
:10276000991FEA95D1F7620F731F841F951F11C03F
:1027700008378FE01807B0F4CA01B90152E0660FBC
:10278000771F881F991F5A95D1F7640D751D861DF7
:10279000971D25E030E040E050E00E94CD32690115
:1027A0007A010AC069017A01C40CD51CE61CF71C29
:1027B000F694E794D794C79410912301133008F04E
:1027C00001CF9A94980C892D90E0EC01CE59DE4F00
:1027D0002881880F991F880F991FFC01EF54FE4F25
:1027E0002223D1F14080518062807380A70196013D
:1027F000241935094609570957FF07C050954095D8
:10280000309521953F4F4F4F5F4FAAE0B0E00E94B7
:102810008A32A30192012C593F4F4F4F5F4F2C0D2D
:102820003D1D4E1D5F1D0E94CD32232B242B252BD9
:1028300009F0C8CE123019F081E08093230182E0C4
:10284000888380917E01E82FF0E0EB59FE4F908263
:102850008F5F80937E01B6CEC082D182E282F38206
:1028600081E08883AFCECDB7DEB7E0E10C948B3347
:10287000CF93C82FC0959BB160FF02C0982B01C0B9
:102880009C239BB99AB1982B9AB982E00E94D405F7
:102890008AB18C238AB98BB18C238BB9CF910895DF
:1028A000A0E0B0E0E6E5F4E10C9476338AE0D82EBF
:1028B0009CEFB92E28E0C22E11B812B81BB8BAB8D6
:1028C00080E00E9406068C0181E00E940A06EC016D
:1028D00082E00E940A0620912301283079F411B881
:1028E0001AB81093050100930401D0930701C09317
:1028F0000601909309018093080158C031E0C4306B
:10290000D10508F030E021E00430110508F020E0A6
:10291000232319F08430910510F321E0083E134081
:1029200008F020E0C83ED34008F42260883E93407F
:1029300008F4246021B9C0E0D0E0A89580E00E94AE
:10294000FE057C0181E00E940A068C0182E00E9463
:102950000A0624E1E21625E0F20608F4089A04319A
:1029600035E0130708F4099A843125E0920708F44A
:102970000A9A36E0E316F10428F40630110510F443
:10298000069738F02196C43F81E0D807B1F6C0928F
:10299000230100E010E00C171D0729F00E94C30579
:1029A0000F5F1F4FF8CFDA9409F086CFCDB7DEB7AF
:1029B000E9E00C949233CF92DF92EF92FF92CF93A3
:1029C00020918301309184014091850150918601CD
:1029D000C09195018AE0C82ED12CE12CF12C8C2FCE
:1029E000CF5F213A96E8390791E04907510538F061
:1029F000CA01B901A70196010E94CD32F0CF8093A0
:102A00009501A0913601B09137010E948A3228E8E1
:102A100033E140E050E00E94CD32209383013093B7
:102A200084014093850150938601CF91FF90EF90F0
:102A3000DF90CF900895A0E0B0E0E1E2F5E10C94E2
:102A40007333C82FD62F8FEF860F9C2F990F9C0FB3
:102A5000890F80935F01EC2FF0E0E755FF4F149151
:102A6000E62FF0E0E455FF4F04918091230181307F
:102A700009F492C2409121018FE991E065EA71E089
:102A8000DC012A2F281B2417A0F42D912D130EC032
:102A90009D0127503109F90120812C1307C0FB014A
:102AA000208131812C3D354008F476C26E5F7F4F26
:102AB000E8CF1092900110928F0110928301109232
:102AC00084011092850110928601109295010E9456
:102AD000501412B81BB801B91AB88C2F0E940A06FC
:102AE0006C0110926101109260017C018091600183
:102AF00090916101843F914080F51BB91AB90E9401
:102B0000BE051AB81BB80E94C405A8958C2F0E9458
:102B10000A06C816D90620F47C01EC18FD0802C08C
:102B2000E12CF12C80916001909161018E3791052B
:102B300028F02BE4E216F10408F42AC25DE2E5165F
:102B400051E0F50680F48091600190916101019659
:102B50009093610180936001C9CFFDE2EF16F1E02F
:102B6000FF0608F415C28091600190916101892BE4
:102B700021F0C70100E010E006C025E1E21625E0E3
:102B8000F206B8F380C020916001309161012017F6
:102B9000310748F00E94BF058C2F0E940A06A895B5
:102BA0000F5F1F4FF0CFC816D90630F48C199D095E
:102BB0008E159F05C8F402C080E090E08701081BD5
:102BC000190BA1F0093C110508F0E2C19801A8EE2B
:102BD000B3E00E9474324701A12CB12CA5019401ED
:102BE0000E94CD32690104C000E010E0C12CD12C5C
:102BF000A0906001B09061015FEFA51AB50AC50110
:102C0000A0E0B0E080938B0190938C01A0938D01A4
:102C1000B0938E01C8018E0D9F1D0E9419189C0152
:102C2000D5010E94743260938B0170938C01809364
:102C30008D0190938E016093830170938401809342
:102C400085019093860187EF809395010E94DB14A4
:102C5000209183013091840140918501509186013A
:102C6000A8EEB3E00E948A3224E630E040E050E073
:102C70000E94CD32209383013093840140938501DB
:102C80005093860143C10E9450141BB887E081B95C
:102C900012B8F12EFF0CFAB880E480937B0084E533
:102CA00080BF8C2F806480937C0086E180937A00C3
:102CB0000E94C7051092610110926001109280007D
:102CC000109285001092840087E286BB81E2809397
:102CD0006F0081E080938001FBB890912301809385
:102CE0008100943059F481E090E00C2E01C0880FEF
:102CF0000A94EAF78095877081B901C001B9F89408
:102D000083B7817F83BF80918001882389F083B757
:102D1000816083BF7894889583B78E7F83BFF89452
:102D2000A89580916001909161018034964059F797
:102D3000789410928100E0908600F09087001092C5
:102D40006F0086E980937A001AB81BB88C2F0E9416
:102D50000A0620913A0130913B01821B930B0C969D
:102D60009093980180939701809160019091610107
:102D70008032934008F00CC1809160019091610114
:102D800090938E0180938D01F0928C01E0928B01E3
:102D900084EF80939501809160019091610182346C
:102DA0009105C8F060918B0170918C0180918D012B
:102DB00090918E0124E630E040E050E00E94CD3258
:102DC00020938B0130938C0140938D0150938E01A1
:102DD00086EF80939501A0918101B09182012091AD
:102DE0008B0130918C0140918D0150918E010E9498
:102DF0008A3220E233E040E050E00E94CD3220935E
:102E00008B0130938C0140938D0150938E01209360
:102E100083013093840140938501509386010E9481
:102E2000DB1480919501843F09F060C0C09083015C
:102E3000D0908401E0908501F090860120EAC216CE
:102E40002FE0D206E104F104C0F4A70196012C544E
:102E50003F4F4F4F5F4F60EA7FE080E090E00E947D
:102E6000CD322C0D3D1D4E1D5F1D209383013093EF
:102E70008401409385015093860180915F0190E029
:102E80008C5F9F4F0E941F34C0908301D0908401BB
:102E9000E0908501F0908601482F50E060E070E0FE
:102EA0004C155D056E057F0568F4C41AD50AE60A5F
:102EB000F70AC0928301D0928401E0928501F092DA
:102EC000860114C084E1C80ED11CE11CF11CC4169B
:102ED000D506E606F70610F40E944B0C109283010B
:102EE0001092840110928501109286011AB9809186
:102EF000830190918401A0918501B0918601499749
:102F0000A105B10508F444C0C12CD12C8091210148
:102F1000882321F0809123018430D1F587E08093CC
:102F2000230120919501809196018217BCF028130E
:102F30002FC040918301509184016091850170916F
:102F400086018091870190918801A0918901B091BB
:102F50008A0184179507A607B707D0F480918301EB
:102F600090918401A0918501B091860180938701A1
:102F700090938801A0938901B0938A0120939601D0
:102F8000D0929201C0929101D0939301C093940189
:102F900011B812B81AB81BB8CDB7DEB7ECE00C9474
:102FA0008F331F920F920FB60F9211248F939F931E
:102FB000B59904C080918001811109C0B59B10C0F2
:102FC00080918600909187008A3F910548F4809116
:102FD000600190916101019690936101809360017D
:102FE0009F918F910F900FBE0F901F9018951F9279
:102FF0000F920FB60F9211248F939F93109280011E
:10300000B09B10C080918600909187008A3F910507
:1030100048F4809160019091610101969093610163
:10302000809360019F918F910F900FBE0F901F9022
:1030300018950F9221E08C32920710F48CE291E007
:103040008C52914069E170E00E94A53299E16B32A7
:1030500010F0982F6BE2981BEEEAF4E0E60FF11DFA
:10306000E60FF11D4591559125913591692F421B30
:10307000530B649FC001659F900D11240C9669E16C
:1030800070E00E94A532620F731FCB010F9008956C
:10309000A0E0B0E0EEE4F8E10C94733388E893E14B
:1030A00090933701809336018EEB8093320112B8F2
:1030B00080E181B90E94CC0511B884E00E94060627
:1030C000AC018B5C9840833F9140A0F481E08093F9
:1030D0004A012091360130913701AFEBB9E00E94EF
:1030E00074329A0140E050E00E94CD3230933701B3
:1030F000209336018EE10E940A068EE10E940606A8
:1031000090933B0180933A010E945F07C1E0C1B9EF
:1031100084E0982E9BB89AB880E00E9406067C0155
:1031200002E001B910E11BB91AB981E00E9406065C
:10313000E80EF91E91B890E4892E8BB88AB882E027
:103140000E940606E80EF91E1BB8C2B9C1B99AB8AA
:10315000C0913601D091370180E00E9406065C01E3
:1031600002B901B91AB9009136011091370181E015
:103170000E9406066C0192B891B88AB88090360118
:103180009090370182E00E940606C00FD11FC80D43
:10319000D91DCA19DB09CC19DD09C81BD90B8091CF
:1031A0003601909137014C01880C991C880E991EAC
:1031B0008E189F088C1A9D0AA12CB12C9701A0E9AA
:1031C000BAE10E947432A50194010E94CD326901D6
:1031D0007A0130934901209348019E01A0E9BAE1A8
:1031E0000E947432A50194010E94CD3230933901BE
:1031F000209338012057354E309325012093240128
:1032000080E7C81A85EED80AD0921E01C0921D012F
:1032100089E180933201CDB7DEB7ECE00C948F33B7
:10322000A3E1B0E0E6E1F9E10C946D331092010105
:1032300080912301813009F01CC280917E01813090
:1032400009F017C22090650124E0229EF0011124AC
:10325000EF54FE4F80819181A281B381893032E5A4
:103260009307A105B10508F004C29B8B8A8B312C12
:1032700061E0822D631528F00E944D04B82EA92E1E
:1032800003C00E944D045C01EA2DF0E0E455FF4FBD
:1032900074908B2D90E0FC01E755FF4FE4911BB833
:1032A00012B82A893B89203F3105A0F430FC12C0B6
:1032B00000911D0110911E0100591A4121E030E0DA
:1032C0000B2C02C0220F331F0A94E2F7C901872991
:1032D00081B906C0EAB971B800911D0110911E01B3
:1032E00044E1642E8B2D0E9402064C018A2D0E941F
:1032F0000A0632E08316910410F4029710F06A94E3
:1033000089F760E460937B0084E580BF8B2D806447
:1033100080937C0096E190937A00E12CF12C10923E
:103320008000109285001092840087E286BB0E9484
:10333000C705232D2170298B30FC05C081E88093BF
:10334000810072B808C072B80E94D00580E286BBC6
:1033500081E88093810046B345FF11C0109281003F
:1033600080E286BB80918600909187006C0120915D
:103370008400309185008217930768F013C040FFE6
:10338000EACF31E036BBA895C70101967C018035B4
:10339000910509F7E3CF40FF05C061E066BB8FEF01
:1033A000E81AF80A12B886E980937A0034E1732E9D
:1033B0008B2D0E9402064C018A2D0E940A0622E0F3
:1033C0008216910410F4029710F07A9489F7809095
:1033D0004801909049018A899B89880E991E800E28
:1033E000911E20911F013091200100399AE11907A7
:1033F000B0F461EEC616D104E104F10438F4C6015C
:1034000065E070E00E94A532645101C069E1285274
:103410003109261B310967FD339586E009C0C401D7
:1034200060EB76E30E94A53287E0860F285D3F4F70
:1034300090E0A0E0B0E08C159D05AE05BF0528F436
:10344000C81AD90AEA0AFB0A03C0C12CD12C76019A
:103450008989882329F092E2C90ED11CE11CF11C54
:1034600060E5E616F10418F0C12CD12C76018BE052
:10347000C816D104E104F10428F091E0C91AD1087A
:10348000E108F1084091360150913701A12CB12C8F
:10349000A8EEB3E00E9474322B013C019801DA01DE
:1034A0000E947432A50194010E94CD324427552711
:1034B000C301B2010E94CD32C9010E94B707FC01CD
:1034C000A5019401C701B6010E9495324B015C0130
:1034D000BF0180E090E023E0660F771F881F991FEF
:1034E0002A95D1F76B5F7F4F8F4F9F4F2AE030E0D7
:1034F00040E050E00E94CD32C501B4010E94CD32BF
:10350000832D90E0E1E0F0E0EC0FFD1F64E0369EDB
:10351000E00DF11D11242083318342835383698997
:10352000611117C06CE0C616D104E104F10488F003
:10353000FC013196EE0FFF1FEE0FFF1F81E090E0C0
:103540008C0F9D1FE80FF91F208331834283538323
:103550003394A895339493E0931508F089CE12B86C
:1035600084E00E94D40521E04D815E816F817885E1
:1035700089819A81AB81BC8184179507A607B7071B
:1035800008F020E04D855E856F85788989859A856C
:10359000AB85BC8584179507A607B70710F032E006
:1035A00001C033E0E22FF0E0EE0FFF1FEE0FFF1F30
:1035B00081E090E08C0F9D1FE80FF91FDC0194E083
:1035C000399FA00DB11D11244D915D916D917C919C
:1035D00080819181A281B381481759076A077B07CF
:1035E00008F0322FE1E0F0E0EC0FFD1F24E0329F05
:1035F000E00DF11D112480819181A281B38180931E
:103600000A0190930B01A0930C01B0930D0130FDC2
:1036100009C02A893B89203F310520F48BEF809334
:10362000010117C02CEF20930101BC01CD016B5F9C
:103630007F4F8F4F9F4F2AE030E040E050E00E94E4
:10364000CD3220930A0130930B0140930C0150932B
:103650000D0180910A0190910B01A0910C01B09194
:103660000D01892B8A2B8B2B11F41092010111B8BB
:103670001AB86396E2E10C9489332F923F924F92ED
:103680005F926F927F928F929F92AF92BF92CF92F2
:10369000DF92EF92FF920F931F93DF93CF93CDB7FB
:1036A000DEB76E970FB6F894DEBF0FBECDBF662EA5
:1036B000B82E860F898320912301273041F5209170
:1036C0008701309188014091890150918A011091C0
:1036D000960109C0CA01B9012AE0312D412D512DB1
:1036E0000E94CD321F5F173FACF32A3560E03607EA
:1036F0004105510518F48FEF9FEF82C1173F39F450
:1037000080E028178DE738074105410510F020E0DB
:103710003DE72C8B3D8B26EDA22E02C094EDA92E09
:10372000ECEAF0E0E60DF11D859180608E87ECEA11
:10373000F0E0EB0DF11D859180608F87E9EAF0E004
:10374000E60DF11D7590E9EAF0E0EB0DF11DC59075
:1037500090E8692AB92A81E0E82EF12C012D112D7B
:103760008E831F82188619861A861B861C861D86E4
:10377000188E198E1B8E1A8E0E94501480E082B90A
:1037800060927C000E94C8053F8531B97BB87AB849
:103790000E94CF051AB81BB8DD24B4ED9B2EA6ED10
:1037A0008A2E3E8531B97BB87AB860927C00A895A4
:1037B000A0927A0080917A0086FDFCCFA0927A00D8
:1037C00080917A0086FDFCCF2090780030907900BF
:1037D000B0927C00A0927A0080917A0086FDFCCFA6
:1037E00080927A000E94CD050E94CF05CBB8CAB85E
:1037F0000E94CE050E94D005A895A895A895A895E9
:103800001AB81BB880917A0086FDFCCF2091780011
:1038100030917900288B398B3F8531B9CBB8CAB844
:10382000A895B0927C00A0927A0080917A0086FDE3
:10383000FCCFA0927A0080917A0086FDFCCF609147
:1038400078007091790060927C00A0927A0080915B
:103850007A0086FDFCCF80927A000E94CD050E94FE
:10386000CF057BB87AB80E94CE050E94D005A895F6
:10387000A895A895A8951AB81BB880917A0086FDDE
:10388000FCCF40917800509179001AB8CB01820D9D
:10389000931DE80EF91E011D111DEA82FB820C83A7
:1038A0001D8388899989840F951F2E813F816885A2
:1038B0007985280F391F611D711D2E833F8368870D
:1038C000798722E32417150650F07BB87AB80E9456
:1038D000D2051AB81BB8888D8395888F07C0483EDB
:1038E00073E0570718F08A8D83958A8F88899989A4
:1038F0002817190660F03E8531B9CBB8CAB80E94C6
:10390000D2051AB81BB8898D8395898F07C0883E68
:1039100073E0970718F08B8D83958B8FD3945D2D73
:103920005F3F09F03ECF4090480150904901440C60
:10393000551C9201E4E0240D351DEA95E1F72901BB
:10394000570168016E807F808884998420912301CB
:103950002730C1F46C897D89812D912D6C53704085
:10396000804090409B01AC010E9495329B01AC01CC
:103970006FEF71EC8EE390E00E94CD32621A730A11
:10398000840A950AA614B704C804D90428F46A184E
:103990007B088C089D0803C0662477244301B2018C
:1039A00080E090E09301A4010E9495329501A60168
:1039B0000E94CD3280E090E07981870F911D0E94B6
:1039C0001F3490E0682EC90160E170E00E94A532CA
:1039D000260F371FC9016816190618F486199109B0
:1039E0000FC08C5E9F4F8615910540F48C899D8990
:1039F000843981E1980710F00E944B0C812D912DA4
:103A00006E960FB6F894DEBF0FBECDBFCF91DF919B
:103A10001F910F91FF90EF90DF90CF90BF90AF90EC
:103A20009F908F907F906F905F904F903F902F90DE
:103A30000895A0E0B0E0EFE1FDE10C9473338091D4
:103A4000910190919201892B09F09AC0E091930124
:103A5000F0E0E455FF4FC491E0919401F0E0E755A8
:103A6000FF4F14910E94501412B81BB8C1B91AB973
:103A7000809194010E940A06EC0100919601083F92
:103A80000CF07EC0045FC0908701D0908801E09068
:103A90008901F0908A018AE0882E912CA12CB12C0A
:103AA000043070F4C701B6016B5F7F4F8F4F9F4F9B
:103AB000A50194010E94CD320F5F69017A01F0CF18
:103AC000D701C6010197A109B10988389341A10521
:103AD000B10508F055C01BB91AB9A12CB12CAC1412
:103AE000BD0430F40E94CE0582E0A80EB11CF7CFD1
:103AF0001AB81BB8A89585E0809332018091940193
:103B00000E940A06C817D90720F45C01AC1ABD0A46
:103B100002C0A12CB12C812C912C8C149D0430F46A
:103B20000E94CE052FEF821A920AF7CF809194015E
:103B30000E940A0629E120933201A895C817D907E7
:103B400018F48C1B9D0B02C080E090E08A159B0549
:103B500088F49501281B390B69F0A4EFB1E00E94AD
:103B60007432950140E050E00E94CD3230939201D2
:103B7000209391010E94501411B812B81AB81BB8C2
:103B8000CDB7DEB7ECE00C948F33AAE0B0E0EBECFD
:103B9000FDE10C946D33389A282F2170298780FD20
:103BA00002C0409801C0409A97B1966097B9419879
:103BB0004298811107C083E993E00E940E2630EFFE
:103BC0003A837BC1813019F482E293E0F6CF8430EE
:103BD00018F4419A4298F3CF863028F44198429ADB
:103BE00088E193E0EACF419A429A8EE093E0E5CFF4
:103BF000115051F00E94BD05A895379902C0F1E01F
:103C0000F98385B58111F4CF15BC86B58093100179
:103C10008091100190911101A0911201B0911301B6
:103C20008B839C83AD83BE830E943C030E94F4037C
:103C30000E9443030E94F4030E944A030E94F4037B
:103C40000E943C0386E60E94CF028DE30E94CF02D1
:103C500060911001709111018091120190911301F6
:103C6000409B07C044E0660F771F881F991F4A9545
:103C7000D1F707E028E440E00E94D7048AE70E94D9
:103C8000CF020E940A03409B49C18FE20E94CF02EB
:103C9000209880918100882319F08FE30E94CF0241
:103CA0001092810010926F0020911001309111014B
:103CB0004091120150911301DA01C9010197A10944
:103CC000B109893D9146A105B10508F0C7C0AAE038
:103CD000B0E00E948A32685F7F4F8F4F9F4F23E092
:103CE00096958795779567952A95D1F7660F771FF3
:103CF000709379016093780120980E94C30516BCE7
:103D000010921001109211011092120110921301E1
:103D1000F1E0F5BBF0936E0010927B0110927A01F6
:103D200022E02BBB809168008260809368007894C9
:103D300080916C00816080936C001A860E94BD05A2
:103D4000A895379902C031E0398380916C0080FDDD
:103D5000E8C015BC80916C008E7F80936C008091D0
:103D600068008D7F8093680086B5809310010E9463
:103D7000430384E50E94CF028DE30E94CF0280912D
:103D8000100190911101A0911201B0911301E091E5
:103D90007801F0917901F887EF831C012D019C01D6
:103DA000A20160E070E080E090E003E00E94A433B4
:103DB00051016201E12CF12C00E010E00E94DB33A4
:103DC00059016A017B01E82F192F03E00E94A433F7
:103DD0000E2F0E94DB3303E00E94A43351016201E5
:103DE000E12CF12C00E010E00E94DB3302E00E94A5
:103DF000A43300E00E94DB3301E00E94A43300E022
:103E00000E94DB3303E00E94A433AF81B8855D01DB
:103E1000C12CD12C00E00E94083339014A011B015A
:103E20002C01409B07C004E00E94BF3339014A01C6
:103E30001B012C01EF81F885E038F10508F478C00A
:103E400007E023E745EFB301C4010E94D704FA85D8
:103E5000FA3F09F086C08FE30E94CF024099D6C096
:103E60008B819C81AD81BE818A5D9146A109B1099A
:103E7000863C9B4BA540B10508F4C6C08B819C8154
:103E8000AD81BE8181329449AE41B10508F0BCC01C
:103E900010926E0080ED97E00E94C5062981820F86
:103EA00009F0C3C080911C01833008F0BEC03A8184
:103EB00031503A83332309F4B8C020980E94C305D7
:103EC00014BC16BC10921001109211011092120134
:103ED0001092130161E065BB60936E001092800048
:103EE00083E19AE79093890080938800A1E0B0E095
:103EF000B0938B00A0938A001092850010928400EA
:103F000083B5816083BDB6E0B6BBB0936F00789493
:103F1000E4E0E093810012E319826CCE0E940A0370
:103F2000B7CE6A856F5F6A876A3F09F007CF11CF06
:103F300084E6A82EB12CC12CD12CE12CF12C00E070
:103F400010E09301A401B101C2010E940833E22FE5
:103F5000F42F07E023E747EF6E2F732F8F2F952F56
:103F600074CF9301A401B101C2012C393E4C4340EE
:103F70005105610571058105910509F008F46ECFC1
:103F80000E944A0386E60E94CF028DE30E94CF0280
:103F90009301A401B101C2015301640171018201C5
:103FA00021153A4C4A495B4361057105810591052C
:103FB00089F080F020E030E04AE85DE568E775E4EC
:103FC00083E691E00E940833E22FF42F07E028E413
:103FD0004AEF0FC020E030E846EC54EA6EE77DE897
:103FE00083E090E00E940833E22FF42F07E028E4FA
:103FF0004CEF6E2F732F8F2F952F0E94D7048AE7D7
:104000000E94CF0220982ACF409A42CF8B819C8178
:10401000AD81BE818D319640A105B10508F038CF44
:10402000F985F11135CF409833CF2A96E2E10C940F
:1040300089331F920F920FB60F9211248F939F9383
:10404000AF93BF9378948091100190911101A0914A
:104050001201B09113019F5FAF4FBF4F80931001CA
:1040600090931101A0931201B0931301BF91AF91EE
:104070009F918F910F900FBE0F901F9018951F92D8
:104080000F920FB60F9211248F9386E085BD8F910A
:104090000F900FBE0F901F9018951F920F920FB6A2
:1040A0000F921124A8951092810015BC0F900FBE9D
:1040B0000F901F9018951F920F920FB60F92112418
:1040C0002F933F938F939F9380917A0190917B01DF
:1040D000892B11F481E085BD20917A0130917B011B
:1040E00080917801909179012817390730F015BC3B
:1040F00080916C008E7F80936C0080917A0190910A
:104100007B01019690937B0180937A019F918F911F
:104110003F912F910F900FBE0F901F9018958F30E9
:1041200008F08F50811103C08DE993E045C08130C4
:1041300019F483E993E040C0823019F482E293E0FD
:104140003BC0893019F488E193E036C08A3019F415
:104150008EE093E031C0833019F48AE693E02CC0FE
:10416000843019F48FE593E027C0853019F48AEF85
:1041700090E022C0863019F48FEE90E01DC08730A9
:1041800019F488EE90E018C0883019F480E593E0C7
:1041900013C08B3019F481E493E00EC08C3019F415
:1041A0008BE893E009C08D3019F481E893E004C0F6
:1041B0008E3021F486E793E00E94D00308950F9398
:1041C000CF938AEF90E00E940E26CAEF109223014F
:1041D00060E082E00E942A2680912301873009F066
:1041E00042C00E9436030E94F4030E94360383E417
:1041F0000E94CF028DE30E94CF02609187017091EF
:1042000088018091890190918A0103E026E4409120
:1042100096010E94D70460919301809194010E94BD
:104220003D1B9093900180938F010E943C030E945C
:10423000F4030E943C0384EB92E00E94D00360915F
:104240008F01709190016A3F8FEF780740F480E012
:1042500090E002E024EF4EEF0E94D7040AC08FE303
:104260000E94CF0206C00E947F038AEF90E00E9466
:10427000D00388EE93E00E94C506811107C08091AB
:104280001C01843018F4C15009F0A0CFCF910F91D8
:1042900008950F93CF938FEE90E00E940E2660E179
:1042A00080E00E94510383EE90E00E94D003CAEFA9
:1042B0001092230110927E011092630160E082E06F
:1042C0000E94501262E080E00E9450120E943C0363
:1042D00080917E01882349F10E94101981E00E949B
:1042E0005704809101018823F1F088EA92E00E944E
:1042F000D00360910A0170910B0180910C019091A3
:104300000D0103E028E4409101010E94D70465E01B
:1043100080E00E94510386E791E00E94D00382E092
:104320000E94060312C08EE004C08FE30E94CF02F9
:1043300083E10E940E0365E080E00E94510382E069
:104340000E94060384E00E940E0388EE93E00E9420
:10435000C506811107C080911C01843018F4C1503A
:1043600009F0A6CF0E947F03CF910F9108950F937C
:104370001F93CF93DF9388EE90E00E940E2661E1B9
:1043800080E00E9451038FED90E00E94D003CAEFBD
:10439000D4EF17E0109223011092210110928701AF
:1043A000109288011092890110928A01D09396018F
:1043B000109292011092910160E082E00E941B1520
:1043C0000E943C034091950147FF6CC060918301BE
:1043D00070918401809185019091860104E026E42A
:1043E0000E94D70482E00E940E0380919501843FD1
:1043F00019F482E00E940E031093230160E082E032
:104400000E943D1B9093900180938F0168E08A3F4A
:104410009F4FD8F481E00E94510383EB92E00E9409
:10442000D00360918F017091900180E090E002E0F4
:1044300024EF4EEF0E94D70464E080E00E94510315
:1044400080EF90E00E94D00310C081E00E945103F1
:104450008AE00E940E0364E080E00E94510382E043
:104460000E94060385E00E940E030E94191D0E940F
:1044700043038091910190919201892BD9F08CEAAC
:1044800092E00E94D003609191017091920180E0CE
:1044900090E002E025E24FEF0E94D70484E00E9402
:1044A0000E030AC08FE30E94CF0282E10E940E0336
:1044B0000E9443030E94F40388EE93E00E94C50625
:1044C000811107C080911C01843018F4C15009F09B
:1044D00061CF0E947F03DF91CF911F910F910895CB
:1044E0000F931F93CF93DF938BE893E00E940E26E8
:1044F000C0E0D0E01AE00E943C030E94F4030E9456
:104500003C030E9420030E9420038EE992E00E9457
:10451000D00383E00E9406069C01129FC001139FF6
:10452000900D1124BC0180E090E003E026E54DEF02
:104530000E94D70488EE93E00E94C50690911C016A
:10454000811102C0992361F0C0E0963068F48F3584
:1045500010F0DF5F02C0882319F0D53010F004C0DE
:10456000D0E0CF5FC03F38F2DF91CF911F910F9124
:1045700008950F93843108F08451833189F489E0E0
:104580008093810081E090E090938900809388007F
:1045900007E028E44DEF60E074E985E397E748C160
:1045A000823189F489E08093810083E090E09093E8
:1045B00089008093880007E028E44DEF60E07AEC02
:1045C0008AE99BE335C1813169F489E080938100F8
:1045D00087E090E0909389008093880007E028E4CA
:1045E0004DEF6CC0803169F489E0809381008FE0E9
:1045F00090E0909389008093880007E028E44DEFD5
:104600006FC08F3089F489E08093810089E190E068
:10461000909389008093880007E028E44DEF6AE8D2
:1046200071E88BE299E004C18E3069F489E08093EF
:10463000810087E290E0909389008093880007E0F2
:1046400028E44DEF60C08D3069F489E080938100EB
:104650008FE490E0909389008093880007E028E43D
:104660004CEF2CC08C3069F489E0809381008FE995
:1046700090E0909389008093880007E028E44CEF55
:104680002FC08B3069F489E0809381008FE891E03E
:10469000909389008093880007E028E44CEF33C0B2
:1046A0008A3089F489E0809381008FE193E09093D0
:1046B00089008093880007E028E44BEF60E075E60E
:1046C0008DEC9DE1B5C0893081F4809381008FE34A
:1046D00096E0909389008093880007E028E44BEFF0
:1046E00060E872EB86EE9EE0A3C0883089F489E032
:1046F000809381008FE99FE09093890080938800E8
:1047000007E028E44BEF60E071EE85EF95E090C0A4
:10471000873089F489E08093810084E493E2909368
:1047200089008093880007E028E44BEF6FE77DEF76
:1047300083EA92E07DC0863089F489E0809381002D
:1047400089E593E2909389008093880007E028E44C
:104750004BEF6FEE7BE682EA92E06AC0853089F427
:1047600089E08093810082E893E2909389008093AE
:10477000880007E028E44BEF68E471E68FE992E0F7
:1047800057C0843089F489E0809381008FE79EE3ED
:10479000909389008093880007E028E44BEF60E461
:1047A00078E78DE791E044C0833069F48BE0809333
:1047B000810080E792E0909389008093880007E071
:1047C00028E44AEFA0CF823071F481EE94E0909318
:1047D00089008093880007E028E44AEF60E870EFE2
:1047E0008AEF92E025C0813089F48BE080938100CC
:1047F00089E698E1909389008093880007E028E497
:104800004AEF60E876E988E990E012C0811112C0B1
:104810008CE08093810088E09DE3909389008093F1
:10482000880007E028E44AEF60E472E48FE090E05B
:104830000E94D7048AE70E94CF020F910895A0E05A
:10484000B0E0E5E2F4E20C9478338AE693E00E946B
:104850000E2680E18093800010926F0081E090E04E
:10486000909389008093880010928B0010928A00A8
:1048700083E086BB1092820088E0809381001BB8A1
:1048800084E58AB912B881E081B9229A89E08093DF
:10489000810000E020E0D12C12E1CEE1D0E0802FB9
:1048A00090E00A96BE010E94B932F62E621791F08E
:1048B0000E9436030E94F4030E9436038AE693E0C6
:1048C0000E94D003E12CEF1430F48EE20E94CF025C
:1048D000E394F9CFF22ED11641F1143108F01451BE
:1048E0000E943C030E94F4030E943C030E940A03BE
:1048F00083E1810F0E94B9220E944A030E94F403BF
:104900000E944A030E940A0381E0810F0E94B9229B
:104910000E9443030E94F4030E9443038EE30E941B
:10492000CF02812F0E94B922D12E88EE93E00E94FF
:10493000C50690911C01811102C0992319F000E075
:104940009B3078F490911B0197FD9C5E190F853187
:1049500018F01F5F803528F40F5F003F10F42F2DF3
:104960009ECF109281001092800011B81AB8229840
:10497000CDB7DEB7E7E00C949433A4E0B0E0E3EC0D
:10498000F4E20C9471338FE593E00E940E2683E2EB
:104990008093800010926F0081E090E090938900F6
:1049A000809388008FEF90E090938B0080938A0033
:1049B00083E086BB109282001BB884E58AB912B8E6
:1049C00081E081B9229A89E08093810010E000E0C3
:1049D0008AE0782E612C94E6C92ED12CE12CF12CA2
:1049E00088248A9423E0922EA12CB12C701609F40D
:1049F0003FC083E6871510F4ECE97E0E272D30E0EA
:104A0000AFEFB3E00E9474326E5C7F4F8F4F9F4FC9
:104A1000A70196010E94CD3230938B0020938A002B
:104A200029833A834B835C830E943C030E94F403F6
:104A30000E943C03A8EEB3E029813A814B815C815E
:104A40000E948A3261507E4F8F4F9F4FA501940183
:104A50000E94CD32CA01B90105E025E24FEF0E9464
:104A6000D704F8E2F61518F48CE30E94D405072D5C
:104A700080E496E00E94C506682E82E88615B8F0AC
:104A800090911C019B3098F480911B0187FD8C59FB
:104A9000780EE2E3E61518F4FAE07F0E03C0662014
:104AA00089F0739410E01F5F103F08F49FCF11B896
:104AB00010928100109280001AB822982496EEE09D
:104AC0000C948D339111EECFEECFCF93DF93D0E0E6
:104AD000C0E088EA93E00E940E260E943C030E94F8
:104AE000F4030E943C030E940A038EE08C0F0E9494
:104AF0008F200E9443030E94F4030E9443038EE32D
:104B00000E94CF028C2F0E948F200E944A030E9495
:104B1000F4030E944A030E940A0381E08C0F0E9462
:104B20008F2080E49FE10E94C506882319F0D0E021
:104B3000823340F490917F01992309F452C0882375
:104B400009F44FC0CC2309F466C0C13011F480E0F1
:104B50000BC0C23011F481E007C0C93011F485E008
:104B600003C0CA3021F486E00E94C51D35C0C330A1
:104B700019F40E941F2430C0C43019F40E94BD24CF
:104B80002BC0C53019F40E94DF2026C0C63019F4AE
:104B90000E94492121C0C73019F40E94B7211CC0CE
:104BA000C83019F40E94512717C0CB3021F481E19D
:104BB0000E94280811C0CC3019F40E9470220CC049
:104BC000CD3019F40E94112A07C0CE3029F429985B
:104BD00080E090E00E94C50610921C0110921B011B
:104BE00080E090911C019A30B0F490911B019923C0
:104BF00019F097FD03C0D0E0C90F03C0915FC90F42
:104C0000D0E08111CF5FDF5FD63928F4CF3008F4D0
:104C100060CFCF505ECFDF91CF910895A2E0B0E09A
:104C2000E4E1F6E20C947C3389839A830E947F034B
:104C300089819A810E94D00314E682E00E94D40503
:104C4000379902C01150C9F70E943C032296E3E055
:104C50000C949833A0E0B0E0E0E3F6E20C947433F7
:104C6000C82FD62F8FEF860F9C2F990F9C0F890F7F
:104C700080935F01E62FF0E0E455FF4F1491EC2F95
:104C8000F0E0E755FF4FB4901092900110928F0121
:104C90001092830110928401109285011092860176
:104CA00087EF809395010E94501412B81BB811B978
:104CB0001AB88C2F0E940A068C0110926101109282
:104CC00060019C019CE2E92EFF24F3944AE0A42EAB
:104CD00054E6952E8091600190916101843D90434E
:104CE00008F06FC0BBB88091600190916101892B81
:104CF00089F06701C21AD30A609160017091610165
:104D0000A29EC001A39E900D11240E94A532C6163A
:104D1000D70650F4BAB80E94C7051AB8809160014E
:104D200090916101019628C080916001909161018C
:104D30000B97C8F06091600170916101929EC00173
:104D4000939E900D11240E94A5326C157D0558F498
:104D5000BAB80E94BD051AB88091600190916101B6
:104D60008C599F4F09C0BAB80E94C2051AB88091E9
:104D70006001909161010A969093610180936001B6
:104D80001BB80E94C905A8958C2F0E940A06081717
:104D9000190720F49C01201B310B02C020E030E0F9
:104DA00080916001909161018B31964020F0253215
:104DB000310508F46DC02D3281E0380708F48ACF40
:104DC00005C02D3281E0380708F462C0809160018F
:104DD00090916101019729F4253145E0340708F0ED
:104DE00057C00091600110916101000F111FA801CF
:104DF00060E070E040938B0150938C0160938D01D3
:104E000070938E01C9010E9419189C01D8010E945B
:104E1000743260938B0170938C0180938D01909319
:104E20008E01609383017093840180938501909338
:104E300086010E94DB14609183017091840180914E
:104E40008501909186012AE030E040E050E00E9428
:104E5000CD32209383013093840140938501509398
:104E6000860187E080932301209387013093880196
:104E70004093890150938A01809195018093960116
:104E80001092920110929101D0939301C0939401DA
:104E900011B812B81AB81BB8CDB7DEB7EBE00C9456
:104EA0009033A8E1B0E0E7E5F7E20C94743380E5D5
:104EB00093E00E940E260E943C038AE493E00E9445
:104EC000D003DE015196CE010996AE014F5F5F4FD0
:104ED0009E01275E3F4FF42EE52E1D921D92FC0190
:104EE00011921192CF01FA0111921192AF01A21702
:104EF000B30799F784E58BB98AB900E010E0912CEB
:104F0000DD24D39444E0C42E52E0B52E12B8D1B8BB
:104F10000E94D10580B181FBAA24A0F882FF02C0C3
:104F2000A394A3940115110589F0A91469F0EF2D3C
:104F3000FE2DEA0DF11DEA0DF11D8085918501968A
:104F400091878087A92C02C034E0A32EB1B80E94BB
:104F5000D10590B1892F817092FD8E5FF4E0AF1280
:104F60000BC0EF2DFE2DE80FF11DE80FF11D80891C
:104F700091890196918B808BC1B80E94D10590B127
:104F8000892F817091FD8E5F94E0A9120BC0EF2DE7
:104F9000FE2DE80FF11DE80FF11D80819181019632
:104FA00091838083A8950E94C305379904C01BB8DC
:104FB0001AB811B8C7C049895A894531510508F155
:104FC0006B897C8965317105E0F02D893E89253139
:104FD0003105B8F08F89988D8531910590F0260FB5
:104FE000371F11E02417350708F010E0FF24F39471
:104FF0002817390708F0F12CCC24C39422E0E22EC4
:105000004CC049855A854531510510F16B857C8529
:1050100065317105E8F02D853E8525313105C0F0FB
:105020008F8598898531910598F0260F371F11E0FB
:105030002417350708F010E0FF24F39428173907E8
:1050400008F0F12CC12C92E0E92EDD24D39430C07D
:1050500049815A814531510510F16B817C8165315F
:105060007105E8F02D813E8125313105C0F08F8139
:1050700098858531910598F0260F371F11E0241788
:10508000350708F010E0FF24F3942817390708F0DB
:10509000F12C82E0C82EEE24E394D12C09C00F5FDE
:1050A0001F4F0931E6EF1E0709F44CC09A2C2ECF92
:1050B0000E943C030E94F40300E00E943C038D2DFB
:1050C0000E9406038DE20E94CF0200FD02C08DE225
:1050D00001C08FE20E94CF028DE20E94CF028C2D90
:1050E0000E9406038DE20E94CF0201FD02C08DE204
:1050F00001C08FE20E94CF028DE20E94CF028E2D6E
:105100000E9406030E940A03802F837021F411235A
:1051100061F083E405C0833041F4FF2031F08FE675
:105120000E94CF0280ED97E004C00E940A0380E94C
:1051300091E00E94C50681113ACF0F5F083709F050
:10514000BCCF35CF6896EBE00C949033CF92DF92D2
:10515000EF92FF92CF93DF93C4E1D0E812B8D1B9B8
:1051600084E00E94D40511B887E00E940A060497E3
:1051700010F0C15099F7C1E0C0935F011BB880E8FF
:1051800081B912B846983E9A80E480937B0084E50A
:1051900080BF87E480937C0086E180937A000E9440
:1051A000C705109261011092600110928000109268
:1051B00085001092840087E286BB81E280936F00B5
:1051C000C0938001469AC09381000F98F89483B7EA
:1051D000817F83BF80918001882389F083B78160BC
:1051E00083BF7894889583B78E7F83BFF894A89502
:1051F00080916001909161018034964059F77894D4
:1052000010928100E0908600F090870010926F006D
:1052100086E980937A003E98469887E00E940A06C5
:1052200020913A0130913B01821B930B0C96909395
:105230009801809397018091600190916101803283
:10524000934008F0E3C080916001909161019093D8
:105250008E0180938D01F0928C01E0928B0184EF9E
:105260008093950180916001909161018234910554
:10527000C8F060918B0170918C0180918D019091AB
:105280008E0124E630E040E050E00E94CD322093D1
:105290008B0130938C0140938D0150938E0186EFEA
:1052A00080939501A0918101B091820120918B01A1
:1052B00030918C0140918D0150918E010E948A3273
:1052C00020E233E040E050E00E94CD3220938B0199
:1052D00030938C0140938D0150938E012093830174
:1052E0003093840140938501509386010E94DB1422
:1052F000C0919501C43F09F053C0C0908301D09084
:105300008401E0908501F090860180EAC8168FE064
:10531000D806E104F104C0F4A70196012C543F4FD4
:105320004F4F5F4F60EA7FE080E090E00E94CD3217
:105330002C0D3D1D4E1D5F1D209383013093840174
:10534000409385015093860180915F0190E08C5FCE
:105350009F4F0E941F3440918301509184016091BE
:1053600085017091860190E0A0E0B0E08417950778
:10537000A607B70768F4481B590B6A0B7B0B4093D1
:10538000830150938401609385017093860108C066
:10539000109283011092840110928501109286016F
:1053A0008091830190918401A0918501B091860143
:1053B00089319105A105B10548F127E0209323012A
:1053C000209196012C177CF0C21320C040918701D8
:1053D000509188016091890170918A01481759079D
:1053E0006A077B0798F48093870190938801A093C4
:1053F0008901B0938A01C093960110929201109294
:1054000091011092930187E08093940111B812B832
:105410001AB81BB8DF91CF91FF90EF90DF90CF903B
:1054200008950F930E947F0388E691E00E94D003C5
:105430000E943C0384E291E00E94D00382E090E06D
:105440000E941F34682F70E080E090E003E020E2CB
:105450004EEF0E94D70483E090E00E941F34682F33
:1054600070E080E090E020E24EEF0E94D70481E0FF
:1054700090E00E941F34682F70E080E090E024EFFD
:105480004EEF0E94D7040E9443038DE191E00E94F9
:10549000D003609138017091390180E090E024EFF1
:1054A0004FEF0E94D7040E944A0386E191E00E94D8
:1054B000D003609148017091490180E090E024EFB1
:1054C0004FEF0E94D70488E99AE30E94C5068091B5
:1054D0001C018B3008F083C080911B0187FDA2CF97
:1054E0000E947F0382E191E00E94D00389E090E076
:1054F0000E941F34682F70E080E090E003E020E21B
:1055000040E00E94D7048AE090E00E941F34682F98
:1055100070E080E090E020E240E00E94D70486E066
:1055200090E00E941F34682F70E080E090E026E455
:1055300044EF0E94D7040E943C0383E00E940E03C4
:1055400085E090E00E941F34682F70E080E090E0DA
:1055500020E240E00E94D70488E090E00E941F34DF
:10556000682F70E080E090E020E240E00E94D704E5
:1055700084E090E00E941F34682F70E080E090E0AB
:1055800026E444EF0E94D7040E94430383E990E09D
:105590000E94D0038BE090E00E9427340E94130405
:1055A0000E944A038CE890E00E94D0038DE090E0D6
:1055B0000E941F34992787FD90950E94130488E963
:1055C0009AE30E94C50680911C018B3040F48091C3
:1055D0001B018F3F0CF426CF8F3F09F481CF0F9131
:1055E00008951F93CF93DF9380E090E00E941F34D3
:1055F000182F843131F5C0E0D0E0CE018C5F9F4F91
:105600000E941F34CC23A1F0C33099F4811789F094
:10561000282F30E0412F50E0BA016F5F7F4F2617EF
:10562000370739F04E5F5F4F2417350711F009C077
:10563000182F8A50853B28F42196C730D105E9F60A
:105640003DC00E94360385E40E94CF0285E40E949B
:10565000CF0263E08DE090E00E942D346CE070E0BA
:105660008BE090E00E943B3469E379E384E090E0D2
:105670000E943B346BE386E090E00E942D346BE3A4
:1056800087E090E00E942D346BE388E090E00E9478
:105690002D3469E379E389E090E00E943B3464E1D2
:1056A00074E180E090E00E943B3464E174E182E0C8
:1056B00090E00E943B3488EC0E94D405DF91CF91AA
:1056C0001F910895A4E0B0E0E8E6FBE20C946D338E
:1056D00082E084B985B986E880937A001092C1008F
:1056E0001092C50083E38093C40088E08093C100DA
:1056F0008EE08093C2008091C00085FFFCCF14B77C
:1057000084B7877F84BF88E10FB6F89480936000E8
:10571000109260000FBE84E98093640088E3809358
:105720007E001092B00087E08093B10078940E94D0
:105730008C0313FF0BC00E9436038CED93E00E9494
:10574000D0038BEC0E94D4052998C8C688E40E9437
:1057500027038FEC90E00E94DF0380E50E9427037F
:1057600087EC90E00E94DF0388E50E94270387ED25
:1057700090E00E94DF0388E70E9427038FEB90E010
:105780000E94DF0380E70E94270387EB90E00E94DE
:10579000DF0380E40E9427038FEA90E00E94DF038A
:1057A00080E185BF0E94F12A84E080931A0110E015
:1057B000379B05C01F3148F48FE59DE608C082E0A5
:1057C0000E94D4051F5F1C3399F780E69DE69093F5
:1057D000150180931401109233010E9448181C3364
:1057E00010F00E946525E8E1CE2ED12CFEE4AF2E0C
:1057F000F1E0BF2EA8E6EA2EA1E0FA2E10922301D6
:10580000109221011092770110925D0110922201F5
:1058100010924A010E947F0311B810927E011092EB
:105820006201109263011092640110929301109230
:105830009401109201010E9420030E9448180E94C6
:10584000360385E00E940A0685E00E9406069093D2
:105850006D0180936C0188E093E00E94D0038091F9
:105860006C0190916D01880F991F880F991FBC01E1
:105870006A567F4F80E090E06093830170938401CB
:10588000809385019093860102E026E54DEF0E940A
:10589000D7040E940A0380916C0190916D018A3FA8
:1058A00026E0920778F48333964048F487E294E048
:1058B0000E94D0038AEC0E94D4051BB80FC68EE26A
:1058C00094E002C085E093E00E94D0034FE00FB661
:1058D000F894A895C09260000FBE4093600080913C
:1058E0004A018823A1F00E943C0389EB92E00E94C8
:1058F000D003609136017091370180E090E003E0C1
:1059000026E54DEF0E94D70488EC0E94D405379914
:105910001FC00E943C030E94F4030E943C038EE9D6
:1059200092E00E94D00311B883E00E9406062AE0AC
:10593000FC012E9FC0012F9F900D1124BC0180E01F
:1059400090E003E026E54DEF0E94D7048CE3DDCF25
:105950000E943C030E94501480912301883091F5ED
:105960000E947F038EEB92E00E94D0030E943C03D2
:10597000609104017091050180E090E003E026E56C
:105980004DEF0E94D7040E940A03609106017091B6
:10599000070180E090E026E54DEF0E94D7040E94C9
:1059A0000A03609108017091090180E090E026E50A
:1059B0004DEF0E94D7048AEC0E94D40581E10E9439
:1059C000280804C58CE00E94270387E090E00E942D
:1059D0001F34082F84E090E00E941F34081B0093BE
:1059E0004701002319F08EE00E94270380E00E9407
:1059F00028080E943C0383E394E00E94D00342E025
:105A000061E080E00E94980C42E060E081E00E944A
:105A1000980C41E062E080E00E94980C41E060E078
:105A200082E00E94980C40E062E081E00E94980CC5
:105A300040E061E082E00E94980C80912301811196
:105A40001CC083E40E94CF020E9450141092870170
:105A5000109288011092890110928A0184EF80933C
:105A6000960160E082E00E941B1561E082E00E94E6
:105A70001B1560E081E00E941B150E947F03B0921D
:105A80004C01A0924B0180912301853041F48AE0C2
:105A900094E00E94D00341E467E483E409C08630C7
:105AA000D9F483E194E00E94D00342E367E481E308
:105AB0000E9426040E943C0382ED92E00E94D003E3
:105AC000609152017091530180E090E002E026E580
:105AD0004DEF0E94D7047AC4873009F06CC08091E2
