:100000000C946E080C9480080C9480080C94800862
:100010000C9480080C94CC280C9480080C94F80F55
:100020000C9480080C9480080C94D7200C94BE2863
:100030000C94B0280C94B1200C9480080C94800887
:100040000C948A280C9480080C9480080C948008E6
:100050000C9480080C94F90F0C9480080C94800880
:100060000C9480080C948008600A620A660A700A80
:100070006E0A6A0A6A0A6C0AC200B900B000100867
:10008000407E01013E01013E01013E01017E4040F2
:1000900018000720080808F80000002060A03FA012
:1000A0006020020202FF0202021010101F00000076
:1000B0000708FFDBBDB5B5CBFF0708FFBB9DADADA6
:1000C000B3FF0708FFFFF7FB81FFFF10100508F8DB
:1000D00078385888091003081C3E7F0D080710FF68
:1000E000818181F1E1C1FF4040404743410D08015A
:1000F00010FFFF11080310F1E1C14743410E000852
:10010000202121122060E0E0E0FEFE040201000157
:10011000037F7F21C2C4C4C040948400070301024E
:10012000040E080210FEFE7F7F0000000011000593
:10013000202060E0E0E00201000103C2C4C4C0402E
:100140000703010204010410090A0C4E6F742063B6
:10015000616C696272617465642120466F72FF632D
:10016000616C6962726174696F6E20636C616D703D
:10017000207468652033FF70696E7320746F676543
:100180007468657220616E64207374617274207784
:1001900069746820746865FF6B65792E2041636B14
:1001A0006E6F776C65646765207468652073656C35
:1001B000662D74657374207769746820746865208F
:1001C0006B65792077697468696EFF32732E2044FD
:1001D0006973636F6E6E6563742070696E732061FE
:1001E0006674657220746865FF6D65737361676519
:1001F000202269736F6C617465FF50726F626521B4
:10020000222069732073686F776E2E20536F667497
:100210007761726520616E6420646F63756D656ED1
:10022000746174696F6E2069732061742073766ED7
:100230003A2F2F206D696B726F636F6E74726F6CE3
:100240006C65722E206E65742F7472616E736973A3
:10025000746F72207465737465722000B90387032C
:1002600058032E030703E402C302A402880200001D
:10027000140029003E005300690080009700AE0082
:10028000C600DF00F80012012D014901650182015D
:10029000A001BE01DE01FF012102440268028E02BC
:1002A000B502DE020903350364039403C803FE03A9
:1002B00037047304B404F90443059305EA054906B9
:1002C000B3062907AE074808FF08DE090000000052
:1002D0000000000000000000000000001E2121219D
:1002E0001200807F0000007E4A4A4A34000000006D
:1002F0000000FC4020100804020100000001010180
:10030000010101010101010101017F0488D0E0F038
:10031000F8000000000000000000000000000000E5
:10032000000000FC94948400000102FC0000000026
:1003300000000000000000001E21212112E0C0800A
:100340004020100F000000C020202040000000FCD2
:1003500000009E9E040303030302000000202023EC
:10036000242525232020203F00007B7B214284047C
:1003700080C000000000000000000000000000003D
:10038000FC94948400040607070708F000000000AE
:10039000000000000000000000803F2121120C003E
:1003A000000000FF000000F0084848C80000FE0000
:1003B00000E7818181C1E1F181818101002020205C
:1003C0002121212020203F0000F3404040414347AD
:1003D00040407FC00000000000000000000000005E
:1003E0000000489494946400000000FF00000000A6
:1003F0000000000000000000000000003F2121126A
:100400000C0000FF000000F0084848D00000000089
:100410000000FEFE040404040404040700080808A5
:1004200009090908087F3E1C08087F7F202020203A
:10043000202020E00000000000000000000000007C
:100440000000000048949494640000FF0000000045
:1004500000000000000000FF003C0A090A3C0022E6
:1004600031292926000082868E9EBEFEFEBEDEEF6A
:10047000F6FAFEFEFAF2E2C2820000000808080462
:10048000027984A4A46800FF0000000000000000BE
:10049000000000000000000000000000000000FF5D
:1004A0000000F0282428F0001008FC0000000000E4
:1004B000000000000000003C0A090A3C00FF0000A8
:1004C000000000000000000000000000000000002C
:1004D000040C1C3C7CFF7C3C1C0C04000000000055
:1004E000009EA1A9A99A804323130B0703FF0303CE
:1004F0000303030300000000000000000000007878
:100500008484844800FF000000000000000000F028
:100510000804E2110909090909090909091121C297
:10052000040810E0000000010204040700000000BD
:1005300000804020108844231008040300000000BD
:1005400000000000000000FE0100FC0201000000AD
:100550000000000000000000000000000000007922
:1005600049497900000000000000000040F0101030
:100570001010F040000101010101010040FCF8F001
:10058000E040FC40000703010000070040FC40E0A1
:10059000F0F8FC40000700000103070040FCFC00ED
:1005A00000FCFC4000070700000707007884820277
:1005B00082847800060407000704060000FC00009F
:1005C00000F01000100F02040207040008080808D9
:1005D0000808F840020202020202030040F808087C
:1005E00008080808000302020202020240404040DC
:1005F000404040400000000000000000C0000080BB
:1006000000008000010202010202010200800000DD
:10061000800000C00201020201020201000000008D
:1006200000000000000000000000000000000000CA
:1006300000000000000000000000000000000000BA
:1006400000000000000000000000000000000000AA
:10065000000000000000000000000000000000009A
:100660000000000000000000000000000000F8048E
:1006700002FE02000C06050404070C0002FE020044
:1006800002FE02000407040404170C0002FE02F03C
:1006900002FE02000407040704170C000000E0102B
:1006A00008F808000C06050404070C00804028F830
:1006B000284080000102141F1402010008F80800FD
:1006C00008F808000407040404170C0008F808C020
:1006D00008F808000407040704170C00001018FCB1
:1006E000FC1810000001010101010100001018FCBC
:1006F000181000000000000100000000000000FCD5
:1007000000000000000101010101000040404040E4
:1007100050E0400000000000010000002070A82010
:10072000202020000000000000000000E000000089
:100730000000000001010101010101002070A8205A
:1007400020A87020000000000000000000C0F0FCA5
:10075000F0C0000000000000000000000C3CFCFCA9
:10076000FC3C0C0000000000000000000000000045
:10077000000000000000000000000000000000FE7B
:10078000000000000000000D0000000000160E0038
:1007900000160E0000000000000000000010FC1019
:1007A00010FC10000001070101070100001824FEE1
:1007B000448800000003040F040300000C12924C54
:1007C0002010080002010006090906008C5222527E
:1007D0008C40C00001020404040102000000001665
:1007E0000E00000000000000000000000000F00803
:1007F00004020000000001020408000000000204DE
:1008000008F0000000000804020100004850E0FC6D
:10081000E05048000201000700010200404040F89B
:100820004040400000000003000000000000000005
:1008300000000000000000160E0000004040404094
:1008400040404000000000000000000000000000E8
:1008500000000000000000060600000000008040CC
:10086000201008000201000000000000F80402024D
:100870000204F8000102040404020100000804FE5E
:1008800002000000000404070404000008040282BF
:1008900042241800040605040404060006020202AD
:1008A000122AC6000102040404020100C0A09E80B6
:1008B00080FC800000000000040704003E120A0AC9
:1008C0000A12E6000102040404020100F8442212A4
:1008D0001224C00001020404040201000E02C262DC
:1008E000321A0E0000000700000000008854222287
:1008F0002254880001020404040201003844828268
:100900004224F80000020404040201000000001860
:10091000180000000000000606000000000000189B
:1009200018000000000000160E0000000040A0109B
:10093000080402000000000102040800002020203A
:100940002020200000010101010101000002040833
:1009500010A04000000804020100000018040282F8
:10096000422418000000000D00000000F804D252DC
:10097000E204F800010205050405040200F0080481
:1009800002FE0200040705010507040002FE222200
:10099000225488000407040404020100F80402023F
:1009A00002048E00010204040402010002FE02029D
:1009B0000204F800040704040402010002FE2222DB
:1009C00072020E00040704040404070002FE22223F
:1009D00072020E000407040400000000F80402C2C2
:1009E0004244DE00010204040201070002FE22204C
:1009F00022FE02000407040004070400000202FEB5
:100A000002020000000404070404000000000002C9
:100A100002FE0200000304040403000002FE6290D0
:100A200008040200040704000106040002FE02009C
:100A300000000000040704040404070002FE38E07C
:100A400038FE0200040704000407040002FE1A60D6
:100A500082FE02000407040005070400F8040202F5
:100A60000204F800010204040402010002FE4242F2
:100A7000422418000407040000000000F8040202E9
:100A80008204F800010204040405020402FE42C2CA
:100A900042241800040704000106040088142222DE
:100AA00022448E0001020404040201000E0202FE30
:100AB00002020E00000404070404000002FE02000B
:100AC00002FE0200000304040403000002FE820090
:100AD00082FE0200000003060300000002FE02F096
:100AE00002FE0200000107030701000002DE72207F
:100AF00072DE02000407040004070400027EC280C4
:100B0000C27E020000000407040000000E824222A0
:100B1000120A0600070404040404070000FE02028F
:100B20000200000000070404040000000810204038
:100B3000800000000000000000010200000002022E
:100B400002FE000000000404040700001008040274
:100B50000408100000000000000000000000000079
:100B60000000000008080808080808000000000E3F
:100B70001600000000000000000000009048282837
:100B80004890E000010204040402070002FE10087D
:100B90000810E0000407020404020100E010080845
:100BA000081038000102040404020100E0100808E3
:100BB00010FE02000102040402070400E05048484D
:100BC00048506000010204040402010020F82422BD
:100BD000020C00000407040400000000E0100808F4
:100BE00010F80800000912120907000002FE1008A0
:100BF00008F000000407040004070400001016F6C3
:100C000000000000000404070404000000001016A7
:100C100016F00000000C1010100F000002FEC020A3
:100C20001008180004070401020404000000020276
:100C3000FE000000000004040704040008F808F0A7
:100C400008F00000040700070007040008F820105F
:100C500008F000000407040004070400E01008087E
:100C60000810E000010204040402010008F8100862
:100C70000810E000101F120404020100E010080830
:100C800010F8080001020404121F100008F82010D8
:100C9000080830000407040000000000102848483D
:100CA0004890380001020404040201000808FE080C
:100CB00008000000000003040404020008F8080013
:100CC00008F80800000304040207040008F888007C
:100CD00088F80800000003060300000008F808C0B8
:100CE00008F80800000306030603000008B8E04007
:100CF000E0B80800040700000007040008F8080036
:100D000008F8080000091212110F0000180888489E
:100D100028180800060504040404060040B01C025C
:100D2000020000000001070808000000000000FEAB
:100D3000000000000000001F000000000000020290
:100D40001CB0400000000808070100000C0202046B
:100D5000080804020000000000000000C020100885
:100D60001020C000010101010101010002FE222248
:100D700022428600040704040402010002FE02026B
:100D800002020E0004070400000000000AFA48E80E
:100D90000A1A0000040704040404070002DE60FECF
:100DA00060DE020004070007000704008E04020250
:100DB00022548800010204040402010002FEC070F3
:100DC0001CFE0200040705000407040004FCC264C2
:100DD00032FC0400040704000407040000F00804C7
:100DE00002FE0200040700000407040002FE0202E3
:100DF00002FE02000407040004070400027E828051
:100E000042FE0200000204040403000070888AFE0F
:100E10008A8870000000040704000000027E8280BF
:100E200042FE0200000000000407040002FE02F07F
:100E300002FE020004070407040704000E02FE126B
:100E40000808F000040407040402010002FE12086E
:100E5000F000FE0004070404030007008E04027281
:100E60002224F800010204040402010002FE20FC16
:100E70000202FC000407000304040300182442C219
:100E800042FE02000406010004070400F048242486
:100E900022428000010204040402010008F84848CC
:100EA0004850A000040704040402010008F80808E0
:100EB000083800000407040000000000E0524A481F
:100EC0004A526000010204040402010008B8C0F89C
:100ED000C0B80800040700070007040038100848DD
:100EE00048A81000010204040402010008F880C0B0
:100EF00060F80800040705000407040008F882C42D
:100F000062F80800040705000407040008F840A080
:100F100010081800040700000106040000C020109B
:100F200008F80800040700000407040008F860C07F
:100F300060F80800040704010407040008F84840AA
:100F400048F80800040704000407040008F808082B
:100F500008F808000407040004070400380808F82B
:100F600008083800000004070400000008F8080022
:100F700088F80800000001010407040008F808C010
:100F800008F8080004070407040704003808F848B4
:100F90002020C000000407040402010008F84820D3
:100FA000C000F800040704040300070008F8482004
:100FB000204080000407040404020100381008E8FF
:100FC0004850E000010204040402010008F840F067
:100FD0000808F000040700030404030060900808F8
:100FE00008F80800000405030507040000000000DD
:100FF00000000000000000000000000000000000F1
:1010000000000000000000000000000000000000E0
:1010100000000000000000000000000000000000D0
:1010200000000000000000000000000000000000C0
:1010300000000000000000000000000000000000B0
:1010400000000000000000000000000000000000A0
:101050000000000000000000000000000000000090
:101060000000000000000000000000000000000080
:101070000000000000000000000000000000000070
:101080000000000000000000000000000000000060
:101090000000000000000000000000000000000050
:1010A0000000000000000000000000000000000040
:1010B0000000000000000000000000000000000030
:1010C0000000000000000000000000000000000020
:1010D00000000000000000000000000011241FBEFE
:1010E000CFEFD8E0DEBFCDBF11E0A0E0B1E001C09E
:1010F0001D92AE3CB107E1F70E9413370C94753F87
:101100000C9400005A98529A5898509A5D98559AA3
:101110005C98549A67FD5C9A20D066FD5C9A1DD05D
:1011200065FD5C9A1AD064FD5C9A17D063FD5C9AE9
:1011300014D062FD5C9A11D061FD5C9A0ED060FD06
:101140005C9A0BD0589A58985C98549A80FD5C9A97
:1011500069D55D9A67D55D9860C55A9A5A9A5A982A
:101160005C98089580FD5B9880FF5B9A81FD59989B
:1011700081FF599A539A519A089580E21DD581E0D2
:101180008093B50110924E0182E080930401109289
:101190000F01089580E210D582E08093B50110928E
:1011A0004E0184E08093040110920F01089580E2C3
:1011B00003D583E08093B50110924E0186E08093C1
:1011C000040110920F01089560934E018093040171
:1011D000660F660F660F60930F010895A1E0B0E0FF
:1011E000E4EFF8E00C94B13E682F80E26983E4D428
:1011F0009091B5019F5F9093B5016981943038F06B
:1012000083E08093B50181E08093510102C0109288
:1012100051018091B501880FD7DF2196E2E00C944F
:10122000CD3EDCDF45C680914E0180930101809167
:10123000B50180930301089580910301609101013C
:10124000880FC2CF682F80E05DCF8EE3FBCF8DE0AB
:10125000B3D48AE0B1C4FBDF1092B50110924E0105
:101260001092040110920F010895CF93DF9383E051
:1012700079DFC0E080E4E6DF8C2F886BE3DFD0E429
:1012800060E081E03FDFD150D9F7CF5FC83091F700
:10129000E2DFDF91CF9108958AE0C6D483E062DF78
:1012A00080ECD0DFE2DF8FE3CDDF8AE0BDC40895BC
:1012B000582F28E030E090E841E080E0642F65237B
:1012C00009F0892B440F96952150310921153105DC
:1012D000A9F70895A0E0B0E0E0E7F9E00C94A23EA1
:1012E000EC01F62E39E7361708F474C0483308F0DD
:1012F00071C0142F1695169516958E2D90E0840FBB
:10130000911D019733E0959587953A95E1F7322F36
:101310003270432E21FF0BC0AC015527411B5109F0
:10132000049FB001059F700D1124C60FD71FE82E32
:1013300087E08E1510F487E0E82E3F2D3F73306470
:10134000532E2170322EA02EB12C450181E0881A37
:101350009108E11608F439C083E004DF812F886B1F
:1013600071DF3FE33F1510F081E001C082E0FADE5B
:10137000852D68DFC12CD12C3E01680C791CC0166C
:10138000D8F48F2D8C0D803421F482E0EBDE80E4E4
:1013900059DF332021F0F301EC19FD0903C0FE01F0
:1013A000EC0DFD1D8491411083DF682F81E0AADEE2
:1013B0008FEFC81AD80AE3CF442019F0CA19DB0905
:1013C00002C0CA0DDB1D1F5FC4CF8091040187706E
:1013D000886B38DFCDB7DEB7E1E10C94BE3EEF920B
:1013E0000F93282F8F7030E6839FC0011124845300
:1013F0009D4F322F307324FF02C028E001C028E443
:1014000020931001303218F01092000108C020E241
:1014100020930001209110012D5E2093100140E2E5
:10142000E42E08E120E0409100016091100152DFBC
:101430000F91EF900895EF920F93262FFC01649186
:1014400031964491FC0132960491FC013396E4906C
:1014500050910001450F50911001650F04963ADF3D
:101460000F91EF90089560E0E6CFEF920F93CF9346
:10147000C82F80914E018F5F80934E0140910401EF
:10148000440F440F440F20E1C29FC001112450E1DA
:10149000E52E08E020E060910F0184599A4F1ADF91
:1014A00080910F01885F80930F014C2F50E0FA016B
:1014B0003197E830F105D0F4EC5CFF4F0C94D83E46
:1014C0008EE305C08CE778D38CE311C08CE774D32E
:1014D0008CE70DC082E50BC08DE209C085E707C02F
:1014E0008FE46AD388E668D38DE601C08C2F64D37D
:1014F000CF910F91EF9008958F5CB7CF80E2B5CF79
:10150000A1E0B0E0E6E8FAE00C94B13E18162CF445
:101510008983F4DF89818150F9CF2196E2E00C9430
:10152000CD3E90914E0180E1891BEACF94DEF9DF38
:1015300092CE23DEF6DF21CE8DE397CFCF93DF93DC
:10154000EC018991882311F090DFFBCFDF91CF91DF
:101550000895CF93DF93EC01CE010E94373F982F7F
:101560009F7719F082DF2196F7CFDF91CF91089511
:10157000EF920F93FC0104913196E4900296AADE5B
:101580000F91EF9008950F9383EA91E0E2DF40918D
:1015900099014D3F64F460918701709188018091B9
:1015A000890190918A0103E026E4E3D002C08FE331
:1015B0005CDF0F91089597FF09C08F939F938DE291
:1015C00054DF9F918F91909581959F4F6AE271E0D2
:1015D0004AE050E00E94233FB1CFEF92FF920F9379
:1015E0001F93182F062FF42E85E891E0B2DFEE242A
:1015F000E0914F01F09150018685E81611F4812F9A
:1016000009C08485E81611F4802F04C08585E8168A
:1016100011F48F2D2ADFE3948E2D833049F71F912B
:101620000F91FF90EF900895EF92FF920F931F9309
:10163000182F062FF42E80E0F4DD8BE891E089DF8F
:10164000EE248E2D59DF78DFE0914F01F0915001AB
:101650008685E81611F4812F09C08485E81611F4F7
:10166000802F04C08585E81611F48F2DFEDE46DF3D
:10167000E3948E2D833029F71F910F91FF90EF9007
:101680000895682F80E092E0662309F491E06230CB
:1016900009F481E008950F93082FE6EBF1E0880F3D
:1016A000880FE80FF11D608171818281938164361A
:1016B00071058105910578F420910201222359F4E6
:1016C000802FDFDF692F0E943624BC0180E090E08C
:1016D0004EEF03E002C04FEF04E024E04AD00EDFFB
:1016E0000F910895863058F4E9EAF1E0E80FF11D12
:1016F000E80FF11D8081918163E00DD1FFCE089547
:101700001F93182F80918201882319F0F7DE80E063
:10171000ACDE33DD8CE791E01CDF812F82958F708A
:10172000E1DF812F8F70DEDF1F910895CF93DF936C
:101730008091110182958F70CDE9D1E0C80FD11D44
:101740008881DADE8AE491E004DF8E81D5DE8AE4E6
:1017500091E0FFDECDE9D1E0809111018370C80FE7
:10176000D11D8E81C9DE80911101CADFDF91CF9139
:101770000895A0E0B0E0EFEBFBE00C94A33E142F43
:10178000C22F6B017C01F7FE0AC08DE26EDEF09481
:10179000E094D094C094C11CD11CE11CF11C033016
:1017A00009F4A6C0043009F4AAC0053051F006308F
:1017B00081F00730B1F074E6872E912CA12CB12C6A
:1017C00017C060EA862E66E8962EAA24A394B12C50
:1017D0000FC050E4852E52E4952E5FE0A52EB12C6B
:1017E00007C040E8842E46E9942E48E9A42EB12C87
:1017F0003AE0432E512C612C712CC814D904EA0410
:10180000FB0470F0C701B6016B5F7F4F8F4F9F4F96
:10181000A30192010E94053E69017A011F5FEDCF8D
:101820008EE0810FDBEA8D9FA12C1124A69486E027
:10183000811B8D9FD12D1124D6959D2F990F9D0F22
:10184000D82FD91B2AE030E04FE351E0C701B601A1
:101850000E94003FEFE3F1E0DF010D900020E9F787
:101860008D01015011090F531140B02EA8015527C9
:101870002D2F30E02C5F3F4F2417350714F4A3942D
:10188000DD5F8A2D90E08A5E9F4F0E94373FA82E31
:10189000C02ECD1A1C1434F08EE2E7DDCC2011F0FE
:1018A00080E3E3DDD11102C0CC24CA942FE3E22E01
:1018B00021E0F22E8701DD24C7FCD094802F8E1901
:1018C0008B1568F4F80181918F01CFDD98012F53BA
:1018D00031402C153D0591F78EE2C7DDEFCFAA20F0
:1018E00011F08A2DC2DDCC2389F08C2FBEDD0EC015
:1018F00098EE892E93E0992EA12CB12C79CF80E11E
:10190000882E87E2982EA12CB12C72CFCDB7DEB7EE
:10191000E0E10C94BF3E0F93062FBC0180E090E005
:1019200026E54DEF26DF0F910895E82FF0E0EE0F4A
:10193000FF1FE858FF4F8591949120910001420FBD
:1019400020911001620F20E013CECF93DF93C82FB8
:10195000D62FE0914F01F091500148E16EE186856C
:10196000E4DFE0914F01F09150014D2F6C2F848501
:10197000DCDFE0914F01F091500140E06EE18585A0
:10198000D4DFDF91CF910895CF936FDC80E327DD23
:1019900062E080E990E04FDD80E221DD8BEC90E0B9
:1019A00062DD60E085E010DC88E991E0D2DD68E08E
:1019B00085E00ADC80E991E0CCDD88E99AE312D287
:1019C00054DC83E10CDD83E00ADD84ED90E04BDD47
:1019D00061E082E0F9DB8EE448DD8DE246DD82EBFA
:1019E00091E0B7DD69E082E0EFDB80E53EDD8DE28E
:1019F0003CDD82EB91E0ADDD88E99AE3F3D135DCA3
:101A000081E3EDDC81E2EBDC8DE291E02CDD60E056
:101A100085E0DADB8EE429DD8DE227DD85E425DD56
:101A20008CEA91E096DD68E086E0CEDB80E51DDDA6
:101A30008DE21BDD85E419DD8CEA91E08ADD88E921
:101A40009AE3D0D112DC81E1CADC81E291E00BDDC6
:101A500081E0C5DC8DEF90E006DD60E081E0B4DB85
:101A60008EE403DD8DE201DD84E4FFDC8CEA91E0AD
:101A700070DD68E082E0A8DB80E5F7DC8DE2F5DC74
:101A800084E4F3DC8CEA91E064DD88E99AE3AAD18E
:101A9000ECDB82E3A4DC82E2A2DC83EF90E0E3DC17
:101AA00060E085E091DB8EE4E0DC8DE2DEDC85E465
:101AB000DCDC87EB91E04DDD68E086E085DB80E5EE
:101AC000D4DC8DE2D2DC85E4D0DC87EB91E041DD33
:101AD00088E99AE387D1C9DB82E181DC8DEE90E071
:101AE000C2DC82E07CDC8BED90E0BDDC61E081E07B
:101AF0006BDB8EE4BADC8DE2B8DC84E4B6DC87EB29
:101B000091E027DD69E082E05FDB80E5AEDC8DE21D
:101B1000ACDC84E4AADC87EB91E01BDD88E99AE386
:101B200061D1A3DB98DB8BE191E013DD26DB86E15D
:101B300091E00FDD2FDB8EE691E00BDD38DB8AE4F0
:101B400091E007DDDBDC86E491E003DDC0E08C2F73
:101B50008F7071F48C2F8F7321F488E99AE342D14E
:101B600084DB60E08C2F86958695869586702CDBCD
:101B700080E28C0F7ADCCF5FCF3549F788E99AE3B2
:101B800031D173DBC0E08C2F8F7031F460E08C2F8B
:101B900082958F70880F18DBC83210F480E801C07E
:101BA00088EE8C0F62DCCF5FCF3269F788E99AE369
:101BB00019D15BDBCF9108958F932F932AE0809505
:101BC0003B9A089410F4439802C0439A000020D036
:101BD00027D086952A95B1F72F918F91089503D03C
:101BE00002D001D000D000D003D002D001D000D06C
:101BF000A89500D003D002D001D000D000D003D0EF
:101C000002D001D000D000D003D002D001D000D04B
:101C100000D003D002D001D000D000D003D002D039
:101C200001D000D00000089590E0893C28F0885C45
:101C300048EC849FC0011124009709F40895209175
:101C40008100277019F0DBDF019718C08130910502
:101C500019F002973EE303C037E180E090E0209165
:101C6000B200230F2093B30042E04093700027E0BE
:101C700023BF889526E023BF10927000A895DCCF83
:101C80008F9384E0D1DF07C08F9382E0CDDF03C064
:101C90008F9381E0C9DF8F911F93182F10641093E9
:101CA0007C00E12FE07880913501E81759F0E0934E
:101CB0003501AEDF8EE980937A0083E083BF88959B
:101CC00082E083BF20E030E0A901E0E01FC08EE9A0
:101CD00080937A0083E083BF889582E083BF609120
:101CE000780070917900260F371F411D511DE43097
:101CF00061F480913701803041F084E02030380772
:101D000020F417FD02C01068CACFEF5F8091340144
:101D1000E817E8F2609138017091390117FF04C0AB
:101D2000609136017091370180E090E00E94CF3DD4
:101D30002FEF33E040E050E00E94053EB901CA01B8
:101D40002091340130E040E050E00E94053EC9019E
:101D50001F91089589B183FB882780F94999826092
:101D600090911C01943050F09EE090931801809364
:101D7000190110921D0191E090931C01E0911C014A
:101D8000AE2FB0E0A85EBE4F9C91981721F1811153
:101D90001AC0A3E0AE0FA37020911D01923041F450
:101DA000B0E0A85EBE4F9C91933069F42F5F09C0EC
:101DB000913049F4B0E0A85EBE4F9C91933019F485
:101DC000215020931D01EF5FE370E0931C01F0E0D0
:101DD000E85EFE4F808380911D0187FD8195809391
:101DE0001E010895A0E0B0E0E8EFFEE00C94AA3EEA
:101DF000D82EC92E5398519806DF10921D01E091FC
:101E00001C01F0E03196E370FF27E85EFE4F80EFA3
:101E10008083C5E6D9E19EDF4F9905C0F8DED15039
:101E2000D1F7C150B9F7CD2DDC2DF12C05E510E02F
:101E3000BB24B394D7FD36C082E3E82E8BDFE7DE08
:101E4000EA94E1F7000F4F9B0F5F0F730F3349F4D4
:101E5000111103C0CD2DDC2D14E01F5F163928F0C1
:101E600021C0011102C011111DC0A8951C161D062C
:101E70002CF42A97209711F4CFEFDFEF80911E0109
:101E8000882339F0F39480918301811102C0B092CC
:101E9000830184E18F1570F680911D01811102C0CC
:101EA000F12CC8CF812FCDB7DEB7E9E00C94C63E48
:101EB000CF93B9D9C82F80915101882301F1813086
:101EC00051F4C33041F46FE086E07ED98BE2CDDA85
:101ED0006FE086E079D980E49FE184DF811104C05E
:101EE00080911E018111F7CFC33041F480915101DF
:101EF000813021F460E086E067D913DB9DD9CF9172
:101F000008958FE693E00E94373F382F80E793E0F3
:101F10000E94373F20913C01230F30913D01381F33
:101F2000209321013093220183E0283E380720F0DE
:101F3000C901885E934002C080E090E062E370E0F7
:101F40000E94DE3D683008F067E0ECE5F2E0E60F65
:101F5000F11DE60FF11D459155912591359162E3F3
:101F6000681B421B530B649FC001659F900D112499
:101F7000499662E370E00E94DE3D620F731F70932A
:101F800086016093850181E793E00E94373F99279E
:101F900087FD909560913C0170913D01860F971FE0
:101FA0009093370180933601909381018093800153
:101FB0000895CF93DF9324E130E0B9010E94DE3D24
:101FC000DC01EEE6F2E0E60FF71FE60FF71FC59122
:101FD000D591459155914C1B4A9FC0011124B901DF
:101FE0000E94DE3D6C0F7D1FCB01DF91CF910895E4
:101FF00018951895109225011092230110927B01DB
:10200000109261011092240110924D0110928201F0
:102010001092660110926701109268011092970168
:10202000109298011092020110928B0110928C0173
:1020300010928D0110928E0184EF80939A01089581
:10204000A1E0B0E0E6E2F0E10C94AF3E98E097B991
:1020500098B9E82FF0E0EB5BFE4F949195B9262FED
:10206000281BE20FF11D27FDFA95E491E92BE4B955
:10207000698312DE8C016981862F0EDE2091380182
:102080003091390136952795A90143505109B8017E
:10209000625E7F4F4617570778F4255E3F4F021761
:1020A000130750F4BC01625E7F4F4617570720F4B8
:1020B00041E08217930708F040E014B8842F21967E
:1020C000E4E00C94CB3ECF9361E080E0B9DFC82F11
:1020D00062E080E0B5DFC80F62E081E0B1DF8C0F25
:1020E000CF910895A3E1B0E0E8E7F0E10C94A13EC0
:1020F000182F10922501807FA9F4E5DF833009F0C5
:10210000CEC3B3D88BE792E024DA37D88FE3ADD9CA
:1021100080ED97E067DE8B30C8F4A7D888E091E0C7
:1021200018DABDC3A6E9FA2E00E09FD881ED91E050
:1021300010DAC9DF833021F40F5F043010F006C0DD
:1021400000E088E271DDFA9481F76CC016D884EC67
:1021500090E0FFD960E089E493E00E94443F60E0B2
:102160008AE493E00E94443F60E088E493E00E94A8
:10217000443F60E082E00E9436245C019A838983B8
:1021800061E082E00E9436246C019C838B8360E0D6
:1021900081E00E9436247C019E838D83B5018827CF
:1021A00077FD8095982F03E020E24EEFE2DAB6014A
:1021B000882777FD8095982F20E24EEFDADAB70175
:1021C000882777FD8095982F24E04EEFD2DA2AE514
:1021D000A216B10424F084E190E09A838983698196
:1021E00089E493E00E94443F8AE5C816D10424F0B4
:1021F00084E190E09C838B836B818AE493E00E946E
:10220000443F9AE5E916F10424F084E190E09E83CE
:102210008D836D8188E493E00E94443F82E0809347
:10222000510146DE1F701F87113009F050C001E0D8
:1022300010E058EB252E52ED352E57E4452E512C4B
:1022400062E0962E78E0A72EECE06E2EF4ECCF2E16
:10225000F6E3DF2EE12CF12C3CC0839423E028151B
:1022600070F167D963D984E500D9C801AFD946D9DF
:10227000E1E0BE1233C00E94382187EF90E069D9B7
:1022800064E080913C0190913D0145DB0E94BD08D6
:1022900082EF90E05ED9809185019091860196D978
:1022A0008EEB80933401A7B8A8B814B815B888EE9F
:1022B00093E098DDF4E0BF1681F28B3070F288EE87
:1022C00093E090DD0F5F1F4F0830110511F418E700
:1022D0001CC1812CB02EB0E27B2EC3CFF2E0BF1226
:1022E00041C02091380130913901A8E5BBE10E943D
:1022F000AA3DA70196010E94273E81E085B985E0AD
:1023000084B980E0288B398B4A8B5B8BB9DC2889B8
:1023100039894A895B89821B930B9A83898381E17E
:1023200084B980E0288B398B4A8B5B8BA9DC2889A8
:1023300039894A895B89821B930B9C838B8384E058
:1023400085B984E184B981E0288B398B4A8B5B8B1A
:1023500097DC28893989821B930B9E838D838CEDB2
:1023600090E0B7C093E0B91229C095B8EAE0E4B9AB
:1023700080E086DC2091380130913901369527952F
:1023800038872F83821B930B9A838983F2E2F4B9F7
:1023900080E076DC2F813885821B930B9C838B83B6
:1023A000A5B828E224B981E06BDC2F813885821B37
:1023B000930B9E838D838EEC90E08BC084E0B812EB
:1023C00007C08BE692E0C5D87EDE811165C287C06A
:1023D00095E0B91213C015B894B880E051DC9A8327
:1023E0008983A4B881E04CDC9C838B8374B882E041
:1023F00047DC9E838D838EEE90E06BC0E6E0BE12DC
:1024000027C094B895B880E03BDC2091380130912A
:102410003901821B930B9A838983A4B8A5B881E004
:102420002FDC2091380130913901821B930B9C8362
:102430008B8374B875B882E023DC20913801309129
:102440003901821B930B9E838D838AEE90E041C0FD
:10245000F7E0BF1240C02091380130913901A8E562
:10246000BBE10E94AA3DA20191010E94053E95B8E0
:1024700083E084B980E0288B398B4A8B5B8B00DC4E
:10248000288939894A895B89821B930B9A838983BE
:10249000A5B864B881E0288B398B4A8B5B8BF0DB65
:1024A000288939894A895B89821B930B9C838B839A
:1024B00075B890E394B982E0288B398B4A8B5B8B9B
:1024C000DFDB28893989821B930B9E838D8388ECFF
:1024D00090E03FD804C0E1E0BE1609F4E4CE0E94CB
:1024E000BD0889819A8167D809D88B819C8163D87E
:1024F00005D88D819E815FD8D6CE1BD88BE692E021
:1025000028D884E691DB115019F0DDDD8111F5CF7B
:102510000E9435098DEB90E01CD860913A017091D2
:102520003B0180E090E003E024E04FEF22D90E94DD
:10253000BD0886EB90E00DD860914B0170914C0185
:1025400080E090E024E04FEF14D982E080935101C5
:10255000AFDC109225010E94350982EB90E00E94C9
:10256000A90A60E082E00E94DF1D00918F011091B6
:1025700090011C870B8761E082E00E94DF1DC09004
:102580008F01D0909001DE86CD8660E081E00E94D0
:10259000DF1DE0908F01F0909001FE82ED8262E0FD
:1025A00080E00E94DF1D80918F01909190019C83BB
:1025B0008B8362E081E00E94DF1D80918F0190910A
:1025C00090019A87898761E080E00E94DF1D8091F9
:1025D0008F01909190019A838983EF85E13021F0FA
:1025E00020914A01223021F4029698878F8304C0FB
:1025F00098878F8310924A01B801882777FD8095CC
:10260000982F03E020E240E0B4D8B601882777FD98
:102610008095982F20E240E0ACD8B701882777FD5D
:102620008095982F26E444EFA4D86E01FFE0CF0EEA
:10263000D11CFE013196819191910A97853B9105BC
:10264000F0F4EC15FD05B9F7A8E6EA2EA3E0FA2EA2
:102650008E010F5F1F4FF80160810E5F1F4F6E5E8E
:10266000C7010E94443FFFEFEF1AFF0A0C151D053A
:1026700091F70E94BD0888EC91E00E94A90A82E0CF
:102680008093510115DC0E9453340E94E0362F855F
:10269000213029F080914A01823009F0E7C0E0E45E
:1026A000BE2E10E0FAE0CF2ED12CE12CF12C0E94AE
:1026B000350980E00E947C0A8EE691E00E94A90A1A
:1026C00082E00E947C0A8EE090E00E94A90A1092AB
:1026D000250160E082E00E94DF1D00919901609178
:1026E0008701709188018091890190918A01073F4B
:1026F00044F4A70196010E94053E0F5FB901CA018B
:10270000F6CF0093990160938701709388018093BD
:10271000890190938A01073F09F092C0DC01CB0147
:102720000A97A109B109863E9545A105B10508F0B2
:1027300087C060919B0170919C01CB018B569F4F8C
:102740008B32914008F07CC01F5F153008F479C0CF
:102750008FE693E00E94523F0E94350987E090E0A7
:102760000E94A90A80919B0190919C010E94DB0A22
:10277000C8DB88E088B989E087B980E284B982E063
:102780008BDA853D9340DCF714B810923701109234
:10279000360182E081DA8C01809180019091810183
:1027A000909337018093360182E076DA7C01EE0C5B
:1027B000FF1C109237011092360182E06DDAC09052
:1027C0008001D0908101D0923701C0923601080F6C
:1027D000191F0E191F090E94BD0880E090E00E9499
:1027E000A90A81E793E00E94373F73E0B72EB80E45
:1027F0009601D8010E94B93D9701442737FD4095C5
:10280000542F0E94273EB20E6B2D81E793E00E9469
:10281000443F8B2D992787FD90950E94DB0A71DB41
:1028200082E08093510144DB10924A0188E693E0F4
:102830000E94373F682F8BE693E00E94443F16C00A
:1028400010E00E94BD08609187017091880180911D
:10285000890190918A0104E026E4409199010E9447
:10286000B90B88E2E1D9BA9409F021CF89E18093CC
:1028700034010E94350988E091E00E94A90A0E9473
:10288000BD0882E692E00E94A90A1092250182E02A
:10289000809351010DDB03C052E0852E20CE63965C
:1028A000E2E10C94BD3E80914A0181110DC088E6A1
:1028B00093E00E94373F61E0680F8BE693E00E944F
:1028C000443F81E080934A010895CF92DF92FF92C6
:1028D0000F931F93CF93DF931F92CDB7DEB7E82FEF
:1028E000F0E0E85BFE4FE491E8B9E860E7B915B8BD
:1028F000E62FF0E0EB5BFE4FE491E4B908E813E16A
:10290000FE2EFF0C862F6983BBD96C01F4B8698158
:102910008017910710F48C01F5CF009701F10E9408
:10292000D7088EE491E00E94A90AD60120EA36E891
:1029300041E050E00E94BF3D28E937EB40E050E025
:102940000E94053ECA01B9018827992702E021E4C7
:1029500047EF0E94B90B88E087B988B914B80F9087
:10296000DF91CF911F910F91FF90DF90CF9008954D
:102970000F931F93CF93DF9385E08ED985E088D99D
:10298000EC018C01000F111F000F111F0A561F4F81
:1029900010923E01043883E0180750F48CEB91E06C
:1029A0000E94A90A0E94910A81E080933E0126C0FC
:1029B0008BEC91E00E94A90A62E0C8010E948B0C96
:1029C0000E947E0ACA3F86E0D80790F4C333D640FF
:1029D00060F486ED92E00E94A90A0E94910A8DECB3
:1029E00023D95E988AEC20D909C08DED92E002C00F
:1029F00088EC91E00E94A90A0E94910ADF91CF9190
:102A00001F910F910895AAE1B0E0E9E0F5E10C947F
:102A1000A13EB82EA62E842EA895E62FF0E0EB5B03
:102A2000FE4F5490339624912E87E42FF0E0EB5B19
:102A3000FE4F7490E82FF0E0EB5BFE4F94903396DE
:102A40004490342D38603D872860622E75B8472D3C
:102A500045294B8344B937B948B8862F19D9988787
:102A60008F8354B88A2D14D91C0114B8C8D815B84E
:102A70005B8154B98A2D0CD9AF81B8858A179B0721
:102A800028F5805E9E4FA817B90708F4E8C467B818
:102A900088E088B995B8892D872984B9E0913801F3
:102AA000F0913901F887EF838B2DF2D82F8138858B
:102AB000281B390B38872F8394B820903801309029
:102AC00039018B2DE5D8281A390A08C02F8138859D
:102AD000205E3E4F8217930708F4C1C42091610124
:102AE00080917B0190E0820F911D02974CF0213084
:102AF00009F0B5C490915E01809178019813AFC43C
:102B0000172D110F4F8158854437510508F4A4C083
:102B1000CA01880F991F44962816390608F09CC0F0
:102B20005D8557B948B8812F852984B98A2DACD8DD
:102B30007C01882DB1D86C0115B98A2DA5D89701D3
:102B4000295A3D4F192928173907D0F588E088B947
:102B500067B814B915B9882D97D888349F4028F0E4
:102B600084E08093250182E204C084E08093250103
:102B700084E280932401F0925701E0925601CE1432
:102B8000DF0440F4C7018C199D0990935D01809387
:102B90005C0104C010925D0110925C019701A0E1FC
:102BA000B7E20E94AA3D20911F013091200140E030
:102BB00050E00E94053E309359012093580146C4CD
:102BC00088E088B967B814B915B98B2D5DD88C0128
:102BD000882D62D87C0195B88B2D56D8895A9D4F87
:102BE0008017910708F03BC448B8BD85B7B9882D58
:102BF0004BD8813D934028F484E08093250182E303
:102C000004C084E08093250184E3809324010E15A1
:102C10001F0538F4E01AF10AF0927701E09276018C
:102C200004C0109277011092760120913801309102
:102C30003901201B310BA0E1B7E20E94AA3D20918F
:102C400026013091270140E050E00E94053E30937C
:102C5000730120937201BFC188E088B967B895B845
:102C6000092D072904B98B2D13D89A878987E090FD
:102C70003801F0903901882D0FD89E838D830A97F3
:102C8000A0F514B881E00E94140E812F892984B91F
:102C90008B2D0E94480E9A878987209138013091A8
:102CA0003901281B390B3A832983882D0E944C0E49
:102CB0009E838D8380912601909127019C0140E0A5
:102CC00050E060E677EB87E490E00E94053EA98142
:102CD000BA810E94BF3DAD81BE819D0140E050E0C0
:102CE0000E94053E69017A0112C0F70129853A85E3
:102CF000E21BF30BFA83E983CF014D815E81841BD4
:102D0000950BBA010E94DE3D6B01E12CF12C14B849
:102D100015B848B85D8557B981E00E94140E89EB5B
:102D2000281687E0380608F09AC39B8194B98A2D4B
:102D30000E94480E8F359D4008F453C114B881E0BD
:102D40000E94140EBB81B4B981E00E94140EE12FE1
:102D5000E529EA8BE4B98A2D0E94480E9A8F898F63
:102D6000882D0E944C0E998B888B8B2D0E944C0EC7
:102D70009C878B8728893989213D374008F4B3C067
:102D800083E0809325018DE080932401898D9A8DC5
:102D90002816390620F48C010219130902C0098D86
:102DA0001A8D40901F0150902001612C712C60E61B
:102DB00077EB87E490E0A30192010E94053ED801E1
:102DC0000E94BF3DA889B9898D0120E030E0A901AA
:102DD00098010E94053E80917B01882369F08091D3
:102DE0006C0190916D01A0916E01B0916F018217FD
:102DF0009307A407B50710F520936C0130936D017C
:102E000040936E0150936F01298D3A8DA0E1B7E296
:102E10000E94AA3DA30192010E94053E30937301D6
:102E2000209372018B859C85E889F9898E1B9F0B05
:102E3000909371018093700121E001C020E08091A6
:102E40006C0190916D01A0916E01B0916F018C1594
:102E50009D05AE05BF0538F5C0926C01D0926D019D
:102E6000E0926E01F0926F0189859A852D813E81F5
:102E7000821B930B909371018093700129813A8199
:102E8000A0E1B7E20E94AA3D2091260130912701DE
:102E900040E050E00E94053E205F384D30937301C2
:102EA0002093720103C0222309F49BC39101A0E186
:102EB000B7E20E94AA3DA30192010E94053E309311
:102EC0007501209374012F813885A0E1B7E20E943B
:102ED000AA3DA30192010E94053E30937701209301
:102EE000760121E07EC331E62316310408F079C073
:102EF000498D5A8D413D87E0580708F472C084E03F
:102F00008093250182E180932401CA0186509F4F5E
:102F1000AB85BC858A179B0720F483E1809324014D
:102F200020C0EB85FC85298D3A8D2E173F07A8F42C
:102F3000A0911F01B09120019F01498D5A8D241B42
:102F4000350B0E94AA3D9A0140E050E00E94053EE8
:102F5000309371012093700104C01092710110929E
:102F600070015E855770D52E882D806480937C001B
:102F7000FBE0CF2E01E010E0EE24EA94A3E0FA2E6D
:102F8000A89561E0872D36D58A8984B986B18D21CF
:102F9000E9F354B880917A00806480937A0080913C
:102FA0007A0086FDFCCF8091780090917900D7015E
:102FB000A81BB90B0A0F1B1FCA9411F7C801880F71
:102FC000991F880F991F69E070E00E94DE3D7093A1
:102FD00077016093760180917B018F5F80937B0105
:102FE00080CFBB81B4B975B88A2D0E94480E9A83F0
:102FF0008983882D0E944C0E9E838D8360913801B9
:1030000070913901681B790B6A30710590F514B81D
:1030100081E00E94140E812F852984B915B98A2D6B
:103020000E94480E9A838983882D0E944C0E9E83AD
:103030008D8380911F01909120019C0140E050E020
:1030400060E677EB87E490E00E94053EA981BA81B3
:103050000E94BF3D2091380130913901ED81FE8100
:103060002E1B3F0B40E050E00E94053E69017A01B3
:1030700009C089819A81861B970B0E94DE3D6B01F6
:10308000E12CF12C67B888E088B904B905B98B2D1B
:103090000E94480E9A878987882D0E944C0E9C8337
:1030A0008B838A2D0E944C0EAC0129853A852034F1
:1030B000364008F0D1C195B88B2D4E8B5F8B0E94A6
:1030C000480EBC0194B88B2D6C8B7D8B0E94480EF2
:1030D0009C0115B881E0288F3B8B0E94140E95B897
:1030E0008B2D0E94480E288D3B894E895F896C8903
:1030F0007D892034364008F05AC08133914108F46C
:1031000056C089859A858A569F4F6817790708F0B7
:103110004EC085E080932501809161018F5F80938F
:1031200061018B819C81841B950B90935701809347
:10313000560129853A85241B350B30935D01209378
:103140005C0114B815B8EE85E8B981E00E94140E50
:1031500094B88B2D0E94480E853F910508F04FC210
:1031600004B9882D0E94480E813D934008F447C25F
:103170008B2D0E944C0E8D3D924008F440C294B8B5
:103180008B2D0E94480E8D3D924008F438C295B8B0
:1031900081E00E94140E15B88B2D0E94480E853FC9
:1031A000910508F02CC286E08093250128C204B95D
:1031B00005B981E00E94140E19291B8314B94B81B3
:1031C00045B98B2D0E94480E8C0180913801909159
:1031D0003901801B910B998B888B882D0E944C0E96
:1031E0009F878E87A0913801B0913901A81BB90B38
:1031F000BA87A9878A2D0E944C0E9C878B87E98508
:10320000FA85EE3FF94008F4B2C083E080932501CF
:103210008CE080932401488959892416350620F4CE
:103220008A010219130902C00889198940902601F0
:1032300050902701612C712C60E677EB87E490E0D9
:10324000A30192010E94053ED8010E94BF3DA985BD
:10325000BA859D0140E050E00E94053E80916101E9
:10326000882369F08091520190915301A0915401FB
:10327000B091550182179307A407B50710F5209365
:1032800052013093530140935401509355018E8560
:103290009F85EB85FC858E1B9F0B90935701809338
:1032A000560128893989A0E1B7E20E94AA3DA3010D
:1032B00092010E94053E309359012093580121E06C
:1032C00001C020E08091520190915301A0915401DE
:1032D000B09155018C159D05AE05BF0528F5C0922E
:1032E0005201D0925301E0925401F09255018D8128
:1032F0009E8129813A81821B930B90935701809381
:103300005601A0E1B7E20E94AA3D20911F01309131
:10331000200140E050E00E94053E205F384D309390
:1033200059012093580103C0222309F469C1910176
:10333000A0E1B7E20E94AA3D20911F013091200137
:1033400040E050E00E94053E30935B0120935A011B
:103350002F813885A0E1B7E20E94AA3DA301920126
:103360000E94053E30935D0120935C0148C131E627
:103370002316310408F070C04889598949345D40EA
:1033800008F46AC084E08093250182E080932401E0
:103390008B859C8586509F4F8017910720F483E092
:1033A0008093240120C0AB85BC85A017B107B8F479
:1033B000A0912601B09127019801EB85FC852E1B79
:1033C0003F0B0E94AA3DA889B9899D0140E050E0C9
:1033D0000E94053E309357012093560104C010927D
:1033E000570110925601042D0770882D8064809338
:1033F0007C001BE0EE24E394F12CA89560E0872D7F
:10340000F9D2BB81B4B9B5B986B18023E9F794B8D4
:1034100080917A00806480937A0080917A0086FDA2
:10342000FCCF8091780090917900E80EF91E115040
:1034300021F7C701880F991F880F991F69E070E075
:103440000E94DE3D70935D0160935C01809161019B
:103450008F5F80936101D3C088E087B988B914B8C1
:1034600015B888E087B9E7EC2E16E1E03E0608F4CF
:10347000ACC088B918EC0D85062907B981E00E9417
:10348000140E67B88B2D0E944C0E429710F011500D
:10349000A1F7352C330C292D220F24B925B961E071
:1034A000872D288FA7D28B2D0E94480E9A8389835F
:1034B00034B815B8FD85F7B948B860E0872D9AD2C1
:1034C000E0903801F09039018A2D0E94480E8C015D
:1034D00054B88B2D0E94480E6C018A2D0E944C0E10
:1034E000C81AD90A88E088B967B894B895B861E075
:1034F000872D80D28B2D0E94480E4C018A2D0E9470
:103500004C0E881A990A288DC814D90438F424B9A5
:1035100025B98B2D0E94480E640118C09701201B0D
:10352000310B3A83298334B815B83D8537B948B88B
:1035300060E0872D5FD200913801109139018A2D0A
:103540000E94480EA801481B590BCA019601275931
:10355000310929383141C8F58C159D05B0F58981AF
:103560009A8153E0969587955A95E1F7893C9105A4
:1035700010F088EC90E029813A81820F931F8C151E
:103580009D0518F5C60144E0969587954A95E1F7A3
:1035900082179307D0F480912501823018F482E0DD
:1035A0008093250180912301E82FF0E0DF01A356ED
:1035B000BE4FBC921696AC92EE0FFF1FE755FE4F22
:1035C000D182C0828F5F809323016A2D8B2D26D0FC
:1035D00088E087B988B914B815B86A96E2E10C9406
:1035E000BD3E80917B018F5F80937B01222381F31D
:1035F00080927801A0927901B0927A01E9CF21E01E
:10360000809161018F5F80936101222309F3809291
:103610005E01B0925F01A0926001DACFA0E0B0E05D
:10362000E4E1FBE10C94A33E982E862EA895E62FAC
:10363000F0E0EB5BFE4FB49033962491E82FF0E07E
:10364000EB5BFE4FE4903396F49030917B018091D8
:10365000610190E0830F911D892B09F0C6C1A895E7
:103660008091380190913901880F991F880F991F17
:103670009093390180933801809136019091370100
:10368000880F991F880F991F9093370180933601F7
:103690008EEB8093340188E088B9286027B9E4B8BC
:1036A000E5B858E1D52EC0E0D0E0882D0E94480E44
:1036B000582E492E892D0E944C0E8C018C1B9D0B7F
:1036C00097FF03C091958195910903972CF0A895D8
:1036D000DA94D1F1E801E9CFEE0C15B8E4B8892D00
:1036E0000E94480E8135910578F5E5B8892D0E9434
:1036F000480EEC018F2D886087B9F8B815B8B4B8BA
:1037000088E1A82EC12CD12C892D0E94480E782E3C
:10371000692E882D0E944C0E7C018C199D0997FF03
:1037200003C0919581959109039734F5BB0CB4B80A
:10373000882D0E94480E5C01003C94E4190708F5AE
:10374000C53881E0D80708F180913801909139019E
:103750009695879596958795909339018093380132
:10376000809180019091810190933701809336017F
:1037700089E18093340139C1A895AA9429F367019E
:10378000C3CFC03B9DE4D907F8F6C0903801D09074
:10379000390184EAE81682E0F80608F05FC098E98B
:1037A000A916B10488F29E01A8E9B7EB0E94AA3DD0
:1037B00096012C1B3D0B40E050E00E94053E290184
:1037C0003A0196012A193B09A8E9B7EB0E94AA3DE4
:1037D000850120E030E0A90198010E94053EC8372C
:1037E000DF4070F4C301B201B2E0660F771F881F9B
:1037F000991FBA95D1F7620F731F841F951F12C0CE
:1038000098E7A9169FE0B906A0F4CA01B901A2E0A1
:10381000660F771F881F991FAA95D1F7640D751D34
:10382000861D971D25E030E040E050E00E94053EF7
:1038300008C0240D351D461D571D569547953795D3
:103840002795A4E6B0E00E94BF3D6B017C018CEAA5
:10385000C80E8DE0D81EE11CF11C70C0252D342D42
:103860000217130708F49801C72DD62DCE15DF05D2
:1038700008F4E70159012017310708F45801A09115
:103880002601B0912701C501821B930B9C010E9468
:10389000AA3D96012A193B0940E050E00E94053EEE
:1038A00029013A018E01EC16FD0608F48701A0916A
:1038B0001F01B09120019E01201B310B0E94AA3DE7
:1038C0006801E12CF12CA70196010E94053E98E7C2
:1038D000A9169FE0B90670F4C301B201E2E0660FD9
:1038E000771F881F991FEA95D1F7620F731F841FF6
:1038F000951F11C008378FE01807B0F4CA01B9014D
:1039000052E0660F771F881F991F5A95D1F7640DF3
:10391000751D861D971D25E030E040E050E00E94B7
:10392000053E69017A010AC069017A01C40CD51CFF
:10393000E61CF71CF694E794D794C79410912501E0
:10394000133008F001CF9A94980C892D90E0EC0187
:10395000CA59DE4F2881880F991F880F991FFC01D3
:10396000EA54FE4F2223D1F140805180628073805F
:10397000A7019601241935094609570957FF07C0C1
:1039800050954095309521953F4F4F4F5F4FAAE09E
:10399000B0E00E94BF3DA30192012C593F4F4F4F11
:1039A0005F4F2C0D3D1D4E1D5F1D0E94053E232BBC
:1039B000242B252B09F0C8CE123019F081E080931A
:1039C000250182E0888380918201E82FF0E0E759A9
:1039D000FE4F90828F5F80938201B6CEC082D182EB
:1039E000E282F38281E08883AFCECDB7DEB7E0E13B
:1039F0000C94BF3ECF93C82FC09595B160FF02C015
:103A0000982B01C09C2395B994B1982B94B982E06E
:103A10000E94140E84B18C2384B985B18C2385B99E
:103A2000CF910895A0E0B0E0E8E1FDE10C94AA3E5A
:103A30008AE0C82E98E0D92E2FE3B22ED7B8D8B896
:103A400015B8B4B880E00E94480E8C0181E00E9455
:103A50004C0EEC0182E00E944C0E20912501283092
:103A600081F428E027B914B81093060100930501EA
:103A7000D0930801C093070190930A018093090134
:103A800059C031E0C430D10508F030E021E0043005
:103A9000110508F020E0232319F08430910508F384
:103AA000083E134010F028E001C029E0C83ED34092
:103AB00008F42260883E934008F4246027B9C0E0EF
:103AC000D0E0A89580E00E94400E7C0181E00E9439
:103AD0004C0E8C0182E00E944C0E24E1E21625E09F
:103AE000F20608F4389A043135E0130708F4399ADD
:103AF000843125E0920708F43A9A36E0E316F1049F
:103B000028F40630110510F4069738F02196C43FCA
:103B100081E0D807B1F6D092250100E010E00C1743
:103B20001D0729F00E94030E0F5F1F4FF8CFCA94A4
:103B300009F084CFCDB7DEB7E9E00C94C63ECF9252
:103B4000DF92EF92FF92CF9320918701309188010D
:103B50004091890150918A01C09199018AE0C82E53
:103B6000D12CE12CF12C8C2FCF5F213A96E839072C
:103B700091E04907510538F0CA01B901A701960142
:103B80000E94053EF0CF80939901A0913801B09139
:103B900039010E94BF3D28E833E140E050E00E9437
:103BA000053E20938701309388014093890150930B
:103BB0008A01CF91FF90EF90DF90CF900895A4E01D
:103BC000B0E0E5EEFDE10C94A73E982E862E8FEF37
:103BD000860F992D990F990D890F80936301E92D17
:103BE000F0E0EB5BFE4F1491862F90E0FC01EB5B65
:103BF000FE4FF490FC01E85BFE4F0491809125019B
:103C0000813009F4AAC28091230123EA31E069EAF4
:103C100071E0D9019A2F921B9817A0F49D919811E9
:103C20000EC0AD0147505109FA019081991107C0AA
:103C3000FB01408151814C3D554008F48EC26E5FBE
:103C40007F4FE8CF08601092940110929301109278
:103C50008701109288011092890110928A011092B6
:103C60009901E0DE88E088B907B9F4B8F5B8892D84
:103C70000E944C0E7C01882D0E944C0EE81AF90A15
:103C800014B81092650110926401C12CD12C2091BE
:103C9000640130916501243F314050F515B914B9E4
:103CA0000E94FE0D14B815B80E94040EA895892D27
:103CB0000E944C0E6C01CE18DF08209164013091F7
:103CC00065012E37310528F02BE4C216D1040CF41F
:103CD0003FC28DE2C81681E0D80684F48091640169
:103CE0009091650101969093650180936401CFCF17
:103CF000EDE2CE16E1E0DE060CF42AC2209164016A
:103D000030916501232B21F0C60100E010E006C0D0
:103D1000F5E1CF16F5E0DF06BCF385C02091640124
:103D2000309165012017310758F00E94FF0D892D51
:103D30000E944C0E8E199F09A8950F5F1F4FEECF62
:103D40008601081B190B1016110694F4093C110585
:103D50000CF0FEC128EE33E0D8010E94B93D960177
:103D6000442737FD4095542F0E94053E790102C03B
:103D7000E12CF12CA0906401B09065012FEFA21A04
:103D8000B20AC501A0E0B0E080938F01909390014A
:103D9000A0939101B0939201C601800F911F29D287
:103DA0009C01D5010E94AA3D60938F017093900100
:103DB00080939101909392016093870170938801A1
:103DC0008093890190938A0187EF80939901B7DEF0
:103DD00020918701309188014091890150918A0199
:103DE0008BE493E029833A834B835C830E94373FC3
:103DF000A8EEB3E0A81BB10987FDB39529813A81EC
:103E00004B815C810E94C93D24E630E040E050E0F7
:103E10000E94053E209387013093880140938901D9
:103E200050938A0153C1FEDD15B88FE087B988E051
:103E300088B9F12EFF0CF4B880E480937B0084E510
:103E400080BF892D806480937C0086E180937A0016
:103E50000E94070E1092650110926401109280007A
:103E6000109285001092840087E286BB81E28093E5
:103E70006F0091E090938401F5B8809125019093B3
:103E80008100843059F481E090E0092C01C0880F52
:103E90000A94EAF780958F7087B901C007B9F89442
:103EA00083B7817F83BF80918401882389F083B7A2
:103EB000816083BF7894889583B78E7F83BFF894A1
:103EC000A89580916401909165018034964059F7DE
:103ED000789410928100E0908600F0908700109214
:103EE0006F0086E980937A0014B815B8892D0E9476
:103EF0004C0E20913C0130913D01821B930B0C969E
:103F000090939C0180939B01809164019091650145
:103F10008032934008F01CC180916401909165014A
:103F20009093920180939101F0929001E0928F0121
:103F300084EF8093990180916401909165018234AE
:103F40009105C8F060918F0170919001809191016D
:103F50009091920124E630E040E050E00E94053E5E
:103F600020938F01309390014093910150939201DF
:103F700086EF80939901A0918501B09186012091EF
:103F80008F013091900140919101509192010E94D6
:103F9000BF3D20E233E040E050E00E94053E209328
:103FA0008F0130939001409391015093920120939F
:103FB0008701309388014093890150938A01BFDDC6
:103FC00080919901843F09F071C0C0908701D09021
:103FD0008801E0908901F0908A0120EAC2162FE062
:103FE000D206E104F104C0F4A70196012C543F4F1E
:103FF0004F4F5F4F60EA7FE080E090E00E94053E17
:104000002C0D3D1D4E1D5F1D2093870130938801AF
:104010004093890150938A01C0908701D090880114
:10402000E0908901F0908A01C114D10481E0E80692
:10403000F10428F4D092C701C092C60106C081E005
:1040400090E09093C7018093C6018091630190E056
:1040500088599C4F0E94373F482F50E060E070E045
:104060004C155D056E057F0568F4C41AD50AE60A8D
:10407000F70AC0928701D0928801E0928901F092FC
:104080008A0114C094E1C90ED11CE11CF11CC416B4
:10409000D506E606F70610F40E9453141092870125
:1040A000109288011092890110928A0114B98091AE
:1040B000870190918801A0918901B0918A01499767
:1040C000A105B10508F444C0E12CF12C8091230135
:1040D000882321F0809125018430D1F587E08093F9
:1040E00025012091990180919A018217BCF0281333
:1040F0002FC0409187015091880160918901709192
:104100008A0180918B0190918C01A0918D01B091D9
:104110008E0184179507A607B707D0F48091870111
:1041200090918801A0918901B0918A0180938B01BF
:1041300090938C01A0938D01B0938E0120939A01EE
:10414000F0929601E09295018092970190929801E9
:1041500088E087B988B914B815B82496ECE00C94B7
:10416000C33E1F920F920FB60F9211248F939F930D
:10417000B59904C080918401811109C0B59B10C01C
:1041800080918600909187008A3F910548F4809144
:10419000640190916501019690936501809364019B
:1041A0009F918F910F900FBE0F901F9018951F92A7
:1041B0000F920FB60F9211248F939F931092840148
:1041C000B09B10C080918600909187008A3F910536
:1041D00048F4809164019091650101969093650186
:1041E000809364019F918F910F900FBE0F901F904D
:1041F00018950F9221E08C32920710F48CE291E036
:104200008C52914069E170E00E94DE3D99E16B3291
:1042100010F0982F6BE2981BEDEEF2E0E60FF11D27
:10422000E60FF11D9F93CF010E94373F482F319633
:10423000CF010E94373F582F3196CF010E94373F60
:10424000282F3196CF010E94373F382F6F91421BA4
:10425000530B649FC001659F900D11240C9669E17A
:1042600070E00E94DE3D620F731FCB010F90089536
:10427000A0E0B0E0EEE3F1E20C94A73E88E893E121
:1042800090933901809338018EEB80933401C8E01C
:10429000C8B988E187B90E940C0EC7B984E00E94B2
:1042A000480EAC018B5C9840833F9140A0F481E0C4
:1042B00080934D012091380130913901AFEBB9E085
:1042C0000E94AA3D9A0140E050E00E94053E3093D2
:1042D0003901209338018EE00E944C0E8EE00E943E
:1042E000480E90933D0180933C010E94810FD9E0DC
:1042F000D7B9C1E0C5B9C4B980E00E94480E7C01BD
:104300000AE007B914E015B914B981E00E94480E1B
:10431000E80EF91E8CE0882E87B890E1992E95B8AA
:1043200094B882E00E94480EE80EF91E15B8D8B97C
:10433000D7B9C4B9C0913801D091390180E00E9449
:10434000480E5C0108B907B914B900913801109101
:10435000390181E00E94480E6C0188B887B894B892
:10436000809038019090390182E00E94480EC00F81
:10437000D11FC80DD91DCA19DB09CC19DD09C81B0D
:10438000D90B80913801909139014C01880C991C0E
:10439000880E991E8E189F088C1A9D0AA12CB12C8C
:1043A0009701A0E9BAE10E94AA3DA50194010E94EB
:1043B000053E69017A0130934C0120934B019E0127
:1043C000A0E9BAE10E94AA3DA50194010E94053E20
:1043D00030933B0120933A012057354E309327010B
:1043E0002093260180E7C81A85EED80AD0922001D2
:1043F000C0921F0189E180933401CDB7DEB7ECE0B4
:104400000C94C33EA3E1B0E0E8E0F2E20C94A13EDC
:104410001092020180912501813009F023C2809120
:104420008201813009F01EC22090690124E0229EA1
:10443000F0011124EA54FE4F80819181A281B38161
:10444000893032E59307A105B10508F00BC29B8BBB
:104450008A8B312C61E0822D631528F00E94410B7C
:10446000B82EA92E03C00E94410B5C01EA2DF0E09A
:10447000E85BFE4F74908B2D90E0FC01EB5BFE4FF0
:10448000E49115B828E028B92A893B89203F3105F5
:10449000A8F430FC13C000911F01109120010059B5
:1044A0001A4121E030E00B2C02C0220F331F0A9486
:1044B000E2F7C9018860872987B908C0E4B9872D68
:1044C000886087B900911F011091200144E1642E9A
:1044D0008B2D0E94440E4C018A2D0E944C0E34E01C
:1044E0008316910410F4049710F06A9489F760E43D
:1044F00060937B0084E580BF8B2D806480937C007B
:1045000086E180937A00E12CF12C109280001092C9
:1045100085001092840087E286BB0E94070E932DCF
:104520009170998B30FC05C081E88093810078B848
:1045300008C078B80E94100E80E286BB81E88093A4
:10454000810046B345FF13C028E028B910928100CE
:1045500080E286BB80918600909187006C0120915B
:104560008400309185008217930768F013C040FFE4
:10457000E8CF31E036BBA895C70101967C018035B4
:104580009105F9F6E1CF40FF05C061E066BB8FEF12
:10459000E81AF80A86E980937A0034E1732E8B2DAD
:1045A0000E94440E4C018A2D0E944C0E24E082167B
:1045B000910410F4049710F07A9489F780904B01DD
:1045C00090904C018A899B89880E991E800E911EBD
:1045D000209121013091220100399AE11907B0F4AC
:1045E00061EEC616D104E104F10438F4C60165E0B9
:1045F00070E00E94DE3D645101C069E1285231093A
:10460000261B310967FD339586E009C0C40160EBC4
:1046100076E30E94DE3D87E0860F285D3F4F90E005
:10462000A0E0B0E08C159D05AE05BF0528F4C81AC2
:10463000D90AEA0AFB0A03C0C12CD12C7601898968
:10464000882329F092E2C90ED11CE11CF11C60E51F
:10465000E616F10418F0C12CD12C76018BE0C816B7
:10466000D104E104F10428F091E0C91AD108E1086D
:10467000F1084091380150913901A12CB12CA8EEDC
:10468000B3E00E94AA3D2B013C019801DA010E948F
:10469000AA3DA50194010E94053E44275527C30168
:1046A000B2010E94053EC9010E94D90FFC01A5017B
:1046B0009401C701B6010E94CF3D4B015C01BF01CF
:1046C00080E090E023E0660F771F881F991F2A95EE
:1046D000D1F76B5F7F4F8F4F9F4F2AE030E040E074
:1046E00050E00E94053EC501B4010E94053E832DA5
:1046F00090E0E1E0F0E0EC0FFD1F64E0369EE00D9D
:10470000F11D112420833183428353836989611110
:1047100017C06CE0C616D104E104F10488F0FC0176
:104720003196EE0FFF1FEE0FFF1F81E090E08C0F20
:104730009D1FE80FF91F20833183428353833394F5
:10474000A895339493E0931508F084CE88E088B957
:1047500084E00E94140E21E04D815E816F81788596
:1047600089819A81AB81BC8184179507A607B70719
:1047700008F020E04D855E856F85788989859A856A
:10478000AB85BC8584179507A607B70710F032E004
:1047900001C033E0E22FF0E0EE0FFF1FEE0FFF1F2E
:1047A00081E090E08C0F9D1FE80FF91FDC0194E081
:1047B000399FA00DB11D11244D915D916D917C919A
:1047C00080819181A281B381481759076A077B07CD
:1047D00008F0322FE1E0F0E0EC0FFD1F24E0329F03
:1047E000E00DF11D112480819181A281B38180931C
:1047F0000B0190930C01A0930D01B0930E0130FDBD
:1048000009C02A893B89203F310520F48BEF809332
:10481000020117C02CEF20930201BC01CD016B5F98
:104820007F4F8F4F9F4F2AE030E040E050E00E94E2
:10483000053E20930B0130930C0140930D015093E2
:104840000E0180910B0190910C01A0910D01B0918E
:104850000E01892B8A2B8B2B11F41092020188E018
:1048600087B914B86396E2E10C94BD3E2F923F9253
:104870004F925F926F927F928F929F92AF92BF9270
:10488000CF92DF92EF92FF920F931F93DF93CF931C
:10489000CDB7DEB76E970FB6F894DEBF0FBECDBFB3
:1048A000662EB82E860F898320912501273041F589
:1048B00020918B0130918C0140918D0150918E019E
:1048C00010919A0109C0CA01B9012AE0312D412D88
:1048D000512D0E94053E1F5F173FACF32A3560E063
:1048E00036074105510518F48FEF9FEF81C1173F3F
:1048F00039F480E028178DE738074105410510F0AD
:1049000020E03DE72C8B3D8B26EDA22E02C094EDDE
:10491000A92EE8E4F1E0E60DF11D859188608E870F
:10492000E8E4F1E0EB0DF11D859188608F87E5E407
:10493000F1E0E60DF11D7590E5E4F1E0EB0DF11D00
:10494000C59090EC692AB92A81E0E82EF12C012D5E
:10495000112D8E831F82188619861A861B861C8647
:104960001D86188E198E1B8E1A8E5CD888E088B929
:1049700060927C000E94080E3F8537B975B874B804
:104980000E940F0E14B815B8DD24B4ED9B2EA6EDD1
:104990008A2E3E8537B975B874B860927C00A895A8
:1049A000A0927A0080917A0086FDFCCFA0927A00D6
:1049B00080917A0086FDFCCF2090780030907900BD
:1049C000B0927C00A0927A0080917A0086FDFCCFA4
:1049D00080927A000E940D0E0E940F0EC5B8C4B8D6
:1049E0000E940E0E0E94100EA895A895A895A89555
:1049F00014B815B880917A0086FDFCCF209178001C
:104A000030917900288B398B3F8537B9C5B8C4B848
:104A1000A895B0927C00A0927A0080917A0086FDE1
:104A2000FCCFA0927A0080917A0086FDFCCF609145
:104A300078007091790060927C00A0927A00809159
:104A40007A0086FDFCCF80927A000E940D0E0E94B3
:104A50000F0E75B874B80E940E0E0E94100EA89525
:104A6000A895A895A89514B815B880917A0086FDE8
:104A7000FCCF409178005091790014B8CB01820DA1
:104A8000931DE80EF91E011D111DEA82FB820C83A5
:104A90001D8388899989840F951F2E813F816885A0
:104AA0007985280F391F611D711D2E833F8368870B
:104AB000798722E32417150650F075B874B80E9460
:104AC000120E14B815B8888D8395888F07C0483E9C
:104AD00073E0570718F08A8D83958A8F88899989A2
:104AE0002817190660F03E8537B9C5B8C4B80E94CA
:104AF000120E14B815B8898D8395898F07C0883E2A
:104B000073E0970718F08B8D83958B8FD3945D2D71
:104B10005F3F09F03ECF40904B0150904C01440C58
:104B2000551C9201E4E0240D351DEA95E1F72901B9
:104B3000570168016E807F808884998420912501C7
:104B40002730C1F46C897D89812D912D6C53704083
:104B5000804090409B01AC010E94CF3D9B01AC0185
:104B60006FEF71EC8EE390E00E94053E621A730ACB
:104B7000840A950AA614B704C804D90428F46A184C
:104B80007B088C089D0803C0662477244301B2018A
:104B900080E090E09301A4010E94CF3D9501A60121
:104BA0000E94053E87E493E07981870F911D0E9462
:104BB000373F90E0682EC90160E170E00E94DE3D61
:104BC000260F371FC9016816190618F486199109AE
:104BD0000FC08C5E9F4F8615910540F48C899D898E
:104BE000843981E1980710F00E945314812D912D92
:104BF0006E960FB6F894DEBF0FBECDBFCF91DF919A
:104C00001F910F91FF90EF90DF90CF90BF90AF90EA
:104C10009F908F907F906F905F904F903F902F90DC
:104C20000895A0E0B0E0E7E1F6E20C94A73E8091A1
:104C3000950190919601892B09F09DC0E091970113
:104C4000F0E0E85BFE4FC491C860E0919801F0E0AD
:104C5000EB5BFE4F14910E94121D88E088B915B8D5
:104C6000C7B914B9809198010E944C0EEC010091D3
:104C70009A01083F0CF07FC0045FC0908B01D09078
:104C80008C01E0908D01F0908E018AE0882E912CAD
:104C9000A12CB12C043070F4C701B6016B5F7F4FBB
:104CA0008F4F9F4FA50194010E94053E0F5F690140
:104CB0007A01F0CFD701C6010197A109B10988385F
:104CC0009341A105B10508F056C015B914B9A12C3E
:104CD000B12CAC14BD0430F40E940E0E82E0A80E7C
:104CE000B11CF7CF14B815B8A89585E080933401AE
:104CF000809198010E944C0EC817D90720F45C01DE
:104D0000AC1ABD0A02C0A12CB12C812C912C8C14A0
:104D10009D0430F40E940E0E2FEF821A920AF7CFF4
:104D2000809198010E944C0E29E120933401A895AE
:104D3000C817D90718F48C1B9D0B02C080E090E0C7
:104D40008A159B0588F49501281B390B69F0A4EF9F
:104D5000B1E00E94AA3D950140E050E00E94053E6E
:104D600030939601209395010E94121D88E087B927
:104D700088B914B815B8CDB7DEB7ECE00C94C33ED3
:104D8000A5E0B0E0E6ECF6E20C94A13E82E492E00D
:104D900075D620EF2A8354980E94030E14BC16BCCB
:104DA0001092120110921301109214011092150129
:104DB00031E035BB30936E001092800083E19AE7BA
:104DC0009093890080938800E1E0F0E0F0938B00FD
:104DD000E0938A00109285001092840083B5816070
:104DE00083BDF6E0F6BBF0936F00789424E0209347
:104DF000810012E319820E94FD0DA8954F9902C00F
:104E000031E0398385B581112CC015BC86B58093FE
:104E100012010E94CA080E94910A0E94D7080E94AB
:104E2000910A0E94990A86E60E94350A0E949C0A0D
:104E300060911201709113018091140190911501FC
:104E400007E028E440E00E94B90B8AE70E94350A97
:104E5000549880918100882339F08FE30E94350AAD
:104E600003C0115041F6D1CF1092810010926F0013
:104E700020911201309113014091140150911501BC
:104E8000DA01C9010197A109B109893D9146A1053E
:104E9000B10508F029C1AAE0B0E00E94BF3D685FFB
:104EA0007F4F8F4F9F4F23E0969587957795679516
:104EB0002A95D1F7660F771F70937D0160937C016F
:104EC00054980E94030E16BC109212011092130106
:104ED000109214011092150181E085BB80936E0041
:104EE00010927F0110927E0194E09BBB809168003C
:104EF000846080936800789480916D0080618093D5
:104F00006D001D820E94FD0DA8954F9902C0E1E041
:104F1000E98380916D0084FF05C0FD81FF5FFD8303
:104F2000FA3F81F715BC80916D008F7E80936D00F4
:104F3000809168008B7F8093680086B58093120112
:104F40000E94CA0884E50E94350A0E949C0A80914A
:104F5000120190911301A0911401B09115012091BB
:104F60007C0130917D013C832B831C012D019C0130
:104F7000A20160E070E080E090E003E00E94DE3E8D
:104F800051016201E12CF12C00E010E00E94F73E9B
:104F900059016A017B01E82F192F03E00E94DE3ED0
:104FA0000E2F0E94F73E03E00E94DE3E5101620197
:104FB000E12CF12C00E010E00E94F73E02E00E949C
:104FC000DE3E00E00E94F73E01E00E94DE3E00E08F
:104FD0000E94F73E03E00E94DE3EEB81FC815F0110
:104FE000C12CD12C00E00E943D3E39014A011B0139
:104FF0002C012B813C812038310530F007E023E77C
:1050000045EFB301C40116C084E6A82EB12CC12C13
:10501000D12CE12CF12C00E010E09301C2010E94A0
:105020003D3EE22FF42F07E023E747EF6E2F732F6B
:105030008F2F952F0E94B90B3D813A3F21F48FE3CA
:105040000E94350A51C09301A401B101C2012C395B
:105050003E4C43405105610571058105910509F0FC
:1050600008F442C00E94D70886E60E94350A0E94D2
:105070009C0A9301A401B101C201530164017101B1
:10508000820121153A4C4A495B436105710581054E
:10509000910589F080F020E030E04AE85DE568E7BE
:1050A00075E483E691E00E943D3EE22FF42F07E095
:1050B00028E44AEF0FC020E030E846EC54EA6EE7FF
:1050C0007DE883E090E00E943D3EE22FF42F07E070
:1050D00028E44CEF6E2F732F8F2F952F0E94B90B62
:1050E0008AE70E94350A549810926E0080ED97E08E
:1050F0000E94F20E2981820F49F480911E018330B3
:1051000028F43A8131503A83311145CE2596E2E1B7
:105110000C94BD3E1F920F920FB60F9211248F93E5
:105120009F93AF93BF937894809112019091130154
:10513000A0911401B09115019F5FAF4FBF4F8093B5
:10514000120190931301A0931401B0931501BF9124
:10515000AF919F918F910F900FBE0F901F90189558
:105160001F920F920FB60F9211248F9386E085BD88
:105170008F910F900FBE0F901F9018951F920F9256
:105180000FB60F921124A8951092810015BC0F90B4
:105190000FBE0F901F9018951F920F920FB60F928F
:1051A00011242F933F938F939F9380917E01909131
:1051B0007F01892B11F481E085BD20917E01309122
:1051C0007F0180917C0190917D012817390730F093
:1051D00015BC80916D008F7E80936D0080917E0163
:1051E00090917F01019690937F0180937E019F9122
:1051F0008F913F912F910F900FBE0F901F90189598
:105200008C3008F08C50811103C08CE492E036C0E1
:10521000813019F482E492E031C0823019F489E1DE
:1052200092E02CC0833019F48EE092E027C08430E5
:1052300019F48AE990E022C0853019F48DE690E0F7
:105240001DC0863019F486E690E018C0873019F446
:105250008FEF91E013C0883019F48EEE91E00EC00C
:10526000893019F48FED91E009C08A3019F480E398
:1052700092E004C08B3021F485E292E00E94A90AFA
:1052800080914E01803118F40E947E0AF9CF089572
:105290000F93CF938AE990E0F1D3C0E010922501FB
:1052A00060E082E007D4809125018730D1F50E942B
:1052B000BD0883E40E94350A0E949C0A60918B011C
:1052C00070918C0180918D0190918E0103E026E414
:1052D00040919A010E94B90B0E94910A6091970136
:1052E00080919801C3DA90939401809393010E9476
:1052F000CA088EE591E00E94A90A6091930170911D
:1053000094016A3F8FEF780740F480E090E002E07C
:1053100024E04EEF0E94B90B08C08FE30E94350ACB
:1053200004C00E94990A0E94CA080E94910A8C2F08
:1053300052D788EE93E00E94F20E81110AC080914C
:105340001E01843030F48C2F4DD7C82F8A3F08F4CB
:10535000A5CFCF910F91089508950F93843108F050
:105360008451833189F489E08093810081E090E069
:10537000909389008093880007E028E44DEF60E077
:1053800074E985E397E748C1823189F489E0809325
:10539000810083E090E0909389008093880007E08B
:1053A00028E44DEF60E07AEC8AE99BE335C1813176
:1053B00069F489E08093810087E090E09093890010
:1053C0008093880007E028E44DEF6CC0803169F4D9
:1053D00089E0809381008FE090E090938900809332
:1053E000880007E028E44DEF6FC08F3089F489E032
:1053F0008093810089E190E09093890080938800F8
:1054000007E028E44DEF6AE871E88BE299E004C117
:105410008E3069F489E08093810087E290E0909378
:1054200089008093880007E028E44DEF60C08D304C
:1054300069F489E0809381008FE490E09093890083
:105440008093880007E028E44CEF2CC08C3069F48E
:1054500089E0809381008FE990E0909389008093A8
:10546000880007E028E44CEF2FC08B3069F489E016
:10547000809381008FE891E0909389008093880069
:1054800007E028E44CEF33C08A3089F489E0809348
:1054900081008FE193E0909389008093880007E07A
:1054A00028E44BEF60E075E68DEC9DE1B5C08930F6
:1054B00081F4809381008FE396E09093890080933C
:1054C000880007E028E44BEF60E872EB86EE9EE090
:1054D000A3C0883089F489E0809381008FE99FE040
:1054E000909389008093880007E028E44BEF60E008
:1054F00071EE85EF95E090C0873089F489E0809364
:10550000810084E493E2909389008093880007E00F
:1055100028E44BEF6FE77DEF83EA92E07DC08630B1
:1055200089F489E08093810089E593E29093890072
:105530008093880007E028E44BEF6FEE7BE682EA79
:1055400092E06AC0853089F489E08093810082E826
:1055500093E2909389008093880007E028E44BEF62
:1055600068E471E68FE992E057C0843089F489E0FD
:10557000809381008FE79EE3909389008093880059
:1055800007E028E44BEF60E478E78DE791E044C062
:10559000833069F48BE08093810080E792E0909300
:1055A00089008093880007E028E44AEFA0CF82308A
:1055B00071F481EE94E0909389008093880007E075
:1055C00028E44AEF60E870EF8AEF92E025C081306E
:1055D00089F48BE08093810089E698E190938900BB
:1055E0008093880007E028E44AEF60E876E988E9DC
:1055F00090E012C0811112C08CE08093810088E09D
:105600009DE3909389008093880007E028E44AEFA7
:1056100060E472E48FE090E00E94B90B8AE70E9498
:10562000350A0F910895A0E0B0E0E9E1FBE20C94A7
:10563000AB3E89E192E022D280E18093800010921B
:105640006F0081E090E09093890080938800109231
:105650008B0010928A0083E086BB1092820088E063
:105660008093810015B891E194B988B989E087B930
:10567000229A8093810000E0F12CE12C12E1CEE12E
:10568000D0E0802F90E00A96BE010E94F23DD62E17
:10569000C62E6F1589F00E942B0989E192E00E94C5
:1056A000A90AF12CFC1428F48EE20E94350AF39426
:1056B000F9CF0E94910AFD2CE116F9F0143108F09F
:1056C00014510E94BD080E947E0A83E1810F45DECD
:1056D0000E94910A0E94D7080E947E0A81E0810FF1
:1056E0003CDE0E94910A0E94CA088EE30E94350A9D
:1056F000812F33DE0E94910AE12E88EE93E00E9412
:10570000F20E90911E01811102C0992381F000E0F8
:105710009B3068F0109281001092800088E087B979
:1057200014B82298CDB7DEB7E8E00C94C73E90914C
:105730001D0197FD9C5E190F853118F01F5F8035A4
:1057400048F7802F4FD5082F803F08F49ACFE2CF3B
:10575000A4E0B0E0EEEAFBE20C94A53E8EE092E01D
:105760008DD183E28093800010926F0081E090E001
:1057700090938900809388008FEF90E090938B0046
:1057800080938A0083E086BB1092820015B881E185
:1057900084B988E088B989E087B9229A809381002A
:1057A00010E000E08AE0782E612C94E6C92ED12C1E
:1057B000E12CF12C88248A9423E0922EA12CB12C88
:1057C0007016E9F183E6871510F4ECE97E0E272DBB
:1057D00030E0AFEFB3E00E94AA3D6E5C7F4F8F4F89
:1057E0009F4FA70196010E94053E30938B002093A6
:1057F0008A0029833A834B835C830E94BD08A8EE0C
:10580000B3E029813A814B815C810E94BF3D6150A8
:105810007E4F8F4F9F4FA50194010E94053ECA0104
:10582000B90105E025E24FEF0E94B90B0E94910AF1
:10583000F8E2F61518F48CE30E94140E072D80E4AC
:1058400096E00E94F20E682E82E8861560F488E0E9
:1058500087B9109281001092800014B82298249683
:10586000EEE00C94C13E90911E019B3080F7809138
:105870001D0187FD8C59780EE2E3E61518F4FAE075
:105880007F0E03C0662049F0739410E0812FAAD4E4
:10589000182F803F08F494CFDACF9111F6CFF6CFCE
:1058A0000F93CF93DF938EEE91E0E8D08BE493E0FB
:1058B0000E94373FC82FD0E00E94BD08C7FF11C02B
:1058C0008DE20E94350A8C2F992781950CF49095D2
:1058D000BC01882777FD8095982F03E025E24FEFE4
:1058E00009C003E025E24FEF6C2F772767FD709525
:1058F000872F972F0E94B90B0E94910A80E496E0AF
:105900000E94F20E811105C090911E01911103C0F9
:1059100003C08238F8F4D0E090911E019B30D0F49F
:1059200090911D019C0F811102C0C92F06C08932C0
:1059300010F0C1E001C0CFEFC90FC13514F0C5565A
:1059400003C0CC3E0CF4CB598D2F4CD4D82F803FC4
:1059500008F4B2CF6C2F8BE493E00E94443FDF91B8
:10596000CF910F910895CF93DF9387E592E086D092
:10597000D0E0C0E00E94BD080E947E0A8BE08C0F40
:105980003FDC0E94CA088EE30E94350A8C2F38DC67
:105990000E94D7080E947E0A81E08C0F31DC80E4EF
:1059A0009FE10E94F20E8111D0E090913E01913072
:1059B00009F4D0E0823340F490918301992309F4F3
:1059C00040C0882309F43DC0CC2309F454C0C13041
:1059D00019F480E0D5D92DC0C23011F424DE29C0DD
:1059E000C33011F4B5DE25C0C43011F451DC21C040
:1059F000C53011F401D41DC0C63011F4CCD419C087
:105A0000C73011F499D115C0C83011F449DF11C065
:105A1000C93021F481E10E9472100BC0CA3011F428
:105A2000E0D207C0CB3029F45E9880E090E00E947D
:105A3000F20E10921E0110921D0187E592E01ED019
:105A400080E090911E019A30B0F490911D0199234D
:105A500019F097FD03C0D0E0C90F03C0945FC90FD0
:105A6000D0E08111CF5FDF5FD83728F4CC3008F465
:105A700081CFCC507FCFDF91CF910895A2E0B0E0ED
:105A8000E4E4FDE20C94B03E89839A830E943509D8
:105A900089819A810E94A90A14E682E00E94140E6C
:105AA0004F9902C01150C9F70E94BD082296E3E049
:105AB0000C94CC3EA4E0B0E0E0E6FDE20C94A63EFF
:105AC000882E762E862F90E0FC01E85BFE4F149125
:105AD0001860E82DF0E0EB5BFE4FB490FC01EB5B4F
