:100000000C9488000C94A5000C94A5000C94A500F9
:100010000C94A5000C94A5000C94A5000C94A500CC
:100020000C94A5000C94A5000C94A5000C94A500BC
:100030000C94A5000C94A5000C94A5000C94A500AC
:100040000C94A5000C94A5000C94A5000C94A5009C
:100050000C94A5000C94A5000C94A5000C94A5008C
:100060000C94A5000C94A5000001020304050607EA
:1000700008090B0C0D0E0F10111314151618191A70
:100080001B1D1E1F2122242527282A2B2D2E30310F
:10009000333536383A3C3E3F41434547494C4E5054
:1000A000525457595C5E616366696C6F7275787CF7
:1000B0007F83878B8F93979CA1A6ABB1B7BEC5CC2E
:1000C000D4DDE6F153656C6674657374206D6F64FE
:1000D000652E2E0069736F6C6174652070726F629B
:1000E00065005265663D005248663D0052482D004D
:1000F00052482B002B524C2D2031322031332032EC
:1001000033002B52482D203132203133203233003E
:1001100011241FBECFEFD4E0DEBFCDBF11E0A0E0C1
:10012000B1E0E0EBFBE302C005900D92A230B10715
:10013000D9F711E0A2E0B1E001C01D92A138B107EA
:10014000E1F70E94080F0C94D61D0C9400001F9339
:10015000182F81E0612F0E947C010E9473141830D7
:1001600048F41630D0F4123071F0133089F01130A9
:10017000D1F407C0143EA9F0143FC1F0113E99F428
:100180000EC08EE306C08CE70E9439148CE30CC0CD
:100190008CE70E9439148CE707C082E505C084EE25
:1001A00003C085EB01C0812F0E9439141F9108956F
:1001B00080E20E94A70008958F5C0E94A700089526
:1001C0008DE00E9439148AE00E94391408951F932B
:1001D000182F80E0612F0E947C010E947314103858
:1001E00011F0103C11F40E94E0001F91089581E08D
:1001F0000E94E7000E9469140E94E00008950E9496
:1002000073010E94661480E860E30E947C010E94F2
:10021000691480E860E30E947C010E946D1480E80C
:1002200060E30E947C010E946D1480E860E20E94FD
:100230007C010E94691488E20E94E7008CE00E9421
:10024000E70086E00E94E7000E94F7000895EF9221
:10025000FF92CF93DF93E82EE7017E01F92EE701AD
:1002600002C00E94A70089918823D9F7DF91CF911E
:10027000FF90EF900895CF93DF93EC01FE018491FE
:10028000882331F0803821F00E94A7002196F6CF14
:10029000DF91CF910895CF93DF93EC01CE010E94BF
:1002A000951D882331F0803821F00E94A700219607
:1002B000F5CFDF91CF9108950F931F93CF93DF93E5
:1002C0008C01C0E0D0E0C8018C0F9D1F0E94951DDD
:1002D0000E94A7002196C830D105A9F7DF91CF91E0
:1002E0001F910F910895509A519A529A539A549A85
:1002F000559A5C985D9808955C9880FD5C9A5D9A2B
:10030000589859985A985B9864FD589A65FD599A7F
:1003100066FD5A9A67FD5B9A5D9887FD0EC05D9AEF
:10032000589859985A985B9860FD589A61FD599A67
:1003300062FD5A9A63FD5B9A5D980895DF93CF93AF
:100340000F92CDB7DEB760FF03C095B1982B04C004
:1003500025B1982F9095922395B994B1982B94B983
:1003600089830E94681494B189818095982394B9F7
:1003700095B1982395B90F90CF91DF9108952F9261
:100380003F924F925F926F927F928F929F92AF9225
:10039000BF92CF92DF92EF92FF920F931F93DF9362
:1003A000CF93CDB7DEB766970FB6F894DEBF0FBE1A
:1003B000CDBF182F362E242EA895A62EBB24C501FE
:1003C00084559E4F0E94951D8A83822D90E084550E
:1003D0009E4F0E94951DD82E082F000FE12EFF245E
:1003E000C70184559E4F0E94951DC82E282F220FAD
:1003F0002887C70181559E4F0E94951D8983C5019D
:1004000081559E4F0E94951D3981386039838860DF
:100410008B8315B88A8184B937B938B98D2D60E0DE
:100420000E949E01832D0E94F3199A878987A3E079
:10043000813D9A0748F08D2D61E00E949E01832D39
:100440000E94F5199A878987E985FA85ED35F105C6
:1004500008F4AAC08A81802B84B9832D0E94EF19E9
:100460005C01822D0E94F5197C0105B9832D0E9443
:10047000EF19950128513E4F2817390708F040C061
:1004800088E088B9FB81F7B9802F8C2984B985B9B8
:10049000822D0E94EF192FE08834920728F083E024
:1004A0008093090184E004C083E08093090186E021
:1004B00080930801B0925101A0925001C5018E199C
:1004C0009F099093590180935801B50180E090E015
:1004D00028EE33E040E050E00E94E21C209104014D
:1004E0003091050140E050E00E94211D30935301FE
:1004F00020935201209254011093550130925601DD
:1005000088E088B93B8137B9802F8C2984B985B9B7
:10051000812F0E94EF195C01822D0E94F5197C0148
:10052000C5B8812F0E94EF1988519E4F8A159B05EF
:10053000D8F5898188B987B9822D0E94EF19A3E087
:10054000813D9A0728F483E08093090185E004C087
:1005500083E08093090187E080930801EA18FB0893
:10056000F0925901E092580160913F017091400171
:100570006A197B0980E090E028EE33E040E050E02B
:100580000E94E21C20910A0130910B0140E050E0F2
:100590000E94211D30935301209352012092540157
:1005A000309255011093560188E088B9BB81B7B9E4
:1005B000C5B8EC2DED29EB87E4B9A0903F01B090D0
:1005C0004001812F0E94F3197C01822D0E94F519B0
:1005D0004C018A30910568F5802F8C2984B9A09050
:1005E0003F01B0904001812F0E94F319A81AB90A67
:1005F000822D0E94F5194C01250166247724209153
:100600000A0130910B0140E050E060E677EB87E4AF
:1006100090E00E94211DC301B2010E94E21C9401DE
:1006200040E050E00E94211D2C833D834E835F8378
:100630000FC0AE18BF08C50188199909B4010E94FE
:100640000D1DCB01A0E0B0E08C839D83AE83BF8302
:100650009A8194B915B8A981A7B9A8B90E9469145B
:10066000E985FA8523E0E13DF20708F0A2C23A816C
:100670003D293F8734B9832D0E94F319ADE08F35B2
:100680009A0708F4E1C0BA81B02BB88BB4B9832DB6
:100690000E94F3199A8B898B822D0E94F5199D8BEC
:1006A0008C8B809109018250823018F481E0809314
:1006B0000601E0900601FF24812F0E94F519F70141
:1006C000EE0FFF1FE05BFE4F2C893D89821B930BD1
:1006D000918380832533310520F485E390E09D8B61
:1006E0008C8BE0900601FF24A989BA892D0166242C
:1006F0007724209104013091050140E050E060E64C
:1007000077EB87E490E00E94211DC301B2010E94B3
:10071000E21CEC89FD899F0140E050E00E94211D10
:10072000F701EE0FFF1FEE0FFF1FE85BFE4F208368
:100730003183428353838C819D81AE81BF81281791
:1007400039074A075B0798F480839183A283B383B8
:10075000F701EE0FFF1FE05BFE4F80913F0190918C
:1007600040018A199B098819990991838083809196
:100770000901853009F468C0AC89BD89E3E0A23D78
:10078000BE0730F082E0809309018093080156C0D3
:1007900029853A852136310508F050C089899A8922
:1007A000A7E0813D9A0708F449C083E080930901DE
:1007B00080930801EB80B7E0EB22822D8064809368
:1007C0007C0081E090E0909359018093580140E0D3
:1007D000A8958D2D61E04E8B0E949E01E889E4B9B9
:1007E0004E8986B18E21E9F3FA81F4B980917A00BD
:1007F000806480937A0080917A0086FDFCCF2091FE
:100800007800309179008091580190915901815080
:100810009C4F821B930B90935901809358014F5F1B
:100820004B30B1F6880F991F880F991F69E070E06F
:100830000E940D1D7093590160935801209254013C
:1008400030925501109356012F8524B9D5B8832DC8
:100850000E94F3192C0180913F01909140019A8BE5
:10086000898B822D0E94F519A989BA89A81BB90B19
:10087000BA8BA98BAA30B105B0F58A81802B84B9D7
:1008800005B9832D0E94F3192C01E0913F01F091ED
:100890004001FA8BE98B822D0E94F51929893A894A
:1008A000281B390B3A8B298B4201AA24BB242091A7
:1008B00004013091050140E050E060E677EB87E409
:1008C00090E00E94211DC501B4010E94E21CA9898B
:1008D000BA899D0140E050E00E94211D2C833D8398
:1008E0004E835F830FC0C201E989FA898E1B9F0B7B
:1008F000BF010E940D1DCB01A0E0B0E08C839D8361
:10090000AE83BF839B8197B988E088B9AB85A4B9D2
:10091000A5B9812F0E94F319B6E080349B0708F037
:1009200044C180910601813009F4ACC18D2D60E095
:100930000E949E01812F0E94F3197C0115B80E942C
:100940006914C5B8812F0E94F319E0E4EE16E6E0C1
:10095000FE0608F042C0F1E181339F07F0F185E027
:100960008093090114B815B82B8128B90E94691425
:10097000C4B8812F0E94F319853F910508F00FC17B
:100980003B8534B9822D0E94F319A3E0813D9A077B
:1009900008F405C1812F0E94F519B2E08D3D9B0737
:1009A00008F4FDC0C4B8812F0E94F319E2E08D3D28
:1009B0009E0708F4F4C0C5B80E94691415B8812FC9
:1009C0000E94F319853F910508F0E9C084E0809307
:1009D000090181E080930601E2C00C2904B905B940
:1009E0000E94641460903F0170904001812F0E942A
:1009F000F519681A790AA0903F01B0904001822D44
:100A00000E94F519A81AB90A809109018250823012
:100A100018F481E080930601809006019924E0900B
:100A20003F01F0904001EA18FB08832D0E94F51960
:100A3000F401EE0FFF1FE05BFE4FE81AF90AF182A6
:100A4000E082F5E3AF16B10418F485E3A82EB12CCB
:100A5000E0900601FF24C301A0E0B0E08B879C87F3
:100A6000AD87BE8720910A0130910B0140E050E034
:100A700060E677EB87E490E00E94211D6B857C8522
:100A80008D859E850E94E21C950140E050E00E9409
:100A9000211DF701EE0FFF1FEE0FFF1FE85BFE4F5A
:100AA00020833183428353838C819D81AE81BF81BA
:100AB000281739074A075B07A8F480839183A2832C
:100AC000B383F701EE0FFF1FE05BFE4F80913F0104
:100AD0009091400184199509A989BA898A1B9B0BB9
:100AE00091838083BEEFAB16B9E0BB0638F082E09D
:100AF0008093090181E08093080151C0E985FA855E
:100B0000E136F10508F04BC0F9E46F16FDE07F0611
:100B100008F445C083E08093090182E080930801D6
:100B2000E98027E0E222822D806480937C0081E0CE
:100B300090E090935901809358017BE0A72EA895EF
:100B40008D2D60E00E949E0104B905B986B18E2109
:100B5000E9F7C4B880917A00806480937A0080912C
:100B60007A0086FDFCCF80917800909179002091E9
:100B7000580130915901820F931F9093590180932E
:100B80005801AA94E1F6880F991F880F991F69E010
:100B900070E00E940D1D70935901609358012092DE
:100BA0005401109355013092560188E087B988B9F5
:100BB00069C088E088B93B8137B9C4B8C5B88D2D04
:100BC00061E00E949E01812F0E94F3194C01832D48
:100BD0000E94F519881A990A888584B985B9812FE8
:100BE0000E94F3195C01C4B8C5B88D2D60E00E9465
:100BF0009E01812F0E94F3197C01832D0E94F3191D
:100C0000E81AF90A988594B995B9812F0E94F319C9
:100C1000E814F90418F0A82EB92E4701C401875929
:100C20009040A1E189389A0768F5C50153E096958F
:100C300087955A95E1F78A0D9B1D8815990510F542
:100C400043E0AA0CBB1C4A95E1F78A149B04D0F43C
:100C500080910901882311F0863019F481E0809396
:100C6000090180910701E82FF0E0EE0FFF1FEE0F62
:100C7000FF1FE759FE4F10833182938282828F5F7C
:100C80008093070180910701882309F012C2A8957B
:100C900080913F0190914001880F991F880F991F03
:100CA0009093400180933F0180913D0190913E01DE
:100CB000880F991F880F991F90933E0180933D01E3
:100CC0008EEB80933B0188E088B9BB81B7B9C4B88B
:100CD000C5B8EE24FF2421E001C07C01832D2B8BBD
:100CE0000E94F319082F492E812F0E94F519AC019B
:100CF0004E195F092B8957FF03C0509541955F4FEF
:100D00004330510584F4AC0115B8E885E4B9812F6E
:100D10004E8B5B8B0E94F3194E895B89813591055F
:100D200008F0ACC105C0A8952F5F2931B1F6A6C166
:100D3000F885F5B9812F4E8B5B8B0E94F3197C01EE
:100D4000298127B928B915B83A8134B9AA24BB2416
:100D500021E04E895B893A0101C05601812F2B8B1E
:100D60000E94F3194C01832D0E94F5196C018A1918
:100D70009B092B8997FF03C0909581959F4F8330E6
:100D800091058CF4A3018A81880F84B9832D6E8A22
:100D90005B8B0E94F3193C014E895B8984E4403CE3
:100DA000580730F00CC0A8952F5F2931B1F666C105
:100DB00095E8E91691E0F90608F060C106C0A0EBDD
:100DC000EA16ADE4FA0608F059C1B4EACB16B2E06F
:100DD000DB0608F072C0E8E96E16710408F44EC133
:100DE00080903F0190904001B70180E090E028E9B9
:100DF00037EB40E050E00E94E21C94012E193F09BD
:100E000040E050E00E94211D59016A0186189708B0
:100E1000B40180E090E028E937EB40E050E00E9428
:100E2000E21C930140E050E00E94211DF8E7EF161C
:100E3000FFE0FF0670F4C601B501B2E0660F771F50
:100E4000881F991FBA95D1F7620F731F841F951FD2
:100E500012C088E768168FE07806A0F4CA01B901CD
:100E6000A2E0660F771F881F991FAA95D1F76A0D18
:100E70007B1D8C1D9D1D25E030E040E050E00E9470
:100E8000211D08C02A0D3B1D4C1D5D1D5695479523
:100E900037952795CA01B90124E630E040E050E0DB
:100EA0000E94E21C6B017C018CEA9DE0A0E0B0E0B6
:100EB000C80ED91EEA1EFB1E78C0802F942D48173D
:100EC000590708F4CA017601C814D90408F474015A
:100ED0003C018417950708F43A01B301681B790BAC
:100EE00080E090E020910A0130910B0140E050E059
:100EF0000E94E21C20913F013091400126193709E0
:100F000040E050E00E94211D49015A012701CE1402
:100F1000DF0408F42601E418F508B70180E090E04A
:100F2000209104013091050140E050E00E94E21C54
:100F3000920140E050E00E94211D98E769169FE071
:100F4000790670F4C501B401E2E0660F771F881FCF
:100F5000991FEA95D1F7620F731F841F951F12C066
:100F6000A8E74A16AFE05A06B0F4CA01B90152E048
:100F7000660F771F881F991F5A95D1F7680D791D45
:100F80008A1D9B1D25E030E040E050E00E94211DBD
:100F900069017A010AC069017A01C80CD91CEA1CEE
:100FA000FB1CF694E794D794C79480910901823092
:100FB00018F0863009F062C05091570140E08BE094
:100FC00090E03EC0242F30E0289FF001299FF00DD3
:100FD000389FF00D1124E65EFE4F2285221511F098
:100FE0004F5F2EC080809180A280B380C701B60180
:100FF000681979098A099B0997FF07C09095809520
:10100000709561957F4F8F4F9F4F2AE030E040E011
:1010100050E00E94E21CA50194012C593F4F4F4F14
:101020005F4F2C0D3D1D4E1D5F1D0E94211D211582
:1010300031054105510511F586E0809309011EC077
:10104000451708F4BFCF252F30E08BE090E0289FB4
:10105000F001299FF00D389FF00D1124E65EFE4F40
:10106000C082D182E282F3821482158216821782B4
:101070003086118722865F5F5093570180913F0130
:10108000909140019695879596958795909340010C
:1010900080933F0180913D0190913E019695879507
:1010A0009695879590933E0180933D0189E18093C9
:1010B0003B0188E087B988B914B815B866960FB6B1
:1010C000F894DEBF0FBECDBFCF91DF911F910F917E
:1010D000FF90EF90DF90CF90BF90AF909F908F9058
:1010E0007F906F905F904F903F902F900895AF92B8
:1010F000BF92CF92DF92EF92FF920F931F93CF9305
:10110000DF93BAE0CB2EA8E0DA2EFAE2AF2EE5E1CB
:10111000BE2ED7B8D8B815B8A4B880E00E94F3198D
:101120008C0181E00E94F519EC0182E00E94F51922
:10113000209109012830C1F041E0C430D10508F008
:1011400040E021E00430110508F020E0422350E0A7
:1011500021E030E08430910510F020E030E02423DD
:1011600035232115310521F088E087B914B84FC027
:1011700023E0083E120710F028E001C029E033E028
:10118000C83ED30708F4226033E0883E930708F492
:10119000246027B9B4B8C0E0D0E0A89580E00E94F0
:1011A000EF197C0181E00E94F5198C0182E00E9418
:1011B000F51924E1E21625E0F20608F4389A35E044
:1011C0000431130708F4399A25E08431920708F4B2
:1011D0003A9A36E0E316F10430F40630110518F4BB
:1011E0008630910538F0219681E0C43FD807A9F6F2
:1011F000D092090100E010E004C00E946D140F5F5E
:101200001F4F0C171D07C8F3CA9409F082CFDF9156
:10121000CF911F910F91FF90EF90DF90CF90BF90F3
:10122000AF900895FF920F931F93CF93DF938EEBB0
:1012300091E00E949D1D2091410130914201280FB3
:10124000391F83E0283E380720F0C901885E9340AB
:1012500002C080E090E062E370E00E940D1DF82E75
:10126000683008F067E0C62FD0E0CE01880F991FE4
:10127000865A9F4F0E949D1D8C01CE01880F991F99
:10128000845A9F4F0E949D1D9C0142E34F1950E0DC
:10129000081B190B409FC001419F900D509F900D5E
:1012A0001124499662E370E00E940D1D620F731FC6
:1012B0007093010160930001DF91CF911F910F9115
:1012C000FF9008951F9314E10E94D8001150E1F798
:1012D0001F9108952F923F924F925F927F928F922B
:1012E0009F92AF92BF92CF92DF92EF92FF920F93B5
:1012F0001F93DF93CF93CDB7DEB72F970FB6F89438
:10130000DEBF0FBECDBF6B017C01142F722E0330E8
:1013100029F0043031F084E690E014C088EE93E0C8
:1013200011C080E197E20EC0C701B6016B5F7F4F2D
:101330008F4F9F4FA50194010E94211D69017A01E1
:101340001F5F08C01C01442455244AE0842E912CC0
:10135000A12CB12CC214D304E404F50428F7812F86
:10136000845F833108F082E123E0622F0E94011D37
:10137000192F992319F08F5F291B122F90E08954A0
:101380009E4F0E94951DB82EC6016E010894C11C87
:10139000D11CB6014AE050E00E947F1DF601019089
:1013A0000020E9F731972E2E2C18822C811A181460
:1013B00044F08EE20E94A700882019F080E30E948A
:1013C000A700112311F488248A946E010894C11C8B
:1013D000D11C00E010E0992487FC90940DC00F5FB1
:1013E0001F4FF60181916F010E94A7000815190592
:1013F00019F48EE20E94A700021588F3BB2019F0B1
:101400008B2D0E94A700772019F0872D0E94A7003E
:101410002F960FB6F894DEBF0FBECDBFCF91DF91F0
:101420001F910F91FF90EF90DF90CF90BF90AF9002
:101430009F908F907F905F904F903F902F90089556
:101440000F9390E02BE030E0829FF001839FF00D3E
:10145000929FF00D1124E65EFE4F608171818281C2
:1014600093814FEF24EF04E00E946A090E94D800A4
:101470000F9108950F93833098F4E82FF0E0EE0F6A
:10148000FF1FEE0FFF1FE759FE4F6281738180E05F
:1014900090E04DEF26E503E00E946A090E94D80023
:1014A0000F9108951F93182F80EC0E94E70088E1A8
:1014B00091E00E944B01812F82958F700E943A0A21
:1014C000812F8F700E943A0A1F9108952F923F92A8
:1014D0004F925F926F927F928F929F92AF92BF9244
:1014E000CF92DF92EF92FF920F931F93DF93CF93F0
:1014F000CDB7DEB72E970FB6F894DEBF0FBECDBFC7
:1015000088E088B987B981E085B985E084B980E051
:101510000E94F3198C019A83898381E00E94F51956
:101520007C019C838B8382E00E94F5199C019E8341
:101530008D83E01AF10AF7FE04C0F094E194F108FB
:10154000F39485E1E816F1040CF049C4201B310B3B
:1015500037FF03C0309521953F4F253131050CF001
:101560003EC4000F111F80913F0190914001081B64
:10157000190B17FF03C0109501951F4F0D3311056F
:101580000CF02DC481E184B980E00E94F3198C0134
:101590009A83898381E00E94F5197C019C838B8367
:1015A00082E00E94F5199C019E838D83E01AF10A66
:1015B000F7FE04C0F094E194F108F394E5E1EE162F
:1015C000F1040CF00CC4201B310B37FF03C0309525
:1015D00021953F4F253131050CF001C4000F111F3B
:1015E00080913F0190914001081B190B17FF03C028
:1015F000109501951F4F0D3311050CF0F0C30E949B
:10160000F70080E80E94E70084EC90E00E943B0134
:101610000E945D144424552411E032E0A32E28E0FA
:10162000C22E90E2B92E85E0F82E06E4602E09EC79
:10163000702E0FEF802E0FEF902E5AC180EC0E947B
:10164000E7000E94620980E80E94E7000E946209A8
:1016500080E80E94E70084E50E94A700C2016EE0D6
:1016600071E04AE050E00E947F1D0E9427010E9425
:10167000D800FE2DF13081F52EEB20933B018EE05A
:101680000E94F5198EE00E94F31990934201809315
:1016900041010E94120982EE90E00E943B0160919C
:1016A00041017091420180E090E04DEF26E504E0B9
:1016B0000E946A0980EC0E94E70087EE90E00E9499
:1016C0003B0180910001909101016EE071E04AE0E0
:1016D00050E00E947F1DF5C08E2D823009F052C06F
:1016E00081E085B9F4B880E00E94EF198C01609127
:1016F0003F017091400180E090E02EE43BE140E04A
:1017000050E00E94E21CA40193010E94431D020FBD
:10171000131F1A83098334B880E00E94EF198C01EB
:1017200060913F017091400180E090E02EE43BE148
:1017300040E050E00E94E21CA40193010E94431D7E
:10174000020F131F1C830B8325B8E4E1E4B981E089
:101750000E94EF198C0160913F017091400180E07F
:1017600090E02EE43BE140E050E00E94E21CA40146
:1017700093010E94431D020F131F1E830D8384EFEC
:1017800090E049C0FE2DF33041F5A5B82AE024B918
:1017900080E00E94EF1900913F01109140011695E1
:1017A000079518870F83801B910B9A83898382E2A8
:1017B00084B980E00E94EF19801B910B9C838B837E
:1017C000C5B8E8E2E4B981E00E94EF19801B910BF3
:1017D0009E838D8382E091E01EC0FE2DF43019F4CB
:1017E00084ED90E018C02E2D2530C1F415B8A4B8B2
:1017F00080E00E94EF199A838983C4B881E00E9437
:10180000EF199C838B83B4B882E00E94EF199E830A
:101810008D838CEE90E00E943B0130C08E2D86308F
:1018200051F5A4B8A5B880E00E94EF1920913F01BE
:1018300030914001821B930B9A838983C4B8C5B849
:1018400081E00E94EF1920913F0130914001821BFD
:10185000930B9C838B83B4B8B5B882E00E94EF19D8
:1018600020913F0130914001821B930B9E838D8319
:1018700080EF90E0D0CFEE2DE13029F180EC0E9496
:10188000E70089819A816EE071E04AE050E00E94B1
:101890005E1D0E9427010E94D8008B819C816EE012
:1018A00071E04AE050E00E945E1D0E9427010E9404
:1018B000D8008D819E816EE071E04AE050E00E9488
:1018C0005E1D0E942701C7B8C8B814B815B84F9B51
:1018D00009C00E945E144F9B05C00E945E14DA94FA
:1018E00009F0ACCE1E2D0E945D141F5F173059F019
:1018F000A4E0DA2E0894411C511CF1E13F2EE4E0F3
:101900002E2EE12E9BCE79E0C72EC7B8DD24D394CE
:10191000D5B8D4B880E00E94F3197C016AE0662E45
:1019200067B854E0852E85B884B881E00E94F31929
:101930008C014CE0A42EA7B830E1B32EB5B8B4B8F2
:1019400082E00E94F3190E0D1F1D080F191F15B814
:10195000C8B8C7B8D4B8C0903F01D090400180E06B
:101960000E94F319C81AD90ADA82C98268B867B81E
:1019700084B8E0903F01F090400181E00E94F319AB
:10198000E81AF90AFC82EB82A8B8A7B8B4B8A0900C
:101990003F01B090400182E00E94F319EC0CFD1C65
:1019A000A81AB90AEA0CFB1C80913F0190914001F2
:1019B0005C01AA0CBB1CA80EB91EA01AB10AAE1875
:1019C000BF08CC24DD24B80180E090E020E93AE1B2
:1019D00040E050E00E94E21CA60195010E94211DFA
:1019E00049013E832D83B70180E090E020E93AE190
:1019F00040E050E00E94E21CA60195010E94211DDA
:101A000079010E94F7008AE591E00E944B01B7013D
:101A100080E090E04FEF24EF03E00E946A0980EC41
:101A20000E94E70081E691E00E944B01B40180E052
:101A300090E04FEF24EF0E946A090E945C14F8E1E5
:101A4000EF16F1E0FF0690F42AEF8216910470F48D
:101A5000B7016057754E82EB91E00E94B11DB40151
:101A60006057754E84EB91E00E94B11D18861F826D
:101A70001092090182E060E00E941215E0905E0180
:101A8000F0905F01FC86EB8682E061E00E94121517
:101A900000915E0110915F011E870D8781E060E07B
:101AA0000E941215C0905E01D0905F01DE82CD824F
:101AB00080E062E00E94121580915E0190915F01CA
:101AC0009C838B8381E062E00E94121580915E010D
:101AD00090915F019A87898780E061E00E941215EA
:101AE00080915E0190915F019A8389830E94F70043
:101AF00083E40E94A70080E30E94A7000E94D80010
:101B0000C7016EE071E04AE050E00E945E1D0E9455
:101B100027010E94D800C8016EE071E04AE050E061
:101B20000E945E1D0E9427010E94D800B6018827EE
:101B300077FD8095982F44EF26E403E00E946A0920
:101B40008E010F5F1F4FCE010F96F8012191319149
:101B500027343105B4F4E817F907C1F7EE24FF2460
:101B6000F80160810E5F1F4F615FC70180549E4F77
:101B70000E94A31D0894E11CF11CF7E0EF16F1048C
:101B800079F70E945C1410E0CC24BAE08B2E912CE3
:101B9000A12CB12CAAE5EA2EA1E0FA2E0E94F700B2
:101BA00081E30E94A70087E291E00E944B0183E35A
:101BB0000E94A7008EE691E00E944B01109209015D
:101BC00082E060E00E94121520915A0130915B0181
:101BD00040915C0150915D010091660107C0CA010E
:101BE000B901A50194010E94211D0F5F073FBCF3BD
:101BF0000093660120935A01F70131834283538396
:101C0000073F09F0BCC0203631054105510508F4F5
:101C1000B6C0203FF5E53F07F0E04F07F0E05F0773
:101C200008F0ADC01F5F123009F0AAC060916701D3
:101C3000709168018EEB91E00E94B11D0E94F70047
:101C400086E791E00E944B018091670190916801C5
:101C50006EE071E04AE050E00E945E1D0E942701A4
:101C600087EC91E06DE10E94A31D88E088B989E0CE
:101C700087B980E284B982E00E94F51923E0853DAE
:101C80009207CCF714B810923E0110923D0182E009
:101C90000E94F5194C0186EB91E00E94951D992751
:101CA00087FD90952091410130914201820F931F51
:101CB00090933E0180933D0182E00E94F5198C01D2
:101CC00010923E0110923D0182E00E94F5195C01E4
:101CD000C0904101D090420186EB91E00E94951D99
:101CE000992787FD90958C0D9D1D90933E018093C3
:101CF0003D0186EB91E00E94951D682E80EC0E94CC
:101D0000E7008DE791E00E944B0186EB91E00E9495
:101D1000951DF3E0EF2EE80EA80CB91CA01AB10A2D
:101D2000A01AB10AB501882777FD8095982F262D36
:101D3000332727FD30952C0D3D1D40E050E00E94DB
:101D4000E21C000F111F9801442737FD4095542FC6
:101D50000E94431DE20E86EB91E06E2D0E94A31DB2
:101D60008E2D992787FD90956EE071E04AE050E056
:101D70000E945E1D0E9427010E945A1419C010E0A3
:101D800080EC0E94E70060915A0170915B018091A4
:101D90005C0190915D014091660126E404E00E949F
:101DA0006A090E946114C3948C2D803409F0F6CE28
:101DB00089E180933B010E94F70080EC0E94E700DC
:101DC0008CE491E00E944B0180E80E94E7008CEDDA
:101DD00090E00E944B01109209010E945D142E9622
:101DE0000FB6F894DEBF0FBECDBFCF91DF911F912C
:101DF0000F91FF90EF90DF90CF90BF90AF909F90AA
:101E00008F907F906F905F904F903F902F900895AC
:101E10000F931F93CF93DF9380E48AB980EC8BB943
:101E200086E880937A0014B784B7877F84BF88E1FF
:101E30000FB6F89480936000109260000FBE0E946D
:101E4000FF0013FF0AC080E80E94E70083ED90E0E6
:101E50000E944B010E945B14F5C088E40E94E700D9
:101E600084E891E00E945C0180E50E94E7008CE834
:101E700091E00E945C0188E50E94E70084E991E01E
:101E80000E945C0180E70E94E7008CE991E00E94DB
:101E90005C0188E70E94E70084EA91E00E945C010F
:101EA00080E185BF88E893E190930301809302016C
:101EB0004F990AC00E9460144F9906C080EB96E3C8
:101EC00090930301809302011092450110920D013D
:101ED0001092090110920701109206011092080158
:101EE000109244010E94F70018E017B982EB91E0CC
:101EF0000E949D1D90930B0180930A0184EB91E059
:101F00000E949D1D9093050180930401109257013A
:101F100010926401109265010E94E00010923C0151
:101F200088E893E19093400180933F018EEB80938A
:101F30003B0118B988E187B90E946D1417B984E094
:101F40000E94F319EC0190935301809352018B5C32
:101F5000984021E0833F9207C0F481E080934401E0
:101F600060913F017091400180E090E02FEB39E0FB
:101F700040E050E00E94E21C9E0140E050E00E94E0
:101F8000211D3093400120933F0180E80E94E7002B
:101F90008EE00E94F5198EE00E94EF19EC019093FB
:101FA00042018093410186EB91E00E94951D9927A3
:101FB00087FD90958C0F9D1F90933E0180933D016E
:101FC00089E180933B0185E00E94F51985E00E943C
:101FD000F319909351018093500189EE90E00E9493
:101FE0004B018091500190915101880F991F880FEA
:101FF000991F6AE070E00E940D1D615F7F4F80E0D5
:1020000090E060935A0170935B0180935C01909320
:102010005D014EEF26E502E00E946A090E94D800A9
:10202000809150019091510127E08C329207A8F4E1
:1020300026E08333920770F48CE790E00E944B0116
:102040000E945C141BB880E090E0DF91CF911F915B
:102050000F91089587E790E002C08FEE90E00E9414
:102060004B012FE088E190E00FB6F894A89580939B
:1020700060000FBE209360000E94120980EC0E9455
:10208000E70080914401882369F060913F017091DD
:10209000400180E090E04DEF26E503E00E946A09F0
:1020A0000E94D8008CE690E00E944B0180EC0E94D8
:1020B000E7000E94770880910901883039F40E9476
:1020C000F7008BE291E00E944B019CC30E94660ADC
:1020D00080E061E042E00E94BF0181E060E042E018
:1020E0000E94BF0180E062E041E00E94BF0182E007
:1020F00060E041E00E94BF0181E062E040E00E94B8
:10210000BF0182E061E040E00E94BF0180910901CF
:10211000882321F0863011F0813081F40E94770805
:1021200082E060E00E94121582E061E00E941215D8
:1021300081E060E00E9412150E944E170E94F70095
:1021400080910901813009F0FFC090910701913021
:1021500049F581E990E00E944B01809169010E945C
:10216000DC008AE391E00E944B0180916A010E94A9
:10217000DC0080E70E94520A8CEF90E00E944B0145
:1021800080916A01609169010E94121560915A0163
:1021900070915B0180915C0190915D0140916601BD
:1021A00026E4B1C2923009F04CC082E30E94A7003D
:1021B00082E491E00E944B019091690120916D01B0
:1021C000921759F480916A010E94DC008EE391E03D
:1021D0000E944B01809169012BC030916A0180916E
:1021E0006E013817B9F4892F0E94DC008AE391E070
:1021F0000E944B0180916A010E94DC008EE391E015
:102200000E944B0180916D010E94DC0081E00E94E0
:10221000520AF1C2321709F0BCC2891709F0B9C2DB
:102220000E94DC008AE391E00E944B0180916A01E8
:102230000E94DC008AE391E00E944B0180916E01D4
:10224000E3CF933009F0A5C29093540190935501C8
:1022500050916A0190916D01591721F41092540127
:10226000809355014091690130916E01431729F423
:1022700081E0809354011092550120917101521711
:1022800029F41092540182E08093550180917201EB
:10229000481729F442E04093540110925501321737
:1022A00031F421E02093540122E020935501981746
:1022B00031F482E08093540181E080935501809154
:1022C0005401833008F065C280915501833008F0D5
:1022D00060C283E30E94A70082E491E00E944B0168
:1022E000E0915401F0E0EE0FFF1FEE0FFF1FE759E2
:1022F000FE4F80810E94DC008AE391E00E944B0146
:10230000E0915401F0E0EE0FFF1FEE0FFF1FE759C1
:10231000FE4F81810E94DC008AE391E00E944B0124
:10232000E0915501F0E0EE0FFF1FEE0FFF1FE759A0
:10233000FE4F81810E94DC00809154018295807F54
:1023400090915501892B63CF823009F07FC0809135
:102350000601882371F180914C0190914D01A0916B
:102360004E01B0914F0120914801309149014091B7
:102370004A0150914B0182179307A407B50748F40F
:10238000809155019091560190935501809356018B
:1023900010C08093480190934901A0934A01B093E3
:1023A0004B01809152019091530190935101809380
:1023B000500180910801813019F482E091E002C05F
:1023C00087E091E00E944B0180910701833058F033
:1023D00080910801813019F48AE391E002C08EE314
:1023E00091E00E944B018CE091E00E944B018091B2
:1023F00056010E94DC00809154010E94DC00809113
:1024000055010E94DC0080EC0E94E7008FEF90E015
:102410000E944B01609148017091490180914A01ED
:1024200090914B0140E020E003E00E946A090E9485
:10243000D80088E191E00E944B01609150017091B9
:10244000510180E090E04DEF26E55EC1833009F058
:1024500082C08091080180FF02C080E501C08EE447
:102460000E94A7008DE20E94A70080910801869536
:10247000823011F484E403C0813021F485E40E94A9
:10248000A70005C0833019F487EF90E002C082EF07
:1024900090E00E944B0182E191E00E944B0180910B
:1024A00054010E94DC00809155010E94DC00809163
:1024B00056010E94DC0080910701882359F0809129
:1024C0000801843038F480FF02C081E001C082E05E
:1024D0000E94A70080EC0E94E700809108018430F0
:1024E000D8F48CEF90E00E944B01809154016091F0
:1024F00056010E94121560915A0170915B01809102
:102500005C0190915D014091660126E403E00E9428
:102510006A098CE191E013C089E40E94A7008DE371
:102520000E94A700609152017091530180E090E0F9
:102530004BEF21E402E00E946A0981E291E00E94EF
:102540004B01609158017091590180E090E04DEF8E
:1025500026E502E0D9C0853019F484EA90E004C091
:102560008430C1F48EE990E00E944B0180EC0E941F
:10257000E70089E990E00E944B01809154010E949C
:10258000DC00809155010E94DC00809156010E9480
:10259000DC0031C1863009F0DAC06091570161304A
:1025A00069F4809123010E94DC0087E491E00E949D
:1025B0004B01809122010E94DC0080C010924601F4
:1025C0002091250130912601409127015091280149
:1025D00080911A0190911B01A0911C01B0911D01E5
:1025E00082179307A407B50718F481E0809346018A
:1025F000623019F46093460122C02091460130E018
:102600008BE090E0289FF001299FF00D389FF00D9E
:102610001124E65EFE4F209130013091310140914E
:1026200032015091330180819181A281B38182175F
:102630009307A407B50718F482E0809346018091C0
:102640004601882389F481E30E94A70087E491E092
:102650000E944B0183E30E94A70087E491E00E945F
:102660004B0182E30E94A70080914601813089F4EA
:1026700081E30E94A70087E491E00E944B0182E37E
:102680000E94A70087E491E00E944B0183E30E942F
:10269000A70080914601823089F482E30E94A7005E
:1026A00087E491E00E944B0181E30E94A70087E448
:1026B00091E00E944B0183E30E94A70080EC0E94FE
:1026C000E70080915701813011F580E00E94200AD7
:1026D00080911E0190911F01A0912001B0912101D4
:1026E0000097A105B10509F486C087E391E00E9437
:1026F0004B0160911E0170911F018091200190910A
:1027000021014BEF28E403E00E946A0974C0809124
:102710004601882331F481E00E94200A82E00E9471
:10272000200A80914601813031F480E00E94200A25
:1027300082E00E94200A80914601823009F05BC04D
:1027400080E00E94200A81E00E94200A54C0873065
:1027500001F5809164010E94DC0087E291E00E9413
:102760004B01809165010E94DC0080EC0E94E70033
:1027700060915A0170915B0180915C0190915D01C3
:102780004091660126E404E00E946A090E94621AF0
:1027900032C080910701882371F487EB90E00E949A
:1027A0004B0180EC0E94E70083E890E00E944B011F
:1027B0008CE890E016C08CE890E00E944B018EEA15
:1027C00090E00E944B0180EC0E94E70087EC90E0D3
:1027D0000E944B0180910701805D0E94A7008AE35F
:1027E00091E00E944B01809145018F5F80934501EC
:1027F00010920D0107C01092450180910D018F5F6D
:1028000080930D014F9BFECF0E94611410925901DD
:10281000109258010EC04F9B5BCBA8950E946D147F
:10282000809158019091590101969093590180939C
:1028300058012091580130915901809102019091E5
:1028400003012817390738F380914501853028F4B2
:1028500080910D018A3008F43BCB88E10FB6F894E3
:1028600080936000109260000FBE5E984F99FECF7B
:102870002FCB2F935FB72F932AE08095089410F405
:10288000439802C0439A000008D007D086952A9545
:10289000B1F72F915FBF2F9108955F935FB75F935B
:1028A00000005EE35A95F1F700005F915FBF5F9112
:1028B000089503D002D001D000D000D003D002D0C0
:1028C00001D000D0A89500D003D002D001D000D014
:1028D00000D003D002D001D000D000D003D002D06D
:1028E00001D000D000D003D002D001D000D000D061
:1028F00003D002D001D000D0000008959927089598
:10290000FF920F931F93CF93DF9321E08C329207B6
:1029100018F08C52914002C080E090E069E170E0D4
:102920000E940D1DF82E6D3208F06CE2C62FD0E02B
:10293000CE01880F991F805090400E949D1D8C01F0
:10294000CE01880F991F8E5F9F4F0E949D1D9C0195
:1029500049E14F1950E0081B190B409FC001419FEE
:10296000900D509F900D11240C9669E170E00E942B
:102970000D1D620F731FCB01DF91CF911F910F913E
:10298000FF9008958F929F92AF92BF92DF92EF9245
:10299000FF920F931F93E0905A01F0905B0100911A
:1029A0005C0110915D01D09066014AE0842E912C6B
:1029B000A12CB12C08C0C801B701A50194010E9447
:1029C000211D79018A018D2DD39491EAE91696E8AB
:1029D000F90691E0090790E0190768F7809366010E
:1029E00020913F013091400140E050E0C801B70123
:1029F0000E94E21C28E833E140E050E00E94211DE3
:102A000020935A0130935B0140935C0150935D0128
:102A10001F910F91FF90EF90DF90BF90AF909F902C
:102A20008F900895AF92BF92CF92DF92EF92FF9274
:102A30000F931F93CF93DF93182F062F880F810FCB
:102A4000860F815080934701862F90E081559E4FDD
:102A50000E94951DB82E212F30E0C90184559E4F4C
:102A60000E94951DA82E80910901873009F40BC2A0
:102A7000863009F408C290910701E9E6F1E080E0B0
:102A80000FC02181201751F42081211739F42281B0
:102A9000338145E02C3D340708F4F5C18F5F34964F
:102AA000891778F388E0B82A1092630110926201C6
:102AB00010925A0110925B0110925C0110925D011C
:102AC00084EF809366010E94770888E088B915B882
:102AD000B7B8A4B8812F0E94F5196C01C0E0D0E00E
:102AE0008A2D61E00E949E010E946E14A895812F9C
:102AF0000E94F5197C01C816D90618F4EC18FD08D7
:102B000002C0EE24FF24CE37D10529F49BE4E91658
:102B1000F10408F4B3C12DE2E21621E0F20618F048
:102B2000209739F00CC0219631E0C43FD307C1F69D
:102B3000A5C145E1E41645E0F40608F06DC087EF55
:102B400080936601AA24BB240E946914812F0E94ED
:102B5000F519A8950894A11CB11CCA15DB05A0F7AE
:102B6000C816D90630F48C199D098E159F0560F49E
:102B700002C080E090E09701281B390BC90125367F
:102B8000310508F07BC102C080E090E021965E0133
:102B9000CC24DD24A0925E01B0925F01C09260015E
:102BA000D09261018E0D9F1D0E948014BC0180E0B7
:102BB00090E0A60195010E94E21C60935E01709373
:102BC0005F01809360019093610160935A0170935B
:102BD0005B0180935C0190935D010E94C21460913F
:102BE0005A0170915B0180915C0190915D0128EE2A
:102BF00033E040E050E00E94E21C24E630E040E098
:102C000050E00E94211D20935A0130935B014093B4
:102C10005C0150935D0123C1EA2CEE0C0E94770801
:102C200015B88FE087B988E088B9E4B880E480936C
:102C30007B0084E580BF812F806480937C0086E1E7
:102C400080937A000E947114109280001092850087
:102C50001092840087E286BBE5B880910901833039
:102C600079F481E08093810081E090E0012E02C040
:102C7000880F991F0A94E2F780958F7087B904C076
:102C800081E080938100B7B881E026B325FD09C0BB
:102C900020FFFBCF86BBA895219636E0C034D30732
:102CA000A1F71092810080E286BBE0908600F09050
:102CB00087008091840090918500E816F90628F439
:102CC00020FF03C081E086BB219686E980937A00CD
:102CD00014B815B8812F0E94F51920914101309147
:102CE0004201821B930B0C969093680180936701BD
:102CF00043E0C032D40708F0C1C0CE01B7010E9442
:102D00007F1460935E0170935F01809360019093E4
:102D1000610124EF20936601C234D10588F024E6D6
:102D200030E040E050E00E94211D20935E0130938E
:102D30005F01409360015093610186EF80936601CB
:102D4000609100017091010180E090E020915E01AE
:102D500030915F0140916001509161010E94E21C3D
:102D600020E233E040E050E00E94211D20935E010C
:102D700030935F014093600150936101EAE5F1E017
:102D800020935A013183428353830E94C21480915D
:102D90006601843F09F055C0C0905A01D0905B0194
:102DA000E0905C01F0905D0180EAC8168FE0D806E3
:102DB00080E0E80680E0F806C0F4A70196012452FE
:102DC0003F4F4F4F5F4F60EA7FE080E090E00E940E
:102DD000211D2C0D3D1D4E1D5F1D20935A0130936A
:102DE0005B0140935C0150935D018091470190E04D
:102DF00080549E4F0E94951D20915A0130915B0195
:102E000040915C0150915D0190E0A0E0B0E082173C
:102E10009307A407B50768F4281B390B4A0B5B0B13
:102E200020935A0130935B0140935C0150935D0104
:102E300008C010925A0110925B0110925C0110922E
:102E40005D01A4B880915A0190915B01A0915C0151
:102E5000B0915D0189319105A105B10578F08091AE
:102E60000701882321F080910901833039F487E03C
:102E700080930901009364011093650188E087B98C
:102E800088B914B815B8DF91CF911F910F91FF90B9
:102E9000EF90DF90CF90BF90AF9008952F923F9228
:102EA0004F925F926F927F928F929F92AF92BF925A
:102EB000CF92DF92EF92FF920F931F93DF93CF9306
:102EC000CDB7DEB76C970FB6F894DEBF0FBECDBF9F
:102ED00080910901863009F069C2AA245FC22A2DB7
:102EE00030E03A8B298B4BE050E0249FF001259F86
:102EF000F00D349FF00D1124E65EFE4F808191812C
:102F0000A281B381893052E5950750E0A50750E0D2
:102F1000B50708F042C2BB241F01BF01675F7F4FA6
:102F2000788F6F8BCF0108969A8F898FAB8E9B2DF0
:102F3000923030F4E98DFA8DE080EF89F88D05C08C
:102F4000EF89F88DE080E98DFA8DA0808A2D90E0E0
:102F500081559E4F0E94951DC82E8E2D90E0845560
:102F60009E4F0E94951D15B8F8E0F8B9F101208137
:102F7000318142815381203F310541055105B8F42B
:102F8000B0FC15C0809004019090050120E735EE5B
:102F9000820E931E2C2D286081E090E00E2C02C042
:102FA000880F991F0A94E2F7282B27B908C084B923
:102FB0008C2D886087B9809004019090050140E0D5
:102FC0008E2D4C8F0E94F1198C018A2D0E94F519CB
:102FD0004C8D0230110518F48230910518F04F5FC6
:102FE000443171F730E430937B0044E540BF8E2DCF
:102FF000806480937C0056E150937A0010928000A8
:10300000109285001092840067E266BB1C2D186048
:103010000E9471148B2D90E09C8B8B8B8170907033
:103020009E8B8D8B9B8990FD05C0E1E8E09381002C
:1030300018B908C018B90E947A14F0E2F6BB21E86A
:1030400020938100CC24DD2426B325FD0CC020FF75
:10305000FBCF31E036BBA8950894C11CD11C40E5DC
:10306000C416D10489F71092810050E256BB00913A
:103070008600109187008091840090918500081748
:10308000190738F420FF05C061E066BB0894C11C35
:10309000D11C78E078B986E980937A0040E08E2DE3
:1030A0004C8F0E94F1193C018A2D0E94F5199C0158
:1030B0004C8D92E06916710418F42230310518F035
:1030C0004F5F443161F7C601B8010E947F147B0154
:1030D0008C0160935A0170935B0180935C01909323
:1030E0005D018EEB91E00E949D1D60914101709108
:1030F0004201680F791FE0E98E16EAE19E06A8F406
:10310000F7E0EF16F1040105110530F0D801C70111
:103110000697A109B10937C010925A0110925B01BC
:1031200010925C0110925D0136C06E5C7F4F28E00A
:10313000E216F1040105110570F0D801C7010797E7
:10314000A109B10980935A0190935B01A0935C019E
:10315000B0935D0108C010925A0110925B01109269
:103160005C0110925D0180915A0190915B01A091E8
:103170005C01B0915D018D309105A105B10558F05C
:103180000197A109B10980935A0190935B01A09323
:103190005C01B0935D014D895E894115510599F03F
:1031A00080915A0190915B01A0915C01B0915D0109
:1031B0008296A11DB11D80935A0190935B01A0934B
:1031C0005C01B0935D0150E5C516D10440F010924A
:1031D0005A0110925B0110925C0110925D01809186
:1031E0000A0190910B0180599A41F10120813181AE
:1031F000820F931F880D991D6C01EE24FF2480E03F
:1032000090E024E630E040E050E00E94E21C2B0118
:103210003C01B40180E090E020913F0130914001F9
:1032200040E050E00E94E21CA70196010E94211D8F
:1032300040E050E0C301B2010E94211DE22FF0E006
:10324000E859FF4F149120915A0130915B01409150
:103250005C0150915D01C701B6010E94E21C212F63
:1032600030E040E050E0E3E0220F331F441F551FE1
:10327000EA95D1F70E94211DEB89FC89EE0FFF1F13
:10328000EE0FFF1F61E070E06C0F7D1FE60FF71F70
:1032900020833183428353838D899E89009799F4DB
:1032A000293031054105510570F0EB89FC893196D3
:1032B000EE0FFF1FEE0FFF1FE60FF71F2083318376
:1032C00042835383B394A895B3949B2D943008F410
:1032D0002ECEAB8CE8E0E8B90E9467142D813E81C8
:1032E0004F81588589819A81AB81BC818217930770
:1032F000A407B50790F469897A898BE090E0689F0C
:10330000F001699FF00D789FF00D1124E65EFE4FED
:10331000248335834683578311C029893A894BE03A
:1033200050E0249FF001259FF00D349FF00D1124F3
:10333000E65EFE4F84839583A683B7838D859E8545
:10334000AF85B88929853A854B855C85281739076B
:103350004A075B0720F489879A87AB87BC878985F2
:103360009A85AB85BC8569897A892BE030E0629FBC
:10337000F001639FF00D729FF00D1124E65EFE4F89
:10338000248135814681578182179307A407B507A9
:1033900020F484839583A683B783A39480915701F7
:1033A000A81608F49CCD88E087B914B86C960FB6BF
:1033B000F894DEBF0FBECDBFCF91DF911F910F916B
:1033C000FF90EF90DF90CF90BF90AF909F908F9045
:1033D0007F906F905F904F903F902F9008950E9444
:1033E00068140E9469140E9469141F93182F1064B6
:1033F00010937C00E12FE07880913C01E81769F0A0
:103400000E94721480917A00806480937A00809187
:103410007A0086FDFCCFE0933C0120E030E0A9017A
:10342000E0E020C080917A00806480937A008091EF
:103430007A0086FDFCCF6091780070917900260FAC
:10344000371F411D511DE43061F480913E018030F1
:1034500041F084E02030380720F417FD02C01068E6
:10346000C7CFEF5F80913B01E817E0F217FF05C07F
:1034700060913D0170913E0104C060913F017091E7
:10348000400180E090E00E94E21C2FEF33E041E039
:10349000620F741F811D911D40E050E00E94211DAC
:1034A000B901CA0120913B01322F3595630F711D7F
:1034B000811D911D30E040E050E00E94211DC901B6
:1034C0001F9108952F923F924F925F926F927F9239
:1034D0008F929F92AF92BF92CF92DF92EF92FF9224
:1034E0000F931F93DF93CF93CDB7DEB760970FB6DF
:1034F000F894DEBF0FBECDBF20915A0130915B0121
:1035000040915C0150915D01109166016AE0A62E28
:10351000B12CC12CD12C07C0CA01B901A60195015B
:103520000E94211D1F5F173FBCF320935A01309367
:103530005B0140935C0150935D011093660128305C
:1035400067E0360760E0460760E0560708F421C2EE
:1035500081E391E00E944B010091640110E0C801F9
:1035600081559E4F0E94951D98E0C92EC82A8091D2
:103570006501E82EFF24C70181559E4F0E94951DCD
:10358000B8E0BB2EB82AC80184559E4F0E94951DF5
:10359000A82EC70184559E4F0E94951DD82E0E94CB
:1035A000770888E088B9A1E0EA2EF12C012D112DD1
:1035B00081E090E0A0E0B0E089839A83AB83BC8394
:1035C0001D821E821F8218866624C7B880916401FE
:1035D000806C80937C0080917A00806480937A0074
:1035E00080917A0086FDFCCFD5B8D4B88091640173
:1035F000806C80937C0080917A00806480937A0054
:1036000080917A0086FDFCCF80917A00806480935F
:103610007A0080917A0086FDFCCF2090780030906F
:10362000790080916501806C80937C0080917A00A4
:10363000806480937A0080917A0086FDFCCF80912F
:103640007A00806480937A000E9477140E94781434
:103650000E947A14A895A895A895A895A895A895CC
:1036600014B880917A0086FDFCCF209178003091CB
:10367000790015B880917A00806480937A008091F7
:103680007A0086FDFCCF80917A00806480937A0076
:1036900080917A0086FDFCCF80917800909179002E
:1036A0008330910510F4A8959FCF44245524A90197
:1036B00060E070E049875A876B877C879C0140E017
:1036C00050E02D873E874F87588BB7B880917A009E
:1036D000806480937A0080917A0086FDFCCFA5B843
:1036E000A4B8A89580916501806C80937C0080913E
:1036F0007A00806480937A0080917A0086FDFCCF06
:1037000080917A00806480937A0080917A0086FDAF
:10371000FCCF809078009090790080916401806C5B
:1037200080937C0080917A00806480937A008091FD
:103730007A0086FDFCCF80917A00806480937A00C5
:103740000E9477140E9478140E947A14A895A89574
:10375000A895A895A895A89514B880917A0086FD9B
:10376000FCCF409178005091790015B880916401A8
:10377000806C80937C0080917A00806480937A00D2
:1037800080917A0086FDFCCF80917A0080648093DE
:103790007A0080917A0086FDFCCF209178003091EC
:1037A00079002330310510F4A89599CF14B8C401DD
:1037B000A0E0B0E0820D931DA41DB51DE80EF91E1A
:1037C0000A1F1B1FCA01A0E0B0E049855A856B851E
:1037D0007C85840F951FA61FB71F49815A816B8175
:1037E0007C81480F591F6A1F7B1F49835A836B8353
:1037F0007C8340E050E06D857E858F859889260F1B
:10380000371F481F591F8D819E81AF81B885820F58
:10381000931FA41FB51F8D839E83AF83B8876394C6
:10382000962D903809F0D1CEC801B70126E930E0D5
:1038300040E050E00E94E21C20915A0130915B016F
:1038400040915C0150915D010E94211D570168016A
:10385000A21AB30AC40AD50A87EC91E00E94951D0A
:10386000282E4090040150900501682F772767FDAE
:103870007095872F972FA60195010E94E21C920157
:10388000220F331FA201E3E0440F551FEA95E1F731
:10389000240F351F205A394040E050E00E94431D5C
:1038A00079018A01EA0CFB1C0C1D1D1D29813A813E
:1038B0004B815C81E216F3060407150738F45901C1
:1038C0006A01AE18BF08C00AD10A03C0AA24BB24EB
:1038D00065016D817E818F81988524ED33E040E024
:1038E00050E00E94E21C28EE33E040E050E00E94ED
:1038F000211D39014A01B20160597A41A216B3066D
:10390000C406D50608F180E090E02AE030E040E00F
:1039100050E00E94E21CA6019501261937094809CA
:1039200059090E94E21CA80197010E94211D3093B1
:10393000630120936201B90180E090E04EEF24EF33
:1039400002E00E946A0925C080E090E02AE030E0B1
:1039500040E050E00E94E21CA40193012A193B09B7
:103960004C095D090E94E21CA80197010E94211DDB
:10397000122F80E30E94A700812F8150833648F4E4
:103980008FE30E94A700622D611B87EC91E00E94EB
:10399000A31D60960FB6F894DEBF0FBECDBFCF91CA
:1039A000DF911F910F91FF90EF90DF90CF90BF902C
:1039B000AF909F908F907F906F905F904F903F90CF
:1039C0002F900895629FD001739FF001829FE00DB8
:1039D000F11D649FE00DF11D929FF00D839FF00D8E
:1039E000749FF00D659FF00D9927729FB00DE11D3A
:1039F000F91F639FB00DE11DF91FBD01CF01112417
:103A00000895991B79E004C0991F961708F0961B3A
:103A1000881F7A95C9F780950895AA1BBB1B51E1B1
:103A200007C0AA1FBB1FA617B70710F0A61BB70B2E
:103A3000881F991F5A95A9F780959095BC01CD01D3
:103A40000895A1E21A2EAA1BBB1BFD010DC0AA1FDF
:103A5000BB1FEE1FFF1FA217B307E407F50720F0F7
:103A6000A21BB30BE40BF50B661F771F881F991F72
:103A70001A9469F760957095809590959B01AC01BB
:103A8000BD01CF01089597FB092E05260ED057FDE5
:103A900004D0D7DF0AD0001C38F4509540953095FB
:103AA00021953F4F4F4F5F4F0895F6F790958095C2
:103AB000709561957F4F8F4F9F4F0895FB019F0138
:103AC000E8944230C4F04532B4F44A3029F497FB0C
:103AD0001EF4909581959F4F642F77270E940D1DAE
:103AE000805D8A330CF0895D8193CB010097A1F74B
:103AF00016F45DE251931082C9010C94B61DFB01CE
:103B00009F01423074F0453264F4642F77270E949D
:103B10000D1D805D8A330CF0895D8193CB01009788
:103B2000A1F71082C9010C94B61DF999FECF92BD80
:103B300081BDF89A992780B50895A8E1B0E042E0E8
:103B400050E00C94C81D262FF999FECF1FBA92BDE4
:103B500081BD20BD0FB6F894FA9AF99A0FBE01966E
:103B600008950E94A31D272F0C94A41DDC01FC01C5
:103B7000672F71917723E1F7329704C07C916D93A1
:103B800070836291AE17BF07C8F30895DC01CB01C3
:103B9000FC01F999FECF06C0F2BDE1BDF89A31965D
:103BA00000B40D9241505040B8F70895F894FFCFFB
:023BB00074039C
:00000001FF
