:100000000C9488000C94A5000C94A5000C94A500F9
:100010000C94A5000C94A5000C94A5000C94B001C0
:100020000C94A5000C94A5000C94DC170C94A5006E
:100030000C94A5000C94C5170C94A5000C94A50075
:100040000C94A5000C94A5000C94A5000C94A5009C
:100050000C94A5000C94B1010C94A5000C94A5007F
:100060000C94A5000C94A5000000140029003E008B
:100070005300690080009700AE00C600DF00F80062
:1000800012012D01490165018201A001BE01DE01BD
:10009000FF012102440268028E02B502DE0209035A
:1000A000350364039403C803FE0337047304B404E4
:1000B000F90443059305EA054906B3062907AE0787
:1000C0004808FF08DE09BA03870358032E03070315
:1000D000E402C302A402880256657273696F6E203F
:1000E000312E30386B005265663D005248663D0047
:1000F00052303D00203E3130306E46005245465F62
:10010000433D005245465F523D0001041001020488
:1001100011241FBECFEFD4E0DEBFCDBF11E0A0E0C1
:10012000B1E0E0E1FFE302C005900D92A230B1071B
:10013000D9F711E0A2E0B1E001C01D92A039B107EA
:10014000E1F70E94250F0C94861F0C9400001F936A
:10015000182F81E0612F0E9480010E9452141830F4
:1001600048F41630C0F4123061F0133079F01130D9
:10017000F1F405C0143E89F0143FC9F410C08EE3B9
:1001800006C08CE70E9423148CE312C08CE70E9407
:1001900023148CE70DC082E50BC085E709C08FE40E
:1001A0000E94231488E60E9423148DE601C0812F4B
:1001B0000E9423141F91089580E20E94A7000895D1
:1001C0008F5C0E94A70008958DE00E9423148AE0AE
:1001D0000E94231408951F93182F80E0612F0E941E
:1001E00080010E945214103811F0103C11F40E944A
:1001F000E4001F91089581E00E94EB0082E090E00E
:100200000E94B5030E94E40080E80E94EB0008957C
:1002100086E090E00E94B50380E860E30E948001E0
:1002200081E090E00E94B50380E860E30E948001D5
:100230000E944C1480E860E30E9480010E944C14EC
:1002400080E860E20E94800182E090E00E94B503B5
:1002500088E20E94EB008CE00E94EB0086E00E94A6
:10026000EB000E94FB000895EF92FF92CF93DF9383
:10027000E82EE7017E01F92EE70102C00E94A700E7
:1002800089918823D9F7DF91CF91FF90EF9008955E
:10029000CF93DF93EC01FE018491882331F0803805
:1002A00021F00E94A7002196F6CFDF91CF9108950B
:1002B000CF93DF93EC01CE010E94451F882331F0DC
:1002C000803821F00E94A7002196F5CFDF91CF91D1
:1002D00008950F931F93CF93DF938C01C0E0D0E07C
:1002E000C8018C0F9D1F0E94451F0E94A7002196E8
:1002F000C830D105A9F7DF91CF911F910F910895D3
:1003000080FD5C9A80FF5C98549A00005D9A559A33
:10031000589859985A985B9864FD589A509A65FD78
:10032000599A519A66FD5A9A529A67FD5B9A539A66
:1003300000005D980E945B1487FD11C05D9A58987B
:1003400059985A985B9860FD589A61FD599A62FDD8
:100350005A9A63FD5B9A00005D980E945B140895B1
:1003600018951895AF92BF92CF92DF92EF92FF92BD
:100370000F931F93CF93DF933AE0C32E28E0D22E42
:100380009AE2A92E85E1B82ED7B8D8B815B8A4B886
:1003900080E00E94A01A8C0181E00E94A61AEC0164
:1003A00082E00E94A61A209107012830C1F041E0A6
:1003B000C430D10508F040E021E00430110508F018
:1003C00020E0422350E021E030E08430910510F03D
:1003D00020E030E0242335232115310521F088E089
:1003E00087B914B84FC023E0083E120710F028E088
:1003F00001C029E033E0C83ED30708F4226033E0AF
:10040000883E930708F4246027B9B4B8C0E0D0E070
:10041000A89580E00E94941A7C0181E00E94A61AAF
:100420008C0182E00E94A61A24E1E21625E0F20681
:1004300008F4389A35E00431130708F4399A25E0B6
:100440008431920708F43A9A36E0E316F10430F466
:100450000630110518F48630910538F0219681E0B8
:10046000C43FD807A9F6D092070100E010E004C00D
:100470000E944C140F5F1F4F0C171D07C8F3CA943E
:1004800009F082CFDF91CF911F910F91FF90EF90F4
:10049000DF90CF90BF90AF90089587EC91E00E94DD
:1004A0004D1F2091440130914501280F391F83E0F1
:1004B000283E380720F0C901885E934002C080E0E2
:1004C00090E062E370E00E94BD1E683008F067E0D3
:1004D00070E0FB01EE0FFF1FEA53FF4F459154916F
:1004E000FB01EE0FFF1FE853FF4F2591349162E3AC
:1004F000681B70E0421B530B649FC001659F900D09
:10050000749F900D1124499662E370E00E94BD1E15
:10051000620F731F709301016093000108951F9390
:1005200014E10E94DC001150E1F71F9108952F9211
:100530003F924F925F927F928F929F92AF92BF9223
:10054000CF92DF92EF92FF920F931F93DF93CF939F
:10055000CDB7DEB72F970FB6F894DEBF0FBECDBF75
:100560006B017C01142F722E033029F0043031F01E
:1005700084E690E014C088EE93E011C080E197E239
:100580000EC0C701B6016B5F7F4F8F4F9F4FA50114
:1005900094010E94D11E69017A011F5F08C01C01ED
:1005A00044245524BAE08B2E912CA12CB12CC214DA
:1005B000D304E404F50428F7812F845F87FD03C08A
:1005C000833118F403C080E001C082E123E0622F90
:1005D0000E94B11E192F992319F08F5F291B122F2A
:1005E00090E080549E4F0E94451FB82EC6016E01B8
:1005F0000894C11CD11CB6014AE050E00E942F1F94
:10060000F60101900020E9F731972E2E2C18822C4C
:10061000811A181444F08EE20E94A700882019F075
:1006200080E30E94A700112311F488248A946E01AC
:100630000894C11CD11C00E010E0992487FC909420
:100640000DC00F5F1F4FF60181916F010E94A7003F
:100650000815190519F48EE20E94A700021588F307
:10066000BB2019F08B2D0E94A700772019F0872D51
:100670000E94A7002F960FB6F894DEBF0FBECDBF25
:10068000CF91DF911F910F91FF90EF90DF90CF906E
:10069000BF90AF909F908F907F905F904F903F90D2
:1006A0002F9008950F9390E0FC01EE0FFF1FE80FCD
:1006B000F91FEE0FFF1FEE0FFF1FE85EFE4F608178
:1006C0007181828193816436710581059105C0F441
:1006D00020911C0130911D0140911E0150911F017C
:1006E000211531054105510559F4818562850E9426
:1006F000061BBC0180E090E04EEF24EF03E003C056
:100700004FEF24EF04E00E9497020E94DC000F915B
:1007100008950F93833098F4E82FF0E0EE0FFF1F59
:10072000EE0FFF1FE858FE4F6281738180E090E07A
:100730004DEF26E503E00E9497020E94DC000F9136
:1007400008951F93182F80EC0E94EB008EE091E03B
:100750000E945801812F82958F700E948903812FFA
:100760008F700E9489031F91089542E01CC082305F
:10077000910518F002973EE303C037E180E090E076
:100780002091B200230F2093B3004093700023B751
:10079000217F266023BF23B7216023BF889523B71D
:1007A0002E7F23BFA895009711F71092700008952F
:1007B0001F93182F60FF03C085B1812B03C095B133
:1007C0008095892385B984B1812B84B982E090E03A
:1007D0000E94B50384B11095812384B985B181232A
:1007E00085B91F9108952F923F924F925F926F9219
:1007F0007F928F929F92AF92BF92CF92DF92EF92B1
:10080000FF920F931F93DF93CF93CDB7DEB72F9750
:100810000FB6F894DEBF0FBECDBF182F762E642E14
:10082000A895862F90E0FC01E65FFE4F24912A8375
:10083000E42FF0E0E65FFE4F0491302F330F3B834F
:10084000212F30E0F901E65FFE4FC4904C2D440F9C
:100850004C83235F3E4FF901D490835F9E4FFC0190
:10086000F49128E0D22AF860F98315B83A8134B9B6
:10087000D7B8D8B8802F60E00E94D803872D0E9497
:10088000A01A9E838D8343E0813D940748F0802F1A
:1008900061E00E94D803872D0E94A61A9E838D8353
:1008A0008D819E81A1E0883C9A0708F4B4C08B81B9
:1008B000BA818B2B84B9872D0E94941A5C01862DF6
:1008C0000E94A61A7C01EB81E5B9872D0E94941A3B
:1008D000950128513E4F2817390708F045C08091EF
:1008E0000701833009F440C088E088B9F981F7B97D
:1008F0008B818C2984B985B9862D0E94941A2FE0AA
:100900008834920728F083E08093070184E004C0D4
:1009100083E08093070186E080930601B09258013E
:10092000A0925701C5018E199F0990936001809391
:100930005F01B50180E090E028EE33E040E050E058
:100940000E94921E209102013091030140E050E08C
:100950000E94D11E30935A012093590160925B018D
:1009600010935C0170925D0188E088B9398137B9D4
:100970008B818C2984B985B9812F0E94941A5C01DE
:10098000862D0E94A61A7C01C5B8812F0E94941A58
:1009900088519E4F8A159B05F0F5809107018330A1
:1009A000D1F1D8B8D7B8862D0E94941A43E0813D82
:1009B000940728F483E08093070185E004C083E076
:1009C0008093070187E080930601EA18FB08F09204
:1009D0006001E0925F0160914001709141016A19EC
:1009E0007B0980E090E028EE33E040E050E00E9498
:1009F000921E209108013091090140E050E00E94D0
:100A0000D11E30935A012093590160925B0170927C
:100A10005C0110935D0188E088B9898187B9C5B808
:100A20009C2D902B998794B9809040019090410122
:100A3000812F0E94A01A5C01862D0E94A61A7C01BB
:100A40008A30910598F58B818C2984B9E091400119
:100A5000F0914101FD87EC87812F0E94A01A2C851F
:100A60003D85281B390B3D872C87862D0E94A61AB1
:100A70007C018C859D854C01AA24BB242091080112
:100A80003091090140E050E060E677EB87E490E0C8
:100A90000E94D11EC501B4010E94921E970140E040
:100AA00050E00E94D11E49015A010EC0D401AA197A
:100AB000BB09BD87AC87CD018E199F09B7010E9484
:100AC000BD1E4B01AA24BB24BA81B4B915B8D7B84E
:100AD000D8B881E090E00E94B503ED81FE8123E06B
:100AE000E13DF20708F017C22A80202A24B8872D9A
:100AF0000E94A01A3DE08F35930708F49AC04B80FE
:100B00004A81442A44B8872D0E94A01A98878F836F
:100B1000862D0E94A61A60910701262F22502230AE
:100B200018F421E0209304012091040130E0F90140
:100B3000EE0FFF1FEE0FFF1FE15BFE4F80829182E1
:100B4000A282B382F901EE0FFF1FE95AFE4F4091D6
:100B5000400150914101AC85BD854A1B5B0B4E198C
:100B60005F0951834083653009F463C0B3E0823D7F
:100B70009B0730F082E0809307018093060153C009
:100B8000ED81FE81E136F10508F04DC02F813885F9
:100B900047E0213D340708F446C083E08093070115
:100BA00080930601A98087E0A822862D8064809327
:100BB0007C0081E090E09093600180935F013BE0D6
:100BC000E32EA895802F61E00E94D80344B886B137
:100BD0008A21E9F39A8194B980917A0080648093A4
:100BE0007A0080917A0086FDFCCF209178003091C8
:100BF000790080915F019091600181509C4F821B30
:100C0000930B9093600180935F01EA94D1F6880F73
:100C1000991F880F991F69E070E00E94BD1E7093B4
:100C2000600160935F0160925B0170925C011093C0
:100C30005D0124B805B9872D0E94A01A98878F837B
:100C4000E0904001F0904101862D0E94A61AE81A1A
:100C5000F90AAAE0EA16F10488F58B81BA818B2B98
:100C600084B9EB81E5B9872D0E94A01A98878F83FC
:100C7000E0904001F0904101862D0E94A61AE81AEA
:100C8000F90A2F8138854901AA24BB242091020149
:100C90003091030140E050E060E677EB87E490E0BC
:100CA0000E94D11EC501B4010E94921E970140E02E
:100CB00050E00E94D11E19012A010AC08F81988537
:100CC0008E199F09B7010E94BD1E1B0144245524A3
:100CD000398137B988E088B9498544B945B9812F48
:100CE0000E94A01AA6E080349A0708F010C18091F3
:100CF0000401813009F497C1802F60E00E94D8037D
:100D0000812F0E94A01A5C0115B881E090E00E943A
:100D1000B503C5B8812F0E94A01AB0E4AB16B6E0A7
:100D2000BB0608F047C0E1E181339E0708F442C0EA
:100D300085E08093070114B815B8F981F8B981E00E
:100D400090E00E94B503C4B8812F0E94A01A853F8D
:100D5000910508F0D6C0298524B9862D0E94A01AD5
:100D600033E0813D930708F4CCC0812F0E94A61A7E
:100D700042E08D3D940708F4C4C0C4B8812F0E949E
:100D8000A01AA2E08D3D9A0708F4BBC0C5B881E067
:100D900090E00E94B50315B8812F0E94A01A853FEC
:100DA000910508F0AEC084E08093070181E0809354
:100DB0000401A7C0AB80AC28A4B8A5B88AE090E035
:100DC0000E94B5038090400190904101812F0E94C4
:100DD000A61AAC012091400130914101862D2B874C
:100DE0003A874E875F870E94A61A2B853A85B901FC
:100DF000681B790B8091070182504E855F85823098
:100E000018F481E0809304018091040190E0FC01DA
:100E1000EE0FFF1FEE0FFF1FE15BFE4F20823182BE
:100E200042825382FC01EE0FFF1FE95AFE4F2091D0
:100E30004001309141018F819885281B390B2E1973
:100E40003F093183208399E06E3F790738F082E0D3
:100E50008093070181E08093060153C0AD81BE817C
:100E6000A136B10508F04DC0841A950AB9E48B1675
:100E7000BDE09B0608F445C083E08093070182E053
:100E800080930601F7E0EF2EED20862D806480939D
:100E90007C0081E090E09093600180935F01EBE043
:100EA0008E2EA895802F60E00E94D803A4B8A5B824
:100EB00086B18E21E9F7C4B880917A00806480936E
:100EC0007A0080917A0086FDFCCF80917800909125
:100ED000790020915F0130916001820F931F909300
:100EE000600180935F018A94E1F6880F991F880F53
:100EF000991F69E070E00E94BD1E709360016093CD
:100F00005F0160925B0110935C0170925D0188E06B
:100F100087B988B988C088E088B968ECE62EA980CE
:100F2000AD28A7B881E090E00E94B503E981E7B958
:100F3000812F0E94A61A8231910510F0EA9489F758
:100F4000FC81F4B9F5B9802F61E00E94D803812FAC
:100F50000E94A01A5C01802F60E00E94D803812FBC
:100F60000E94A01A482E892EC4B8C5B8812F0E94AD
:100F7000A01A7C01872D0E94A61AE81AF90A802F70
:100F800061E00E94D803812F0E94A01A1C01872DC6
:100F90000E94A61A281A390A2C8124B925B9E2140C
:100FA000F30438F0802F60E00E94D803A42CB82C02
:100FB0001701812F0E94A01A91012759304041E169
:100FC0002938340780F58215930568F5C50153E08B
:100FD000969587955A95E1F78A0D9B1D8215930585
:100FE00010F544E0AA0CBB1C4A95E1F72A143B0417
:100FF000D0F480910701882311F0863019F481E044
:101000008093070180910501E82FF0E0EE0FFF1FAC
:10101000EE0FFF1FE858FE4F108371823382228249
:101020008F5F8093050180910501882309F00FC22D
:10103000A8958091400190914101880F991F880FD8
:10104000991F909341018093400180913E019091BE
:101050003F01880F991F880F991F90933F0180933C
:101060003E018EEB80933C0188E088B9898187B985
:10107000C4B8C5B8EE24FF2401E001C07C01872D6F
:101080000E94A01A4C01812F0E94A61A9C012E19C1
:101090003F0937FF03C0309521953F4F233031057D
:1010A00084F4AC0115B89C8194B9812F4E875F8779
:1010B0000E94A01A4E855F858135910508F0ACC16C
:1010C00005C0A8950F5F0931C9F6A6C1AC81A5B9C5
:1010D000812F4E875F870E94A01A7C01D7B8D8B8AD
:1010E00015B8BA81B4B9AA24BB2421E04E855F8526
:1010F0002A0101C05601812F2B870E94A01A082FB8
:10110000292E872D0E94A61A6C018A199B092B850E
:1011100097FF03C0909581959F4F833091058CF484
:10112000A2018A81880F84B9872D4E865F870E942D
:10113000A01A2C014E855F85E4E4403C5E0730F048
:101140000CC0A8952F5F2931A9F666C1F5E8EF1606
:10115000F1E0FF0608F060C106C020EBE2162DE4C6
:10116000F20608F059C134EAC31632E0D30608F09B
:1011700072C048E94416510408F44EC18090400101
:1011800090904101B70180E090E028E937EB40E022
:1011900050E00E94921E94012E193F0940E050E059
:1011A0000E94D11E59016A0184189508B40180E09B
:1011B00090E028E937EB40E050E00E94921E920157
:1011C00040E050E00E94D11E88E7E8168FE0F80664
:1011D00070F4C601B501B2E0660F771F881F991F32
:1011E000BA95D1F7620F731F841F951F12C098E73D
:1011F00049169FE05906A0F4CA01B901A2E0660FA2
:10120000771F881F991FAA95D1F76A0D7B1D8C1D2A
:101210009D1D25E030E040E050E00E94D11E08C056
:101220002A0D3B1D4C1D5D1D5695479537952795FD
:10123000CA01B90124E630E040E050E00E94921E6D
:101240006B017C018CEA9DE0A0E0B0E0C80ED91EE5
:10125000EA1EFB1E78C0CA018416950608F4C40174
:10126000E02EF22CEC14FD0408F476012C01841716
:10127000950708F42A01B201681B790B80E090E021
:10128000209108013091090140E050E00E94921E37
:1012900020914001309141012419350940E050E08E
:1012A0000E94D11E49015A011701CE14DF0408F42F
:1012B0001601E218F308B70180E090E020910201E6
:1012C0003091030140E050E00E94921E910140E005
:1012D00050E00E94D11E98E749169FE0590670F42D
:1012E000C501B401E2E0660F771F881F991FEA95D8
:1012F000D1F7620F731F841F951F12C0A8E72A162B
:10130000AFE03A06B0F4CA01B90122E0660F771FD8
:10131000881F991F2A95D1F7680D791D8A1D9B1D7D
:1013200025E030E040E050E00E94D11E69017A01E2
:101330000AC069017A01C80CD91CEA1CFB1CF6948E
:10134000E794D794C79480910701823018F08630D3
:1013500009F062C030915E0120E040C0822F90E031
:10136000FC01EE0FFF1FE80FF91FEE0FFF1FEE0F3E
:10137000FF1FE85EFE4F8385861511F02F5F2EC09C
:1013800080809180A280B380C701B6016819790975
:101390008A099B0997FF07C0909580957095619584
:1013A0007F4F8F4F9F4F2AE030E040E050E00E9497
:1013B000921EA50194012C593F4F4F4F5F4F2C0DAA
:1013C0003D1D4E1D5F1D0E94D11E21153105410599
:1013D000510511F586E0809307011EC0231708F41C
:1013E000BDCF832F90E0FC01EE0FFF1FE80FF91F28
:1013F000EE0FFF1FEE0FFF1FE85EFE4FC082D1828F
:10140000E282F38214821582168217827186128715
:1014100063863F5F30935E0180914001909141016E
:101420009695879596958795909341018093400175
:1014300080913E0190913F0196958795969587956D
:1014400090933F0180933E0189E180933C0188E0C5
:1014500087B988B914B815B82F960FB6F894DEBFBF
:101460000FBECDBFCF91DF911F910F91FF90EF90F5
:10147000DF90CF90BF90AF909F908F907F906F90B4
:101480005F904F903F902F900895FF920F931F937E
:10149000182F062FF42E88E091E00E945801109238
:1014A0004B011EC090915D01891719F4812F0E9494
:1014B000A70090914B0180915B01981719F4802F40
:1014C0000E94A70090914B0180915C01981719F43C
:1014D0008F2D0E94A70080914B018F5F80934B015D
:1014E00080914B018330F0F21F910F91FF9008958E
:1014F0000F931F93DF93CF930F92CDB7DEB7E82FF3
:10150000F0E0E65FFE4F949195B9E62FF0E0E65FDC
:10151000FE4FE491E92BE4B969830E94A61A8C017D
:101520006981862F0E94A61AAC012091400130915A
:10153000410136952795C90144978017910760F4BA
:101540002C5E3F4F0217130738F48417950720F4D9
:1015500081E04217530708F080E014B80F90CF9154
:10156000DF911F910F9108951F9380E061E00E9429
:10157000780A182F80E062E00E94780A180F81E054
:1015800062E00E94780A810F1F9108952F923F9286
:101590004F925F926F927F928F929F92AF92BF9283
:1015A000CF92DF92EF92FF920F931F93DF93CF932F
:1015B000CDB7DEB72E970FB6F894DEBF0FBECDBF06
:1015C00088E088B987B90E94B40A833009F0E8C37B
:1015D0000E94FB008DEB90E00E94580180EC0E947D
:1015E000EB0080EF90E00E94480182ED91E060E026
:1015F0000E94531F83ED91E060E00E94531F81ED34
:1016000091E060E00E94531F82E060E00E94061BB0
:101610007C019A83898382E061E00E94061B6C0151
:101620009C838B8381E060E00E94061B5C019E83AB
:101630008D83B701882777FD8095982F4EEF20E2A4
:1016400003E00E949702B601882777FD8095982FC6
:101650004EEF20E20E949702B501882777FD809522
:10166000982F4EEF24EF0E9497022CE3E216F1042C
:101670002CF482ED91E06E2D0E94531F8CE3C8166E
:10168000D1042CF483ED91E06C2D0E94531FECE308
:10169000AE16B1042CF481ED91E06A2D0E94531F27
:1016A00010E084E690E00E94B5034F9B7BC11F5F72
:1016B0001C30B9F777C180EC0E94EB000E948F02CA
:1016C00080E80E94EB000E948F0280E80E94EB00FD
:1016D00084E50E94A7008C2D90E06CE071E04AE068
:1016E00050E00E942F1F0E9434010E94DC00FC2D5C
:1016F000F13041F50E948F1D86EE90E00E94480176
:10170000609144017091450180E090E04DEF26E545
:1017100004E00E94970280EC0E94EB008BEE90E0C8
:101720000E94480180910001909101016CE071E0FC
:101730004AE050E00E942F1F0E9434012EEB2093BC
:101740003C0112C18C2D823099F56091400170915D
:10175000410180E090E02EE43BE140E050E00E9457
:10176000921EA40193010E94F31E890181E085B9B4
:10177000E5E0E4B980E00E94941A801B910B9A8303
:101780008983F1E1F4B980E00E94941A801B910BE7
:101790009C838B8324E025B984E184B981E00E9495
:1017A000941A801B910B9E838D838DE591E0B1C0CF
:1017B000EC2DE33041F5F5B8FAE0F4B980E00E9491
:1017C000941A0091400110914101169507951887D0
:1017D0000F83801B910B9A83898322E224B980E0D6
:1017E0000E94941A801B910B9C838B83E5B888E23E
:1017F00084B981E00E94941A801B910B9E838D8393
:101800008BE691E086C0EC2DE43051F48DEC90E055
:101810000E9458010E94B40A882309F0BEC27FC00A
:10182000FC2DF530B1F415B8F4B880E00E94941A9C
:101830009A838983E4B881E00E94941A9C838B8305
:10184000B4B882E00E94941A9E838D8385E591E06E
:1018500060C02C2D263051F5F4B8F5B880E00E9418
:10186000941A2091400130914101821B930B9A837D
:101870008983E4B8E5B881E00E94941A2091400180
:1018800030914101821B930B9C838B83B4B8B5B814
:1018900082E00E94941A2091400130914101821B04
:1018A000930B9E838D8389E591E033C08C2D873027
:1018B00099F5609140017091410180E090E02EE443
:1018C0003BE140E050E00E94921EA20191010E9483
:1018D000F31E8901F5B8E3E0E4B980E00E94941AB0
:1018E000801B910B9A838983E5B8FCE0F4B981E011
:1018F0000E94941A801B910B9C838B83B5B8D4B83B
:1019000082E00E94941A801B910B9E838D8389E74D
:1019100091E00E94580103C02C2D213029F180EC68
:101920000E94EB0089819A816CE071E04AE050E00E
:101930000E940E1F0E9434010E94DC008B819C815A
:101940006CE071E04AE050E00E940E1F0E943401FA
:101950000E94DC008D819E816CE071E04AE050E0E5
:101960000E940E1F0E943401E7B8E8B814B815B8F9
:101970004F9B0FC084E690E00E94B5034F9B09C0C7
:1019800084E690E00E94B503A3948A2D843008F485
:1019900092CE1C2D88EC90E00E94B5031F5F18309A
:1019A00089F419C011E04EEA242E42ED342E47E4AA
:1019B000442E512C32E0F32E28E0E22E90E2B92E94
:1019C00080E3D82EAA240AEB602E06E3702E812C29
:1019D000912CC12E70CE0E94FB008FE791E00E94F7
:1019E0005801609142017091430180E090E04FEF17
:1019F00024EF03E00E94970280EC0E94EB0086E84F
:101A000091E00E945801609147017091480180E087
:101A100090E04FEF24EF0E94970280E991E00E944E
:101A2000B50318861F821092070182E060E00E94D1
:101A3000EF1400916A0110916B011C870B8782E003
:101A400061E00E94EF14E0906A01F0906B01FE8665
:101A5000ED8681E060E00E94EF14C0906A01D090B2
:101A60006B01DE82CD8280E062E00E94EF14809103
:101A70006A0190916B019C838B8381E062E00E94FC
:101A8000EF1480916A0190916B019A87898780E0B9
:101A900061E00E94EF1480916A0190916B019A833A
:101AA00089830E94FB008DE891E00E945801B801F3
:101AB000882777FD8095982F40E020E203E00E9480
:101AC0009702B701882777FD8095982F40E020E2A4
:101AD0000E949702B601882777FD8095982F44EFE2
:101AE00026E40E9497028E010F5F1F4FCE010F96D2
:101AF000F8012191319127343105ECF4E817F90709
:101B0000C1F7EE24FF24F80160810E5F1F4F615F73
:101B1000C70187539E4F0E94531F0894E11CF11C7C
:101B2000F7E0EF16F10479F780EC0E94EB008BEE02
:101B300090E00E94580180E991E00E94B50310E016
:101B4000CC24BAE08B2E912CA12CB12CA2E6EA2E4B
:101B5000A1E0FA2E0E94FB0081E30E94A7008DE124
:101B600091E00E94580183E30E94A70084EF90E077
:101B70000E9448011092070182E060E00E94EF1489
:101B8000209162013091630140916401509165019F
:101B90000091740107C0CA01B901A50194010E9416
:101BA000D11E0F5F073FBCF30093740120936201C5
:101BB000F701318342835383073F09F0B9C02036D0
:101BC00031054105510508F4B3C0203FF5E53F0755
:101BD000F0E04F07F0E05F0708F0AAC01F5F123087
:101BE00009F0A7C0609176017091770187EC91E0D0
:101BF0000E94611F0E94FB008CEF90E00E94480150
:101C000080917601909177016CE071E04AE050E0BC
:101C10000E940E1F0E94340188E088B989E087B9CC
:101C200080E284B982E00E94A61A23E0853D9207F3
:101C3000CCF714B810923F0110923E0182E00E944E
:101C4000A61A4C018FEB91E00E94451F992787FD52
:101C500090952091440130914501820F931F9093FC
:101C60003F0180933E0182E00E94A61A8C011092EF
:101C70003F0110923E0182E00E94A61A5C01C090D2
:101C80004401D09045018FEB91E00E94451F9927B8
:101C900087FD90958C0D9D1D90933F0180933E0193
:101CA0008FEB91E00E94451FE82E80EC0E94EB0034
:101CB00083E091E00E9448018FEB91E00E94451F74
:101CC000F3E0FF2EF80EA80CB91CA01AB10AA01A56
:101CD000B10AB501882777FD8095982F2E2D3327DF
:101CE00027FD30952C0D3D1D40E050E00E94921ED6
:101CF000000F111F9801442737FD4095542F0E9473
:101D0000F31EF20E8FEB91E06F2D0E94531F8F2D6B
:101D1000992787FD90956CE071E04AE050E00E94C1
:101D20000E1F0E94340180E293E00E94B5031BC0A5
:101D300010E080EC0E94EB00609162017091630101
:101D400080916401909165014091740126E404E062
:101D50000E94970288E290E00E94B503C3948C2D04
:101D6000803409F0F7CE89E180933C010E94FB00AA
:101D700080EC0E94EB0088ED90E00E94480180E832
:101D80000E94EB008CED90E00E9458011092070138
:101D900088EC90E00E94B50303C072E0A72EBFCD8F
:101DA0002E960FB6F894DEBF0FBECDBFCF91DF9158
:101DB0001F910F91FF90EF90DF90CF90BF90AF9069
:101DC0009F908F907F906F905F904F903F902F905B
:101DD00008950F93CF93DF93E82FF0E0E35FFE4F7A
:101DE000E491E860E8B9E7B9E62FF0E0E65FFE4F7E
:101DF000E49115B8EE0FE4B9862F0E94A01AEC0109
:101E00000097F9F08DE391E00E945801BE0180E057
:101E100090E020EA36E841E050E00E94921E28E976
:101E200037EB40E050E00E94D11EB90180E090E025
:101E300047EF21E402E00E94970288E087B988B961
:101E400014B8DF91CF910F9108950F931F9380E401
:101E50008AB98BB986E880937A0014B784B7877FF4
:101E600084BF88E10FB6F894809360001092600000
:101E70000FBE86EA8093640088E380937E00109210
:101E8000B00087E08093B10078940E94080113FFAE
:101E90000AC080E80E94EB0084EB90E00E945801A9
:101EA00088E592E092C088E40E94EB0087E991E027
:101EB0000E94690180E50E94EB008FE991E00E9499
:101EC000690188E50E94EB0087EA91E00E946901C0
:101ED00088E70E94EB008FEA91E00E94690180E7A9
:101EE0000E94EB0087EB91E00E94690180E185BFD1
:101EF00010924A0110920B011092070110920501F5
:101F00001092040110920601109249010E94FB00F8
:101F100088E087B910925E011092720110927301ED
:101F20000E94E40010923D010E948F1D80E80E94F3
:101F3000EB008FEB91E00E94451F992787FD90955C
:101F40002091440130914501820F931F90933F01EE
:101F500080933E0185E00E94A61A85E00E94A01AA7
:101F6000909358018093570185EE90E00E945801AC
:101F70006091570170915801660F771F660F771FA8
:101F80006A567F4F80E090E0609362017093630136
:101F900080936401909365014DEF26E502E00E9475
:101FA00097020E94DC00809157019091580126E031
:101FB0008A3F9207A8F426E08333920770F48AE6FA
:101FC00090E00E94580180E991E00E94B5031BB89F
:101FD00080E090E01F910F91089585E690E002C0A7
:101FE0008BEE90E00E9458012FE088E190E00FB660
:101FF000F894A895809360000FBE209360000E9423
:102000004D02809149018823F1F080910B018823D2
:10201000D1F480914A018823B1F480EC0E94EB0056
:1020200087E291E00E945801609140017091410166
:1020300080E090E04DEF26E503E00E94970288ECF7
:1020400090E00E94B50380EC0E94EB008AE590E0EE
:102050000E94580180EC0E94EB000E94B201809126
:102060000701883039F40E94FB0081E291E00E9470
:102070005801BBC30E94C60A80E061E042E00E94B2
:10208000F30381E060E042E00E94F30380E062E05D
:1020900041E00E94F30382E060E041E00E94F3032C
:1020A00081E062E040E00E94F30382E061E040E012
:1020B0000E94F30380910701882321F0863011F0FC
:1020C0008130D9F40E94B20110926601109267012A
:1020D000109268011092690184EF8093750182E08B
:1020E00060E00E94EF1482E061E00E94EF1481E062
:1020F00060E00E94EF140E9411180E94FB00809182
:102100000701813009F010C1909105019130D1F59E
:102110009091780180917901981750F4892F0E944D
:10212000E00083E491E00E9458018091790108C0A9
:102130000E94E00087E491E00E94580180917801BC
:102140000E94E00080917901609178010E94E90E7F
:1021500080E70E94A10388EF90E00E9458018091DF
:102160007901609178010E94EF1460916201709191
:10217000630180916401909165014091740126E4AE
:1021800003E051C1923009F04CC082E30E94A700E5
:102190008BE491E00E9458019091780120917C019C
:1021A000921759F4809179010E94E00087E491E050
:1021B0000E945801809178012BC030917901809163
:1021C0007D013817B9F4892F0E94E00083E491E083
:1021D0000E945801809179010E94E00087E491E01B
:1021E0000E94580180917C010E94E00081E00E94E1
:1021F000A103F4C2321709F0BFC2891709F0BCC2AB
:102200000E94E00083E491E00E94580180917901EE
:102210000E94E00083E491E00E94580180917D01DA
:10222000E3CF933009F0A8C290935B0190935C01D7
:102230005091790190917C01591721F410925B0122
:1022400080935C014091780130917D01431729F41E
:1022500081E080935B0110925C0120918001521714
:1022600029F410925B0182E080935C0180918101EE
:10227000481729F442E040935B0110925C01321749
:1022800031F421E020935B0122E020935C01981758
:1022900031F482E080935B0181E080935C01809166
:1022A0005B01833008F068C280915C01833008F0E4
:1022B00063C283E30E94A7008BE491E00E9458016F
:1022C000E0915B01F0E0EE0FFF1FEE0FFF1FE858FB
:1022D000FE4F80810E94E00083E491E00E9458015B
:1022E000E0915B01F0E0EE0FFF1FEE0FFF1FE858DB
:1022F000FE4F81810E94E00083E491E00E9458013A
:10230000E0915C01F0E0EE0FFF1FEE0FFF1FE858B9
:10231000FE4F81810E94E00080915B018295807F69
:1023200090915C01892B63CF823009F07FC080914E
:102330000401882371F18091530190915401A0917F
:102340005501B091560120914F01309150014091BB
:1023500051015091520182179307A407B50748F421
:1023600080915C0190915D0190935C0180935D018F
:1023700010C080934F0190935001A0935101B093EE
:1023800052018091590190915A0190935801809384
:10239000570180910601813019F48EEF90E002C060
:1023A00083E091E00E945801809105018330A0F004
:1023B0002091060190915C0180915D01213019F41A
:1023C000891718F005C0981718F483E491E002C04B
:1023D00087E491E00E94580185E462E443E40E94AE
:1023E000450A80EC0E94EB008BEF90E00E945801C0
:1023F00060914F0170915001809151019091520173
:1024000040E020E003E00E9497020E94DC008EE0A2
:1024100091E00E945801609157017091580180E04D
:1024200090E04DEF26E50E949702D8C1833009F075
:102430007FC08091060180FF02C080E501C08EE46C
:102440000E94A7008DE20E94A70080910601869558
:10245000823011F484E403C0813021F485E40E94C9
:10246000A70005C0833019F483EF90E002C08EEE20
:1024700090E00E94580183E567E444E40E94450A25
:10248000809105018823A1F020910601243080F479
:1024900090915C0180915D0120FF03C0981718F0B6
:1024A00004C0891710F481E001C082E00E94A700F7
:1024B00080EC0E94EB00809106018430D8F488EF14
:1024C00090E00E94580180915B0160915D010E9443
:1024D000EF146091620170916301809164019091A9
:1024E00065014091740126E403E00E94970282E1B5
:1024F00091E013C089E40E94A7008DE30E94A70029
:102500006091590170915A0180E090E04BEF21E415
:1025100002E00E94970287E191E00E9458016091D9
:102520005F017091600180E090E04DEF26E528CEDC
:10253000853019F485E890E004C0843069F48FE7B1
:1025400090E00E94580180EC0E94EB0083E467E475
:1025500041E40E94450A42C1863009F0B9C0609149
:102560005E01613069F4809122010E94E00080E503
:1025700091E00E945801809121010E94E00061C019
:1025800010924B01209124013091250140912601A8
:10259000509127018091180190911901A0911A0181
:1025A000B0911B0182179307A407B50718F481E0C7
:1025B00080934B01623019F460934B0122C08091EB
:1025C0004B0190E0FC01EE0FFF1FE80FF91FEE0F2B
:1025D000FF1FEE0FFF1FE85EFE4F2091300130918C
:1025E0003101409132015091330180819181A2816A
:1025F000B38182179307A407B50718F482E080938C
:102600004B0180914B01813029F0823039F012E387
:1026100003E302C013E302E381E303C013E301E336
:1026200082E30E94A70080E591E00E945801802F7C
:102630000E94A70080E591E00E945801812F0E942E
:10264000A70080EC0E94EB0080915E01813001F5D3
:1026500080E00E94520380911C0190911D01A09185
:102660001E01B0911F010097A105B10509F4B6C084
:102670008AE391E00E94580160911C0170911D0154
:1026800080911E0190911F014091200128E478CD96
:1026900080914B01882331F481E00E94520382E053
:1026A0000E94520380914B01813031F480E00E94FE
:1026B000520382E00E94520380914B01823009F064
:1026C0008DC080E00E94520381E00E94520386C0C8
:1026D000873009F051C0809172010E94E0008DE1C5
:1026E00091E00E945801809173010E94E0000E94D5
:1026F000D51C8091700190917101009779F082E36F
:1027000091E00E945801609170017091710180E028
:1027100090E04FEF25E202E00E94970280EC0E94D9
:10272000EB00609166017091670180916801909162
:1027300069014091750126E404E00E9497028091AE
:102740007301609172010E94061B90936F01809348
:102750006E012FEF8A3F920708F040C08CE291E0B3
:102760000E94580160916E0170916F0180E090E0CD
:102770004EEF24EF02E057CE80910501882371F4DB
:1027800088E990E00E94580180EC0E94EB0081E70C
:1027900090E00E9458018AE790E016C08AE790E036
:1027A0000E9458018FE890E00E94580180EC0E943E
:1027B000EB0088EA90E00E94580180910501805D5D
:1027C0000E94A70083E491E00E94580180914A0191
:1027D0008F5F80934A0110920B0107C010924A014B
:1027E00080910B018F5F80930B0188E187B94F9B2C
:1027F000FECF88E290E00E94B50310926001109233
:102800005F0110C04F9B78CBA89582E090E00E94BA
:10281000B50380915F01909160010A9690936001E9
:1028200080935F0180915F01909160012DE6803679
:10283000920740F35E984F9B5FCBA89582E090E0B3
:102840000E94B503F8CF2F935FB72F932AE08095AE
:10285000089410F4439802C0439A000022D029D073
:1028600086952A95B1F72F915FBF2F91089508950E
:1028700003D002D001D000D000D003D002D001D0CC
:1028800000D0A89500D003D002D001D000D000D055
:1028900003D002D001D000D000D003D002D001D0AC
:1028A00000D000D003D002D001D000D000D003D09F
:1028B00002D001D000D000000895FF920F931F9323
:1028C000CF93DF9321E08C32920718F08C52914025
:1028D00002C080E090E069E170E00E94BD1EF82E29
:1028E0006D3208F06CE2C62FD0E0CE01880F991F40
:1028F000805090400E944D1F8C01CE01880F991F7F
:102900008E5F9F4F0E944D1F9C0149E14F1950E07F
:10291000081B190B409FC001419F900D509F900DC7
:1029200011240C9669E170E00E94BD1E620F731FB6
:10293000CB01DF91CF911F910F91FF9008958F925E
:102940009F92AF92BF92DF92EF92FF920F931F93ED
:10295000E0906201F09063010091640110916501C3
:10296000D09074014AE0842E912CA12CB12C08C087
:10297000C801B701A50194010E94D11E79018A0105
:102980008D2DD39491EAE91696E8F90691E00907AE
:1029900090E0190768F7809374012091400130910D
:1029A000410140E050E0C801B7010E94921E28E8B2
:1029B00033E140E050E00E94D11E20936201309349
:1029C000630140936401509365011F910F91FF9043
:1029D000EF90DF90BF90AF909F908F9008957F927F
:1029E0008F929F92AF92BF92CF92DF92EF92FF921F
:1029F0000F931F93CF93DF93182F762E880F810F9D
:102A0000860F815080934C01E62FF0E0E35FFE4F8C
:102A10000491E12FF0E0E65FFE4FA4908091070162
:102A2000863009F4A4C230910501A8E7B1E020E0A6
:102A300013C011968C911197871561F48C918117B1
:102A400049F412968D919C91139745E08C3D940723
:102A500008F48DC22F5F1496231758F30860109264
:102A60006F0110926E011092620110926301109238
:102A700064011092650184EF809374010E94B20199
:102A800088E088B915B807B9A4B8812F0E94A61AA2
:102A90007C0110924E0110924D01EC012DC0A5B8A1
:102AA000A4B80E94471414B815B80E944D14A895F4
:102AB000812F0E94A61AE816F90620F4EC01CE191F
:102AC000DF0902C0C0E0D0E080914D0190914E013D
:102AD0008E37910521F4CB34D10508F443C281E04F
:102AE000CD32D807B0F480914D0190914E010196FE
:102AF00090934E0180934D0180914D0190914E0134
:102B000021E0843F920758F241E0CD32D40708F427
:102B100029C280914D0190914E01009781F485E08A
:102B2000C531D80708F092C00AC00E944814812F0E
:102B30000E94A61AA8950894C11CD11C03C0CE01FE
:102B4000CC24DD2420914D0130914E012C153D0502
:102B500060F7E816F90630F48E199F098C179D0767
:102B600010F502C080E090E07E01E81AF90AE9F071
:102B7000B70180E090E028EE33E040E050E00E94B2
:102B8000921E9E0140E050E00E94D11E490125E6C0
:102B9000E216F10460F080914D0190914E01009792
:102BA00009F456C0DFC1EE24FF2488249924A090A4
:102BB0004D01B0904E010894A11CB11CCC24DD2421
:102BC000A0926A01B0926B01C0926C01D0926D012B
:102BD000C7018C0F9D1F0E945D14BC0180E090E036
:102BE000A60195010E94921E60936A0170936B0189
:102BF00080936C0190936D01609362017093630107
:102C0000809364019093650187EF809374010E9423
:102C10009F146091620170916301809164019091B1
:102C2000650128EE33E040E050E00E94921E24E669
:102C300030E040E050E00E94D11E209362013093CA
:102C4000630140936401509365014DC18824992428
:102C5000EA2CEE0C0E94B20115B88FE087B988E02B
:102C600088B9E4B880E480937B0084E580BF812F3D
:102C7000806480937C0086E180937A000E945014E7
:102C800010924E0110924D0110928000109285001A
:102C90001092840087E286BB81E280936F0081E01E
:102CA00080936101E5B890910701933071F48093AE
:102CB000810081E090E0012E02C0880F991F0A94E4
:102CC000E2F780958F7087B917C08093810007B9AC
:102CD00013C083B7817F83BF83B7816083BF88952B
:102CE00083B78E7F83BFA89580914D0190914E014F
:102CF00046E08034940721F080916101882349F7F0
:102D000010928100C0918600D091870010926F00D0
:102D100080918400909185008C179D0748F48091E4
:102D20004D0190914E01019790934E0180934D017A
:102D300086E980937A0014B815B8812F0E94A61AEC
:102D40002091440130914501821B930B0C96909386
:102D500077018093760180914D0190914E0123E09F
:102D60008032920708F0FEC080914D0190914E0193
:102D700090936D0180936C01D0936B01C0936A01B5
:102D800084EF8093740180914D0190914E018234C3
:102D90009105C8F060916A0170916B0180916C019E
:102DA00090916D0124E630E040E050E00E94D11E99
:102DB00020936A0130936B0140936C0150936D0135
:102DC00086EF80937401609100017091010180E0B1
:102DD00090E020916A0130916B0140916C0150911B
:102DE0006D010E94921E20E233E040E050E00E941C
:102DF000D11E20936A0130936B0140936C01509374
:102E00006D01E2E6F1E02093620131834283538356
:102E10000E949F1480917401843F09F055C0C090B6
:102E20006201D0906301E0906401F090650140EA96
:102E3000C4164FE0D40640E0E40640E0F406C0F4D7
:102E4000A701960124523F4F4F4F5F4F60EA7FE04A
:102E500080E090E00E94D11E2C0D3D1D4E1D5F1D97
:102E600020936201309363014093640150936501A4
:102E700080914C0190E087539E4F0E94451F209106
:102E8000620130916301409164015091650190E0CD
:102E9000A0E0B0E082179307A407B50768F4281BE9
:102EA000390B4A0B5B0B2093620130936301409313
:102EB00064015093650108C0109262011092630191
:102EC0001092640110926501A4B880916201909102
:102ED0006301A0916401B091650189319105A1055B
:102EE000B10508F43FC080910501882321F080914D
:102EF00007018330B9F587E0809307016091740181
:102F0000809175018617BCF0681761F52091620108
:102F10003091630140916401509165018091660197
:102F200090916701A0916801B091690182179307A0
:102F3000A407B507B8F4E2E6F1E080916201909150
:102F40006301A0916401B091650180936601909343
:102F50006701A0936801B0936901638B97868686A9
:102F6000708A118B88E087B988B914B815B8DF91D9
:102F7000CF911F910F91FF90EF90DF90CF90BF9076
:102F8000AF909F908F907F9008951F920F920FB6F1
:102F90000F9211248F939F9380914D0190914E0138
:102FA000019690934E0180934D019F918F910F90C8
:102FB0000FBE0F901F9018951F920F920FB60F9291
:102FC0001124109261010F900FBE0F901F90189561
:102FD000CF93DF9324E130E0B9010E94BD1EDC01F4
:102FE00070E0FB01EE0FFF1FE859FF4FC591D49130
:102FF000FB01EE0FFF1FE659FF4F459154914C1B0B
:103000005D0B4A9FC0014B9F900D5A9F900D11245C
:10301000B9010E94BD1E6C0F7D1FCB01DF91CF91C6
:1030200008952F923F924F925F926F927F928F926C
:103030009F92AF92BF92CF92DF92EF92FF920F9347
:103040001F93DF93CF93CDB7DEB768970FB6F89491
:10305000DEBF0FBECDBF80910701863009F04BC2A5
:1030600080915E01813009F046C2809118019091F3
:103070001901A0911A01B0911B01893022E5920734
:1030800020E0A20720E0B20708F035C29924809121
:10309000210140902201992D923010F4882E02C017
:1030A000842C482EE42DF0E0E35FFE4F2491E82DC0
:1030B000F0E0E65FFE4FE49115B8A8E0A8B9809172
:1030C000180190911901A0911A01B0911B01803F44
:1030D0009105A105B105B8F490FC15C0A0900201BE
:1030E000B090030180E795EEA80EB91E322F38602C
:1030F00081E090E0082C02C0880F991F0A94E2F743
:10310000382B37B908C0E4B9822F886087B9A090FE
:103110000201B090030130E0882D288F3F8B0E9480
:103120009A1A6C01842D0E94A61AAC01288D3F8941
:1031300092E0C916D10418F44230510518F03F5FEF
:10314000343151F7A0E4A0937B00B4E5B0BF882DE3
:10315000806480937C0086E180937A0000E010E038
:1031600010928000109285001092840097E296BB26
:103170002860288F0E945014292C3324D101A1707B
:10318000B070BA8BA98B288D90FC05C0B1E8B093C4
:10319000810028B908C028B90E94591420E226BB32
:1031A00081E880938100C80146B345FF02C08C01CD
:1031B0000BC040FFF9CFA1E0A6BBA89501968035D2
:1031C000910591F700E510E010928100B0E2B6BBE6
:1031D0002091860030918700790180918400909140
:1031E00085002817390730F440FF04C021E026BBD2
:1031F0000F5F1F4F88E088B996E990937A0020E02E
:10320000882D288F0E949A1A6C01842D0E94A61A7C
:10321000288DA2E0CA16D10418F48230910518F066
:103220002F5F243169F7C0901801D0901901809167
:10323000470190914801C80ED91ECA0CDB1C87ECCF
:1032400091E00E944D1F2091440130914501280FCB
:10325000391FB0E9AB16BAE1BB06B8F481EEE81647
:10326000F1040105110538F4C70165E070E00E9422
:10327000BD1E645101C069E128523040772767FDC7
:103280007095261B370B66E008C0C60160EB76E33D
:103290000E94BD1E695F285D3F4F70E080E090E0B6
:1032A0006E157F058007910728F4E61AF70A080BC8
:1032B000190B03C0EE24FF248701A989BA8910974E
:1032C00041F082E290E0A0E0B0E0E80EF91E0A1FB3
:1032D0001B1F0035110518F0EE24FF2487019BE029
:1032E000E916F1040105110528F00894E108F10838
:1032F00001091109C601A0E0B0E08B8B9C8BAD8B5E
:10330000BE8BB90180E090E028EE33E040E050E071
:103310000E94921E2B013C01B50180E090E02091BB
:1033200040013091410140E050E00E94921E2B8903
:103330003C894D895E890E94D11E40E050E0C30166
:10334000B2010E94D11EC9010E94E8176C016B896D
:103350007C898D899E89A80197010E94921E2B016C
:103360003C01B60180E090E0E3E0660F771F881F24
:10337000991FEA95D1F76B5F7F4F8F4F9F4F2AE0E0
:1033800030E040E050E00E94D11E40E050E0C30138
:10339000B2010E94D11EF101EE0FFF1FEE0FFF1FC1
:1033A000A1E0B0E0AC0FBD1FEA0FFB1F208331830B
:1033B0004283538389899A89009799F49CE0E9169E
:1033C000F1040105110568F0F1013196EE0FFF1FC0
:1033D000EE0FFF1FEA0FFB1F2083318342835383CD
:1033E0009394A8959394A92DA43008F450CE88E026
:1033F00088B984E090E00E94B50361E02D813E81B0
:103400004F81588589819A81AB81BC81821793074E
:10341000A407B50708F060E02D853E854F855889E3
:1034200089859A85AB85BC8582179307A407B50764
:1034300010F072E001C073E0A72FB0E0AA0FBB1F2D
:10344000AA0FBB1FCE010196A80FB91FE62FF0E00F
:10345000EE0FFF1FEE0FFF1FE80FF91F2D913D919B
:103460004D915C9180819181A281B38128173907A8
:103470004A075B0708F4672F262F30E0F901EE0FAB
:10348000FF1FEE0FFF1FEC0FFD1F61817281838113
:10349000948160931C0170931D0180931E01909391
:1034A0001F014BEF4093200120FD0DC0209118011A
:1034B0003091190140911A0150911B01203F3105B3
:1034C00041055105A8F02CEF209320016B5F7F4F41
:1034D0008F4F9F4F2AE030E040E050E00E94D11E25
:1034E00020931C0130931D0140931E0150931F0136
:1034F00088E087B914B868960FB6F894DEBF0FBE9F
:10350000CDBFCF91DF911F910F91FF90EF90DF9092
:10351000CF90BF90AF909F908F907F906F905F9073
:103520004F903F902F9008958F9384E090E00E94F9
:10353000B5030BC08F9382E090E00E94B50305C0F5
:103540008F9381E090E00E94B5038F911F93182F15
:10355000106410937C00E12FE07880913D01E81722
:1035600061F00E9451148EE980937A0083E083BF5A
:10357000889582E083BFE0933D0120E030E0A9011F
:10358000E0E01FC08EE980937A0083E083BF8895D6
:1035900082E083BF6091780070917900260F371F19
:1035A000411D511DE43061F480913F01803041F0B4
:1035B00084E02030380720F417FD02C01068C9CF1E
:1035C000EF5F80913C01E817E8F217FF05C06091BA
:1035D0003E0170913F0104C0609140017091410132
:1035E00080E090E00E94921E2FEF33E040E050E038
:1035F0000E94D11EB901CA0120913C0130E040E097
:1036000050E00E94D11EC9011F9108952F923F9250
:103610004F925F926F927F928F929F92AF92BF92E2
:10362000CF92DF92EF92FF920F931F93DF93CF938E
:10363000CDB7DEB76E970FB6F894DEBF0FBECDBF25
:10364000662EB82E860F898320910701273019F541
:1036500020916601309167014091680150916901A4
:103660001091750109C0CA01B9012AE0312D412D1F
:10367000512D0E94D11E1F5F173FACF32C8B3D8B49
:103680004E8B5F8B243B60E036074105510518F4F3
:103690008FEF9FEF71C126EDA22E02C094EDA92EEF
:1036A000EDE0F1E0E60DF11D859188608E87EDE09B
:1036B000F1E0EB0DF11D859188608F87EAE0F1E084
:1036C000E60DF11D7590EAE0F1E0EB0DF11DC590FE
:1036D00090EC692AB92A81E0E82EF12C012D112DF8
:1036E0008E831F82188619861A861B861C861D8665
:1036F000188E198E0E94B20188E088B960927C0011
:103700000E9451143F8537B975B874B80E94561499
:103710000E945A1415B814B8DD24B4ED9B2EA6ED02
:103720008A2E3E8537B975B874B860927C00A8952A
:10373000A0927A0080917A0086FDFCCFA0927A0058
:1037400080917A0086FDFCCF20907800309079003F
:10375000B0927C00A0927A0080917A0086FDFCCF26
:1037600080927A000E945714C5B8C4B80E945514BC
:103770000E9457140E945B148F938F91A895A8956F
:1037800014B815B880917A0086FDFCCF209178009E
:1037900030917900288B398B3F8537B9C5B8C4B8CB
:1037A000A895B0927C00A0927A0080917A0086FD64
:1037B000FCCFA0927A0080917A0086FDFCCF6091C8
:1037C00078007091790060927C00A0927A008091DC
:1037D0007A0086FDFCCF80927A000E94571475B85B
:1037E00074B80E9455140E9457140E945B148F9362
:1037F0008F91A895A89514B815B880917A0086FD88
:10380000FCCF409178005091790014B8CB01820D23
:10381000931DE80EF91E011D111DEA82FB820C8327
:103820001D8388899989840F951F2E813F81688522
:103830007985280F391F611D711D2E833F8368878D
:10384000798724E62417150650F075B874B80E94DD
:103850005A1414B815B8888D8395888F07C0483ED0
:1038600073E0570718F08A8D83958A8F8889998924
:1038700028171906B0F03E8537B9C5B8C4B80E94FC
:103880005A140E9455140E9457140E945B148F937F
:103890008F91A895A89514B815B8898D8395898FAF
:1038A00007C0883E73E0970718F08A8D83958A8F4A
:1038B000D3945D2D5F3F09F034CF40904701509085
:1038C0004801440C551C9201E4E0240D351DEA9595
:1038D000E1F72901570168016E807F80888499840F
:1038E000209107012730C1F46C897D898E899F89D9
:1038F0009B01AC016D5E7F4F8F4F9F4F0E94921EC8
:103900009B01AC0166E379E286E89AE10E94D11E50
:10391000621A730A840A950AA614B704C804D90463
:1039200028F46A187B088C089D0803C06624772455
:103930004301B20180E090E09301A4010E94921E35
:103940009501A6010E94D11E80ED91E07981870F3B
:10395000911D0E94451F682EC90160E170E00E9420
:10396000BD1E260F371FC9016816190618F48619DF
:10397000910902C0812D912D6E960FB6F894DEBF8D
:103980000FBECDBFCF91DF911F910F91FF90EF90B0
:10399000DF90CF90BF90AF909F908F907F906F906F
:1039A0005F904F903F902F900895CF92DF92EF92CB
:1039B000FF920F931F93CF93DF93809170019091AB
:1039C0007101009709F0A2C0E0917201F0E0E35F9D
:1039D000FE4F04910860E0917301F0E0E65FFE4F56
:1039E00014910E94B20188E088B915B807B914B9DA
:1039F000809173010E94A61AEC0100917501083FA5
:103A00000CF084C0209166013091670140916801FB
:103A100050916901045F8AE0C82ED12CE12CF12C71
:103A20000BC0CA01B9016B5F7F4F8F4F9F4FA7013A
:103A300096010E94D11E0F5F043098F37901215046
:103A4000304040405040283883E1380780E0480744
:103A500080E0580708F05AC015B914B900E010E02A
:103A600004C00E9457140E5F1F4F67010E151F05FB
:103A7000C0F314B815B8A89585E080933C018091F7
:103A800073010E94A61AC817D90720F48C010C1BD9
:103A90001D0B02C000E010E0EE24FF2405C00E94D0
:103AA00057140894E11CF11CEC14FD04C0F3809140
:103AB00073010E94A61A29E120933C01A895C8171A
:103AC000D90718F48C1B9D0B02C080E090E0801792
:103AD0009107A8F4B801681B790B89F080E090E0A9
:103AE00024EF31E040E050E00E94921E980140E057
:103AF00050E00E94D11E30937101209370010E940A
:103B0000B20188E087B988B914B815B8DF91CF91B0
:103B10001F910F91FF90EF90DF90CF9008958F92BB
:103B20009F92AF92BF92CF92DF92EF92FF920F934C
:103B30001F93CF93DF9388E893E1909341018093A3
:103B400040018EEB80933C0108E008B988E187B919
:103B50000E944C1407B984E00E94A01AEC019093D3
:103B60005A01809359018B5C984021E0833F920772
:103B7000C0F481E08093490160914001709141015E
:103B800080E090E02FEB39E040E050E00E94921E90
:103B90009E0140E050E00E94D11E309341012093ED
:103BA00040018EE00E94A61A8EE00E94A01A909317
:103BB0004501809344010E944D028FEB91E00E94E9
:103BC000451F992787FD909520914401309145012B
:103BD000820F931F90933F0180933E0179E0D72E8F
:103BE000D7B8AA24A394A5B8A4B880E00E94A01ACC
:103BF0008C016AE0862E87B854E0C52EC5B8C4B8DB
:103C000081E00E94A01A080F191F4CE0F42EF7B8AB
:103C100030E1E32EE5B8E4B882E00E94A01A080F74
:103C2000191F15B8D8B8D7B8A4B8C0914001D09121
:103C3000410180E00E94A01A5C0188B887B8C4B82E
:103C4000C0904001D090410181E00E94A01A4C0137
:103C5000F8B8F7B8E4B8E0904001F090410182E094
:103C60000E94A01ACC0DDD1DCE0DDF1DC81BD90B87
:103C7000CA19DB09C819D909809140019091410105
:103C80006C01CC0CDD1CC80ED91EC01AD10ACC1A8E
:103C9000DD0AEE24FF24B80180E090E020E93AE15B
:103CA00040E050E00E94921EA70196010E94D11EA2
:103CB00089013093480120934701BE0180E090E0E4
:103CC00020E93AE140E050E00E94921EA7019601EF
:103CD0000E94D11EC901309343012093420121E08B
:103CE0008831920778F40A3F110560F48057954EA9
:103CF00090930901809308010057154E109303011A
:103D00000093020189E180933C01DF91CF911F91E3
:103D10000F91FF90EF90DF90CF90BF90AF909F906A
:103D20008F900895629FD001739FF001829FE00DF4
:103D3000F11D649FE00DF11D929FF00D839FF00D2A
:103D4000749FF00D659FF00D9927729FB00DE11DD6
:103D5000F91F639FB00DE11DF91FBD01CF011124B3
:103D60000895991B79E004C0991F961708F0961BD7
:103D7000881F7A95C9F780950895AA1BBB1B51E14E
:103D800007C0AA1FBB1FA617B70710F0A61BB70BCB
:103D9000881F991F5A95A9F780959095BC01CD0170
:103DA0000895A1E21A2EAA1BBB1BFD010DC0AA1F7C
:103DB000BB1FEE1FFF1FA217B307E407F50720F094
:103DC000A21BB30BE40BF50B661F771F881F991F0F
:103DD0001A9469F760957095809590959B01AC0158
:103DE000BD01CF01089597FB092E05260ED057FD82
:103DF00004D0D7DF0AD0001C38F450954095309598
:103E000021953F4F4F4F5F4F0895F6F7909580955E
:103E1000709561957F4F8F4F9F4F0895FB019F01D4
:103E2000E8944230C4F04532B4F44A3029F497FBA8
:103E30001EF4909581959F4F642F77270E94BD1E99
:103E4000805D8A330CF0895D8193CB010097A1F7E7
:103E500016F45DE251931082C9010C94661FFB01B8
:103E60009F01423074F0453264F4642F77270E943A
:103E7000BD1E805D8A330CF0895D8193CB01009774
:103E8000A1F71082C9010C94661FF999FECF92BD6B
:103E900081BDF89A992780B50895A8E1B0E042E085
:103EA00050E00C94781F262FF999FECF1FBA92BDCF
:103EB00081BD20BD0FB6F894FA9AF99A0FBE01960B
:103EC00008950E94531F272F0C94541FDC01FC01FE
:103ED000672F71917723E1F7329704C07C916D933E
:103EE00070836291AE17BF07C8F30895DC01CB0160
:103EF000FC01F999FECF06C0F2BDE1BDF89A3196FA
:103F000000B40D9241505040B8F70895F894FFCF97
:023F1000740338
:00000001FF
