:1000000081C0000091C000008FC000008DC00000C2
:100010008BC0000089C0000087C0000085C00000C0
:1000200083C0000081C000007FC000007DC00000D0
:100030007BC0000079C0000077C0000075C00000E0
:1000400073C0000071C000006FC000006DC00000F0
:100050006BC0000069C0000067C0000065C0000000
:1000600063C0000061C000005245465F523D00522F
:1000700045465F433D00203E3130306E460001046E
:100080001001020452303D00494345733D0049438D
:1000900045303D00B903870358032E030703E402EC
:1000A000C302A40288020000140029003E0053008D
:1000B000690080009700AE00C600DF00F800120162
:1000C0002D01490165018201A001BE01DE01FF0190
:1000D0002102440268028E02B502DE0209033503E2
:1000E00064039403C803FE0337047304B404F904DF
:1000F00043059305EA054906B3062907AE074808F4
:10010000FF08DE0911241FBECFEFD4E0DEBFCDBF54
:1001100011E0A0E0B1E001C01D92AD3AB107E1F7F6
:100120000E9471190C94541F6BCF80FD5C9A80FF64
:100130005C98549A00005D9A559A589859985A9824
:100140005B9864FD589A509A65FD599A519A66FDDC
:100150005A9A529A67FD5B9A539A00005D98A7D20B
:1001600087FD10C05D9A589859985A985B9860FD21
:10017000589A61FD599A62FD5A9A63FD5B9A000094
:100180005D9895C20895809141018093000180910E
:10019000A001809302010895909141019F5F909387
:1001A0004101682F81E0C1DF79C28F5CF5CF80E229
:1001B000F3CFA1E0B0E0EFEDF0E00C94F01E1816E4
:1001C0002CF48983F4DF89818150F9CF2196E2E014
:1001D0000C940C1F8DE3E0CF682F80E0A6DF5EC299
:1001E0001092A00180E8F8DF10924101089580ECA0
:1001F000F3DF81E08093A00110924101089580E92E
:10020000EBDF82E08093A00110924101089580ED20
:10021000E3DF83E08093A001109241010895609391
:100220004101813011F480EC01C080E8860FD4CF09
:100230006091000180910201F2CF81E0CDDF22D2F6
:10024000CFCFCF93DF93EC018991882311F0A4DF06
:10025000FBCFDF91CF910895CF93DF93EC01FE01A7
:100260008491982F9F7719F097DF2196F8CFDF912F
:10027000CF910895CF93DF93EC01CE010E942B1F05
:10028000982F9F7719F088DF2196F7CFDF91CF91D4
:1002900008950F931F93CF93DF938C01085F1F4F37
:1002A000EC0121960E942B1F77DFC017D10711F0B8
:1002B000CE01F6CFDF91CF911F910F910895DDD13F
:1002C00083E38ADF82E388DFDDD180E285DF80E2BD
:1002D00083DF8AE281DF88E07FDF86E07DDF82E006
:1002E0007BDFABDFD0D18CE077DF88E475DF80E2A5
:1002F00090E0CFDF80E570DF88E190E0CADF88E53D
:100300006BDF88E290E0C5DF88E766DF80E190E0A0
:10031000C0DF80E761DF88E090E0BBCF90914101D2
:1003200080E1891B46CFA1E0B0E0E9E9F1E00C945F
:10033000F01E8983F3DF9091A0019F5F9093A0014D
:100340008981923030F091E09093A0019093440124
:1003500002C010924401682F8091A00160DF2196B5
:10036000E2E00C940C1FDFDF65C23ADFD7DF38CF45
:100370003EDFD4DF3CCF08950F938CEB90E07ADF23
:10038000409184014D3F64F460917201709173015A
:10039000809174019091750103E026E4B9D002C008
:1003A0008FE3FADE0F91089597FF09C08F939F9313
:1003B0008DE2F2DE9F918F91909581959F4F6DE137
:1003C00071E04AE050E00E94171F3BCFEDDF01C013
:1003D000EBDFEDCEEF92FF920F931F93182F062FB6
:1003E000F42E8BEA90E046DFEE24E0914201F0919A
:1003F00043018685E81611F4812F09C08485E8162B
:1004000011F4802F04C08585E81611F48F2DC4DE09
:10041000E3948E2D833049F71F910F91FF90EF9059
:100420000895682F80E092E0662309F491E062303D
:1004300009F481E008950F93082FE1EAF1E0880FB5
:10044000880FE80FF11D608171818281938164368C
:1004500071058105910570F42091010127FD0AC005
:10046000802FDFDF692F0E9406176EEF23E044EF35
:10047000E5D004C04FEF04E024EF4AD098DE0F919E
:100480000895863058F4E4E9F1E0E80FF11DE80F33
:10049000F11D8081918163E0DCD089CE08951F93A6
:1004A000182F80916F01882319F081DE82E574DEB8
:1004B0009EDE82EA90E0DEDE812F82958F70E1DFA2
:1004C000812F8F70DEDF1F910895CF93DF9380918E
:1004D0000D0182958F70C8E8D1E0C80FD11D8881C9
:1004E00064DE8EE690E0C6DE8E815FDE8EE690E012
:1004F000C1DEC8E8D1E080910D018370C80FD11D25
:100500008E8153DE80910D01CADFDF91CF91089576
:10051000A0E0B0E0EEE8F2E00C94E21EC42FD22F8F
:100520006B017C01F7FE0AC08DE236DEF094E094A8
:10053000D094C094C11CD11CE11CF11C033029F0E3
:10054000043031F084E690E005C088EE93E002C00C
:1005500080E197E24C01A12CB12C9AE0492E512C5C
:10056000612C712CC814D904EA04FB0470F0C70193
:10057000B6016B5F7F4F8F4F9F4FA30192010E9487
:10058000A21E69017A01CF5FEDCF86E08C1B63E08C
:100590000E94821EA92E4AE050E062E371E0C6018B
:1005A0000E94171FE2E3F1E0DF010D900020E9F760
:1005B0008D010150110902531140902ECF5E8BEA3C
:1005C000C89F812D1124869590E0805090400E9414
:1005D0002B1FB82EC02FCA191C1634F08EE2DCDD9A
:1005E000CC2311F080E3D8DDA11001C0CFEF82E36E
:1005F000E82E81E0F82E8701CC2EDD24C7FCD094B4
:10060000802F8E19891568F4F80181918F01C4DD5E
:100610009801225331402C153D0591F78EE2BCDD47
:10062000EFCFBB2011F08B2DB7DDDD2311F08D2F27
:10063000B3DDCDB7DEB7E0E10C94FE1E0F93362F8D
:10064000BC0180E090E0022F242F432F61DF0F9147
:1006500008950F93062FBC0180E090E026E54DEF52
:1006600057DF0F910895089503D002D001D000D034
:1006700000D003D002D001D000D000D003D002D0EF
:1006800001D000D000D0A89503D002D001D000D076
:1006900000D003D002D001D000D000D003D002D0CF
:1006A00001D000D000D003D002D001D000D0000093
:1006B00008950F931F93CF93182F1064C6E5809170
:1006C0007C0010937C008078912F9078981305C05F
:1006D00020E030E0A90180E017C0DFDFC0937A009E
:1006E00080917A0086FDFCCFF3CF90917A0096FD41
:1006F000FCCF6091780070917900260F371F411D63
:10070000511D843041F08F5F00912701801798F4CC
:10071000C0937A00EACF6091290170912A016F3F5E
:10072000710589F380F3211594E0390760F717FD0F
:10073000EACF1068C4CF17FF05C0A0912901B0917E
:100740002A0104C0A0912B01B0912C010E94691EC6
:100750002FEF33E040E050E00E94A21ECA01B90131
:10076000202F30E040E050E00E94A21EC901CF914E
:100770001F910F910895A1E0B0E0E1ECF3E00C943B
:10078000F01E898380DF898194DF2196E2E00C945A
:100790000C1FA1E0B0E0EFECF3E00C94F01E8983B5
:1007A00071DF898186DF2196E2E00C940C1FA1E0C5
:1007B000B0E0EDEDF3E00C94F01E898362DF8981F7
:1007C00078DF2196E2E00C940C1FEF92FF920F93DA
:1007D0001F93CF93DF937C01C5E64F9903C053DF8E
:1007E000C150D9F7E70105E510E0D7FD1BC04ADF8E
:1007F000000F4F9B0F5F0F730F3341F4111102C0B5
:10080000E70114E01F5F163928F00CC0011102C087
:10081000111108C0A895209741F32A9731F7CFEF1F
:10082000DFEFE3CF812FDF91CF911F910F91FF90E9
:10083000EF900895CF93A7DCC82F809144018823BF
:10084000D1F0813051F4C13041F46FE081E0E7DC58
:100850008BE2A2DC6FE081E0E2DC80E49FE1B5DFC7
:10086000C13041F480914401813021F481E060E0A5
:10087000D6DC54DDDDDCCF91089587ED91E00E9458
:100880002B1F382F88ED91E00E942B1F20912F0104
:10089000230F30913001381F209312013093130140
:1008A00083E0283E380720F0C901885E934002C0EB
:1008B00080E090E062E370E00E948E1E683008F0F5
:1008C00067E0E4E9F0E0E60FF11DE60FF11D459168
:1008D00055912591359162E3681B421B530B649F30
:1008E000C001659F900D1124499662E370E00E945B
:1008F0008E1E620F731F709371016093700189EDFA
:1009000091E00E942B1F992787FD909560912F0100
:1009100070913001860F971F90932A0180932901CF
:1009200090936E0180936D010895CF93DF9324E13E
:1009300030E0B9010E948E1EDC01E6EAF0E0E60F2D
:10094000F71FE60FF71FC591D591459155914C1BA7
:100950004A9FC0011124B9010E948E1E6C0F7D1F99
:10096000CB01DF91CF9108951092160110921401DE
:1009700010926C01109254011092150110924001D6
:1009800010926F0110925701109258011092590164
:100990001092820182E080938301109201011092F3
:1009A00081011092800110927601109277011092CD
:1009B00078011092790181EF809385010895A1E07B
:1009C000B0E0E5EEF4E00C94EE1E17B818B8E82F8E
:1009D000F0E0E258FF4F949195B9262F281BE20FC3
:1009E000F11D27FDFA95E491E92BE4B9698361DEF5
:1009F0008C016981862F5DDE20912B0130912C01C5
:100A000036952795A90144505109B801625E7F4F80
:100A10004617570778F4265E3F4F0217130750F426
:100A2000BC01625E7F4F4617570720F441E08217F2
:100A3000930708F040E014B8842F2196E4E00C946A
:100A40000A1FCF9361E080E0BADFC82F62E080E048
:100A5000B6DFC80F62E081E0B2DF8C0FCF9108955E
:100A6000AEE0B0E0E6E3F5E00C94E61E109216016D
:100A7000807F29F0E2DB8DE490E0FCDB18C2E1DF4F
:100A8000833009F014C2D9DB80E091E0F3DBAFDB07
:100A90008FE382DB80ED97E098DE8B3058F3A7DBA5
:100AA00084E890E0D9DB60E08EEC91E00E94331F97
:100AB00060E08FEC91E00E94331F60E08DEC91E0EC
:100AC0000E94331F60E082E00E9406176C019A8347
:100AD000898361E082E00E9406177C019C838B83FE
:100AE00060E081E00E9406178C019E838D8323E0E5
:100AF00040E26EEFC601A2DD23E040E26EEFC701E7
:100B00009DDD23E044EF6EEFC80198DD2AE5C216B3
:100B1000D10424F084E190E09A83898369818EEC8A
:100B200091E00E94331F8AE5E816F10424F084E185
:100B300090E09C838B836B818FEC91E00E94331F4C
:100B40000A35110524F084E190E09E838D836D8148
:100B50008DEC91E00E94331F82E0809344016ADEB5
:100B600018E76FDF81116EC068DB86E490E082DBFE
:100B700023E044EF6FEF80912D0190912E015EDD17
:100B800036DB8FE390E076DB23E044EF6FEF80917C
:100B90003E0190913F0152DD82E0809344014ADEA4
:100BA000109216014ADB8BE390E064DB60E082E0A8
:100BB0000E94851080907A0190907B01A0907C012A
:100BC000B0907D019C868B8661E082E00E9485105A
:100BD000C0907A01D0907B01E0907C01F0907D0183
:100BE000DE86CD8660E081E00E94851000917A016A
:100BF00010917B011E830D8362E080E00E948510CE
:100C000080917A0190917B019C838B8362E081E0EB
:100C10000E94851080917A0190917B019A87898743
:100C200061E080E00E94851080917A0190917B01C3
:100C30009A83898320913D01223069F40296988736
:100C40008F830FC095DB80EF90E014DB12DD115035
:100C500009F087CF89CF98878F8310923D018CE070
:100C6000BBDAC401B5DBC601B3DBB801882777FD69
:100C70008095982F03E026E444EF4ADC6E01EFE014
:100C8000CE0ED11CFE013196819191910A97853B40
:100C90009105E0F4EC15FD05B9F7F0EDEF2EF1E06C
:100CA000FF2E8E010F5F1F4FF80160810E5F1F4FF7
:100CB000615FC7010E94331FFFEFEF1AFF0A0C1597
:100CC0001D0591F794DA8EED90E0D4DA82E08093FE
:100CD0004401B0DD70E4B72E10E0EAE0CE2ED12C56
:100CE000E12CF12C41DEA9DA80E05FDA84E990E0C2
:100CF000C1DA82E05ADA86E790E0AEDA10921601A5
:100D000060E082E00E948510009184016091720190
:100D1000709173018091740190917501073F44F4C3
:100D2000A70196010E94A21E0F5FB901CA01F6CF6A
:100D30000093840160937201709373018093740136
:100D400090937501073F09F08EC0DC01CB018056FE
:100D50009109A109B10980399545A105B10508F0AE
:100D600082C06091860170918701CB018B569F4FA5
:100D70008B32914008F077C01F5F153008F474C0C3
:100D800087ED91E00E94411F58DA8FE690E064DA27
:100D9000809186019091870107DB6FDD18B881E0B3
:100DA00087B980E284B982E084DC853D9340DCF73A
:100DB00014B810922A011092290182E07ADC8C0189
:100DC00080916D0190916E0190932A018093290189
:100DD00082E06FDC7C01EE0CFF1C10922A01109265
:100DE000290182E066DCC0906D01D0906E01D09246
:100DF0002A01C0922901080F191F0E191F09F7D9DE
:100E000088E690E029DA89ED91E00E942B1F63E0EB
:100E1000B62EB80E9601D8010E94631E9701442792
:100E200037FD4095542F0E94C41EB20E6B2D89EDE4
:100E300091E00E94331F8B2D992787FD9095B4DA9E
:100E40001CDD82E080934401F5DC10923D018CE0D2
:100E5000C3D980ED91E00E942B1F682F83ED91E0B4
:100E60000E94331F13C010E0C2D9609172017091CB
:100E70007301809174019091750104E026E4409122
:100E8000840146DBF9DBBA9409F02CCF89E1809329
:100E90002701D3D98DE490E0EDD9A9D987EE90E070
:100EA000E9D91092160182E080934401C3DC2E96AA
:100EB000ECE00C94021F80913D0181110DC080ED8A
:100EC00091E00E942B1F61E0680F83ED91E00E948A
:100ED000331F81E080933D010895CF92DF92FF920E
:100EE0000F931F93CF93DF931F92CDB7DEB7E82FF9
:100EF000F0E0EF57FF4FE491E8B9E7B915B8E62FF6
:100F0000F0E0E258FF4FE491E4B908E813E1FE2E67
:100F1000FF0C862F69834BDC6C01F4B86981801764
:100F2000910710F48C01F5CF0097C9F082E790E0AB
:100F3000A1D9D60120EA36E841E050E00E94691EBE
:100F400028E937EB40E050E00E94A21EDA01C90117
:100F500022E041E467EF72DB17B818B814B80F90BD
:100F6000DF91CF911F910F91FF90DF90CF90089567
:100F70000F931F93CF93DF9385E09BDB85E0FBDB33
:100F8000EC018C01000F111F000F111F0A561F4F9B
:100F900010923101043883E0180740F482ED90E0AC
:100FA00069D9BCD981E0809331011DC081EE90E008
:100FB00061D962E0C8014DDBFAD8CA3F86E0D807A4
:100FC00070F4C333D64040F48BE591E053D9A6D9F1
:100FD0004BDB5E984CDB07C082E691E002C08EEDF1
:100FE00090E048D99BD9DF91CF911F910F9108953F
:100FF000A4E1B0E0EEEFF7E00C94E01E982E862E10
:10100000442EA895E62FF0E0E258FF4F5490339617
:10101000E490E42FF0E0E258FF4F6490E82FF0E016
:10102000E258FF4FF4903396749065B8262D252929
:101030002C8B24B977B878B8862F9DDB9E838D835F
:1010400054B8882D98DB1C0114B81DDB15B83C89F9
:1010500034B9882D90DB4D815E818417950720F58A
:10106000805E9E4F4817590708F4B0C4E7B818B817
:10107000F5B88F2D862984B960912B0170912C01D0
:101080007E836D83892D77DBAD81BE81A81BB90B73
:10109000BE83AD83F4B820902B0130902C01892DB4
:1010A0006ADB281A390A08C02D813E81205E3E4F36
:1010B0008217930708F48AC42091540180916C012F
:1010C00090E0820F911D02974CF0213009F07EC410
:1010D0009091510180916901981378C4162D110FD8
:1010E000ED81FE81E437F10508F49CC0CF01880F43
:1010F000991F44962816390608F094C077B878B836
:10110000812F852984B9882D44DB6C01842DD1DAA7
:101110005C0115B9882D3DDB9601295A3D4F1F29E9
:1011200018B8E7B814B915B928173907A8F5842DE8
:1011300030DB88349F4028F085E08093160182E2FE
:1011400004C085E08093160184E280931501D0925B
:101150004A01C0924901AC14BD0440F4C6018A1989
:101160009B099093500180934F0104C0109250014D
:1011700010924F019601A0E1B7E20E94541E209107
:1011800010013091110140E050E00E94A21E309306
:101190004C0120934B0112C4892DFBDA8C01842D64
:1011A00088DA6C01F5B8892DF4DA895A9D4F8017D9
:1011B000910708F00BC478B877B8842DEADA813D3E
:1011C000934028F485E08093160182E304C085E013
:1011D0008093160184E3809315010C151D0538F4E6
:1011E000C01AD10AD0926801C092670104C010925F
:1011F00068011092670120912B0130912C01201B76
:10120000310BA0E1B7E20E94541E209117013091EA
:10121000180140E050E00E94A21E30936401209328
:101220006301ACC118B8E7B8F5B80F2D062904B9A9
:10123000892DA1DA98878F83C0902B01D0902C0143
:10124000842D37DA9A8389830A9790F514B81BDACC
:10125000812F8F2984B9892D8EDA98878F834091C9
:101260002B0150912C01481B590B5C834B83842D1F
:1012700020DA9A83898380911701909118019C014B
:1012800040E050E060E871EA83E09CE10E94A21E29
:10129000AB81BC810E94691EA981BA819D0140E099
:1012A00050E00E94A21E29873A874B875C871DC0A9
:1012B000F6012F813885E21BF30BFC83EB839F0142
:1012C00049815A81241B350B44E6429FC001439F4C
:1012D000900D112469817A810E948E1ECB01A0E0BD
:1012E000B0E089879A87AB87BC8714B815B878B8FF
:1012F00077B8C9D999EB291697E0390608F066C383
:10130000AC89A4B9882D37DA8F359D4008F43CC1EB
:1013100014B8B9D9EC89E4B9B6D9F12FF529FB8B0A
:10132000F4B9882D28DA6C01842DC3D99E878D8766
:10133000892DBFD95C012D853E85213D374008F4BC
:10134000AEC084E0809316018DE0809315013601D4
:101350002C143D0410F462187308E0901001F09012
:10136000110100E010E060E871EA83E09CE1A8016F
:1013700097010E94A21ED3010E94691EAD85BE8501
:101380009D0140E050E00E94A21E80916C018823E4
:1013900069F080915D0190915E01A0915F01B09133
:1013A000600182179307A407B50700F520935D013C
:1013B00030935E0140935F01509360019601A0E17C
:1013C000B7E20E94541EA80197010E94A21E30930A
:1013D000640120936301C501ED85FE858E1B9F0B83
:1013E000909362018093610121E001C020E080912F
:1013F0005D0190915E01A0915F01B091600149850E
:101400005A856B857C8584179507A607B70738F53D
:1014100040935D0150935E0160935F0170936001A2
:101420008F81988569817A81861B970B90936201E1
:10143000809361012B813C81A0E1B7E20E94541EA0
:10144000209117013091180140E050E00E94A21E47
:10145000205F384D309364012093630103C0222341
:1014600009F477C39101A0E1B7E20E94541EA801DC
:1014700097010E94A21E30936601209365012D8181
:101480003E81A0E1B7E20E94541EA80197010E948C
:10149000A21E309368012093670121E05AC371E6D0
:1014A0002716310408F070C081EDC81687E0D80611
:1014B00008F46AC085E08093160182E180931501EB
:1014C000C60186509F4F8A159B0520F483E18093C7
:1014D00015011AC0CA14DB0498F4A0911001B09150
:1014E000110195012C193D090E94541E960140E0FE
:1014F00050E00E94A21E309362012093610104C05B
:1015000010926201109261019E2D9770E92E842D38
:10151000806480937C007BE0F72E01E010E0CC2417
:10152000CA94E3E0DE2EA89561E0862D18D5AB893C
:10153000A4B986B18E21E9F354B880917A00806411
:1015400080937A0080917A0086FDFCCF80917800AC
:1015500090917900F601E81BF90B0E0F1F1FFA940A
:1015600011F7C801880F991F880F991F69E070E073
:101570000E948E1E709368016093670180916C01D8
:101580008F5F80936C0189CFFC89F4B965B8882D91
:10159000F2D85C01842D8DD89C838B8360912B01C4
:1015A00070912C01681B790B6A30710570F514B8C5
:1015B0006AD8812F852984B915B9882DDCD85C01BA
:1015C000842D77D89C838B83809110019091110199
:1015D0009C0140E050E060E871EA83E09CE10E94F9
:1015E000A21ED5010E94691E20912B0130912C0171
:1015F0004B815C81241B350B40E050E00E94A21E11
:1016000029873A874B875C8712C09501261B370BC9
:1016100044E6429FC001439F900D11240E948E1EFC
:10162000CB01A0E0B0E089879A87AB87BC87E7B899
:1016300018B804B905B9892D9ED898878F83842D51
:1016400038D89A838983882D34D86C012F813885C6
:101650002439314108F0B8C1F5B8892D8CD8AC01D6
:10166000F4B8892D498B5A8B86D89C0115B88F8781
:10167000388B09D8F5B8892D7ED82F8538894989C6
:101680005A892034364008F053C08133914108F420
:101690004FC08F8198858A569F4F4817590708F089
:1016A00047C086E080931601809154018F5F80933C
:1016B000540189819A818C199D0990934A018093E4
:1016C00049012F8038842C183D0830925001209217
:1016D0004F0114B815B8E8B80E944303F4B8892D37
:1016E0004AD8853F910508F042C204B9842D43D8F9
:1016F000813D934008F43BC2892D0E9459038D3DE2
:10170000924008F434C2F4B8892D35D88D3D92400A
:1017100008F42DC2F5B80E94430315B8892D2BD8C3
:10172000853F910508F023C287E0809316011FC210
:1017300004B905B90E944303D12EDF28D4B8D5B827
:10174000892D19D8AC0100912B0110912C01081B97
:10175000190B842D498B5A8B0E9459039E878D87C4
:1017600020912B0130912C01281B390B3A832983BE
:10177000882D0E94590398878F8349895A896981E6
:101780007A816E3F794008F4B0C084E080931601FE
:101790008CE08093150138012016310610F4621890
:1017A000730880911701909118016C01E12CF12CC4
:1017B00060E871EA83E09CE1A70196010E94A21E05
:1017C000D3010E94691EA981BA819D0140E050E0C9
:1017D0000E94A21E80915401882369F080914501E6
:1017E00090914601A0914701B0914801821793075B
:1017F000A407B50708F520934501309346014093AF
:101800004701509348018D859E85EF81F8858E1B99
:101810009F0B90934A01809349019801A0E1B7E2A0
:101820000E94541EA70196010E94A21E30934C01F3
:1018300020934B0121E001C020E08091450190916F
:101840004601A0914701B091480149855A856B85B1
:101850007C8584179507A607B70720F540934501B7
:101860005093460160934701709348018B819C819E
:101870008A199B0990934A01809349019501A0E13F
:10188000B7E20E94541E209110013091110140E0F6
:1018900050E00E94A21E205F384D30934C012093EF
:1018A0004B0103C0222309F463C19101A0E1B7E217
:1018B0000E94541E209110013091110140E050E02F
:1018C0000E94A21E30934E0120934D012D813E8136
:1018D000A0E1B7E20E94541EA70196010E94A21E39
:1018E0003093500120934F0142C161E62616310426
:1018F00008F06AC009347DE0170708F465C085E088
:101900008093160182E0809315018F81988586501F
:101910009F4F8417950720F483E0809315011CC026
:101920008F8198858417950798F4A0911701B0913D
:1019300018019A01281B390B0E94541E980140E09F
:1019400050E00E94A21E30934A012093490104C036
:1019500010924A0110924901072D0770842D80646E
:1019600080937C001BE0AA24A394B12CA89560E08E
:10197000862DF5D2D4B8D5B886B18023E9F7F4B86E
:1019800080917A00806480937A0080917A0086FD4D
:10199000FCCF8091780090917900A80EB91E11506B
:1019A00029F7C501880F991F880F991F69E070E01A
:1019B0000E948E1E7093500160934F0180915401DC
:1019C0008F5F80935401D3C017B818B814B815B8F6
:1019D00017B897EC291691E0390608F4AFC018B88B
:1019E00018EC072D0E2907B90E944303E7B8892D8B
:1019F0000E945903429710F01150A9F7452C440C4E
:101A00003F2C330C34B835B861E0862DA8D2892D2F
:101A10000E94BB038C0144B815B877B878B860E071
:101A2000862D9DD2A0902B01B0902C01882D0E9474
:101A3000BB036C0154B8892D0E94BB039A83898330
:101A4000882D0E94590329813A81281B390B3A833A
:101A5000298318B8E7B8F4B8F5B861E0862D7FD2CD
:101A6000892D0E94BB037C01882D0E945903E81A2E
:101A7000F90A49815A814E155F0540F434B835B8EA
:101A8000892D0E94BB03FA82E98215C085010C19D9
:101A90001D0944B815B877B878B860E0862D5FD2D4
:101AA000E0902B01F0902C01882D0E94BB03B70120
:101AB000681B790BCB0129813A81275931092938D3
:101AC0003141E0F529813A8182179307B8F5C801C1
:101AD00033E0969587953A95E1F7893C910510F0AA
:101AE00088EC90E0800F911F49815A8184179507F7
:101AF00028F5CA0124E0969587952A95E1F7801785
:101B00009107E0F480911601833018F483E080930C
:101B1000160180911401E82FF0E0DF01A857BE4FB5
:101B20009C9216968C92EE0FFF1FEC56FE4F298169
:101B30003A81318320838F5F80931401682D892D32
:101B400025D017B818B814B815B86496E2E10C940B
:101B5000FC1E80916C018F5F80936C01222389F3BE
:101B60004092690180926A0190926B01EACF21E074
:101B7000809154018F5F80935401222311F340928E
:101B800051019092520180925301DBCFA0E0B0E06E
:101B9000ECECFDE00C94E21E982E862EA895E62F24
:101BA000F0E0E258FF4F549033962491E82FF0E094
:101BB000E258FF4FE4903396F49030916C0180919D
:101BC000540190E0830F911D892B09F0C3C1A895A2
:101BD00080911A0190911B01880F991F880F991FFE
:101BE00090932C0180932B0180916D0190916E0157
:101BF000880F991F880F991F90932A0180932901BC
:101C00008EEB8093270118B827B9E4B8E5B858E1FE
:101C1000D52EC0E0D0E0882D0E94BB03782E692E1F
:101C2000892D0E9459038C018C1B9D0B97FF03C0CB
:101C300091958195910903972CF0A895DA94D1F1AB
:101C4000E801E9CFEE0C15B8E4B8892D0E94BB037A
:101C50008135910578F5E5B8892D0E94BB03EC012B
:101C6000F7B8F8B815B854B888E1482EC12CD12C73
:101C7000892D0E94BB03B82EA92E882D0E945903DE
:101C80007C019C012C193D0937FF03C0319521953A
:101C900031092330310514F5550C54B8882D0E94B4
:101CA000BB036C01003C94E41907E8F4C53881E0FB
:101CB000D807E8F080911A0190911B0190932C01B4
:101CC00080932B0180916D0190916E0190932A0178
:101CD0008093290189E1809327013CC1A8954A940A
:101CE00049F36701C5CFC03B9DE4D90718F784EAE3
:101CF000E81682E0F80608F063C098E9C916D10436
:101D0000C8F200912B0110912C019E01A8E9B7EBBC
:101D10000E94541E98012C1B3D0B40E050E00E9495
:101D2000A21E29013A0198012C193D09A8E9B7EB37
:101D30000E94541E860120E030E0A90198010E9413
:101D4000A21EC837DF4070F4C301B201B2E0660FD3
:101D5000771F881F991FBA95D1F7620F731F841FD1
:101D6000951F12C098E7C9169FE0D906A0F4CA01D2
:101D7000B901A2E0660F771F881F991FAA95D1F7B6
:101D8000640D751D861D971D25E030E040E050E094
:101D90000E94A21E08C0240D351D461D571D5695D4
:101DA000479537952795A4E6B0E00E94691E6B0120
:101DB0007C018CEAC80E8DE0D81EE11CF11C73C0BA
:101DC000272D362D0217130708F49801CB2DDA2D95
:101DD000CE15DF0508F4E70159012017310708F493
:101DE0005801A0911701B0911801C501821B930BF6
:101DF0009C010E94541E20912B0130912C012A1924
:101E00003B0940E050E00E94A21E29013A018E01E8
:101E1000EC16FD0608F48701A0911001B0911101A4
:101E20009E01201B310B0E94541E6801E12CF12CF5
:101E3000A70196010E94A21E98E7A9169FE0B90685
:101E400070F4C301B201E2E0660F771F881F991F8B
:101E5000EA95D1F7620F731F841F951F11C00837D1
:101E60008FE01807B0F4CA01B90152E0660F771F7E
:101E7000881F991F5A95D1F7640D751D861D971DF2
:101E800025E030E040E050E00E94A21E69017A01A6
:101E90000AC069017A01C40CD51CE61CF71CF69433
:101EA000E794D794C79410911601143008F002CF2C
:101EB0009A94980C892D90E0EC01C95ADE4F288144
:101EC000880F991F880F991FFC01EF55FE4F2223A1
:101ED000D1F14080518062807380A701960124195E
:101EE00035094609570957FF07C050954095309569
:101EF00021953F4F4F4F5F4FAAE0B0E00E94691E0F
:101F0000A30192012C593F4F4F4F5F4F2C0D3D1DA8
:101F10004E1D5F1D0E94A21E232B242B252B09F092
:101F2000C9CE133019F081E08093160182E08883D6
:101F300080916F01E82FF0E0E65AFE4F90828F5FAC
:101F400080936F01B7CEC082D182E282F38281E0BA
:101F50008883B0CECDB7DEB7E0E10C94FE1ECF9300
:101F6000C82FC09595B160FF02C0982B01C09C237B
:101F700095B994B1982B94B90E94420384B18C23F3
:101F800084B985B18C2385B9CF910895A0E0B0E0E4
:101F9000ECECFFE00C94E91E8AE0D82E9FE3B92E0A
:101FA00029E0C22E17B818B815B8B4B880E00E945E
:101FB000BB038C0181E00E945903EC0182E00E9486
:101FC000590320911601293079F031E0C430D10550
:101FD00008F030E021E00430110508F020E0232370
:101FE00031F08430910518F417B814B849C021E0D5
:101FF000083E134008F020E0C83ED34008F42260B9
:10200000883E934008F4246027B9C0E0D0E0A8954A
:1020100080E00E94D7037C0181E00E9459038C017B
:1020200082E00E94590324E1E21625E0F20608F45A
:10203000389A043135E0130708F4399A843125E0E1
:10204000920708F43A9A36E0E316F10428F40630D1
:10205000110510F4069738F02196C43F81E0D807A7
:10206000B1F6C092160100E010E00C171D0729F030
:102070000E9448030F5F1F4FF8CFDA9409F092CF08
:10208000CDB7DEB7E9E00C94051FCF92DF92EF9257
:10209000FF92CF93209172013091730140917401AE
:1020A00050917501C09184018AE0C82ED12CE12C99
:1020B000F12C8C2FCF5F213A96E8390791E0490740
:1020C000510538F0CA01B901A70196010E94A21E6C
:1020D000F0CF80938401A0912B01B0912C010E943C
:1020E000691E28E833E140E050E00E94A21E2093E0
:1020F0007201309373014093740150937501CF9135
:10210000FF90EF90DF90CF900895A0E0B0E0EBE873
:10211000F0E10C94E61EC82FD62F8FEF860F9C2F70
:10212000990F9C0F890F80935601EC2FF0E0E25835
:10213000FF4F1491862F90E0FC01E258FF4FF4907E
:10214000FC01EF57FF4F049180911601813009F493
:102150004DC2409114012EE831E064E971E0D901EB
:102160008A2F821B841798F48D918D130DC0CD0199
:102170000797FC0180818C1307C0FB01808191814E
:102180008C3D954008F432C26E5F7F4FE9CF1092CC
:102190007F0110927E0181EF809384011092720181
:1021A000109273011092740110927501EFDE18B84D
:1021B00007B9F4B8F5B88C2F0E9459034C018D2F44
:1021C0000E945903881A990A14B8E12CF12C15B908
:1021D00014B90E94420314B815B80E944903A89587
:1021E0008C2F0E9459035C01A818B9085EE7E51618
:1021F000F10428F08BE4A816B1040CF485C19DE22B
:10220000A91691E0B9064CF4EFEFEE1AFE0AF4EFCE
:10221000EF16F1E0FF06D9F677C16701E114F1048A
:1022200009F077C155E1A51655E0B5060CF471C16A
:10223000ADDE15B887E087B918B8F12EFF0CF4B8F9
:1022400080E480937B0084E580BF8C2F8064809342
:102250007C0086E180937A000E944C0310928000FB
:10226000109285001092840087E286BBF5B88091B9
:102270001601853071F481E08093810081E090E067
:102280000C2E01C0880F0A94EAF78095877087B9F1
:1022900004C081E08093810007B981E026B325FD69
:1022A0000CC020FFFBCF86BBA8959FEFC91AD90AA7
:1022B000E0E4CE16E6E0DE0689F71092810080E2C7
:1022C00086BBE0908600F09087008091840090911A
:1022D0008500E816F90638F420FF05C081E086BBCA
:1022E000FFEFCF1ADF0A86E980937A0014B815B899
:1022F0008C2F0E94590320912F0130913001821BB5
:10230000930B0C96909387018093860150E2C5163B
:1023100053E0D50608F0F8C0D0927D01C0927C0150
:10232000F0927B01E0927A0184EF8093840182E451
:10233000C816D104C8F060917A0170917B01809138
:102340007C0190917D0124E630E040E050E00E9465
:10235000A21E20937A0130937B0140937C0150931D
:102360007D0186EF80938401A0917001B09171018D
:1023700020917A0130917B0140917C0150917D0147
:102380000E94691E20E233E040E050E00E94A21E5D
:1023900020937A0130937B0140937C0150937D011F
:1023A000209372013093730140937401509375012F
:1023B0006CDE80918401843F09F054C0C0907201AA
:1023C000D0907301E0907401F090750190EAC91605
:1023D0009FE0D906E104F104C0F4A701960124525C
:1023E0003F4F4F4F5F4F60EA7FE080E090E00E94F8
:1023F000A21E2C0D3D1D4E1D5F1D209372013093BA
:10240000730140937401509375018091560190E0DF
:1024100080539E4F0E942B1FC0907201D090730179
:10242000E0907401F0907501482F50E060E070E09A
:102430004C155D056E057F0568F4C41AD50AE60AD9
:10244000F70AC0927201D0927301E0927401F09287
:10245000750108C0109272011092730110927401FC
:102460001092750114B98091720190917301A0913D
:102470007401B09175014997A105B10508F444C0F4
:10248000C12CD12C80911401882321F08091160158
:102490008530D1F588E080931601209184018091E8
:1024A00085018217BCF028132FC040917201509112
:1024B0007301609174017091750180917601909122
:1024C0007701A0917801B091790184179507A6074B
:1024D000B707D0F48091720190917301A0917401BB
:1024E000B09175018093760190937701A093780164
:1024F000B093790120938501D0928101C09280012F
:10250000D0938201C093830117B818B814B815B8D6
:102510006DC000E010E00E9443038C2F0E9459031D
:10252000A8950F5F1F4FE016F106A8F788199909C3
:102530008501081B190B101611068CF4093C1105B6
:102540001CF728EE33E0D8010E94631E9501442752
:1025500037FD4095542F0E94A21E690102C0C12C74
:10256000D12C8FEFE81AF80AC701A0E0B0E0809301
:102570007A0190937B01A0937C01B0937D01C5010A
:10258000800F911F38D09C01D7010E94541E609388
:102590007A0170937B0180937C0190937D0160931D
:1025A000720170937301809374019093750187EFAA
:1025B000809384016ADD2091720130917301409112
:1025C000740150917501A8EEB3E00E94691E24E6E3
:1025D00030E040E050E00E94A21E20937201309350
:1025E000730140937401509375014CCFCDB7DEB7A2
:1025F000ECE00C94021F0F9221E08C32920710F451
:102600008CE291E08C52914069E170E00E948E1E54
:1026100099E16B3210F0982F6BE2981BE2E7F1E042
:10262000E60FF11DE60FF11D9F93CF010E942B1FB6
:10263000482F3196CF010E942B1F582F3196CF0182
:102640000E942B1F282F3196CF010E942B1F382F5D
:102650006F91421B530B649FC001659F900D112425
:102660000C9669E170E00E948E1E620F731FCB0111
:102670000F900895A0E0B0E0E0E4F3E10C94E61ED2
:1026800088E893E190931B0180931A0190932C01A9
:1026900080932B018EEB8093270118B880E187B9D6
:1026A0000E94510317B884E00E94BB03AC018B5C0D
:1026B0009840833F9140A0F481E0809340012091B5
:1026C0002B0130912C01AFEBB9E00E94541E9A010E
:1026D00040E050E00E94A21E30931B0120931A019B
:1026E00080911A0190911B0190932C0180932B01F2
:1026F0008EE00E9459038EE00E94BB03909330014C
:1027000080932F010E943D0441DC18B8C1E0C7B995
:1027100085E185B9C4B980E00E94BB037C0112E069
:1027200017B984E0982E94B881E00E94BB03E80EAC
:10273000F91E97B890E1892E84B882E00E94BB030D
:10274000E80EF91E15B8C8B9C7B9C4B9C0912B01B4
:10275000D0912C0180E00E94BB035C0118B917B92D
:1027600094B800912B0110912C0181E00E94BB03D1
:102770006C0198B897B884B880902B0190902C0188
:1027800082E00E94BB03C00FD11FC80DD91DCA191A
:10279000DB09CC19DD09C81BD90B17B818B814B858
:1027A00080912B0190912C014C01880C991C880E72
:1027B000991E8E189F088C1A9D0AA12CB12C970186
:1027C000A0E9BAE10E94541EA50194010E94A21E34
:1027D00069017A0130933F0120933E019E01A0E9F7
:1027E000BAE10E94541EA50194010E94A21E3093DA
:1027F0002E0120932D012057354E30931801209340
:10280000170180E7C81A85EED80AD0921101C0924C
:10281000100189E180932701CDB7DEB7ECE00C947D
:10282000021F0F93CF93C62F0E94D50080E690E041
:102830000E943A01C0D08091010187FF04C08CE55D
:1028400090E00E943A018C2F0E94D5000E948E01D8
:1028500080E00E94B30180915A010E941B02809186
:1028600001018E3F94F488E790E00E943A01609164
:10287000090170910A0180910B0190910C0103E014
:1028800028E4409101010E948802CF910F910895A0
:102890000F93CF93DF930E94F000809182010E94FA
:1028A000D50084E990E00E943A015CD460918201F5
:1028B00080918301ABD290937F0180937E01D1E020
:1028C0008A3F9F4F08F0D0E0C1E080918001909155
:1028D0008101892B09F4C0E0DD2331F0C11104C06E
:1028E00081E690E00E943A01809183010E94D50028
:1028F0008091800190918101892B69F08BE790E0B4
:102900000E943A0122E045E26FEF809180019091B0
:1029100081010E941E030E948E010E94F7006091B7
:10292000760170917701809178019091790104E0AE
:1029300026E4409185010E948802DD2369F083E846
:1029400090E00E943A0122E044EF6EEF80917E0118
:1029500090917F010E941E030E948E01CC2391F072
:1029600080E00E94B3018CE790E00E943A0122E0EF
:1029700045E26FEF80918001909181010E941E03DA
:102980000E948E01DF91CF910F9108958F7041F4D5
:102990000E9438030E94F7000E94B8070C94370386
:1029A00008958F3021F490913101913011F08F5FB3
:1029B000089580E00895A3E1B0E0E1EEF4E10C9425
:1029C000E01E82E08093010180911601813009F0C0
:1029D0001AC280916F01813009F015C220905A010E
:1029E00024E0229EF0011124EF55FE4F8081918159
:1029F000A281B381893032E59307A105B10508F0C2
:102A000002C29B8B8A8B312C61E0822D631528F0EA
:102A10000E941102B82EA92E03C00E9411025C016F
:102A2000EA2DF0E0EF57FF4F74908B2D90E0FC0102
:102A3000E258FF4FE49115B818B82A893B89203F26
:102A40003105A0F430FC12C0009110011091110169
:102A500000591A4121E030E00B2C02C0220F331F35
:102A60000A94E2F7C901872987B906C0E4B977B8A3
:102A7000009110011091110144E1642E8B2D0E94F0
:102A8000C9034C018A2D0E94590334E08316910436
:102A900010F4049710F06A9489F760E460937B0067
:102AA00084E580BF8B2D806480937C0096E19093B9
:102AB0007A00E12CF12C1092800010928500109287
:102AC000840087E286BB0E944C03232D2170298B52
:102AD00030FC05C081E88093810078B808C078B8E0
:102AE0000E94550380E286BB81E88093810046B353
:102AF00045FF12C018B81092810080E286BB809119
:102B00008600909187006C012091840030918500AF
:102B10008217930768F013C040FFE9CF31E036BB5E
:102B2000A895C70101967C018035910501F7E2CF98
:102B300040FF05C061E066BB8FEFE81AF80A86E93E
:102B400080937A0034E1732E8B2D0E94C9034C01CF
:102B50008A2D0E94590324E08216910410F40497F0
:102B600010F07A9489F780903E0190903F018A8915
:102B70009B89880E991E800E911E20911201309122
:102B8000130100399AE11907B0F461EEC616D104B9
:102B9000E104F10438F4C60165E070E00E948E1E85
:102BA000645101C069E128523109261B310967FDD2
:102BB000339586E009C0C40160EB76E30E948E1E67
:102BC00087E0860F285D3F4F90E0A0E0B0E08C15D5
:102BD0009D05AE05BF0528F4C81AD90AEA0AFB0A02
:102BE00003C0C12CD12C76018989882329F092E277
:102BF000C90ED11CE11CF11C60E5E616F10418F0C9
:102C0000C12CD12C76018BE0C816D104E104F1046B
:102C100028F091E0C91AD108E108F10840912B0190
:102C200050912C01A12CB12CA8EEB3E00E94541EAF
:102C30002B013C019801DA010E94541EA501940168
:102C40000E94A21E44275527C301B2010E94A21E62
:102C5000C9010E949504FC01A5019401C701B601B8
:102C60000E94731E4B015C01BF0180E090E023E0F5
:102C7000660F771F881F991F2A95D1F76B5F7F4FCB
:102C80008F4F9F4F2AE030E040E050E00E94A21EAC
:102C9000C501B4010E94A21E832D90E0E1E0F0E0A6
:102CA000EC0FFD1F64E0369EE00DF11D1124208322
:102CB0003183428353836989611117C06CE0C61662
:102CC000D104E104F10488F0FC013196EE0FFF1FFE
:102CD000EE0FFF1F81E090E08C0F9D1FE80FF91FA2
:102CE00020833183428353833394A895339493E0B4
:102CF000931508F089CE18B80E94410321E04D8158
:102D00005E816F81788589819A81AB81BC818417CE
:102D10009507A607B70708F020E04D855E856F850B
:102D2000788989859A85AB85BC8584179507A60720
:102D3000B70710F032E001C033E0E22FF0E0EE0F11
:102D4000FF1FEE0FFF1F81E090E08C0F9D1FE80F2B
:102D5000F91FDC0194E0399FA00DB11D11244D91A4
:102D60005D916D917C9180819181A281B3814817A1
:102D700059076A077B0708F0322FE1E0F0E0EC0F1B
:102D8000FD1F24E0329FE00DF11D1124808191810F
:102D9000A281B3818093090190930A01A0930B0152
:102DA000B0930C0130FD09C02A893B89203F3105D1
:102DB00020F48BEF8093010116C02CEF20930101CA
:102DC000BC01CD016B5F7F4F8F4F9F4F2AE030E0FA
:102DD00040E050E0B7D72093090130930A014093B7
:102DE0000B0150930C018091090190910A01A0916F
:102DF0000B01B0910C01892B8A2B8B2B11F41092B3
:102E0000010117B814B86396E2E1F6C7AEE1B0E08D
:102E1000EBE0F7E1D5C7662EB82E860F89832091A7
:102E20001601283051F520917601309177014091BB
:102E300078015091790157FD14C01091850108C0A7
:102E4000CA01B9012AE0312D412D512D7BD71F5FD9
:102E5000173FB4F391F42A3560E036074105510578
:102E600018F48FEF9FEF7BC1173F39F480E02817EC
:102E70008DE738074105410510F020E03DE72C8B38
:102E80003D8B26EDA22E02C094EDA92EE1E8F0E0E4
:102E9000E60DF11D859180608E87E1E8F0E0EB0D95
:102EA000F11D859180608F87EEE7F0E0E60DF11D62
:102EB0007590EEE7F0E0EB0DF11DC59090EC692AFE
:102EC000B92A81E0E82EF12C012D112D8E831F826D
:102ED000188619861A861B861C861D86188E198EE2
:102EE0001B8E1A8E53D880E088B960927C000E94B5
:102EF0004D033F8537B975B874B80E94540314B8B0
:102F000015B8DD24B4ED9B2EA6ED8A2E3E8537B98B
:102F100075B874B860927C00A895A0927A008091F0
:102F20007A0086FDFCCFA0927A0080917A0086FD1F
:102F3000FCCF2090780030907900B0927C00A09275
:102F40007A0080917A0086FDFCCF80927A000E9400
:102F500052030E945403C5B8C4B80E9453030E9490
:102F60005503A895A895A895A89514B815B880916B
:102F70007A0086FDFCCF2091780030917900288B73
:102F8000398B3F8537B9C5B8C4B8A895B0927C00D5
:102F9000A0927A0080917A0086FDFCCFA0927A0000
:102FA00080917A0086FDFCCF609178007091790065
:102FB00060927C00A0927A0080917A0086FDFCCF1E
:102FC00080927A000E9452030E94540375B874B82C
:102FD0000E9453030E945503A895A895A895A8950B
:102FE00014B815B880917A0086FDFCCF4091780026
:102FF0005091790014B8CB01820D931DE80EF91E93
:10300000011D111DEA82FB820C831D838889998929
:10301000840F951F2E813F8168857985280F391F80
:10302000611D711D2E833F836887798722E32417F2
:10303000150650F075B874B80E94570314B815B847
:10304000888D8395888F07C0483E73E0570718F036
:103050008A8D83958A8F888999892817190660F047
:103060003E8537B9C5B8C4B80E94570314B815B81F
:10307000898D8395898F07C0883E73E0970718F084
:103080008B8D83958B8FD3945D2D5F3F09F03ECF61
:1030900040903E0150903F01440C551C9201E4E0E9
:1030A000240D351DEA95E1F72901570168016E806D
:1030B0007F8088849984209116012830B1F46C892E
:1030C0007D89812D912D6C537040804090409B01F3
:1030D000AC0109D69B01AC016FEF71EC8EE390E07F
:1030E00031D6621A730A840A950AA614B704C80472
:1030F000D90428F46A187B088C089D0803C066244C
:1031000077244301B20180E090E09301A401EBD564
:103110009501A60117D68CEC91E07981870F911D5E
:103120009AD690E0682EC90160E170E0F7D5260FCD
:10313000371FC9016816190618F4861991090FC0BE
:103140008C5E9F4F8615910540F48C899D8984394A
:1031500081E1980710F00E945B07812D912D6E96FA
:10316000E2E14AC6A4E0B0E0E7EBF8E131C68091C5
:10317000800190918101892B09F0AFC0E09182011B
:10318000F0E0EF57FF4F0491E0918301F0E0E25847
:10319000FF4F14910E94C60F18B815B807B914B99B
:1031A000809183010E9459035C01009185018CE0AC
:1031B000800F843008F091C0015F8091760190917A
:1031C0007701A0917801B09179012AE0C22ED12C2B
:1031D000E12CF12CBC01CD016B5F7F4F8F4F9F4FD6
:1031E000A7019601AFD50F5F073019F0DA01C901C9
:1031F000F1CF293883E138074105510508F06DC04A
:103200002530310508F469C015B914B900E010E0A3
:103210000217130768F429833A834B835C830E9467
:1032200053030E5F1F4F5C814B813A812981F0CFA0
:1032300014B815B8A89585E0809327018091830183
:1032400029833A834B835C830E94590329813A8105
:103250004B815C81A816B90620F47C01EA18FB08B2
:1032600002C0E12CF12C00E010E00217130768F413
:1032700029833A834B835C830E9453030F5F1F4F64
:103280005C814B813A812981F0CF809183010E943A
:10329000590329E120932701A895A816B90618F427
:1032A0008A199B0902C080E090E08E159F0578F492
:1032B0009701281B390B59F0A4EFB1E0F5D4970121
:1032C00040E050E03FD530938101209380010E947F
:1032D000C60F17B818B814B815B82496EAE094C504
:1032E0000895A1E0B0E0E6E7F9E16AC580E48AB9B3
:1032F0008BB986E880937A0014B784B7877F84BF40
:1033000088E10FB6F89480936000109260000FBEC1
:1033100078940E945F0113FDB9C480E185BF10E07D
:103320004F9905C00E9442031F5F1C33C9F78FE508
:103330009DE690930F0180930E011F3130F080E6DF
:103340009DE690930F0180930E011092280192D96F
:103350002FE088E190E00FB6F894A8958093600084
:103360000FBE2093600088E8E82E81E0F82E90E1FF
:10337000A92E25E4C22E21E0D22E3DE0632EB1E23B
:103380009B2E12E1812E00E2702E0E941D0117B8C3
:103390000E94B4046FD90E94F0000E94B807809187
:1033A0004001882379F00E94F70089E890E00E94AC
:1033B0003A0163E080912B0190912C010E94290336
:1033C0000E9438030E94F7000E94C60F80911601E8
:1033D000893061F40E941D018EE890E00E943A015C
:1033E0000E94370381E10E9430053FC48CE00E94B7
:1033F000EC0083ED91E02FD5182F80ED91E02BD5D7
:10340000181B10933D01112319F08EE00E94EC006F
:1034100081E00E9430050E94F70087E691E00E945B
:103420003A0142E061E080E00E94F80742E060E09B
:1034300081E00E94F80741E062E080E00E94F80726
:1034400041E060E082E00E94F80740E062E081E055
:103450000E94F80740E061E082E00E94F807809156
:103460001601811111C083E40E94CC000E94C60F96
:1034700060E082E00E94851061E082E00E94851099
:1034800060E081E00E9485100E941D01D0924301FE
:10349000C092420180911601863041F48EE391E0A2
:1034A0000E943A0141E467E483E409C08730B9F43B
:1034B00087E491E00E943A0142E367E481E30E94DD
:1034C000EA010E94F70082EA90E00E943A0162E07D
:1034D0008091490190914A010E942903C6C3883016
:1034E00011F4D6D9C2C3833009F0DFC08091140132
:1034F000813009F041C09091880180918E01981728
:1035000050F4892F0E94D5008EE690E00E943A0187
:1035100080918E0108C00E94D5008AE690E00E944A
:103520003A01809188010E94D500609188018091C4
:103530008E010E946D0780E70E944F026091880112
:1035400080918E010E948510809184018D3F0CF046
:10355000E8C289EB90E00E943A016091720170919B
:103560007301809174019091750102E026E440910D
:1035700084010E948802D5C2823009F047C082E3EC
:103580000E94CC0085E690E00E943A01809188017B
:1035900020918901821313C080918E010E94D50071
:1035A0008AE690E00E943A01809188010E94D5004D
:1035B0008EE690E00E943A0180918F0116C0309112
:1035C0008E0190918F01391316C00E94D5008EE6AE
:1035D00090E00E943A0180918E010E94D5008AE617
:1035E00090E00E943A01809189010E94D50081E01B
:1035F0000E944F0296C2321304C081E080930D01F5
:103600003BC098133CC0A0920D0136C08330B9F581
:1036100023E320930D0180918E01909189018913FC
:1036200003C021E020930D014091880130918F016A
:10363000431302C0A0920D0120918A01821303C09E
:1036400082E080930D0180919001481302C0709236
:103650000D01321302C080920D01981302C09092A6
:103660000D0180910D01823250F483E30E94CC0061
:1036700085E690E00E943A010E94650252C28DE404
:1036800091E00E943A0185E391E00E943A010E9494
:10369000F70089E191E00E943A0180911401805D78
:1036A0000E94CC008EE690E0DBC2843009F05EC15F
:1036B00080916C018823A1F180915401882381F1CC
:1036C00060915101809153010E94851020907201F8
:1036D00030907301409074015090750110918401F5
:1036E00060916B01809169010E9485108091840135
:1036F00018130EC08091720190917301A091740112
:10370000B0917501281639064A065B0618F005C007
:1037100018171CF46092150103C08CE0809315010A
:1037200080916C01882361F080915401882341F0DD
:103730004F9906C08091150191E08927809315016A
:10374000809115018C3051F485EB90E00E943A0194
:1037500080916C01882399F080E70FC08DE591E09E
:10376000909343018093420181EB90E00E943A01E3
:1037700080915401882319F08EE60E94CC000E94AB
:10378000D700309114018091420190914301AEE83D
:10379000B1E068E871E0B62EBE18B31660F5FB0123
:1037A0004191BF01FC012485421719F04C9142134D
:1037B00002C01196F0CF809115018C3041F49091A8
:1037C000520180915301891740F010E007C0909199
:1037D0006A0180916B019817C0F711E0112331F055
:1037E0008EE690E00E943A0111E008C08AE690E07F
:1037F0000E943A0103C0A4E1BA2E10E043E462E45F
:1038000085E40E94EA010E94F7008FEB90E00E949D
:103810003A01E0914201F09143016081718182811E
:10382000938103E020E04EEF0E9488020E94D700BF
:1038300089E40E94CC00E0914201F091430186812D
:1038400097818031974270F085E60E94CC00E0912C
:103850004201F0914301868197818051974297837D
:10386000868303C083E60E94CC000E94EA00E091B8
:103870004201F091430122E041E46AEF86819781A1
:103880000E941E0380E00E94B30186EA90E00E943D
:103890003A01E0914201F091430163E08481958116
:1038A0000E942903E0914201F091430180859185B6
:1038B000892B91F080E00E94B3018EE890E00E9495
:1038C0002C01E0914201F091430123E041E46AEFD1
:1038D000808591850E941E03E0914201F091430191
:1038E00082859385892B91F080E00E94B30188E85E
:1038F00090E00E942C01E0914201F091430123E00D
:1039000041E46AEF828593850E941E0324E02B1513
:1039100008F4ABC180E00E94B3018B2D90E011232D
:1039200071F08C0108571E4FF80180810E94D5006C
:103930008EE690E00E943A01F80186810DC08C016C
:1039400008571E4FF80186810E94D5008AE690E054
:103950000E943A01F80180810E94D5000E94D700A0
:1039600082EA90E00E943A018B2DD8C0853009F0A0
:10397000F0C08091150184FF0AC080E50E94CC0050
:103980008DE591E0909343018093420103C08EE462
:103990000E94CC008DE20E94CC0080911501182F6E
:1039A0001F70143019F488EC90E013C085FF02C03A
:1039B00084E401C085E40E94CC00133041F482EC21
:1039C00090E00E943A0143E467E485E407C08DEC8F
:1039D00090E00E943A0144E467E483E50E94EA0132
:1039E0009091140180911501913089F484FF07C0F2
:1039F00020916A0190916B01291738F008C020913D
:103A0000520190915301921710F411E001C010E09F
:103A100085FD2CC00E94F700E0914201F091430126
:103A2000668584850E9485100E94BC018DE990E026
:103A30000E943A01E0914201F091430162E08285E7
:103A400093850E94290380E00E94B30180E390E007
:103A50000E943A01E0914201F091430122E044EFDB
:103A60006FEF848195810E941E0330C08F70843077
:103A700069F080E00E949301E0914201F0914301DE
:103A8000668584850E9485100E94BC0180E00E94AA
:103A9000B30189E40E94CC000E94EA00E091420157
:103AA000F091430122E041E46AEF868197810E9410
:103AB0001E0388E990E00E943A01E0914201F091F2
:103AC000430162E0828593850E942903809114015D
:103AD000813009F0CAC080E00E94B301112359F07F
:103AE000809188010E94D5008EE690E00E943A0104
:103AF00080918E010AC080918E010E94D5008AE6D5
:103B000090E00E943A01809188010E94D5000E94B5
:103B1000D70082EA90E00E943A0180E00E944102D0
:103B2000A4C080916F01882309F49FC0A7B8809139
:103B30000E0190910F010E94E50317B80E941D012C
:103B400080911401805D0E94CC0085E690E00E9487
:103B50003A0100916F01002309F476C0013049F465
:103B600080915A010E94110240E0692F0E941114B5
:103B70007CC030915A0110915B0194E0199FD001F3
:103B80001124AF55BE4F24E0329FF0011124EF55B0
:103B9000FE4F4D915D916D917C9180819181A281CB
:103BA000B38184179507A607B70710F0232F01C02C
:103BB000212F023021F4310F13E0131B1CC0109190
:103BC0005C0184E0189FD0011124AF55BE4F94E0F2
:103BD000299FF0011124EF55FE4F4D915D916D919C
:103BE0007C9180819181A281B38184179507A6077A
:103BF000B70708F0122FB12EB69402E0011B112373
:103C000011F022E001C021E08B2D29830E94D50014
:103C100080E690E00E943A01802F0E94D50080E665
:103C200090E00E943A012981822F0E94D50080E015
:103C30000E94930181E0111180E00E941B0282E04A
:103C40008B190E941B0211C085E291E00E943A018B
:103C50000E94F70082E591E00E943A018DE491E034
:103C60000E943A0180E49FE104C080910E0190918E
:103C70000F01A7B84F9BFECF0E94E503811185CBB2
:103C80005E9880E090E00E94E50379CB0E94F0000E
:103C900080E191E00E943A010E9436035E9880E044
:103CA00090E02196E2E1A8C0A29FB001B39FC001BD
:103CB000A39F700D811D1124911DB29F700D811D58
:103CC0001124911D0895F0DFB7FF0895821B930B17
:103CD0000895EADFA59F900DB49F900DA49F800DDD
:103CE000911D11240895DB018F939F93F2DFBF9103
:103CF000AF91A29F800D911DA39F900DB29F900D3B
:103D000011240895991B79E004C0991F961708F0B3
:103D1000961B881F7A95C9F780950895AA1BBB1B2F
:103D200051E107C0AA1FBB1FA617B70710F0A61BBB
:103D3000B70B881F991F5A95A9F780959095BC01DC
:103D4000CD010895A1E21A2EAA1BBB1BFD010DC0D7
:103D5000AA1FBB1FEE1FFF1FA217B307E407F5073B
:103D600020F0A21BB30BE40BF50B661F771F881F17
:103D7000991F1A9469F760957095809590959B01AD
:103D8000AC01BD01CF010895052E97FB16F40094F8
:103D90000FD057FD05D0D6DF07FC02D046F408C08F
:103DA00050954095309521953F4F4F4F5F4F089567
:103DB00090958095709561957F4F8F4F9F4F089597
:103DC0002F923F924F925F926F927F928F929F922B
:103DD000AF92BF92CF92DF92EF92FF920F931F9319
:103DE000CF93DF93CDB7DEB7CA1BDB0B0FB6F894CA
:103DF000DEBF0FBECDBF09942A88398848885F840A
:103E00006E847D848C849B84AA84B984C884DF807A
:103E1000EE80FD800C811B81AA81B981CE0FD11D5E
:103E20000FB6F894DEBF0FBECDBFED010895FB01C4
:103E30009F0142306CF045325CF4642F77276EDFCF
:103E4000805D8A330CF0895D8193CB010097A9F7DF
:103E50001082C90119C0F999FECF92BD81BDF89AAF
:103E6000992780B50895262FF999FECF1FBA92BDE4
:103E700081BD20BD0FB6F894FA9AF99A0FBE01964B
:103E80000895F1DF272FF0CFDC01FC01672F71913E
:103E90007723E1F7329704C07C916D937083629130
:0C3EA000AE17BF07C8F30895F894FFCFD9
:00000001FF
