:10000000F7C0000007C1000005C1000003C10000E7
:1000100001C100000C949A20FDC000000EC6000033
:10002000F9C00000F7C000000C94B7160C947E20B5
:100030000C948C200C949116EDC00000EBC00000D5
:100040000C945820E7C00000E5C00000E3C00000A9
:10005000E1C00000F3C50000DDC00000DBC000000F
:10006000D9C00000D7C000000104100102044E6F87
:10007000742063616C696272617465642120466FEB
:1000800072FF63616C6962726174696F6E20636C88
:10009000616D70207468652033FF70696E73207421
:1000A0006F67657468657220616E64207374617235
:1000B00074207769746820746865FF6B65792E20F9
:1000C00041636B6E6F776C6564676520746865204B
:1000D00073656C662D746573742077697468207419
:1000E0006865206B65792077697468696EFF327383
:1000F0002E20446973636F6E6E6563742070696E41
:100100007320616674657220746865FF6D65737332
:10011000616765202269736F6C617465FF50726F4F
:10012000626521222069732073686F776E2E2053D9
:100130006F66747761726520616E6420646F6375A9
:100140006D656E746174696F6E20697320617420CF
:1001500073766E3A2F2F206D696B726F636F6E74BA
:10016000726F6C6C65722E206E65742F7472616E86
:10017000736973746F72207465737465722000B94B
:1001800003870358032E030703E402C302A4028873
:10019000020000140029003E00530069008000970F
:1001A00000AE00C600DF00F80012012D0149016514
:1001B000018201A001BE01DE01FF012102440268AB
:1001C000028E02B502DE020903350364039403C8FC
:1001D00003FE0337047304B404F90443059305EAEA
:1001E000054906B3062907AE074808FF08DE0900DF
:1001F00011241FBECFEFD8E0DEBFCDBF11E0A0E0DD
:10020000B1E001C01D92A23CB107E1F70E944D2D63
:100210000C947935F5CE80FD5C9A80FF5C98549AF9
:1002200000005D9A559A589859985A985B9864FDC1
:10023000589A509A65FD599A519A66FD5A9A529A5F
:1002400067FD5B9A539A00005D9813D387FD10C039
:100250005D9A589859985A985B9860FD589A61FD34
:10026000599A62FD5A9A63FD5B9A00005D9801C33A
:10027000089580914201809300018091A9018093AB
:1002800002010895909142019F5F90934201682F6F
:1002900081E0C1DFE5C28F5CF5CF80E2F3CFA1E062
:1002A000B0E0E5E5F1E00C94BB3418162CF489833A
:1002B000F4DF89818150F9CF2196E2E00C94D734A4
:1002C0008DE3E0CF682F80E0A6DFCAC21092A901BB
:1002D00080E8F8DF10924201089580ECF3DF81E0BE
:1002E0008093A90110924201089580E9EBDF82E03A
:1002F0008093A90110924201089580EDE3DF83E02D
:100300008093A901109242010895609342018130C7
:1003100011F480EC01C080E8860FD4CF6091000119
:1003200080910201F2CF81E0CDDF82E0A4D2CECF76
:10033000CF93DF93EC018991882311F0A3DFFBCFEA
:10034000DF91CF910895CF93DF93EC01FE0184916B
:10035000982F9F7719F096DF2196F8CFDF91CF91F4
:100360000895CF93DF93EC01CE010E943B35982F87
:100370009F7719F087DF2196F7CFDF91CF9108950E
:100380000F931F93CF93DF938C01085F1F4FEC01F6
:1003900021960E943B3576DFC017D10711F0CE01C0
:1003A000F6CFDF91CF911F910F91089584E163D231
:1003B00083E388DF82E386DF82E05DD280E282DF52
:1003C00080E280DF8AE27EDF88E07CDF86E07ADF21
:1003D00082E078DFA8DF81E04ED28CE073DF88E432
:1003E00071DF8DE590E0CCDF80E56CDF85E590E0A6
:1003F000C7DF88E567DF85E690E0C2DF88E762DF78
:100400008DE490E0BDDF80E75DDF85E490E0B8DF5C
:1004100080E458DF8DE390E0B3CF9091420180E11A
:10042000891B3DCFA1E0B0E0E8E1F2E00C94BB34E1
:100430008983F3DF9091A9019F5F9093A90189813E
:10044000923030F091E09093A9019093450102C061
:1004500010924501682F8091A90157DF2196E2E0B3
:100460000C94D734DFDF4BC331DFD7DF2FCF35DF3D
:10047000D4DF33CF08950F9384E891E072DF409189
:100480008D014D3F64F460917B0170917C018091FE
:100490007D0190917E0103E026E4B9D002C08FE394
:1004A000F1DE0F91089597FF09C08F939F938DE21E
:1004B000E9DE9F918F91909581959F4F68E271E061
:1004C0004AE050E00E94273533CFEDDF01C0EBDF7B
:1004D000E4CEEF92FF920F931F93182F062FF42E66
:1004E00083E791E03EDFEE24E0914301F091440187
:1004F0008685E81611F4812F09C08485E81611F469
:10050000802F04C08585E81611F48F2DBBDEE3949F
:100510008E2D833049F71F910F91FF90EF90089532
:10052000682F80E092E0662309F491E0623009F4DC
:1005300081E008950F93082FEAEAF1E0880F880F11
:10054000E80FF11D608171818281938164367105AC
:100550008105910570F42091010127FD0AC0802FCB
:10056000DFDF692F0E94381C6EEF23E044EF3ED19D
:1005700004C04FEF04E024EF4AD08FDE0F910895BE
:10058000863058F4EDE9F1E0E80FF11DE80FF11DB8
:100590008081918163E035D180CE08951F93182F1B
:1005A00080917601882319F078DE80E06BDE95DE9D
:1005B0008AE691E0D6DE812F82958F70E1DF812F70
:1005C0008F70DEDF1F910895CF93DF9380910D012F
:1005D00082958F70C1E9D1E0C80FD11D88815BDEA3
:1005E00080E391E0BEDE8E8156DE80E391E0B9DEED
:1005F000C1E9D1E080910D018370C80FD11D8E81BA
:100600004ADE80910D01CADFDF91CF910895AEE0FF
:10061000B0E0EDE0F3E00C94AB34342E222E6B010D
:100620007C01102F1F7080E389838A838B838C83E6
:100630008D838E83F7FE0BC08DE224DEF094E09470
:10064000D094C094C11CD11CE11CF11C04C005FF56
:1006500002C08BE217DE133009F4B6C0143009F47F
:10066000BAC0153051F0163081F01730B1F074E691
:10067000872E912CA12CB12C17C060EA862E66E83B
:10068000962EAA24A394B12C0FC050E4852E52E4D8
:10069000952E5FE0A52EB12C07C040E8842E46E9D8
:1006A000942E48E9A42EB12C3AE0432E512C612C13
:1006B000712CC814D904EA04FB0470F0C701B60118
:1006C0006B5F7F4F8F4F9F4FA30192010E940F34AA
:1006D00069017A013394EDCF81E1830D9BEA899F13
:1006E000812C1124869486E08319899F912C1124F2
:1006F0009694992D990F990D982E991A5E0187E07D
:10070000A80EB11C2AE030E0A501C701B6010E9485
:100710000435F50101900020E9F7CF0101977C0134
:10072000EA18FB08AE2C6701DD24892D90E00496C1
:100730008C159D051CF4839493E0990E882D90E010
:100740008B5C9F4F0E943B35B82E04FF04C0A1165E
:1007500010F41E1901C010E0AE2CA918A10E1A1435
:1007600024F08EE28FDD192D1E19911002C028EFA2
:10077000A22E912C012F10E0C00ED11EEA2CFF24D6
:10078000E7FCF094E92DF0E0EC15FD05A4F43696B5
:10079000E01BF10B81E090E08C0F9D1FE80FF91F2B
:1007A000808170DD9394892D90E08E159F0551F71F
:1007B0008EE268DDE7CFBB2011F08B2D63DD2220B8
:1007C00089F0822D5FDD0EC098EE892E93E0992E80
:1007D000A12CB12C69CF80E1882E87E2982EA12C24
:1007E000B12C62CF2E96E2E10C94C7340F93362FD2
:1007F000BC0180E090E0022F242F432F08DF0F91EF
:1008000008950F93062FBC0180E090E026E54DEFA0
:10081000FEDE0F9108950F93042F28E440E0F7DEE9
:100820008AE730DD3ADD0F910895089503D002D0B4
:1008300001D000D000D003D002D001D000D000D031
:1008400003D002D001D000D000D0A89503D002D0B0
:1008500001D000D000D003D002D001D000D000D011
:1008600003D002D001D000D000D003D002D001D0FC
:1008700000D00000089590E0893C28F0885C48ECA6
:10088000849FC0011124009709F4089520918100EC
:10089000277019F0DADF0197F6CF8130910519F052
:1008A00002973EE303C037E180E090E02091B20080
:1008B000230F2093B30042E04093700027E023BF52
:1008C000889526E023BF10927000A895DCCF8F9307
:1008D00084E0D1DF07C08F9382E0CDDF03C08F9328
:1008E00081E0C9DF8F911F93182F106410937C0053
:1008F000E12FE07880913301E81759F0E09333015C
:10090000AEDF8EE980937A0083E083BF889582E032
:1009100083BF20E030E0A901E0E01FC08EE98093B2
:100920007A0083E083BF889582E083BF609178007E
:1009300070917900260F371F411D511DE43061F47D
:1009400080913501803041F084E02030380720F478
:1009500017FD02C01068CACFEF5F80913201E8171F
:10096000E8F2609136017091370117FF04C0609181
:1009700034017091350180E090E00E94CD332FEF7B
:1009800033E040E050E00E940F34B901CA012091E9
:10099000320130E040E050E00E940F34C9011F9165
:1009A000089589B183FB882780F9499982609091E5
:1009B0001801943050F09EE090931401809315013B
:1009C0001092190191E090931801E0911801AE2F57
:1009D000B0E0AC5EBE4F9C91981721F181111AC016
:1009E000A3E0AE0FA37020911901923041F4B0E062
:1009F000AC5EBE4F9C91933069F42F5F09C091307B
:100A000049F4B0E0AC5EBE4F9C91933019F4215094
:100A100020931901EF5FE370E0931801F0E0EC5EC2
:100A2000FE4F80838091190187FD819580931A0183
:100A30000895A0E0B0E0EFE1F5E00C94B434D82ED6
:100A4000C92E5398519806DF10921901E0911801B0
:100A5000F0E03196E370FF27EC5EFE4F80EF80837D
:100A6000C5E6D9E19EDF4F9905C0F8DED150D1F738
:100A7000C150B9F7CD2DDC2DF12C05E510E0BB24DC
:100A8000B394D7FD36C082E3E82E8BDFE7DEEA942D
:100A9000E1F7000F4F9B0F5F0F730F3349F41111F4
:100AA00003C0CD2DDC2D14E01F5F163928F021C0C6
:100AB000011102C011111DC0A8951C161D062CF4B1
:100AC0002A97209711F4CFEFDFEF80911A01882346
:100AD00039F0F39480917701811102C0B0927701CF
:100AE00084E18F1570F680911901811102C0F12CFB
:100AF000C8CF812FCDB7DEB7E9E00C94D034CF93C7
:100B0000B8DBC82F809145018823F1F0813049F48A
:100B1000C13039F46FE0F9DB8BE2B4DB6FE081E0E8
:100B2000F4DB80E49FE185DF811104C080911A012C
:100B30008111F7CFC13039F480914501813019F42A
:100B400060E0E3DB6ADCEADBCF9108958EE393E0BB
:100B50000E943B35382F8FE393E00E943B35209174
:100B60003A01230F30913B01381F20931D01309330
:100B70001E0183E0283E380720F0C901885E9340BB
:100B800002C080E090E062E370E00E94E8336830E9
:100B900008F067E0EFE7F1E0E60FF11DE60FF11D69
:100BA000459155912591359162E3681B421B530B8A
:100BB000649FC001659F900D1124499662E370E027
:100BC0000E94E833620F731F70937A01609379017A
:100BD00080E493E00E943B35992787FD90956091D2
:100BE0003A0170913B01860F971F909335018093D6
:100BF000340190937501809374010895CF93DF932E
:100C000024E130E0B9010E94E833DC01E1E9F1E0E0
:100C1000E60FF71FE60FF71FC591D5914591559146
:100C20004C1B4A9FC0011124B9010E94E8336C0F8C
:100C30007D1FCB01DF91CF910895189518951092E3
:100C4000210110921F0110926F0110925501109214
:100C50002001109241011092760110925A011092D7
:100C60005B0110925C0110928B0182E080938C01F9
:100C70001092010110928A011092890110927F0155
:100C800010928001109281011092820181EF809375
:100C90008E010895A1E0B0E0E0E5F6E00C94B934EF
:100CA00017B818B8E82FF0E0E859FF4F949195B9BC
:100CB000262F281BE20FF11D27FDFA95E491E92B61
:100CC000E4B9698310DE8C016981862F0CDE2091E6
:100CD00036013091370136952795A90143505109C6
:100CE000B801625E7F4F4617570778F4255E3F4F85
:100CF0000217130750F4BC01625E7F4F4617570777
:100D000020F441E08217930708F040E014B8842FE4
:100D10002196E4E00C94D534CF9361E080E0BADF13
:100D2000C82F62E080E0B6DFC80F62E081E0B2DF8A
:100D30008C0FCF910895A3E1B0E0E1EAF6E00C94C6
:100D4000AB34B82E10922101807FA9F4E5DF833007
:100D500009F0B4C3E8DA8AE492E003DBBEDA8FE399
:100D600091DA80ED97E065DE8B30C0F4DCDA8EEF4F
:100D700090E0F7DAA3C306E910E0D5DA8FEA91E054
:100D8000F0DACADF833021F41F5F143010F006C0A0
:100D900010E088E270DD015081F763C09EDA0E94A6
:100DA00018178AEB90E0DDDA60E088E193E00E94BA
:100DB000483560E089E193E00E94483560E087E1D2
:100DC00093E00E94483560E082E00E94381C6C018C
:100DD0009A83898361E082E00E94381C7C019C83B5
:100DE0008B8360E081E00E94381C8C019E838D83A0
:100DF00023E040E26EEFC601F9DC23E040E26EEF53
:100E0000C701F4DC23E044EF6EEFC801EFDC2AE514
:100E1000C216D10424F024E130E03A8329836981A9
:100E200088E193E00E9448358AE5E816F10424F051
:100E300024E130E03C832B836B8189E193E00E94C5
:100E400048350A35110524F024E130E03E832D8336
:100E50006D8187E193E00E94483582E080934501EF
:100E60004EDE9B2D9F709F87913009F04DC001E0B1
:100E700010E058EB252E52ED352E57E4452E512C1F
:100E800062E0A62E78E0972EECE06E2EF4ECCF2EEA
:100E9000F6E3DF2EE12CF12C39C0839423E02815F2
:100EA00058F1E5DAE1DA84E5EDD9C80107DBF5D9D7
:100EB000E1E0BE1230C08DEE90E053DA64E0809144
:100EC0003A0190913B019DDC08DA88EE90E049DA26
:100ED0008091790190917A01F1DA8EEB8093320161
:100EE00017B818B814B815B888EE93E0A2DDF4E08E
:100EF000BF1699F28B3088F288EE93E09ADD0F5F8F
:100F00001F4F0830110511F418E71BC1812CB02EBA
:100F1000B0E27B2EC6CFF2E0BF1241C02091360175
:100F200030913701A8E5BBE10E94A833A7019601E3
:100F30000E94313481E085B985E084B980E0288B56
:100F4000398B4A8B5B8BC3DC288939894A895B8959
:100F5000821B930B9A83898381E184B980E0288B7B
:100F6000398B4A8B5B8BB3DC288939894A895B8949
:100F7000821B930B9C838B8384E085B984E184B9C5
:100F800081E0288B398B4A8B5B8BA1DC28893989DE
:100F9000821B930B9E838D8382ED90E0B7C093E01C
:100FA000B91229C0A5B8EAE0E4B980E090DC20914C
:100FB0003601309137013695279538872F83821B6C
:100FC000930B9A838983F2E2F4B980E080DC2F816D
:100FD0003885821B930B9C838B8395B828E224B9B8
:100FE00081E075DC2F813885821B930B9E838D8376
:100FF00084EC90E08BC084E0B81207C08AE392E0F2
:10100000B0D98ADE811157C287C095E0B91213C0EA
:1010100015B8A4B880E05BDC9A83898394B881E03A
:1010200056DC9C838B8374B882E051DC9E838D8375
:1010300084EE90E06BC0E6E0BE1227C0A4B8A5B86D
:1010400080E045DC2091360130913701821B930B03
:101050009A83898394B895B881E039DC2091360170
:1010600030913701821B930B9C838B8374B875B8C6
:1010700082E02DDC2091360130913701821B930BE9
:101080009E838D8380EE90E041C0F7E0BF1240C0A8
:101090002091360130913701A8E5BBE10E94A833C9
:1010A000A20191010E940F34A5B883E084B980E0C9
:1010B000288B398B4A8B5B8B0ADC288939894A89D2
:1010C0005B89821B930B9A83898395B864B881E00E
:1010D000288B398B4A8B5B8BFADB288939894A89C3
:1010E0005B89821B930B9C838B8375B890E394B9C7
:1010F00082E0288B398B4A8B5B8BE9DB2889398925
:10110000821B930B9E838D838EEB90E02AD904C0C3
:10111000E1E0BE1609F4E4CEE0D889819A81C3D912
:10112000BCD88B819C81BFD9B8D88D819E81BBD919
:10113000D7CE9DD98AE392E014D984E69CDB115086
:1011400019F0EADD8111F5CFEED883EB90E009D9F3
:1011500023E044EF6FEF809138019091390146DB35
:10116000BCD88CEA90E0FDD823E044EF6FEF80918B
:101170003F01909140013ADB82E080934501BFDC62
:1011800010922101D0D888EA90E0EBD860E082E0AC
:101190000E94C2138090830190908401A0908501E9
:1011A000B09086019C868B8661E082E00E94C2132B
:1011B000C0908301D0908401E0908501F090860179
:1011C000DE86CD8660E081E00E94C213009183013B
:1011D000109184011E830D8362E080E00E94C2139F
:1011E00080918301909184019C838B8362E081E0F4
:1011F0000E94C21380918301909184019A8789870C
:1012000061E080E00E94C21380918301909184018B
:101210009A838983EF85E13021F020913E012230CD
:1012200021F4029698878F8306C098878F83109247
:101230003E018CE047D8C4014AD9C60148D9B8015B
:10124000882777FD8095982F03E026E444EFDFD9C7
:101250006E01FFE0CF0ED11CFE013196819191917C
:101260000A97853B9105E0F4EC15FD05B9F7A7E376
:10127000EA2EA3E0FA2E8E010F5F1F4FF801608166
:101280000E5F1F4F6E5EC7010E944835FFEFEF1AD9
:10129000FF0A0C151D0591F720D886EA91E061D868
:1012A00082E0809345012BDC0E94022A2F852130A9
:1012B00029F080913E01823009F0E5C0E0E4BE2EC5
:1012C00010E0FAE0CF2ED12CE12CF12CB8DC2BD899
:1012D00080E00E944B018CE591E043D882E00E94BF
:1012E0004B018DE290E03DD81092210160E082E058
:1012F0000E94C21300918D0160917B0170917C016D
:1013000080917D0190917E01073F44F4A7019601F1
:101310000E940F340F5FB901CA01F6CF00938D010F
:1013200060937B0170937C0180937D0190937E019B
:10133000073F09F093C0DC01CB0180569109A10958
:10134000B10980399545A105B10508F087C06091C4
:101350008F0170919001CB018B569F4F8B32914042
:1013600008F07CC01F5F153008F479C08EE393E06D
:101370000E9456350E94930186E290E00E94B101DE
:1013800080918F01909190018ED8E0DB18B881E0B8
:1013900087B980E284B982E0A6DA853D9340DCF724
:1013A00014B8109235011092340182E09CDA8C015D
:1013B000809174019091750190933501809334016F
:1013C00082E091DA7C01EE0CFF1C10923501109244
:1013D000340182E088DAC0907401D0907501D09217
:1013E0003501C0923401080F191F0E191F090E9400
:1013F0006D018FE190E00E94B10180E493E00E94D2
:101400003B3573E0B72EB80E9601D8010E94B73372
:101410009701442737FD4095542F0E943134B20E76
:101420006B2D80E493E00E9448358B2D992787FD32
:10143000909539D88BDB82E08093450160DB109278
:101440003E018CE00E94620187E393E00E943B35FD
:10145000682F8AE393E00E94483515C010E00E948F
:101460006D0160917B0170917C0180917D01909173
:101470007E0104E026E440918D01C9D888E2FBD9C1
:10148000BA9409F023CF89E1809332010E940A2D9A
:101490000E9493018EEF90E00E94B1010E946D01C5
:1014A00081E392E00E94B1011092210182E08093D9
:1014B000450125DB03C052E0852E2ECE6396E2E186
:1014C0000C94C73480913E0181110DC087E393E0F5
:1014D0000E943B3561E0680F8AE393E00E94483543
:1014E00081E080933E010895CF92DF92FF920F93A7
:1014F0001F93CF93DF931F92CDB7DEB7E82FF0E0B5
:10150000E559FF4FE491E8B9E7B915B8E62FF0E0E7
:10151000E859FF4FE491E4B908E813E1FE2EFF0C0F
:10152000862F6983D4D96C01F4B86981801791073B
:1015300010F48C01F5CF0097D1F08AE391E00E947E
:10154000B101D60120EA36E841E050E00E94BD3307
:1015500028E937EB40E050E00E940F34DA01C9017E
:1015600022E041E467EF42D917B818B814B80F90D9
:10157000DF91CF911F910F91FF90DF90CF90089551
:101580000F931F93CF93DF9385E0ADD985E0A7D963
:10159000EC018C01000F111F000F111F0A561F4F85
:1015A00010923C01043883E0180750F48AE991E076
:1015B0000E94B1010E940D0281E080933C0125C090
:1015C00089EA91E00E94B10162E0C8011AD90E9443
:1015D0004D01CA3F86E0D80790F4C333D64060F48B
:1015E00085EA92E00E94B1010E940D028DEC43D980
:1015F0005E988AEC40D909C08CEA92E002C086EA83
:1016000091E00E94B1010E940D02DF91CF911F91E4
:101610000F910895A7E1B0E0E0E1FBE00C94AB345A
:10162000982E862E542EA895E62FF0E0E859FF4F0D
:1016300024912D873396E490E42FF0E0E859FF4F92
:101640006490162D110FE82FF0E0E859FF4FF49049
:101650003396749065B8422E462844B877B878B867
:10166000862F3DD95C01812F862985B90D85012BF7
:1016700004B9882D34D998878F833D8534B9882D56
:101680002ED91C0114B8E1D815B844B8882D27D933
:101690008A159B0528F5805E9E4FA816B90608F4AA
:1016A000D4C4E7B818B8F5B88F2D862984B9A090AE
:1016B0003601B0903701892D12D9A81AB90AF4B8A9
:1016C000409136015091370158874F83892D07D9B2
:1016D0006F817885681B790B78876F831B0107C042
:1016E0009501205E3E4F8217930708F4AEC4209107
:1016F000550180916F0190E0820F911D02974CF08F
:10170000213009F0A2C49091520180916C0198138C
:101710009CC474E7A716B10408F49AC0C501880FE9
:10172000991F44962816390608F092C077B878B801
:1017300004B9882DD0D86C01852DD5D85C0115B998
:10174000882DC9D89601295A3D4F1F2918B8E7B8E6
:1017500014B915B928173907A8F5852DBCD88834D0
:101760009F4028F085E08093210182E204C085E05B
:101770008093210184E280932001D0924B01C0929A
:101780004A01AC14BD0440F4C6018A199B09909328
:1017900051018093500104C01092510110925001E8
:1017A0009601A0E1B7E20E94A83320911B0130917D
:1017B0001C0140E050E00E940F3430934D01209313
:1017C0004C013BC4892D87D88C01852D8CD86C01A8
:1017D000F5B8892D80D8895A9D4F8017910708F058
:1017E00034C478B877B8852D76D8813D934028F4F5
:1017F00085E08093210182E304C085E0809321018C
:1018000084E3809320010C151D0538F4C01AD10A19
:10181000D0926B01C0926A0104C010926B011092C9
:101820006A012091360130913701201B310BA0E174
:10183000B7E20E94A833209122013091230140E0B9
:1018400050E00E940F343093670120936601C4C1B9
:1018500018B8E7B8F5B8EF2DE629EB83E4B9892D80
:101860003ED89E838D83C0903601D0903701852D60
:101870003AD89A8389830A9748F514B881E00E9480
:101880003B04812F8F2984B9892D29D89E838D838C
:10189000C0903601D0903701C81AD90A852D23D8B7
:1018A0009A83898380912201909123019C0140E0D9
:1018B00050E060E871EA83E09CE10E940F34D601B9
:1018C0000E94BD33A981BA819D010EC0ED81FE81C8
:1018D000CE1ADF0A960149815A81241B350BA4E6F2
:1018E000B0E00E94A8339A0140E050E00E940F341B
:1018F0002E873F87488B598B14B815B878B877B8BE
:1019000081E00E943B046F817885693B774008F055
:101910009CC344B8882D0E946F048F359D4008F405
:1019200061C114B881E00E943B0444B881E00E9488
:101930003B0404B9882D0E946F049F8B8E8B852DEC
:101940000E9473049A878987892D0E94730498875F
:101950008F83E985FA85E13DF74008F4C8C015B9E1
:10196000882D0E946B048115944078F08AE0809362
:1019700021018F81988549855A85841B950B909309
:1019800065018093640121E016C484E08093210105
:101990008DE0809320016E897F892616370620F41A
:1019A0003B016218730802C06E887F88E0901B01BB
:1019B000F0901C0100E010E060E871EA83E09CE137
:1019C000A80197010E940F34D3010E94BD33A9855D
:1019D000BA859D0140E050E00E940F3480916F0174
:1019E000882369F08091600190916101A09162016A
:1019F000B091630182179307A407B50710F52093F0
:101A000060013093610140936201509363012E891C
:101A10003F89A0E1B7E20E94A833A80197010E9484
:101A20000F3430936701209366018F819885E98593
:101A3000FA858E1B9F0B909365018093640121E0D2
:101A400001C020E08091600190916101A09162014C
:101A5000B09163014E855F85688979898417950700
:101A6000A607B70730F5409360015093610160937A
:101A70006201709363018D819E8169817A81861BE9
:101A8000970B90936501809364019601A0E1B7E202
:101A90000E94A833209122013091230140E050E0C0
:101AA0000E940F34205F384D309367012093660108
:101AB00003C0222309F47FC39101A0E1B7E20E9491
:101AC000A833A80197010E940F3430936901209335
:101AD00068019501A0E1B7E20E94A833A80197012F
:101AE0000E940F3430936B0120936A014CCF71E652
:101AF0002716310408F076C08E899F89813D974072
:101B000008F470C085E08093210182E18093200178
:101B10008E899F8986509F4FEF81F8858E179F078A
:101B200020F483E1809320011DC02F8138854E89E8
:101B30005F894217530790F4A0911B01B0911C01DB
:101B4000241B350B0E94A8339A0140E050E00E940C
:101B50000F34309365012093640104C01092650135
:101B6000109264015E2D5770E52E852D8064809360
:101B70007C001BE0AA24A394B12CCC24CA94E3E0FB
:101B8000DE2EA89561E0862D1CD504B986B18E2184
:101B9000E9F36D8564B980917A00806480937A005E
:101BA00080917A0086FDFCCF809178009091790039
:101BB000D601A81BB90BAA0EBB1E115011F7C50107
:101BC000880F991F880F991F69E070E00E94E83321
:101BD00070936B0160936A0180916F018F5F8093B6
:101BE0006F01D1CE44B865B8882D0E946F049A83E6
:101BF0008983852D0E94730498878F8340913601D5
:101C000050913701481B590B4A30510550F514B813
:101C100081E00E943B0404B915B9882D0E946F042D
:101C20009A838983852D0E94730498878F8380917E
:101C30001B0190911C019C0140E050E060E871EABA
:101C400083E09CE10E940F34A981BA810E94BD33D8
:101C50002091360130913701EF81F8852E1B3F0B23
:101C600009C029813A81241B350BA4E6B0E00E940B
:101C7000A8339A0140E050E00E940F3429873A8748
:101C80004B875C87E7B818B8FB81F4B9F5B9892DA3
:101C90000E946F049F878E87852D0E9473049E8308
:101CA0008D83882D0E947304AC012E853F852033DF
:101CB000314108F0C8C1F5B8892D4C8B5D8B0E946D
:101CC0006F04BC01F4B8892D6A8B7B8B0E946F0472
:101CD0006C0115B881E00E943B04F5B8892D0E9483
:101CE0006F044C895D896A897B89A0E4CA16A6E0E5
:101CF000DA0608F05AC08133914108F456C08E8547
:101D00009F858A569F4F6817790708F04EC086E076
:101D100080932101809155018F5F809355018D81C2
:101D20009E81841B950B90934B0180934A012E85D5
:101D30003F85241B350B309351012093500114B87B
:101D400015B8E8B881E00E943B04F4B8892D0E94E0
:101D50006F04853F910508F03CC2EB81E4B9852D05
:101D60000E946F04813D934008F433C2892D0E9484
:101D700073048D3D924008F42CC2F4B8892D0E9462
:101D80006F048D3D924008F424C2F5B881E00E94B2
:101D90003B0415B8892D0E946F04853F910508F01A
:101DA00018C287E08093210114C24B8144B945B920
:101DB00081E00E943B04412E4F2844B845B8892D4C
:101DC0000E946F046C010091360110913701081BCD
:101DD000190B852D0E9473049F878E8760913601B1
:101DE00070913701681B790B7C836B83882D0E946F
:101DF00073049E838D838B819C818E3F994008F470
:101E0000B1C084E0809321018CE0809320013801EF
:101E10002016310610F46218730880912201909107
:101E200023016C01E12CF12C60E871EA83E09CE174
:101E3000A70196010E940F34D3010E94BD33EB81AC
:101E4000FC819F0140E050E00E940F3480915501D9
:101E5000882369F08091460190914701A091480143
:101E6000B091490182179307A407B50708F520939D
:101E700046013093470140934801509349018E85B4
:101E80009F852D813E81821B930B90934B01809304
:101E90004A019801A0E1B7E20E94A833A701960188
:101EA0000E940F3430934D0120934C0121E001C07A
:101EB00020E08091460190914701A0914801B091A6
:101EC000490149855A856B857C8584179507A60746
:101ED000B70730F54093460150934701609348019E
:101EE000709349018F81988569817A81861B970B50
:101EF00090934B0180934A019B01A0E1B7E20E94BD
:101F0000A83320911B0130911C0140E050E00E9459
:101F10000F34205F384D30934D0120934C0103C0A6
:101F2000222309F457C19101A0E1B7E20E94A8332E
:101F300020911B0130911C0140E050E00E940F34C1
:101F400030934F0120934E019501A0E1B7E20E942A
:101F5000A833A70196010E940F34309351012093BA
:101F6000500137C171E62716310408F06CC00934FE
:101F70008DE0180708F467C085E08093210182E0B6
:101F8000809320018D819E8186509F4F8C159D05E9
:101F900020F483E0809320011EC0AD81BE81AC158A
:101FA000BD05A8F4A0912201B09123019601ED8115
:101FB000FE812E1B3F0B0E94A833980140E050E0A9
:101FC0000E940F3430934B0120934A0104C01092B9
:101FD0004B0110924A01072D0770852D8064809374
:101FE0007C001BE0CC24C394D12CA89560E0862D06
:101FF000E8D244B845B886B18023E9F7F4B88091B7
:102000007A00806480937A0080917A0086FDFCCF0C
:102010008091780090917900C80ED91E115029F74F
:10202000C601880F991F880F991F69E070E00E9410
:10203000E8337093510160935001809155018F5F97
:1020400080935501C6C017B818B814B815B817B89A
:10205000F7EC2F16F1E03F0608F4A2C018B818EC10
:10206000072D0E2907B981E00E943B04E7B8892DAE
:102070000E947304429710F01150A1F75D84550C33
:102080004F2C440C44B845B861E0862D9AD2892D76
:102090000E946F048C0154B815B877B878B860E026
:1020A000862D8FD2A0903601B0903701882D0E94E6
:1020B0006F046C012D8524B9892D0E946F041C01C9
:1020C000882D0E947304281A390A18B8E7B8F4B8A2
:1020D000F5B861E0862D75D2892D0E946F047C01D0
:1020E000882D0E947304E81AF90A2E143F0438F46C
:1020F00044B845B8892D0E946F04170115C08501A9
:102100000C191D0954B815B877B878B860E0862D59
:1021100058D2E0903601F0903701882D0E946F046C
:10212000A701481B590BCA019101275931092938C8
:102130003141B0F58215930598F5C80133E09695C5
:1021400087953A95E1F7893C910510F088EC90E08D
:10215000800F911F8215930518F5C10124E0969513
:1021600087952A95E1F780179107D0F48091210196
:10217000833018F483E08093210180911F01E82FC0
:10218000F0E0DF01AF56BE4F9C9216968C92EE0F98
:10219000FF1FE356FE4F318220828F5F80931F0125
:1021A000682D892D25D017B818B814B815B86796BA
:1021B000E2E10C94C73480916F018F5F80936F01CF
:1021C000222389F350926C0180926D0190926E01EE
:1021D000EACF21E0809155018F5F80935501222342
:1021E00011F3509252019092530180925401DBCF2F
:1021F000A0E0B0E0EEEFF0E10C94AD34982E862E26
:10220000A895E62FF0E0E859FF4F549033962491BB
:10221000E82FF0E0E859FF4FE4903396F4903091C6
:102220006F018091550190E0830F911D892B09F07A
:10223000C3C1A8958091250190912601880F991F0F
:10224000880F991F90933701809336018091740114
:1022500090917501880F991F880F991F90933501F0
:10226000809334018EEB8093320118B827B9E4B81B
:10227000E5B858E1D52EC0E0D0E0882D0E946F046B
:10228000782E692E892D0E9473048C018C1B9D0B66
:1022900097FF03C091958195910903972CF0A8951C
:1022A000DA94D1F1E801E9CFEE0C15B8E4B8892D44
:1022B0000E946F048135910578F5E5B8892D0E945B
:1022C0006F04EC01F7B8F8B815B854B888E1482E97
:1022D000C12CD12C892D0E946F04B82EA92E882DD7
:1022E0000E9473047C019C012C193D0937FF03C037
:1022F0003195219531092330310514F5550C54B829
:10230000882D0E946F046C01003C94E41907E8F4E6
:10231000C53881E0D807E8F0809125019091260129
:1023200090933701809336018091740190917501EB
:10233000909335018093340189E1809332013CC14F
:10234000A8954A9449F36701C5CFC03B9DE4D907DE
:1023500018F784EAE81682E0F80608F063C098E906
:10236000C916D104C8F200913601109137019E01BF
:10237000A8E9B7EB0E94A83398012C1B3D0B40E065
:1023800050E00E940F3429013A0198012C193D09AF
:10239000A8E9B7EB0E94A833860120E030E0A9014C
:1023A00098010E940F34C837DF4070F4C301B201B6
:1023B000B2E0660F771F881F991FBA95D1F7620F99
:1023C000731F841F951F12C098E7C9169FE0D90696
:1023D000A0F4CA01B901A2E0660F771F881F991FF8
:1023E000AA95D1F7640D751D861D971D25E030E077
:1023F00040E050E00E940F3408C0240D351D461DFA
:10240000571D5695479537952795A4E6B0E00E944D
:10241000BD336B017C018CEAC80E8DE0D81EE11C37
:10242000F11C73C0272D362D0217130708F49801ED
:10243000CB2DDA2DCE15DF0508F4E7015901201761
:10244000310708F45801A0912201B0912301C50180
:10245000821B930B9C010E94A8332091360130917E
:1024600037012A193B0940E050E00E940F3429014E
:102470003A018E01EC16FD0608F48701A0911B01BC
:10248000B0911C019E01201B310B0E94A8336801F2
:10249000E12CF12CA70196010E940F3498E7A916B0
:1024A0009FE0B90670F4C301B201E2E0660F771F46
:1024B000881F991FEA95D1F7620F731F841F951F1C
:1024C00011C008378FE01807B0F4CA01B90152E013
:1024D000660F771F881F991F5A95D1F7640D751DD8
:1024E000861D971D25E030E040E050E00E940F344B
:1024F00069017A010AC069017A01C40CD51CE61C85
:10250000F71CF694E794D794C794109121011430E6
:1025100008F002CF9A94980C892D90E0EC01C65AED
:10252000DE4F2881880F991F880F991FFC01E655FF
:10253000FE4F2223D1F14080518062807380A70139
:102540009601241935094609570957FF07C05095C8
:102550004095309521953F4F4F4F5F4FAAE0B0E037
:102560000E94BD33A30192012C593F4F4F4F5F4F43
:102570002C0D3D1D4E1D5F1D0E940F34232B242B5F
:10258000252B09F0C9CE133019F081E08093210189
:1025900082E0888380917601E82FF0E0E35AFE4FD5
:1025A00090828F5F80937601B7CEC082D182E28223
:1025B000F38281E08883B0CECDB7DEB7E0E10C9442
:1025C000C934CF93C82FC09595B160FF02C0982B36
:1025D00001C09C2395B994B1982B94B982E00E94D4
:1025E0003B0484B18C2384B985B18C2385B9CF9108
:1025F0000895A0E0B0E0EFEFF2E10C94B4348AE08B
:10260000D82E9FE3B92E29E0C22E17B818B815B8F6
:10261000B4B880E00E946F048C0181E00E947304D2
:10262000EC0182E00E94730420912101293079F4A9
:1026300017B814B81093040100930301D093060156
:10264000C0930501909308018093070156C00430A0
:10265000110540F4C430D10558F48430910540F39D
:1026600021E00AC021E0083E134018F020E001C03C
:1026700021E0C83ED34008F42260883E934008F42D
:10268000246027B9C0E0D0E0A89580E00E946704EC
:102690007C0181E00E9473048C0182E00E9473043B
:1026A00024E1E21625E0F20608F4389A043135E018
:1026B000130708F4399A843125E0920708F43A9A0E
:1026C00036E0E316F10428F40630110510F40697FD
:1026D00038F02196C43F81E0D807B1F6C0922101BD
:1026E00000E010E00C171D0729F00E942A040F5F7C
:1026F0001F4FF8CFDA9409F088CFCDB7DEB7E9E005
:102700000C94D034CF92DF92EF92FF92CF9320912E
:102710007B0130917C0140917D0150917E01C091FF
:102720008D018AE0C82ED12CE12CF12C8C2FCF5FAB
:10273000213A96E8390791E04907510538F0CA0176
:10274000B901A70196010E940F34F0CF80938D014B
:10275000A0913601B09137010E94BD3328E833E1E2
:1027600040E050E00E940F3420937B0130937C01C5
:1027700040937D0150937E01CF91FF90EF90DF90C9
:10278000CF900895A4E0B0E0E8ECF3E10C94B1340C
:10279000982E862E8FEF860F992D990F990D890F00
:1027A00080935701E92DF0E0E859FF4F1491862FEF
:1027B00090E0FC01E859FF4FF490FC01E559FF4F10
:1027C000049180912101813009F4A7C240911F0139
:1027D00087E991E06DE971E0DC012A2F281B2417BD
:1027E000A0F42D9128110EC09D0127503109F90147
:1027F0002081291107C0FB01208131812C3D35400A
:1028000008F48BC26E5F7F4FE8CF10928801109260
:10281000870181EF80938D0110927B0110927C01E2
:1028200010927D0110927E01E4DE18B807B9F4B869
:10283000F5B8892D0E9473047C01882D0E947304D1
:10284000E81AF90A14B81092590110925801C12CD3
:10285000D12C2091580130915901243F314050F53D
:1028600015B914B90E94240414B815B80E942B0499
:10287000A895892D0E9473046C01CE18DF08809101
:102880005801909159018E37910528F02BE4C2161A
:10289000D1040CF43EC25DE2C51651E0D50684F4C5
:1028A000809158019091590101969093590180931C
:1028B0005801CFCFEDE2CE16E1E0DE060CF429C2DE
:1028C0002091580130915901232B21F0C60100E0DD
:1028D00010E006C0F5E1CF16F5E0DF06BCF385C0D9
:1028E00020915801309159012017310758F00E946A
:1028F0002504892D0E9473048E199F09A8950F5FE6
:102900001F4FEECF8601081B190B1016110694F409
:10291000093C11050CF0FDC128EE33E0D8010E94FE
:10292000B7339601442737FD4095542F0E940F344A
:10293000790102C0E12CF12CA0905801B09059010E
:102940002FEFA21AB20AC501A0E0B0E08093830184
:1029500090938401A0938501B0938601C601800FF6
:10296000911F27D29C01D5010E94A8336093830157
:1029700070938401809385019093860160937B011D
:1029800070937C0180937D0190937E0187EF80930B
:102990008D01B8DE20917B0130917C0140917D0159
:1029A00050917E018AE193E029833A834B835C83D3
:1029B0000E943B35A8EEB3E0A81BB10987FDB39593
:1029C00029813A814B815C810E94C73324E630E043
:1029D00040E050E00E940F3420937B0130937C0153
:1029E00040937D0150937E0152C103DE15B887E00C
:1029F00087B918B8F12EFF0CF4B880E480937B00FF
:102A000084E580BF892D806480937C0086E180937B
:102A10007A000E942E0410925901109258011092CF
:102A20008000109285001092840087E286BB81E2CC
:102A300080936F0081E080937801F5B89091210137
:102A400080938100953059F481E090E0092C01C019
:102A5000880F0A94EAF78095877087B901C007B993
:102A6000F89483B7817F83BF80917801882389F0B0
:102A700083B7816083BF7894889583B78E7F83BF47
:102A8000F894A8958091580190915901803496400E
:102A900059F7789410928100E0908600F0908700BA
:102AA00010926F0086E980937A0014B815B8892DCA
:102AB0000E94730420913A0130913B01821B930BD9
:102AC0000C969093900180938F0180915801909182
:102AD00059018032934008F01CC1809158019091B7
:102AE00059019093860180938501F0928401E092D0
:102AF000830184EF80938D01809158019091590159
:102B000082349105C8F060918301709184018091B5
:102B100085019091860124E630E040E050E00E947B
:102B20000F342093830130938401409385015093A7
:102B3000860186EF80938D01A0917901B0917A0191
:102B4000209183013091840140918501509186014B
:102B50000E94BD3320E233E040E050E00E940F3499
:102B60002093830130938401409385015093860123
:102B700020937B0130937C0140937D0150937E0133
:102B8000C1DD80918D01843F09F071C0C0907B014F
:102B9000D0907C01E0907D01F0907E01F0EACF16AC
:102BA000FFE0DF06E104F104C0F4A70196012C5414
:102BB0003F4F4F4F5F4F60EA7FE080E090E00E9420
:102BC0000F342C0D3D1D4E1D5F1D20937B01309356
:102BD0007C0140937D0150937E01C0907B01D09099
:102BE0007C01E0907D01F0907E01C114D10421E0D0
:102BF000E206F10428F4D092BB01C092BA0106C0EB
:102C000081E090E09093BB018093BA0180915701DD
:102C100090E0895C9C4F0E943B35482F50E060E07B
:102C200070E04C155D056E057F0568F4C41AD50A81
:102C3000E60AF70AC0927B01D0927C01E0927D0106
:102C4000F0927E0114C084E1C80ED11CE11CF11C7D
:102C5000C416D506E606F70610F40E94620A109222
:102C60007B0110927C0110927D0110927E0114B9BB
:102C700080917B0190917C01A0917D01B0917E01BA
:102C80004997A105B10508F444C0E12CF12C8091CD
:102C90001F01882321F0809121018530D1F588E042
:102CA0008093210120918D0180918E018217BCF0CB
:102CB00028132FC040917B0150917C0160917D01D0
:102CC00070917E0180917F0190918001A09181019E
:102CD000B091820184179507A607B707D0F48091B9
:102CE0007B0190917C01A0917D01B0917E01809348
:102CF0007F0190938001A0938101B0938201209382
:102D00008E01F0928A01E092890180928B0190926B
:102D10008C0117B818B814B815B82496ECE00C94C8
:102D2000CD341F920F920FB60F9211248F939F9361
:102D3000B59904C080917801811109C0B59B10C07C
:102D400080918600909187008A3F910548F4809198
:102D5000580190915901019690935901809358011F
:102D60009F918F910F900FBE0F901F9018951F92FB
:102D70000F920FB60F9211248F939F9310927801A8
:102D8000B09B10C080918600909187008A3F91058A
:102D900048F48091580190915901019690935901FE
:102DA000809358019F918F910F900FBE0F901F90AD
:102DB00018950F9221E08C32920710F48CE291E08A
:102DC0008C52914069E170E00E94E83399E16B32E6
:102DD00010F0982F6BE2981BECEBF2E0E60FF11D80
:102DE000E60FF11D9F93CF010E943B35482F31968E
:102DF000CF010E943B35582F3196CF010E943B35C1
:102E0000282F3196CF010E943B35382F6F91421BFE
:102E1000530B649FC001659F900D11240C9669E1CE
:102E200070E00E94E833620F731FCB010F9008958A
:102E3000A0E0B0E0EEE1F7E10C94B13488E893E172
:102E4000909326018093250190933701809336015A
:102E50008EEB8093320118B880E187B90E94330469
:102E600017B884E00E946F04AC018B5C9840833FEC
:102E70009140A0F481E0809341012091360130918E
:102E80003701AFEBB9E00E94A8339A0140E050E06F
:102E90000E940F3430932601209325018091250153
:102EA0009091260190933701809336018EE00E9425
:102EB00073048EE00E946F0490933B0180933A016B
:102EC0000E94A60596DB18B8C1E0C7B985E185B9AF
:102ED000C4B980E00E946F047C0112E017B984E05D
:102EE000982E94B881E00E946F04E80EF91E97B8FE
:102EF00090E1892E84B882E00E946F04E80EF91EEA
:102F000015B8C8B9C7B9C4B9C0913601D091370155
:102F100080E00E946F045C0118B917B994B8009161
:102F200036011091370181E00E946F046C0198B85E
:102F300097B884B8809036019090370182E00E9463
:102F40006F04C00FD11FC80DD91DCA19DB09CC19D8
:102F5000DD09C81BD90B17B818B814B88091360111
:102F6000909137014C01880C991C880E991E8E187F
:102F70009F088C1A9D0AA12CB12C9701A0E9BAE1F7
:102F80000E94A833A50194010E940F3469017A01BF
:102F90003093400120933F019E01A0E9BAE10E94D5
:102FA000A833A50194010E940F3430933901209376
:102FB00038012057354E309323012093220180E7BA
:102FC000C81A85EED80AD0921C01C0921B0189E173
:102FD00080933201CDB7DEB7ECE00C94CD34FF9294
:102FE0000F931F93CF93DF93C82FD62FF42E0E94F9
:102FF0004B0181E191E00E94B1010CD26D2F8C2F29
:103000000E947C2BC1E00091BE011091BF01209174
:10301000C0013091C101011511052105310509F0EB
:10302000C0E08091010187FD02C0C11104C08DE0A4
:1030300091E00E94B1018D2F0E944B01C11106C089
:103040000E944D0180915D010E949A02FF2049F08B
:10305000809142018D3028F490E0855C9C4F0E9465
:10306000B10180E00E943202C1111BC06091BE011B
:103070007091BF018091C0019091C10103E028E4EB
:1030800047EF0E94070380E291E00E94B1018CE4C7
:1030900093E00E94433522E046E464EF0E94F60389
:1030A0001AC080915D010E949A02809101018E3FB9
:1030B00094F480E491E00E94B10160910901709163
:1030C0000A0180910B0190910C0103E028E44091EA
:1030D00001010E9407038091B6019091B701A09170
:1030E000B801B091B901892B8A2B8B2BF1F080E0CC
:1030F0000E9432026091B6017091B7018091B801CF
:103100009091B90104E028E440E00E9407038BE1BC
:1031100091E00E94B10123E040E26FEF8091BC0199
:103120009091BD010E94F60307C080E00E94120248
:1031300080914501811102C00E940D02CDB7DEB71A
:10314000E5E00C94D4340F931F93CF93DF93D82FE3
:103150000E94660180918B010E944B018CE591E0F9
:103160000E94B10125D560918B0180918C0180D3A3
:10317000909388018093870111E08A3F9F4F08F068
:1031800010E0C1E02091890130918A01232B09F4DC
:10319000C0E0112371F0CC2341F021E030E0D111E7
:1031A00002C020E030E0232B21F082E191E00E9478
:1031B000B10180918C010E944B01DD2359F0909167
:1031C00042018DE0891B0E944F0182E790E00E943E
:1031D000B10115C02091890130918A01232B69F03A
:1031E00083E491E00E94B10122E045E26FEF80911B
:1031F000890190918A010E94F6030E940D020E94AB
:103200006D0160917F0170918001809181019091A9
:10321000820104E026E440918E010E9407031123FD
:1032200069F08BE491E00E94B10122E044EF6EEF7F
:1032300080918701909188010E94F6030E940D02FF
:10324000DD23A1F0CC2391F080E00E94320284E4DF
:1032500091E00E94B10122E045E26FEF8091890187
:1032600090918A010E94F6030E940D02DF91CF9196
:103270001F910F9108958F7051F488EC0E943B04C8
:103280000E946D010E94C00A8AEC0C943B040895D0
:103290008F3021F490913C01913011F08F5F0895AF
:1032A00080E00895CF938DE790E00E94C324C0E0B2
:1032B0000E941F0660E082E00E94F81062E080E059
:1032C0000E94F8100E94660180917601882329F0FF
:1032D00041E062E080E083DE0FC08DE790E00E9475
:1032E000B10185E493E00E94B1010E946D018FE37A
:1032F0000E9442010E940D028C2FBDDF88EE93E0F8
:103300000E941905811109C080911A01843028F4A6
:103310008C2FBEDFC82F8A3F58F20E949301CF91B5
:1033200008950F931F93CF93DF93C0E0D8E012EF7F
:103330000DE00E941F0660E082E024DAD0932101B4
:1033400080918D01843FE1F440917B0150917C019B
:1033500060917D0170917E014436510561057105D2
:1033600078F440E060E082E00E94112960937B01E4
:1033700070937C0180937D0190937E0110938D0169
:1033800080918D01823FACF080938E0140917B0152
:1033900050917C0160917D0170917E0140937F018D
:1033A00050938001609381017093820181E0CBDEB4
:1033B00018C00E94660186E790E00E94B1018091EA
:1033C0004201902F981B892F0E944F0182E790E0C5
:1033D0000E94B1010E946D018FE30E9442010E9490
:1033E0000D028C2F48DF80ED97E00E9419058111B6
:1033F0000AC080911A01843030F48C2F49DFC82F25
:103400008A3F08F496CF0E949301DF91CF911F91DC
:103410000F910895A3E1B0E0E0E1FAE10C94AB3440
:1034200082E08093010180912101813009F01CC26A
:1034300080917601813009F017C220905D0124E06F
:10344000229EF0011124E655FE4F80819181A281D8
:10345000B381893032E59307A105B10508F004C2B4
:103460009B8B8A8B312C61E0822D631528F00E94A2
:103470009002B82EA92E03C00E9490025C01EA2D92
:10348000F0E0E559FF4F74908B2D90E0FC01E85976
:10349000FF4FE49115B818B82A893B89203F3105C0
:1034A000A0F430FC12C000911B0110911C010059C6
:1034B0001A4121E030E00B2C02C0220F331F0A9486
:1034C000E2F7C901872987B906C0E4B977B8009146
:1034D0001B0110911C0144E1642E8B2D0E946B0492
:1034E0004C018A2D0E94730434E08316910410F479
:1034F000049710F06A9489F760E460937B0084E598
:1035000080BF8B2D806480937C0096E190937A003D
:10351000E12CF12C10928000109285001092840012
:1035200087E286BB0E942E04232D2170298B30FC5C
:1035300005C081E88093810078B808C078B80E94FF
:10354000370480E286BB81E88093810046B345FF63
:1035500012C018B81092810080E286BB809186006C
:10356000909187006C012091840030918500821732
:10357000930768F013C040FFE9CF31E036BBA89550
:10358000C70101967C018035910501F7E2CF40FF2C
:1035900005C061E066BB8FEFE81AF80A86E9809300
:1035A0007A0034E1732E8B2D0E946B044C018A2D1E
:1035B0000E94730424E08216910410F4049710F022
:1035C0007A9489F780903F01909040018A899B8985
:1035D000880E991E800E911E20911D0130911E01B2
:1035E00000399AE11907B0F461EEC616D104E1047E
:1035F000F10438F4C60165E070E00E94E8336451DC
:1036000001C069E128523109261B310967FD339554
:1036100086E009C0C40160EB76E30E94E83387E0EE
:10362000860F285D3F4F90E0A0E0B0E08C159D052F
:10363000AE05BF0528F4C81AD90AEA0AFB0A03C076
:10364000C12CD12C76018989882329F092E2C90EF8
:10365000D11CE11CF11C60E5E616F10418F0C12C48
:10366000D12C76018BE0C816D104E104F10428F0D6
:1036700091E0C91AD108E108F10840913601509152
:103680003701A12CB12CA8EEB3E00E94A8332B0186
:103690003C019801DA010E94A833A50194010E941F
:1036A0000F3444275527C301B2010E940F34C901CA
:1036B0000E94FE05FC01A5019401C701B6010E940C
:1036C000CD334B015C01BF0180E090E023E0660F49
:1036D000771F881F991F2A95D1F76B5F7F4F8F4FF8
:1036E0009F4F2AE030E040E050E00E940F34C501D7
:1036F000B4010E940F34832D90E0E1E0F0E0EC0F84
:10370000FD1F64E0369EE00DF11D112420833183FE
:10371000428353836989611117C06CE0C616D104D6
:10372000E104F10488F0FC013196EE0FFF1FEE0F6B
:10373000FF1F81E090E08C0F9D1FE80FF91F208391
:103740003183428353833394A895339493E0931544
:1037500008F089CE18B884E00E943B0421E04D8136
:103760005E816F81788589819A81AB81BC81841764
:103770009507A607B70708F020E04D855E856F85A1
:10378000788989859A85AB85BC8584179507A607B6
:10379000B70710F032E001C033E0E22FF0E0EE0FA7
:1037A000FF1FEE0FFF1F81E090E08C0F9D1FE80FC1
:1037B000F91FDC0194E0399FA00DB11D11244D913A
:1037C0005D916D917C9180819181A281B381481737
:1037D00059076A077B0708F0322FE1E0F0E0EC0FB1
:1037E000FD1F24E0329FE00DF11D112480819181A5
:1037F000A281B3818093090190930A01A0930B01E8
:10380000B0930C0130FD09C02A893B89203F310566
:1038100020F48BEF8093010117C02CEF209301015E
:10382000BC01CD016B5F7F4F8F4F9F4F2AE030E08F
:1038300040E050E00E940F342093090130930A01C8
:1038400040930B0150930C018091090190910A0162
:10385000A0910B01B0910C01892B8A2B8B2B11F4B9
:103860001092010117B814B86396E2E10C94C734C2
:10387000AEE1B0E0EEE3FCE10C94AB34662EB82E82
:10388000860F898320912101283059F520917F01ED
:1038900030918001409181015091820157FD15C006
:1038A00010918E0109C0CA01B9012AE0312D412DC4
:1038B000512D0E940F341F5F173FACF391F4243158
:1038C00060E036074105510518F48FEF9FEF3DC1C9
:1038D000173F39F480E028178DE738074105410587
:1038E00010F020E03DE72C8B3D8B26EDA22EEBE681
:1038F000F0E0E60DF11D859180608E87EBE6F0E04B
:10390000EB0DF11D859180608F87E8E6F0E0E60D14
:10391000F11D7590E8E6F0E0EB0DF11DC59090EC1F
:10392000692AB92A81E0E82EF12C012D112D8E8310
:103930001F82188619861A861B861C861D86188E7D
:10394000198E1B8E1A8E0E94F91280E088B960923F
:103950007C000E942F043F8537B975B874B852E0D7
:103960005A95F1F70000000014B815B8DD243E8523
:1039700037B975B874B860927C00A895A0927A00A7
:1039800080917A0086FDFCCF2090780030907900FD
:10399000B0927C004C2DDDD02091780030917900E0
:1039A000288B398B3F8537B9C5B8C4B8A895B09274
:1039B0007C00A0927A0080917A0086FDFCCF609115
:1039C00078007091790060927C00472DC2D04091C0
:1039D00078005091790014B8CB01820D931DE80E48
:1039E000F91E011D111DEA82FB820C831D8388894B
:1039F0009989840F951F2E813F8168857985280FCD
:103A0000391F611D711D2E833F836887798722E3EB
:103A10002417150650F075B874B80E94390414B80C
:103A200015B8888D8395888F07C0483E73E0570787
:103A300018F08A8D83958A8F8889998928171906A5
:103A400060F03E8537B9C5B8C4B80E94390414B8CF
:103A500015B8898D8395898F07C0883E73E09707D5
:103A600018F08B8D83958B8FD3945D2D5F3F09F07C
:103A70007ECF40903F0150904001440C551C920174
:103A8000E4E0240D351DEA95E1F7290157016801AD
:103A90006E807F8088849984209121012830C1F430
:103AA0006C897D89812D912D6550704080409040BA
:103AB0009B01AC010E94CD339B01AC0160E779E72B
:103AC00086E190E00E940F34621A730A840A950A14
:103AD000A614B704C804D90428F46A187B088C0813
:103AE0009D0803C0662477244301B20180E090E082
:103AF0009301A4010E94CD339501A6010E940F34C9
:103B000086E193E07981870F911D0E943B35682EF5
:103B1000C90160E170E00E94E833260F371FC90138
:103B20006816190618F4861991090FC08C5E9F4F0C
:103B30008615910540F48C899D89843981E1980727
:103B400010F00E94620A812D912D6E96E2E10C9494
:103B5000C734109281001092800010926F00109272
:103B60008B0010928A0057E056BB5FEF50938500A0
:103B70005093840055E050937B0056EB50937A00AD
:103B800051E05093810058E25A95F1F7000045B991
:103B900044B955E05A95F1F7000014B815B81092E1
:103BA000810080917A0084FFFCCF80937A00089591
:103BB000A4E0B0E0EEEDFDE10C94B3348091890116
:103BC00090918A01892B09F0B2C0E0918B01F0E05D
:103BD000E559FF4F0491E0918C01F0E0E859FF4F67
:103BE00014910E94F91218B815B807B914B9809148
:103BF0008C010E9473045C0100918E018CE0800FA7
:103C0000843008F094C0015F80917F019091800121
:103C1000A0918101B09182012AE0C22ED12CE12C29
:103C2000F12CBC01CD016B5F7F4F8F4F9F4FA701E0
:103C300096010E940F340F5F073019F0DA01C901B5
:103C4000F0CF293883E138074105510508F06FC0EE
:103C50002530310508F46BC015B914B900E010E047
:103C60000217130768F429833A834B835C830E940D
:103C700035040E5F1F4F5C814B813A812981F0CF63
:103C800014B815B8A89585E08093320180918C0115
:103C900029833A834B835C830E94730429813A8190
:103CA0004B815C81A816B90620F47C01EA18FB0858
:103CB00002C0E12CF12C00E010E00217130768F4B9
:103CC00029833A834B835C830E9435040F5F1F4F27
:103CD0005C814B813A812981F0CF80918C010E94D7
:103CE000730429E120933201A895A816B90618F4A7
:103CF0008A199B0902C080E090E08E159F0588F428
:103D00009701281B390B69F0A4EFB1E00E94A8339A
:103D1000970140E050E00E940F3430938A012093D5
:103D200089010E94F91217B818B814B815B824966A
:103D3000EAE00C94CF34A5E0B0E0E1EAFEE10C94B7
:103D4000AB3481E192E01FD620EF2A8354980E9481
:103D50002A0414BC16BC10920E0110920F0110928E
:103D600010011092110131E035BB30936E001092BA
:103D7000800083E19AE790938B0080938A00E1E0D2
:103D8000F0E0F0938900E093880010928500109293
:103D9000840083B5816083BDF6E0F6BBF0936F00CD
:103DA000789424E02093810012E319820E94230476
:103DB000A8954F9902C031E0398385B581111FC0A4
:103DC00015BC86B580930E010E94930186E60E9481
:103DD00042010E94600160910E0170910F0180917B
:103DE00010019091110147E00E940B0454988091BA
:103DF0008100882339F08FE30E94420103C01150F3
:103E0000A9F6DECF1092810010926F0020910E0172
:103E100030910F014091100150911101DA01C90157
:103E20000197A109B109893D9146A105B10508F0A5
:103E300029C1AAE0B0E00E94BD33685F7F4F8F4F79
:103E40009F4F23E096958795779567952A95D1F7AB
:103E5000660F771F709371016093700154980E94F0
:103E60002A0416BC10920E0110920F01109210013C
:103E70001092110181E085BB80936E001092730156
:103E80001092720194E09BBB8091680084608093E3
:103E90006800789480916D00806180936D001D8230
:103EA0000E942304A8954F9902C0E1E0E983809124
:103EB0006D0084FF05C0FD81FF5FFD83FA3F81F740
:103EC00015BC80916D008F7E80936D00809168009D
:103ED0008B7F8093680086B580930E010E946D01F0
:103EE00084E50E9442010E94600180910E01909140
:103EF0000F01A0911001B09111012091700130913A
:103F000071013C832B831C012D019C01A20160E007
:103F100070E080E090E003E00E94E2345101620131
:103F2000E12CF12C00E010E00E94FB3459016A0101
:103F30007B01E82F192F03E00E94E2340E2F0E942C
:103F4000FB3403E00E94E23451016201E12CF12CC8
:103F500000E010E00E94FB3402E00E94E23400E046
:103F60000E94FB3401E00E94E23400E00E94FB3436
:103F700003E00E94E234EB81FC815F01C12CD12C73
:103F800000E00E94473439014A011B012C012B81BA
:103F90003C812038310530F007E023E745EFB301DD
:103FA000C40116C084E6A82EB12CC12CD12CE12C62
:103FB000F12C00E010E09301C2010E944734E22F8F
:103FC000F42F07E023E747EF6E2F732F8F2F952FE6
:103FD0000E9407033D813A3F21F48FE30E94420192
:103FE00051C09301A401B101C2012C393E4C4340A0
:103FF0005105610571058105910509F008F442C07C
:104000000E94660186E60E9442010E9460019301BF
:10401000A401B101C20153016401710182012115A2
:104020003A4C4A495B43610571058105910589F068
:1040300080F020E030E04AE85DE568E775E483E67B
:1040400091E00E944734E22FF42F07E028E44AEF82
:104050000FC020E030E846EC54EA6EE77DE883E0EC
:1040600090E00E944734E22FF42F07E028E44CEF61
:104070006E2F732F8F2F952F0E9407038AE70E94C0
:104080004201549810926E0080ED97E00E9419054D
:104090002981820F49F480911A01833028F43A81F2
:1040A00031503A83311152CE2596E2E10C94C73457
:1040B0001F920F920FB60F9211248F939F93AF937D
:1040C000BF93789480910E0190910F01A0911001FF
:1040D000B09111019F5FAF4FBF4F80930E0190933E
:1040E0000F01A0931001B0931101BF91AF919F9167
:1040F0008F910F900FBE0F901F9018951F920F92E7
:104100000FB60F9211248F9386E085BD8F910F908B
:104110000FBE0F901F9018951F920F920FB60F921F
:104120001124A8951092810015BC0F900FBE0F901E
:104130001F9018951F920F920FB60F9211242F9374
:104140003F938F939F938091720190917301892B7C
:1041500011F481E085BD209172013091730180914D
:104160007001909171012817390730F015BC8091CA
:104170006D008F7E80936D0080917201909173012C
:10418000019690937301809372019F918F913F915B
:104190002F910F900FBE0F901F9018958C3008F044
:1041A0008C50811103C08BE192E036C0813019F44C
:1041B00081E192E031C0823019F488EE91E02CC0A8
:1041C000833019F48DED91E027C0843019F488E82C
:1041D00090E022C0853019F48DE790E01DC0863054
:1041E00019F486E790E018C0873019F48CEC91E060
:1041F00013C0883019F48DEB91E00EC0893019F4AA
:1042000089E092E009C08A3019F48FEF91E004C090
:104210008B3021F484EF91E00E94B1010C940D02E7
:104220000F93CF9388E890E0AED3C0E010922101C5
:1042300060E082E0C4D3809121018830D1F50E94F2
:10424000660183E40E9442010E94600160917F0147
:1042500070918001809181019091820103E026E4B8
:1042600040918E010E9407030E940D0260918B0114
:1042700080918C01FDDA90938801809387010E94E0
:104280006D018CE491E00E94B101809187019091D1
:1042900088018A3F2FEF920730F422E044EF6EEF5F
:1042A0000E94F60303C08FE30E9442010E940D02A8
:1042B0000AC00E94660188E890E00E94B1010E9455
:1042C0000D020E9437028C2F0E943B1988EE93E06A
:1042D0000E94190581110BC080911A01843038F4B5
:1042E0008C2F0E944819C82F8A3F08F49FCFCF9186
:1042F0000F9108951F93CF93DF9389E092E043D30A
:10430000C0E0D0E01AE00E94370284E391E00E940E
:10431000B10183E00E946F0463E09C01129FC00121
:10432000139F900D11240E9401048C2F0E943B19B1
:1043300088EE93E00E94190590911A01811102C044
:10434000992361F0C0E0963080F48F3510F0DF5F84
:1043500002C0882319F0D53010F007C0D0E08C2FB0
:104360000E944819C82F803F70F2DF91CF911F91B2
:104370000895A5E0B0E0EFEBF1E20C94AB3488EEE9
:1043800091E001D380E18093800010926F0081E082
:1043900090E0909389008093880010928B00109297
:1043A0008A0083E086BB1092820088E080938100BF
:1043B00015B881E184B918B881E087B9229A89E0FB
:1043C00080938100212C1B822AE02983332433949B
:1043D000812C912C5401839411E1822D90E00A9656
:1043E0006EE170E00E94FC33662E562E3B8163170F
:1043F00089F00E94660188EE91E00E94B101712C63
:10440000751428F48EE20E9442017394F9CF0E9441
:104410000D026B821231C8F0C701B601A5019401EB
:104420000E940F342B013C01832D69810E94DC33F3
:10443000A92FB0E0A50194010E94BD336B017C015E
:10444000C40CD51CE61CF71C0CC0832D69810E948E
:10445000DC33A92FB0E0A50194010E94BD336B01AC
:104460007C010E946D018981381208C081E01231FF
:1044700008F480E08A83811106C001C01A821631D7
:1044800020F48EE303C08CE301C082E50E94420168
:10449000412FC701B6010E940B04C701B6017E5E21
:1044A00085489F4FA7019601220F331F441F551FB8
:1044B0000E940F34CA014F3F510539F030F08DE0B2
:1044C0008093810080E094E01FC04034510530F0BB
:1044D0008CE08093810080E091E016C04830510567
:1044E00030F09BE09093810080E490E00DC0892B38
:1044F00031F0EAE0E093810088E090E005C0F9E067
:10450000F093810081E090E02C01612C712CCA01B4
:10451000B901A30192010E940F3421503109309357
:104520008900209388008091880090918900892BD0
:1045300031F421E030E030938900209388008091AD
:104540008800909189009D838C8360E079E08DE301
:1045500090E0A30192010E940F34A4E6B0E00E9413
:10456000BD33EC81FD8131969F0140E050E00E9417
:104570000F3429013A01A4E6B0E0A70196010E9498
:10458000BD33461A570A680A790A02E228E44EEF58
:10459000C301B2010E9407038AE70E9442010E9400
:1045A0000D028CED95E00E941905811105C08091E6
:1045B0001A01811142C042C0863958F01092810020
:1045C0001092800017B814B822982596E2E10C9456
:1045D000C734813578F1FA81FF23D9F01150C50134
:1045E000B4012AE030E040E050E00E940F3449017D
:1045F0005A01C701B6010E940F34CA01B9012AE06D
:1046000030E040E050E00E940F34362E2AE029834B
:104610003DC0163190F51F5F163111F435E1398335
:10462000AAE0B0E0A50194010E94BD334B015C01FA
:10463000312C2CC08B3008F03394212C80911A013E
:104640008B3008F0BBCF8091190187FF03C08F5FCB
:104650009981890F830D90E0E9816E2F70E06F5F83
:104660007F4F0E94FC33382E822D0E944819282E3D
:10467000FFEEF81708F0B1CEA1CF2AE0298333244A
:104680003394812C912C5401839411E1212CA5CEDB
:10469000A4E0B0E0EEE4F3E20C94AF348DED91E0F1
:1046A00072D183E28093800010926F008FEF90E0D0
:1046B00090938B0080938A0083E086BB10928200E7
:1046C00015B881E184B918B881E087B9229A81E0F0
:1046D00090E0909389008093880089E08093810026
:1046E00010E000E0A2E37A2E612CB4E6CB2ED12CB0
:1046F000E12CF12C88248A9483E0982EA12CB12CF3
:104700007016E9F183E6871510F4ECE97E0E272D8B
:1047100030E0AFEFB3E00E94A8336E5C7F4F8F4F65
:104720009F4FA70196010E940F3430938B00209376
:104730008A0029833A834B835C830E946D01A8EE33
:10474000B3E029813A814B815C810E94BD33615085
:104750007E4F8F4F9F4FA50194010E940F34DA01C5
:10476000C90125E045E26FEF0E94F6030E940D02A9
:10477000F8E2F61518F48CE30E943B04072D80E460
:1047800096E00E941905682E82E8861558F417B83D
:10479000109281001092800014B822982496EEE0C6
:1047A0000C94CB3490911A019B3088F780911901B9
:1047B00087FD8C59780EE2E3E61518F4FAE07F0ED7
:1047C00003C0662051F0739410E0812F0E944819B5
:1047D000182F803F08F494CFDACF9111F5CFF5CFA1
:1047E0000F931F93CF93DF938CEC91E0CCD08AE1B1
:1047F00093E00E943B35182F00E00E946D01C12F0D
:10480000DD27C7FDD09517FF0BC08DE20E94420146
:1048100023E045E26FEF882799278C1B9D0B04C08E
:1048200023E045E26FEFCE010E94F6030E940D02E5
:1048300080E496E00E941905811105C090911A014B
:10484000911103C003C0823800F500E090911A0175
:104850009B30D8F490911901910F811102C0192F4A
:1048600006C0893210F011E001C01FEF190F113599
:1048700014F0155603C01C3E0CF41B59802F0E94E7
:104880004819082F803F08F4B8CF612F8AE193E0E0
:104890000E944835DF91CF911F910F91089581308B
:1048A00011F480E048CA823009F463CD833009F402
:1048B000EFCE843009F4B4CC853011F40C94521945
:1048C000863021F40E9493010C949119873009F4E9
:1048D00087CF883019F481E10C949B06893009F464
:1048E00009CD8A3009F4AAC18B3029F45E9880E0A2
:1048F00090E00C9419050895CF93DF9386E292E03F
:1049000042D0D0E0C0E00E946D018C2F47DC80E4F3
:104910009FE10E9419058111D0E090913C019130F6
:1049200009F4D0E0823330F490917701992371F04B
:10493000882361F0CC2319F18C2FB1DF10921A017A
:104940001092190186E292E01ED080E090911A0147
:104950009A30A8F490911901992319F097FD03C09A
:10496000D0E0C90F03C0945FC90FD0E08111CF5FC1
:10497000DF5FD83720F4CC3030F2CC50C4CF80E0A9
:10498000DF91CF910895A2E0B0E0E9ECF4E20C945D
:10499000BA3489839A830E94930189819A810E9403
:1049A000B10114E682E00E943B044F9902C011500D
:1049B000C9F70E946D012296E3E00C94D634A4E07E
:1049C000B0E0E5EEF4E20C94B034882E762E862F1B
:1049D00090E0FC01E559FF4F0491E82DF0E0E85923
:1049E000FF4FB490FC01E859FF4F149110928801D9
:1049F0001092870110927B0110927C0110927D0130
:104A000010927E0187EF80938D010E94F91218B8F1
:104A100007B914B915B9882D0E9473048C01872D2C
:104A20000E947304081B190B14B8109259011092BC
:104A3000580120E030E09CE2E92EFF24F3944AE0A4
:104A4000A42E54E6952E8091580190915901843DF1
:104A5000904308F069C0B5B8809158019091590110
:104A6000892B89F06701C21AD30A609158017091AD
:104A70005901A29EC001A39E900D11240E94E8330B
:104A8000C616D70650F4B4B80E942E0414B880910C
:104A9000580190915901019628C080915801909138
:104AA00059010B97C8F06091580170915901929E7D
:104AB000C001939E900D11240E94E8336C157D0572
:104AC00058F4B4B80E94230414B88091580190910E
:104AD00059018C599F4F09C0B4B80E94290414B8D9
:104AE00080915801909159010A96909359018093B1
:104AF000580115B80E943004A895882D0E947304AF
:104B00009C01201B310B80915801909159018B31F0
:104B1000964020F0253231050CF488C02D3281E01A
:104B200038070CF490CF05C02D32F1E03F070CF4AC
:104B30007DC08091580190915901019729F4253148
:104B400045E034070CF072C00091580110915901F2
:104B5000000F111FA80160E070E0409383015093A3
:104B600084016093850170938601C90168E270E059
:104B70000E94FC33C901860F971F0E94D9169C0121
:104B8000D8010E94A83360938301709384018093BD
:104B900085019093860160937B0170937C018093E3
:104BA0007D0190937E010E94821320917B013091C0
:104BB0007C0140917D0150917E018AE193E029833F
:104BC0003A834B835C830E943B35A8EEB3E0A81B7D
:104BD000B10987FDB39529813A814B815C810E949F
:104BE000C73320E137E240E050E00E940F342093C9
:104BF0007B0130937C0140937D0150937E0188E0DE
:104C00008093210120937F013093800140938101A3
:104C10005093820180918D0180938E0110928A01C0
:104C20001092890170928B0180928C0117B818B88C
:104C300014B815B82496EDE00C94CC34A0E0B0E0A4
:104C4000E4E2F6E20C94B6340E9493018EEF90E019
:104C50000E94B1010E946D018AEB90E00E94B101B7
:104C600088E193E00E943B3523E040E26EEF90E064
:104C70000E94F60389E193E00E943B3523E040E285
:104C80006EEF90E00E94F60387E193E00E943B35CF
:104C900023E044EF6EEF90E00E94F60388E99AE388
:104CA0000E94190580911A018B3008F00AC1809189
:104CB000190187FDC9CF0E94930183EB90E00E9408
:104CC000B10123E044EF6FEF8091380190913901F9
:104CD0000E94F6030E946D018CEA90E00E94B101EF
:104CE00023E044EF6FEF80913F01909140010E94DB
:104CF000F60388E99AE30E94190580911A018B3026
:104D000008F0DFC0809119018F3F0CF49DCF8F3FD9
:104D100091F20E94930188EA90E00E94B1018CE335
:104D200093E00E943B3590E042970E9467028DE33A
:104D300093E00E943B3590E042970E94670289E32E
:104D400093E00E943B3590E023E046E464EF429715
:104D50000E94F6030E946D0183E00E944F0188E3E8
:104D600093E00E943B3590E042970E9467028BE3FC
:104D700093E00E943B3590E042970E94670287E3F0
:104D800093E00E943B3590E023E046E464EF4297D5
:104D90000E94F60388E99AE30E94190580911A019E
:104DA0008B3008F08EC0809119018E3F0CF44CCFEF
:104DB0008E3F09F480CF8F3F09F4ABCF0E9493015F
:104DC00086E290E00E94B1018EE393E00E944335B9
:104DD0000E9453020E946D018FE190E00E94B10198
:104DE00080E493E00E943B35992787FD90950E94CF
:104DF000530260E081E00E948501F12CDF2CDD0C84
:104E0000DF0CE12CDA94FE1409F450C0CD2DCE0D48
:104E1000D0E0CC0FDD1FCE01875D9C4F0E94433553
:104E20008C01CE01855E9C4F0E944335EC01809140
:104E3000A9018823E1F088E99AE30E94190580918D
:104E40001A018B3008F03DC0809119018C3F0CF4A1
:104E5000FBCE8C3F09F42FCF8D3F09F45ACF8E3F04
:104E600009F4ACCF8F3F29F20E94930103C080E088
:104E70000E94120280EA90E00E94B1018F2D0E94F0
:104E80004B018AE30E9442018E2D0E944B0180E07B
:104E90000E94120223E040E26EEFC8010E94F60376
:104EA00023E046E462EFCE010E94F603E39483E040
:104EB000E812A9CFF394F812A1CF88E99AE30E94EF
:104EC0001905CDB7DEB7E7E00C94D234A1E8B0E025
:104ED000ECE6F7E20C94AD3410919101D09097017B
:104EE000F0909801E12FF0E0E859FF4F5490A52C85
:104EF000B12CAA0CBB1C812F8064482E8F2C912CC6
:104F0000F401E859FF4F2491C52CC22A2A29409266
:104F10007C006D2C712CF301E559FF4FE491E7B94A
:104F200018B815B814B8CF57DF4F2883C158D040F0
:104F30000E942F04CF57DF4F2881C158D040E22E66
:104F4000022F40E4BE016F5F7F4F80E090E17CD094
:104F5000FE01759680E02AE0419151915695479562
:104F600056954795042F841728F42F5F203419F0A5
:104F7000842FF2CF082F802F869586958695302F27
:104F8000381B203409F453C0DE011196A20FB11D65
:104F9000A20FB11D8D919C919695879596958795B9
:104FA000831708F042C082E080932101D09254011F
:104FB00010935201F0925301F301E80DF91DE75AE5
:104FC000FE4F10826D2D8F2D0E94F810809154019C
:104FD000E0915301F0E0E80FF11DEE0FFF1FEE0F1F
:104FE000FF1FEA55FE4FC080D180E280F38003525C
:104FF000202F30E0A4E6B0E00E94A8334B015C0112
:105000009E2D8D2D7C2D6627A70196012057354EAC
:105010004F4F5F4F0E940F34C501B4010E940F34FF
:10502000309351012093500109C02F5FAACF809186
:105030009701D81203C0DF2CF82E60CFCF57DF4F77
:10504000E0E10C94C9340895E62FF72F903009F46D
:105050009395E5B8C4B8B6EFB0937A00A5E0A093F5
:105060007B00A8E0A093810010928000AFEFA09396
:105070008500A0938400A6E0A093360010928B00D8
:1050800010928A00B3E0AFE3A91B51E0392F33300F
:105090002AF0A05CBC4F53953350F9CFB0938900F0
:1050A000A0938800A0917A00A4FFFCCFB6EBB09348
:1050B0007A00A2E0A0936F00A9E0A093810062E0D3
:1050C000A0E0A0937B00A1E0A09353008895E5B8F1
:1050D000C4B884FF19C0A8E10000AA95F1F7EF93C6
:1050E000FF93E7B1F8B1A4E0C2FCA2E0C0FCA1E0EC
:1050F000BF2FBA2BAE2BB8B904B9A7B9E7B9F8B925
:10510000FF91EF910AC0DFCFACE100000000AA954B
:10511000F1F725B9E5B8000004B9A0918400A09189
:105120008500B0918900A395AB1768F7A0917A002C
:10513000A4FFF3CFB6EBB0937A006A9571F7609154
:10514000780070917900308186FD630F6193308122
:1051500086FD731F80FF7193652F4A9579F7109232
:105160006F0010928100B6E0B0937A0008958F929C
:105170009F92AF92BF92CF92DF92EF92FF92AC01DB
:105180006C01E12CF12C560199248824E52FFF278E
:105190009A01DA010E94A8339C013695279536952D
:1051A0002795C9019695879596958795BC01769523
:1051B00067956E9FD0016F9FB00D7E9FB00D11243B
:1051C000B901681B790BCB019A0164E036952795EC
:1051D0006A95E1F72E0F3F1F240F351F40E050E086
:1051E000280F391F411D511DCD0173E096958795FC
:1051F0007A95E1F7A81BB90B2A0F3B1F411D511DE2
:10520000C701B6010E94CD33680D791D8A1D9B1D13
:10521000FF90EF90DF90CF90BF90AF909F908F90D6
:105220000895A6E0B2E0E7E1F9E20C94AB34782E01
:10523000CE5FDD4F6883C250D240642E0E94F912C7
:10524000E72DF0E0E859FF4F1491B12EBB0CCE5F73
:10525000DD4F2881C250D240E22FF0E0E559FF4FE8
:10526000E491E7B915B814B9872D806480937C0068
:105270000E942F04362D3170CF5FDD4F3883C1502F
:10528000D24060FE02C0F12E01C0FB2CB0E2DB2E4A
:1052900080E090E0C12EEF2C0B2D2F2D44E7BE01B6
:1052A0006F5F7F4FD1DEDA9419F080E490E0F2CFA7
:1052B00014B88E01095B1F4FA3E2CA2ED12CE12C3A
:1052C000F12C812C912C5401212C312C2101CF5F08
:1052D000DD4F6881C150D240F80180819181662301
:1052E00029F020E030E8281B390BC90140DF9C0180
:1052F00040E050E0220E331E441E551EC701B60189
:105300000E94CD33860E971EA81EB91EFFEFCF1A3E
:10531000DF0AEF0AFF0A0E5F1F4F24E7C216D1040F
:10532000E104F104A1F6C201B10121E530E040E061
:1053300050E00E940F34ABEBB7E10E94BD33A501F2
:105340009401261B370B480B590BF4E056954795F3
:1053500037952795FA95D1F760EE7DEC81EC9FE8C3
:105360000E940F3461FC47C0CE5FDD4F8881C25080
:10537000D2408150972D990F970D890F90E0CF5F04
:10538000DD4F6881C150D240880F991F662319F004
:10539000855E9C4F02C0875D9C4FCD5FDD4F2883AB
:1053A000C350D240CC5FDD4F3883C450D240CB5F76
:1053B000DD4F4883C550D240CA5FDD4F5883C65089
:1053C000D2400E944335CD5FDD4F2881C350D2408B
:1053D000CC5FDD4F3881C450D240CB5FDD4F488178
:1053E000C550D240CA5FDD4F5881C650D240281BFD
:1053F000390B41095109CA01B901CA5FDD4FE2E128
:105400000C94C734A0E0B0E0E8E0FAE20C94B034C9
:1054100010E0712E770C710E00E07A94101709F4E9
:1054200040C042E0602F812FFCDE4B015C0143E075
:10543000602F812FF6DE6B017C010E94930180EAD0
:1054400090E00E94B1010E944D01812F0E944B010A
:105450008AE30E944201802F0E944B010E944D016D
:105460000E946D0124E040E26EEFC4010E94F60349
:1054700024E046E462EFC6010E94F603C72DC00F88
:10548000D0E0CC0FDD1FB401CE01875D9C4F0E94A0
:105490005635B601CE01855E9C4F0E9456350E945E
:1054A0000D020F5F033009F0B9CF1F5F133009F011
:1054B000B0CF0E94660186EA91E00E94B1010E948D
:1054C0000D0288E20E943B04CDB7DEB7EDE00C94FC
:1054D000CC34A2E1B0E0EFE6FAE20C94AB344C013C
:1054E0007E876D87A22E642E712C9301220F331FAD
:1054F0003C872B8723E0429FF0011124F88BEF8734
:1055000020E01C821B82212C312C1A861986412C0A
:10551000512C1A82198218861F8261E070E0B12C2A
:1055200030E000E010E0E0E0F0E08FEF90E086197E
:1055300097099E838D83A32FB0E0BA8BA98B8D81B1
:105540009E81A817B9070CF08EC0A989BA89A60D4B
:10555000B71DAA0FBB1FA80DB91D8D919C91080FF7
:10556000191FA989BA89AA0FBB1FA80DB91DED90F3
:10557000FC90EE0DFF1D341708F471C089899A89DB
:1055800086199709DC01AA0FBB1FA80DB91D0D9044
:10559000BC91A02DEA1BFB0B0E191F096F01C01A4D
:1055A000D10A309739F4AB81BC81AB2B11F49C83C9
:1055B0008B8321E01C141D040CF052C01616170634
:1055C0000CF44EC08B859C85A989BA89A817B907A8
:1055D0000CF446C07801EE0EFF1E8F859889E81600
:1055E000F90608F440C056E0AA0FBB1F5A95E1F730
:1055F000BA8BA98BC601A6E0880F991FAA95E1F77F
:1056000080966C197D090E94FC33A989BA89A60F7E
:10561000B71FBA8BA98B4E0C5F1CBB2059F04130D1
:1056200079F08B2F831990E06B857C85681779075B
:105630003CF419C089899A899A878987F886EF820C
:10564000211104C092E09A1558F40DC0B394298832
:105650003A88FA82E982BA1431F020E001C06B0185
:105660003F5FB60168CFAD85BE85AB2B09F19201D6
:10567000EF81F8852E1B3F0BA8EEB3E00E94A83304
:10568000920149815A81241B350B40E050E00E9471
:105690000F3488EE93E0821B930B0E94FE05BC0141
:1056A00088EB9AE70E94E833AD85BE856D937C93C5
:1056B000B1E0BB1518F080E090E01AC0BA94C101C7
:1056C000E985FA858E1B9F0B2B2D2695820F911D48
:1056D0006B2D70E00E94E833CB0126E0969587950C
:1056E0002A95E1F72B813C818217930720F3CB01A8
:1056F0006296E2E10C94C734A7E2B2E0E2E8FBE292
:105700000C94AF34F82E062F8CE493E00E944335BE
:105710004C01E02FF0E0E859FF4F1491EF2DF0E03D
:10572000E559FF4FE4911092B6011092B701109223
:10573000B8011092B9011092BD011092BC011092F3
:10574000BE011092BF011092C0011092C101809160
:105750002101813009F05AC18091010118160CF421
:1057600055C118B8E7B90E942F04006CD02E0093E1
:105770007C000E942F04C12EE12C00E0212F4FEF6E
:10578000BE016F5F7F4F80E191E05EDC8F2D806C0A
:10579000F82E80937C00212F44E1BE0161507E4FA2
:1057A00080E191E051DCDE011196FE01E150FE4FF7
:1057B000AE01475D5F4F2D913C9111978191919181
:1057C0002817390730F0281B390B11963C932E937C
:1057D00003C011961C921E921296A417B50759F792
:1057E000D0927C00FE01339631E081919191892B1A
:1057F00021F03F5F3A3FC9F709C1313158F422E047
:10580000432F60E070E0CE01019663DE31E0390F96
:105810003131D0F0303440F420E1622E24E0722E99
:1058200042E0A42EB12C06C080E1682E762C94E0D4
:10583000A92EB12C432F50E00A2C02C05595479554
:105840000A94E2F7342F06C000E1602E77247394A7
:10585000A12CB12CB8E0DB2EA895C12EE12C00E0E4
:10586000212F4FEFBE016F5F7F4FC301C95DDD4F39
:105870003883C752D240E8DBC301892F9927869528
:10588000C95DDD4F3881C752D240892B09F445C02C
:1058900024E1432F6CEB71E0CE0101961ADE8C01FE
:1058A0006C01E12CF12C9C01DC0152D723E330E0A8
:1058B00040E050E0B4D7A8E6B2E05FD79401369557
:1058C000279540E050E0ABD7C5010196880F991F9E
:1058D00004C0220F331F441F551F8A95D2F720930F
:1058E000BE013093BF014093C0015093C10180912C
:1058F000090190910A01A0910B01B0910C0103974D
:10590000A105B10508F451C01092BE011092BF016B
:105910001092C0011092C10148C0C3018064DA94A2
:1059200011F03C0199CFF0927C00E89466F878E0A1
:10593000F72EC12EE12C00E0212F44E1BE01615081
:105940007E4FC301C95DDD4F3883C752D2407CDB37
:10595000689466F8FA94C95DDD4F3881C752D24029
:10596000F110E7CF24E1215008F492CF822F90E08C
:10597000880F991FE1E0F0E0EC0FFD1FE80FF91F21
:1059800040815181AFEFB1E0AC0FBD1FA80FB91F2F
:105990008D919C914817590728F0481B590B51834A
:1059A0004083E1CF11821082DECF0115110569F429
:1059B0001092BD011092BC011092BE011092BF0165
:1059C0001092C0011092C10121C026E030E02A19D6
:1059D0003B0960E072E18AE790E004C0660F771F40
:1059E000881F991F2A95D2F7A701960118D72093EF
:1059F000B6013093B7014093B8015093B90180913B
:105A0000010187FD03C08FEF80930101C95DDD4F68
:105A1000EEE0C1C7CF93DF930E9493018EE090E048
:105A20000E94B101D0E0C0E01092BB011092BA0117
:105A300084E10E943B0462E080E00E94C2130E9465
:105A40006D0124E046E464EF8091BA019091BB01BE
:105A50000E94F6036091BA017091BB01CB018C5199
:105A600095428D3C9B4588F4CF5FC53078F08CE43F
:105A700093E00E9456350E944D0186EA91E00E9413
:105A8000B10184E60E943B0405C0C0E00E940D0203
:105A9000D15051F6DF91CF910895A1E0B0E0E2E559
:105AA000FDE259C780E48AB98BB986E880937A0011
:105AB0001092C1000E941B0414B784B7877F84BF73
:105AC00088E10FB6F89480936000109260000FBEDA
:105AD00086E88093640088E380937E001092B00093
